{
  "abi": [
    {
      "type": "constructor",
      "inputs": [
        {
          "name": "_token",
          "type": "address",
          "internalType": "contract ERC6909"
        },
        {
          "name": "_verifier",
          "type": "address",
          "internalType": "contract PlonkVerifier"
        }
      ],
      "stateMutability": "nonpayable"
    },
    {
      "type": "function",
      "name": "convertToUint256",
      "inputs": [
        {
          "name": "data",
          "type": "bytes32",
          "internalType": "bytes32"
        }
      ],
      "outputs": [
        {
          "name": "",
          "type": "uint256",
          "internalType": "uint256"
        }
      ],
      "stateMutability": "pure"
    },
    {
      "type": "function",
      "name": "deposit",
      "inputs": [
        {
          "name": "_commitment",
          "type": "uint256",
          "internalType": "uint256"
        },
        {
          "name": "_id",
          "type": "uint256",
          "internalType": "uint256"
        },
        {
          "name": "_amount",
          "type": "uint256",
          "internalType": "uint256"
        }
      ],
      "outputs": [
        {
          "name": "",
          "type": "bytes32",
          "internalType": "bytes32"
        }
      ],
      "stateMutability": "nonpayable"
    },
    {
      "type": "function",
      "name": "deposits",
      "inputs": [
        {
          "name": "",
          "type": "bytes32",
          "internalType": "bytes32"
        }
      ],
      "outputs": [
        {
          "name": "amount",
          "type": "uint256",
          "internalType": "uint256"
        },
        {
          "name": "id",
          "type": "uint256",
          "internalType": "uint256"
        },
        {
          "name": "commitment",
          "type": "uint256",
          "internalType": "uint256"
        },
        {
          "name": "isDeposited",
          "type": "bool",
          "internalType": "bool"
        }
      ],
      "stateMutability": "view"
    },
    {
      "type": "function",
      "name": "nullifierHashes",
      "inputs": [
        {
          "name": "",
          "type": "bytes32",
          "internalType": "bytes32"
        }
      ],
      "outputs": [
        {
          "name": "",
          "type": "bool",
          "internalType": "bool"
        }
      ],
      "stateMutability": "view"
    },
    {
      "type": "function",
      "name": "token",
      "inputs": [],
      "outputs": [
        {
          "name": "",
          "type": "address",
          "internalType": "contract ERC6909"
        }
      ],
      "stateMutability": "view"
    },
    {
      "type": "function",
      "name": "verifier",
      "inputs": [],
      "outputs": [
        {
          "name": "",
          "type": "address",
          "internalType": "contract PlonkVerifier"
        }
      ],
      "stateMutability": "view"
    },
    {
      "type": "function",
      "name": "withdraw",
      "inputs": [
        {
          "name": "data",
          "type": "bytes",
          "internalType": "bytes"
        }
      ],
      "outputs": [],
      "stateMutability": "nonpayable"
    },
    {
      "type": "event",
      "name": "DepositMade",
      "inputs": [
        {
          "name": "commitment",
          "type": "bytes32",
          "indexed": true,
          "internalType": "bytes32"
        },
        {
          "name": "id",
          "type": "uint256",
          "indexed": false,
          "internalType": "uint256"
        },
        {
          "name": "amount",
          "type": "uint256",
          "indexed": false,
          "internalType": "uint256"
        }
      ],
      "anonymous": false
    },
    {
      "type": "event",
      "name": "WithdrawalMade",
      "inputs": [
        {
          "name": "nullifierHash",
          "type": "bytes32",
          "indexed": true,
          "internalType": "bytes32"
        },
        {
          "name": "amount",
          "type": "uint256",
          "indexed": false,
          "internalType": "uint256"
        }
      ],
      "anonymous": false
    }
  ],
  "bytecode": {
    "object": "0x6080604052348015600f57600080fd5b50604051610d8a380380610d8a833981016040819052602c916073565b600280546001600160a01b039384166001600160a01b0319918216179091556003805492909316911617905560a8565b6001600160a01b0381168114607057600080fd5b50565b60008060408385031215608557600080fd5b8251608e81605c565b6020840151909250609d81605c565b809150509250929050565b610cd3806100b76000396000f3fe608060405234801561001057600080fd5b506004361061007c5760003560e01c80632b7ac3f31161005b5780632b7ac3f3146100ef5780633d4dff7b1461011a578063baac957014610174578063fc0c546a1461018557600080fd5b8062aeef8a146100815780630968f264146100a757806317cc915c146100bc575b600080fd5b61009461008f366004610939565b610198565b6040519081526020015b60405180910390f35b6100ba6100b5366004610965565b610405565b005b6100df6100ca3660046109d7565b60016020526000908152604090205460ff1681565b604051901515815260200161009e565b600354610102906001600160a01b031681565b6040516001600160a01b03909116815260200161009e565b6101526101283660046109d7565b60006020819052908152604090208054600182015460028301546003909301549192909160ff1684565b604080519485526020850193909352918301521515606082015260800161009e565b6100946101823660046109d7565b90565b600254610102906001600160a01b031681565b600080846040516020016101ae91815260200190565b60408051601f19818403018152918152815160209283012060008181529283905291206003015490915060ff161561022d5760405162461bcd60e51b815260206004820152601960248201527f436f6d6d69746d656e7420616c7265616479206578697374730000000000000060448201526064015b60405180910390fd5b600254604051627eeac760e11b81523360048201526024810186905284916001600160a01b03169062fdd58e90604401602060405180830381865afa15801561027a573d6000803e3d6000fd5b505050506040513d601f19601f8201168201806040525081019061029e91906109f0565b10156102e35760405162461bcd60e51b8152602060048201526014602482015273496e73756666696369656e742062616c616e636560601b6044820152606401610224565b60408051608081018252848152602080820187815282840189815260016060850181815260008881529485905293869020945185559151918401919091555160028084019190915590516003909201805460ff191692151592909217909155549051637f4c824d60e11b815233600482015230602482015260448101869052606481018590526001600160a01b039091169063fe99049a906084016020604051808303816000875af115801561039d573d6000803e3d6000fd5b505050506040513d601f19601f820116820180604052508101906103c19190610a09565b50604080518581526020810185905282917fa6a313727ac02f14913984deecd00b4c6eb38325da5773f7bffea97e99b52085910160405180910390a2949350505050565b60008061041483850185610afc565b91509150600060405180610300016040528084600001518152602001846020015181526020018460400151815260200184606001518152602001846080015181526020018460a0015181526020018460c0015181526020018460e00151815260200184610100015181526020018461012001518152602001846101400151815260200184610160015181526020018461018001518152602001846101a001518152602001846101c001518152602001846101e00151815260200184610200015181526020018461022001518152602001846102400151815260200184610260015181526020018461028001518152602001846102a001518152602001846102c001518152602001846102e0015181525090506000826020015160405160200161053f91815260200190565b60408051601f198184030181528282528051602091820120865182850152825180850383018152938301835283519382019390932060008181526001909252919020549192509060ff16156105d65760405162461bcd60e51b815260206004820152601860248201527f4e756c6c696669657220616c72656164792065786973747300000000000000006044820152606401610224565b6000828152602081905260409020600381015460ff166106385760405162461bcd60e51b815260206004820152601960248201527f436f6d6d69746d656e7420646f6573206e6f74206578697374000000000000006044820152606401610224565b80546080860151111561068d5760405162461bcd60e51b815260206004820152601960248201527f5b305d3a20496e73756666696369656e742062616c616e6365000000000000006044820152606401610224565b60025460a0860151604051627eeac760e11b815230600482015260248101919091526001600160a01b039091169062fdd58e90604401602060405180830381865afa1580156106e0573d6000803e3d6000fd5b505050506040513d601f19601f8201168201806040525081019061070491906109f0565b856080015111156107575760405162461bcd60e51b815260206004820152601960248201527f5b315d3a20496e73756666696369656e742062616c616e6365000000000000006044820152606401610224565b600082815260016020818152604092839020805460ff1916909217909155815160e0810183528751815287820151918101919091528682015181830152606080880151908201526080808801519082015260a0808801519082015260c080880151908201526003549151636bb8d6cd60e01b815290916001600160a01b031690636bb8d6cd906107ed9088908590600401610c3f565b602060405180830381865afa15801561080a573d6000803e3d6000fd5b505050506040513d601f19601f8201168201806040525081019061082e9190610a09565b61086a5760405162461bcd60e51b815260206004820152600d60248201526c24b73b30b634b210383937b7b360991b6044820152606401610224565b60025460a087015160808801516040516304ade6db60e11b8152336004820152602481019290925260448201526001600160a01b039091169063095bcdb6906064016020604051808303816000875af11580156108cb573d6000803e3d6000fd5b505050506040513d601f19601f820116820180604052508101906108ef9190610a09565b50827f9b94a0bf2c4b77a761570f44636ea00d632da700690f65edb4708e443a58b5ce876080015160405161092691815260200190565b60405180910390a2505050505050505050565b60008060006060848603121561094e57600080fd5b505081359360208301359350604090920135919050565b6000806020838503121561097857600080fd5b823567ffffffffffffffff8082111561099057600080fd5b818501915085601f8301126109a457600080fd5b8135818111156109b357600080fd5b8660208285010111156109c557600080fd5b60209290920196919550909350505050565b6000602082840312156109e957600080fd5b5035919050565b600060208284031215610a0257600080fd5b5051919050565b600060208284031215610a1b57600080fd5b81518015158114610a2b57600080fd5b9392505050565b604051610300810167ffffffffffffffff81118282101715610a6457634e487b7160e01b600052604160045260246000fd5b60405290565b600060e08284031215610a7c57600080fd5b60405160e0810181811067ffffffffffffffff82111715610aad57634e487b7160e01b600052604160045260246000fd5b8060405250809150823581526020830135602082015260408301356040820152606083013560608201526080830135608082015260a083013560a082015260c083013560c08201525092915050565b6000808284036103e0811215610b1157600080fd5b61030080821215610b2157600080fd5b610b29610a32565b853581526020808701359082015260408087013590820152606080870135908201526080808701359082015260a0808701359082015260c0808701359082015260e08087013590820152610100808701359082015261012080870135908201526101408087013590820152610160808701359082015261018080870135908201526101a080870135908201526101c080870135908201526101e08087013590820152610200808701359082015261022080870135908201526102408087013590820152610260808701359082015261028080870135908201526102a080870135908201526102c080870135908201526102e080870135908201529350839150610c3486828701610a6a565b925050509250929050565b6103e08101818460005b6018811015610c68578151835260209283019290910190600101610c49565b50505061030082018360005b6007811015610c93578151835260209283019290910190600101610c74565b505050939250505056fea26469706673582212203945f0889f02c1c1a452553f66a9a339516d76d3022023e1bdc64873438177d564736f6c63430008190033",
    "linkReferences": {}
  },
  "methodIdentifiers": {
    "convertToUint256(bytes32)": "baac9570",
    "deposit(uint256,uint256,uint256)": "00aeef8a",
    "deposits(bytes32)": "3d4dff7b",
    "nullifierHashes(bytes32)": "17cc915c",
    "token()": "fc0c546a",
    "verifier()": "2b7ac3f3",
    "withdraw(bytes)": "0968f264"
  },
  "id": 23
}