{
	"src/SimpleMultipiler.sol": {
		"SimpleMultiplier": {
			"abi": [
				{
					"inputs": [
						{
							"internalType": "address",
							"name": "_verifierAddress",
							"type": "address"
						}
					],
					"stateMutability": "nonpayable",
					"type": "constructor"
				},
				{
					"anonymous": false,
					"inputs": [
						{
							"indexed": false,
							"internalType": "bool",
							"name": "result",
							"type": "bool"
						}
					],
					"name": "ProofResult",
					"type": "event"
				},
				{
					"inputs": [
						{
							"internalType": "bytes",
							"name": "proof",
							"type": "bytes"
						},
						{
							"internalType": "uint256[]",
							"name": "pubSignals",
							"type": "uint256[]"
						}
					],
					"name": "submitProof",
					"outputs": [
						{
							"internalType": "bool",
							"name": "result",
							"type": "bool"
						}
					],
					"stateMutability": "nonpayable",
					"type": "function"
				},
				{
					"inputs": [],
					"name": "verifierAddress",
					"outputs": [
						{
							"internalType": "address",
							"name": "",
							"type": "address"
						}
					],
					"stateMutability": "view",
					"type": "function"
				}
			],
			"devdoc": {
				"kind": "dev",
				"methods": {},
				"version": 1
			},
			"evm": {
				"assembly": "    /* \"src/SimpleMultipiler.sol\":211:722  contract SimpleMultiplier {... */\n  mstore(0x40, 0x80)\n    /* \"src/SimpleMultipiler.sol\":317:406  constructor(address _verifierAddress) {... */\n  callvalue\n  dup1\n  iszero\n  tag_1\n  jumpi\n  0x00\n  dup1\n  revert\ntag_1:\n  pop\n  mload(0x40)\n  sub(codesize, bytecodeSize)\n  dup1\n  bytecodeSize\n  dup4\n  codecopy\n  dup2\n  dup2\n  add\n  0x40\n  mstore\n  dup2\n  add\n  swap1\n  tag_2\n  swap2\n  swap1\n  tag_3\n  jump\t// in\ntag_2:\n    /* \"src/SimpleMultipiler.sol\":383:399  _verifierAddress */\n  dup1\n    /* \"src/SimpleMultipiler.sol\":365:380  verifierAddress */\n  0x00\n  dup1\n    /* \"src/SimpleMultipiler.sol\":365:399  verifierAddress = _verifierAddress */\n  0x0100\n  exp\n  dup2\n  sload\n  dup2\n  0xffffffffffffffffffffffffffffffffffffffff\n  mul\n  not\n  and\n  swap1\n  dup4\n  0xffffffffffffffffffffffffffffffffffffffff\n  and\n  mul\n  or\n  swap1\n  sstore\n  pop\n    /* \"src/SimpleMultipiler.sol\":317:406  constructor(address _verifierAddress) {... */\n  pop\n    /* \"src/SimpleMultipiler.sol\":211:722  contract SimpleMultiplier {... */\n  jump(tag_6)\n    /* \"#utility.yul\":88:205   */\ntag_8:\n    /* \"#utility.yul\":197:198   */\n  0x00\n    /* \"#utility.yul\":194:195   */\n  dup1\n    /* \"#utility.yul\":187:199   */\n  revert\n    /* \"#utility.yul\":334:460   */\ntag_10:\n    /* \"#utility.yul\":371:378   */\n  0x00\n    /* \"#utility.yul\":411:453   */\n  0xffffffffffffffffffffffffffffffffffffffff\n    /* \"#utility.yul\":404:409   */\n  dup3\n    /* \"#utility.yul\":400:454   */\n  and\n    /* \"#utility.yul\":389:454   */\n  swap1\n  pop\n    /* \"#utility.yul\":334:460   */\n  swap2\n  swap1\n  pop\n  jump\t// out\n    /* \"#utility.yul\":466:562   */\ntag_11:\n    /* \"#utility.yul\":503:510   */\n  0x00\n    /* \"#utility.yul\":532:556   */\n  tag_20\n    /* \"#utility.yul\":550:555   */\n  dup3\n    /* \"#utility.yul\":532:556   */\n  tag_10\n  jump\t// in\ntag_20:\n    /* \"#utility.yul\":521:556   */\n  swap1\n  pop\n    /* \"#utility.yul\":466:562   */\n  swap2\n  swap1\n  pop\n  jump\t// out\n    /* \"#utility.yul\":568:690   */\ntag_12:\n    /* \"#utility.yul\":641:665   */\n  tag_22\n    /* \"#utility.yul\":659:664   */\n  dup2\n    /* \"#utility.yul\":641:665   */\n  tag_11\n  jump\t// in\ntag_22:\n    /* \"#utility.yul\":634:639   */\n  dup2\n    /* \"#utility.yul\":631:666   */\n  eq\n    /* \"#utility.yul\":621:684   */\n  tag_23\n  jumpi\n    /* \"#utility.yul\":680:681   */\n  0x00\n    /* \"#utility.yul\":677:678   */\n  dup1\n    /* \"#utility.yul\":670:682   */\n  revert\n    /* \"#utility.yul\":621:684   */\ntag_23:\n    /* \"#utility.yul\":568:690   */\n  pop\n  jump\t// out\n    /* \"#utility.yul\":696:839   */\ntag_13:\n    /* \"#utility.yul\":753:758   */\n  0x00\n    /* \"#utility.yul\":784:790   */\n  dup2\n    /* \"#utility.yul\":778:791   */\n  mload\n    /* \"#utility.yul\":769:791   */\n  swap1\n  pop\n    /* \"#utility.yul\":800:833   */\n  tag_25\n    /* \"#utility.yul\":827:832   */\n  dup2\n    /* \"#utility.yul\":800:833   */\n  tag_12\n  jump\t// in\ntag_25:\n    /* \"#utility.yul\":696:839   */\n  swap3\n  swap2\n  pop\n  pop\n  jump\t// out\n    /* \"#utility.yul\":845:1196   */\ntag_3:\n    /* \"#utility.yul\":915:921   */\n  0x00\n    /* \"#utility.yul\":964:966   */\n  0x20\n    /* \"#utility.yul\":952:961   */\n  dup3\n    /* \"#utility.yul\":943:950   */\n  dup5\n    /* \"#utility.yul\":939:962   */\n  sub\n    /* \"#utility.yul\":935:967   */\n  slt\n    /* \"#utility.yul\":932:1051   */\n  iszero\n  tag_27\n  jumpi\n    /* \"#utility.yul\":970:1049   */\n  tag_28\n  tag_8\n  jump\t// in\ntag_28:\n    /* \"#utility.yul\":932:1051   */\ntag_27:\n    /* \"#utility.yul\":1090:1091   */\n  0x00\n    /* \"#utility.yul\":1115:1179   */\n  tag_29\n    /* \"#utility.yul\":1171:1178   */\n  dup5\n    /* \"#utility.yul\":1162:1168   */\n  dup3\n    /* \"#utility.yul\":1151:1160   */\n  dup6\n    /* \"#utility.yul\":1147:1169   */\n  add\n    /* \"#utility.yul\":1115:1179   */\n  tag_13\n  jump\t// in\ntag_29:\n    /* \"#utility.yul\":1105:1179   */\n  swap2\n  pop\n    /* \"#utility.yul\":1061:1189   */\n  pop\n    /* \"#utility.yul\":845:1196   */\n  swap3\n  swap2\n  pop\n  pop\n  jump\t// out\n    /* \"src/SimpleMultipiler.sol\":211:722  contract SimpleMultiplier {... */\ntag_6:\n  dataSize(sub_0)\n  dup1\n  dataOffset(sub_0)\n  0x00\n  codecopy\n  0x00\n  return\nstop\n\nsub_0: assembly {\n        /* \"src/SimpleMultipiler.sol\":211:722  contract SimpleMultiplier {... */\n      mstore(0x40, 0x80)\n      callvalue\n      dup1\n      iszero\n      tag_1\n      jumpi\n      0x00\n      dup1\n      revert\n    tag_1:\n      pop\n      jumpi(tag_2, lt(calldatasize, 0x04))\n      shr(0xe0, calldataload(0x00))\n      dup1\n      0xc80d81\n      eq\n      tag_3\n      jumpi\n      dup1\n      0x18bdffbb\n      eq\n      tag_4\n      jumpi\n    tag_2:\n      0x00\n      dup1\n      revert\n        /* \"src/SimpleMultipiler.sol\":412:720  function submitProof(... */\n    tag_3:\n      tag_5\n      0x04\n      dup1\n      calldatasize\n      sub\n      dup2\n      add\n      swap1\n      tag_6\n      swap2\n      swap1\n      tag_7\n      jump\t// in\n    tag_6:\n      tag_8\n      jump\t// in\n    tag_5:\n      mload(0x40)\n      tag_9\n      swap2\n      swap1\n      tag_10\n      jump\t// in\n    tag_9:\n      mload(0x40)\n      dup1\n      swap2\n      sub\n      swap1\n      return\n        /* \"src/SimpleMultipiler.sol\":243:273  address public verifierAddress */\n    tag_4:\n      tag_11\n      tag_12\n      jump\t// in\n    tag_11:\n      mload(0x40)\n      tag_13\n      swap2\n      swap1\n      tag_14\n      jump\t// in\n    tag_13:\n      mload(0x40)\n      dup1\n      swap2\n      sub\n      swap1\n      return\n        /* \"src/SimpleMultipiler.sol\":412:720  function submitProof(... */\n    tag_8:\n        /* \"src/SimpleMultipiler.sol\":517:528  bool result */\n      0x00\n        /* \"src/SimpleMultipiler.sol\":540:563  IPlonkVerifier verifier */\n      dup1\n        /* \"src/SimpleMultipiler.sol\":581:596  verifierAddress */\n      0x00\n      dup1\n      sload\n      swap1\n      0x0100\n      exp\n      swap1\n      div\n      0xffffffffffffffffffffffffffffffffffffffff\n      and\n        /* \"src/SimpleMultipiler.sol\":540:597  IPlonkVerifier verifier = IPlonkVerifier(verifierAddress) */\n      swap1\n      pop\n        /* \"src/SimpleMultipiler.sol\":616:624  verifier */\n      dup1\n        /* \"src/SimpleMultipiler.sol\":616:636  verifier.verifyProof */\n      0xffffffffffffffffffffffffffffffffffffffff\n      and\n      0x1e8e1e13\n        /* \"src/SimpleMultipiler.sol\":637:642  proof */\n      dup6\n        /* \"src/SimpleMultipiler.sol\":644:654  pubSignals */\n      dup6\n        /* \"src/SimpleMultipiler.sol\":616:655  verifier.verifyProof(proof, pubSignals) */\n      mload(0x40)\n      dup4\n      0xffffffff\n      and\n      0xe0\n      shl\n      dup2\n      mstore\n      0x04\n      add\n      tag_16\n      swap3\n      swap2\n      swap1\n      tag_17\n      jump\t// in\n    tag_16:\n      0x20\n      mload(0x40)\n      dup1\n      dup4\n      sub\n      dup2\n      dup7\n      gas\n      staticcall\n      iszero\n      dup1\n      iszero\n      tag_19\n      jumpi\n      returndatasize\n      0x00\n      dup1\n      returndatacopy\n      revert(0x00, returndatasize)\n    tag_19:\n      pop\n      pop\n      pop\n      pop\n      mload(0x40)\n      returndatasize\n      not(0x1f)\n      0x1f\n      dup3\n      add\n      and\n      dup3\n      add\n      dup1\n      0x40\n      mstore\n      pop\n      dup2\n      add\n      swap1\n      tag_20\n      swap2\n      swap1\n      tag_21\n      jump\t// in\n    tag_20:\n        /* \"src/SimpleMultipiler.sol\":607:655  result = verifier.verifyProof(proof, pubSignals) */\n      swap2\n      pop\n        /* \"src/SimpleMultipiler.sol\":670:689  ProofResult(result) */\n      0xb6030296ed6d28f593d0c257c080ef243cd60eb419e82d45d9e530c593915102\n        /* \"src/SimpleMultipiler.sol\":682:688  result */\n      dup3\n        /* \"src/SimpleMultipiler.sol\":670:689  ProofResult(result) */\n      mload(0x40)\n      tag_22\n      swap2\n      swap1\n      tag_10\n      jump\t// in\n    tag_22:\n      mload(0x40)\n      dup1\n      swap2\n      sub\n      swap1\n      log1\n        /* \"src/SimpleMultipiler.sol\":700:713  return result */\n      pop\n        /* \"src/SimpleMultipiler.sol\":412:720  function submitProof(... */\n      swap3\n      swap2\n      pop\n      pop\n      jump\t// out\n        /* \"src/SimpleMultipiler.sol\":243:273  address public verifierAddress */\n    tag_12:\n      0x00\n      dup1\n      sload\n      swap1\n      0x0100\n      exp\n      swap1\n      div\n      0xffffffffffffffffffffffffffffffffffffffff\n      and\n      dup2\n      jump\t// out\n        /* \"#utility.yul\":7:82   */\n    tag_23:\n        /* \"#utility.yul\":40:46   */\n      0x00\n        /* \"#utility.yul\":73:75   */\n      0x40\n        /* \"#utility.yul\":67:76   */\n      mload\n        /* \"#utility.yul\":57:76   */\n      swap1\n      pop\n        /* \"#utility.yul\":7:82   */\n      swap1\n      jump\t// out\n        /* \"#utility.yul\":88:205   */\n    tag_24:\n        /* \"#utility.yul\":197:198   */\n      0x00\n        /* \"#utility.yul\":194:195   */\n      dup1\n        /* \"#utility.yul\":187:199   */\n      revert\n        /* \"#utility.yul\":211:328   */\n    tag_25:\n        /* \"#utility.yul\":320:321   */\n      0x00\n        /* \"#utility.yul\":317:318   */\n      dup1\n        /* \"#utility.yul\":310:322   */\n      revert\n        /* \"#utility.yul\":334:451   */\n    tag_26:\n        /* \"#utility.yul\":443:444   */\n      0x00\n        /* \"#utility.yul\":440:441   */\n      dup1\n        /* \"#utility.yul\":433:445   */\n      revert\n        /* \"#utility.yul\":457:574   */\n    tag_27:\n        /* \"#utility.yul\":566:567   */\n      0x00\n        /* \"#utility.yul\":563:564   */\n      dup1\n        /* \"#utility.yul\":556:568   */\n      revert\n        /* \"#utility.yul\":580:682   */\n    tag_28:\n        /* \"#utility.yul\":621:627   */\n      0x00\n        /* \"#utility.yul\":672:674   */\n      0x1f\n        /* \"#utility.yul\":668:675   */\n      not\n        /* \"#utility.yul\":663:665   */\n      0x1f\n        /* \"#utility.yul\":656:661   */\n      dup4\n        /* \"#utility.yul\":652:666   */\n      add\n        /* \"#utility.yul\":648:676   */\n      and\n        /* \"#utility.yul\":638:676   */\n      swap1\n      pop\n        /* \"#utility.yul\":580:682   */\n      swap2\n      swap1\n      pop\n      jump\t// out\n        /* \"#utility.yul\":688:868   */\n    tag_29:\n        /* \"#utility.yul\":736:813   */\n      0x4e487b7100000000000000000000000000000000000000000000000000000000\n        /* \"#utility.yul\":733:734   */\n      0x00\n        /* \"#utility.yul\":726:814   */\n      mstore\n        /* \"#utility.yul\":833:837   */\n      0x41\n        /* \"#utility.yul\":830:831   */\n      0x04\n        /* \"#utility.yul\":823:838   */\n      mstore\n        /* \"#utility.yul\":857:861   */\n      0x24\n        /* \"#utility.yul\":854:855   */\n      0x00\n        /* \"#utility.yul\":847:862   */\n      revert\n        /* \"#utility.yul\":874:1155   */\n    tag_30:\n        /* \"#utility.yul\":957:984   */\n      tag_70\n        /* \"#utility.yul\":979:983   */\n      dup3\n        /* \"#utility.yul\":957:984   */\n      tag_28\n      jump\t// in\n    tag_70:\n        /* \"#utility.yul\":949:955   */\n      dup2\n        /* \"#utility.yul\":945:985   */\n      add\n        /* \"#utility.yul\":1087:1093   */\n      dup2\n        /* \"#utility.yul\":1075:1085   */\n      dup2\n        /* \"#utility.yul\":1072:1094   */\n      lt\n        /* \"#utility.yul\":1051:1069   */\n      0xffffffffffffffff\n        /* \"#utility.yul\":1039:1049   */\n      dup3\n        /* \"#utility.yul\":1036:1070   */\n      gt\n        /* \"#utility.yul\":1033:1095   */\n      or\n        /* \"#utility.yul\":1030:1118   */\n      iszero\n      tag_71\n      jumpi\n        /* \"#utility.yul\":1098:1116   */\n      tag_72\n      tag_29\n      jump\t// in\n    tag_72:\n        /* \"#utility.yul\":1030:1118   */\n    tag_71:\n        /* \"#utility.yul\":1138:1148   */\n      dup1\n        /* \"#utility.yul\":1134:1136   */\n      0x40\n        /* \"#utility.yul\":1127:1149   */\n      mstore\n        /* \"#utility.yul\":917:1155   */\n      pop\n        /* \"#utility.yul\":874:1155   */\n      pop\n      pop\n      jump\t// out\n        /* \"#utility.yul\":1161:1290   */\n    tag_31:\n        /* \"#utility.yul\":1195:1201   */\n      0x00\n        /* \"#utility.yul\":1222:1242   */\n      tag_74\n      tag_23\n      jump\t// in\n    tag_74:\n        /* \"#utility.yul\":1212:1242   */\n      swap1\n      pop\n        /* \"#utility.yul\":1251:1284   */\n      tag_75\n        /* \"#utility.yul\":1279:1283   */\n      dup3\n        /* \"#utility.yul\":1271:1277   */\n      dup3\n        /* \"#utility.yul\":1251:1284   */\n      tag_30\n      jump\t// in\n    tag_75:\n        /* \"#utility.yul\":1161:1290   */\n      swap2\n      swap1\n      pop\n      jump\t// out\n        /* \"#utility.yul\":1296:1603   */\n    tag_32:\n        /* \"#utility.yul\":1357:1361   */\n      0x00\n        /* \"#utility.yul\":1447:1465   */\n      0xffffffffffffffff\n        /* \"#utility.yul\":1439:1445   */\n      dup3\n        /* \"#utility.yul\":1436:1466   */\n      gt\n        /* \"#utility.yul\":1433:1489   */\n      iszero\n      tag_77\n      jumpi\n        /* \"#utility.yul\":1469:1487   */\n      tag_78\n      tag_29\n      jump\t// in\n    tag_78:\n        /* \"#utility.yul\":1433:1489   */\n    tag_77:\n        /* \"#utility.yul\":1507:1536   */\n      tag_79\n        /* \"#utility.yul\":1529:1535   */\n      dup3\n        /* \"#utility.yul\":1507:1536   */\n      tag_28\n      jump\t// in\n    tag_79:\n        /* \"#utility.yul\":1499:1536   */\n      swap1\n      pop\n        /* \"#utility.yul\":1591:1595   */\n      0x20\n        /* \"#utility.yul\":1585:1589   */\n      dup2\n        /* \"#utility.yul\":1581:1596   */\n      add\n        /* \"#utility.yul\":1573:1596   */\n      swap1\n      pop\n        /* \"#utility.yul\":1296:1603   */\n      swap2\n      swap1\n      pop\n      jump\t// out\n        /* \"#utility.yul\":1609:1757   */\n    tag_33:\n        /* \"#utility.yul\":1707:1713   */\n      dup3\n        /* \"#utility.yul\":1702:1705   */\n      dup2\n        /* \"#utility.yul\":1697:1700   */\n      dup4\n        /* \"#utility.yul\":1684:1714   */\n      calldatacopy\n        /* \"#utility.yul\":1748:1749   */\n      0x00\n        /* \"#utility.yul\":1739:1745   */\n      dup4\n        /* \"#utility.yul\":1734:1737   */\n      dup4\n        /* \"#utility.yul\":1730:1746   */\n      add\n        /* \"#utility.yul\":1723:1750   */\n      mstore\n        /* \"#utility.yul\":1609:1757   */\n      pop\n      pop\n      pop\n      jump\t// out\n        /* \"#utility.yul\":1763:2186   */\n    tag_34:\n        /* \"#utility.yul\":1840:1845   */\n      0x00\n        /* \"#utility.yul\":1865:1930   */\n      tag_82\n        /* \"#utility.yul\":1881:1929   */\n      tag_83\n        /* \"#utility.yul\":1922:1928   */\n      dup5\n        /* \"#utility.yul\":1881:1929   */\n      tag_32\n      jump\t// in\n    tag_83:\n        /* \"#utility.yul\":1865:1930   */\n      tag_31\n      jump\t// in\n    tag_82:\n        /* \"#utility.yul\":1856:1930   */\n      swap1\n      pop\n        /* \"#utility.yul\":1953:1959   */\n      dup3\n        /* \"#utility.yul\":1946:1951   */\n      dup2\n        /* \"#utility.yul\":1939:1960   */\n      mstore\n        /* \"#utility.yul\":1991:1995   */\n      0x20\n        /* \"#utility.yul\":1984:1989   */\n      dup2\n        /* \"#utility.yul\":1980:1996   */\n      add\n        /* \"#utility.yul\":2029:2032   */\n      dup5\n        /* \"#utility.yul\":2020:2026   */\n      dup5\n        /* \"#utility.yul\":2015:2018   */\n      dup5\n        /* \"#utility.yul\":2011:2027   */\n      add\n        /* \"#utility.yul\":2008:2033   */\n      gt\n        /* \"#utility.yul\":2005:2117   */\n      iszero\n      tag_84\n      jumpi\n        /* \"#utility.yul\":2036:2115   */\n      tag_85\n      tag_27\n      jump\t// in\n    tag_85:\n        /* \"#utility.yul\":2005:2117   */\n    tag_84:\n        /* \"#utility.yul\":2126:2180   */\n      tag_86\n        /* \"#utility.yul\":2173:2179   */\n      dup5\n        /* \"#utility.yul\":2168:2171   */\n      dup3\n        /* \"#utility.yul\":2163:2166   */\n      dup6\n        /* \"#utility.yul\":2126:2180   */\n      tag_33\n      jump\t// in\n    tag_86:\n        /* \"#utility.yul\":1846:2186   */\n      pop\n        /* \"#utility.yul\":1763:2186   */\n      swap4\n      swap3\n      pop\n      pop\n      pop\n      jump\t// out\n        /* \"#utility.yul\":2205:2543   */\n    tag_35:\n        /* \"#utility.yul\":2260:2265   */\n      0x00\n        /* \"#utility.yul\":2309:2312   */\n      dup3\n        /* \"#utility.yul\":2302:2306   */\n      0x1f\n        /* \"#utility.yul\":2294:2300   */\n      dup4\n        /* \"#utility.yul\":2290:2307   */\n      add\n        /* \"#utility.yul\":2286:2313   */\n      slt\n        /* \"#utility.yul\":2276:2398   */\n      tag_88\n      jumpi\n        /* \"#utility.yul\":2317:2396   */\n      tag_89\n      tag_26\n      jump\t// in\n    tag_89:\n        /* \"#utility.yul\":2276:2398   */\n    tag_88:\n        /* \"#utility.yul\":2434:2440   */\n      dup2\n        /* \"#utility.yul\":2421:2441   */\n      calldataload\n        /* \"#utility.yul\":2459:2537   */\n      tag_90\n        /* \"#utility.yul\":2533:2536   */\n      dup5\n        /* \"#utility.yul\":2525:2531   */\n      dup3\n        /* \"#utility.yul\":2518:2522   */\n      0x20\n        /* \"#utility.yul\":2510:2516   */\n      dup7\n        /* \"#utility.yul\":2506:2523   */\n      add\n        /* \"#utility.yul\":2459:2537   */\n      tag_34\n      jump\t// in\n    tag_90:\n        /* \"#utility.yul\":2450:2537   */\n      swap2\n      pop\n        /* \"#utility.yul\":2266:2543   */\n      pop\n        /* \"#utility.yul\":2205:2543   */\n      swap3\n      swap2\n      pop\n      pop\n      jump\t// out\n        /* \"#utility.yul\":2549:2860   */\n    tag_36:\n        /* \"#utility.yul\":2626:2630   */\n      0x00\n        /* \"#utility.yul\":2716:2734   */\n      0xffffffffffffffff\n        /* \"#utility.yul\":2708:2714   */\n      dup3\n        /* \"#utility.yul\":2705:2735   */\n      gt\n        /* \"#utility.yul\":2702:2758   */\n      iszero\n      tag_92\n      jumpi\n        /* \"#utility.yul\":2738:2756   */\n      tag_93\n      tag_29\n      jump\t// in\n    tag_93:\n        /* \"#utility.yul\":2702:2758   */\n    tag_92:\n        /* \"#utility.yul\":2788:2792   */\n      0x20\n        /* \"#utility.yul\":2780:2786   */\n      dup3\n        /* \"#utility.yul\":2776:2793   */\n      mul\n        /* \"#utility.yul\":2768:2793   */\n      swap1\n      pop\n        /* \"#utility.yul\":2848:2852   */\n      0x20\n        /* \"#utility.yul\":2842:2846   */\n      dup2\n        /* \"#utility.yul\":2838:2853   */\n      add\n        /* \"#utility.yul\":2830:2853   */\n      swap1\n      pop\n        /* \"#utility.yul\":2549:2860   */\n      swap2\n      swap1\n      pop\n      jump\t// out\n        /* \"#utility.yul\":2866:2983   */\n    tag_37:\n        /* \"#utility.yul\":2975:2976   */\n      0x00\n        /* \"#utility.yul\":2972:2973   */\n      dup1\n        /* \"#utility.yul\":2965:2977   */\n      revert\n        /* \"#utility.yul\":2989:3066   */\n    tag_38:\n        /* \"#utility.yul\":3026:3033   */\n      0x00\n        /* \"#utility.yul\":3055:3060   */\n      dup2\n        /* \"#utility.yul\":3044:3060   */\n      swap1\n      pop\n        /* \"#utility.yul\":2989:3066   */\n      swap2\n      swap1\n      pop\n      jump\t// out\n        /* \"#utility.yul\":3072:3194   */\n    tag_39:\n        /* \"#utility.yul\":3145:3169   */\n      tag_97\n        /* \"#utility.yul\":3163:3168   */\n      dup2\n        /* \"#utility.yul\":3145:3169   */\n      tag_38\n      jump\t// in\n    tag_97:\n        /* \"#utility.yul\":3138:3143   */\n      dup2\n        /* \"#utility.yul\":3135:3170   */\n      eq\n        /* \"#utility.yul\":3125:3188   */\n      tag_98\n      jumpi\n        /* \"#utility.yul\":3184:3185   */\n      0x00\n        /* \"#utility.yul\":3181:3182   */\n      dup1\n        /* \"#utility.yul\":3174:3186   */\n      revert\n        /* \"#utility.yul\":3125:3188   */\n    tag_98:\n        /* \"#utility.yul\":3072:3194   */\n      pop\n      jump\t// out\n        /* \"#utility.yul\":3200:3339   */\n    tag_40:\n        /* \"#utility.yul\":3246:3251   */\n      0x00\n        /* \"#utility.yul\":3284:3290   */\n      dup2\n        /* \"#utility.yul\":3271:3291   */\n      calldataload\n        /* \"#utility.yul\":3262:3291   */\n      swap1\n      pop\n        /* \"#utility.yul\":3300:3333   */\n      tag_100\n        /* \"#utility.yul\":3327:3332   */\n      dup2\n        /* \"#utility.yul\":3300:3333   */\n      tag_39\n      jump\t// in\n    tag_100:\n        /* \"#utility.yul\":3200:3339   */\n      swap3\n      swap2\n      pop\n      pop\n      jump\t// out\n        /* \"#utility.yul\":3362:4072   */\n    tag_41:\n        /* \"#utility.yul\":3458:3463   */\n      0x00\n        /* \"#utility.yul\":3483:3564   */\n      tag_102\n        /* \"#utility.yul\":3499:3563   */\n      tag_103\n        /* \"#utility.yul\":3556:3562   */\n      dup5\n        /* \"#utility.yul\":3499:3563   */\n      tag_36\n      jump\t// in\n    tag_103:\n        /* \"#utility.yul\":3483:3564   */\n      tag_31\n      jump\t// in\n    tag_102:\n        /* \"#utility.yul\":3474:3564   */\n      swap1\n      pop\n        /* \"#utility.yul\":3584:3589   */\n      dup1\n        /* \"#utility.yul\":3613:3619   */\n      dup4\n        /* \"#utility.yul\":3606:3611   */\n      dup3\n        /* \"#utility.yul\":3599:3620   */\n      mstore\n        /* \"#utility.yul\":3647:3651   */\n      0x20\n        /* \"#utility.yul\":3640:3645   */\n      dup3\n        /* \"#utility.yul\":3636:3652   */\n      add\n        /* \"#utility.yul\":3629:3652   */\n      swap1\n      pop\n        /* \"#utility.yul\":3700:3704   */\n      0x20\n        /* \"#utility.yul\":3692:3698   */\n      dup5\n        /* \"#utility.yul\":3688:3705   */\n      mul\n        /* \"#utility.yul\":3680:3686   */\n      dup4\n        /* \"#utility.yul\":3676:3706   */\n      add\n        /* \"#utility.yul\":3729:3732   */\n      dup6\n        /* \"#utility.yul\":3721:3727   */\n      dup2\n        /* \"#utility.yul\":3718:3733   */\n      gt\n        /* \"#utility.yul\":3715:3837   */\n      iszero\n      tag_104\n      jumpi\n        /* \"#utility.yul\":3748:3827   */\n      tag_105\n      tag_37\n      jump\t// in\n    tag_105:\n        /* \"#utility.yul\":3715:3837   */\n    tag_104:\n        /* \"#utility.yul\":3863:3869   */\n      dup4\n        /* \"#utility.yul\":3846:4066   */\n    tag_106:\n        /* \"#utility.yul\":3880:3886   */\n      dup2\n        /* \"#utility.yul\":3875:3878   */\n      dup2\n        /* \"#utility.yul\":3872:3887   */\n      lt\n        /* \"#utility.yul\":3846:4066   */\n      iszero\n      tag_108\n      jumpi\n        /* \"#utility.yul\":3955:3958   */\n      dup1\n        /* \"#utility.yul\":3984:4021   */\n      tag_109\n        /* \"#utility.yul\":4017:4020   */\n      dup9\n        /* \"#utility.yul\":4005:4015   */\n      dup3\n        /* \"#utility.yul\":3984:4021   */\n      tag_40\n      jump\t// in\n    tag_109:\n        /* \"#utility.yul\":3979:3982   */\n      dup5\n        /* \"#utility.yul\":3972:4022   */\n      mstore\n        /* \"#utility.yul\":4051:4055   */\n      0x20\n        /* \"#utility.yul\":4046:4049   */\n      dup5\n        /* \"#utility.yul\":4042:4056   */\n      add\n        /* \"#utility.yul\":4035:4056   */\n      swap4\n      pop\n        /* \"#utility.yul\":3922:4066   */\n      pop\n        /* \"#utility.yul\":3906:3910   */\n      0x20\n        /* \"#utility.yul\":3901:3904   */\n      dup2\n        /* \"#utility.yul\":3897:3911   */\n      add\n        /* \"#utility.yul\":3890:3911   */\n      swap1\n      pop\n        /* \"#utility.yul\":3846:4066   */\n      jump(tag_106)\n    tag_108:\n        /* \"#utility.yul\":3850:3871   */\n      pop\n        /* \"#utility.yul\":3464:4072   */\n      pop\n      pop\n        /* \"#utility.yul\":3362:4072   */\n      swap4\n      swap3\n      pop\n      pop\n      pop\n      jump\t// out\n        /* \"#utility.yul\":4095:4465   */\n    tag_42:\n        /* \"#utility.yul\":4166:4171   */\n      0x00\n        /* \"#utility.yul\":4215:4218   */\n      dup3\n        /* \"#utility.yul\":4208:4212   */\n      0x1f\n        /* \"#utility.yul\":4200:4206   */\n      dup4\n        /* \"#utility.yul\":4196:4213   */\n      add\n        /* \"#utility.yul\":4192:4219   */\n      slt\n        /* \"#utility.yul\":4182:4304   */\n      tag_111\n      jumpi\n        /* \"#utility.yul\":4223:4302   */\n      tag_112\n      tag_26\n      jump\t// in\n    tag_112:\n        /* \"#utility.yul\":4182:4304   */\n    tag_111:\n        /* \"#utility.yul\":4340:4346   */\n      dup2\n        /* \"#utility.yul\":4327:4347   */\n      calldataload\n        /* \"#utility.yul\":4365:4459   */\n      tag_113\n        /* \"#utility.yul\":4455:4458   */\n      dup5\n        /* \"#utility.yul\":4447:4453   */\n      dup3\n        /* \"#utility.yul\":4440:4444   */\n      0x20\n        /* \"#utility.yul\":4432:4438   */\n      dup7\n        /* \"#utility.yul\":4428:4445   */\n      add\n        /* \"#utility.yul\":4365:4459   */\n      tag_41\n      jump\t// in\n    tag_113:\n        /* \"#utility.yul\":4356:4459   */\n      swap2\n      pop\n        /* \"#utility.yul\":4172:4465   */\n      pop\n        /* \"#utility.yul\":4095:4465   */\n      swap3\n      swap2\n      pop\n      pop\n      jump\t// out\n        /* \"#utility.yul\":4471:5333   */\n    tag_7:\n        /* \"#utility.yul\":4573:4579   */\n      0x00\n        /* \"#utility.yul\":4581:4587   */\n      dup1\n        /* \"#utility.yul\":4630:4632   */\n      0x40\n        /* \"#utility.yul\":4618:4627   */\n      dup4\n        /* \"#utility.yul\":4609:4616   */\n      dup6\n        /* \"#utility.yul\":4605:4628   */\n      sub\n        /* \"#utility.yul\":4601:4633   */\n      slt\n        /* \"#utility.yul\":4598:4717   */\n      iszero\n      tag_115\n      jumpi\n        /* \"#utility.yul\":4636:4715   */\n      tag_116\n      tag_24\n      jump\t// in\n    tag_116:\n        /* \"#utility.yul\":4598:4717   */\n    tag_115:\n        /* \"#utility.yul\":4784:4785   */\n      0x00\n        /* \"#utility.yul\":4773:4782   */\n      dup4\n        /* \"#utility.yul\":4769:4786   */\n      add\n        /* \"#utility.yul\":4756:4787   */\n      calldataload\n        /* \"#utility.yul\":4814:4832   */\n      0xffffffffffffffff\n        /* \"#utility.yul\":4806:4812   */\n      dup2\n        /* \"#utility.yul\":4803:4833   */\n      gt\n        /* \"#utility.yul\":4800:4917   */\n      iszero\n      tag_117\n      jumpi\n        /* \"#utility.yul\":4836:4915   */\n      tag_118\n      tag_25\n      jump\t// in\n    tag_118:\n        /* \"#utility.yul\":4800:4917   */\n    tag_117:\n        /* \"#utility.yul\":4941:5003   */\n      tag_119\n        /* \"#utility.yul\":4995:5002   */\n      dup6\n        /* \"#utility.yul\":4986:4992   */\n      dup3\n        /* \"#utility.yul\":4975:4984   */\n      dup7\n        /* \"#utility.yul\":4971:4993   */\n      add\n        /* \"#utility.yul\":4941:5003   */\n      tag_35\n      jump\t// in\n    tag_119:\n        /* \"#utility.yul\":4931:5003   */\n      swap3\n      pop\n        /* \"#utility.yul\":4727:5013   */\n      pop\n        /* \"#utility.yul\":5080:5082   */\n      0x20\n        /* \"#utility.yul\":5069:5078   */\n      dup4\n        /* \"#utility.yul\":5065:5083   */\n      add\n        /* \"#utility.yul\":5052:5084   */\n      calldataload\n        /* \"#utility.yul\":5111:5129   */\n      0xffffffffffffffff\n        /* \"#utility.yul\":5103:5109   */\n      dup2\n        /* \"#utility.yul\":5100:5130   */\n      gt\n        /* \"#utility.yul\":5097:5214   */\n      iszero\n      tag_120\n      jumpi\n        /* \"#utility.yul\":5133:5212   */\n      tag_121\n      tag_25\n      jump\t// in\n    tag_121:\n        /* \"#utility.yul\":5097:5214   */\n    tag_120:\n        /* \"#utility.yul\":5238:5316   */\n      tag_122\n        /* \"#utility.yul\":5308:5315   */\n      dup6\n        /* \"#utility.yul\":5299:5305   */\n      dup3\n        /* \"#utility.yul\":5288:5297   */\n      dup7\n        /* \"#utility.yul\":5284:5306   */\n      add\n        /* \"#utility.yul\":5238:5316   */\n      tag_42\n      jump\t// in\n    tag_122:\n        /* \"#utility.yul\":5228:5316   */\n      swap2\n      pop\n        /* \"#utility.yul\":5023:5326   */\n      pop\n        /* \"#utility.yul\":4471:5333   */\n      swap3\n      pop\n      swap3\n      swap1\n      pop\n      jump\t// out\n        /* \"#utility.yul\":5339:5429   */\n    tag_43:\n        /* \"#utility.yul\":5373:5380   */\n      0x00\n        /* \"#utility.yul\":5416:5421   */\n      dup2\n        /* \"#utility.yul\":5409:5422   */\n      iszero\n        /* \"#utility.yul\":5402:5423   */\n      iszero\n        /* \"#utility.yul\":5391:5423   */\n      swap1\n      pop\n        /* \"#utility.yul\":5339:5429   */\n      swap2\n      swap1\n      pop\n      jump\t// out\n        /* \"#utility.yul\":5435:5544   */\n    tag_44:\n        /* \"#utility.yul\":5516:5537   */\n      tag_125\n        /* \"#utility.yul\":5531:5536   */\n      dup2\n        /* \"#utility.yul\":5516:5537   */\n      tag_43\n      jump\t// in\n    tag_125:\n        /* \"#utility.yul\":5511:5514   */\n      dup3\n        /* \"#utility.yul\":5504:5538   */\n      mstore\n        /* \"#utility.yul\":5435:5544   */\n      pop\n      pop\n      jump\t// out\n        /* \"#utility.yul\":5550:5760   */\n    tag_10:\n        /* \"#utility.yul\":5637:5641   */\n      0x00\n        /* \"#utility.yul\":5675:5677   */\n      0x20\n        /* \"#utility.yul\":5664:5673   */\n      dup3\n        /* \"#utility.yul\":5660:5678   */\n      add\n        /* \"#utility.yul\":5652:5678   */\n      swap1\n      pop\n        /* \"#utility.yul\":5688:5753   */\n      tag_127\n        /* \"#utility.yul\":5750:5751   */\n      0x00\n        /* \"#utility.yul\":5739:5748   */\n      dup4\n        /* \"#utility.yul\":5735:5752   */\n      add\n        /* \"#utility.yul\":5726:5732   */\n      dup5\n        /* \"#utility.yul\":5688:5753   */\n      tag_44\n      jump\t// in\n    tag_127:\n        /* \"#utility.yul\":5550:5760   */\n      swap3\n      swap2\n      pop\n      pop\n      jump\t// out\n        /* \"#utility.yul\":5766:5892   */\n    tag_45:\n        /* \"#utility.yul\":5803:5810   */\n      0x00\n        /* \"#utility.yul\":5843:5885   */\n      0xffffffffffffffffffffffffffffffffffffffff\n        /* \"#utility.yul\":5836:5841   */\n      dup3\n        /* \"#utility.yul\":5832:5886   */\n      and\n        /* \"#utility.yul\":5821:5886   */\n      swap1\n      pop\n        /* \"#utility.yul\":5766:5892   */\n      swap2\n      swap1\n      pop\n      jump\t// out\n        /* \"#utility.yul\":5898:5994   */\n    tag_46:\n        /* \"#utility.yul\":5935:5942   */\n      0x00\n        /* \"#utility.yul\":5964:5988   */\n      tag_130\n        /* \"#utility.yul\":5982:5987   */\n      dup3\n        /* \"#utility.yul\":5964:5988   */\n      tag_45\n      jump\t// in\n    tag_130:\n        /* \"#utility.yul\":5953:5988   */\n      swap1\n      pop\n        /* \"#utility.yul\":5898:5994   */\n      swap2\n      swap1\n      pop\n      jump\t// out\n        /* \"#utility.yul\":6000:6118   */\n    tag_47:\n        /* \"#utility.yul\":6087:6111   */\n      tag_132\n        /* \"#utility.yul\":6105:6110   */\n      dup2\n        /* \"#utility.yul\":6087:6111   */\n      tag_46\n      jump\t// in\n    tag_132:\n        /* \"#utility.yul\":6082:6085   */\n      dup3\n        /* \"#utility.yul\":6075:6112   */\n      mstore\n        /* \"#utility.yul\":6000:6118   */\n      pop\n      pop\n      jump\t// out\n        /* \"#utility.yul\":6124:6346   */\n    tag_14:\n        /* \"#utility.yul\":6217:6221   */\n      0x00\n        /* \"#utility.yul\":6255:6257   */\n      0x20\n        /* \"#utility.yul\":6244:6253   */\n      dup3\n        /* \"#utility.yul\":6240:6258   */\n      add\n        /* \"#utility.yul\":6232:6258   */\n      swap1\n      pop\n        /* \"#utility.yul\":6268:6339   */\n      tag_134\n        /* \"#utility.yul\":6336:6337   */\n      0x00\n        /* \"#utility.yul\":6325:6334   */\n      dup4\n        /* \"#utility.yul\":6321:6338   */\n      add\n        /* \"#utility.yul\":6312:6318   */\n      dup5\n        /* \"#utility.yul\":6268:6339   */\n      tag_47\n      jump\t// in\n    tag_134:\n        /* \"#utility.yul\":6124:6346   */\n      swap3\n      swap2\n      pop\n      pop\n      jump\t// out\n        /* \"#utility.yul\":6352:6450   */\n    tag_48:\n        /* \"#utility.yul\":6403:6409   */\n      0x00\n        /* \"#utility.yul\":6437:6442   */\n      dup2\n        /* \"#utility.yul\":6431:6443   */\n      mload\n        /* \"#utility.yul\":6421:6443   */\n      swap1\n      pop\n        /* \"#utility.yul\":6352:6450   */\n      swap2\n      swap1\n      pop\n      jump\t// out\n        /* \"#utility.yul\":6456:6624   */\n    tag_49:\n        /* \"#utility.yul\":6539:6550   */\n      0x00\n        /* \"#utility.yul\":6573:6579   */\n      dup3\n        /* \"#utility.yul\":6568:6571   */\n      dup3\n        /* \"#utility.yul\":6561:6580   */\n      mstore\n        /* \"#utility.yul\":6613:6617   */\n      0x20\n        /* \"#utility.yul\":6608:6611   */\n      dup3\n        /* \"#utility.yul\":6604:6618   */\n      add\n        /* \"#utility.yul\":6589:6618   */\n      swap1\n      pop\n        /* \"#utility.yul\":6456:6624   */\n      swap3\n      swap2\n      pop\n      pop\n      jump\t// out\n        /* \"#utility.yul\":6630:6769   */\n    tag_50:\n        /* \"#utility.yul\":6719:6725   */\n      dup3\n        /* \"#utility.yul\":6714:6717   */\n      dup2\n        /* \"#utility.yul\":6709:6712   */\n      dup4\n        /* \"#utility.yul\":6703:6726   */\n      mcopy\n        /* \"#utility.yul\":6760:6761   */\n      0x00\n        /* \"#utility.yul\":6751:6757   */\n      dup4\n        /* \"#utility.yul\":6746:6749   */\n      dup4\n        /* \"#utility.yul\":6742:6758   */\n      add\n        /* \"#utility.yul\":6735:6762   */\n      mstore\n        /* \"#utility.yul\":6630:6769   */\n      pop\n      pop\n      pop\n      jump\t// out\n        /* \"#utility.yul\":6775:7148   */\n    tag_51:\n        /* \"#utility.yul\":6861:6864   */\n      0x00\n        /* \"#utility.yul\":6889:6927   */\n      tag_139\n        /* \"#utility.yul\":6921:6926   */\n      dup3\n        /* \"#utility.yul\":6889:6927   */\n      tag_48\n      jump\t// in\n    tag_139:\n        /* \"#utility.yul\":6943:7013   */\n      tag_140\n        /* \"#utility.yul\":7006:7012   */\n      dup2\n        /* \"#utility.yul\":7001:7004   */\n      dup6\n        /* \"#utility.yul\":6943:7013   */\n      tag_49\n      jump\t// in\n    tag_140:\n        /* \"#utility.yul\":6936:7013   */\n      swap4\n      pop\n        /* \"#utility.yul\":7022:7087   */\n      tag_141\n        /* \"#utility.yul\":7080:7086   */\n      dup2\n        /* \"#utility.yul\":7075:7078   */\n      dup6\n        /* \"#utility.yul\":7068:7072   */\n      0x20\n        /* \"#utility.yul\":7061:7066   */\n      dup7\n        /* \"#utility.yul\":7057:7073   */\n      add\n        /* \"#utility.yul\":7022:7087   */\n      tag_50\n      jump\t// in\n    tag_141:\n        /* \"#utility.yul\":7112:7141   */\n      tag_142\n        /* \"#utility.yul\":7134:7140   */\n      dup2\n        /* \"#utility.yul\":7112:7141   */\n      tag_28\n      jump\t// in\n    tag_142:\n        /* \"#utility.yul\":7107:7110   */\n      dup5\n        /* \"#utility.yul\":7103:7142   */\n      add\n        /* \"#utility.yul\":7096:7142   */\n      swap2\n      pop\n        /* \"#utility.yul\":6865:7148   */\n      pop\n        /* \"#utility.yul\":6775:7148   */\n      swap3\n      swap2\n      pop\n      pop\n      jump\t// out\n        /* \"#utility.yul\":7154:7268   */\n    tag_52:\n        /* \"#utility.yul\":7221:7227   */\n      0x00\n        /* \"#utility.yul\":7255:7260   */\n      dup2\n        /* \"#utility.yul\":7249:7261   */\n      mload\n        /* \"#utility.yul\":7239:7261   */\n      swap1\n      pop\n        /* \"#utility.yul\":7154:7268   */\n      swap2\n      swap1\n      pop\n      jump\t// out\n        /* \"#utility.yul\":7274:7458   */\n    tag_53:\n        /* \"#utility.yul\":7373:7384   */\n      0x00\n        /* \"#utility.yul\":7407:7413   */\n      dup3\n        /* \"#utility.yul\":7402:7405   */\n      dup3\n        /* \"#utility.yul\":7395:7414   */\n      mstore\n        /* \"#utility.yul\":7447:7451   */\n      0x20\n        /* \"#utility.yul\":7442:7445   */\n      dup3\n        /* \"#utility.yul\":7438:7452   */\n      add\n        /* \"#utility.yul\":7423:7452   */\n      swap1\n      pop\n        /* \"#utility.yul\":7274:7458   */\n      swap3\n      swap2\n      pop\n      pop\n      jump\t// out\n        /* \"#utility.yul\":7464:7596   */\n    tag_54:\n        /* \"#utility.yul\":7531:7535   */\n      0x00\n        /* \"#utility.yul\":7554:7557   */\n      dup2\n        /* \"#utility.yul\":7546:7557   */\n      swap1\n      pop\n        /* \"#utility.yul\":7584:7588   */\n      0x20\n        /* \"#utility.yul\":7579:7582   */\n      dup3\n        /* \"#utility.yul\":7575:7589   */\n      add\n        /* \"#utility.yul\":7567:7589   */\n      swap1\n      pop\n        /* \"#utility.yul\":7464:7596   */\n      swap2\n      swap1\n      pop\n      jump\t// out\n        /* \"#utility.yul\":7602:7710   */\n    tag_55:\n        /* \"#utility.yul\":7679:7703   */\n      tag_147\n        /* \"#utility.yul\":7697:7702   */\n      dup2\n        /* \"#utility.yul\":7679:7703   */\n      tag_38\n      jump\t// in\n    tag_147:\n        /* \"#utility.yul\":7674:7677   */\n      dup3\n        /* \"#utility.yul\":7667:7704   */\n      mstore\n        /* \"#utility.yul\":7602:7710   */\n      pop\n      pop\n      jump\t// out\n        /* \"#utility.yul\":7716:7895   */\n    tag_56:\n        /* \"#utility.yul\":7785:7795   */\n      0x00\n        /* \"#utility.yul\":7806:7852   */\n      tag_149\n        /* \"#utility.yul\":7848:7851   */\n      dup4\n        /* \"#utility.yul\":7840:7846   */\n      dup4\n        /* \"#utility.yul\":7806:7852   */\n      tag_55\n      jump\t// in\n    tag_149:\n        /* \"#utility.yul\":7884:7888   */\n      0x20\n        /* \"#utility.yul\":7879:7882   */\n      dup4\n        /* \"#utility.yul\":7875:7889   */\n      add\n        /* \"#utility.yul\":7861:7889   */\n      swap1\n      pop\n        /* \"#utility.yul\":7716:7895   */\n      swap3\n      swap2\n      pop\n      pop\n      jump\t// out\n        /* \"#utility.yul\":7901:8014   */\n    tag_57:\n        /* \"#utility.yul\":7971:7975   */\n      0x00\n        /* \"#utility.yul\":8003:8007   */\n      0x20\n        /* \"#utility.yul\":7998:8001   */\n      dup3\n        /* \"#utility.yul\":7994:8008   */\n      add\n        /* \"#utility.yul\":7986:8008   */\n      swap1\n      pop\n        /* \"#utility.yul\":7901:8014   */\n      swap2\n      swap1\n      pop\n      jump\t// out\n        /* \"#utility.yul\":8050:8782   */\n    tag_58:\n        /* \"#utility.yul\":8169:8172   */\n      0x00\n        /* \"#utility.yul\":8198:8252   */\n      tag_152\n        /* \"#utility.yul\":8246:8251   */\n      dup3\n        /* \"#utility.yul\":8198:8252   */\n      tag_52\n      jump\t// in\n    tag_152:\n        /* \"#utility.yul\":8268:8354   */\n      tag_153\n        /* \"#utility.yul\":8347:8353   */\n      dup2\n        /* \"#utility.yul\":8342:8345   */\n      dup6\n        /* \"#utility.yul\":8268:8354   */\n      tag_53\n      jump\t// in\n    tag_153:\n        /* \"#utility.yul\":8261:8354   */\n      swap4\n      pop\n        /* \"#utility.yul\":8378:8434   */\n      tag_154\n        /* \"#utility.yul\":8428:8433   */\n      dup4\n        /* \"#utility.yul\":8378:8434   */\n      tag_54\n      jump\t// in\n    tag_154:\n        /* \"#utility.yul\":8457:8464   */\n      dup1\n        /* \"#utility.yul\":8488:8489   */\n      0x00\n        /* \"#utility.yul\":8473:8757   */\n    tag_155:\n        /* \"#utility.yul\":8498:8504   */\n      dup4\n        /* \"#utility.yul\":8495:8496   */\n      dup2\n        /* \"#utility.yul\":8492:8505   */\n      lt\n        /* \"#utility.yul\":8473:8757   */\n      iszero\n      tag_157\n      jumpi\n        /* \"#utility.yul\":8574:8580   */\n      dup2\n        /* \"#utility.yul\":8568:8581   */\n      mload\n        /* \"#utility.yul\":8601:8664   */\n      tag_158\n        /* \"#utility.yul\":8660:8663   */\n      dup9\n        /* \"#utility.yul\":8645:8658   */\n      dup3\n        /* \"#utility.yul\":8601:8664   */\n      tag_56\n      jump\t// in\n    tag_158:\n        /* \"#utility.yul\":8594:8664   */\n      swap8\n      pop\n        /* \"#utility.yul\":8687:8747   */\n      tag_159\n        /* \"#utility.yul\":8740:8746   */\n      dup4\n        /* \"#utility.yul\":8687:8747   */\n      tag_57\n      jump\t// in\n    tag_159:\n        /* \"#utility.yul\":8677:8747   */\n      swap3\n      pop\n        /* \"#utility.yul\":8533:8757   */\n      pop\n        /* \"#utility.yul\":8520:8521   */\n      0x01\n        /* \"#utility.yul\":8517:8518   */\n      dup2\n        /* \"#utility.yul\":8513:8522   */\n      add\n        /* \"#utility.yul\":8508:8522   */\n      swap1\n      pop\n        /* \"#utility.yul\":8473:8757   */\n      jump(tag_155)\n    tag_157:\n        /* \"#utility.yul\":8477:8491   */\n      pop\n        /* \"#utility.yul\":8773:8776   */\n      dup6\n        /* \"#utility.yul\":8766:8776   */\n      swap4\n      pop\n        /* \"#utility.yul\":8174:8782   */\n      pop\n      pop\n      pop\n        /* \"#utility.yul\":8050:8782   */\n      swap3\n      swap2\n      pop\n      pop\n      jump\t// out\n        /* \"#utility.yul\":8788:9358   */\n    tag_17:\n        /* \"#utility.yul\":8977:8981   */\n      0x00\n        /* \"#utility.yul\":9015:9017   */\n      0x40\n        /* \"#utility.yul\":9004:9013   */\n      dup3\n        /* \"#utility.yul\":9000:9018   */\n      add\n        /* \"#utility.yul\":8992:9018   */\n      swap1\n      pop\n        /* \"#utility.yul\":9064:9073   */\n      dup2\n        /* \"#utility.yul\":9058:9062   */\n      dup2\n        /* \"#utility.yul\":9054:9074   */\n      sub\n        /* \"#utility.yul\":9050:9051   */\n      0x00\n        /* \"#utility.yul\":9039:9048   */\n      dup4\n        /* \"#utility.yul\":9035:9052   */\n      add\n        /* \"#utility.yul\":9028:9075   */\n      mstore\n        /* \"#utility.yul\":9092:9168   */\n      tag_161\n        /* \"#utility.yul\":9163:9167   */\n      dup2\n        /* \"#utility.yul\":9154:9160   */\n      dup6\n        /* \"#utility.yul\":9092:9168   */\n      tag_51\n      jump\t// in\n    tag_161:\n        /* \"#utility.yul\":9084:9168   */\n      swap1\n      pop\n        /* \"#utility.yul\":9215:9224   */\n      dup2\n        /* \"#utility.yul\":9209:9213   */\n      dup2\n        /* \"#utility.yul\":9205:9225   */\n      sub\n        /* \"#utility.yul\":9200:9202   */\n      0x20\n        /* \"#utility.yul\":9189:9198   */\n      dup4\n        /* \"#utility.yul\":9185:9203   */\n      add\n        /* \"#utility.yul\":9178:9226   */\n      mstore\n        /* \"#utility.yul\":9243:9351   */\n      tag_162\n        /* \"#utility.yul\":9346:9350   */\n      dup2\n        /* \"#utility.yul\":9337:9343   */\n      dup5\n        /* \"#utility.yul\":9243:9351   */\n      tag_58\n      jump\t// in\n    tag_162:\n        /* \"#utility.yul\":9235:9351   */\n      swap1\n      pop\n        /* \"#utility.yul\":8788:9358   */\n      swap4\n      swap3\n      pop\n      pop\n      pop\n      jump\t// out\n        /* \"#utility.yul\":9364:9480   */\n    tag_59:\n        /* \"#utility.yul\":9434:9455   */\n      tag_164\n        /* \"#utility.yul\":9449:9454   */\n      dup2\n        /* \"#utility.yul\":9434:9455   */\n      tag_43\n      jump\t// in\n    tag_164:\n        /* \"#utility.yul\":9427:9432   */\n      dup2\n        /* \"#utility.yul\":9424:9456   */\n      eq\n        /* \"#utility.yul\":9414:9474   */\n      tag_165\n      jumpi\n        /* \"#utility.yul\":9470:9471   */\n      0x00\n        /* \"#utility.yul\":9467:9468   */\n      dup1\n        /* \"#utility.yul\":9460:9472   */\n      revert\n        /* \"#utility.yul\":9414:9474   */\n    tag_165:\n        /* \"#utility.yul\":9364:9480   */\n      pop\n      jump\t// out\n        /* \"#utility.yul\":9486:9623   */\n    tag_60:\n        /* \"#utility.yul\":9540:9545   */\n      0x00\n        /* \"#utility.yul\":9571:9577   */\n      dup2\n        /* \"#utility.yul\":9565:9578   */\n      mload\n        /* \"#utility.yul\":9556:9578   */\n      swap1\n      pop\n        /* \"#utility.yul\":9587:9617   */\n      tag_167\n        /* \"#utility.yul\":9611:9616   */\n      dup2\n        /* \"#utility.yul\":9587:9617   */\n      tag_59\n      jump\t// in\n    tag_167:\n        /* \"#utility.yul\":9486:9623   */\n      swap3\n      swap2\n      pop\n      pop\n      jump\t// out\n        /* \"#utility.yul\":9629:9974   */\n    tag_21:\n        /* \"#utility.yul\":9696:9702   */\n      0x00\n        /* \"#utility.yul\":9745:9747   */\n      0x20\n        /* \"#utility.yul\":9733:9742   */\n      dup3\n        /* \"#utility.yul\":9724:9731   */\n      dup5\n        /* \"#utility.yul\":9720:9743   */\n      sub\n        /* \"#utility.yul\":9716:9748   */\n      slt\n        /* \"#utility.yul\":9713:9832   */\n      iszero\n      tag_169\n      jumpi\n        /* \"#utility.yul\":9751:9830   */\n      tag_170\n      tag_24\n      jump\t// in\n    tag_170:\n        /* \"#utility.yul\":9713:9832   */\n    tag_169:\n        /* \"#utility.yul\":9871:9872   */\n      0x00\n        /* \"#utility.yul\":9896:9957   */\n      tag_171\n        /* \"#utility.yul\":9949:9956   */\n      dup5\n        /* \"#utility.yul\":9940:9946   */\n      dup3\n        /* \"#utility.yul\":9929:9938   */\n      dup6\n        /* \"#utility.yul\":9925:9947   */\n      add\n        /* \"#utility.yul\":9896:9957   */\n      tag_60\n      jump\t// in\n    tag_171:\n        /* \"#utility.yul\":9886:9957   */\n      swap2\n      pop\n        /* \"#utility.yul\":9842:9967   */\n      pop\n        /* \"#utility.yul\":9629:9974   */\n      swap3\n      swap2\n      pop\n      pop\n      jump\t// out\n\n    auxdata: 0xa2646970667358221220739bfb484a2c1bc6089f5be0257fce1a6d092ceb61c5674300f18383ea844d2264736f6c634300081a0033\n}\n",
				"bytecode": {
					"linkReferences": {},
					"object": "608060405234801561000f575f80fd5b506040516107ae3803806107ae833981810160405281019061003191906100d4565b805f806101000a81548173ffffffffffffffffffffffffffffffffffffffff021916908373ffffffffffffffffffffffffffffffffffffffff160217905550506100ff565b5f80fd5b5f73ffffffffffffffffffffffffffffffffffffffff82169050919050565b5f6100a38261007a565b9050919050565b6100b381610099565b81146100bd575f80fd5b50565b5f815190506100ce816100aa565b92915050565b5f602082840312156100e9576100e8610076565b5b5f6100f6848285016100c0565b91505092915050565b6106a28061010c5f395ff3fe608060405234801561000f575f80fd5b5060043610610033575f3560e01c8062c80d811461003757806318bdffbb14610067575b5f80fd5b610051600480360381019061004c91906103ca565b610085565b60405161005e919061045a565b60405180910390f35b61006f610163565b60405161007c91906104b2565b60405180910390f35b5f805f8054906101000a900473ffffffffffffffffffffffffffffffffffffffff1690508073ffffffffffffffffffffffffffffffffffffffff16631e8e1e1385856040518363ffffffff1660e01b81526004016100e49291906105e2565b602060405180830381865afa1580156100ff573d5f803e3d5ffd5b505050506040513d601f19601f820116820180604052508101906101239190610641565b91507fb6030296ed6d28f593d0c257c080ef243cd60eb419e82d45d9e530c59391510282604051610154919061045a565b60405180910390a15092915050565b5f8054906101000a900473ffffffffffffffffffffffffffffffffffffffff1681565b5f604051905090565b5f80fd5b5f80fd5b5f80fd5b5f80fd5b5f601f19601f8301169050919050565b7f4e487b71000000000000000000000000000000000000000000000000000000005f52604160045260245ffd5b6101e58261019f565b810181811067ffffffffffffffff82111715610204576102036101af565b5b80604052505050565b5f610216610186565b905061022282826101dc565b919050565b5f67ffffffffffffffff821115610241576102406101af565b5b61024a8261019f565b9050602081019050919050565b828183375f83830152505050565b5f61027761027284610227565b61020d565b9050828152602081018484840111156102935761029261019b565b5b61029e848285610257565b509392505050565b5f82601f8301126102ba576102b9610197565b5b81356102ca848260208601610265565b91505092915050565b5f67ffffffffffffffff8211156102ed576102ec6101af565b5b602082029050602081019050919050565b5f80fd5b5f819050919050565b61031481610302565b811461031e575f80fd5b50565b5f8135905061032f8161030b565b92915050565b5f610347610342846102d3565b61020d565b9050808382526020820190506020840283018581111561036a576103696102fe565b5b835b81811015610393578061037f8882610321565b84526020840193505060208101905061036c565b5050509392505050565b5f82601f8301126103b1576103b0610197565b5b81356103c1848260208601610335565b91505092915050565b5f80604083850312156103e0576103df61018f565b5b5f83013567ffffffffffffffff8111156103fd576103fc610193565b5b610409858286016102a6565b925050602083013567ffffffffffffffff81111561042a57610429610193565b5b6104368582860161039d565b9150509250929050565b5f8115159050919050565b61045481610440565b82525050565b5f60208201905061046d5f83018461044b565b92915050565b5f73ffffffffffffffffffffffffffffffffffffffff82169050919050565b5f61049c82610473565b9050919050565b6104ac81610492565b82525050565b5f6020820190506104c55f8301846104a3565b92915050565b5f81519050919050565b5f82825260208201905092915050565b8281835e5f83830152505050565b5f6104fd826104cb565b61050781856104d5565b93506105178185602086016104e5565b6105208161019f565b840191505092915050565b5f81519050919050565b5f82825260208201905092915050565b5f819050602082019050919050565b61055d81610302565b82525050565b5f61056e8383610554565b60208301905092915050565b5f602082019050919050565b5f6105908261052b565b61059a8185610535565b93506105a583610545565b805f5b838110156105d55781516105bc8882610563565b97506105c78361057a565b9250506001810190506105a8565b5085935050505092915050565b5f6040820190508181035f8301526105fa81856104f3565b9050818103602083015261060e8184610586565b90509392505050565b61062081610440565b811461062a575f80fd5b50565b5f8151905061063b81610617565b92915050565b5f602082840312156106565761065561018f565b5b5f6106638482850161062d565b9150509291505056fea2646970667358221220739bfb484a2c1bc6089f5be0257fce1a6d092ceb61c5674300f18383ea844d2264736f6c634300081a0033",
					"opcodes": "PUSH1 0x80 PUSH1 0x40 MSTORE CALLVALUE DUP1 ISZERO PUSH2 0xF JUMPI PUSH0 DUP1 REVERT JUMPDEST POP PUSH1 0x40 MLOAD PUSH2 0x7AE CODESIZE SUB DUP1 PUSH2 0x7AE DUP4 CODECOPY DUP2 DUP2 ADD PUSH1 0x40 MSTORE DUP2 ADD SWAP1 PUSH2 0x31 SWAP2 SWAP1 PUSH2 0xD4 JUMP JUMPDEST DUP1 PUSH0 DUP1 PUSH2 0x100 EXP DUP2 SLOAD DUP2 PUSH20 0xFFFFFFFFFFFFFFFFFFFFFFFFFFFFFFFFFFFFFFFF MUL NOT AND SWAP1 DUP4 PUSH20 0xFFFFFFFFFFFFFFFFFFFFFFFFFFFFFFFFFFFFFFFF AND MUL OR SWAP1 SSTORE POP POP PUSH2 0xFF JUMP JUMPDEST PUSH0 DUP1 REVERT JUMPDEST PUSH0 PUSH20 0xFFFFFFFFFFFFFFFFFFFFFFFFFFFFFFFFFFFFFFFF DUP3 AND SWAP1 POP SWAP2 SWAP1 POP JUMP JUMPDEST PUSH0 PUSH2 0xA3 DUP3 PUSH2 0x7A JUMP JUMPDEST SWAP1 POP SWAP2 SWAP1 POP JUMP JUMPDEST PUSH2 0xB3 DUP2 PUSH2 0x99 JUMP JUMPDEST DUP2 EQ PUSH2 0xBD JUMPI PUSH0 DUP1 REVERT JUMPDEST POP JUMP JUMPDEST PUSH0 DUP2 MLOAD SWAP1 POP PUSH2 0xCE DUP2 PUSH2 0xAA JUMP JUMPDEST SWAP3 SWAP2 POP POP JUMP JUMPDEST PUSH0 PUSH1 0x20 DUP3 DUP5 SUB SLT ISZERO PUSH2 0xE9 JUMPI PUSH2 0xE8 PUSH2 0x76 JUMP JUMPDEST JUMPDEST PUSH0 PUSH2 0xF6 DUP5 DUP3 DUP6 ADD PUSH2 0xC0 JUMP JUMPDEST SWAP2 POP POP SWAP3 SWAP2 POP POP JUMP JUMPDEST PUSH2 0x6A2 DUP1 PUSH2 0x10C PUSH0 CODECOPY PUSH0 RETURN INVALID PUSH1 0x80 PUSH1 0x40 MSTORE CALLVALUE DUP1 ISZERO PUSH2 0xF JUMPI PUSH0 DUP1 REVERT JUMPDEST POP PUSH1 0x4 CALLDATASIZE LT PUSH2 0x33 JUMPI PUSH0 CALLDATALOAD PUSH1 0xE0 SHR DUP1 PUSH3 0xC80D81 EQ PUSH2 0x37 JUMPI DUP1 PUSH4 0x18BDFFBB EQ PUSH2 0x67 JUMPI JUMPDEST PUSH0 DUP1 REVERT JUMPDEST PUSH2 0x51 PUSH1 0x4 DUP1 CALLDATASIZE SUB DUP2 ADD SWAP1 PUSH2 0x4C SWAP2 SWAP1 PUSH2 0x3CA JUMP JUMPDEST PUSH2 0x85 JUMP JUMPDEST PUSH1 0x40 MLOAD PUSH2 0x5E SWAP2 SWAP1 PUSH2 0x45A JUMP JUMPDEST PUSH1 0x40 MLOAD DUP1 SWAP2 SUB SWAP1 RETURN JUMPDEST PUSH2 0x6F PUSH2 0x163 JUMP JUMPDEST PUSH1 0x40 MLOAD PUSH2 0x7C SWAP2 SWAP1 PUSH2 0x4B2 JUMP JUMPDEST PUSH1 0x40 MLOAD DUP1 SWAP2 SUB SWAP1 RETURN JUMPDEST PUSH0 DUP1 PUSH0 DUP1 SLOAD SWAP1 PUSH2 0x100 EXP SWAP1 DIV PUSH20 0xFFFFFFFFFFFFFFFFFFFFFFFFFFFFFFFFFFFFFFFF AND SWAP1 POP DUP1 PUSH20 0xFFFFFFFFFFFFFFFFFFFFFFFFFFFFFFFFFFFFFFFF AND PUSH4 0x1E8E1E13 DUP6 DUP6 PUSH1 0x40 MLOAD DUP4 PUSH4 0xFFFFFFFF AND PUSH1 0xE0 SHL DUP2 MSTORE PUSH1 0x4 ADD PUSH2 0xE4 SWAP3 SWAP2 SWAP1 PUSH2 0x5E2 JUMP JUMPDEST PUSH1 0x20 PUSH1 0x40 MLOAD DUP1 DUP4 SUB DUP2 DUP7 GAS STATICCALL ISZERO DUP1 ISZERO PUSH2 0xFF JUMPI RETURNDATASIZE PUSH0 DUP1 RETURNDATACOPY RETURNDATASIZE PUSH0 REVERT JUMPDEST POP POP POP POP PUSH1 0x40 MLOAD RETURNDATASIZE PUSH1 0x1F NOT PUSH1 0x1F DUP3 ADD AND DUP3 ADD DUP1 PUSH1 0x40 MSTORE POP DUP2 ADD SWAP1 PUSH2 0x123 SWAP2 SWAP1 PUSH2 0x641 JUMP JUMPDEST SWAP2 POP PUSH32 0xB6030296ED6D28F593D0C257C080EF243CD60EB419E82D45D9E530C593915102 DUP3 PUSH1 0x40 MLOAD PUSH2 0x154 SWAP2 SWAP1 PUSH2 0x45A JUMP JUMPDEST PUSH1 0x40 MLOAD DUP1 SWAP2 SUB SWAP1 LOG1 POP SWAP3 SWAP2 POP POP JUMP JUMPDEST PUSH0 DUP1 SLOAD SWAP1 PUSH2 0x100 EXP SWAP1 DIV PUSH20 0xFFFFFFFFFFFFFFFFFFFFFFFFFFFFFFFFFFFFFFFF AND DUP2 JUMP JUMPDEST PUSH0 PUSH1 0x40 MLOAD SWAP1 POP SWAP1 JUMP JUMPDEST PUSH0 DUP1 REVERT JUMPDEST PUSH0 DUP1 REVERT JUMPDEST PUSH0 DUP1 REVERT JUMPDEST PUSH0 DUP1 REVERT JUMPDEST PUSH0 PUSH1 0x1F NOT PUSH1 0x1F DUP4 ADD AND SWAP1 POP SWAP2 SWAP1 POP JUMP JUMPDEST PUSH32 0x4E487B7100000000000000000000000000000000000000000000000000000000 PUSH0 MSTORE PUSH1 0x41 PUSH1 0x4 MSTORE PUSH1 0x24 PUSH0 REVERT JUMPDEST PUSH2 0x1E5 DUP3 PUSH2 0x19F JUMP JUMPDEST DUP2 ADD DUP2 DUP2 LT PUSH8 0xFFFFFFFFFFFFFFFF DUP3 GT OR ISZERO PUSH2 0x204 JUMPI PUSH2 0x203 PUSH2 0x1AF JUMP JUMPDEST JUMPDEST DUP1 PUSH1 0x40 MSTORE POP POP POP JUMP JUMPDEST PUSH0 PUSH2 0x216 PUSH2 0x186 JUMP JUMPDEST SWAP1 POP PUSH2 0x222 DUP3 DUP3 PUSH2 0x1DC JUMP JUMPDEST SWAP2 SWAP1 POP JUMP JUMPDEST PUSH0 PUSH8 0xFFFFFFFFFFFFFFFF DUP3 GT ISZERO PUSH2 0x241 JUMPI PUSH2 0x240 PUSH2 0x1AF JUMP JUMPDEST JUMPDEST PUSH2 0x24A DUP3 PUSH2 0x19F JUMP JUMPDEST SWAP1 POP PUSH1 0x20 DUP2 ADD SWAP1 POP SWAP2 SWAP1 POP JUMP JUMPDEST DUP3 DUP2 DUP4 CALLDATACOPY PUSH0 DUP4 DUP4 ADD MSTORE POP POP POP JUMP JUMPDEST PUSH0 PUSH2 0x277 PUSH2 0x272 DUP5 PUSH2 0x227 JUMP JUMPDEST PUSH2 0x20D JUMP JUMPDEST SWAP1 POP DUP3 DUP2 MSTORE PUSH1 0x20 DUP2 ADD DUP5 DUP5 DUP5 ADD GT ISZERO PUSH2 0x293 JUMPI PUSH2 0x292 PUSH2 0x19B JUMP JUMPDEST JUMPDEST PUSH2 0x29E DUP5 DUP3 DUP6 PUSH2 0x257 JUMP JUMPDEST POP SWAP4 SWAP3 POP POP POP JUMP JUMPDEST PUSH0 DUP3 PUSH1 0x1F DUP4 ADD SLT PUSH2 0x2BA JUMPI PUSH2 0x2B9 PUSH2 0x197 JUMP JUMPDEST JUMPDEST DUP2 CALLDATALOAD PUSH2 0x2CA DUP5 DUP3 PUSH1 0x20 DUP7 ADD PUSH2 0x265 JUMP JUMPDEST SWAP2 POP POP SWAP3 SWAP2 POP POP JUMP JUMPDEST PUSH0 PUSH8 0xFFFFFFFFFFFFFFFF DUP3 GT ISZERO PUSH2 0x2ED JUMPI PUSH2 0x2EC PUSH2 0x1AF JUMP JUMPDEST JUMPDEST PUSH1 0x20 DUP3 MUL SWAP1 POP PUSH1 0x20 DUP2 ADD SWAP1 POP SWAP2 SWAP1 POP JUMP JUMPDEST PUSH0 DUP1 REVERT JUMPDEST PUSH0 DUP2 SWAP1 POP SWAP2 SWAP1 POP JUMP JUMPDEST PUSH2 0x314 DUP2 PUSH2 0x302 JUMP JUMPDEST DUP2 EQ PUSH2 0x31E JUMPI PUSH0 DUP1 REVERT JUMPDEST POP JUMP JUMPDEST PUSH0 DUP2 CALLDATALOAD SWAP1 POP PUSH2 0x32F DUP2 PUSH2 0x30B JUMP JUMPDEST SWAP3 SWAP2 POP POP JUMP JUMPDEST PUSH0 PUSH2 0x347 PUSH2 0x342 DUP5 PUSH2 0x2D3 JUMP JUMPDEST PUSH2 0x20D JUMP JUMPDEST SWAP1 POP DUP1 DUP4 DUP3 MSTORE PUSH1 0x20 DUP3 ADD SWAP1 POP PUSH1 0x20 DUP5 MUL DUP4 ADD DUP6 DUP2 GT ISZERO PUSH2 0x36A JUMPI PUSH2 0x369 PUSH2 0x2FE JUMP JUMPDEST JUMPDEST DUP4 JUMPDEST DUP2 DUP2 LT ISZERO PUSH2 0x393 JUMPI DUP1 PUSH2 0x37F DUP9 DUP3 PUSH2 0x321 JUMP JUMPDEST DUP5 MSTORE PUSH1 0x20 DUP5 ADD SWAP4 POP POP PUSH1 0x20 DUP2 ADD SWAP1 POP PUSH2 0x36C JUMP JUMPDEST POP POP POP SWAP4 SWAP3 POP POP POP JUMP JUMPDEST PUSH0 DUP3 PUSH1 0x1F DUP4 ADD SLT PUSH2 0x3B1 JUMPI PUSH2 0x3B0 PUSH2 0x197 JUMP JUMPDEST JUMPDEST DUP2 CALLDATALOAD PUSH2 0x3C1 DUP5 DUP3 PUSH1 0x20 DUP7 ADD PUSH2 0x335 JUMP JUMPDEST SWAP2 POP POP SWAP3 SWAP2 POP POP JUMP JUMPDEST PUSH0 DUP1 PUSH1 0x40 DUP4 DUP6 SUB SLT ISZERO PUSH2 0x3E0 JUMPI PUSH2 0x3DF PUSH2 0x18F JUMP JUMPDEST JUMPDEST PUSH0 DUP4 ADD CALLDATALOAD PUSH8 0xFFFFFFFFFFFFFFFF DUP2 GT ISZERO PUSH2 0x3FD JUMPI PUSH2 0x3FC PUSH2 0x193 JUMP JUMPDEST JUMPDEST PUSH2 0x409 DUP6 DUP3 DUP7 ADD PUSH2 0x2A6 JUMP JUMPDEST SWAP3 POP POP PUSH1 0x20 DUP4 ADD CALLDATALOAD PUSH8 0xFFFFFFFFFFFFFFFF DUP2 GT ISZERO PUSH2 0x42A JUMPI PUSH2 0x429 PUSH2 0x193 JUMP JUMPDEST JUMPDEST PUSH2 0x436 DUP6 DUP3 DUP7 ADD PUSH2 0x39D JUMP JUMPDEST SWAP2 POP POP SWAP3 POP SWAP3 SWAP1 POP JUMP JUMPDEST PUSH0 DUP2 ISZERO ISZERO SWAP1 POP SWAP2 SWAP1 POP JUMP JUMPDEST PUSH2 0x454 DUP2 PUSH2 0x440 JUMP JUMPDEST DUP3 MSTORE POP POP JUMP JUMPDEST PUSH0 PUSH1 0x20 DUP3 ADD SWAP1 POP PUSH2 0x46D PUSH0 DUP4 ADD DUP5 PUSH2 0x44B JUMP JUMPDEST SWAP3 SWAP2 POP POP JUMP JUMPDEST PUSH0 PUSH20 0xFFFFFFFFFFFFFFFFFFFFFFFFFFFFFFFFFFFFFFFF DUP3 AND SWAP1 POP SWAP2 SWAP1 POP JUMP JUMPDEST PUSH0 PUSH2 0x49C DUP3 PUSH2 0x473 JUMP JUMPDEST SWAP1 POP SWAP2 SWAP1 POP JUMP JUMPDEST PUSH2 0x4AC DUP2 PUSH2 0x492 JUMP JUMPDEST DUP3 MSTORE POP POP JUMP JUMPDEST PUSH0 PUSH1 0x20 DUP3 ADD SWAP1 POP PUSH2 0x4C5 PUSH0 DUP4 ADD DUP5 PUSH2 0x4A3 JUMP JUMPDEST SWAP3 SWAP2 POP POP JUMP JUMPDEST PUSH0 DUP2 MLOAD SWAP1 POP SWAP2 SWAP1 POP JUMP JUMPDEST PUSH0 DUP3 DUP3 MSTORE PUSH1 0x20 DUP3 ADD SWAP1 POP SWAP3 SWAP2 POP POP JUMP JUMPDEST DUP3 DUP2 DUP4 MCOPY PUSH0 DUP4 DUP4 ADD MSTORE POP POP POP JUMP JUMPDEST PUSH0 PUSH2 0x4FD DUP3 PUSH2 0x4CB JUMP JUMPDEST PUSH2 0x507 DUP2 DUP6 PUSH2 0x4D5 JUMP JUMPDEST SWAP4 POP PUSH2 0x517 DUP2 DUP6 PUSH1 0x20 DUP7 ADD PUSH2 0x4E5 JUMP JUMPDEST PUSH2 0x520 DUP2 PUSH2 0x19F JUMP JUMPDEST DUP5 ADD SWAP2 POP POP SWAP3 SWAP2 POP POP JUMP JUMPDEST PUSH0 DUP2 MLOAD SWAP1 POP SWAP2 SWAP1 POP JUMP JUMPDEST PUSH0 DUP3 DUP3 MSTORE PUSH1 0x20 DUP3 ADD SWAP1 POP SWAP3 SWAP2 POP POP JUMP JUMPDEST PUSH0 DUP2 SWAP1 POP PUSH1 0x20 DUP3 ADD SWAP1 POP SWAP2 SWAP1 POP JUMP JUMPDEST PUSH2 0x55D DUP2 PUSH2 0x302 JUMP JUMPDEST DUP3 MSTORE POP POP JUMP JUMPDEST PUSH0 PUSH2 0x56E DUP4 DUP4 PUSH2 0x554 JUMP JUMPDEST PUSH1 0x20 DUP4 ADD SWAP1 POP SWAP3 SWAP2 POP POP JUMP JUMPDEST PUSH0 PUSH1 0x20 DUP3 ADD SWAP1 POP SWAP2 SWAP1 POP JUMP JUMPDEST PUSH0 PUSH2 0x590 DUP3 PUSH2 0x52B JUMP JUMPDEST PUSH2 0x59A DUP2 DUP6 PUSH2 0x535 JUMP JUMPDEST SWAP4 POP PUSH2 0x5A5 DUP4 PUSH2 0x545 JUMP JUMPDEST DUP1 PUSH0 JUMPDEST DUP4 DUP2 LT ISZERO PUSH2 0x5D5 JUMPI DUP2 MLOAD PUSH2 0x5BC DUP9 DUP3 PUSH2 0x563 JUMP JUMPDEST SWAP8 POP PUSH2 0x5C7 DUP4 PUSH2 0x57A JUMP JUMPDEST SWAP3 POP POP PUSH1 0x1 DUP2 ADD SWAP1 POP PUSH2 0x5A8 JUMP JUMPDEST POP DUP6 SWAP4 POP POP POP POP SWAP3 SWAP2 POP POP JUMP JUMPDEST PUSH0 PUSH1 0x40 DUP3 ADD SWAP1 POP DUP2 DUP2 SUB PUSH0 DUP4 ADD MSTORE PUSH2 0x5FA DUP2 DUP6 PUSH2 0x4F3 JUMP JUMPDEST SWAP1 POP DUP2 DUP2 SUB PUSH1 0x20 DUP4 ADD MSTORE PUSH2 0x60E DUP2 DUP5 PUSH2 0x586 JUMP JUMPDEST SWAP1 POP SWAP4 SWAP3 POP POP POP JUMP JUMPDEST PUSH2 0x620 DUP2 PUSH2 0x440 JUMP JUMPDEST DUP2 EQ PUSH2 0x62A JUMPI PUSH0 DUP1 REVERT JUMPDEST POP JUMP JUMPDEST PUSH0 DUP2 MLOAD SWAP1 POP PUSH2 0x63B DUP2 PUSH2 0x617 JUMP JUMPDEST SWAP3 SWAP2 POP POP JUMP JUMPDEST PUSH0 PUSH1 0x20 DUP3 DUP5 SUB SLT ISZERO PUSH2 0x656 JUMPI PUSH2 0x655 PUSH2 0x18F JUMP JUMPDEST JUMPDEST PUSH0 PUSH2 0x663 DUP5 DUP3 DUP6 ADD PUSH2 0x62D JUMP JUMPDEST SWAP2 POP POP SWAP3 SWAP2 POP POP JUMP INVALID LOG2 PUSH5 0x6970667358 0x22 SLT KECCAK256 PUSH20 0x9BFB484A2C1BC6089F5BE0257FCE1A6D092CEB61 0xC5 PUSH8 0x4300F18383EA844D 0x22 PUSH5 0x736F6C6343 STOP ADDMOD BYTE STOP CALLER "
				},
				"gasEstimates": {
					"creation": {
						"codeDepositCost": "339600",
						"executionCost": "infinite",
						"totalCost": "infinite"
					},
					"external": {
						"submitProof(bytes,uint256[])": "infinite",
						"verifierAddress()": "2505"
					}
				},
				"methodIdentifiers": {
					"submitProof(bytes,uint256[])": "00c80d81",
					"verifierAddress()": "18bdffbb"
				}
			},
			"storageLayout": {
				"storage": [
					{
						"astId": 14,
						"contract": "src/SimpleMultipiler.sol:SimpleMultiplier",
						"label": "verifierAddress",
						"offset": 0,
						"slot": "0",
						"type": "t_address"
					}
				],
				"types": {
					"t_address": {
						"encoding": "inplace",
						"label": "address",
						"numberOfBytes": "20"
					}
				}
			},
			"userdoc": {
				"kind": "user",
				"methods": {},
				"version": 1
			}
		}
	}
}