{
	"src/Verifier.sol": {
		"PlonkVerifier": {
			"abi": [
				{
					"inputs": [
						{
							"internalType": "uint256[24]",
							"name": "_proof",
							"type": "uint256[24]"
						},
						{
							"internalType": "uint256[1]",
							"name": "_pubSignals",
							"type": "uint256[1]"
						}
					],
					"name": "verifyProof",
					"outputs": [
						{
							"internalType": "bool",
							"name": "",
							"type": "bool"
						}
					],
					"stateMutability": "view",
					"type": "function"
				}
			],
			"devdoc": {
				"kind": "dev",
				"methods": {},
				"version": 1
			},
			"evm": {
				"assembly": "    /* \"src/Verifier.sol\":831:27514  contract PlonkVerifier {... */\n  mstore(0x40, 0x80)\n  callvalue\n  dup1\n  iszero\n  tag_1\n  jumpi\n  0x00\n  dup1\n  revert\ntag_1:\n  pop\n  dataSize(sub_0)\n  dup1\n  dataOffset(sub_0)\n  0x00\n  codecopy\n  0x00\n  return\nstop\n\nsub_0: assembly {\n        /* \"src/Verifier.sol\":831:27514  contract PlonkVerifier {... */\n      mstore(0x40, 0x80)\n      callvalue\n      dup1\n      iszero\n      tag_1\n      jumpi\n      0x00\n      dup1\n      revert\n    tag_1:\n      pop\n      jumpi(tag_2, lt(calldatasize, 0x04))\n      shr(0xe0, calldataload(0x00))\n      dup1\n      0xff7240a7\n      eq\n      tag_3\n      jumpi\n    tag_2:\n      0x00\n      dup1\n      revert\n        /* \"src/Verifier.sol\":5390:27512  function verifyProof(... */\n    tag_3:\n      tag_4\n      0x04\n      dup1\n      calldatasize\n      sub\n      dup2\n      add\n      swap1\n      tag_5\n      swap2\n      swap1\n      tag_6\n      jump\t// in\n    tag_5:\n      tag_7\n      jump\t// in\n    tag_4:\n      mload(0x40)\n      tag_8\n      swap2\n      swap1\n      tag_9\n      jump\t// in\n    tag_8:\n      mload(0x40)\n      dup1\n      swap2\n      sub\n      swap1\n      return\n    tag_7:\n        /* \"src/Verifier.sol\":5516:5520  bool */\n      0x00\n        /* \"src/Verifier.sol\":5674:6447  function inverse(a, q) -> inv {... */\n      jump(tag_31)\n    tag_11:\n        /* \"src/Verifier.sol\":5700:5703  inv */\n      0x00\n        /* \"src/Verifier.sol\":5731:5732  0 */\n      dup1\n        /* \"src/Verifier.sol\":5761:5762  1 */\n      0x01\n        /* \"src/Verifier.sol\":5788:5789  q */\n      dup5\n        /* \"src/Verifier.sol\":5818:5819  a */\n      dup5\n        /* \"src/Verifier.sol\":5836:5848  let quotient */\n      0x00\n        /* \"src/Verifier.sol\":5865:5872  let aux */\n      dup1\n        /* \"src/Verifier.sol\":5890:6241  for {... */\n    tag_33:\n        /* \"src/Verifier.sol\":5915:5919  newr */\n      dup3\n        /* \"src/Verifier.sol\":5890:6241  for {... */\n      iszero\n      tag_35\n      jumpi\n        /* \"src/Verifier.sol\":5983:5987  newr */\n      dup3\n        /* \"src/Verifier.sol\":5980:5981  r */\n      dup5\n        /* \"src/Verifier.sol\":5975:5988  sdiv(r, newr) */\n      sdiv\n        /* \"src/Verifier.sol\":5963:5988  quotient := sdiv(r, newr) */\n      swap2\n      pop\n        /* \"src/Verifier.sol\":6037:6041  newt */\n      dup5\n        /* \"src/Verifier.sol\":6027:6035  quotient */\n      dup3\n        /* \"src/Verifier.sol\":6023:6042  mul(quotient, newt) */\n      mul\n        /* \"src/Verifier.sol\":6020:6021  t */\n      dup7\n        /* \"src/Verifier.sol\":6016:6043  sub(t, mul(quotient, newt)) */\n      sub\n        /* \"src/Verifier.sol\":6009:6043  aux := sub(t, mul(quotient, newt)) */\n      swap1\n      pop\n        /* \"src/Verifier.sol\":6069:6073  newt */\n      dup5\n        /* \"src/Verifier.sol\":6064:6073  t := newt */\n      swap6\n      pop\n        /* \"src/Verifier.sol\":6102:6105  aux */\n      dup1\n        /* \"src/Verifier.sol\":6094:6105  newt := aux */\n      swap5\n      pop\n        /* \"src/Verifier.sol\":6155:6159  newr */\n      dup3\n        /* \"src/Verifier.sol\":6145:6153  quotient */\n      dup3\n        /* \"src/Verifier.sol\":6141:6160  mul(quotient, newr) */\n      mul\n        /* \"src/Verifier.sol\":6138:6139  r */\n      dup5\n        /* \"src/Verifier.sol\":6134:6161  sub(r, mul(quotient, newr)) */\n      sub\n        /* \"src/Verifier.sol\":6127:6161  aux := sub(r, mul(quotient, newr)) */\n      swap1\n      pop\n        /* \"src/Verifier.sol\":6187:6191  newr */\n      dup3\n        /* \"src/Verifier.sol\":6182:6191  r := newr */\n      swap4\n      pop\n        /* \"src/Verifier.sol\":6220:6223  aux */\n      dup1\n        /* \"src/Verifier.sol\":6212:6223  newr := aux */\n      swap3\n      pop\n        /* \"src/Verifier.sol\":5890:6241  for {... */\n      jump(tag_33)\n    tag_35:\n        /* \"src/Verifier.sol\":6268:6269  1 */\n      0x01\n        /* \"src/Verifier.sol\":6265:6266  r */\n      dup5\n        /* \"src/Verifier.sol\":6262:6270  gt(r, 1) */\n      gt\n        /* \"src/Verifier.sol\":6259:6323  if gt(r, 1) {... */\n      iszero\n      tag_36\n      jumpi\n        /* \"src/Verifier.sol\":6303:6304  0 */\n      0x00\n        /* \"src/Verifier.sol\":6300:6301  0 */\n      dup1\n        /* \"src/Verifier.sol\":6293:6305  revert(0, 0) */\n      revert\n        /* \"src/Verifier.sol\":6259:6323  if gt(r, 1) {... */\n    tag_36:\n        /* \"src/Verifier.sol\":6350:6351  0 */\n      0x00\n        /* \"src/Verifier.sol\":6347:6348  t */\n      dup7\n        /* \"src/Verifier.sol\":6343:6352  slt(t, 0) */\n      slt\n        /* \"src/Verifier.sol\":6340:6407  if slt(t, 0) {... */\n      iszero\n      tag_37\n      jumpi\n        /* \"src/Verifier.sol\":6387:6388  q */\n      dup9\n        /* \"src/Verifier.sol\":6384:6385  t */\n      dup7\n        /* \"src/Verifier.sol\":6380:6389  add(t, q) */\n      add\n        /* \"src/Verifier.sol\":6375:6389  t := add(t, q) */\n      swap6\n      pop\n        /* \"src/Verifier.sol\":6340:6407  if slt(t, 0) {... */\n    tag_37:\n        /* \"src/Verifier.sol\":6432:6433  t */\n      dup6\n        /* \"src/Verifier.sol\":6425:6433  inv := t */\n      swap7\n      pop\n        /* \"src/Verifier.sol\":5704:6447  {... */\n      pop\n      pop\n      pop\n      pop\n      pop\n      pop\n        /* \"src/Verifier.sol\":5674:6447  function inverse(a, q) -> inv {... */\n      swap3\n      swap2\n      pop\n      pop\n      jump\t// out\n        /* \"src/Verifier.sol\":6677:8127  function inverseArray(pVals, n) {... */\n    tag_12:\n        /* \"src/Verifier.sol\":6745:6749  0x40 */\n      0x40\n        /* \"src/Verifier.sol\":6739:6750  mload(0x40) */\n      mload\n        /* \"src/Verifier.sol\":6813:6818  pVals */\n      dup2\n        /* \"src/Verifier.sol\":6868:6870  32 */\n      0x20\n        /* \"src/Verifier.sol\":6865:6866  n */\n      dup5\n        /* \"src/Verifier.sol\":6861:6871  mul(n, 32) */\n      mul\n        /* \"src/Verifier.sol\":6854:6859  pVals */\n      dup4\n        /* \"src/Verifier.sol\":6850:6872  add(pVals, mul(n, 32)) */\n      add\n        /* \"src/Verifier.sol\":6924:6927  pIn */\n      dup2\n        /* \"src/Verifier.sol\":6918:6928  mload(pIn) */\n      mload\n        /* \"src/Verifier.sol\":6987:6989  32 */\n      0x20\n        /* \"src/Verifier.sol\":6982:6985  pIn */\n      dup4\n        /* \"src/Verifier.sol\":6978:6990  add(pIn, 32) */\n      add\n        /* \"src/Verifier.sol\":6971:6990  pIn := add(pIn, 32) */\n      swap3\n      pop\n        /* \"src/Verifier.sol\":7038:7045  let inv */\n      0x00\n        /* \"src/Verifier.sol\":7063:7318  for {... */\n    tag_39:\n        /* \"src/Verifier.sol\":7096:7103  lastPIn */\n      dup3\n        /* \"src/Verifier.sol\":7091:7094  pIn */\n      dup5\n        /* \"src/Verifier.sol\":7088:7104  lt(pIn, lastPIn) */\n      lt\n        /* \"src/Verifier.sol\":7063:7318  for {... */\n      iszero\n      tag_41\n      jumpi\n        /* \"src/Verifier.sol\":7242:7245  acc */\n      dup2\n        /* \"src/Verifier.sol\":7236:7240  pAux */\n      dup6\n        /* \"src/Verifier.sol\":7229:7246  mstore(pAux, acc) */\n      mstore\n        /* \"src/Verifier.sol\":7298:7299  q */\n      0x30644e72e131a029b85045b68181585d2833e84879b9709143e1f593f0000001\n        /* \"src/Verifier.sol\":7292:7295  pIn */\n      dup5\n        /* \"src/Verifier.sol\":7286:7296  mload(pIn) */\n      mload\n        /* \"src/Verifier.sol\":7281:7284  acc */\n      dup4\n        /* \"src/Verifier.sol\":7274:7300  mulmod(acc, mload(pIn), q) */\n      mulmod\n        /* \"src/Verifier.sol\":7267:7300  acc := mulmod(acc, mload(pIn), q) */\n      swap2\n      pop\n        /* \"src/Verifier.sol\":7145:7147  32 */\n      0x20\n        /* \"src/Verifier.sol\":7139:7143  pAux */\n      dup6\n        /* \"src/Verifier.sol\":7135:7148  add(pAux, 32) */\n      add\n        /* \"src/Verifier.sol\":7127:7148  pAux := add(pAux, 32) */\n      swap5\n      pop\n        /* \"src/Verifier.sol\":7185:7187  32 */\n      0x20\n        /* \"src/Verifier.sol\":7180:7183  pIn */\n      dup5\n        /* \"src/Verifier.sol\":7176:7188  add(pIn, 32) */\n      add\n        /* \"src/Verifier.sol\":7169:7188  pIn := add(pIn, 32) */\n      swap4\n      pop\n        /* \"src/Verifier.sol\":7063:7318  for {... */\n      jump(tag_39)\n    tag_41:\n        /* \"src/Verifier.sol\":7342:7357  inverse(acc, q) */\n      tag_42\n        /* \"src/Verifier.sol\":7355:7356  q */\n      0x30644e72e131a029b85045b68181585d2833e84879b9709143e1f593f0000001\n        /* \"src/Verifier.sol\":7350:7353  acc */\n      dup4\n        /* \"src/Verifier.sol\":7342:7357  inverse(acc, q) */\n      tag_11\n      jump\t// in\n    tag_42:\n        /* \"src/Verifier.sol\":7335:7357  acc := inverse(acc, q) */\n      swap2\n      pop\n        /* \"src/Verifier.sol\":7503:7505  32 */\n      0x20\n        /* \"src/Verifier.sol\":7497:7501  pAux */\n      dup6\n        /* \"src/Verifier.sol\":7493:7506  sub(pAux, 32) */\n      sub\n        /* \"src/Verifier.sol\":7485:7506  pAux := sub(pAux, 32) */\n      swap5\n      pop\n        /* \"src/Verifier.sol\":7616:7618  32 */\n      0x20\n        /* \"src/Verifier.sol\":7611:7614  pIn */\n      dup5\n        /* \"src/Verifier.sol\":7607:7619  sub(pIn, 32) */\n      sub\n        /* \"src/Verifier.sol\":7600:7619  pIn := sub(pIn, 32) */\n      swap4\n      pop\n        /* \"src/Verifier.sol\":7647:7652  pVals */\n      dup6\n        /* \"src/Verifier.sol\":7636:7652  lastPIn := pVals */\n      swap3\n      pop\n        /* \"src/Verifier.sol\":7707:8016  for {... */\n    tag_43:\n        /* \"src/Verifier.sol\":7740:7747  lastPIn */\n      dup3\n        /* \"src/Verifier.sol\":7735:7738  pIn */\n      dup5\n        /* \"src/Verifier.sol\":7732:7748  gt(pIn, lastPIn) */\n      gt\n        /* \"src/Verifier.sol\":7707:8016  for {... */\n      iszero\n      tag_45\n      jumpi\n        /* \"src/Verifier.sol\":7905:7906  q */\n      0x30644e72e131a029b85045b68181585d2833e84879b9709143e1f593f0000001\n        /* \"src/Verifier.sol\":7898:7902  pAux */\n      dup6\n        /* \"src/Verifier.sol\":7892:7903  mload(pAux) */\n      mload\n        /* \"src/Verifier.sol\":7887:7890  acc */\n      dup4\n        /* \"src/Verifier.sol\":7880:7907  mulmod(acc, mload(pAux), q) */\n      mulmod\n        /* \"src/Verifier.sol\":7873:7907  inv := mulmod(acc, mload(pAux), q) */\n      swap1\n      pop\n        /* \"src/Verifier.sol\":7959:7960  q */\n      0x30644e72e131a029b85045b68181585d2833e84879b9709143e1f593f0000001\n        /* \"src/Verifier.sol\":7953:7956  pIn */\n      dup5\n        /* \"src/Verifier.sol\":7947:7957  mload(pIn) */\n      mload\n        /* \"src/Verifier.sol\":7942:7945  acc */\n      dup4\n        /* \"src/Verifier.sol\":7935:7961  mulmod(acc, mload(pIn), q) */\n      mulmod\n        /* \"src/Verifier.sol\":7928:7961  acc := mulmod(acc, mload(pIn), q) */\n      swap2\n      pop\n        /* \"src/Verifier.sol\":7994:7997  inv */\n      dup1\n        /* \"src/Verifier.sol\":7989:7992  pIn */\n      dup5\n        /* \"src/Verifier.sol\":7982:7998  mstore(pIn, inv) */\n      mstore\n        /* \"src/Verifier.sol\":7789:7791  32 */\n      0x20\n        /* \"src/Verifier.sol\":7783:7787  pAux */\n      dup6\n        /* \"src/Verifier.sol\":7779:7792  sub(pAux, 32) */\n      sub\n        /* \"src/Verifier.sol\":7771:7792  pAux := sub(pAux, 32) */\n      swap5\n      pop\n        /* \"src/Verifier.sol\":7829:7831  32 */\n      0x20\n        /* \"src/Verifier.sol\":7824:7827  pIn */\n      dup5\n        /* \"src/Verifier.sol\":7820:7832  sub(pIn, 32) */\n      sub\n        /* \"src/Verifier.sol\":7813:7832  pIn := sub(pIn, 32) */\n      swap4\n      pop\n        /* \"src/Verifier.sol\":7707:8016  for {... */\n      jump(tag_43)\n    tag_45:\n        /* \"src/Verifier.sol\":8109:8112  acc */\n      dup2\n        /* \"src/Verifier.sol\":8104:8107  pIn */\n      dup5\n        /* \"src/Verifier.sol\":8097:8113  mstore(pIn, acc) */\n      mstore\n        /* \"src/Verifier.sol\":6709:8127  {... */\n      pop\n      pop\n      pop\n      pop\n      pop\n        /* \"src/Verifier.sol\":6677:8127  function inverseArray(pVals, n) {... */\n      pop\n      pop\n      jump\t// out\n        /* \"src/Verifier.sol\":8141:8304  function checkField(v) {... */\n    tag_13:\n        /* \"src/Verifier.sol\":8198:8199  q */\n      0x30644e72e131a029b85045b68181585d2833e84879b9709143e1f593f0000001\n        /* \"src/Verifier.sol\":8195:8196  v */\n      dup2\n        /* \"src/Verifier.sol\":8192:8200  lt(v, q) */\n      lt\n        /* \"src/Verifier.sol\":8182:8290  if iszero(lt(v, q)) {... */\n      tag_47\n      jumpi\n        /* \"src/Verifier.sol\":8234:8235  0 */\n      0x00\n        /* \"src/Verifier.sol\":8231:8232  0 */\n      dup1\n        /* \"src/Verifier.sol\":8224:8236  mstore(0, 0) */\n      mstore\n        /* \"src/Verifier.sol\":8267:8271  0x20 */\n      0x20\n        /* \"src/Verifier.sol\":8264:8265  0 */\n      0x00\n        /* \"src/Verifier.sol\":8257:8272  return(0, 0x20) */\n      return\n        /* \"src/Verifier.sol\":8182:8290  if iszero(lt(v, q)) {... */\n    tag_47:\n        /* \"src/Verifier.sol\":8141:8304  function checkField(v) {... */\n      pop\n      jump\t// out\n        /* \"src/Verifier.sol\":8318:8658  function checkInput() {... */\n    tag_14:\n        /* \"src/Verifier.sol\":8358:8391  checkField(calldataload(pEval_a)) */\n      tag_49\n        /* \"src/Verifier.sol\":8382:8389  pEval_a */\n      0x0244\n        /* \"src/Verifier.sol\":8369:8390  calldataload(pEval_a) */\n      calldataload\n        /* \"src/Verifier.sol\":8358:8391  checkField(calldataload(pEval_a)) */\n      tag_13\n      jump\t// in\n    tag_49:\n        /* \"src/Verifier.sol\":8408:8441  checkField(calldataload(pEval_b)) */\n      tag_50\n        /* \"src/Verifier.sol\":8432:8439  pEval_b */\n      0x0264\n        /* \"src/Verifier.sol\":8419:8440  calldataload(pEval_b) */\n      calldataload\n        /* \"src/Verifier.sol\":8408:8441  checkField(calldataload(pEval_b)) */\n      tag_13\n      jump\t// in\n    tag_50:\n        /* \"src/Verifier.sol\":8458:8491  checkField(calldataload(pEval_c)) */\n      tag_51\n        /* \"src/Verifier.sol\":8482:8489  pEval_c */\n      0x0284\n        /* \"src/Verifier.sol\":8469:8490  calldataload(pEval_c) */\n      calldataload\n        /* \"src/Verifier.sol\":8458:8491  checkField(calldataload(pEval_c)) */\n      tag_13\n      jump\t// in\n    tag_51:\n        /* \"src/Verifier.sol\":8508:8542  checkField(calldataload(pEval_s1)) */\n      tag_52\n        /* \"src/Verifier.sol\":8532:8540  pEval_s1 */\n      0x02a4\n        /* \"src/Verifier.sol\":8519:8541  calldataload(pEval_s1) */\n      calldataload\n        /* \"src/Verifier.sol\":8508:8542  checkField(calldataload(pEval_s1)) */\n      tag_13\n      jump\t// in\n    tag_52:\n        /* \"src/Verifier.sol\":8559:8593  checkField(calldataload(pEval_s2)) */\n      tag_53\n        /* \"src/Verifier.sol\":8583:8591  pEval_s2 */\n      0x02c4\n        /* \"src/Verifier.sol\":8570:8592  calldataload(pEval_s2) */\n      calldataload\n        /* \"src/Verifier.sol\":8559:8593  checkField(calldataload(pEval_s2)) */\n      tag_13\n      jump\t// in\n    tag_53:\n        /* \"src/Verifier.sol\":8610:8644  checkField(calldataload(pEval_zw)) */\n      tag_54\n        /* \"src/Verifier.sol\":8634:8642  pEval_zw */\n      0x02e4\n        /* \"src/Verifier.sol\":8621:8643  calldataload(pEval_zw) */\n      calldataload\n        /* \"src/Verifier.sol\":8610:8644  checkField(calldataload(pEval_zw)) */\n      tag_13\n      jump\t// in\n    tag_54:\n        /* \"src/Verifier.sol\":8318:8658  function checkInput() {... */\n      jump\t// out\n        /* \"src/Verifier.sol\":8672:13120  function calculateChallenges(pMem, pPublic) {... */\n    tag_15:\n        /* \"src/Verifier.sol\":8734:8742  let beta */\n      0x00\n        /* \"src/Verifier.sol\":8759:8766  let aux */\n      dup1\n        /* \"src/Verifier.sol\":8801:8805  0x40 */\n      0x40\n        /* \"src/Verifier.sol\":8795:8806  mload(0x40) */\n      mload\n        /* \"src/Verifier.sol\":8940:8943  Qmx */\n      0x16c267dd4cf30f26f0564eb51c466dc1a5c907efd67ec76692d35fb1cdda0ce8\n        /* \"src/Verifier.sol\":8935:8938  mIn */\n      dup2\n        /* \"src/Verifier.sol\":8928:8944  mstore(mIn, Qmx) */\n      mstore\n        /* \"src/Verifier.sol\":8982:8985  Qmy */\n      0x2655eb98e5bbd2d8f1cdef1730dd3ef40f2375004a0a298b21b9807aa244f034\n        /* \"src/Verifier.sol\":8977:8979  32 */\n      0x20\n        /* \"src/Verifier.sol\":8972:8975  mIn */\n      dup3\n        /* \"src/Verifier.sol\":8968:8980  add(mIn, 32) */\n      add\n        /* \"src/Verifier.sol\":8961:8986  mstore(add(mIn, 32), Qmy) */\n      mstore\n        /* \"src/Verifier.sol\":9024:9027  Qlx */\n      0x1f9be742471045cc436a97a2c8664790c8a99112bfd7c5cdbdb00c574342d286\n        /* \"src/Verifier.sol\":9019:9021  64 */\n      0x40\n        /* \"src/Verifier.sol\":9014:9017  mIn */\n      dup3\n        /* \"src/Verifier.sol\":9010:9022  add(mIn, 64) */\n      add\n        /* \"src/Verifier.sol\":9003:9028  mstore(add(mIn, 64), Qlx) */\n      mstore\n        /* \"src/Verifier.sol\":9066:9069  Qly */\n      0x15d573fc890afebd6308281bf667988a2a7df914b371bc46645aeff185f42ab3\n        /* \"src/Verifier.sol\":9061:9063  96 */\n      0x60\n        /* \"src/Verifier.sol\":9056:9059  mIn */\n      dup3\n        /* \"src/Verifier.sol\":9052:9064  add(mIn, 96) */\n      add\n        /* \"src/Verifier.sol\":9045:9070  mstore(add(mIn, 96), Qly) */\n      mstore\n        /* \"src/Verifier.sol\":9109:9112  Qrx */\n      0x00\n        /* \"src/Verifier.sol\":9103:9106  128 */\n      0x80\n        /* \"src/Verifier.sol\":9098:9101  mIn */\n      dup3\n        /* \"src/Verifier.sol\":9094:9107  add(mIn, 128) */\n      add\n        /* \"src/Verifier.sol\":9087:9113  mstore(add(mIn, 128), Qrx) */\n      mstore\n        /* \"src/Verifier.sol\":9152:9155  Qry */\n      0x00\n        /* \"src/Verifier.sol\":9146:9149  160 */\n      0xa0\n        /* \"src/Verifier.sol\":9141:9144  mIn */\n      dup3\n        /* \"src/Verifier.sol\":9137:9150  add(mIn, 160) */\n      add\n        /* \"src/Verifier.sol\":9130:9156  mstore(add(mIn, 160), Qry) */\n      mstore\n        /* \"src/Verifier.sol\":9195:9198  Qox */\n      0x16c267dd4cf30f26f0564eb51c466dc1a5c907efd67ec76692d35fb1cdda0ce8\n        /* \"src/Verifier.sol\":9189:9192  192 */\n      0xc0\n        /* \"src/Verifier.sol\":9184:9187  mIn */\n      dup3\n        /* \"src/Verifier.sol\":9180:9193  add(mIn, 192) */\n      add\n        /* \"src/Verifier.sol\":9173:9199  mstore(add(mIn, 192), Qox) */\n      mstore\n        /* \"src/Verifier.sol\":9238:9241  Qoy */\n      0x0a0e62d9fb75cd50c682569f50a41969885df5911e67a1021a670b9c36380d13\n        /* \"src/Verifier.sol\":9232:9235  224 */\n      0xe0\n        /* \"src/Verifier.sol\":9227:9230  mIn */\n      dup3\n        /* \"src/Verifier.sol\":9223:9236  add(mIn, 224) */\n      add\n        /* \"src/Verifier.sol\":9216:9242  mstore(add(mIn, 224), Qoy) */\n      mstore\n        /* \"src/Verifier.sol\":9281:9284  Qcx */\n      0x00\n        /* \"src/Verifier.sol\":9275:9278  256 */\n      0x0100\n        /* \"src/Verifier.sol\":9270:9273  mIn */\n      dup3\n        /* \"src/Verifier.sol\":9266:9279  add(mIn, 256) */\n      add\n        /* \"src/Verifier.sol\":9259:9285  mstore(add(mIn, 256), Qcx) */\n      mstore\n        /* \"src/Verifier.sol\":9324:9327  Qcy */\n      0x00\n        /* \"src/Verifier.sol\":9318:9321  288 */\n      0x0120\n        /* \"src/Verifier.sol\":9313:9316  mIn */\n      dup3\n        /* \"src/Verifier.sol\":9309:9322  add(mIn, 288) */\n      add\n        /* \"src/Verifier.sol\":9302:9328  mstore(add(mIn, 288), Qcy) */\n      mstore\n        /* \"src/Verifier.sol\":9367:9370  S1x */\n      0x05f52e577242bbd714129198820be347dd61940ebd3a29eacd6cd2f91a6c8c14\n        /* \"src/Verifier.sol\":9361:9364  320 */\n      0x0140\n        /* \"src/Verifier.sol\":9356:9359  mIn */\n      dup3\n        /* \"src/Verifier.sol\":9352:9365  add(mIn, 320) */\n      add\n        /* \"src/Verifier.sol\":9345:9371  mstore(add(mIn, 320), S1x) */\n      mstore\n        /* \"src/Verifier.sol\":9410:9413  S1y */\n      0x09bebc383182d60239a1676131559f775274c9f3a60a40c1decb91bd1652edd8\n        /* \"src/Verifier.sol\":9404:9407  352 */\n      0x0160\n        /* \"src/Verifier.sol\":9399:9402  mIn */\n      dup3\n        /* \"src/Verifier.sol\":9395:9408  add(mIn, 352) */\n      add\n        /* \"src/Verifier.sol\":9388:9414  mstore(add(mIn, 352), S1y) */\n      mstore\n        /* \"src/Verifier.sol\":9453:9456  S2x */\n      0x6304c95a8100438a1c93d627082acbb136b4e9769ab34887f667f1ae7b6a99\n        /* \"src/Verifier.sol\":9447:9450  384 */\n      0x0180\n        /* \"src/Verifier.sol\":9442:9445  mIn */\n      dup3\n        /* \"src/Verifier.sol\":9438:9451  add(mIn, 384) */\n      add\n        /* \"src/Verifier.sol\":9431:9457  mstore(add(mIn, 384), S2x) */\n      mstore\n        /* \"src/Verifier.sol\":9496:9499  S2y */\n      0x0953a04a4a70e490d204d95535ad4cb26a3b624a9ba2374d22a6e1d1876fa16c\n        /* \"src/Verifier.sol\":9490:9493  416 */\n      0x01a0\n        /* \"src/Verifier.sol\":9485:9488  mIn */\n      dup3\n        /* \"src/Verifier.sol\":9481:9494  add(mIn, 416) */\n      add\n        /* \"src/Verifier.sol\":9474:9500  mstore(add(mIn, 416), S2y) */\n      mstore\n        /* \"src/Verifier.sol\":9539:9542  S3x */\n      0x0bb071cfe5e5f1e18bbcd462d29b5f157c648b683841caf9033d45096d95c9e9\n        /* \"src/Verifier.sol\":9533:9536  448 */\n      0x01c0\n        /* \"src/Verifier.sol\":9528:9531  mIn */\n      dup3\n        /* \"src/Verifier.sol\":9524:9537  add(mIn, 448) */\n      add\n        /* \"src/Verifier.sol\":9517:9543  mstore(add(mIn, 448), S3x) */\n      mstore\n        /* \"src/Verifier.sol\":9582:9585  S3y */\n      0x2ce6b0834b7bba47a0972f70f613d40b2f66ec401161f42bc0cc2ab802048227\n        /* \"src/Verifier.sol\":9576:9579  480 */\n      0x01e0\n        /* \"src/Verifier.sol\":9571:9574  mIn */\n      dup3\n        /* \"src/Verifier.sol\":9567:9580  add(mIn, 480) */\n      add\n        /* \"src/Verifier.sol\":9560:9586  mstore(add(mIn, 480), S3y) */\n      mstore\n        /* \"src/Verifier.sol\":9652:9653  0 */\n      0x00\n        /* \"src/Verifier.sol\":9643:9650  pPublic */\n      dup6\n        /* \"src/Verifier.sol\":9639:9654  add(pPublic, 0) */\n      add\n        /* \"src/Verifier.sol\":9626:9655  calldataload(add(pPublic, 0)) */\n      calldataload\n        /* \"src/Verifier.sol\":9620:9623  512 */\n      0x0200\n        /* \"src/Verifier.sol\":9615:9618  mIn */\n      dup3\n        /* \"src/Verifier.sol\":9611:9624  add(mIn, 512) */\n      add\n        /* \"src/Verifier.sol\":9604:9656  mstore(add(mIn, 512), calldataload(add(pPublic, 0))) */\n      mstore\n        /* \"src/Verifier.sol\":9709:9711  pA */\n      0x04\n        /* \"src/Verifier.sol\":9696:9712  calldataload(pA) */\n      calldataload\n        /* \"src/Verifier.sol\":9690:9693  544 */\n      0x0220\n        /* \"src/Verifier.sol\":9685:9688  mIn */\n      dup3\n        /* \"src/Verifier.sol\":9681:9694  add(mIn, 544) */\n      add\n        /* \"src/Verifier.sol\":9674:9713  mstore(add(mIn, 544), calldataload(pA)) */\n      mstore\n        /* \"src/Verifier.sol\":9773:9775  32 */\n      0x20\n        /* \"src/Verifier.sol\":9769:9771  pA */\n      0x04\n        /* \"src/Verifier.sol\":9765:9776  add(pA, 32) */\n      add\n        /* \"src/Verifier.sol\":9752:9777  calldataload(add(pA, 32)) */\n      calldataload\n        /* \"src/Verifier.sol\":9746:9749  576 */\n      0x0240\n        /* \"src/Verifier.sol\":9741:9744  mIn */\n      dup3\n        /* \"src/Verifier.sol\":9737:9750  add(mIn, 576) */\n      add\n        /* \"src/Verifier.sol\":9730:9778  mstore(add(mIn, 576), calldataload(add(pA, 32))) */\n      mstore\n        /* \"src/Verifier.sol\":9830:9832  pB */\n      0x44\n        /* \"src/Verifier.sol\":9817:9833  calldataload(pB) */\n      calldataload\n        /* \"src/Verifier.sol\":9811:9814  608 */\n      0x0260\n        /* \"src/Verifier.sol\":9806:9809  mIn */\n      dup3\n        /* \"src/Verifier.sol\":9802:9815  add(mIn, 608) */\n      add\n        /* \"src/Verifier.sol\":9795:9834  mstore(add(mIn, 608), calldataload(pB)) */\n      mstore\n        /* \"src/Verifier.sol\":9894:9896  32 */\n      0x20\n        /* \"src/Verifier.sol\":9890:9892  pB */\n      0x44\n        /* \"src/Verifier.sol\":9886:9897  add(pB, 32) */\n      add\n        /* \"src/Verifier.sol\":9873:9898  calldataload(add(pB, 32)) */\n      calldataload\n        /* \"src/Verifier.sol\":9867:9870  640 */\n      0x0280\n        /* \"src/Verifier.sol\":9862:9865  mIn */\n      dup3\n        /* \"src/Verifier.sol\":9858:9871  add(mIn, 640) */\n      add\n        /* \"src/Verifier.sol\":9851:9899  mstore(add(mIn, 640), calldataload(add(pB, 32))) */\n      mstore\n        /* \"src/Verifier.sol\":9951:9953  pC */\n      0x84\n        /* \"src/Verifier.sol\":9938:9954  calldataload(pC) */\n      calldataload\n        /* \"src/Verifier.sol\":9932:9935  672 */\n      0x02a0\n        /* \"src/Verifier.sol\":9927:9930  mIn */\n      dup3\n        /* \"src/Verifier.sol\":9923:9936  add(mIn, 672) */\n      add\n        /* \"src/Verifier.sol\":9916:9955  mstore(add(mIn, 672), calldataload(pC)) */\n      mstore\n        /* \"src/Verifier.sol\":10015:10017  32 */\n      0x20\n        /* \"src/Verifier.sol\":10011:10013  pC */\n      0x84\n        /* \"src/Verifier.sol\":10007:10018  add(pC, 32) */\n      add\n        /* \"src/Verifier.sol\":9994:10019  calldataload(add(pC, 32)) */\n      calldataload\n        /* \"src/Verifier.sol\":9988:9991  704 */\n      0x02c0\n        /* \"src/Verifier.sol\":9983:9986  mIn */\n      dup3\n        /* \"src/Verifier.sol\":9979:9992  add(mIn, 704) */\n      add\n        /* \"src/Verifier.sol\":9972:10020  mstore(add(mIn, 704), calldataload(add(pC, 32))) */\n      mstore\n        /* \"src/Verifier.sol\":10071:10072  q */\n      0x30644e72e131a029b85045b68181585d2833e84879b9709143e1f593f0000001\n        /* \"src/Verifier.sol\":10065:10068  736 */\n      0x02e0\n        /* \"src/Verifier.sol\":10060:10063  mIn */\n      dup3\n        /* \"src/Verifier.sol\":10050:10069  keccak256(mIn, 736) */\n      keccak256\n        /* \"src/Verifier.sol\":10046:10073  mod(keccak256(mIn, 736), q) */\n      mod\n        /* \"src/Verifier.sol\":10038:10073  beta := mod(keccak256(mIn, 736), q) */\n      swap3\n      pop\n        /* \"src/Verifier.sol\":10115:10119  beta */\n      dup3\n        /* \"src/Verifier.sol\":10107:10112  pBeta */\n      0x20\n        /* \"src/Verifier.sol\":10101:10105  pMem */\n      dup6\n        /* \"src/Verifier.sol\":10097:10113  add(pMem, pBeta) */\n      add\n        /* \"src/Verifier.sol\":10090:10120  mstore(add(pMem, pBeta), beta) */\n      mstore\n        /* \"src/Verifier.sol\":10278:10279  q */\n      0x30644e72e131a029b85045b68181585d2833e84879b9709143e1f593f0000001\n        /* \"src/Verifier.sol\":10273:10275  32 */\n      0x20\n        /* \"src/Verifier.sol\":10265:10270  pBeta */\n      dup1\n        /* \"src/Verifier.sol\":10259:10263  pMem */\n      dup7\n        /* \"src/Verifier.sol\":10255:10271  add(pMem, pBeta) */\n      add\n        /* \"src/Verifier.sol\":10245:10276  keccak256(add(pMem, pBeta), 32) */\n      keccak256\n        /* \"src/Verifier.sol\":10241:10280  mod(keccak256(add(pMem, pBeta), 32), q) */\n      mod\n        /* \"src/Verifier.sol\":10212:10218  pGamma */\n      0x40\n        /* \"src/Verifier.sol\":10206:10210  pMem */\n      dup6\n        /* \"src/Verifier.sol\":10202:10219  add(pMem, pGamma) */\n      add\n        /* \"src/Verifier.sol\":10174:10298  mstore(... */\n      mstore\n        /* \"src/Verifier.sol\":10380:10385  pBeta */\n      0x20\n        /* \"src/Verifier.sol\":10374:10378  pMem */\n      dup5\n        /* \"src/Verifier.sol\":10370:10386  add(pMem, pBeta) */\n      add\n        /* \"src/Verifier.sol\":10364:10387  mload(add(pMem, pBeta)) */\n      mload\n        /* \"src/Verifier.sol\":10359:10362  mIn */\n      dup2\n        /* \"src/Verifier.sol\":10352:10388  mstore(mIn, mload(add(pMem, pBeta))) */\n      mstore\n        /* \"src/Verifier.sol\":10442:10448  pGamma */\n      0x40\n        /* \"src/Verifier.sol\":10436:10440  pMem */\n      dup5\n        /* \"src/Verifier.sol\":10432:10449  add(pMem, pGamma) */\n      add\n        /* \"src/Verifier.sol\":10426:10450  mload(add(pMem, pGamma)) */\n      mload\n        /* \"src/Verifier.sol\":10421:10423  32 */\n      0x20\n        /* \"src/Verifier.sol\":10416:10419  mIn */\n      dup3\n        /* \"src/Verifier.sol\":10412:10424  add(mIn, 32) */\n      add\n        /* \"src/Verifier.sol\":10405:10451  mstore(add(mIn, 32), mload(add(pMem, pGamma))) */\n      mstore\n        /* \"src/Verifier.sol\":10502:10504  pZ */\n      0xc4\n        /* \"src/Verifier.sol\":10489:10505  calldataload(pZ) */\n      calldataload\n        /* \"src/Verifier.sol\":10484:10486  64 */\n      0x40\n        /* \"src/Verifier.sol\":10479:10482  mIn */\n      dup3\n        /* \"src/Verifier.sol\":10475:10487  add(mIn, 64) */\n      add\n        /* \"src/Verifier.sol\":10468:10506  mstore(add(mIn, 64), calldataload(pZ)) */\n      mstore\n        /* \"src/Verifier.sol\":10565:10567  32 */\n      0x20\n        /* \"src/Verifier.sol\":10561:10563  pZ */\n      0xc4\n        /* \"src/Verifier.sol\":10557:10568  add(pZ, 32) */\n      add\n        /* \"src/Verifier.sol\":10544:10569  calldataload(add(pZ, 32)) */\n      calldataload\n        /* \"src/Verifier.sol\":10539:10541  96 */\n      0x60\n        /* \"src/Verifier.sol\":10534:10537  mIn */\n      dup3\n        /* \"src/Verifier.sol\":10530:10542  add(mIn, 96) */\n      add\n        /* \"src/Verifier.sol\":10523:10570  mstore(add(mIn, 96), calldataload(add(pZ, 32))) */\n      mstore\n        /* \"src/Verifier.sol\":10620:10621  q */\n      0x30644e72e131a029b85045b68181585d2833e84879b9709143e1f593f0000001\n        /* \"src/Verifier.sol\":10614:10617  128 */\n      0x80\n        /* \"src/Verifier.sol\":10609:10612  mIn */\n      dup3\n        /* \"src/Verifier.sol\":10599:10618  keccak256(mIn, 128) */\n      keccak256\n        /* \"src/Verifier.sol\":10595:10622  mod(keccak256(mIn, 128), q) */\n      mod\n        /* \"src/Verifier.sol\":10588:10622  aux := mod(keccak256(mIn, 128), q) */\n      swap2\n      pop\n        /* \"src/Verifier.sol\":10665:10668  aux */\n      dup2\n        /* \"src/Verifier.sol\":10656:10662  pAlpha */\n      0x00\n        /* \"src/Verifier.sol\":10650:10654  pMem */\n      dup6\n        /* \"src/Verifier.sol\":10646:10663  add(pMem, pAlpha) */\n      add\n        /* \"src/Verifier.sol\":10639:10669  mstore(add(pMem, pAlpha), aux) */\n      mstore\n        /* \"src/Verifier.sol\":10730:10731  q */\n      0x30644e72e131a029b85045b68181585d2833e84879b9709143e1f593f0000001\n        /* \"src/Verifier.sol\":10725:10728  aux */\n      dup3\n        /* \"src/Verifier.sol\":10720:10723  aux */\n      dup4\n        /* \"src/Verifier.sol\":10713:10732  mulmod(aux, aux, q) */\n      mulmod\n        /* \"src/Verifier.sol\":10703:10710  pAlpha2 */\n      0x02c0\n        /* \"src/Verifier.sol\":10697:10701  pMem */\n      dup6\n        /* \"src/Verifier.sol\":10693:10711  add(pMem, pAlpha2) */\n      add\n        /* \"src/Verifier.sol\":10686:10733  mstore(add(pMem, pAlpha2), mulmod(aux, aux, q)) */\n      mstore\n        /* \"src/Verifier.sol\":10796:10799  aux */\n      dup2\n        /* \"src/Verifier.sol\":10791:10794  mIn */\n      dup2\n        /* \"src/Verifier.sol\":10784:10800  mstore(mIn, aux) */\n      mstore\n        /* \"src/Verifier.sol\":10851:10854  pT1 */\n      0x0104\n        /* \"src/Verifier.sol\":10838:10855  calldataload(pT1) */\n      calldataload\n        /* \"src/Verifier.sol\":10833:10835  32 */\n      0x20\n        /* \"src/Verifier.sol\":10828:10831  mIn */\n      dup3\n        /* \"src/Verifier.sol\":10824:10836  add(mIn, 32) */\n      add\n        /* \"src/Verifier.sol\":10817:10856  mstore(add(mIn, 32), calldataload(pT1)) */\n      mstore\n        /* \"src/Verifier.sol\":10916:10918  32 */\n      0x20\n        /* \"src/Verifier.sol\":10911:10914  pT1 */\n      0x0104\n        /* \"src/Verifier.sol\":10907:10919  add(pT1, 32) */\n      add\n        /* \"src/Verifier.sol\":10894:10920  calldataload(add(pT1, 32)) */\n      calldataload\n        /* \"src/Verifier.sol\":10889:10891  64 */\n      0x40\n        /* \"src/Verifier.sol\":10884:10887  mIn */\n      dup3\n        /* \"src/Verifier.sol\":10880:10892  add(mIn, 64) */\n      add\n        /* \"src/Verifier.sol\":10873:10921  mstore(add(mIn, 64), calldataload(add(pT1, 32))) */\n      mstore\n        /* \"src/Verifier.sol\":10972:10975  pT2 */\n      0x0144\n        /* \"src/Verifier.sol\":10959:10976  calldataload(pT2) */\n      calldataload\n        /* \"src/Verifier.sol\":10954:10956  96 */\n      0x60\n        /* \"src/Verifier.sol\":10949:10952  mIn */\n      dup3\n        /* \"src/Verifier.sol\":10945:10957  add(mIn, 96) */\n      add\n        /* \"src/Verifier.sol\":10938:10977  mstore(add(mIn, 96), calldataload(pT2)) */\n      mstore\n        /* \"src/Verifier.sol\":11038:11040  32 */\n      0x20\n        /* \"src/Verifier.sol\":11033:11036  pT2 */\n      0x0144\n        /* \"src/Verifier.sol\":11029:11041  add(pT2, 32) */\n      add\n        /* \"src/Verifier.sol\":11016:11042  calldataload(add(pT2, 32)) */\n      calldataload\n        /* \"src/Verifier.sol\":11010:11013  128 */\n      0x80\n        /* \"src/Verifier.sol\":11005:11008  mIn */\n      dup3\n        /* \"src/Verifier.sol\":11001:11014  add(mIn, 128) */\n      add\n        /* \"src/Verifier.sol\":10994:11043  mstore(add(mIn, 128), calldataload(add(pT2, 32))) */\n      mstore\n        /* \"src/Verifier.sol\":11095:11098  pT3 */\n      0x0184\n        /* \"src/Verifier.sol\":11082:11099  calldataload(pT3) */\n      calldataload\n        /* \"src/Verifier.sol\":11076:11079  160 */\n      0xa0\n        /* \"src/Verifier.sol\":11071:11074  mIn */\n      dup3\n        /* \"src/Verifier.sol\":11067:11080  add(mIn, 160) */\n      add\n        /* \"src/Verifier.sol\":11060:11100  mstore(add(mIn, 160), calldataload(pT3)) */\n      mstore\n        /* \"src/Verifier.sol\":11161:11163  32 */\n      0x20\n        /* \"src/Verifier.sol\":11156:11159  pT3 */\n      0x0184\n        /* \"src/Verifier.sol\":11152:11164  add(pT3, 32) */\n      add\n        /* \"src/Verifier.sol\":11139:11165  calldataload(add(pT3, 32)) */\n      calldataload\n        /* \"src/Verifier.sol\":11133:11136  192 */\n      0xc0\n        /* \"src/Verifier.sol\":11128:11131  mIn */\n      dup3\n        /* \"src/Verifier.sol\":11124:11137  add(mIn, 192) */\n      add\n        /* \"src/Verifier.sol\":11117:11166  mstore(add(mIn, 192), calldataload(add(pT3, 32))) */\n      mstore\n        /* \"src/Verifier.sol\":11216:11217  q */\n      0x30644e72e131a029b85045b68181585d2833e84879b9709143e1f593f0000001\n        /* \"src/Verifier.sol\":11210:11213  224 */\n      0xe0\n        /* \"src/Verifier.sol\":11205:11208  mIn */\n      dup3\n        /* \"src/Verifier.sol\":11195:11214  keccak256(mIn, 224) */\n      keccak256\n        /* \"src/Verifier.sol\":11191:11218  mod(keccak256(mIn, 224), q) */\n      mod\n        /* \"src/Verifier.sol\":11184:11218  aux := mod(keccak256(mIn, 224), q) */\n      swap2\n      pop\n        /* \"src/Verifier.sol\":11258:11261  aux */\n      dup2\n        /* \"src/Verifier.sol\":11252:11255  pXi */\n      0x60\n        /* \"src/Verifier.sol\":11246:11250  pMem */\n      dup6\n        /* \"src/Verifier.sol\":11242:11256  add(pMem, pXi) */\n      add\n        /* \"src/Verifier.sol\":11235:11262  mstore(add(pMem, pXi), aux) */\n      mstore\n        /* \"src/Verifier.sol\":11324:11327  aux */\n      dup2\n        /* \"src/Verifier.sol\":11319:11322  mIn */\n      dup2\n        /* \"src/Verifier.sol\":11312:11328  mstore(mIn, aux) */\n      mstore\n        /* \"src/Verifier.sol\":11379:11386  pEval_a */\n      0x0244\n        /* \"src/Verifier.sol\":11366:11387  calldataload(pEval_a) */\n      calldataload\n        /* \"src/Verifier.sol\":11361:11363  32 */\n      0x20\n        /* \"src/Verifier.sol\":11356:11359  mIn */\n      dup3\n        /* \"src/Verifier.sol\":11352:11364  add(mIn, 32) */\n      add\n        /* \"src/Verifier.sol\":11345:11388  mstore(add(mIn, 32), calldataload(pEval_a)) */\n      mstore\n        /* \"src/Verifier.sol\":11439:11446  pEval_b */\n      0x0264\n        /* \"src/Verifier.sol\":11426:11447  calldataload(pEval_b) */\n      calldataload\n        /* \"src/Verifier.sol\":11421:11423  64 */\n      0x40\n        /* \"src/Verifier.sol\":11416:11419  mIn */\n      dup3\n        /* \"src/Verifier.sol\":11412:11424  add(mIn, 64) */\n      add\n        /* \"src/Verifier.sol\":11405:11448  mstore(add(mIn, 64), calldataload(pEval_b)) */\n      mstore\n        /* \"src/Verifier.sol\":11499:11506  pEval_c */\n      0x0284\n        /* \"src/Verifier.sol\":11486:11507  calldataload(pEval_c) */\n      calldataload\n        /* \"src/Verifier.sol\":11481:11483  96 */\n      0x60\n        /* \"src/Verifier.sol\":11476:11479  mIn */\n      dup3\n        /* \"src/Verifier.sol\":11472:11484  add(mIn, 96) */\n      add\n        /* \"src/Verifier.sol\":11465:11508  mstore(add(mIn, 96), calldataload(pEval_c)) */\n      mstore\n        /* \"src/Verifier.sol\":11560:11568  pEval_s1 */\n      0x02a4\n        /* \"src/Verifier.sol\":11547:11569  calldataload(pEval_s1) */\n      calldataload\n        /* \"src/Verifier.sol\":11541:11544  128 */\n      0x80\n        /* \"src/Verifier.sol\":11536:11539  mIn */\n      dup3\n        /* \"src/Verifier.sol\":11532:11545  add(mIn, 128) */\n      add\n        /* \"src/Verifier.sol\":11525:11570  mstore(add(mIn, 128), calldataload(pEval_s1)) */\n      mstore\n        /* \"src/Verifier.sol\":11622:11630  pEval_s2 */\n      0x02c4\n        /* \"src/Verifier.sol\":11609:11631  calldataload(pEval_s2) */\n      calldataload\n        /* \"src/Verifier.sol\":11603:11606  160 */\n      0xa0\n        /* \"src/Verifier.sol\":11598:11601  mIn */\n      dup3\n        /* \"src/Verifier.sol\":11594:11607  add(mIn, 160) */\n      add\n        /* \"src/Verifier.sol\":11587:11632  mstore(add(mIn, 160), calldataload(pEval_s2)) */\n      mstore\n        /* \"src/Verifier.sol\":11684:11692  pEval_zw */\n      0x02e4\n        /* \"src/Verifier.sol\":11671:11693  calldataload(pEval_zw) */\n      calldataload\n        /* \"src/Verifier.sol\":11665:11668  192 */\n      0xc0\n        /* \"src/Verifier.sol\":11660:11663  mIn */\n      dup3\n        /* \"src/Verifier.sol\":11656:11669  add(mIn, 192) */\n      add\n        /* \"src/Verifier.sol\":11649:11694  mstore(add(mIn, 192), calldataload(pEval_zw)) */\n      mstore\n        /* \"src/Verifier.sol\":11747:11748  q */\n      0x30644e72e131a029b85045b68181585d2833e84879b9709143e1f593f0000001\n        /* \"src/Verifier.sol\":11741:11744  224 */\n      0xe0\n        /* \"src/Verifier.sol\":11736:11739  mIn */\n      dup3\n        /* \"src/Verifier.sol\":11726:11745  keccak256(mIn, 224) */\n      keccak256\n        /* \"src/Verifier.sol\":11722:11749  mod(keccak256(mIn, 224), q) */\n      mod\n        /* \"src/Verifier.sol\":11789:11791  v1 */\n      dup1\n        /* \"src/Verifier.sol\":11783:11786  pV1 */\n      0xc0\n        /* \"src/Verifier.sol\":11777:11781  pMem */\n      dup7\n        /* \"src/Verifier.sol\":11773:11787  add(pMem, pV1) */\n      add\n        /* \"src/Verifier.sol\":11766:11792  mstore(add(pMem, pV1), v1) */\n      mstore\n        /* \"src/Verifier.sol\":11906:11907  q */\n      0x30644e72e131a029b85045b68181585d2833e84879b9709143e1f593f0000001\n        /* \"src/Verifier.sol\":11901:11904  aux */\n      dup4\n        /* \"src/Verifier.sol\":11895:11899  beta */\n      dup6\n        /* \"src/Verifier.sol\":11888:11908  mulmod(beta, aux, q) */\n      mulmod\n        /* \"src/Verifier.sol\":11878:11885  pBetaXi */\n      0xa0\n        /* \"src/Verifier.sol\":11872:11876  pMem */\n      dup7\n        /* \"src/Verifier.sol\":11868:11886  add(pMem, pBetaXi) */\n      add\n        /* \"src/Verifier.sol\":11861:11909  mstore(add(pMem, pBetaXi), mulmod(beta, aux, q)) */\n      mstore\n        /* \"src/Verifier.sol\":11987:11988  q */\n      0x30644e72e131a029b85045b68181585d2833e84879b9709143e1f593f0000001\n        /* \"src/Verifier.sol\":11982:11985  aux */\n      dup4\n        /* \"src/Verifier.sol\":11977:11980  aux */\n      dup5\n        /* \"src/Verifier.sol\":11970:11989  mulmod(aux, aux, q) */\n      mulmod\n        /* \"src/Verifier.sol\":11963:11989  aux := mulmod(aux, aux, q) */\n      swap3\n      pop\n        /* \"src/Verifier.sol\":12031:12032  q */\n      0x30644e72e131a029b85045b68181585d2833e84879b9709143e1f593f0000001\n        /* \"src/Verifier.sol\":12026:12029  aux */\n      dup4\n        /* \"src/Verifier.sol\":12021:12024  aux */\n      dup5\n        /* \"src/Verifier.sol\":12014:12033  mulmod(aux, aux, q) */\n      mulmod\n        /* \"src/Verifier.sol\":12007:12033  aux := mulmod(aux, aux, q) */\n      swap3\n      pop\n        /* \"src/Verifier.sol\":12075:12076  q */\n      0x30644e72e131a029b85045b68181585d2833e84879b9709143e1f593f0000001\n        /* \"src/Verifier.sol\":12070:12073  aux */\n      dup4\n        /* \"src/Verifier.sol\":12065:12068  aux */\n      dup5\n        /* \"src/Verifier.sol\":12058:12077  mulmod(aux, aux, q) */\n      mulmod\n        /* \"src/Verifier.sol\":12051:12077  aux := mulmod(aux, aux, q) */\n      swap3\n      pop\n        /* \"src/Verifier.sol\":12119:12122  aux */\n      dup3\n        /* \"src/Verifier.sol\":12112:12116  pXin */\n      0x80\n        /* \"src/Verifier.sol\":12106:12110  pMem */\n      dup7\n        /* \"src/Verifier.sol\":12102:12117  add(pMem, pXin) */\n      add\n        /* \"src/Verifier.sol\":12095:12123  mstore(add(pMem, pXin), aux) */\n      mstore\n        /* \"src/Verifier.sol\":12195:12196  q */\n      0x30644e72e131a029b85045b68181585d2833e84879b9709143e1f593f0000001\n        /* \"src/Verifier.sol\":12191:12192  q */\n      dup1\n        /* \"src/Verifier.sol\":12187:12188  1 */\n      0x01\n        /* \"src/Verifier.sol\":12182:12185  aux */\n      dup6\n        /* \"src/Verifier.sol\":12178:12189  sub(aux, 1) */\n      sub\n        /* \"src/Verifier.sol\":12174:12193  add(sub(aux, 1), q) */\n      add\n        /* \"src/Verifier.sol\":12170:12197  mod(add(sub(aux, 1), q), q) */\n      mod\n        /* \"src/Verifier.sol\":12163:12197  aux := mod(add(sub(aux, 1), q), q) */\n      swap3\n      pop\n        /* \"src/Verifier.sol\":12237:12240  aux */\n      dup3\n        /* \"src/Verifier.sol\":12231:12234  pZh */\n      0x02e0\n        /* \"src/Verifier.sol\":12225:12229  pMem */\n      dup7\n        /* \"src/Verifier.sol\":12221:12235  add(pMem, pZh) */\n      add\n        /* \"src/Verifier.sol\":12214:12241  mstore(add(pMem, pZh), aux) */\n      mstore\n        /* \"src/Verifier.sol\":12284:12287  aux */\n      dup3\n        /* \"src/Verifier.sol\":12275:12281  pZhInv */\n      0x0300\n        /* \"src/Verifier.sol\":12269:12273  pMem */\n      dup7\n        /* \"src/Verifier.sol\":12265:12282  add(pMem, pZhInv) */\n      add\n        /* \"src/Verifier.sol\":12258:12288  mstore(add(pMem, pZhInv), aux) */\n      mstore\n        /* \"src/Verifier.sol\":12462:12463  q */\n      0x30644e72e131a029b85045b68181585d2833e84879b9709143e1f593f0000001\n        /* \"src/Verifier.sol\":12458:12460  v1 */\n      dup2\n        /* \"src/Verifier.sol\":12454:12456  v1 */\n      dup3\n        /* \"src/Verifier.sol\":12447:12464  mulmod(v1, v1, q) */\n      mulmod\n        /* \"src/Verifier.sol\":12440:12464  aux := mulmod(v1, v1, q) */\n      swap3\n      pop\n        /* \"src/Verifier.sol\":12504:12507  aux */\n      dup3\n        /* \"src/Verifier.sol\":12498:12501  pV2 */\n      0xe0\n        /* \"src/Verifier.sol\":12492:12496  pMem */\n      dup7\n        /* \"src/Verifier.sol\":12488:12502  add(pMem, pV2) */\n      add\n        /* \"src/Verifier.sol\":12481:12508  mstore(add(pMem, pV2), aux) */\n      mstore\n        /* \"src/Verifier.sol\":12548:12549  q */\n      0x30644e72e131a029b85045b68181585d2833e84879b9709143e1f593f0000001\n        /* \"src/Verifier.sol\":12544:12546  v1 */\n      dup2\n        /* \"src/Verifier.sol\":12539:12542  aux */\n      dup5\n        /* \"src/Verifier.sol\":12532:12550  mulmod(aux, v1, q) */\n      mulmod\n        /* \"src/Verifier.sol\":12525:12550  aux := mulmod(aux, v1, q) */\n      swap3\n      pop\n        /* \"src/Verifier.sol\":12590:12593  aux */\n      dup3\n        /* \"src/Verifier.sol\":12584:12587  pV3 */\n      0x0100\n        /* \"src/Verifier.sol\":12578:12582  pMem */\n      dup7\n        /* \"src/Verifier.sol\":12574:12588  add(pMem, pV3) */\n      add\n        /* \"src/Verifier.sol\":12567:12594  mstore(add(pMem, pV3), aux) */\n      mstore\n        /* \"src/Verifier.sol\":12634:12635  q */\n      0x30644e72e131a029b85045b68181585d2833e84879b9709143e1f593f0000001\n        /* \"src/Verifier.sol\":12630:12632  v1 */\n      dup2\n        /* \"src/Verifier.sol\":12625:12628  aux */\n      dup5\n        /* \"src/Verifier.sol\":12618:12636  mulmod(aux, v1, q) */\n      mulmod\n        /* \"src/Verifier.sol\":12611:12636  aux := mulmod(aux, v1, q) */\n      swap3\n      pop\n        /* \"src/Verifier.sol\":12676:12679  aux */\n      dup3\n        /* \"src/Verifier.sol\":12670:12673  pV4 */\n      0x0120\n        /* \"src/Verifier.sol\":12664:12668  pMem */\n      dup7\n        /* \"src/Verifier.sol\":12660:12674  add(pMem, pV4) */\n      add\n        /* \"src/Verifier.sol\":12653:12680  mstore(add(pMem, pV4), aux) */\n      mstore\n        /* \"src/Verifier.sol\":12720:12721  q */\n      0x30644e72e131a029b85045b68181585d2833e84879b9709143e1f593f0000001\n        /* \"src/Verifier.sol\":12716:12718  v1 */\n      dup2\n        /* \"src/Verifier.sol\":12711:12714  aux */\n      dup5\n        /* \"src/Verifier.sol\":12704:12722  mulmod(aux, v1, q) */\n      mulmod\n        /* \"src/Verifier.sol\":12697:12722  aux := mulmod(aux, v1, q) */\n      swap3\n      pop\n        /* \"src/Verifier.sol\":12762:12765  aux */\n      dup3\n        /* \"src/Verifier.sol\":12756:12759  pV5 */\n      0x0140\n        /* \"src/Verifier.sol\":12750:12754  pMem */\n      dup7\n        /* \"src/Verifier.sol\":12746:12760  add(pMem, pV5) */\n      add\n        /* \"src/Verifier.sol\":12739:12766  mstore(add(pMem, pV5), aux) */\n      mstore\n        /* \"src/Verifier.sol\":12841:12845  pWxi */\n      0x01c4\n        /* \"src/Verifier.sol\":12828:12846  calldataload(pWxi) */\n      calldataload\n        /* \"src/Verifier.sol\":12823:12826  mIn */\n      dup3\n        /* \"src/Verifier.sol\":12816:12847  mstore(mIn, calldataload(pWxi)) */\n      mstore\n        /* \"src/Verifier.sol\":12908:12910  32 */\n      0x20\n        /* \"src/Verifier.sol\":12902:12906  pWxi */\n      0x01c4\n        /* \"src/Verifier.sol\":12898:12911  add(pWxi, 32) */\n      add\n        /* \"src/Verifier.sol\":12885:12912  calldataload(add(pWxi, 32)) */\n      calldataload\n        /* \"src/Verifier.sol\":12880:12882  32 */\n      0x20\n        /* \"src/Verifier.sol\":12875:12878  mIn */\n      dup4\n        /* \"src/Verifier.sol\":12871:12883  add(mIn, 32) */\n      add\n        /* \"src/Verifier.sol\":12864:12913  mstore(add(mIn, 32), calldataload(add(pWxi, 32))) */\n      mstore\n        /* \"src/Verifier.sol\":12964:12969  pWxiw */\n      0x0204\n        /* \"src/Verifier.sol\":12951:12970  calldataload(pWxiw) */\n      calldataload\n        /* \"src/Verifier.sol\":12946:12948  64 */\n      0x40\n        /* \"src/Verifier.sol\":12941:12944  mIn */\n      dup4\n        /* \"src/Verifier.sol\":12937:12949  add(mIn, 64) */\n      add\n        /* \"src/Verifier.sol\":12930:12971  mstore(add(mIn, 64), calldataload(pWxiw)) */\n      mstore\n        /* \"src/Verifier.sol\":13033:13035  32 */\n      0x20\n        /* \"src/Verifier.sol\":13026:13031  pWxiw */\n      0x0204\n        /* \"src/Verifier.sol\":13022:13036  add(pWxiw, 32) */\n      add\n        /* \"src/Verifier.sol\":13009:13037  calldataload(add(pWxiw, 32)) */\n      calldataload\n        /* \"src/Verifier.sol\":13004:13006  96 */\n      0x60\n        /* \"src/Verifier.sol\":12999:13002  mIn */\n      dup4\n        /* \"src/Verifier.sol\":12995:13007  add(mIn, 96) */\n      add\n        /* \"src/Verifier.sol\":12988:13038  mstore(add(mIn, 96), calldataload(add(pWxiw, 32))) */\n      mstore\n        /* \"src/Verifier.sol\":13103:13104  q */\n      0x30644e72e131a029b85045b68181585d2833e84879b9709143e1f593f0000001\n        /* \"src/Verifier.sol\":13097:13100  128 */\n      0x80\n        /* \"src/Verifier.sol\":13092:13095  mIn */\n      dup4\n        /* \"src/Verifier.sol\":13082:13101  keccak256(mIn, 128) */\n      keccak256\n        /* \"src/Verifier.sol\":13078:13105  mod(keccak256(mIn, 128), q) */\n      mod\n        /* \"src/Verifier.sol\":13073:13075  pU */\n      0x0160\n        /* \"src/Verifier.sol\":13067:13071  pMem */\n      dup7\n        /* \"src/Verifier.sol\":13063:13076  add(pMem, pU) */\n      add\n        /* \"src/Verifier.sol\":13056:13106  mstore(add(pMem, pU), mod(keccak256(mIn, 128), q)) */\n      mstore\n        /* \"src/Verifier.sol\":8716:13120  {... */\n      pop\n      pop\n      pop\n      pop\n        /* \"src/Verifier.sol\":8672:13120  function calculateChallenges(pMem, pPublic) {... */\n      pop\n      pop\n      jump\t// out\n        /* \"src/Verifier.sol\":13134:13643  function calculateLagrange(pMem) {... */\n    tag_16:\n        /* \"src/Verifier.sol\":13194:13195  1 */\n      0x01\n        /* \"src/Verifier.sol\":13339:13340  q */\n      0x30644e72e131a029b85045b68181585d2833e84879b9709143e1f593f0000001\n        /* \"src/Verifier.sol\":13335:13336  q */\n      dup1\n        /* \"src/Verifier.sol\":13331:13332  q */\n      0x30644e72e131a029b85045b68181585d2833e84879b9709143e1f593f0000001\n        /* \"src/Verifier.sol\":13327:13328  w */\n      dup4\n        /* \"src/Verifier.sol\":13320:13323  pXi */\n      0x60\n        /* \"src/Verifier.sol\":13314:13318  pMem */\n      dup7\n        /* \"src/Verifier.sol\":13310:13324  add(pMem, pXi) */\n      add\n        /* \"src/Verifier.sol\":13304:13325  mload(add(pMem, pXi)) */\n      mload\n        /* \"src/Verifier.sol\":13300:13329  sub(mload(add(pMem, pXi)), w) */\n      sub\n        /* \"src/Verifier.sol\":13296:13333  add(sub(mload(add(pMem, pXi)), w), q) */\n      add\n        /* \"src/Verifier.sol\":13292:13337  mod(add(sub(mload(add(pMem, pXi)), w), q), q) */\n      mod\n        /* \"src/Verifier.sol\":13289:13290  n */\n      0x08\n        /* \"src/Verifier.sol\":13282:13341  mulmod(n, mod(add(sub(mload(add(pMem, pXi)), w), q), q), q) */\n      mulmod\n        /* \"src/Verifier.sol\":13251:13259  pEval_l1 */\n      0x0320\n        /* \"src/Verifier.sol\":13245:13249  pMem */\n      dup4\n        /* \"src/Verifier.sol\":13241:13260  add(pMem, pEval_l1) */\n      add\n        /* \"src/Verifier.sol\":13213:13359  mstore(... */\n      mstore\n        /* \"src/Verifier.sol\":13377:13411  inverseArray(add(pMem, pZhInv), 2) */\n      tag_57\n        /* \"src/Verifier.sol\":13409:13410  2 */\n      0x02\n        /* \"src/Verifier.sol\":13400:13406  pZhInv */\n      0x0300\n        /* \"src/Verifier.sol\":13394:13398  pMem */\n      dup5\n        /* \"src/Verifier.sol\":13390:13407  add(pMem, pZhInv) */\n      add\n        /* \"src/Verifier.sol\":13377:13411  inverseArray(add(pMem, pZhInv), 2) */\n      tag_12\n      jump\t// in\n    tag_57:\n        /* \"src/Verifier.sol\":13455:13458  pZh */\n      0x02e0\n        /* \"src/Verifier.sol\":13449:13453  pMem */\n      dup3\n        /* \"src/Verifier.sol\":13445:13459  add(pMem, pZh) */\n      add\n        /* \"src/Verifier.sol\":13439:13460  mload(add(pMem, pZh)) */\n      mload\n        /* \"src/Verifier.sol\":13482:13483  1 */\n      0x01\n        /* \"src/Verifier.sol\":13477:13483  w := 1 */\n      swap2\n      pop\n        /* \"src/Verifier.sol\":13609:13610  q */\n      0x30644e72e131a029b85045b68181585d2833e84879b9709143e1f593f0000001\n        /* \"src/Verifier.sol\":13605:13607  zh */\n      dup2\n        /* \"src/Verifier.sol\":13593:13601  pEval_l1 */\n      0x0320\n        /* \"src/Verifier.sol\":13587:13591  pMem */\n      dup6\n        /* \"src/Verifier.sol\":13583:13602  add(pMem, pEval_l1) */\n      add\n        /* \"src/Verifier.sol\":13577:13603  mload(add(pMem, pEval_l1)) */\n      mload\n        /* \"src/Verifier.sol\":13570:13611  mulmod(mload(add(pMem, pEval_l1)), zh, q) */\n      mulmod\n        /* \"src/Verifier.sol\":13539:13547  pEval_l1 */\n      0x0320\n        /* \"src/Verifier.sol\":13533:13537  pMem */\n      dup5\n        /* \"src/Verifier.sol\":13529:13548  add(pMem, pEval_l1) */\n      add\n        /* \"src/Verifier.sol\":13501:13629  mstore(... */\n      mstore\n        /* \"src/Verifier.sol\":13167:13643  {... */\n      pop\n      pop\n        /* \"src/Verifier.sol\":13134:13643  function calculateLagrange(pMem) {... */\n      pop\n      jump\t// out\n        /* \"src/Verifier.sol\":13657:14227  function calculatePI(pMem, pPub) {... */\n    tag_17:\n        /* \"src/Verifier.sol\":13718:13719  0 */\n      0x00\n        /* \"src/Verifier.sol\":14150:14151  q */\n      0x30644e72e131a029b85045b68181585d2833e84879b9709143e1f593f0000001\n        /* \"src/Verifier.sol\":14105:14106  q */\n      dup1\n        /* \"src/Verifier.sol\":14022:14023  q */\n      0x30644e72e131a029b85045b68181585d2833e84879b9709143e1f593f0000001\n        /* \"src/Verifier.sol\":13985:13986  0 */\n      0x00\n        /* \"src/Verifier.sol\":13979:13983  pPub */\n      dup7\n        /* \"src/Verifier.sol\":13975:13987  add(pPub, 0) */\n      add\n        /* \"src/Verifier.sol\":13962:13988  calldataload(add(pPub, 0)) */\n      calldataload\n        /* \"src/Verifier.sol\":13918:13926  pEval_l1 */\n      0x0320\n        /* \"src/Verifier.sol\":13912:13916  pMem */\n      dup7\n        /* \"src/Verifier.sol\":13908:13927  add(pMem, pEval_l1) */\n      add\n        /* \"src/Verifier.sol\":13902:13928  mload(add(pMem, pEval_l1)) */\n      mload\n        /* \"src/Verifier.sol\":13862:14053  mulmod(... */\n      mulmod\n        /* \"src/Verifier.sol\":13830:13832  pl */\n      dup4\n        /* \"src/Verifier.sol\":13797:14079  sub(... */\n      sub\n        /* \"src/Verifier.sol\":13768:14128  add(... */\n      add\n        /* \"src/Verifier.sol\":13743:14169  mod(... */\n      mod\n        /* \"src/Verifier.sol\":13737:14169  pl := mod(... */\n      swap1\n      pop\n        /* \"src/Verifier.sol\":14210:14212  pl */\n      dup1\n        /* \"src/Verifier.sol\":14204:14207  pPI */\n      0x0180\n        /* \"src/Verifier.sol\":14198:14202  pMem */\n      dup4\n        /* \"src/Verifier.sol\":14194:14208  add(pMem, pPI) */\n      add\n        /* \"src/Verifier.sol\":14187:14213  mstore(add(pMem, pPI), pl) */\n      mstore\n        /* \"src/Verifier.sol\":13690:14227  {... */\n      pop\n        /* \"src/Verifier.sol\":13657:14227  function calculatePI(pMem, pPub) {... */\n      pop\n      pop\n      jump\t// out\n        /* \"src/Verifier.sol\":14241:15543  function calculateR0(pMem) {... */\n    tag_18:\n        /* \"src/Verifier.sol\":14312:14315  pPI */\n      0x0180\n        /* \"src/Verifier.sol\":14306:14310  pMem */\n      dup2\n        /* \"src/Verifier.sol\":14302:14316  add(pMem, pPI) */\n      add\n        /* \"src/Verifier.sol\":14296:14317  mload(add(pMem, pPI)) */\n      mload\n        /* \"src/Verifier.sol\":14468:14469  q */\n      0x30644e72e131a029b85045b68181585d2833e84879b9709143e1f593f0000001\n        /* \"src/Verifier.sol\":14437:14444  pAlpha2 */\n      0x02c0\n        /* \"src/Verifier.sol\":14431:14435  pMem */\n      dup4\n        /* \"src/Verifier.sol\":14427:14445  add(pMem, pAlpha2) */\n      add\n        /* \"src/Verifier.sol\":14421:14446  mload(add(pMem, pAlpha2)) */\n      mload\n        /* \"src/Verifier.sol\":14389:14397  pEval_l1 */\n      0x0320\n        /* \"src/Verifier.sol\":14383:14387  pMem */\n      dup5\n        /* \"src/Verifier.sol\":14379:14398  add(pMem, pEval_l1) */\n      add\n        /* \"src/Verifier.sol\":14373:14399  mload(add(pMem, pEval_l1)) */\n      mload\n        /* \"src/Verifier.sol\":14345:14487  mulmod(... */\n      mulmod\n        /* \"src/Verifier.sol\":14667:14668  q */\n      0x30644e72e131a029b85045b68181585d2833e84879b9709143e1f593f0000001\n        /* \"src/Verifier.sol\":14643:14644  q */\n      dup1\n        /* \"src/Verifier.sol\":14632:14640  pEval_s1 */\n      0x02a4\n        /* \"src/Verifier.sol\":14619:14641  calldataload(pEval_s1) */\n      calldataload\n        /* \"src/Verifier.sol\":14610:14615  pBeta */\n      0x20\n        /* \"src/Verifier.sol\":14604:14608  pMem */\n      dup7\n        /* \"src/Verifier.sol\":14600:14616  add(pMem, pBeta) */\n      add\n        /* \"src/Verifier.sol\":14594:14617  mload(add(pMem, pBeta)) */\n      mload\n        /* \"src/Verifier.sol\":14587:14645  mulmod(mload(add(pMem, pBeta)), calldataload(pEval_s1), q) */\n      mulmod\n        /* \"src/Verifier.sol\":14557:14564  pEval_a */\n      0x0244\n        /* \"src/Verifier.sol\":14544:14565  calldataload(pEval_a) */\n      calldataload\n        /* \"src/Verifier.sol\":14516:14686  addmod(... */\n      addmod\n        /* \"src/Verifier.sol\":14748:14749  q */\n      0x30644e72e131a029b85045b68181585d2833e84879b9709143e1f593f0000001\n        /* \"src/Verifier.sol\":14738:14744  pGamma */\n      0x40\n        /* \"src/Verifier.sol\":14732:14736  pMem */\n      dup6\n        /* \"src/Verifier.sol\":14728:14745  add(pMem, pGamma) */\n      add\n        /* \"src/Verifier.sol\":14722:14746  mload(add(pMem, pGamma)) */\n      mload\n        /* \"src/Verifier.sol\":14717:14720  e3a */\n      dup3\n        /* \"src/Verifier.sol\":14710:14750  addmod(e3a, mload(add(pMem, pGamma)), q) */\n      addmod\n        /* \"src/Verifier.sol\":14703:14750  e3a := addmod(e3a, mload(add(pMem, pGamma)), q) */\n      swap1\n      pop\n        /* \"src/Verifier.sol\":14930:14931  q */\n      0x30644e72e131a029b85045b68181585d2833e84879b9709143e1f593f0000001\n        /* \"src/Verifier.sol\":14906:14907  q */\n      dup1\n        /* \"src/Verifier.sol\":14895:14903  pEval_s2 */\n      0x02c4\n        /* \"src/Verifier.sol\":14882:14904  calldataload(pEval_s2) */\n      calldataload\n        /* \"src/Verifier.sol\":14873:14878  pBeta */\n      0x20\n        /* \"src/Verifier.sol\":14867:14871  pMem */\n      dup8\n        /* \"src/Verifier.sol\":14863:14879  add(pMem, pBeta) */\n      add\n        /* \"src/Verifier.sol\":14857:14880  mload(add(pMem, pBeta)) */\n      mload\n        /* \"src/Verifier.sol\":14850:14908  mulmod(mload(add(pMem, pBeta)), calldataload(pEval_s2), q) */\n      mulmod\n        /* \"src/Verifier.sol\":14820:14827  pEval_b */\n      0x0264\n        /* \"src/Verifier.sol\":14807:14828  calldataload(pEval_b) */\n      calldataload\n        /* \"src/Verifier.sol\":14779:14949  addmod(... */\n      addmod\n        /* \"src/Verifier.sol\":15011:15012  q */\n      0x30644e72e131a029b85045b68181585d2833e84879b9709143e1f593f0000001\n        /* \"src/Verifier.sol\":15001:15007  pGamma */\n      0x40\n        /* \"src/Verifier.sol\":14995:14999  pMem */\n      dup7\n        /* \"src/Verifier.sol\":14991:15008  add(pMem, pGamma) */\n      add\n        /* \"src/Verifier.sol\":14985:15009  mload(add(pMem, pGamma)) */\n      mload\n        /* \"src/Verifier.sol\":14980:14983  e3b */\n      dup3\n        /* \"src/Verifier.sol\":14973:15013  addmod(e3b, mload(add(pMem, pGamma)), q) */\n      addmod\n        /* \"src/Verifier.sol\":14966:15013  e3b := addmod(e3b, mload(add(pMem, pGamma)), q) */\n      swap1\n      pop\n        /* \"src/Verifier.sol\":15159:15160  q */\n      0x30644e72e131a029b85045b68181585d2833e84879b9709143e1f593f0000001\n        /* \"src/Verifier.sol\":15129:15135  pGamma */\n      0x40\n        /* \"src/Verifier.sol\":15123:15127  pMem */\n      dup7\n        /* \"src/Verifier.sol\":15119:15136  add(pMem, pGamma) */\n      add\n        /* \"src/Verifier.sol\":15113:15137  mload(add(pMem, pGamma)) */\n      mload\n        /* \"src/Verifier.sol\":15083:15090  pEval_c */\n      0x0284\n        /* \"src/Verifier.sol\":15070:15091  calldataload(pEval_c) */\n      calldataload\n        /* \"src/Verifier.sol\":15042:15178  addmod(... */\n      addmod\n        /* \"src/Verifier.sol\":15239:15240  q */\n      0x30644e72e131a029b85045b68181585d2833e84879b9709143e1f593f0000001\n        /* \"src/Verifier.sol\":15234:15237  e3c */\n      dup2\n        /* \"src/Verifier.sol\":15230:15231  q */\n      0x30644e72e131a029b85045b68181585d2833e84879b9709143e1f593f0000001\n        /* \"src/Verifier.sol\":15225:15228  e3b */\n      dup5\n        /* \"src/Verifier.sol\":15220:15223  e3a */\n      dup7\n        /* \"src/Verifier.sol\":15213:15232  mulmod(e3a, e3b, q) */\n      mulmod\n        /* \"src/Verifier.sol\":15206:15241  mulmod(mulmod(e3a, e3b, q), e3c, q) */\n      mulmod\n        /* \"src/Verifier.sol\":15299:15300  q */\n      0x30644e72e131a029b85045b68181585d2833e84879b9709143e1f593f0000001\n        /* \"src/Verifier.sol\":15288:15296  pEval_zw */\n      0x02e4\n        /* \"src/Verifier.sol\":15275:15297  calldataload(pEval_zw) */\n      calldataload\n        /* \"src/Verifier.sol\":15271:15273  e3 */\n      dup3\n        /* \"src/Verifier.sol\":15264:15301  mulmod(e3, calldataload(pEval_zw), q) */\n      mulmod\n        /* \"src/Verifier.sol\":15258:15301  e3 := mulmod(e3, calldataload(pEval_zw), q) */\n      swap1\n      pop\n        /* \"src/Verifier.sol\":15361:15362  q */\n      0x30644e72e131a029b85045b68181585d2833e84879b9709143e1f593f0000001\n        /* \"src/Verifier.sol\":15351:15357  pAlpha */\n      0x00\n        /* \"src/Verifier.sol\":15345:15349  pMem */\n      dup9\n        /* \"src/Verifier.sol\":15341:15358  add(pMem, pAlpha) */\n      add\n        /* \"src/Verifier.sol\":15335:15359  mload(add(pMem, pAlpha)) */\n      mload\n        /* \"src/Verifier.sol\":15331:15333  e3 */\n      dup3\n        /* \"src/Verifier.sol\":15324:15363  mulmod(e3, mload(add(pMem, pAlpha)), q) */\n      mulmod\n        /* \"src/Verifier.sol\":15318:15363  e3 := mulmod(e3, mload(add(pMem, pAlpha)), q) */\n      swap1\n      pop\n        /* \"src/Verifier.sol\":15422:15423  q */\n      0x30644e72e131a029b85045b68181585d2833e84879b9709143e1f593f0000001\n        /* \"src/Verifier.sol\":15418:15419  q */\n      dup1\n        /* \"src/Verifier.sol\":15413:15415  e2 */\n      dup7\n        /* \"src/Verifier.sol\":15410:15411  q */\n      0x30644e72e131a029b85045b68181585d2833e84879b9709143e1f593f0000001\n        /* \"src/Verifier.sol\":15406:15416  sub(q, e2) */\n      sub\n        /* \"src/Verifier.sol\":15402:15420  mod(sub(q, e2), q) */\n      mod\n        /* \"src/Verifier.sol\":15398:15400  e1 */\n      dup8\n        /* \"src/Verifier.sol\":15391:15424  addmod(e1, mod(sub(q, e2), q), q) */\n      addmod\n        /* \"src/Verifier.sol\":15478:15479  q */\n      0x30644e72e131a029b85045b68181585d2833e84879b9709143e1f593f0000001\n        /* \"src/Verifier.sol\":15474:15475  q */\n      dup1\n        /* \"src/Verifier.sol\":15469:15471  e3 */\n      dup4\n        /* \"src/Verifier.sol\":15466:15467  q */\n      0x30644e72e131a029b85045b68181585d2833e84879b9709143e1f593f0000001\n        /* \"src/Verifier.sol\":15462:15472  sub(q, e3) */\n      sub\n        /* \"src/Verifier.sol\":15458:15476  mod(sub(q, e3), q) */\n      mod\n        /* \"src/Verifier.sol\":15454:15456  r0 */\n      dup3\n        /* \"src/Verifier.sol\":15447:15480  addmod(r0, mod(sub(q, e3), q), q) */\n      addmod\n        /* \"src/Verifier.sol\":15441:15480  r0 := addmod(r0, mod(sub(q, e3), q), q) */\n      swap1\n      pop\n        /* \"src/Verifier.sol\":15526:15528  r0 */\n      dup1\n        /* \"src/Verifier.sol\":15515:15523  pEval_r0 */\n      0x01a0\n        /* \"src/Verifier.sol\":15509:15513  pMem */\n      dup10\n        /* \"src/Verifier.sol\":15505:15524  add(pMem, pEval_r0) */\n      add\n        /* \"src/Verifier.sol\":15498:15529  mstore(add(pMem, pEval_r0), r0) */\n      mstore\n        /* \"src/Verifier.sol\":14268:15543  {... */\n      pop\n      pop\n      pop\n      pop\n      pop\n      pop\n      pop\n        /* \"src/Verifier.sol\":14241:15543  function calculateR0(pMem) {... */\n      pop\n      jump\t// out\n        /* \"src/Verifier.sol\":15557:15690  function g1_set(pR, pP) {... */\n    tag_19:\n        /* \"src/Verifier.sol\":15616:15618  pP */\n      dup2\n        /* \"src/Verifier.sol\":15610:15619  mload(pP) */\n      mload\n        /* \"src/Verifier.sol\":15606:15608  pR */\n      dup2\n        /* \"src/Verifier.sol\":15599:15620  mstore(pR, mload(pP)) */\n      mstore\n        /* \"src/Verifier.sol\":15671:15673  32 */\n      0x20\n        /* \"src/Verifier.sol\":15667:15669  pP */\n      dup3\n        /* \"src/Verifier.sol\":15663:15674  add(pP, 32) */\n      add\n        /* \"src/Verifier.sol\":15657:15675  mload(add(pP, 32)) */\n      mload\n        /* \"src/Verifier.sol\":15652:15654  32 */\n      0x20\n        /* \"src/Verifier.sol\":15648:15650  pR */\n      dup3\n        /* \"src/Verifier.sol\":15644:15655  add(pR, 32) */\n      add\n        /* \"src/Verifier.sol\":15637:15676  mstore(add(pR, 32), mload(add(pP, 32))) */\n      mstore\n        /* \"src/Verifier.sol\":15557:15690  function g1_set(pR, pP) {... */\n      pop\n      pop\n      jump\t// out\n        /* \"src/Verifier.sol\":15704:15815  function g1_setC(pR, x, y) {... */\n    tag_20:\n        /* \"src/Verifier.sol\":15760:15761  x */\n      dup2\n        /* \"src/Verifier.sol\":15756:15758  pR */\n      dup2\n        /* \"src/Verifier.sol\":15749:15762  mstore(pR, x) */\n      mstore\n        /* \"src/Verifier.sol\":15799:15800  y */\n      dup3\n        /* \"src/Verifier.sol\":15794:15796  32 */\n      0x20\n        /* \"src/Verifier.sol\":15790:15792  pR */\n      dup3\n        /* \"src/Verifier.sol\":15786:15797  add(pR, 32) */\n      add\n        /* \"src/Verifier.sol\":15779:15801  mstore(add(pR, 32), y) */\n      mstore\n        /* \"src/Verifier.sol\":15704:15815  function g1_setC(pR, x, y) {... */\n      pop\n      pop\n      pop\n      jump\t// out\n        /* \"src/Verifier.sol\":15829:15984  function g1_calldataSet(pR, pP) {... */\n    tag_21:\n        /* \"src/Verifier.sol\":15903:15905  pP */\n      dup2\n        /* \"src/Verifier.sol\":15890:15906  calldataload(pP) */\n      calldataload\n        /* \"src/Verifier.sol\":15886:15888  pR */\n      dup2\n        /* \"src/Verifier.sol\":15879:15907  mstore(pR, calldataload(pP)) */\n      mstore\n        /* \"src/Verifier.sol\":15965:15967  32 */\n      0x20\n        /* \"src/Verifier.sol\":15961:15963  pP */\n      dup3\n        /* \"src/Verifier.sol\":15957:15968  add(pP, 32) */\n      add\n        /* \"src/Verifier.sol\":15944:15969  calldataload(add(pP, 32)) */\n      calldataload\n        /* \"src/Verifier.sol\":15939:15941  32 */\n      0x20\n        /* \"src/Verifier.sol\":15935:15937  pR */\n      dup3\n        /* \"src/Verifier.sol\":15931:15942  add(pR, 32) */\n      add\n        /* \"src/Verifier.sol\":15924:15970  mstore(add(pR, 32), calldataload(add(pP, 32))) */\n      mstore\n        /* \"src/Verifier.sol\":15829:15984  function g1_calldataSet(pR, pP) {... */\n      pop\n      pop\n      jump\t// out\n        /* \"src/Verifier.sol\":15998:16484  function g1_acc(pR, pP) {... */\n    tag_22:\n        /* \"src/Verifier.sol\":16057:16061  0x40 */\n      0x40\n        /* \"src/Verifier.sol\":16051:16062  mload(0x40) */\n      mload\n        /* \"src/Verifier.sol\":16097:16099  pR */\n      dup2\n        /* \"src/Verifier.sol\":16091:16100  mload(pR) */\n      mload\n        /* \"src/Verifier.sol\":16086:16089  mIn */\n      dup2\n        /* \"src/Verifier.sol\":16079:16101  mstore(mIn, mload(pR)) */\n      mstore\n        /* \"src/Verifier.sol\":16153:16155  32 */\n      0x20\n        /* \"src/Verifier.sol\":16149:16151  pR */\n      dup3\n        /* \"src/Verifier.sol\":16145:16156  add(pR, 32) */\n      add\n        /* \"src/Verifier.sol\":16139:16157  mload(add(pR, 32)) */\n      mload\n        /* \"src/Verifier.sol\":16134:16136  32 */\n      0x20\n        /* \"src/Verifier.sol\":16129:16132  mIn */\n      dup3\n        /* \"src/Verifier.sol\":16125:16137  add(mIn, 32) */\n      add\n        /* \"src/Verifier.sol\":16118:16158  mstore(add(mIn, 32), mload(add(pR, 32))) */\n      mstore\n        /* \"src/Verifier.sol\":16202:16204  pP */\n      dup3\n        /* \"src/Verifier.sol\":16196:16205  mload(pP) */\n      mload\n        /* \"src/Verifier.sol\":16191:16193  64 */\n      0x40\n        /* \"src/Verifier.sol\":16186:16189  mIn */\n      dup3\n        /* \"src/Verifier.sol\":16182:16194  add(mIn, 64) */\n      add\n        /* \"src/Verifier.sol\":16175:16206  mstore(add(mIn, 64), mload(pP)) */\n      mstore\n        /* \"src/Verifier.sol\":16258:16260  32 */\n      0x20\n        /* \"src/Verifier.sol\":16254:16256  pP */\n      dup4\n        /* \"src/Verifier.sol\":16250:16261  add(pP, 32) */\n      add\n        /* \"src/Verifier.sol\":16244:16262  mload(add(pP, 32)) */\n      mload\n        /* \"src/Verifier.sol\":16239:16241  96 */\n      0x60\n        /* \"src/Verifier.sol\":16234:16237  mIn */\n      dup3\n        /* \"src/Verifier.sol\":16230:16242  add(mIn, 96) */\n      add\n        /* \"src/Verifier.sol\":16223:16263  mstore(add(mIn, 96), mload(add(pP, 32))) */\n      mstore\n        /* \"src/Verifier.sol\":16342:16344  64 */\n      0x40\n        /* \"src/Verifier.sol\":16338:16340  pR */\n      dup3\n        /* \"src/Verifier.sol\":16333:16336  128 */\n      0x80\n        /* \"src/Verifier.sol\":16328:16331  mIn */\n      dup4\n        /* \"src/Verifier.sol\":16325:16326  6 */\n      0x06\n        /* \"src/Verifier.sol\":16318:16322  2000 */\n      0x07d0\n        /* \"src/Verifier.sol\":16311:16316  gas() */\n      gas\n        /* \"src/Verifier.sol\":16307:16323  sub(gas(), 2000) */\n      sub\n        /* \"src/Verifier.sol\":16296:16345  staticcall(sub(gas(), 2000), 6, mIn, 128, pR, 64) */\n      staticcall\n        /* \"src/Verifier.sol\":16373:16380  success */\n      dup1\n        /* \"src/Verifier.sol\":16363:16470  if iszero(success) {... */\n      tag_64\n      jumpi\n        /* \"src/Verifier.sol\":16414:16415  0 */\n      0x00\n        /* \"src/Verifier.sol\":16411:16412  0 */\n      dup1\n        /* \"src/Verifier.sol\":16404:16416  mstore(0, 0) */\n      mstore\n        /* \"src/Verifier.sol\":16447:16451  0x20 */\n      0x20\n        /* \"src/Verifier.sol\":16444:16445  0 */\n      0x00\n        /* \"src/Verifier.sol\":16437:16452  return(0, 0x20) */\n      return\n        /* \"src/Verifier.sol\":16363:16470  if iszero(success) {... */\n    tag_64:\n        /* \"src/Verifier.sol\":16022:16484  {... */\n      pop\n      pop\n        /* \"src/Verifier.sol\":15998:16484  function g1_acc(pR, pP) {... */\n      pop\n      pop\n      jump\t// out\n        /* \"src/Verifier.sol\":17272:18010  function g1_mulAccC(pR, x, y, s) {... */\n    tag_24:\n        /* \"src/Verifier.sol\":17323:17334  let success */\n      0x00\n        /* \"src/Verifier.sol\":17368:17372  0x40 */\n      0x40\n        /* \"src/Verifier.sol\":17362:17373  mload(0x40) */\n      mload\n        /* \"src/Verifier.sol\":17402:17403  x */\n      dup4\n        /* \"src/Verifier.sol\":17397:17400  mIn */\n      dup2\n        /* \"src/Verifier.sol\":17390:17404  mstore(mIn, x) */\n      mstore\n        /* \"src/Verifier.sol\":17442:17443  y */\n      dup5\n        /* \"src/Verifier.sol\":17437:17439  32 */\n      0x20\n        /* \"src/Verifier.sol\":17432:17435  mIn */\n      dup3\n        /* \"src/Verifier.sol\":17428:17440  add(mIn, 32) */\n      add\n        /* \"src/Verifier.sol\":17421:17444  mstore(add(mIn, 32), y) */\n      mstore\n        /* \"src/Verifier.sol\":17482:17483  s */\n      dup6\n        /* \"src/Verifier.sol\":17477:17479  64 */\n      0x40\n        /* \"src/Verifier.sol\":17472:17475  mIn */\n      dup3\n        /* \"src/Verifier.sol\":17468:17480  add(mIn, 64) */\n      add\n        /* \"src/Verifier.sol\":17461:17484  mstore(add(mIn, 64), s) */\n      mstore\n        /* \"src/Verifier.sol\":17559:17561  64 */\n      0x40\n        /* \"src/Verifier.sol\":17554:17557  mIn */\n      dup2\n        /* \"src/Verifier.sol\":17550:17552  96 */\n      0x60\n        /* \"src/Verifier.sol\":17545:17548  mIn */\n      dup4\n        /* \"src/Verifier.sol\":17542:17543  7 */\n      0x07\n        /* \"src/Verifier.sol\":17535:17539  2000 */\n      0x07d0\n        /* \"src/Verifier.sol\":17528:17533  gas() */\n      gas\n        /* \"src/Verifier.sol\":17524:17540  sub(gas(), 2000) */\n      sub\n        /* \"src/Verifier.sol\":17513:17562  staticcall(sub(gas(), 2000), 7, mIn, 96, mIn, 64) */\n      staticcall\n        /* \"src/Verifier.sol\":17502:17562  success := staticcall(sub(gas(), 2000), 7, mIn, 96, mIn, 64) */\n      swap2\n      pop\n        /* \"src/Verifier.sol\":17590:17597  success */\n      dup2\n        /* \"src/Verifier.sol\":17580:17687  if iszero(success) {... */\n      tag_69\n      jumpi\n        /* \"src/Verifier.sol\":17631:17632  0 */\n      0x00\n        /* \"src/Verifier.sol\":17628:17629  0 */\n      dup1\n        /* \"src/Verifier.sol\":17621:17633  mstore(0, 0) */\n      mstore\n        /* \"src/Verifier.sol\":17664:17668  0x20 */\n      0x20\n        /* \"src/Verifier.sol\":17661:17662  0 */\n      0x00\n        /* \"src/Verifier.sol\":17654:17669  return(0, 0x20) */\n      return\n        /* \"src/Verifier.sol\":17580:17687  if iszero(success) {... */\n    tag_69:\n        /* \"src/Verifier.sol\":17732:17734  pR */\n      dup3\n        /* \"src/Verifier.sol\":17726:17735  mload(pR) */\n      mload\n        /* \"src/Verifier.sol\":17721:17723  64 */\n      0x40\n        /* \"src/Verifier.sol\":17716:17719  mIn */\n      dup3\n        /* \"src/Verifier.sol\":17712:17724  add(mIn, 64) */\n      add\n        /* \"src/Verifier.sol\":17705:17736  mstore(add(mIn, 64), mload(pR)) */\n      mstore\n        /* \"src/Verifier.sol\":17788:17790  32 */\n      0x20\n        /* \"src/Verifier.sol\":17784:17786  pR */\n      dup4\n        /* \"src/Verifier.sol\":17780:17791  add(pR, 32) */\n      add\n        /* \"src/Verifier.sol\":17774:17792  mload(add(pR, 32)) */\n      mload\n        /* \"src/Verifier.sol\":17769:17771  96 */\n      0x60\n        /* \"src/Verifier.sol\":17764:17767  mIn */\n      dup3\n        /* \"src/Verifier.sol\":17760:17772  add(mIn, 96) */\n      add\n        /* \"src/Verifier.sol\":17753:17793  mstore(add(mIn, 96), mload(add(pR, 32))) */\n      mstore\n        /* \"src/Verifier.sol\":17868:17870  64 */\n      0x40\n        /* \"src/Verifier.sol\":17864:17866  pR */\n      dup4\n        /* \"src/Verifier.sol\":17859:17862  128 */\n      0x80\n        /* \"src/Verifier.sol\":17854:17857  mIn */\n      dup4\n        /* \"src/Verifier.sol\":17851:17852  6 */\n      0x06\n        /* \"src/Verifier.sol\":17844:17848  2000 */\n      0x07d0\n        /* \"src/Verifier.sol\":17837:17842  gas() */\n      gas\n        /* \"src/Verifier.sol\":17833:17849  sub(gas(), 2000) */\n      sub\n        /* \"src/Verifier.sol\":17822:17871  staticcall(sub(gas(), 2000), 6, mIn, 128, pR, 64) */\n      staticcall\n        /* \"src/Verifier.sol\":17811:17871  success := staticcall(sub(gas(), 2000), 6, mIn, 128, pR, 64) */\n      swap2\n      pop\n        /* \"src/Verifier.sol\":17899:17906  success */\n      dup2\n        /* \"src/Verifier.sol\":17889:17996  if iszero(success) {... */\n      tag_70\n      jumpi\n        /* \"src/Verifier.sol\":17940:17941  0 */\n      0x00\n        /* \"src/Verifier.sol\":17937:17938  0 */\n      dup1\n        /* \"src/Verifier.sol\":17930:17942  mstore(0, 0) */\n      mstore\n        /* \"src/Verifier.sol\":17973:17977  0x20 */\n      0x20\n        /* \"src/Verifier.sol\":17970:17971  0 */\n      0x00\n        /* \"src/Verifier.sol\":17963:17978  return(0, 0x20) */\n      return\n        /* \"src/Verifier.sol\":17889:17996  if iszero(success) {... */\n    tag_70:\n        /* \"src/Verifier.sol\":17305:18010  {... */\n      pop\n      pop\n        /* \"src/Verifier.sol\":17272:18010  function g1_mulAccC(pR, x, y, s) {... */\n      pop\n      pop\n      pop\n      pop\n      jump\t// out\n        /* \"src/Verifier.sol\":18024:18452  function g1_mulSetC(pR, x, y, s) {... */\n    tag_25:\n        /* \"src/Verifier.sol\":18075:18086  let success */\n      0x00\n        /* \"src/Verifier.sol\":18120:18124  0x40 */\n      0x40\n        /* \"src/Verifier.sol\":18114:18125  mload(0x40) */\n      mload\n        /* \"src/Verifier.sol\":18154:18155  x */\n      dup4\n        /* \"src/Verifier.sol\":18149:18152  mIn */\n      dup2\n        /* \"src/Verifier.sol\":18142:18156  mstore(mIn, x) */\n      mstore\n        /* \"src/Verifier.sol\":18194:18195  y */\n      dup5\n        /* \"src/Verifier.sol\":18189:18191  32 */\n      0x20\n        /* \"src/Verifier.sol\":18184:18187  mIn */\n      dup3\n        /* \"src/Verifier.sol\":18180:18192  add(mIn, 32) */\n      add\n        /* \"src/Verifier.sol\":18173:18196  mstore(add(mIn, 32), y) */\n      mstore\n        /* \"src/Verifier.sol\":18234:18235  s */\n      dup6\n        /* \"src/Verifier.sol\":18229:18231  64 */\n      0x40\n        /* \"src/Verifier.sol\":18224:18227  mIn */\n      dup3\n        /* \"src/Verifier.sol\":18220:18232  add(mIn, 64) */\n      add\n        /* \"src/Verifier.sol\":18213:18236  mstore(add(mIn, 64), s) */\n      mstore\n        /* \"src/Verifier.sol\":18310:18312  64 */\n      0x40\n        /* \"src/Verifier.sol\":18306:18308  pR */\n      dup4\n        /* \"src/Verifier.sol\":18302:18304  96 */\n      0x60\n        /* \"src/Verifier.sol\":18297:18300  mIn */\n      dup4\n        /* \"src/Verifier.sol\":18294:18295  7 */\n      0x07\n        /* \"src/Verifier.sol\":18287:18291  2000 */\n      0x07d0\n        /* \"src/Verifier.sol\":18280:18285  gas() */\n      gas\n        /* \"src/Verifier.sol\":18276:18292  sub(gas(), 2000) */\n      sub\n        /* \"src/Verifier.sol\":18265:18313  staticcall(sub(gas(), 2000), 7, mIn, 96, pR, 64) */\n      staticcall\n        /* \"src/Verifier.sol\":18254:18313  success := staticcall(sub(gas(), 2000), 7, mIn, 96, pR, 64) */\n      swap2\n      pop\n        /* \"src/Verifier.sol\":18341:18348  success */\n      dup2\n        /* \"src/Verifier.sol\":18331:18438  if iszero(success) {... */\n      tag_72\n      jumpi\n        /* \"src/Verifier.sol\":18382:18383  0 */\n      0x00\n        /* \"src/Verifier.sol\":18379:18380  0 */\n      dup1\n        /* \"src/Verifier.sol\":18372:18384  mstore(0, 0) */\n      mstore\n        /* \"src/Verifier.sol\":18415:18419  0x20 */\n      0x20\n        /* \"src/Verifier.sol\":18412:18413  0 */\n      0x00\n        /* \"src/Verifier.sol\":18405:18420  return(0, 0x20) */\n      return\n        /* \"src/Verifier.sol\":18331:18438  if iszero(success) {... */\n    tag_72:\n        /* \"src/Verifier.sol\":18057:18452  {... */\n      pop\n      pop\n        /* \"src/Verifier.sol\":18024:18452  function g1_mulSetC(pR, x, y, s) {... */\n      pop\n      pop\n      pop\n      pop\n      jump\t// out\n        /* \"src/Verifier.sol\":18466:18576  function g1_mulSet(pR, pP, s) {... */\n    tag_26:\n        /* \"src/Verifier.sol\":18514:18562  g1_mulSetC(pR, mload(pP), mload(add(pP, 32)), s) */\n      tag_74\n        /* \"src/Verifier.sol\":18560:18561  s */\n      dup4\n        /* \"src/Verifier.sol\":18554:18556  32 */\n      0x20\n        /* \"src/Verifier.sol\":18550:18552  pP */\n      dup5\n        /* \"src/Verifier.sol\":18546:18557  add(pP, 32) */\n      add\n        /* \"src/Verifier.sol\":18540:18558  mload(add(pP, 32)) */\n      mload\n        /* \"src/Verifier.sol\":18535:18537  pP */\n      dup5\n        /* \"src/Verifier.sol\":18529:18538  mload(pP) */\n      mload\n        /* \"src/Verifier.sol\":18525:18527  pR */\n      dup5\n        /* \"src/Verifier.sol\":18514:18562  g1_mulSetC(pR, mload(pP), mload(add(pP, 32)), s) */\n      tag_25\n      jump\t// in\n    tag_74:\n        /* \"src/Verifier.sol\":18466:18576  function g1_mulSet(pR, pP, s) {... */\n      pop\n      pop\n      pop\n      jump\t// out\n        /* \"src/Verifier.sol\":18590:23079  function calculateD(pMem) {... */\n    tag_27:\n        /* \"src/Verifier.sol\":18655:18657  pD */\n      0x01c0\n        /* \"src/Verifier.sol\":18649:18653  pMem */\n      dup2\n        /* \"src/Verifier.sol\":18645:18658  add(pMem, pD) */\n      add\n        /* \"src/Verifier.sol\":18704:18710  pGamma */\n      0x40\n        /* \"src/Verifier.sol\":18698:18702  pMem */\n      dup3\n        /* \"src/Verifier.sol\":18694:18711  add(pMem, pGamma) */\n      add\n        /* \"src/Verifier.sol\":18688:18712  mload(add(pMem, pGamma)) */\n      mload\n        /* \"src/Verifier.sol\":18746:18750  0x40 */\n      0x40\n        /* \"src/Verifier.sol\":18740:18751  mload(0x40) */\n      mload\n        /* \"src/Verifier.sol\":18790:18793  256 */\n      0x0100\n        /* \"src/Verifier.sol\":18785:18788  mIn */\n      dup2\n        /* \"src/Verifier.sol\":18781:18794  add(mIn, 256) */\n      add\n        /* \"src/Verifier.sol\":18775:18779  0x40 */\n      0x40\n        /* \"src/Verifier.sol\":18768:18795  mstore(0x40, add(mIn, 256)) */\n      mstore\n        /* \"src/Verifier.sol\":18845:18867  g1_setC(_pD, Qcx, Qcy) */\n      tag_76\n        /* \"src/Verifier.sol\":18863:18866  Qcy */\n      0x00\n        /* \"src/Verifier.sol\":18858:18861  Qcx */\n      dup1\n        /* \"src/Verifier.sol\":18853:18856  _pD */\n      dup6\n        /* \"src/Verifier.sol\":18845:18867  g1_setC(_pD, Qcx, Qcy) */\n      tag_20\n      jump\t// in\n    tag_76:\n        /* \"src/Verifier.sol\":18884:19064  g1_mulAccC(... */\n      tag_77\n        /* \"src/Verifier.sol\":19044:19045  q */\n      0x30644e72e131a029b85045b68181585d2833e84879b9709143e1f593f0000001\n        /* \"src/Verifier.sol\":19034:19041  pEval_b */\n      0x0264\n        /* \"src/Verifier.sol\":19021:19042  calldataload(pEval_b) */\n      calldataload\n        /* \"src/Verifier.sol\":19011:19018  pEval_a */\n      0x0244\n        /* \"src/Verifier.sol\":18998:19019  calldataload(pEval_a) */\n      calldataload\n        /* \"src/Verifier.sol\":18991:19046  mulmod(calldataload(pEval_a), calldataload(pEval_b), q) */\n      mulmod\n        /* \"src/Verifier.sol\":18966:18969  Qmy */\n      0x2655eb98e5bbd2d8f1cdef1730dd3ef40f2375004a0a298b21b9807aa244f034\n        /* \"src/Verifier.sol\":18941:18944  Qmx */\n      0x16c267dd4cf30f26f0564eb51c466dc1a5c907efd67ec76692d35fb1cdda0ce8\n        /* \"src/Verifier.sol\":18916:18919  _pD */\n      dup7\n        /* \"src/Verifier.sol\":18884:19064  g1_mulAccC(... */\n      tag_24\n      jump\t// in\n    tag_77:\n        /* \"src/Verifier.sol\":19081:19129  g1_mulAccC(_pD, Qlx, Qly, calldataload(pEval_a)) */\n      tag_78\n        /* \"src/Verifier.sol\":19120:19127  pEval_a */\n      0x0244\n        /* \"src/Verifier.sol\":19107:19128  calldataload(pEval_a) */\n      calldataload\n        /* \"src/Verifier.sol\":19102:19105  Qly */\n      0x15d573fc890afebd6308281bf667988a2a7df914b371bc46645aeff185f42ab3\n        /* \"src/Verifier.sol\":19097:19100  Qlx */\n      0x1f9be742471045cc436a97a2c8664790c8a99112bfd7c5cdbdb00c574342d286\n        /* \"src/Verifier.sol\":19092:19095  _pD */\n      dup7\n        /* \"src/Verifier.sol\":19081:19129  g1_mulAccC(_pD, Qlx, Qly, calldataload(pEval_a)) */\n      tag_24\n      jump\t// in\n    tag_78:\n        /* \"src/Verifier.sol\":19146:19194  g1_mulAccC(_pD, Qrx, Qry, calldataload(pEval_b)) */\n      tag_79\n        /* \"src/Verifier.sol\":19185:19192  pEval_b */\n      0x0264\n        /* \"src/Verifier.sol\":19172:19193  calldataload(pEval_b) */\n      calldataload\n        /* \"src/Verifier.sol\":19167:19170  Qry */\n      0x00\n        /* \"src/Verifier.sol\":19162:19165  Qrx */\n      dup1\n        /* \"src/Verifier.sol\":19157:19160  _pD */\n      dup7\n        /* \"src/Verifier.sol\":19146:19194  g1_mulAccC(_pD, Qrx, Qry, calldataload(pEval_b)) */\n      tag_24\n      jump\t// in\n    tag_79:\n        /* \"src/Verifier.sol\":19211:19259  g1_mulAccC(_pD, Qox, Qoy, calldataload(pEval_c)) */\n      tag_80\n        /* \"src/Verifier.sol\":19250:19257  pEval_c */\n      0x0284\n        /* \"src/Verifier.sol\":19237:19258  calldataload(pEval_c) */\n      calldataload\n        /* \"src/Verifier.sol\":19232:19235  Qoy */\n      0x0a0e62d9fb75cd50c682569f50a41969885df5911e67a1021a670b9c36380d13\n        /* \"src/Verifier.sol\":19227:19230  Qox */\n      0x16c267dd4cf30f26f0564eb51c466dc1a5c907efd67ec76692d35fb1cdda0ce8\n        /* \"src/Verifier.sol\":19222:19225  _pD */\n      dup7\n        /* \"src/Verifier.sol\":19211:19259  g1_mulAccC(_pD, Qox, Qoy, calldataload(pEval_c)) */\n      tag_24\n      jump\t// in\n    tag_80:\n        /* \"src/Verifier.sol\":19307:19314  pBetaXi */\n      0xa0\n        /* \"src/Verifier.sol\":19301:19305  pMem */\n      dup5\n        /* \"src/Verifier.sol\":19297:19315  add(pMem, pBetaXi) */\n      add\n        /* \"src/Verifier.sol\":19291:19316  mload(add(pMem, pBetaXi)) */\n      mload\n        /* \"src/Verifier.sol\":19462:19463  q */\n      0x30644e72e131a029b85045b68181585d2833e84879b9709143e1f593f0000001\n        /* \"src/Verifier.sol\":19435:19440  gamma */\n      dup4\n        /* \"src/Verifier.sol\":19411:19412  q */\n      0x30644e72e131a029b85045b68181585d2833e84879b9709143e1f593f0000001\n        /* \"src/Verifier.sol\":19403:19409  betaxi */\n      dup4\n        /* \"src/Verifier.sol\":19393:19400  pEval_a */\n      0x0244\n        /* \"src/Verifier.sol\":19380:19401  calldataload(pEval_a) */\n      calldataload\n        /* \"src/Verifier.sol\":19373:19413  addmod(calldataload(pEval_a), betaxi, q) */\n      addmod\n        /* \"src/Verifier.sol\":19345:19481  addmod(... */\n      addmod\n        /* \"src/Verifier.sol\":19643:19644  q */\n      0x30644e72e131a029b85045b68181585d2833e84879b9709143e1f593f0000001\n        /* \"src/Verifier.sol\":19616:19621  gamma */\n      dup5\n        /* \"src/Verifier.sol\":19592:19593  q */\n      0x30644e72e131a029b85045b68181585d2833e84879b9709143e1f593f0000001\n        /* \"src/Verifier.sol\":19588:19589  q */\n      dup1\n        /* \"src/Verifier.sol\":19584:19586  k1 */\n      0x02\n        /* \"src/Verifier.sol\":19576:19582  betaxi */\n      dup7\n        /* \"src/Verifier.sol\":19569:19590  mulmod(betaxi, k1, q) */\n      mulmod\n        /* \"src/Verifier.sol\":19559:19566  pEval_b */\n      0x0264\n        /* \"src/Verifier.sol\":19546:19567  calldataload(pEval_b) */\n      calldataload\n        /* \"src/Verifier.sol\":19539:19594  addmod(calldataload(pEval_b), mulmod(betaxi, k1, q), q) */\n      addmod\n        /* \"src/Verifier.sol\":19511:19662  addmod(... */\n      addmod\n        /* \"src/Verifier.sol\":19824:19825  q */\n      0x30644e72e131a029b85045b68181585d2833e84879b9709143e1f593f0000001\n        /* \"src/Verifier.sol\":19797:19802  gamma */\n      dup6\n        /* \"src/Verifier.sol\":19773:19774  q */\n      0x30644e72e131a029b85045b68181585d2833e84879b9709143e1f593f0000001\n        /* \"src/Verifier.sol\":19769:19770  q */\n      dup1\n        /* \"src/Verifier.sol\":19765:19767  k2 */\n      0x03\n        /* \"src/Verifier.sol\":19757:19763  betaxi */\n      dup8\n        /* \"src/Verifier.sol\":19750:19771  mulmod(betaxi, k2, q) */\n      mulmod\n        /* \"src/Verifier.sol\":19740:19747  pEval_c */\n      0x0284\n        /* \"src/Verifier.sol\":19727:19748  calldataload(pEval_c) */\n      calldataload\n        /* \"src/Verifier.sol\":19720:19775  addmod(calldataload(pEval_c), mulmod(betaxi, k2, q), q) */\n      addmod\n        /* \"src/Verifier.sol\":19692:19843  addmod(... */\n      addmod\n        /* \"src/Verifier.sol\":20006:20007  q */\n      0x30644e72e131a029b85045b68181585d2833e84879b9709143e1f593f0000001\n        /* \"src/Verifier.sol\":19976:19982  pAlpha */\n      0x00\n        /* \"src/Verifier.sol\":19970:19974  pMem */\n      dup10\n        /* \"src/Verifier.sol\":19966:19983  add(pMem, pAlpha) */\n      add\n        /* \"src/Verifier.sol\":19960:19984  mload(add(pMem, pAlpha)) */\n      mload\n        /* \"src/Verifier.sol\":19936:19937  q */\n      0x30644e72e131a029b85045b68181585d2833e84879b9709143e1f593f0000001\n        /* \"src/Verifier.sol\":19930:19934  val3 */\n      dup4\n        /* \"src/Verifier.sol\":19926:19927  q */\n      0x30644e72e131a029b85045b68181585d2833e84879b9709143e1f593f0000001\n        /* \"src/Verifier.sol\":19920:19924  val2 */\n      dup7\n        /* \"src/Verifier.sol\":19914:19918  val1 */\n      dup9\n        /* \"src/Verifier.sol\":19907:19928  mulmod(val1, val2, q) */\n      mulmod\n        /* \"src/Verifier.sol\":19900:19938  mulmod(mulmod(val1, val2, q), val3, q) */\n      mulmod\n        /* \"src/Verifier.sol\":19872:20025  mulmod(... */\n      mulmod\n        /* \"src/Verifier.sol\":20177:20178  q */\n      0x30644e72e131a029b85045b68181585d2833e84879b9709143e1f593f0000001\n        /* \"src/Verifier.sol\":20146:20153  pAlpha2 */\n      0x02c0\n        /* \"src/Verifier.sol\":20140:20144  pMem */\n      dup11\n        /* \"src/Verifier.sol\":20136:20154  add(pMem, pAlpha2) */\n      add\n        /* \"src/Verifier.sol\":20130:20155  mload(add(pMem, pAlpha2)) */\n      mload\n        /* \"src/Verifier.sol\":20098:20106  pEval_l1 */\n      0x0320\n        /* \"src/Verifier.sol\":20092:20096  pMem */\n      dup12\n        /* \"src/Verifier.sol\":20088:20107  add(pMem, pEval_l1) */\n      add\n        /* \"src/Verifier.sol\":20082:20108  mload(add(pMem, pEval_l1)) */\n      mload\n        /* \"src/Verifier.sol\":20054:20196  mulmod(... */\n      mulmod\n        /* \"src/Verifier.sol\":20258:20291  g1_calldataSet(add(mIn, 192), pZ) */\n      tag_81\n        /* \"src/Verifier.sol\":20288:20290  pZ */\n      0xc4\n        /* \"src/Verifier.sol\":20282:20285  192 */\n      0xc0\n        /* \"src/Verifier.sol\":20277:20280  mIn */\n      dup10\n        /* \"src/Verifier.sol\":20273:20286  add(mIn, 192) */\n      add\n        /* \"src/Verifier.sol\":20258:20291  g1_calldataSet(add(mIn, 192), pZ) */\n      tag_21\n      jump\t// in\n    tag_81:\n        /* \"src/Verifier.sol\":20308:20469  g1_mulSet(... */\n      tag_82\n        /* \"src/Verifier.sol\":20449:20450  q */\n      0x30644e72e131a029b85045b68181585d2833e84879b9709143e1f593f0000001\n        /* \"src/Verifier.sol\":20443:20445  pU */\n      0x0160\n        /* \"src/Verifier.sol\":20437:20441  pMem */\n      dup13\n        /* \"src/Verifier.sol\":20433:20446  add(pMem, pU) */\n      add\n        /* \"src/Verifier.sol\":20427:20447  mload(add(pMem, pU)) */\n      mload\n        /* \"src/Verifier.sol\":20423:20424  q */\n      0x30644e72e131a029b85045b68181585d2833e84879b9709143e1f593f0000001\n        /* \"src/Verifier.sol\":20418:20421  d2b */\n      dup5\n        /* \"src/Verifier.sol\":20413:20416  d2a */\n      dup7\n        /* \"src/Verifier.sol\":20406:20425  addmod(d2a, d2b, q) */\n      addmod\n        /* \"src/Verifier.sol\":20399:20451  addmod(addmod(d2a, d2b, q), mload(add(pMem, pU)), q) */\n      addmod\n        /* \"src/Verifier.sol\":20373:20376  192 */\n      0xc0\n        /* \"src/Verifier.sol\":20368:20371  mIn */\n      dup10\n        /* \"src/Verifier.sol\":20364:20377  add(mIn, 192) */\n      add\n        /* \"src/Verifier.sol\":20339:20342  mIn */\n      dup10\n        /* \"src/Verifier.sol\":20308:20469  g1_mulSet(... */\n      tag_26\n      jump\t// in\n    tag_82:\n        /* \"src/Verifier.sol\":20868:20869  q */\n      0x30644e72e131a029b85045b68181585d2833e84879b9709143e1f593f0000001\n        /* \"src/Verifier.sol\":20841:20846  gamma */\n      dup9\n        /* \"src/Verifier.sol\":20796:20797  q */\n      0x30644e72e131a029b85045b68181585d2833e84879b9709143e1f593f0000001\n        /* \"src/Verifier.sol\":20743:20744  q */\n      dup1\n        /* \"src/Verifier.sol\":20704:20712  pEval_s1 */\n      0x02a4\n        /* \"src/Verifier.sol\":20691:20713  calldataload(pEval_s1) */\n      calldataload\n        /* \"src/Verifier.sol\":20654:20659  pBeta */\n      0x20\n        /* \"src/Verifier.sol\":20648:20652  pMem */\n      dup16\n        /* \"src/Verifier.sol\":20644:20660  add(pMem, pBeta) */\n      add\n        /* \"src/Verifier.sol\":20638:20661  mload(add(pMem, pBeta)) */\n      mload\n        /* \"src/Verifier.sol\":20602:20770  mulmod(... */\n      mulmod\n        /* \"src/Verifier.sol\":20568:20575  pEval_a */\n      0x0244\n        /* \"src/Verifier.sol\":20555:20576  calldataload(pEval_a) */\n      calldataload\n        /* \"src/Verifier.sol\":20523:20819  addmod(... */\n      addmod\n        /* \"src/Verifier.sol\":20495:20887  addmod(... */\n      addmod\n        /* \"src/Verifier.sol\":20487:20887  val1 := addmod(... */\n      swap5\n      pop\n        /* \"src/Verifier.sol\":21286:21287  q */\n      0x30644e72e131a029b85045b68181585d2833e84879b9709143e1f593f0000001\n        /* \"src/Verifier.sol\":21259:21264  gamma */\n      dup9\n        /* \"src/Verifier.sol\":21214:21215  q */\n      0x30644e72e131a029b85045b68181585d2833e84879b9709143e1f593f0000001\n        /* \"src/Verifier.sol\":21161:21162  q */\n      dup1\n        /* \"src/Verifier.sol\":21122:21130  pEval_s2 */\n      0x02c4\n        /* \"src/Verifier.sol\":21109:21131  calldataload(pEval_s2) */\n      calldataload\n        /* \"src/Verifier.sol\":21072:21077  pBeta */\n      0x20\n        /* \"src/Verifier.sol\":21066:21070  pMem */\n      dup16\n        /* \"src/Verifier.sol\":21062:21078  add(pMem, pBeta) */\n      add\n        /* \"src/Verifier.sol\":21056:21079  mload(add(pMem, pBeta)) */\n      mload\n        /* \"src/Verifier.sol\":21020:21188  mulmod(... */\n      mulmod\n        /* \"src/Verifier.sol\":20986:20993  pEval_b */\n      0x0264\n        /* \"src/Verifier.sol\":20973:20994  calldataload(pEval_b) */\n      calldataload\n        /* \"src/Verifier.sol\":20941:21237  addmod(... */\n      addmod\n        /* \"src/Verifier.sol\":20913:21305  addmod(... */\n      addmod\n        /* \"src/Verifier.sol\":20905:21305  val2 := addmod(... */\n      swap4\n      pop\n        /* \"src/Verifier.sol\":21579:21580  q */\n      0x30644e72e131a029b85045b68181585d2833e84879b9709143e1f593f0000001\n        /* \"src/Verifier.sol\":21548:21556  pEval_zw */\n      0x02e4\n        /* \"src/Verifier.sol\":21535:21557  calldataload(pEval_zw) */\n      calldataload\n        /* \"src/Verifier.sol\":21490:21491  q */\n      0x30644e72e131a029b85045b68181585d2833e84879b9709143e1f593f0000001\n        /* \"src/Verifier.sol\":21457:21462  pBeta */\n      0x20\n        /* \"src/Verifier.sol\":21451:21455  pMem */\n      dup14\n        /* \"src/Verifier.sol\":21447:21463  add(pMem, pBeta) */\n      add\n        /* \"src/Verifier.sol\":21441:21464  mload(add(pMem, pBeta)) */\n      mload\n        /* \"src/Verifier.sol\":21407:21413  pAlpha */\n      0x00\n        /* \"src/Verifier.sol\":21401:21405  pMem */\n      dup15\n        /* \"src/Verifier.sol\":21397:21414  add(pMem, pAlpha) */\n      add\n        /* \"src/Verifier.sol\":21391:21415  mload(add(pMem, pAlpha)) */\n      mload\n        /* \"src/Verifier.sol\":21359:21513  mulmod(... */\n      mulmod\n        /* \"src/Verifier.sol\":21331:21598  mulmod(... */\n      mulmod\n        /* \"src/Verifier.sol\":21323:21598  val3 := mulmod(... */\n      swap3\n      pop\n        /* \"src/Verifier.sol\":21665:21837  g1_mulSetC(... */\n      tag_83\n        /* \"src/Verifier.sol\":21817:21818  q */\n      0x30644e72e131a029b85045b68181585d2833e84879b9709143e1f593f0000001\n        /* \"src/Verifier.sol\":21811:21815  val3 */\n      dup5\n        /* \"src/Verifier.sol\":21807:21808  q */\n      0x30644e72e131a029b85045b68181585d2833e84879b9709143e1f593f0000001\n        /* \"src/Verifier.sol\":21801:21805  val2 */\n      dup8\n        /* \"src/Verifier.sol\":21795:21799  val1 */\n      dup10\n        /* \"src/Verifier.sol\":21788:21809  mulmod(val1, val2, q) */\n      mulmod\n        /* \"src/Verifier.sol\":21781:21819  mulmod(mulmod(val1, val2, q), val3, q) */\n      mulmod\n        /* \"src/Verifier.sol\":21756:21759  S3y */\n      0x2ce6b0834b7bba47a0972f70f613d40b2f66ec401161f42bc0cc2ab802048227\n        /* \"src/Verifier.sol\":21731:21734  S3x */\n      0x0bb071cfe5e5f1e18bbcd462d29b5f157c648b683841caf9033d45096d95c9e9\n        /* \"src/Verifier.sol\":21706:21708  64 */\n      0x40\n        /* \"src/Verifier.sol\":21701:21704  mIn */\n      dup12\n        /* \"src/Verifier.sol\":21697:21709  add(mIn, 64) */\n      add\n        /* \"src/Verifier.sol\":21665:21837  g1_mulSetC(... */\n      tag_25\n      jump\t// in\n    tag_83:\n        /* \"src/Verifier.sol\":21905:21939  g1_calldataSet(add(mIn, 128), pT1) */\n      tag_84\n        /* \"src/Verifier.sol\":21935:21938  pT1 */\n      0x0104\n        /* \"src/Verifier.sol\":21929:21932  128 */\n      0x80\n        /* \"src/Verifier.sol\":21924:21927  mIn */\n      dup10\n        /* \"src/Verifier.sol\":21920:21933  add(mIn, 128) */\n      add\n        /* \"src/Verifier.sol\":21905:21939  g1_calldataSet(add(mIn, 128), pT1) */\n      tag_21\n      jump\t// in\n    tag_84:\n        /* \"src/Verifier.sol\":21957:22151  g1_mulAccC(... */\n      tag_85\n        /* \"src/Verifier.sol\":22127:22131  pXin */\n      0x80\n        /* \"src/Verifier.sol\":22121:22125  pMem */\n      dup12\n        /* \"src/Verifier.sol\":22117:22132  add(pMem, pXin) */\n      add\n        /* \"src/Verifier.sol\":22111:22133  mload(add(pMem, pXin)) */\n      mload\n        /* \"src/Verifier.sol\":22085:22087  32 */\n      0x20\n        /* \"src/Verifier.sol\":22080:22083  pT2 */\n      0x0144\n        /* \"src/Verifier.sol\":22076:22088  add(pT2, 32) */\n      add\n        /* \"src/Verifier.sol\":22063:22089  calldataload(add(pT2, 32)) */\n      calldataload\n        /* \"src/Verifier.sol\":22037:22040  pT2 */\n      0x0144\n        /* \"src/Verifier.sol\":22024:22041  calldataload(pT2) */\n      calldataload\n        /* \"src/Verifier.sol\":21998:22001  128 */\n      0x80\n        /* \"src/Verifier.sol\":21993:21996  mIn */\n      dup12\n        /* \"src/Verifier.sol\":21989:22002  add(mIn, 128) */\n      add\n        /* \"src/Verifier.sol\":21957:22151  g1_mulAccC(... */\n      tag_24\n      jump\t// in\n    tag_85:\n        /* \"src/Verifier.sol\":22296:22297  q */\n      0x30644e72e131a029b85045b68181585d2833e84879b9709143e1f593f0000001\n        /* \"src/Verifier.sol\":22268:22272  pXin */\n      0x80\n        /* \"src/Verifier.sol\":22262:22266  pMem */\n      dup12\n        /* \"src/Verifier.sol\":22258:22273  add(pMem, pXin) */\n      add\n        /* \"src/Verifier.sol\":22252:22274  mload(add(pMem, pXin)) */\n      mload\n        /* \"src/Verifier.sol\":22224:22228  pXin */\n      0x80\n        /* \"src/Verifier.sol\":22218:22222  pMem */\n      dup13\n        /* \"src/Verifier.sol\":22214:22229  add(pMem, pXin) */\n      add\n        /* \"src/Verifier.sol\":22208:22230  mload(add(pMem, pXin)) */\n      mload\n        /* \"src/Verifier.sol\":22180:22315  mulmod(... */\n      mulmod\n        /* \"src/Verifier.sol\":22332:22508  g1_mulAccC(... */\n      tag_86\n        /* \"src/Verifier.sol\":22486:22490  xin2 */\n      dup2\n        /* \"src/Verifier.sol\":22460:22462  32 */\n      0x20\n        /* \"src/Verifier.sol\":22455:22458  pT3 */\n      0x0184\n        /* \"src/Verifier.sol\":22451:22463  add(pT3, 32) */\n      add\n        /* \"src/Verifier.sol\":22438:22464  calldataload(add(pT3, 32)) */\n      calldataload\n        /* \"src/Verifier.sol\":22412:22415  pT3 */\n      0x0184\n        /* \"src/Verifier.sol\":22399:22416  calldataload(pT3) */\n      calldataload\n        /* \"src/Verifier.sol\":22373:22376  128 */\n      0x80\n        /* \"src/Verifier.sol\":22368:22371  mIn */\n      dup13\n        /* \"src/Verifier.sol\":22364:22377  add(mIn, 128) */\n      add\n        /* \"src/Verifier.sol\":22332:22508  g1_mulAccC(... */\n      tag_24\n      jump\t// in\n    tag_86:\n        /* \"src/Verifier.sol\":22526:22716  g1_mulSetC(... */\n      tag_87\n        /* \"src/Verifier.sol\":22693:22696  pZh */\n      0x02e0\n        /* \"src/Verifier.sol\":22687:22691  pMem */\n      dup13\n        /* \"src/Verifier.sol\":22683:22697  add(pMem, pZh) */\n      add\n        /* \"src/Verifier.sol\":22677:22698  mload(add(pMem, pZh)) */\n      mload\n        /* \"src/Verifier.sol\":22650:22653  160 */\n      0xa0\n        /* \"src/Verifier.sol\":22645:22648  mIn */\n      dup11\n        /* \"src/Verifier.sol\":22641:22654  add(mIn, 160) */\n      add\n        /* \"src/Verifier.sol\":22635:22655  mload(add(mIn, 160)) */\n      mload\n        /* \"src/Verifier.sol\":22608:22611  128 */\n      0x80\n        /* \"src/Verifier.sol\":22603:22606  mIn */\n      dup12\n        /* \"src/Verifier.sol\":22599:22612  add(mIn, 128) */\n      add\n        /* \"src/Verifier.sol\":22593:22613  mload(add(mIn, 128)) */\n      mload\n        /* \"src/Verifier.sol\":22567:22570  128 */\n      0x80\n        /* \"src/Verifier.sol\":22562:22565  mIn */\n      dup13\n        /* \"src/Verifier.sol\":22558:22571  add(mIn, 128) */\n      add\n        /* \"src/Verifier.sol\":22526:22716  g1_mulSetC(... */\n      tag_25\n      jump\t// in\n    tag_87:\n        /* \"src/Verifier.sol\":22848:22850  qf */\n      0x30644e72e131a029b85045b68181585d97816a916871ca8d3c208c16d87cfd47\n        /* \"src/Verifier.sol\":22841:22843  32 */\n      0x20\n        /* \"src/Verifier.sol\":22836:22838  64 */\n      0x40\n        /* \"src/Verifier.sol\":22831:22834  mIn */\n      dup11\n        /* \"src/Verifier.sol\":22827:22839  add(mIn, 64) */\n      add\n        /* \"src/Verifier.sol\":22823:22844  add(add(mIn, 64), 32) */\n      add\n        /* \"src/Verifier.sol\":22817:22845  mload(add(add(mIn, 64), 32)) */\n      mload\n        /* \"src/Verifier.sol\":22813:22815  qf */\n      0x30644e72e131a029b85045b68181585d97816a916871ca8d3c208c16d87cfd47\n        /* \"src/Verifier.sol\":22809:22846  sub(qf, mload(add(add(mIn, 64), 32))) */\n      sub\n        /* \"src/Verifier.sol\":22805:22851  mod(sub(qf, mload(add(add(mIn, 64), 32))), qf) */\n      mod\n        /* \"src/Verifier.sol\":22780:22782  32 */\n      0x20\n        /* \"src/Verifier.sol\":22775:22777  64 */\n      0x40\n        /* \"src/Verifier.sol\":22770:22773  mIn */\n      dup11\n        /* \"src/Verifier.sol\":22766:22778  add(mIn, 64) */\n      add\n        /* \"src/Verifier.sol\":22762:22783  add(add(mIn, 64), 32) */\n      add\n        /* \"src/Verifier.sol\":22734:22869  mstore(... */\n      mstore\n        /* \"src/Verifier.sol\":22943:22945  qf */\n      0x30644e72e131a029b85045b68181585d97816a916871ca8d3c208c16d87cfd47\n        /* \"src/Verifier.sol\":22935:22938  160 */\n      0xa0\n        /* \"src/Verifier.sol\":22930:22933  mIn */\n      dup10\n        /* \"src/Verifier.sol\":22926:22939  add(mIn, 160) */\n      add\n        /* \"src/Verifier.sol\":22920:22940  mload(add(mIn, 160)) */\n      mload\n        /* \"src/Verifier.sol\":22916:22918  qf */\n      0x30644e72e131a029b85045b68181585d97816a916871ca8d3c208c16d87cfd47\n        /* \"src/Verifier.sol\":22912:22941  sub(qf, mload(add(mIn, 160))) */\n      sub\n        /* \"src/Verifier.sol\":22908:22946  mod(sub(qf, mload(add(mIn, 160))), qf) */\n      mod\n        /* \"src/Verifier.sol\":22902:22905  160 */\n      0xa0\n        /* \"src/Verifier.sol\":22897:22900  mIn */\n      dup10\n        /* \"src/Verifier.sol\":22893:22906  add(mIn, 160) */\n      add\n        /* \"src/Verifier.sol\":22886:22947  mstore(add(mIn, 160), mod(sub(qf, mload(add(mIn, 160))), qf)) */\n      mstore\n        /* \"src/Verifier.sol\":22964:22980  g1_acc(_pD, mIn) */\n      tag_88\n        /* \"src/Verifier.sol\":22976:22979  mIn */\n      dup9\n        /* \"src/Verifier.sol\":22971:22974  _pD */\n      dup12\n        /* \"src/Verifier.sol\":22964:22980  g1_acc(_pD, mIn) */\n      tag_22\n      jump\t// in\n    tag_88:\n        /* \"src/Verifier.sol\":22997:23022  g1_acc(_pD, add(mIn, 64)) */\n      tag_89\n        /* \"src/Verifier.sol\":23018:23020  64 */\n      0x40\n        /* \"src/Verifier.sol\":23013:23016  mIn */\n      dup10\n        /* \"src/Verifier.sol\":23009:23021  add(mIn, 64) */\n      add\n        /* \"src/Verifier.sol\":23004:23007  _pD */\n      dup12\n        /* \"src/Verifier.sol\":22997:23022  g1_acc(_pD, add(mIn, 64)) */\n      tag_22\n      jump\t// in\n    tag_89:\n        /* \"src/Verifier.sol\":23039:23065  g1_acc(_pD, add(mIn, 128)) */\n      tag_90\n        /* \"src/Verifier.sol\":23060:23063  128 */\n      0x80\n        /* \"src/Verifier.sol\":23055:23058  mIn */\n      dup10\n        /* \"src/Verifier.sol\":23051:23064  add(mIn, 128) */\n      add\n        /* \"src/Verifier.sol\":23046:23049  _pD */\n      dup12\n        /* \"src/Verifier.sol\":23039:23065  g1_acc(_pD, add(mIn, 128)) */\n      tag_22\n      jump\t// in\n    tag_90:\n        /* \"src/Verifier.sol\":18616:23079  {... */\n      pop\n      pop\n      pop\n      pop\n      pop\n      pop\n      pop\n      pop\n      pop\n      pop\n        /* \"src/Verifier.sol\":18590:23079  function calculateD(pMem) {... */\n      pop\n      jump\t// out\n        /* \"src/Verifier.sol\":23093:23929  function calculateF(pMem) {... */\n    tag_28:\n        /* \"src/Verifier.sol\":23156:23158  pF */\n      0x0200\n        /* \"src/Verifier.sol\":23150:23154  pMem */\n      dup2\n        /* \"src/Verifier.sol\":23146:23159  add(pMem, pF) */\n      add\n        /* \"src/Verifier.sol\":23177:23201  g1_set(p, add(pMem, pD)) */\n      tag_92\n        /* \"src/Verifier.sol\":23197:23199  pD */\n      0x01c0\n        /* \"src/Verifier.sol\":23191:23195  pMem */\n      dup4\n        /* \"src/Verifier.sol\":23187:23200  add(pMem, pD) */\n      add\n        /* \"src/Verifier.sol\":23184:23185  p */\n      dup3\n        /* \"src/Verifier.sol\":23177:23201  g1_set(p, add(pMem, pD)) */\n      tag_19\n      jump\t// in\n    tag_92:\n        /* \"src/Verifier.sol\":23218:23397  g1_mulAccC(... */\n      tag_93\n        /* \"src/Verifier.sol\":23374:23377  pV1 */\n      0xc0\n        /* \"src/Verifier.sol\":23368:23372  pMem */\n      dup4\n        /* \"src/Verifier.sol\":23364:23378  add(pMem, pV1) */\n      add\n        /* \"src/Verifier.sol\":23358:23379  mload(add(pMem, pV1)) */\n      mload\n        /* \"src/Verifier.sol\":23332:23334  32 */\n      0x20\n        /* \"src/Verifier.sol\":23328:23330  pA */\n      0x04\n        /* \"src/Verifier.sol\":23324:23335  add(pA, 32) */\n      add\n        /* \"src/Verifier.sol\":23311:23336  calldataload(add(pA, 32)) */\n      calldataload\n        /* \"src/Verifier.sol\":23286:23288  pA */\n      0x04\n        /* \"src/Verifier.sol\":23273:23289  calldataload(pA) */\n      calldataload\n        /* \"src/Verifier.sol\":23250:23251  p */\n      dup5\n        /* \"src/Verifier.sol\":23218:23397  g1_mulAccC(... */\n      tag_24\n      jump\t// in\n    tag_93:\n        /* \"src/Verifier.sol\":23414:23593  g1_mulAccC(... */\n      tag_94\n        /* \"src/Verifier.sol\":23570:23573  pV2 */\n      0xe0\n        /* \"src/Verifier.sol\":23564:23568  pMem */\n      dup4\n        /* \"src/Verifier.sol\":23560:23574  add(pMem, pV2) */\n      add\n        /* \"src/Verifier.sol\":23554:23575  mload(add(pMem, pV2)) */\n      mload\n        /* \"src/Verifier.sol\":23528:23530  32 */\n      0x20\n        /* \"src/Verifier.sol\":23524:23526  pB */\n      0x44\n        /* \"src/Verifier.sol\":23520:23531  add(pB, 32) */\n      add\n        /* \"src/Verifier.sol\":23507:23532  calldataload(add(pB, 32)) */\n      calldataload\n        /* \"src/Verifier.sol\":23482:23484  pB */\n      0x44\n        /* \"src/Verifier.sol\":23469:23485  calldataload(pB) */\n      calldataload\n        /* \"src/Verifier.sol\":23446:23447  p */\n      dup5\n        /* \"src/Verifier.sol\":23414:23593  g1_mulAccC(... */\n      tag_24\n      jump\t// in\n    tag_94:\n        /* \"src/Verifier.sol\":23610:23789  g1_mulAccC(... */\n      tag_95\n        /* \"src/Verifier.sol\":23766:23769  pV3 */\n      0x0100\n        /* \"src/Verifier.sol\":23760:23764  pMem */\n      dup4\n        /* \"src/Verifier.sol\":23756:23770  add(pMem, pV3) */\n      add\n        /* \"src/Verifier.sol\":23750:23771  mload(add(pMem, pV3)) */\n      mload\n        /* \"src/Verifier.sol\":23724:23726  32 */\n      0x20\n        /* \"src/Verifier.sol\":23720:23722  pC */\n      0x84\n        /* \"src/Verifier.sol\":23716:23727  add(pC, 32) */\n      add\n        /* \"src/Verifier.sol\":23703:23728  calldataload(add(pC, 32)) */\n      calldataload\n        /* \"src/Verifier.sol\":23678:23680  pC */\n      0x84\n        /* \"src/Verifier.sol\":23665:23681  calldataload(pC) */\n      calldataload\n        /* \"src/Verifier.sol\":23642:23643  p */\n      dup5\n        /* \"src/Verifier.sol\":23610:23789  g1_mulAccC(... */\n      tag_24\n      jump\t// in\n    tag_95:\n        /* \"src/Verifier.sol\":23806:23852  g1_mulAccC(p, S1x, S1y, mload(add(pMem, pV4))) */\n      tag_96\n        /* \"src/Verifier.sol\":23846:23849  pV4 */\n      0x0120\n        /* \"src/Verifier.sol\":23840:23844  pMem */\n      dup4\n        /* \"src/Verifier.sol\":23836:23850  add(pMem, pV4) */\n      add\n        /* \"src/Verifier.sol\":23830:23851  mload(add(pMem, pV4)) */\n      mload\n        /* \"src/Verifier.sol\":23825:23828  S1y */\n      0x09bebc383182d60239a1676131559f775274c9f3a60a40c1decb91bd1652edd8\n        /* \"src/Verifier.sol\":23820:23823  S1x */\n      0x05f52e577242bbd714129198820be347dd61940ebd3a29eacd6cd2f91a6c8c14\n        /* \"src/Verifier.sol\":23817:23818  p */\n      dup5\n        /* \"src/Verifier.sol\":23806:23852  g1_mulAccC(p, S1x, S1y, mload(add(pMem, pV4))) */\n      tag_24\n      jump\t// in\n    tag_96:\n        /* \"src/Verifier.sol\":23869:23915  g1_mulAccC(p, S2x, S2y, mload(add(pMem, pV5))) */\n      tag_97\n        /* \"src/Verifier.sol\":23909:23912  pV5 */\n      0x0140\n        /* \"src/Verifier.sol\":23903:23907  pMem */\n      dup4\n        /* \"src/Verifier.sol\":23899:23913  add(pMem, pV5) */\n      add\n        /* \"src/Verifier.sol\":23893:23914  mload(add(pMem, pV5)) */\n      mload\n        /* \"src/Verifier.sol\":23888:23891  S2y */\n      0x0953a04a4a70e490d204d95535ad4cb26a3b624a9ba2374d22a6e1d1876fa16c\n        /* \"src/Verifier.sol\":23883:23886  S2x */\n      0x6304c95a8100438a1c93d627082acbb136b4e9769ab34887f667f1ae7b6a99\n        /* \"src/Verifier.sol\":23880:23881  p */\n      dup5\n        /* \"src/Verifier.sol\":23869:23915  g1_mulAccC(p, S2x, S2y, mload(add(pMem, pV5))) */\n      tag_24\n      jump\t// in\n    tag_97:\n        /* \"src/Verifier.sol\":23119:23929  {... */\n      pop\n        /* \"src/Verifier.sol\":23093:23929  function calculateF(pMem) {... */\n      pop\n      jump\t// out\n        /* \"src/Verifier.sol\":23943:25125  function calculateE(pMem) {... */\n    tag_29:\n        /* \"src/Verifier.sol\":24036:24037  q */\n      0x30644e72e131a029b85045b68181585d2833e84879b9709143e1f593f0000001\n        /* \"src/Verifier.sol\":24023:24031  pEval_r0 */\n      0x01a0\n        /* \"src/Verifier.sol\":24017:24021  pMem */\n      dup3\n        /* \"src/Verifier.sol\":24013:24032  add(pMem, pEval_r0) */\n      add\n        /* \"src/Verifier.sol\":24007:24033  mload(add(pMem, pEval_r0)) */\n      mload\n        /* \"src/Verifier.sol\":24004:24005  q */\n      0x30644e72e131a029b85045b68181585d2833e84879b9709143e1f593f0000001\n        /* \"src/Verifier.sol\":24000:24034  sub(q, mload(add(pMem, pEval_r0))) */\n      sub\n        /* \"src/Verifier.sol\":23996:24038  mod(sub(q, mload(add(pMem, pEval_r0))), q) */\n      mod\n        /* \"src/Verifier.sol\":24189:24190  q */\n      0x30644e72e131a029b85045b68181585d2833e84879b9709143e1f593f0000001\n        /* \"src/Verifier.sol\":24165:24166  q */\n      dup1\n        /* \"src/Verifier.sol\":24158:24161  pV1 */\n      0xc0\n        /* \"src/Verifier.sol\":24152:24156  pMem */\n      dup5\n        /* \"src/Verifier.sol\":24148:24162  add(pMem, pV1) */\n      add\n        /* \"src/Verifier.sol\":24142:24163  mload(add(pMem, pV1)) */\n      mload\n        /* \"src/Verifier.sol\":24132:24139  pEval_a */\n      0x0244\n        /* \"src/Verifier.sol\":24119:24140  calldataload(pEval_a) */\n      calldataload\n        /* \"src/Verifier.sol\":24112:24167  mulmod(calldataload(pEval_a), mload(add(pMem, pV1)), q) */\n      mulmod\n        /* \"src/Verifier.sol\":24089:24090  s */\n      dup3\n        /* \"src/Verifier.sol\":24061:24208  addmod(... */\n      addmod\n        /* \"src/Verifier.sol\":24056:24208  s := addmod(... */\n      swap1\n      pop\n        /* \"src/Verifier.sol\":24358:24359  q */\n      0x30644e72e131a029b85045b68181585d2833e84879b9709143e1f593f0000001\n        /* \"src/Verifier.sol\":24334:24335  q */\n      dup1\n        /* \"src/Verifier.sol\":24327:24330  pV2 */\n      0xe0\n        /* \"src/Verifier.sol\":24321:24325  pMem */\n      dup5\n        /* \"src/Verifier.sol\":24317:24331  add(pMem, pV2) */\n      add\n        /* \"src/Verifier.sol\":24311:24332  mload(add(pMem, pV2)) */\n      mload\n        /* \"src/Verifier.sol\":24301:24308  pEval_b */\n      0x0264\n        /* \"src/Verifier.sol\":24288:24309  calldataload(pEval_b) */\n      calldataload\n        /* \"src/Verifier.sol\":24281:24336  mulmod(calldataload(pEval_b), mload(add(pMem, pV2)), q) */\n      mulmod\n        /* \"src/Verifier.sol\":24258:24259  s */\n      dup3\n        /* \"src/Verifier.sol\":24230:24377  addmod(... */\n      addmod\n        /* \"src/Verifier.sol\":24225:24377  s := addmod(... */\n      swap1\n      pop\n        /* \"src/Verifier.sol\":24527:24528  q */\n      0x30644e72e131a029b85045b68181585d2833e84879b9709143e1f593f0000001\n        /* \"src/Verifier.sol\":24503:24504  q */\n      dup1\n        /* \"src/Verifier.sol\":24496:24499  pV3 */\n      0x0100\n        /* \"src/Verifier.sol\":24490:24494  pMem */\n      dup5\n        /* \"src/Verifier.sol\":24486:24500  add(pMem, pV3) */\n      add\n        /* \"src/Verifier.sol\":24480:24501  mload(add(pMem, pV3)) */\n      mload\n        /* \"src/Verifier.sol\":24470:24477  pEval_c */\n      0x0284\n        /* \"src/Verifier.sol\":24457:24478  calldataload(pEval_c) */\n      calldataload\n        /* \"src/Verifier.sol\":24450:24505  mulmod(calldataload(pEval_c), mload(add(pMem, pV3)), q) */\n      mulmod\n        /* \"src/Verifier.sol\":24427:24428  s */\n      dup3\n        /* \"src/Verifier.sol\":24399:24546  addmod(... */\n      addmod\n        /* \"src/Verifier.sol\":24394:24546  s := addmod(... */\n      swap1\n      pop\n        /* \"src/Verifier.sol\":24697:24698  q */\n      0x30644e72e131a029b85045b68181585d2833e84879b9709143e1f593f0000001\n        /* \"src/Verifier.sol\":24673:24674  q */\n      dup1\n        /* \"src/Verifier.sol\":24666:24669  pV4 */\n      0x0120\n        /* \"src/Verifier.sol\":24660:24664  pMem */\n      dup5\n        /* \"src/Verifier.sol\":24656:24670  add(pMem, pV4) */\n      add\n        /* \"src/Verifier.sol\":24650:24671  mload(add(pMem, pV4)) */\n      mload\n        /* \"src/Verifier.sol\":24639:24647  pEval_s1 */\n      0x02a4\n        /* \"src/Verifier.sol\":24626:24648  calldataload(pEval_s1) */\n      calldataload\n        /* \"src/Verifier.sol\":24619:24675  mulmod(calldataload(pEval_s1), mload(add(pMem, pV4)), q) */\n      mulmod\n        /* \"src/Verifier.sol\":24596:24597  s */\n      dup3\n        /* \"src/Verifier.sol\":24568:24716  addmod(... */\n      addmod\n        /* \"src/Verifier.sol\":24563:24716  s := addmod(... */\n      swap1\n      pop\n        /* \"src/Verifier.sol\":24867:24868  q */\n      0x30644e72e131a029b85045b68181585d2833e84879b9709143e1f593f0000001\n        /* \"src/Verifier.sol\":24843:24844  q */\n      dup1\n        /* \"src/Verifier.sol\":24836:24839  pV5 */\n      0x0140\n        /* \"src/Verifier.sol\":24830:24834  pMem */\n      dup5\n        /* \"src/Verifier.sol\":24826:24840  add(pMem, pV5) */\n      add\n        /* \"src/Verifier.sol\":24820:24841  mload(add(pMem, pV5)) */\n      mload\n        /* \"src/Verifier.sol\":24809:24817  pEval_s2 */\n      0x02c4\n        /* \"src/Verifier.sol\":24796:24818  calldataload(pEval_s2) */\n      calldataload\n        /* \"src/Verifier.sol\":24789:24845  mulmod(calldataload(pEval_s2), mload(add(pMem, pV5)), q) */\n      mulmod\n        /* \"src/Verifier.sol\":24766:24767  s */\n      dup3\n        /* \"src/Verifier.sol\":24738:24886  addmod(... */\n      addmod\n        /* \"src/Verifier.sol\":24733:24886  s := addmod(... */\n      swap1\n      pop\n        /* \"src/Verifier.sol\":25036:25037  q */\n      0x30644e72e131a029b85045b68181585d2833e84879b9709143e1f593f0000001\n        /* \"src/Verifier.sol\":25012:25013  q */\n      dup1\n        /* \"src/Verifier.sol\":25006:25008  pU */\n      0x0160\n        /* \"src/Verifier.sol\":25000:25004  pMem */\n      dup5\n        /* \"src/Verifier.sol\":24996:25009  add(pMem, pU) */\n      add\n        /* \"src/Verifier.sol\":24990:25010  mload(add(pMem, pU)) */\n      mload\n        /* \"src/Verifier.sol\":24979:24987  pEval_zw */\n      0x02e4\n        /* \"src/Verifier.sol\":24966:24988  calldataload(pEval_zw) */\n      calldataload\n        /* \"src/Verifier.sol\":24959:25014  mulmod(calldataload(pEval_zw), mload(add(pMem, pU)), q) */\n      mulmod\n        /* \"src/Verifier.sol\":24936:24937  s */\n      dup3\n        /* \"src/Verifier.sol\":24908:25055  addmod(... */\n      addmod\n        /* \"src/Verifier.sol\":24903:25055  s := addmod(... */\n      swap1\n      pop\n        /* \"src/Verifier.sol\":25073:25111  g1_mulSetC(add(pMem, pE), G1x, G1y, s) */\n      tag_99\n        /* \"src/Verifier.sol\":25109:25110  s */\n      dup2\n        /* \"src/Verifier.sol\":25104:25107  G1y */\n      0x02\n        /* \"src/Verifier.sol\":25099:25102  G1x */\n      0x01\n        /* \"src/Verifier.sol\":25094:25096  pE */\n      0x0240\n        /* \"src/Verifier.sol\":25088:25092  pMem */\n      dup7\n        /* \"src/Verifier.sol\":25084:25097  add(pMem, pE) */\n      add\n        /* \"src/Verifier.sol\":25073:25111  g1_mulSetC(add(pMem, pE), G1x, G1y, s) */\n      tag_25\n      jump\t// in\n    tag_99:\n        /* \"src/Verifier.sol\":23969:25125  {... */\n      pop\n        /* \"src/Verifier.sol\":23943:25125  function calculateE(pMem) {... */\n      pop\n      jump\t// out\n        /* \"src/Verifier.sol\":25139:26990  function checkPairing(pMem) -> isOk {... */\n    tag_30:\n        /* \"src/Verifier.sol\":25170:25174  isOk */\n      0x00\n        /* \"src/Verifier.sol\":25210:25214  0x40 */\n      0x40\n        /* \"src/Verifier.sol\":25204:25215  mload(0x40) */\n      mload\n        /* \"src/Verifier.sol\":25254:25257  576 */\n      0x0240\n        /* \"src/Verifier.sol\":25249:25252  mIn */\n      dup2\n        /* \"src/Verifier.sol\":25245:25258  add(mIn, 576) */\n      add\n        /* \"src/Verifier.sol\":25239:25243  0x40 */\n      0x40\n        /* \"src/Verifier.sol\":25232:25259  mstore(0x40, add(mIn, 576)) */\n      mstore\n        /* \"src/Verifier.sol\":25365:25368  384 */\n      0x0180\n        /* \"src/Verifier.sol\":25360:25363  mIn */\n      dup2\n        /* \"src/Verifier.sol\":25356:25369  add(mIn, 384) */\n      add\n        /* \"src/Verifier.sol\":25409:25412  448 */\n      0x01c0\n        /* \"src/Verifier.sol\":25404:25407  mIn */\n      dup3\n        /* \"src/Verifier.sol\":25400:25413  add(mIn, 448) */\n      add\n        /* \"src/Verifier.sol\":25451:25454  512 */\n      0x0200\n        /* \"src/Verifier.sol\":25446:25449  mIn */\n      dup4\n        /* \"src/Verifier.sol\":25442:25455  add(mIn, 512) */\n      add\n        /* \"src/Verifier.sol\":25473:25500  g1_calldataSet(_pWxi, pWxi) */\n      tag_101\n        /* \"src/Verifier.sol\":25495:25499  pWxi */\n      0x01c4\n        /* \"src/Verifier.sol\":25488:25493  _pWxi */\n      dup5\n        /* \"src/Verifier.sol\":25473:25500  g1_calldataSet(_pWxi, pWxi) */\n      tag_21\n      jump\t// in\n    tag_101:\n        /* \"src/Verifier.sol\":25517:25546  g1_calldataSet(_pWxiw, pWxiw) */\n      tag_102\n        /* \"src/Verifier.sol\":25540:25545  pWxiw */\n      0x0204\n        /* \"src/Verifier.sol\":25532:25538  _pWxiw */\n      dup4\n        /* \"src/Verifier.sol\":25517:25546  g1_calldataSet(_pWxiw, pWxiw) */\n      tag_21\n      jump\t// in\n    tag_102:\n        /* \"src/Verifier.sol\":25586:25630  g1_mulSet(mIn, _pWxiw, mload(add(pMem, pU))) */\n      tag_103\n        /* \"src/Verifier.sol\":25625:25627  pU */\n      0x0160\n        /* \"src/Verifier.sol\":25619:25623  pMem */\n      dup8\n        /* \"src/Verifier.sol\":25615:25628  add(pMem, pU) */\n      add\n        /* \"src/Verifier.sol\":25609:25629  mload(add(pMem, pU)) */\n      mload\n        /* \"src/Verifier.sol\":25601:25607  _pWxiw */\n      dup4\n        /* \"src/Verifier.sol\":25596:25599  mIn */\n      dup7\n        /* \"src/Verifier.sol\":25586:25630  g1_mulSet(mIn, _pWxiw, mload(add(pMem, pU))) */\n      tag_26\n      jump\t// in\n    tag_103:\n        /* \"src/Verifier.sol\":25647:25665  g1_acc(mIn, _pWxi) */\n      tag_104\n        /* \"src/Verifier.sol\":25659:25664  _pWxi */\n      dup4\n        /* \"src/Verifier.sol\":25654:25657  mIn */\n      dup6\n        /* \"src/Verifier.sol\":25647:25665  g1_acc(mIn, _pWxi) */\n      tag_22\n      jump\t// in\n    tag_104:\n        /* \"src/Verifier.sol\":25737:25739  qf */\n      0x30644e72e131a029b85045b68181585d97816a916871ca8d3c208c16d87cfd47\n        /* \"src/Verifier.sol\":25730:25732  32 */\n      0x20\n        /* \"src/Verifier.sol\":25725:25728  mIn */\n      dup6\n        /* \"src/Verifier.sol\":25721:25733  add(mIn, 32) */\n      add\n        /* \"src/Verifier.sol\":25715:25734  mload(add(mIn, 32)) */\n      mload\n        /* \"src/Verifier.sol\":25711:25713  qf */\n      0x30644e72e131a029b85045b68181585d97816a916871ca8d3c208c16d87cfd47\n        /* \"src/Verifier.sol\":25707:25735  sub(qf, mload(add(mIn, 32))) */\n      sub\n        /* \"src/Verifier.sol\":25703:25740  mod(sub(qf, mload(add(mIn, 32))), qf) */\n      mod\n        /* \"src/Verifier.sol\":25698:25700  32 */\n      0x20\n        /* \"src/Verifier.sol\":25693:25696  mIn */\n      dup6\n        /* \"src/Verifier.sol\":25689:25701  add(mIn, 32) */\n      add\n        /* \"src/Verifier.sol\":25682:25741  mstore(add(mIn, 32), mod(sub(qf, mload(add(mIn, 32))), qf)) */\n      mstore\n        /* \"src/Verifier.sol\":25805:25809  X2x2 */\n      0x26186a2d65ee4d2f9c9a5b91f86597d35f192cd120caf7e935d8443d1938e23d\n        /* \"src/Verifier.sol\":25800:25802  64 */\n      0x40\n        /* \"src/Verifier.sol\":25795:25798  mIn */\n      dup6\n        /* \"src/Verifier.sol\":25791:25803  add(mIn, 64) */\n      add\n        /* \"src/Verifier.sol\":25784:25810  mstore(add(mIn, 64), X2x2) */\n      mstore\n        /* \"src/Verifier.sol\":25848:25852  X2x1 */\n      0x30441fd1b5d3370482c42152a8899027716989a6996c2535bc9f7fee8aaef79e\n        /* \"src/Verifier.sol\":25843:25845  96 */\n      0x60\n        /* \"src/Verifier.sol\":25838:25841  mIn */\n      dup6\n        /* \"src/Verifier.sol\":25834:25846  add(mIn, 96) */\n      add\n        /* \"src/Verifier.sol\":25827:25853  mstore(add(mIn, 96), X2x1) */\n      mstore\n        /* \"src/Verifier.sol\":25892:25896  X2y2 */\n      0x1970ea81dd6992adfbc571effb03503adbbb6a857f578403c6c40e22d65b3c02\n        /* \"src/Verifier.sol\":25886:25889  128 */\n      0x80\n        /* \"src/Verifier.sol\":25881:25884  mIn */\n      dup6\n        /* \"src/Verifier.sol\":25877:25890  add(mIn, 128) */\n      add\n        /* \"src/Verifier.sol\":25870:25897  mstore(add(mIn, 128), X2y2) */\n      mstore\n        /* \"src/Verifier.sol\":25936:25940  X2y1 */\n      0x054793348f12c0cf5622c340573cb277586319de359ab9389778f689786b1e48\n        /* \"src/Verifier.sol\":25930:25933  160 */\n      0xa0\n        /* \"src/Verifier.sol\":25925:25928  mIn */\n      dup6\n        /* \"src/Verifier.sol\":25921:25934  add(mIn, 160) */\n      add\n        /* \"src/Verifier.sol\":25914:25941  mstore(add(mIn, 160), X2y1) */\n      mstore\n        /* \"src/Verifier.sol\":25981:26035  g1_mulSet(add(mIn, 192), _pWxi, mload(add(pMem, pXi))) */\n      tag_105\n        /* \"src/Verifier.sol\":26029:26032  pXi */\n      0x60\n        /* \"src/Verifier.sol\":26023:26027  pMem */\n      dup8\n        /* \"src/Verifier.sol\":26019:26033  add(pMem, pXi) */\n      add\n        /* \"src/Verifier.sol\":26013:26034  mload(add(pMem, pXi)) */\n      mload\n        /* \"src/Verifier.sol\":26006:26011  _pWxi */\n      dup5\n        /* \"src/Verifier.sol\":26000:26003  192 */\n      0xc0\n        /* \"src/Verifier.sol\":25995:25998  mIn */\n      dup8\n        /* \"src/Verifier.sol\":25991:26004  add(mIn, 192) */\n      add\n        /* \"src/Verifier.sol\":25981:26035  g1_mulSet(add(mIn, 192), _pWxi, mload(add(pMem, pXi))) */\n      tag_26\n      jump\t// in\n    tag_105:\n        /* \"src/Verifier.sol\":26114:26115  q */\n      0x30644e72e131a029b85045b68181585d2833e84879b9709143e1f593f0000001\n        /* \"src/Verifier.sol\":26107:26110  pXi */\n      0x60\n        /* \"src/Verifier.sol\":26101:26105  pMem */\n      dup8\n        /* \"src/Verifier.sol\":26097:26111  add(pMem, pXi) */\n      add\n        /* \"src/Verifier.sol\":26091:26112  mload(add(pMem, pXi)) */\n      mload\n        /* \"src/Verifier.sol\":26085:26087  pU */\n      0x0160\n        /* \"src/Verifier.sol\":26079:26083  pMem */\n      dup9\n        /* \"src/Verifier.sol\":26075:26088  add(pMem, pU) */\n      add\n        /* \"src/Verifier.sol\":26069:26089  mload(add(pMem, pU)) */\n      mload\n        /* \"src/Verifier.sol\":26062:26116  mulmod(mload(add(pMem, pU)), mload(add(pMem, pXi)), q) */\n      mulmod\n        /* \"src/Verifier.sol\":26152:26153  q */\n      0x30644e72e131a029b85045b68181585d2833e84879b9709143e1f593f0000001\n        /* \"src/Verifier.sol\":26148:26150  w1 */\n      0x2b337de1c8c14f22ec9b9e2f96afef3652627366f8170a0a948dad4ac1bd5e80\n        /* \"src/Verifier.sol\":26145:26146  s */\n      dup3\n        /* \"src/Verifier.sol\":26138:26154  mulmod(s, w1, q) */\n      mulmod\n        /* \"src/Verifier.sol\":26133:26154  s := mulmod(s, w1, q) */\n      swap1\n      pop\n        /* \"src/Verifier.sol\":26171:26197  g1_mulSet(_aux, _pWxiw, s) */\n      tag_106\n        /* \"src/Verifier.sol\":26195:26196  s */\n      dup2\n        /* \"src/Verifier.sol\":26187:26193  _pWxiw */\n      dup5\n        /* \"src/Verifier.sol\":26181:26185  _aux */\n      dup5\n        /* \"src/Verifier.sol\":26171:26197  g1_mulSet(_aux, _pWxiw, s) */\n      tag_26\n      jump\t// in\n    tag_106:\n        /* \"src/Verifier.sol\":26214:26241  g1_acc(add(mIn, 192), _aux) */\n      tag_107\n        /* \"src/Verifier.sol\":26236:26240  _aux */\n      dup3\n        /* \"src/Verifier.sol\":26230:26233  192 */\n      0xc0\n        /* \"src/Verifier.sol\":26225:26228  mIn */\n      dup8\n        /* \"src/Verifier.sol\":26221:26234  add(mIn, 192) */\n      add\n        /* \"src/Verifier.sol\":26214:26241  g1_acc(add(mIn, 192), _aux) */\n      tag_22\n      jump\t// in\n    tag_107:\n        /* \"src/Verifier.sol\":26258:26294  g1_acc(add(mIn, 192), add(pMem, pF)) */\n      tag_108\n        /* \"src/Verifier.sol\":26290:26292  pF */\n      0x0200\n        /* \"src/Verifier.sol\":26284:26288  pMem */\n      dup9\n        /* \"src/Verifier.sol\":26280:26293  add(pMem, pF) */\n      add\n        /* \"src/Verifier.sol\":26274:26277  192 */\n      0xc0\n        /* \"src/Verifier.sol\":26269:26272  mIn */\n      dup8\n        /* \"src/Verifier.sol\":26265:26278  add(mIn, 192) */\n      add\n        /* \"src/Verifier.sol\":26258:26294  g1_acc(add(mIn, 192), add(pMem, pF)) */\n      tag_22\n      jump\t// in\n    tag_108:\n        /* \"src/Verifier.sol\":26427:26429  qf */\n      0x30644e72e131a029b85045b68181585d97816a916871ca8d3c208c16d87cfd47\n        /* \"src/Verifier.sol\":26419:26421  32 */\n      0x20\n        /* \"src/Verifier.sol\":26415:26417  pE */\n      0x0240\n        /* \"src/Verifier.sol\":26411:26422  add(pE, 32) */\n      add\n        /* \"src/Verifier.sol\":26405:26409  pMem */\n      dup9\n        /* \"src/Verifier.sol\":26401:26423  add(pMem, add(pE, 32)) */\n      add\n        /* \"src/Verifier.sol\":26395:26424  mload(add(pMem, add(pE, 32))) */\n      mload\n        /* \"src/Verifier.sol\":26391:26393  qf */\n      0x30644e72e131a029b85045b68181585d97816a916871ca8d3c208c16d87cfd47\n        /* \"src/Verifier.sol\":26387:26425  sub(qf, mload(add(pMem, add(pE, 32)))) */\n      sub\n        /* \"src/Verifier.sol\":26383:26430  mod(sub(qf, mload(add(pMem, add(pE, 32)))), qf) */\n      mod\n        /* \"src/Verifier.sol\":26357:26359  32 */\n      0x20\n        /* \"src/Verifier.sol\":26353:26355  pE */\n      0x0240\n        /* \"src/Verifier.sol\":26349:26360  add(pE, 32) */\n      add\n        /* \"src/Verifier.sol\":26343:26347  pMem */\n      dup9\n        /* \"src/Verifier.sol\":26339:26361  add(pMem, add(pE, 32)) */\n      add\n        /* \"src/Verifier.sol\":26311:26448  mstore(... */\n      mstore\n        /* \"src/Verifier.sol\":26465:26501  g1_acc(add(mIn, 192), add(pMem, pE)) */\n      tag_109\n        /* \"src/Verifier.sol\":26497:26499  pE */\n      0x0240\n        /* \"src/Verifier.sol\":26491:26495  pMem */\n      dup9\n        /* \"src/Verifier.sol\":26487:26500  add(pMem, pE) */\n      add\n        /* \"src/Verifier.sol\":26481:26484  192 */\n      0xc0\n        /* \"src/Verifier.sol\":26476:26479  mIn */\n      dup8\n        /* \"src/Verifier.sol\":26472:26485  add(mIn, 192) */\n      add\n        /* \"src/Verifier.sol\":26465:26501  g1_acc(add(mIn, 192), add(pMem, pE)) */\n      tag_22\n      jump\t// in\n    tag_109:\n        /* \"src/Verifier.sol\":26566:26570  G2x2 */\n      0x198e9393920d483a7260bfb731fb5d25f1aa493335a9e71297e485b7aef312c2\n        /* \"src/Verifier.sol\":26560:26563  256 */\n      0x0100\n        /* \"src/Verifier.sol\":26555:26558  mIn */\n      dup7\n        /* \"src/Verifier.sol\":26551:26564  add(mIn, 256) */\n      add\n        /* \"src/Verifier.sol\":26544:26571  mstore(add(mIn, 256), G2x2) */\n      mstore\n        /* \"src/Verifier.sol\":26610:26614  G2x1 */\n      0x1800deef121f1e76426a00665e5c4479674322d4f75edadd46debd5cd992f6ed\n        /* \"src/Verifier.sol\":26604:26607  288 */\n      0x0120\n        /* \"src/Verifier.sol\":26599:26602  mIn */\n      dup7\n        /* \"src/Verifier.sol\":26595:26608  add(mIn, 288) */\n      add\n        /* \"src/Verifier.sol\":26588:26615  mstore(add(mIn, 288), G2x1) */\n      mstore\n        /* \"src/Verifier.sol\":26654:26658  G2y2 */\n      0x090689d0585ff075ec9e99ad690c3395bc4b313370b38ef355acdadcd122975b\n        /* \"src/Verifier.sol\":26648:26651  320 */\n      0x0140\n        /* \"src/Verifier.sol\":26643:26646  mIn */\n      dup7\n        /* \"src/Verifier.sol\":26639:26652  add(mIn, 320) */\n      add\n        /* \"src/Verifier.sol\":26632:26659  mstore(add(mIn, 320), G2y2) */\n      mstore\n        /* \"src/Verifier.sol\":26698:26702  G2y1 */\n      0x12c85ea5db8c6deb4aab71808dcb408fe3d1e7690c43d37b4ce6cc0166fa7daa\n        /* \"src/Verifier.sol\":26692:26695  352 */\n      0x0160\n        /* \"src/Verifier.sol\":26687:26690  mIn */\n      dup7\n        /* \"src/Verifier.sol\":26683:26696  add(mIn, 352) */\n      add\n        /* \"src/Verifier.sol\":26676:26703  mstore(add(mIn, 352), G2y1) */\n      mstore\n        /* \"src/Verifier.sol\":26904:26908  0x20 */\n      0x20\n        /* \"src/Verifier.sol\":26879:26882  mIn */\n      dup6\n        /* \"src/Verifier.sol\":26854:26857  384 */\n      0x0180\n        /* \"src/Verifier.sol\":26829:26832  mIn */\n      dup8\n        /* \"src/Verifier.sol\":26806:26807  8 */\n      0x08\n        /* \"src/Verifier.sol\":26779:26783  2000 */\n      0x07d0\n        /* \"src/Verifier.sol\":26772:26777  gas() */\n      gas\n        /* \"src/Verifier.sol\":26768:26784  sub(gas(), 2000) */\n      sub\n        /* \"src/Verifier.sol\":26736:26926  staticcall(... */\n      staticcall\n        /* \"src/Verifier.sol\":26971:26974  mIn */\n      dup6\n        /* \"src/Verifier.sol\":26965:26975  mload(mIn) */\n      mload\n        /* \"src/Verifier.sol\":26956:26963  success */\n      dup2\n        /* \"src/Verifier.sol\":26952:26976  and(success, mload(mIn)) */\n      and\n        /* \"src/Verifier.sol\":26944:26976  isOk := and(success, mload(mIn)) */\n      swap7\n      pop\n        /* \"src/Verifier.sol\":25175:26990  {... */\n      pop\n      pop\n      pop\n      pop\n      pop\n      pop\n        /* \"src/Verifier.sol\":25139:26990  function checkPairing(pMem) -> isOk {... */\n      swap2\n      swap1\n      pop\n      jump\t// out\n    tag_31:\n        /* \"src/Verifier.sol\":27022:27026  0x40 */\n      0x40\n        /* \"src/Verifier.sol\":27016:27027  mload(0x40) */\n      mload\n        /* \"src/Verifier.sol\":27063:27070  lastMem */\n      0x0340\n        /* \"src/Verifier.sol\":27057:27061  pMem */\n      dup2\n        /* \"src/Verifier.sol\":27053:27071  add(pMem, lastMem) */\n      add\n        /* \"src/Verifier.sol\":27047:27051  0x40 */\n      0x40\n        /* \"src/Verifier.sol\":27040:27072  mstore(0x40, add(pMem, lastMem)) */\n      mstore\n        /* \"src/Verifier.sol\":27086:27098  checkInput() */\n      tag_110\n      tag_14\n      jump\t// in\n    tag_110:\n        /* \"src/Verifier.sol\":27111:27149  calculateChallenges(pMem, _pubSignals) */\n      tag_111\n        /* \"src/Verifier.sol\":27137:27148  _pubSignals */\n      dup4\n        /* \"src/Verifier.sol\":27131:27135  pMem */\n      dup3\n        /* \"src/Verifier.sol\":27111:27149  calculateChallenges(pMem, _pubSignals) */\n      tag_15\n      jump\t// in\n    tag_111:\n        /* \"src/Verifier.sol\":27162:27185  calculateLagrange(pMem) */\n      tag_112\n        /* \"src/Verifier.sol\":27180:27184  pMem */\n      dup2\n        /* \"src/Verifier.sol\":27162:27185  calculateLagrange(pMem) */\n      tag_16\n      jump\t// in\n    tag_112:\n        /* \"src/Verifier.sol\":27198:27228  calculatePI(pMem, _pubSignals) */\n      tag_113\n        /* \"src/Verifier.sol\":27216:27227  _pubSignals */\n      dup4\n        /* \"src/Verifier.sol\":27210:27214  pMem */\n      dup3\n        /* \"src/Verifier.sol\":27198:27228  calculatePI(pMem, _pubSignals) */\n      tag_17\n      jump\t// in\n    tag_113:\n        /* \"src/Verifier.sol\":27241:27258  calculateR0(pMem) */\n      tag_114\n        /* \"src/Verifier.sol\":27253:27257  pMem */\n      dup2\n        /* \"src/Verifier.sol\":27241:27258  calculateR0(pMem) */\n      tag_18\n      jump\t// in\n    tag_114:\n        /* \"src/Verifier.sol\":27271:27287  calculateD(pMem) */\n      tag_115\n        /* \"src/Verifier.sol\":27282:27286  pMem */\n      dup2\n        /* \"src/Verifier.sol\":27271:27287  calculateD(pMem) */\n      tag_27\n      jump\t// in\n    tag_115:\n        /* \"src/Verifier.sol\":27300:27316  calculateF(pMem) */\n      tag_116\n        /* \"src/Verifier.sol\":27311:27315  pMem */\n      dup2\n        /* \"src/Verifier.sol\":27300:27316  calculateF(pMem) */\n      tag_28\n      jump\t// in\n    tag_116:\n        /* \"src/Verifier.sol\":27329:27345  calculateE(pMem) */\n      tag_117\n        /* \"src/Verifier.sol\":27340:27344  pMem */\n      dup2\n        /* \"src/Verifier.sol\":27329:27345  calculateE(pMem) */\n      tag_29\n      jump\t// in\n    tag_117:\n        /* \"src/Verifier.sol\":27373:27391  checkPairing(pMem) */\n      tag_118\n        /* \"src/Verifier.sol\":27386:27390  pMem */\n      dup2\n        /* \"src/Verifier.sol\":27373:27391  checkPairing(pMem) */\n      tag_30\n      jump\t// in\n    tag_118:\n        /* \"src/Verifier.sol\":27428:27435  lastMem */\n      0x0340\n        /* \"src/Verifier.sol\":27422:27426  pMem */\n      dup3\n        /* \"src/Verifier.sol\":27418:27436  sub(pMem, lastMem) */\n      sub\n        /* \"src/Verifier.sol\":27412:27416  0x40 */\n      0x40\n        /* \"src/Verifier.sol\":27405:27437  mstore(0x40, sub(pMem, lastMem)) */\n      mstore\n        /* \"src/Verifier.sol\":27460:27467  isValid */\n      dup1\n        /* \"src/Verifier.sol\":27457:27458  0 */\n      0x00\n        /* \"src/Verifier.sol\":27450:27468  mstore(0, isValid) */\n      mstore\n        /* \"src/Verifier.sol\":27491:27495  0x20 */\n      0x20\n        /* \"src/Verifier.sol\":27488:27489  0 */\n      0x00\n        /* \"src/Verifier.sol\":27481:27496  return(0, 0x20) */\n      return\n        /* \"#utility.yul\":88:205   */\n    tag_120:\n        /* \"#utility.yul\":197:198   */\n      0x00\n        /* \"#utility.yul\":194:195   */\n      dup1\n        /* \"#utility.yul\":187:199   */\n      revert\n        /* \"#utility.yul\":334:451   */\n    tag_122:\n        /* \"#utility.yul\":443:444   */\n      0x00\n        /* \"#utility.yul\":440:441   */\n      dup1\n        /* \"#utility.yul\":433:445   */\n      revert\n        /* \"#utility.yul\":476:726   */\n    tag_123:\n        /* \"#utility.yul\":548:556   */\n      0x00\n        /* \"#utility.yul\":579:585   */\n      dup2\n        /* \"#utility.yul\":567:585   */\n      swap1\n      pop\n        /* \"#utility.yul\":632:635   */\n      dup3\n        /* \"#utility.yul\":624:628   */\n      0x20\n        /* \"#utility.yul\":618:622   */\n      0x18\n        /* \"#utility.yul\":614:629   */\n      mul\n        /* \"#utility.yul\":604:612   */\n      dup3\n        /* \"#utility.yul\":600:630   */\n      add\n        /* \"#utility.yul\":597:636   */\n      gt\n        /* \"#utility.yul\":594:720   */\n      iszero\n      tag_133\n      jumpi\n        /* \"#utility.yul\":639:718   */\n      tag_134\n      tag_122\n      jump\t// in\n    tag_134:\n        /* \"#utility.yul\":594:720   */\n    tag_133:\n        /* \"#utility.yul\":476:726   */\n      swap3\n      swap2\n      pop\n      pop\n      jump\t// out\n        /* \"#utility.yul\":750:999   */\n    tag_124:\n        /* \"#utility.yul\":821:829   */\n      0x00\n        /* \"#utility.yul\":852:858   */\n      dup2\n        /* \"#utility.yul\":840:858   */\n      swap1\n      pop\n        /* \"#utility.yul\":905:908   */\n      dup3\n        /* \"#utility.yul\":897:901   */\n      0x20\n        /* \"#utility.yul\":891:895   */\n      0x01\n        /* \"#utility.yul\":887:902   */\n      mul\n        /* \"#utility.yul\":877:885   */\n      dup3\n        /* \"#utility.yul\":873:903   */\n      add\n        /* \"#utility.yul\":870:909   */\n      gt\n        /* \"#utility.yul\":867:993   */\n      iszero\n      tag_136\n      jumpi\n        /* \"#utility.yul\":912:991   */\n      tag_137\n      tag_122\n      jump\t// in\n    tag_137:\n        /* \"#utility.yul\":867:993   */\n    tag_136:\n        /* \"#utility.yul\":750:999   */\n      swap3\n      swap2\n      pop\n      pop\n      jump\t// out\n        /* \"#utility.yul\":1005:1583   */\n    tag_6:\n        /* \"#utility.yul\":1124:1130   */\n      0x00\n        /* \"#utility.yul\":1132:1138   */\n      dup1\n        /* \"#utility.yul\":1181:1184   */\n      0x0320\n        /* \"#utility.yul\":1169:1178   */\n      dup4\n        /* \"#utility.yul\":1160:1167   */\n      dup6\n        /* \"#utility.yul\":1156:1179   */\n      sub\n        /* \"#utility.yul\":1152:1185   */\n      slt\n        /* \"#utility.yul\":1149:1269   */\n      iszero\n      tag_139\n      jumpi\n        /* \"#utility.yul\":1188:1267   */\n      tag_140\n      tag_120\n      jump\t// in\n    tag_140:\n        /* \"#utility.yul\":1149:1269   */\n    tag_139:\n        /* \"#utility.yul\":1308:1309   */\n      0x00\n        /* \"#utility.yul\":1333:1412   */\n      tag_141\n        /* \"#utility.yul\":1404:1411   */\n      dup6\n        /* \"#utility.yul\":1395:1401   */\n      dup3\n        /* \"#utility.yul\":1384:1393   */\n      dup7\n        /* \"#utility.yul\":1380:1402   */\n      add\n        /* \"#utility.yul\":1333:1412   */\n      tag_123\n      jump\t// in\n    tag_141:\n        /* \"#utility.yul\":1323:1412   */\n      swap3\n      pop\n        /* \"#utility.yul\":1279:1422   */\n      pop\n        /* \"#utility.yul\":1461:1464   */\n      0x0300\n        /* \"#utility.yul\":1488:1566   */\n      tag_142\n        /* \"#utility.yul\":1558:1565   */\n      dup6\n        /* \"#utility.yul\":1549:1555   */\n      dup3\n        /* \"#utility.yul\":1538:1547   */\n      dup7\n        /* \"#utility.yul\":1534:1556   */\n      add\n        /* \"#utility.yul\":1488:1566   */\n      tag_124\n      jump\t// in\n    tag_142:\n        /* \"#utility.yul\":1478:1566   */\n      swap2\n      pop\n        /* \"#utility.yul\":1432:1576   */\n      pop\n        /* \"#utility.yul\":1005:1583   */\n      swap3\n      pop\n      swap3\n      swap1\n      pop\n      jump\t// out\n        /* \"#utility.yul\":1589:1679   */\n    tag_125:\n        /* \"#utility.yul\":1623:1630   */\n      0x00\n        /* \"#utility.yul\":1666:1671   */\n      dup2\n        /* \"#utility.yul\":1659:1672   */\n      iszero\n        /* \"#utility.yul\":1652:1673   */\n      iszero\n        /* \"#utility.yul\":1641:1673   */\n      swap1\n      pop\n        /* \"#utility.yul\":1589:1679   */\n      swap2\n      swap1\n      pop\n      jump\t// out\n        /* \"#utility.yul\":1685:1794   */\n    tag_126:\n        /* \"#utility.yul\":1766:1787   */\n      tag_145\n        /* \"#utility.yul\":1781:1786   */\n      dup2\n        /* \"#utility.yul\":1766:1787   */\n      tag_125\n      jump\t// in\n    tag_145:\n        /* \"#utility.yul\":1761:1764   */\n      dup3\n        /* \"#utility.yul\":1754:1788   */\n      mstore\n        /* \"#utility.yul\":1685:1794   */\n      pop\n      pop\n      jump\t// out\n        /* \"#utility.yul\":1800:2010   */\n    tag_9:\n        /* \"#utility.yul\":1887:1891   */\n      0x00\n        /* \"#utility.yul\":1925:1927   */\n      0x20\n        /* \"#utility.yul\":1914:1923   */\n      dup3\n        /* \"#utility.yul\":1910:1928   */\n      add\n        /* \"#utility.yul\":1902:1928   */\n      swap1\n      pop\n        /* \"#utility.yul\":1938:2003   */\n      tag_147\n        /* \"#utility.yul\":2000:2001   */\n      0x00\n        /* \"#utility.yul\":1989:1998   */\n      dup4\n        /* \"#utility.yul\":1985:2002   */\n      add\n        /* \"#utility.yul\":1976:1982   */\n      dup5\n        /* \"#utility.yul\":1938:2003   */\n      tag_126\n      jump\t// in\n    tag_147:\n        /* \"#utility.yul\":1800:2010   */\n      swap3\n      swap2\n      pop\n      pop\n      jump\t// out\n\n    auxdata: 0xa2646970667358221220f41ac75639380d3ad26ab6e5fe5f5cae381a68bdca7cbd9c3c3c6c2f40737dfc64736f6c634300081a0033\n}\n",
				"bytecode": {
					"linkReferences": {},
					"object": "6080604052348015600e575f80fd5b506119908061001c5f395ff3fe608060405234801561000f575f80fd5b5060043610610029575f3560e01c8063ff7240a71461002d575b5f80fd5b610047600480360381019061004291906118e7565b61005d565b6040516100549190611941565b60405180910390f35b5f611830565b5f80600184845f805b8215610096578284059150848202860390508495508094508282028403905082935080925061006c565b60018411156100a3575f80fd5b5f8612156100b15788860195505b85965050505050505092915050565b6040518160208402830181516020830192505f5b82841015610117578185527f30644e72e131a029b85045b68181585d2833e84879b9709143e1f593f00000018451830991506020850194506020840193506100d4565b6101417f30644e72e131a029b85045b68181585d2833e84879b9709143e1f593f000000183610063565b91506020850394506020840393508592505b828411156101bd577f30644e72e131a029b85045b68181585d2833e84879b9709143e1f593f00000018551830990507f30644e72e131a029b85045b68181585d2833e84879b9709143e1f593f0000001845183099150808452602085039450602084039350610153565b81845250505050505050565b7f30644e72e131a029b85045b68181585d2833e84879b9709143e1f593f000000181106101f8575f805260205ff35b50565b610207610244356101c9565b610213610264356101c9565b61021f610284356101c9565b61022b6102a4356101c9565b6102376102c4356101c9565b6102436102e4356101c9565b565b5f806040517f16c267dd4cf30f26f0564eb51c466dc1a5c907efd67ec76692d35fb1cdda0ce881527f2655eb98e5bbd2d8f1cdef1730dd3ef40f2375004a0a298b21b9807aa244f03460208201527f1f9be742471045cc436a97a2c8664790c8a99112bfd7c5cdbdb00c574342d28660408201527f15d573fc890afebd6308281bf667988a2a7df914b371bc46645aeff185f42ab360608201525f60808201525f60a08201527f16c267dd4cf30f26f0564eb51c466dc1a5c907efd67ec76692d35fb1cdda0ce860c08201527f0a0e62d9fb75cd50c682569f50a41969885df5911e67a1021a670b9c36380d1360e08201525f6101008201525f6101208201527f05f52e577242bbd714129198820be347dd61940ebd3a29eacd6cd2f91a6c8c146101408201527f09bebc383182d60239a1676131559f775274c9f3a60a40c1decb91bd1652edd86101608201527e6304c95a8100438a1c93d627082acbb136b4e9769ab34887f667f1ae7b6a996101808201527f0953a04a4a70e490d204d95535ad4cb26a3b624a9ba2374d22a6e1d1876fa16c6101a08201527f0bb071cfe5e5f1e18bbcd462d29b5f157c648b683841caf9033d45096d95c9e96101c08201527f2ce6b0834b7bba47a0972f70f613d40b2f66ec401161f42bc0cc2ab8020482276101e08201525f8501356102008201526004356102208201526020600401356102408201526044356102608201526020604401356102808201526084356102a08201526020608401356102c08201527f30644e72e131a029b85045b68181585d2833e84879b9709143e1f593f00000016102e082200692508260208501527f30644e72e131a029b85045b68181585d2833e84879b9709143e1f593f0000001602080860120066040850152602084015181526040840151602082015260c4356040820152602060c4013560608201527f30644e72e131a029b85045b68181585d2833e84879b9709143e1f593f000000160808220069150815f8501527f30644e72e131a029b85045b68181585d2833e84879b9709143e1f593f00000018283096102c08501528181526101043560208201526020610104013560408201526101443560608201526020610144013560808201526101843560a08201526020610184013560c08201527f30644e72e131a029b85045b68181585d2833e84879b9709143e1f593f000000160e082200691508160608501528181526102443560208201526102643560408201526102843560608201526102a43560808201526102c43560a08201526102e43560c08201527f30644e72e131a029b85045b68181585d2833e84879b9709143e1f593f000000160e08220068060c08601527f30644e72e131a029b85045b68181585d2833e84879b9709143e1f593f000000183850960a08601527f30644e72e131a029b85045b68181585d2833e84879b9709143e1f593f000000183840992507f30644e72e131a029b85045b68181585d2833e84879b9709143e1f593f000000183840992507f30644e72e131a029b85045b68181585d2833e84879b9709143e1f593f000000183840992508260808601527f30644e72e131a029b85045b68181585d2833e84879b9709143e1f593f0000001806001850301069250826102e0860152826103008601527f30644e72e131a029b85045b68181585d2833e84879b9709143e1f593f000000181820992508260e08601527f30644e72e131a029b85045b68181585d2833e84879b9709143e1f593f00000018184099250826101008601527f30644e72e131a029b85045b68181585d2833e84879b9709143e1f593f00000018184099250826101208601527f30644e72e131a029b85045b68181585d2833e84879b9709143e1f593f00000018184099250826101408601526101c435825260206101c4013560208301526102043560408301526020610204013560608301527f30644e72e131a029b85045b68181585d2833e84879b9709143e1f593f00000016080832006610160860152505050505050565b60017f30644e72e131a029b85045b68181585d2833e84879b9709143e1f593f0000001807f30644e72e131a029b85045b68181585d2833e84879b9709143e1f593f0000001836060860151030106600809610320830152610870600261030084016100c0565b6102e0820151600191507f30644e72e131a029b85045b68181585d2833e84879b9709143e1f593f00000018161032085015109610320840152505050565b5f7f30644e72e131a029b85045b68181585d2833e84879b9709143e1f593f0000001807f30644e72e131a029b85045b68181585d2833e84879b9709143e1f593f00000015f8601356103208601510983030106905080610180830152505050565b6101808101517f30644e72e131a029b85045b68181585d2833e84879b9709143e1f593f00000016102c0830151610320840151097f30644e72e131a029b85045b68181585d2833e84879b9709143e1f593f0000001806102a43560208601510961024435087f30644e72e131a029b85045b68181585d2833e84879b9709143e1f593f00000016040850151820890507f30644e72e131a029b85045b68181585d2833e84879b9709143e1f593f0000001806102c43560208701510961026435087f30644e72e131a029b85045b68181585d2833e84879b9709143e1f593f00000016040860151820890507f30644e72e131a029b85045b68181585d2833e84879b9709143e1f593f0000001604086015161028435087f30644e72e131a029b85045b68181585d2833e84879b9709143e1f593f0000001817f30644e72e131a029b85045b68181585d2833e84879b9709143e1f593f0000001848609097f30644e72e131a029b85045b68181585d2833e84879b9709143e1f593f00000016102e435820990507f30644e72e131a029b85045b68181585d2833e84879b9709143e1f593f00000015f880151820990507f30644e72e131a029b85045b68181585d2833e84879b9709143e1f593f000000180867f30644e72e131a029b85045b68181585d2833e84879b9709143e1f593f0000001030687087f30644e72e131a029b85045b68181585d2833e84879b9709143e1f593f000000180837f30644e72e131a029b85045b68181585d2833e84879b9709143e1f593f0000001030682089050806101a08901525050505050505050565b81518152602082015160208201525050565b818152826020820152505050565b81358152602082013560208201525050565b6040518151815260208201516020820152825160408201526020830151606082015260408260808360066107d05a03fa80610bcf575f805260205ff35b50505050565b5f60405183815284602082015285604082015260408160608360076107d05a03fa915081610c05575f805260205ff35b825160408201526020830151606082015260408360808360066107d05a03fa915081610c33575f805260205ff35b505050505050565b5f60405183815284602082015285604082015260408360608360076107d05a03fa915081610c6b575f805260205ff35b505050505050565b610c84836020840151845184610c3b565b505050565b6101c0810160408201516040516101008101604052610ca95f8085610b72565b610d1e7f30644e72e131a029b85045b68181585d2833e84879b9709143e1f593f00000016102643561024435097f2655eb98e5bbd2d8f1cdef1730dd3ef40f2375004a0a298b21b9807aa244f0347f16c267dd4cf30f26f0564eb51c466dc1a5c907efd67ec76692d35fb1cdda0ce886610bd5565b610d6d610244357f15d573fc890afebd6308281bf667988a2a7df914b371bc46645aeff185f42ab37f1f9be742471045cc436a97a2c8664790c8a99112bfd7c5cdbdb00c574342d28686610bd5565b610d7c610264355f8086610bd5565b610dcb610284357f0a0e62d9fb75cd50c682569f50a41969885df5911e67a1021a670b9c36380d137f16c267dd4cf30f26f0564eb51c466dc1a5c907efd67ec76692d35fb1cdda0ce886610bd5565b60a08401517f30644e72e131a029b85045b68181585d2833e84879b9709143e1f593f0000001837f30644e72e131a029b85045b68181585d2833e84879b9709143e1f593f0000001836102443508087f30644e72e131a029b85045b68181585d2833e84879b9709143e1f593f0000001847f30644e72e131a029b85045b68181585d2833e84879b9709143e1f593f000000180600286096102643508087f30644e72e131a029b85045b68181585d2833e84879b9709143e1f593f0000001857f30644e72e131a029b85045b68181585d2833e84879b9709143e1f593f000000180600387096102843508087f30644e72e131a029b85045b68181585d2833e84879b9709143e1f593f00000015f8901517f30644e72e131a029b85045b68181585d2833e84879b9709143e1f593f0000001837f30644e72e131a029b85045b68181585d2833e84879b9709143e1f593f000000186880909097f30644e72e131a029b85045b68181585d2833e84879b9709143e1f593f00000016102c08a01516103208b015109610f5f60c460c08901610b80565b610fb87f30644e72e131a029b85045b68181585d2833e84879b9709143e1f593f00000016101608c01517f30644e72e131a029b85045b68181585d2833e84879b9709143e1f593f00000018486080860c0890189610c73565b7f30644e72e131a029b85045b68181585d2833e84879b9709143e1f593f0000001887f30644e72e131a029b85045b68181585d2833e84879b9709143e1f593f0000001806102a43560208f01510961024435080894507f30644e72e131a029b85045b68181585d2833e84879b9709143e1f593f0000001887f30644e72e131a029b85045b68181585d2833e84879b9709143e1f593f0000001806102c43560208f01510961026435080893507f30644e72e131a029b85045b68181585d2833e84879b9709143e1f593f00000016102e4357f30644e72e131a029b85045b68181585d2833e84879b9709143e1f593f000000160208d01515f8e01510909925061114c7f30644e72e131a029b85045b68181585d2833e84879b9709143e1f593f0000001847f30644e72e131a029b85045b68181585d2833e84879b9709143e1f593f0000001878909097f2ce6b0834b7bba47a0972f70f613d40b2f66ec401161f42bc0cc2ab8020482277f0bb071cfe5e5f1e18bbcd462d29b5f157c648b683841caf9033d45096d95c9e960408b01610c3b565b61115b61010460808901610b80565b61117760808b0151602061014401356101443560808b01610bd5565b7f30644e72e131a029b85045b68181585d2833e84879b9709143e1f593f000000160808b015160808c0151096111bb81602061018401356101843560808c01610bd5565b6111d76102e08c015160a08a015160808b015160808c01610c3b565b7f30644e72e131a029b85045b68181585d97816a916871ca8d3c208c16d87cfd47602060408a0101517f30644e72e131a029b85045b68181585d97816a916871ca8d3c208c16d87cfd470306602060408a0101527f30644e72e131a029b85045b68181585d97816a916871ca8d3c208c16d87cfd4760a08901517f30644e72e131a029b85045b68181585d97816a916871ca8d3c208c16d87cfd47030660a0890152611283888b610b92565b611290604089018b610b92565b61129d608089018b610b92565b5050505050505050505050565b61020081016112bd6101c0830182610b60565b6112d460c083015160206004013560043584610bd5565b6112eb60e083015160206044013560443584610bd5565b61130361010083015160206084013560843584610bd5565b6113546101208301517f09bebc383182d60239a1676131559f775274c9f3a60a40c1decb91bd1652edd87f05f52e577242bbd714129198820be347dd61940ebd3a29eacd6cd2f91a6c8c1484610bd5565b6113a46101408301517f0953a04a4a70e490d204d95535ad4cb26a3b624a9ba2374d22a6e1d1876fa16c7e6304c95a8100438a1c93d627082acbb136b4e9769ab34887f667f1ae7b6a9984610bd5565b5050565b7f30644e72e131a029b85045b68181585d2833e84879b9709143e1f593f00000016101a08201517f30644e72e131a029b85045b68181585d2833e84879b9709143e1f593f000000103067f30644e72e131a029b85045b68181585d2833e84879b9709143e1f593f00000018060c08401516102443509820890507f30644e72e131a029b85045b68181585d2833e84879b9709143e1f593f00000018060e08401516102643509820890507f30644e72e131a029b85045b68181585d2833e84879b9709143e1f593f0000001806101008401516102843509820890507f30644e72e131a029b85045b68181585d2833e84879b9709143e1f593f0000001806101208401516102a43509820890507f30644e72e131a029b85045b68181585d2833e84879b9709143e1f593f0000001806101408401516102c43509820890507f30644e72e131a029b85045b68181585d2833e84879b9709143e1f593f0000001806101608401516102e435098208905061152881600260016102408601610c3b565b5050565b5f604051610240810160405261018081016101c0820161020083016115536101c484610b80565b61155f61020483610b80565b61156f6101608701518386610c73565b6115798385610b92565b7f30644e72e131a029b85045b68181585d97816a916871ca8d3c208c16d87cfd4760208501517f30644e72e131a029b85045b68181585d97816a916871ca8d3c208c16d87cfd47030660208501527f26186a2d65ee4d2f9c9a5b91f86597d35f192cd120caf7e935d8443d1938e23d60408501527f30441fd1b5d3370482c42152a8899027716989a6996c2535bc9f7fee8aaef79e60608501527f1970ea81dd6992adfbc571effb03503adbbb6a857f578403c6c40e22d65b3c0260808501527f054793348f12c0cf5622c340573cb277586319de359ab9389778f689786b1e4860a085015261167160608701518460c08701610c73565b7f30644e72e131a029b85045b68181585d2833e84879b9709143e1f593f00000016060870151610160880151097f30644e72e131a029b85045b68181585d2833e84879b9709143e1f593f00000017f2b337de1c8c14f22ec9b9e2f96afef3652627366f8170a0a948dad4ac1bd5e80820990506116ef818484610c73565b6116fc8260c08701610b92565b61170d610200880160c08701610b92565b7f30644e72e131a029b85045b68181585d97816a916871ca8d3c208c16d87cfd476020610240018801517f30644e72e131a029b85045b68181585d97816a916871ca8d3c208c16d87cfd470306602061024001880152611774610240880160c08701610b92565b7f198e9393920d483a7260bfb731fb5d25f1aa493335a9e71297e485b7aef312c26101008601527f1800deef121f1e76426a00665e5c4479674322d4f75edadd46debd5cd992f6ed6101208601527f090689d0585ff075ec9e99ad690c3395bc4b313370b38ef355acdadcd122975b6101408601527f12c85ea5db8c6deb4aab71808dcb408fe3d1e7690c43d37b4ce6cc0166fa7daa6101608601526020856101808760086107d05a03fa855181169650505050505050919050565b60405161034081016040526118436101fb565b61184d8382610245565b6118568161080a565b61186083826108ae565b6118698161090f565b61187281610c89565b61187b816112aa565b611884816113a8565b61188d8161152c565b6103408203604052805f5260205ff35b5f80fd5b5f80fd5b5f819050826020601802820111156118c0576118bf6118a1565b5b92915050565b5f819050826020600102820111156118e1576118e06118a1565b5b92915050565b5f8061032083850312156118fe576118fd61189d565b5b5f61190b858286016118a5565b92505061030061191d858286016118c6565b9150509250929050565b5f8115159050919050565b61193b81611927565b82525050565b5f6020820190506119545f830184611932565b9291505056fea2646970667358221220f41ac75639380d3ad26ab6e5fe5f5cae381a68bdca7cbd9c3c3c6c2f40737dfc64736f6c634300081a0033",
					"opcodes": "PUSH1 0x80 PUSH1 0x40 MSTORE CALLVALUE DUP1 ISZERO PUSH1 0xE JUMPI PUSH0 DUP1 REVERT JUMPDEST POP PUSH2 0x1990 DUP1 PUSH2 0x1C PUSH0 CODECOPY PUSH0 RETURN INVALID PUSH1 0x80 PUSH1 0x40 MSTORE CALLVALUE DUP1 ISZERO PUSH2 0xF JUMPI PUSH0 DUP1 REVERT JUMPDEST POP PUSH1 0x4 CALLDATASIZE LT PUSH2 0x29 JUMPI PUSH0 CALLDATALOAD PUSH1 0xE0 SHR DUP1 PUSH4 0xFF7240A7 EQ PUSH2 0x2D JUMPI JUMPDEST PUSH0 DUP1 REVERT JUMPDEST PUSH2 0x47 PUSH1 0x4 DUP1 CALLDATASIZE SUB DUP2 ADD SWAP1 PUSH2 0x42 SWAP2 SWAP1 PUSH2 0x18E7 JUMP JUMPDEST PUSH2 0x5D JUMP JUMPDEST PUSH1 0x40 MLOAD PUSH2 0x54 SWAP2 SWAP1 PUSH2 0x1941 JUMP JUMPDEST PUSH1 0x40 MLOAD DUP1 SWAP2 SUB SWAP1 RETURN JUMPDEST PUSH0 PUSH2 0x1830 JUMP JUMPDEST PUSH0 DUP1 PUSH1 0x1 DUP5 DUP5 PUSH0 DUP1 JUMPDEST DUP3 ISZERO PUSH2 0x96 JUMPI DUP3 DUP5 SDIV SWAP2 POP DUP5 DUP3 MUL DUP7 SUB SWAP1 POP DUP5 SWAP6 POP DUP1 SWAP5 POP DUP3 DUP3 MUL DUP5 SUB SWAP1 POP DUP3 SWAP4 POP DUP1 SWAP3 POP PUSH2 0x6C JUMP JUMPDEST PUSH1 0x1 DUP5 GT ISZERO PUSH2 0xA3 JUMPI PUSH0 DUP1 REVERT JUMPDEST PUSH0 DUP7 SLT ISZERO PUSH2 0xB1 JUMPI DUP9 DUP7 ADD SWAP6 POP JUMPDEST DUP6 SWAP7 POP POP POP POP POP POP POP SWAP3 SWAP2 POP POP JUMP JUMPDEST PUSH1 0x40 MLOAD DUP2 PUSH1 0x20 DUP5 MUL DUP4 ADD DUP2 MLOAD PUSH1 0x20 DUP4 ADD SWAP3 POP PUSH0 JUMPDEST DUP3 DUP5 LT ISZERO PUSH2 0x117 JUMPI DUP2 DUP6 MSTORE PUSH32 0x30644E72E131A029B85045B68181585D2833E84879B9709143E1F593F0000001 DUP5 MLOAD DUP4 MULMOD SWAP2 POP PUSH1 0x20 DUP6 ADD SWAP5 POP PUSH1 0x20 DUP5 ADD SWAP4 POP PUSH2 0xD4 JUMP JUMPDEST PUSH2 0x141 PUSH32 0x30644E72E131A029B85045B68181585D2833E84879B9709143E1F593F0000001 DUP4 PUSH2 0x63 JUMP JUMPDEST SWAP2 POP PUSH1 0x20 DUP6 SUB SWAP5 POP PUSH1 0x20 DUP5 SUB SWAP4 POP DUP6 SWAP3 POP JUMPDEST DUP3 DUP5 GT ISZERO PUSH2 0x1BD JUMPI PUSH32 0x30644E72E131A029B85045B68181585D2833E84879B9709143E1F593F0000001 DUP6 MLOAD DUP4 MULMOD SWAP1 POP PUSH32 0x30644E72E131A029B85045B68181585D2833E84879B9709143E1F593F0000001 DUP5 MLOAD DUP4 MULMOD SWAP2 POP DUP1 DUP5 MSTORE PUSH1 0x20 DUP6 SUB SWAP5 POP PUSH1 0x20 DUP5 SUB SWAP4 POP PUSH2 0x153 JUMP JUMPDEST DUP2 DUP5 MSTORE POP POP POP POP POP POP POP JUMP JUMPDEST PUSH32 0x30644E72E131A029B85045B68181585D2833E84879B9709143E1F593F0000001 DUP2 LT PUSH2 0x1F8 JUMPI PUSH0 DUP1 MSTORE PUSH1 0x20 PUSH0 RETURN JUMPDEST POP JUMP JUMPDEST PUSH2 0x207 PUSH2 0x244 CALLDATALOAD PUSH2 0x1C9 JUMP JUMPDEST PUSH2 0x213 PUSH2 0x264 CALLDATALOAD PUSH2 0x1C9 JUMP JUMPDEST PUSH2 0x21F PUSH2 0x284 CALLDATALOAD PUSH2 0x1C9 JUMP JUMPDEST PUSH2 0x22B PUSH2 0x2A4 CALLDATALOAD PUSH2 0x1C9 JUMP JUMPDEST PUSH2 0x237 PUSH2 0x2C4 CALLDATALOAD PUSH2 0x1C9 JUMP JUMPDEST PUSH2 0x243 PUSH2 0x2E4 CALLDATALOAD PUSH2 0x1C9 JUMP JUMPDEST JUMP JUMPDEST PUSH0 DUP1 PUSH1 0x40 MLOAD PUSH32 0x16C267DD4CF30F26F0564EB51C466DC1A5C907EFD67EC76692D35FB1CDDA0CE8 DUP2 MSTORE PUSH32 0x2655EB98E5BBD2D8F1CDEF1730DD3EF40F2375004A0A298B21B9807AA244F034 PUSH1 0x20 DUP3 ADD MSTORE PUSH32 0x1F9BE742471045CC436A97A2C8664790C8A99112BFD7C5CDBDB00C574342D286 PUSH1 0x40 DUP3 ADD MSTORE PUSH32 0x15D573FC890AFEBD6308281BF667988A2A7DF914B371BC46645AEFF185F42AB3 PUSH1 0x60 DUP3 ADD MSTORE PUSH0 PUSH1 0x80 DUP3 ADD MSTORE PUSH0 PUSH1 0xA0 DUP3 ADD MSTORE PUSH32 0x16C267DD4CF30F26F0564EB51C466DC1A5C907EFD67EC76692D35FB1CDDA0CE8 PUSH1 0xC0 DUP3 ADD MSTORE PUSH32 0xA0E62D9FB75CD50C682569F50A41969885DF5911E67A1021A670B9C36380D13 PUSH1 0xE0 DUP3 ADD MSTORE PUSH0 PUSH2 0x100 DUP3 ADD MSTORE PUSH0 PUSH2 0x120 DUP3 ADD MSTORE PUSH32 0x5F52E577242BBD714129198820BE347DD61940EBD3A29EACD6CD2F91A6C8C14 PUSH2 0x140 DUP3 ADD MSTORE PUSH32 0x9BEBC383182D60239A1676131559F775274C9F3A60A40C1DECB91BD1652EDD8 PUSH2 0x160 DUP3 ADD MSTORE PUSH31 0x6304C95A8100438A1C93D627082ACBB136B4E9769AB34887F667F1AE7B6A99 PUSH2 0x180 DUP3 ADD MSTORE PUSH32 0x953A04A4A70E490D204D95535AD4CB26A3B624A9BA2374D22A6E1D1876FA16C PUSH2 0x1A0 DUP3 ADD MSTORE PUSH32 0xBB071CFE5E5F1E18BBCD462D29B5F157C648B683841CAF9033D45096D95C9E9 PUSH2 0x1C0 DUP3 ADD MSTORE PUSH32 0x2CE6B0834B7BBA47A0972F70F613D40B2F66EC401161F42BC0CC2AB802048227 PUSH2 0x1E0 DUP3 ADD MSTORE PUSH0 DUP6 ADD CALLDATALOAD PUSH2 0x200 DUP3 ADD MSTORE PUSH1 0x4 CALLDATALOAD PUSH2 0x220 DUP3 ADD MSTORE PUSH1 0x20 PUSH1 0x4 ADD CALLDATALOAD PUSH2 0x240 DUP3 ADD MSTORE PUSH1 0x44 CALLDATALOAD PUSH2 0x260 DUP3 ADD MSTORE PUSH1 0x20 PUSH1 0x44 ADD CALLDATALOAD PUSH2 0x280 DUP3 ADD MSTORE PUSH1 0x84 CALLDATALOAD PUSH2 0x2A0 DUP3 ADD MSTORE PUSH1 0x20 PUSH1 0x84 ADD CALLDATALOAD PUSH2 0x2C0 DUP3 ADD MSTORE PUSH32 0x30644E72E131A029B85045B68181585D2833E84879B9709143E1F593F0000001 PUSH2 0x2E0 DUP3 KECCAK256 MOD SWAP3 POP DUP3 PUSH1 0x20 DUP6 ADD MSTORE PUSH32 0x30644E72E131A029B85045B68181585D2833E84879B9709143E1F593F0000001 PUSH1 0x20 DUP1 DUP7 ADD KECCAK256 MOD PUSH1 0x40 DUP6 ADD MSTORE PUSH1 0x20 DUP5 ADD MLOAD DUP2 MSTORE PUSH1 0x40 DUP5 ADD MLOAD PUSH1 0x20 DUP3 ADD MSTORE PUSH1 0xC4 CALLDATALOAD PUSH1 0x40 DUP3 ADD MSTORE PUSH1 0x20 PUSH1 0xC4 ADD CALLDATALOAD PUSH1 0x60 DUP3 ADD MSTORE PUSH32 0x30644E72E131A029B85045B68181585D2833E84879B9709143E1F593F0000001 PUSH1 0x80 DUP3 KECCAK256 MOD SWAP2 POP DUP2 PUSH0 DUP6 ADD MSTORE PUSH32 0x30644E72E131A029B85045B68181585D2833E84879B9709143E1F593F0000001 DUP3 DUP4 MULMOD PUSH2 0x2C0 DUP6 ADD MSTORE DUP2 DUP2 MSTORE PUSH2 0x104 CALLDATALOAD PUSH1 0x20 DUP3 ADD MSTORE PUSH1 0x20 PUSH2 0x104 ADD CALLDATALOAD PUSH1 0x40 DUP3 ADD MSTORE PUSH2 0x144 CALLDATALOAD PUSH1 0x60 DUP3 ADD MSTORE PUSH1 0x20 PUSH2 0x144 ADD CALLDATALOAD PUSH1 0x80 DUP3 ADD MSTORE PUSH2 0x184 CALLDATALOAD PUSH1 0xA0 DUP3 ADD MSTORE PUSH1 0x20 PUSH2 0x184 ADD CALLDATALOAD PUSH1 0xC0 DUP3 ADD MSTORE PUSH32 0x30644E72E131A029B85045B68181585D2833E84879B9709143E1F593F0000001 PUSH1 0xE0 DUP3 KECCAK256 MOD SWAP2 POP DUP2 PUSH1 0x60 DUP6 ADD MSTORE DUP2 DUP2 MSTORE PUSH2 0x244 CALLDATALOAD PUSH1 0x20 DUP3 ADD MSTORE PUSH2 0x264 CALLDATALOAD PUSH1 0x40 DUP3 ADD MSTORE PUSH2 0x284 CALLDATALOAD PUSH1 0x60 DUP3 ADD MSTORE PUSH2 0x2A4 CALLDATALOAD PUSH1 0x80 DUP3 ADD MSTORE PUSH2 0x2C4 CALLDATALOAD PUSH1 0xA0 DUP3 ADD MSTORE PUSH2 0x2E4 CALLDATALOAD PUSH1 0xC0 DUP3 ADD MSTORE PUSH32 0x30644E72E131A029B85045B68181585D2833E84879B9709143E1F593F0000001 PUSH1 0xE0 DUP3 KECCAK256 MOD DUP1 PUSH1 0xC0 DUP7 ADD MSTORE PUSH32 0x30644E72E131A029B85045B68181585D2833E84879B9709143E1F593F0000001 DUP4 DUP6 MULMOD PUSH1 0xA0 DUP7 ADD MSTORE PUSH32 0x30644E72E131A029B85045B68181585D2833E84879B9709143E1F593F0000001 DUP4 DUP5 MULMOD SWAP3 POP PUSH32 0x30644E72E131A029B85045B68181585D2833E84879B9709143E1F593F0000001 DUP4 DUP5 MULMOD SWAP3 POP PUSH32 0x30644E72E131A029B85045B68181585D2833E84879B9709143E1F593F0000001 DUP4 DUP5 MULMOD SWAP3 POP DUP3 PUSH1 0x80 DUP7 ADD MSTORE PUSH32 0x30644E72E131A029B85045B68181585D2833E84879B9709143E1F593F0000001 DUP1 PUSH1 0x1 DUP6 SUB ADD MOD SWAP3 POP DUP3 PUSH2 0x2E0 DUP7 ADD MSTORE DUP3 PUSH2 0x300 DUP7 ADD MSTORE PUSH32 0x30644E72E131A029B85045B68181585D2833E84879B9709143E1F593F0000001 DUP2 DUP3 MULMOD SWAP3 POP DUP3 PUSH1 0xE0 DUP7 ADD MSTORE PUSH32 0x30644E72E131A029B85045B68181585D2833E84879B9709143E1F593F0000001 DUP2 DUP5 MULMOD SWAP3 POP DUP3 PUSH2 0x100 DUP7 ADD MSTORE PUSH32 0x30644E72E131A029B85045B68181585D2833E84879B9709143E1F593F0000001 DUP2 DUP5 MULMOD SWAP3 POP DUP3 PUSH2 0x120 DUP7 ADD MSTORE PUSH32 0x30644E72E131A029B85045B68181585D2833E84879B9709143E1F593F0000001 DUP2 DUP5 MULMOD SWAP3 POP DUP3 PUSH2 0x140 DUP7 ADD MSTORE PUSH2 0x1C4 CALLDATALOAD DUP3 MSTORE PUSH1 0x20 PUSH2 0x1C4 ADD CALLDATALOAD PUSH1 0x20 DUP4 ADD MSTORE PUSH2 0x204 CALLDATALOAD PUSH1 0x40 DUP4 ADD MSTORE PUSH1 0x20 PUSH2 0x204 ADD CALLDATALOAD PUSH1 0x60 DUP4 ADD MSTORE PUSH32 0x30644E72E131A029B85045B68181585D2833E84879B9709143E1F593F0000001 PUSH1 0x80 DUP4 KECCAK256 MOD PUSH2 0x160 DUP7 ADD MSTORE POP POP POP POP POP POP JUMP JUMPDEST PUSH1 0x1 PUSH32 0x30644E72E131A029B85045B68181585D2833E84879B9709143E1F593F0000001 DUP1 PUSH32 0x30644E72E131A029B85045B68181585D2833E84879B9709143E1F593F0000001 DUP4 PUSH1 0x60 DUP7 ADD MLOAD SUB ADD MOD PUSH1 0x8 MULMOD PUSH2 0x320 DUP4 ADD MSTORE PUSH2 0x870 PUSH1 0x2 PUSH2 0x300 DUP5 ADD PUSH2 0xC0 JUMP JUMPDEST PUSH2 0x2E0 DUP3 ADD MLOAD PUSH1 0x1 SWAP2 POP PUSH32 0x30644E72E131A029B85045B68181585D2833E84879B9709143E1F593F0000001 DUP2 PUSH2 0x320 DUP6 ADD MLOAD MULMOD PUSH2 0x320 DUP5 ADD MSTORE POP POP POP JUMP JUMPDEST PUSH0 PUSH32 0x30644E72E131A029B85045B68181585D2833E84879B9709143E1F593F0000001 DUP1 PUSH32 0x30644E72E131A029B85045B68181585D2833E84879B9709143E1F593F0000001 PUSH0 DUP7 ADD CALLDATALOAD PUSH2 0x320 DUP7 ADD MLOAD MULMOD DUP4 SUB ADD MOD SWAP1 POP DUP1 PUSH2 0x180 DUP4 ADD MSTORE POP POP POP JUMP JUMPDEST PUSH2 0x180 DUP2 ADD MLOAD PUSH32 0x30644E72E131A029B85045B68181585D2833E84879B9709143E1F593F0000001 PUSH2 0x2C0 DUP4 ADD MLOAD PUSH2 0x320 DUP5 ADD MLOAD MULMOD PUSH32 0x30644E72E131A029B85045B68181585D2833E84879B9709143E1F593F0000001 DUP1 PUSH2 0x2A4 CALLDATALOAD PUSH1 0x20 DUP7 ADD MLOAD MULMOD PUSH2 0x244 CALLDATALOAD ADDMOD PUSH32 0x30644E72E131A029B85045B68181585D2833E84879B9709143E1F593F0000001 PUSH1 0x40 DUP6 ADD MLOAD DUP3 ADDMOD SWAP1 POP PUSH32 0x30644E72E131A029B85045B68181585D2833E84879B9709143E1F593F0000001 DUP1 PUSH2 0x2C4 CALLDATALOAD PUSH1 0x20 DUP8 ADD MLOAD MULMOD PUSH2 0x264 CALLDATALOAD ADDMOD PUSH32 0x30644E72E131A029B85045B68181585D2833E84879B9709143E1F593F0000001 PUSH1 0x40 DUP7 ADD MLOAD DUP3 ADDMOD SWAP1 POP PUSH32 0x30644E72E131A029B85045B68181585D2833E84879B9709143E1F593F0000001 PUSH1 0x40 DUP7 ADD MLOAD PUSH2 0x284 CALLDATALOAD ADDMOD PUSH32 0x30644E72E131A029B85045B68181585D2833E84879B9709143E1F593F0000001 DUP2 PUSH32 0x30644E72E131A029B85045B68181585D2833E84879B9709143E1F593F0000001 DUP5 DUP7 MULMOD MULMOD PUSH32 0x30644E72E131A029B85045B68181585D2833E84879B9709143E1F593F0000001 PUSH2 0x2E4 CALLDATALOAD DUP3 MULMOD SWAP1 POP PUSH32 0x30644E72E131A029B85045B68181585D2833E84879B9709143E1F593F0000001 PUSH0 DUP9 ADD MLOAD DUP3 MULMOD SWAP1 POP PUSH32 0x30644E72E131A029B85045B68181585D2833E84879B9709143E1F593F0000001 DUP1 DUP7 PUSH32 0x30644E72E131A029B85045B68181585D2833E84879B9709143E1F593F0000001 SUB MOD DUP8 ADDMOD PUSH32 0x30644E72E131A029B85045B68181585D2833E84879B9709143E1F593F0000001 DUP1 DUP4 PUSH32 0x30644E72E131A029B85045B68181585D2833E84879B9709143E1F593F0000001 SUB MOD DUP3 ADDMOD SWAP1 POP DUP1 PUSH2 0x1A0 DUP10 ADD MSTORE POP POP POP POP POP POP POP POP JUMP JUMPDEST DUP2 MLOAD DUP2 MSTORE PUSH1 0x20 DUP3 ADD MLOAD PUSH1 0x20 DUP3 ADD MSTORE POP POP JUMP JUMPDEST DUP2 DUP2 MSTORE DUP3 PUSH1 0x20 DUP3 ADD MSTORE POP POP POP JUMP JUMPDEST DUP2 CALLDATALOAD DUP2 MSTORE PUSH1 0x20 DUP3 ADD CALLDATALOAD PUSH1 0x20 DUP3 ADD MSTORE POP POP JUMP JUMPDEST PUSH1 0x40 MLOAD DUP2 MLOAD DUP2 MSTORE PUSH1 0x20 DUP3 ADD MLOAD PUSH1 0x20 DUP3 ADD MSTORE DUP3 MLOAD PUSH1 0x40 DUP3 ADD MSTORE PUSH1 0x20 DUP4 ADD MLOAD PUSH1 0x60 DUP3 ADD MSTORE PUSH1 0x40 DUP3 PUSH1 0x80 DUP4 PUSH1 0x6 PUSH2 0x7D0 GAS SUB STATICCALL DUP1 PUSH2 0xBCF JUMPI PUSH0 DUP1 MSTORE PUSH1 0x20 PUSH0 RETURN JUMPDEST POP POP POP POP JUMP JUMPDEST PUSH0 PUSH1 0x40 MLOAD DUP4 DUP2 MSTORE DUP5 PUSH1 0x20 DUP3 ADD MSTORE DUP6 PUSH1 0x40 DUP3 ADD MSTORE PUSH1 0x40 DUP2 PUSH1 0x60 DUP4 PUSH1 0x7 PUSH2 0x7D0 GAS SUB STATICCALL SWAP2 POP DUP2 PUSH2 0xC05 JUMPI PUSH0 DUP1 MSTORE PUSH1 0x20 PUSH0 RETURN JUMPDEST DUP3 MLOAD PUSH1 0x40 DUP3 ADD MSTORE PUSH1 0x20 DUP4 ADD MLOAD PUSH1 0x60 DUP3 ADD MSTORE PUSH1 0x40 DUP4 PUSH1 0x80 DUP4 PUSH1 0x6 PUSH2 0x7D0 GAS SUB STATICCALL SWAP2 POP DUP2 PUSH2 0xC33 JUMPI PUSH0 DUP1 MSTORE PUSH1 0x20 PUSH0 RETURN JUMPDEST POP POP POP POP POP POP JUMP JUMPDEST PUSH0 PUSH1 0x40 MLOAD DUP4 DUP2 MSTORE DUP5 PUSH1 0x20 DUP3 ADD MSTORE DUP6 PUSH1 0x40 DUP3 ADD MSTORE PUSH1 0x40 DUP4 PUSH1 0x60 DUP4 PUSH1 0x7 PUSH2 0x7D0 GAS SUB STATICCALL SWAP2 POP DUP2 PUSH2 0xC6B JUMPI PUSH0 DUP1 MSTORE PUSH1 0x20 PUSH0 RETURN JUMPDEST POP POP POP POP POP POP JUMP JUMPDEST PUSH2 0xC84 DUP4 PUSH1 0x20 DUP5 ADD MLOAD DUP5 MLOAD DUP5 PUSH2 0xC3B JUMP JUMPDEST POP POP POP JUMP JUMPDEST PUSH2 0x1C0 DUP2 ADD PUSH1 0x40 DUP3 ADD MLOAD PUSH1 0x40 MLOAD PUSH2 0x100 DUP2 ADD PUSH1 0x40 MSTORE PUSH2 0xCA9 PUSH0 DUP1 DUP6 PUSH2 0xB72 JUMP JUMPDEST PUSH2 0xD1E PUSH32 0x30644E72E131A029B85045B68181585D2833E84879B9709143E1F593F0000001 PUSH2 0x264 CALLDATALOAD PUSH2 0x244 CALLDATALOAD MULMOD PUSH32 0x2655EB98E5BBD2D8F1CDEF1730DD3EF40F2375004A0A298B21B9807AA244F034 PUSH32 0x16C267DD4CF30F26F0564EB51C466DC1A5C907EFD67EC76692D35FB1CDDA0CE8 DUP7 PUSH2 0xBD5 JUMP JUMPDEST PUSH2 0xD6D PUSH2 0x244 CALLDATALOAD PUSH32 0x15D573FC890AFEBD6308281BF667988A2A7DF914B371BC46645AEFF185F42AB3 PUSH32 0x1F9BE742471045CC436A97A2C8664790C8A99112BFD7C5CDBDB00C574342D286 DUP7 PUSH2 0xBD5 JUMP JUMPDEST PUSH2 0xD7C PUSH2 0x264 CALLDATALOAD PUSH0 DUP1 DUP7 PUSH2 0xBD5 JUMP JUMPDEST PUSH2 0xDCB PUSH2 0x284 CALLDATALOAD PUSH32 0xA0E62D9FB75CD50C682569F50A41969885DF5911E67A1021A670B9C36380D13 PUSH32 0x16C267DD4CF30F26F0564EB51C466DC1A5C907EFD67EC76692D35FB1CDDA0CE8 DUP7 PUSH2 0xBD5 JUMP JUMPDEST PUSH1 0xA0 DUP5 ADD MLOAD PUSH32 0x30644E72E131A029B85045B68181585D2833E84879B9709143E1F593F0000001 DUP4 PUSH32 0x30644E72E131A029B85045B68181585D2833E84879B9709143E1F593F0000001 DUP4 PUSH2 0x244 CALLDATALOAD ADDMOD ADDMOD PUSH32 0x30644E72E131A029B85045B68181585D2833E84879B9709143E1F593F0000001 DUP5 PUSH32 0x30644E72E131A029B85045B68181585D2833E84879B9709143E1F593F0000001 DUP1 PUSH1 0x2 DUP7 MULMOD PUSH2 0x264 CALLDATALOAD ADDMOD ADDMOD PUSH32 0x30644E72E131A029B85045B68181585D2833E84879B9709143E1F593F0000001 DUP6 PUSH32 0x30644E72E131A029B85045B68181585D2833E84879B9709143E1F593F0000001 DUP1 PUSH1 0x3 DUP8 MULMOD PUSH2 0x284 CALLDATALOAD ADDMOD ADDMOD PUSH32 0x30644E72E131A029B85045B68181585D2833E84879B9709143E1F593F0000001 PUSH0 DUP10 ADD MLOAD PUSH32 0x30644E72E131A029B85045B68181585D2833E84879B9709143E1F593F0000001 DUP4 PUSH32 0x30644E72E131A029B85045B68181585D2833E84879B9709143E1F593F0000001 DUP7 DUP9 MULMOD MULMOD MULMOD PUSH32 0x30644E72E131A029B85045B68181585D2833E84879B9709143E1F593F0000001 PUSH2 0x2C0 DUP11 ADD MLOAD PUSH2 0x320 DUP12 ADD MLOAD MULMOD PUSH2 0xF5F PUSH1 0xC4 PUSH1 0xC0 DUP10 ADD PUSH2 0xB80 JUMP JUMPDEST PUSH2 0xFB8 PUSH32 0x30644E72E131A029B85045B68181585D2833E84879B9709143E1F593F0000001 PUSH2 0x160 DUP13 ADD MLOAD PUSH32 0x30644E72E131A029B85045B68181585D2833E84879B9709143E1F593F0000001 DUP5 DUP7 ADDMOD ADDMOD PUSH1 0xC0 DUP10 ADD DUP10 PUSH2 0xC73 JUMP JUMPDEST PUSH32 0x30644E72E131A029B85045B68181585D2833E84879B9709143E1F593F0000001 DUP9 PUSH32 0x30644E72E131A029B85045B68181585D2833E84879B9709143E1F593F0000001 DUP1 PUSH2 0x2A4 CALLDATALOAD PUSH1 0x20 DUP16 ADD MLOAD MULMOD PUSH2 0x244 CALLDATALOAD ADDMOD ADDMOD SWAP5 POP PUSH32 0x30644E72E131A029B85045B68181585D2833E84879B9709143E1F593F0000001 DUP9 PUSH32 0x30644E72E131A029B85045B68181585D2833E84879B9709143E1F593F0000001 DUP1 PUSH2 0x2C4 CALLDATALOAD PUSH1 0x20 DUP16 ADD MLOAD MULMOD PUSH2 0x264 CALLDATALOAD ADDMOD ADDMOD SWAP4 POP PUSH32 0x30644E72E131A029B85045B68181585D2833E84879B9709143E1F593F0000001 PUSH2 0x2E4 CALLDATALOAD PUSH32 0x30644E72E131A029B85045B68181585D2833E84879B9709143E1F593F0000001 PUSH1 0x20 DUP14 ADD MLOAD PUSH0 DUP15 ADD MLOAD MULMOD MULMOD SWAP3 POP PUSH2 0x114C PUSH32 0x30644E72E131A029B85045B68181585D2833E84879B9709143E1F593F0000001 DUP5 PUSH32 0x30644E72E131A029B85045B68181585D2833E84879B9709143E1F593F0000001 DUP8 DUP10 MULMOD MULMOD PUSH32 0x2CE6B0834B7BBA47A0972F70F613D40B2F66EC401161F42BC0CC2AB802048227 PUSH32 0xBB071CFE5E5F1E18BBCD462D29B5F157C648B683841CAF9033D45096D95C9E9 PUSH1 0x40 DUP12 ADD PUSH2 0xC3B JUMP JUMPDEST PUSH2 0x115B PUSH2 0x104 PUSH1 0x80 DUP10 ADD PUSH2 0xB80 JUMP JUMPDEST PUSH2 0x1177 PUSH1 0x80 DUP12 ADD MLOAD PUSH1 0x20 PUSH2 0x144 ADD CALLDATALOAD PUSH2 0x144 CALLDATALOAD PUSH1 0x80 DUP12 ADD PUSH2 0xBD5 JUMP JUMPDEST PUSH32 0x30644E72E131A029B85045B68181585D2833E84879B9709143E1F593F0000001 PUSH1 0x80 DUP12 ADD MLOAD PUSH1 0x80 DUP13 ADD MLOAD MULMOD PUSH2 0x11BB DUP2 PUSH1 0x20 PUSH2 0x184 ADD CALLDATALOAD PUSH2 0x184 CALLDATALOAD PUSH1 0x80 DUP13 ADD PUSH2 0xBD5 JUMP JUMPDEST PUSH2 0x11D7 PUSH2 0x2E0 DUP13 ADD MLOAD PUSH1 0xA0 DUP11 ADD MLOAD PUSH1 0x80 DUP12 ADD MLOAD PUSH1 0x80 DUP13 ADD PUSH2 0xC3B JUMP JUMPDEST PUSH32 0x30644E72E131A029B85045B68181585D97816A916871CA8D3C208C16D87CFD47 PUSH1 0x20 PUSH1 0x40 DUP11 ADD ADD MLOAD PUSH32 0x30644E72E131A029B85045B68181585D97816A916871CA8D3C208C16D87CFD47 SUB MOD PUSH1 0x20 PUSH1 0x40 DUP11 ADD ADD MSTORE PUSH32 0x30644E72E131A029B85045B68181585D97816A916871CA8D3C208C16D87CFD47 PUSH1 0xA0 DUP10 ADD MLOAD PUSH32 0x30644E72E131A029B85045B68181585D97816A916871CA8D3C208C16D87CFD47 SUB MOD PUSH1 0xA0 DUP10 ADD MSTORE PUSH2 0x1283 DUP9 DUP12 PUSH2 0xB92 JUMP JUMPDEST PUSH2 0x1290 PUSH1 0x40 DUP10 ADD DUP12 PUSH2 0xB92 JUMP JUMPDEST PUSH2 0x129D PUSH1 0x80 DUP10 ADD DUP12 PUSH2 0xB92 JUMP JUMPDEST POP POP POP POP POP POP POP POP POP POP POP JUMP JUMPDEST PUSH2 0x200 DUP2 ADD PUSH2 0x12BD PUSH2 0x1C0 DUP4 ADD DUP3 PUSH2 0xB60 JUMP JUMPDEST PUSH2 0x12D4 PUSH1 0xC0 DUP4 ADD MLOAD PUSH1 0x20 PUSH1 0x4 ADD CALLDATALOAD PUSH1 0x4 CALLDATALOAD DUP5 PUSH2 0xBD5 JUMP JUMPDEST PUSH2 0x12EB PUSH1 0xE0 DUP4 ADD MLOAD PUSH1 0x20 PUSH1 0x44 ADD CALLDATALOAD PUSH1 0x44 CALLDATALOAD DUP5 PUSH2 0xBD5 JUMP JUMPDEST PUSH2 0x1303 PUSH2 0x100 DUP4 ADD MLOAD PUSH1 0x20 PUSH1 0x84 ADD CALLDATALOAD PUSH1 0x84 CALLDATALOAD DUP5 PUSH2 0xBD5 JUMP JUMPDEST PUSH2 0x1354 PUSH2 0x120 DUP4 ADD MLOAD PUSH32 0x9BEBC383182D60239A1676131559F775274C9F3A60A40C1DECB91BD1652EDD8 PUSH32 0x5F52E577242BBD714129198820BE347DD61940EBD3A29EACD6CD2F91A6C8C14 DUP5 PUSH2 0xBD5 JUMP JUMPDEST PUSH2 0x13A4 PUSH2 0x140 DUP4 ADD MLOAD PUSH32 0x953A04A4A70E490D204D95535AD4CB26A3B624A9BA2374D22A6E1D1876FA16C PUSH31 0x6304C95A8100438A1C93D627082ACBB136B4E9769AB34887F667F1AE7B6A99 DUP5 PUSH2 0xBD5 JUMP JUMPDEST POP POP JUMP JUMPDEST PUSH32 0x30644E72E131A029B85045B68181585D2833E84879B9709143E1F593F0000001 PUSH2 0x1A0 DUP3 ADD MLOAD PUSH32 0x30644E72E131A029B85045B68181585D2833E84879B9709143E1F593F0000001 SUB MOD PUSH32 0x30644E72E131A029B85045B68181585D2833E84879B9709143E1F593F0000001 DUP1 PUSH1 0xC0 DUP5 ADD MLOAD PUSH2 0x244 CALLDATALOAD MULMOD DUP3 ADDMOD SWAP1 POP PUSH32 0x30644E72E131A029B85045B68181585D2833E84879B9709143E1F593F0000001 DUP1 PUSH1 0xE0 DUP5 ADD MLOAD PUSH2 0x264 CALLDATALOAD MULMOD DUP3 ADDMOD SWAP1 POP PUSH32 0x30644E72E131A029B85045B68181585D2833E84879B9709143E1F593F0000001 DUP1 PUSH2 0x100 DUP5 ADD MLOAD PUSH2 0x284 CALLDATALOAD MULMOD DUP3 ADDMOD SWAP1 POP PUSH32 0x30644E72E131A029B85045B68181585D2833E84879B9709143E1F593F0000001 DUP1 PUSH2 0x120 DUP5 ADD MLOAD PUSH2 0x2A4 CALLDATALOAD MULMOD DUP3 ADDMOD SWAP1 POP PUSH32 0x30644E72E131A029B85045B68181585D2833E84879B9709143E1F593F0000001 DUP1 PUSH2 0x140 DUP5 ADD MLOAD PUSH2 0x2C4 CALLDATALOAD MULMOD DUP3 ADDMOD SWAP1 POP PUSH32 0x30644E72E131A029B85045B68181585D2833E84879B9709143E1F593F0000001 DUP1 PUSH2 0x160 DUP5 ADD MLOAD PUSH2 0x2E4 CALLDATALOAD MULMOD DUP3 ADDMOD SWAP1 POP PUSH2 0x1528 DUP2 PUSH1 0x2 PUSH1 0x1 PUSH2 0x240 DUP7 ADD PUSH2 0xC3B JUMP JUMPDEST POP POP JUMP JUMPDEST PUSH0 PUSH1 0x40 MLOAD PUSH2 0x240 DUP2 ADD PUSH1 0x40 MSTORE PUSH2 0x180 DUP2 ADD PUSH2 0x1C0 DUP3 ADD PUSH2 0x200 DUP4 ADD PUSH2 0x1553 PUSH2 0x1C4 DUP5 PUSH2 0xB80 JUMP JUMPDEST PUSH2 0x155F PUSH2 0x204 DUP4 PUSH2 0xB80 JUMP JUMPDEST PUSH2 0x156F PUSH2 0x160 DUP8 ADD MLOAD DUP4 DUP7 PUSH2 0xC73 JUMP JUMPDEST PUSH2 0x1579 DUP4 DUP6 PUSH2 0xB92 JUMP JUMPDEST PUSH32 0x30644E72E131A029B85045B68181585D97816A916871CA8D3C208C16D87CFD47 PUSH1 0x20 DUP6 ADD MLOAD PUSH32 0x30644E72E131A029B85045B68181585D97816A916871CA8D3C208C16D87CFD47 SUB MOD PUSH1 0x20 DUP6 ADD MSTORE PUSH32 0x26186A2D65EE4D2F9C9A5B91F86597D35F192CD120CAF7E935D8443D1938E23D PUSH1 0x40 DUP6 ADD MSTORE PUSH32 0x30441FD1B5D3370482C42152A8899027716989A6996C2535BC9F7FEE8AAEF79E PUSH1 0x60 DUP6 ADD MSTORE PUSH32 0x1970EA81DD6992ADFBC571EFFB03503ADBBB6A857F578403C6C40E22D65B3C02 PUSH1 0x80 DUP6 ADD MSTORE PUSH32 0x54793348F12C0CF5622C340573CB277586319DE359AB9389778F689786B1E48 PUSH1 0xA0 DUP6 ADD MSTORE PUSH2 0x1671 PUSH1 0x60 DUP8 ADD MLOAD DUP5 PUSH1 0xC0 DUP8 ADD PUSH2 0xC73 JUMP JUMPDEST PUSH32 0x30644E72E131A029B85045B68181585D2833E84879B9709143E1F593F0000001 PUSH1 0x60 DUP8 ADD MLOAD PUSH2 0x160 DUP9 ADD MLOAD MULMOD PUSH32 0x30644E72E131A029B85045B68181585D2833E84879B9709143E1F593F0000001 PUSH32 0x2B337DE1C8C14F22EC9B9E2F96AFEF3652627366F8170A0A948DAD4AC1BD5E80 DUP3 MULMOD SWAP1 POP PUSH2 0x16EF DUP2 DUP5 DUP5 PUSH2 0xC73 JUMP JUMPDEST PUSH2 0x16FC DUP3 PUSH1 0xC0 DUP8 ADD PUSH2 0xB92 JUMP JUMPDEST PUSH2 0x170D PUSH2 0x200 DUP9 ADD PUSH1 0xC0 DUP8 ADD PUSH2 0xB92 JUMP JUMPDEST PUSH32 0x30644E72E131A029B85045B68181585D97816A916871CA8D3C208C16D87CFD47 PUSH1 0x20 PUSH2 0x240 ADD DUP9 ADD MLOAD PUSH32 0x30644E72E131A029B85045B68181585D97816A916871CA8D3C208C16D87CFD47 SUB MOD PUSH1 0x20 PUSH2 0x240 ADD DUP9 ADD MSTORE PUSH2 0x1774 PUSH2 0x240 DUP9 ADD PUSH1 0xC0 DUP8 ADD PUSH2 0xB92 JUMP JUMPDEST PUSH32 0x198E9393920D483A7260BFB731FB5D25F1AA493335A9E71297E485B7AEF312C2 PUSH2 0x100 DUP7 ADD MSTORE PUSH32 0x1800DEEF121F1E76426A00665E5C4479674322D4F75EDADD46DEBD5CD992F6ED PUSH2 0x120 DUP7 ADD MSTORE PUSH32 0x90689D0585FF075EC9E99AD690C3395BC4B313370B38EF355ACDADCD122975B PUSH2 0x140 DUP7 ADD MSTORE PUSH32 0x12C85EA5DB8C6DEB4AAB71808DCB408FE3D1E7690C43D37B4CE6CC0166FA7DAA PUSH2 0x160 DUP7 ADD MSTORE PUSH1 0x20 DUP6 PUSH2 0x180 DUP8 PUSH1 0x8 PUSH2 0x7D0 GAS SUB STATICCALL DUP6 MLOAD DUP2 AND SWAP7 POP POP POP POP POP POP POP SWAP2 SWAP1 POP JUMP JUMPDEST PUSH1 0x40 MLOAD PUSH2 0x340 DUP2 ADD PUSH1 0x40 MSTORE PUSH2 0x1843 PUSH2 0x1FB JUMP JUMPDEST PUSH2 0x184D DUP4 DUP3 PUSH2 0x245 JUMP JUMPDEST PUSH2 0x1856 DUP2 PUSH2 0x80A JUMP JUMPDEST PUSH2 0x1860 DUP4 DUP3 PUSH2 0x8AE JUMP JUMPDEST PUSH2 0x1869 DUP2 PUSH2 0x90F JUMP JUMPDEST PUSH2 0x1872 DUP2 PUSH2 0xC89 JUMP JUMPDEST PUSH2 0x187B DUP2 PUSH2 0x12AA JUMP JUMPDEST PUSH2 0x1884 DUP2 PUSH2 0x13A8 JUMP JUMPDEST PUSH2 0x188D DUP2 PUSH2 0x152C JUMP JUMPDEST PUSH2 0x340 DUP3 SUB PUSH1 0x40 MSTORE DUP1 PUSH0 MSTORE PUSH1 0x20 PUSH0 RETURN JUMPDEST PUSH0 DUP1 REVERT JUMPDEST PUSH0 DUP1 REVERT JUMPDEST PUSH0 DUP2 SWAP1 POP DUP3 PUSH1 0x20 PUSH1 0x18 MUL DUP3 ADD GT ISZERO PUSH2 0x18C0 JUMPI PUSH2 0x18BF PUSH2 0x18A1 JUMP JUMPDEST JUMPDEST SWAP3 SWAP2 POP POP JUMP JUMPDEST PUSH0 DUP2 SWAP1 POP DUP3 PUSH1 0x20 PUSH1 0x1 MUL DUP3 ADD GT ISZERO PUSH2 0x18E1 JUMPI PUSH2 0x18E0 PUSH2 0x18A1 JUMP JUMPDEST JUMPDEST SWAP3 SWAP2 POP POP JUMP JUMPDEST PUSH0 DUP1 PUSH2 0x320 DUP4 DUP6 SUB SLT ISZERO PUSH2 0x18FE JUMPI PUSH2 0x18FD PUSH2 0x189D JUMP JUMPDEST JUMPDEST PUSH0 PUSH2 0x190B DUP6 DUP3 DUP7 ADD PUSH2 0x18A5 JUMP JUMPDEST SWAP3 POP POP PUSH2 0x300 PUSH2 0x191D DUP6 DUP3 DUP7 ADD PUSH2 0x18C6 JUMP JUMPDEST SWAP2 POP POP SWAP3 POP SWAP3 SWAP1 POP JUMP JUMPDEST PUSH0 DUP2 ISZERO ISZERO SWAP1 POP SWAP2 SWAP1 POP JUMP JUMPDEST PUSH2 0x193B DUP2 PUSH2 0x1927 JUMP JUMPDEST DUP3 MSTORE POP POP JUMP JUMPDEST PUSH0 PUSH1 0x20 DUP3 ADD SWAP1 POP PUSH2 0x1954 PUSH0 DUP4 ADD DUP5 PUSH2 0x1932 JUMP JUMPDEST SWAP3 SWAP2 POP POP JUMP INVALID LOG2 PUSH5 0x6970667358 0x22 SLT KECCAK256 DELEGATECALL BYTE 0xC7 JUMP CODECOPY CODESIZE 0xD GASPRICE 0xD2 PUSH11 0xB6E5FE5F5CAE381A68BDCA PUSH29 0xBD9C3C3C6C2F40737DFC64736F6C634300081A00330000000000000000 "
				},
				"gasEstimates": {
					"creation": {
						"codeDepositCost": "1308800",
						"executionCost": "1361",
						"totalCost": "1310161"
					},
					"external": {
						"verifyProof(uint256[24],uint256[1])": "infinite"
					}
				},
				"methodIdentifiers": {
					"verifyProof(uint256[24],uint256[1])": "ff7240a7"
				}
			},
			"storageLayout": {
				"storage": [],
				"types": null
			},
			"userdoc": {
				"kind": "user",
				"methods": {},
				"version": 1
			}
		}
	}
}