{
	"src/WithdrawVerifier.sol": {
		"PlonkVerifier": {
			"abi": [
				{
					"inputs": [
						{
							"internalType": "uint256[24]",
							"name": "_proof",
							"type": "uint256[24]"
						},
						{
							"internalType": "uint256[7]",
							"name": "_pubSignals",
							"type": "uint256[7]"
						}
					],
					"name": "verifyProof",
					"outputs": [
						{
							"internalType": "bool",
							"name": "",
							"type": "bool"
						}
					],
					"stateMutability": "view",
					"type": "function"
				}
			],
			"devdoc": {
				"kind": "dev",
				"methods": {},
				"version": 1
			},
			"evm": {
				"assembly": "    /* \"src/WithdrawVerifier.sol\":831:34060  contract PlonkVerifier {... */\n  mstore(0x40, 0x80)\n  callvalue\n  dup1\n  iszero\n  tag_1\n  jumpi\n  0x00\n  dup1\n  revert\ntag_1:\n  pop\n  dataSize(sub_0)\n  dup1\n  dataOffset(sub_0)\n  0x00\n  codecopy\n  0x00\n  return\nstop\n\nsub_0: assembly {\n        /* \"src/WithdrawVerifier.sol\":831:34060  contract PlonkVerifier {... */\n      mstore(0x40, 0x80)\n      callvalue\n      dup1\n      iszero\n      tag_1\n      jumpi\n      0x00\n      dup1\n      revert\n    tag_1:\n      pop\n      jumpi(tag_2, lt(calldatasize, 0x04))\n      shr(0xe0, calldataload(0x00))\n      dup1\n      0x6bb8d6cd\n      eq\n      tag_3\n      jumpi\n    tag_2:\n      0x00\n      dup1\n      revert\n        /* \"src/WithdrawVerifier.sol\":5946:34058  function verifyProof(... */\n    tag_3:\n      tag_4\n      0x04\n      dup1\n      calldatasize\n      sub\n      dup2\n      add\n      swap1\n      tag_5\n      swap2\n      swap1\n      tag_6\n      jump\t// in\n    tag_5:\n      tag_7\n      jump\t// in\n    tag_4:\n      mload(0x40)\n      tag_8\n      swap2\n      swap1\n      tag_9\n      jump\t// in\n    tag_8:\n      mload(0x40)\n      dup1\n      swap2\n      sub\n      swap1\n      return\n    tag_7:\n        /* \"src/WithdrawVerifier.sol\":6072:6076  bool */\n      0x00\n        /* \"src/WithdrawVerifier.sol\":6230:7003  function inverse(a, q) -> inv {... */\n      jump(tag_31)\n    tag_11:\n        /* \"src/WithdrawVerifier.sol\":6256:6259  inv */\n      0x00\n        /* \"src/WithdrawVerifier.sol\":6287:6288  0 */\n      dup1\n        /* \"src/WithdrawVerifier.sol\":6317:6318  1 */\n      0x01\n        /* \"src/WithdrawVerifier.sol\":6344:6345  q */\n      dup5\n        /* \"src/WithdrawVerifier.sol\":6374:6375  a */\n      dup5\n        /* \"src/WithdrawVerifier.sol\":6392:6404  let quotient */\n      0x00\n        /* \"src/WithdrawVerifier.sol\":6421:6428  let aux */\n      dup1\n        /* \"src/WithdrawVerifier.sol\":6446:6797  for {... */\n    tag_33:\n        /* \"src/WithdrawVerifier.sol\":6471:6475  newr */\n      dup3\n        /* \"src/WithdrawVerifier.sol\":6446:6797  for {... */\n      iszero\n      tag_35\n      jumpi\n        /* \"src/WithdrawVerifier.sol\":6539:6543  newr */\n      dup3\n        /* \"src/WithdrawVerifier.sol\":6536:6537  r */\n      dup5\n        /* \"src/WithdrawVerifier.sol\":6531:6544  sdiv(r, newr) */\n      sdiv\n        /* \"src/WithdrawVerifier.sol\":6519:6544  quotient := sdiv(r, newr) */\n      swap2\n      pop\n        /* \"src/WithdrawVerifier.sol\":6593:6597  newt */\n      dup5\n        /* \"src/WithdrawVerifier.sol\":6583:6591  quotient */\n      dup3\n        /* \"src/WithdrawVerifier.sol\":6579:6598  mul(quotient, newt) */\n      mul\n        /* \"src/WithdrawVerifier.sol\":6576:6577  t */\n      dup7\n        /* \"src/WithdrawVerifier.sol\":6572:6599  sub(t, mul(quotient, newt)) */\n      sub\n        /* \"src/WithdrawVerifier.sol\":6565:6599  aux := sub(t, mul(quotient, newt)) */\n      swap1\n      pop\n        /* \"src/WithdrawVerifier.sol\":6625:6629  newt */\n      dup5\n        /* \"src/WithdrawVerifier.sol\":6620:6629  t := newt */\n      swap6\n      pop\n        /* \"src/WithdrawVerifier.sol\":6658:6661  aux */\n      dup1\n        /* \"src/WithdrawVerifier.sol\":6650:6661  newt := aux */\n      swap5\n      pop\n        /* \"src/WithdrawVerifier.sol\":6711:6715  newr */\n      dup3\n        /* \"src/WithdrawVerifier.sol\":6701:6709  quotient */\n      dup3\n        /* \"src/WithdrawVerifier.sol\":6697:6716  mul(quotient, newr) */\n      mul\n        /* \"src/WithdrawVerifier.sol\":6694:6695  r */\n      dup5\n        /* \"src/WithdrawVerifier.sol\":6690:6717  sub(r, mul(quotient, newr)) */\n      sub\n        /* \"src/WithdrawVerifier.sol\":6683:6717  aux := sub(r, mul(quotient, newr)) */\n      swap1\n      pop\n        /* \"src/WithdrawVerifier.sol\":6743:6747  newr */\n      dup3\n        /* \"src/WithdrawVerifier.sol\":6738:6747  r := newr */\n      swap4\n      pop\n        /* \"src/WithdrawVerifier.sol\":6776:6779  aux */\n      dup1\n        /* \"src/WithdrawVerifier.sol\":6768:6779  newr := aux */\n      swap3\n      pop\n        /* \"src/WithdrawVerifier.sol\":6446:6797  for {... */\n      jump(tag_33)\n    tag_35:\n        /* \"src/WithdrawVerifier.sol\":6824:6825  1 */\n      0x01\n        /* \"src/WithdrawVerifier.sol\":6821:6822  r */\n      dup5\n        /* \"src/WithdrawVerifier.sol\":6818:6826  gt(r, 1) */\n      gt\n        /* \"src/WithdrawVerifier.sol\":6815:6879  if gt(r, 1) {... */\n      iszero\n      tag_36\n      jumpi\n        /* \"src/WithdrawVerifier.sol\":6859:6860  0 */\n      0x00\n        /* \"src/WithdrawVerifier.sol\":6856:6857  0 */\n      dup1\n        /* \"src/WithdrawVerifier.sol\":6849:6861  revert(0, 0) */\n      revert\n        /* \"src/WithdrawVerifier.sol\":6815:6879  if gt(r, 1) {... */\n    tag_36:\n        /* \"src/WithdrawVerifier.sol\":6906:6907  0 */\n      0x00\n        /* \"src/WithdrawVerifier.sol\":6903:6904  t */\n      dup7\n        /* \"src/WithdrawVerifier.sol\":6899:6908  slt(t, 0) */\n      slt\n        /* \"src/WithdrawVerifier.sol\":6896:6963  if slt(t, 0) {... */\n      iszero\n      tag_37\n      jumpi\n        /* \"src/WithdrawVerifier.sol\":6943:6944  q */\n      dup9\n        /* \"src/WithdrawVerifier.sol\":6940:6941  t */\n      dup7\n        /* \"src/WithdrawVerifier.sol\":6936:6945  add(t, q) */\n      add\n        /* \"src/WithdrawVerifier.sol\":6931:6945  t := add(t, q) */\n      swap6\n      pop\n        /* \"src/WithdrawVerifier.sol\":6896:6963  if slt(t, 0) {... */\n    tag_37:\n        /* \"src/WithdrawVerifier.sol\":6988:6989  t */\n      dup6\n        /* \"src/WithdrawVerifier.sol\":6981:6989  inv := t */\n      swap7\n      pop\n        /* \"src/WithdrawVerifier.sol\":6260:7003  {... */\n      pop\n      pop\n      pop\n      pop\n      pop\n      pop\n        /* \"src/WithdrawVerifier.sol\":6230:7003  function inverse(a, q) -> inv {... */\n      swap3\n      swap2\n      pop\n      pop\n      jump\t// out\n        /* \"src/WithdrawVerifier.sol\":7233:8683  function inverseArray(pVals, n) {... */\n    tag_12:\n        /* \"src/WithdrawVerifier.sol\":7301:7305  0x40 */\n      0x40\n        /* \"src/WithdrawVerifier.sol\":7295:7306  mload(0x40) */\n      mload\n        /* \"src/WithdrawVerifier.sol\":7369:7374  pVals */\n      dup2\n        /* \"src/WithdrawVerifier.sol\":7424:7426  32 */\n      0x20\n        /* \"src/WithdrawVerifier.sol\":7421:7422  n */\n      dup5\n        /* \"src/WithdrawVerifier.sol\":7417:7427  mul(n, 32) */\n      mul\n        /* \"src/WithdrawVerifier.sol\":7410:7415  pVals */\n      dup4\n        /* \"src/WithdrawVerifier.sol\":7406:7428  add(pVals, mul(n, 32)) */\n      add\n        /* \"src/WithdrawVerifier.sol\":7480:7483  pIn */\n      dup2\n        /* \"src/WithdrawVerifier.sol\":7474:7484  mload(pIn) */\n      mload\n        /* \"src/WithdrawVerifier.sol\":7543:7545  32 */\n      0x20\n        /* \"src/WithdrawVerifier.sol\":7538:7541  pIn */\n      dup4\n        /* \"src/WithdrawVerifier.sol\":7534:7546  add(pIn, 32) */\n      add\n        /* \"src/WithdrawVerifier.sol\":7527:7546  pIn := add(pIn, 32) */\n      swap3\n      pop\n        /* \"src/WithdrawVerifier.sol\":7594:7601  let inv */\n      0x00\n        /* \"src/WithdrawVerifier.sol\":7619:7874  for {... */\n    tag_39:\n        /* \"src/WithdrawVerifier.sol\":7652:7659  lastPIn */\n      dup3\n        /* \"src/WithdrawVerifier.sol\":7647:7650  pIn */\n      dup5\n        /* \"src/WithdrawVerifier.sol\":7644:7660  lt(pIn, lastPIn) */\n      lt\n        /* \"src/WithdrawVerifier.sol\":7619:7874  for {... */\n      iszero\n      tag_41\n      jumpi\n        /* \"src/WithdrawVerifier.sol\":7798:7801  acc */\n      dup2\n        /* \"src/WithdrawVerifier.sol\":7792:7796  pAux */\n      dup6\n        /* \"src/WithdrawVerifier.sol\":7785:7802  mstore(pAux, acc) */\n      mstore\n        /* \"src/WithdrawVerifier.sol\":7854:7855  q */\n      0x30644e72e131a029b85045b68181585d2833e84879b9709143e1f593f0000001\n        /* \"src/WithdrawVerifier.sol\":7848:7851  pIn */\n      dup5\n        /* \"src/WithdrawVerifier.sol\":7842:7852  mload(pIn) */\n      mload\n        /* \"src/WithdrawVerifier.sol\":7837:7840  acc */\n      dup4\n        /* \"src/WithdrawVerifier.sol\":7830:7856  mulmod(acc, mload(pIn), q) */\n      mulmod\n        /* \"src/WithdrawVerifier.sol\":7823:7856  acc := mulmod(acc, mload(pIn), q) */\n      swap2\n      pop\n        /* \"src/WithdrawVerifier.sol\":7701:7703  32 */\n      0x20\n        /* \"src/WithdrawVerifier.sol\":7695:7699  pAux */\n      dup6\n        /* \"src/WithdrawVerifier.sol\":7691:7704  add(pAux, 32) */\n      add\n        /* \"src/WithdrawVerifier.sol\":7683:7704  pAux := add(pAux, 32) */\n      swap5\n      pop\n        /* \"src/WithdrawVerifier.sol\":7741:7743  32 */\n      0x20\n        /* \"src/WithdrawVerifier.sol\":7736:7739  pIn */\n      dup5\n        /* \"src/WithdrawVerifier.sol\":7732:7744  add(pIn, 32) */\n      add\n        /* \"src/WithdrawVerifier.sol\":7725:7744  pIn := add(pIn, 32) */\n      swap4\n      pop\n        /* \"src/WithdrawVerifier.sol\":7619:7874  for {... */\n      jump(tag_39)\n    tag_41:\n        /* \"src/WithdrawVerifier.sol\":7898:7913  inverse(acc, q) */\n      tag_42\n        /* \"src/WithdrawVerifier.sol\":7911:7912  q */\n      0x30644e72e131a029b85045b68181585d2833e84879b9709143e1f593f0000001\n        /* \"src/WithdrawVerifier.sol\":7906:7909  acc */\n      dup4\n        /* \"src/WithdrawVerifier.sol\":7898:7913  inverse(acc, q) */\n      tag_11\n      jump\t// in\n    tag_42:\n        /* \"src/WithdrawVerifier.sol\":7891:7913  acc := inverse(acc, q) */\n      swap2\n      pop\n        /* \"src/WithdrawVerifier.sol\":8059:8061  32 */\n      0x20\n        /* \"src/WithdrawVerifier.sol\":8053:8057  pAux */\n      dup6\n        /* \"src/WithdrawVerifier.sol\":8049:8062  sub(pAux, 32) */\n      sub\n        /* \"src/WithdrawVerifier.sol\":8041:8062  pAux := sub(pAux, 32) */\n      swap5\n      pop\n        /* \"src/WithdrawVerifier.sol\":8172:8174  32 */\n      0x20\n        /* \"src/WithdrawVerifier.sol\":8167:8170  pIn */\n      dup5\n        /* \"src/WithdrawVerifier.sol\":8163:8175  sub(pIn, 32) */\n      sub\n        /* \"src/WithdrawVerifier.sol\":8156:8175  pIn := sub(pIn, 32) */\n      swap4\n      pop\n        /* \"src/WithdrawVerifier.sol\":8203:8208  pVals */\n      dup6\n        /* \"src/WithdrawVerifier.sol\":8192:8208  lastPIn := pVals */\n      swap3\n      pop\n        /* \"src/WithdrawVerifier.sol\":8263:8572  for {... */\n    tag_43:\n        /* \"src/WithdrawVerifier.sol\":8296:8303  lastPIn */\n      dup3\n        /* \"src/WithdrawVerifier.sol\":8291:8294  pIn */\n      dup5\n        /* \"src/WithdrawVerifier.sol\":8288:8304  gt(pIn, lastPIn) */\n      gt\n        /* \"src/WithdrawVerifier.sol\":8263:8572  for {... */\n      iszero\n      tag_45\n      jumpi\n        /* \"src/WithdrawVerifier.sol\":8461:8462  q */\n      0x30644e72e131a029b85045b68181585d2833e84879b9709143e1f593f0000001\n        /* \"src/WithdrawVerifier.sol\":8454:8458  pAux */\n      dup6\n        /* \"src/WithdrawVerifier.sol\":8448:8459  mload(pAux) */\n      mload\n        /* \"src/WithdrawVerifier.sol\":8443:8446  acc */\n      dup4\n        /* \"src/WithdrawVerifier.sol\":8436:8463  mulmod(acc, mload(pAux), q) */\n      mulmod\n        /* \"src/WithdrawVerifier.sol\":8429:8463  inv := mulmod(acc, mload(pAux), q) */\n      swap1\n      pop\n        /* \"src/WithdrawVerifier.sol\":8515:8516  q */\n      0x30644e72e131a029b85045b68181585d2833e84879b9709143e1f593f0000001\n        /* \"src/WithdrawVerifier.sol\":8509:8512  pIn */\n      dup5\n        /* \"src/WithdrawVerifier.sol\":8503:8513  mload(pIn) */\n      mload\n        /* \"src/WithdrawVerifier.sol\":8498:8501  acc */\n      dup4\n        /* \"src/WithdrawVerifier.sol\":8491:8517  mulmod(acc, mload(pIn), q) */\n      mulmod\n        /* \"src/WithdrawVerifier.sol\":8484:8517  acc := mulmod(acc, mload(pIn), q) */\n      swap2\n      pop\n        /* \"src/WithdrawVerifier.sol\":8550:8553  inv */\n      dup1\n        /* \"src/WithdrawVerifier.sol\":8545:8548  pIn */\n      dup5\n        /* \"src/WithdrawVerifier.sol\":8538:8554  mstore(pIn, inv) */\n      mstore\n        /* \"src/WithdrawVerifier.sol\":8345:8347  32 */\n      0x20\n        /* \"src/WithdrawVerifier.sol\":8339:8343  pAux */\n      dup6\n        /* \"src/WithdrawVerifier.sol\":8335:8348  sub(pAux, 32) */\n      sub\n        /* \"src/WithdrawVerifier.sol\":8327:8348  pAux := sub(pAux, 32) */\n      swap5\n      pop\n        /* \"src/WithdrawVerifier.sol\":8385:8387  32 */\n      0x20\n        /* \"src/WithdrawVerifier.sol\":8380:8383  pIn */\n      dup5\n        /* \"src/WithdrawVerifier.sol\":8376:8388  sub(pIn, 32) */\n      sub\n        /* \"src/WithdrawVerifier.sol\":8369:8388  pIn := sub(pIn, 32) */\n      swap4\n      pop\n        /* \"src/WithdrawVerifier.sol\":8263:8572  for {... */\n      jump(tag_43)\n    tag_45:\n        /* \"src/WithdrawVerifier.sol\":8665:8668  acc */\n      dup2\n        /* \"src/WithdrawVerifier.sol\":8660:8663  pIn */\n      dup5\n        /* \"src/WithdrawVerifier.sol\":8653:8669  mstore(pIn, acc) */\n      mstore\n        /* \"src/WithdrawVerifier.sol\":7265:8683  {... */\n      pop\n      pop\n      pop\n      pop\n      pop\n        /* \"src/WithdrawVerifier.sol\":7233:8683  function inverseArray(pVals, n) {... */\n      pop\n      pop\n      jump\t// out\n        /* \"src/WithdrawVerifier.sol\":8697:8860  function checkField(v) {... */\n    tag_13:\n        /* \"src/WithdrawVerifier.sol\":8754:8755  q */\n      0x30644e72e131a029b85045b68181585d2833e84879b9709143e1f593f0000001\n        /* \"src/WithdrawVerifier.sol\":8751:8752  v */\n      dup2\n        /* \"src/WithdrawVerifier.sol\":8748:8756  lt(v, q) */\n      lt\n        /* \"src/WithdrawVerifier.sol\":8738:8846  if iszero(lt(v, q)) {... */\n      tag_47\n      jumpi\n        /* \"src/WithdrawVerifier.sol\":8790:8791  0 */\n      0x00\n        /* \"src/WithdrawVerifier.sol\":8787:8788  0 */\n      dup1\n        /* \"src/WithdrawVerifier.sol\":8780:8792  mstore(0, 0) */\n      mstore\n        /* \"src/WithdrawVerifier.sol\":8823:8827  0x20 */\n      0x20\n        /* \"src/WithdrawVerifier.sol\":8820:8821  0 */\n      0x00\n        /* \"src/WithdrawVerifier.sol\":8813:8828  return(0, 0x20) */\n      return\n        /* \"src/WithdrawVerifier.sol\":8738:8846  if iszero(lt(v, q)) {... */\n    tag_47:\n        /* \"src/WithdrawVerifier.sol\":8697:8860  function checkField(v) {... */\n      pop\n      jump\t// out\n        /* \"src/WithdrawVerifier.sol\":8874:9214  function checkInput() {... */\n    tag_14:\n        /* \"src/WithdrawVerifier.sol\":8914:8947  checkField(calldataload(pEval_a)) */\n      tag_49\n        /* \"src/WithdrawVerifier.sol\":8938:8945  pEval_a */\n      0x0244\n        /* \"src/WithdrawVerifier.sol\":8925:8946  calldataload(pEval_a) */\n      calldataload\n        /* \"src/WithdrawVerifier.sol\":8914:8947  checkField(calldataload(pEval_a)) */\n      tag_13\n      jump\t// in\n    tag_49:\n        /* \"src/WithdrawVerifier.sol\":8964:8997  checkField(calldataload(pEval_b)) */\n      tag_50\n        /* \"src/WithdrawVerifier.sol\":8988:8995  pEval_b */\n      0x0264\n        /* \"src/WithdrawVerifier.sol\":8975:8996  calldataload(pEval_b) */\n      calldataload\n        /* \"src/WithdrawVerifier.sol\":8964:8997  checkField(calldataload(pEval_b)) */\n      tag_13\n      jump\t// in\n    tag_50:\n        /* \"src/WithdrawVerifier.sol\":9014:9047  checkField(calldataload(pEval_c)) */\n      tag_51\n        /* \"src/WithdrawVerifier.sol\":9038:9045  pEval_c */\n      0x0284\n        /* \"src/WithdrawVerifier.sol\":9025:9046  calldataload(pEval_c) */\n      calldataload\n        /* \"src/WithdrawVerifier.sol\":9014:9047  checkField(calldataload(pEval_c)) */\n      tag_13\n      jump\t// in\n    tag_51:\n        /* \"src/WithdrawVerifier.sol\":9064:9098  checkField(calldataload(pEval_s1)) */\n      tag_52\n        /* \"src/WithdrawVerifier.sol\":9088:9096  pEval_s1 */\n      0x02a4\n        /* \"src/WithdrawVerifier.sol\":9075:9097  calldataload(pEval_s1) */\n      calldataload\n        /* \"src/WithdrawVerifier.sol\":9064:9098  checkField(calldataload(pEval_s1)) */\n      tag_13\n      jump\t// in\n    tag_52:\n        /* \"src/WithdrawVerifier.sol\":9115:9149  checkField(calldataload(pEval_s2)) */\n      tag_53\n        /* \"src/WithdrawVerifier.sol\":9139:9147  pEval_s2 */\n      0x02c4\n        /* \"src/WithdrawVerifier.sol\":9126:9148  calldataload(pEval_s2) */\n      calldataload\n        /* \"src/WithdrawVerifier.sol\":9115:9149  checkField(calldataload(pEval_s2)) */\n      tag_13\n      jump\t// in\n    tag_53:\n        /* \"src/WithdrawVerifier.sol\":9166:9200  checkField(calldataload(pEval_zw)) */\n      tag_54\n        /* \"src/WithdrawVerifier.sol\":9190:9198  pEval_zw */\n      0x02e4\n        /* \"src/WithdrawVerifier.sol\":9177:9199  calldataload(pEval_zw) */\n      calldataload\n        /* \"src/WithdrawVerifier.sol\":9166:9200  checkField(calldataload(pEval_zw)) */\n      tag_13\n      jump\t// in\n    tag_54:\n        /* \"src/WithdrawVerifier.sol\":8874:9214  function checkInput() {... */\n      jump\t// out\n        /* \"src/WithdrawVerifier.sol\":9228:14545  function calculateChallenges(pMem, pPublic) {... */\n    tag_15:\n        /* \"src/WithdrawVerifier.sol\":9290:9298  let beta */\n      0x00\n        /* \"src/WithdrawVerifier.sol\":9315:9322  let aux */\n      dup1\n        /* \"src/WithdrawVerifier.sol\":9357:9361  0x40 */\n      0x40\n        /* \"src/WithdrawVerifier.sol\":9351:9362  mload(0x40) */\n      mload\n        /* \"src/WithdrawVerifier.sol\":9496:9499  Qmx */\n      0x12cabed0860fd0c7523116717e099ff5873bfd63b6a1c93cd14d541f736cc5a4\n        /* \"src/WithdrawVerifier.sol\":9491:9494  mIn */\n      dup2\n        /* \"src/WithdrawVerifier.sol\":9484:9500  mstore(mIn, Qmx) */\n      mstore\n        /* \"src/WithdrawVerifier.sol\":9538:9541  Qmy */\n      0x16b4580220d86fe615052b231061e22eb3a69929aa6e9462ddf283ed1824dc4b\n        /* \"src/WithdrawVerifier.sol\":9533:9535  32 */\n      0x20\n        /* \"src/WithdrawVerifier.sol\":9528:9531  mIn */\n      dup3\n        /* \"src/WithdrawVerifier.sol\":9524:9536  add(mIn, 32) */\n      add\n        /* \"src/WithdrawVerifier.sol\":9517:9542  mstore(add(mIn, 32), Qmy) */\n      mstore\n        /* \"src/WithdrawVerifier.sol\":9580:9583  Qlx */\n      0x1e22a60ab8d544baef5ed2abe5523ed54dc310dbd69e30ce775e062988073a91\n        /* \"src/WithdrawVerifier.sol\":9575:9577  64 */\n      0x40\n        /* \"src/WithdrawVerifier.sol\":9570:9573  mIn */\n      dup3\n        /* \"src/WithdrawVerifier.sol\":9566:9578  add(mIn, 64) */\n      add\n        /* \"src/WithdrawVerifier.sol\":9559:9584  mstore(add(mIn, 64), Qlx) */\n      mstore\n        /* \"src/WithdrawVerifier.sol\":9622:9625  Qly */\n      0x2f162404095b604bfb90edac58822aecb21a59a572cdcf57be80cc3b6b409bd8\n        /* \"src/WithdrawVerifier.sol\":9617:9619  96 */\n      0x60\n        /* \"src/WithdrawVerifier.sol\":9612:9615  mIn */\n      dup3\n        /* \"src/WithdrawVerifier.sol\":9608:9620  add(mIn, 96) */\n      add\n        /* \"src/WithdrawVerifier.sol\":9601:9626  mstore(add(mIn, 96), Qly) */\n      mstore\n        /* \"src/WithdrawVerifier.sol\":9665:9668  Qrx */\n      0x0a5f796462d2f0c42a1020b4b3e6ec9f1609482abd07c141d4d40eebc605df8e\n        /* \"src/WithdrawVerifier.sol\":9659:9662  128 */\n      0x80\n        /* \"src/WithdrawVerifier.sol\":9654:9657  mIn */\n      dup3\n        /* \"src/WithdrawVerifier.sol\":9650:9663  add(mIn, 128) */\n      add\n        /* \"src/WithdrawVerifier.sol\":9643:9669  mstore(add(mIn, 128), Qrx) */\n      mstore\n        /* \"src/WithdrawVerifier.sol\":9708:9711  Qry */\n      0x13b02773912fc303ec930ba19fb7a120240b80dd140372cf33f33e3a9a3fd294\n        /* \"src/WithdrawVerifier.sol\":9702:9705  160 */\n      0xa0\n        /* \"src/WithdrawVerifier.sol\":9697:9700  mIn */\n      dup3\n        /* \"src/WithdrawVerifier.sol\":9693:9706  add(mIn, 160) */\n      add\n        /* \"src/WithdrawVerifier.sol\":9686:9712  mstore(add(mIn, 160), Qry) */\n      mstore\n        /* \"src/WithdrawVerifier.sol\":9751:9754  Qox */\n      0x08c40db668f4e04d2538c8928eb7d9301cecb22c92f16d54ee3e1646b6a06e3c\n        /* \"src/WithdrawVerifier.sol\":9745:9748  192 */\n      0xc0\n        /* \"src/WithdrawVerifier.sol\":9740:9743  mIn */\n      dup3\n        /* \"src/WithdrawVerifier.sol\":9736:9749  add(mIn, 192) */\n      add\n        /* \"src/WithdrawVerifier.sol\":9729:9755  mstore(add(mIn, 192), Qox) */\n      mstore\n        /* \"src/WithdrawVerifier.sol\":9794:9797  Qoy */\n      0x147349901ab69878711fd82e018690edab81d40103b3934cca71c6c5b7b309fa\n        /* \"src/WithdrawVerifier.sol\":9788:9791  224 */\n      0xe0\n        /* \"src/WithdrawVerifier.sol\":9783:9786  mIn */\n      dup3\n        /* \"src/WithdrawVerifier.sol\":9779:9792  add(mIn, 224) */\n      add\n        /* \"src/WithdrawVerifier.sol\":9772:9798  mstore(add(mIn, 224), Qoy) */\n      mstore\n        /* \"src/WithdrawVerifier.sol\":9837:9840  Qcx */\n      0x0cc3dff60358b99779a35abab1825c38faa91024e30215269e84f91abb376f9b\n        /* \"src/WithdrawVerifier.sol\":9831:9834  256 */\n      0x0100\n        /* \"src/WithdrawVerifier.sol\":9826:9829  mIn */\n      dup3\n        /* \"src/WithdrawVerifier.sol\":9822:9835  add(mIn, 256) */\n      add\n        /* \"src/WithdrawVerifier.sol\":9815:9841  mstore(add(mIn, 256), Qcx) */\n      mstore\n        /* \"src/WithdrawVerifier.sol\":9880:9883  Qcy */\n      0x0c33e564e4dc5a01b0e8877b1a81e47a7056537f697d404be791ad79d94f4949\n        /* \"src/WithdrawVerifier.sol\":9874:9877  288 */\n      0x0120\n        /* \"src/WithdrawVerifier.sol\":9869:9872  mIn */\n      dup3\n        /* \"src/WithdrawVerifier.sol\":9865:9878  add(mIn, 288) */\n      add\n        /* \"src/WithdrawVerifier.sol\":9858:9884  mstore(add(mIn, 288), Qcy) */\n      mstore\n        /* \"src/WithdrawVerifier.sol\":9923:9926  S1x */\n      0x0c3985602038d5eef94a31160a1031a6564ba2a69d709eaa1f2b5b3ee89234f1\n        /* \"src/WithdrawVerifier.sol\":9917:9920  320 */\n      0x0140\n        /* \"src/WithdrawVerifier.sol\":9912:9915  mIn */\n      dup3\n        /* \"src/WithdrawVerifier.sol\":9908:9921  add(mIn, 320) */\n      add\n        /* \"src/WithdrawVerifier.sol\":9901:9927  mstore(add(mIn, 320), S1x) */\n      mstore\n        /* \"src/WithdrawVerifier.sol\":9966:9969  S1y */\n      0x1f45644e6dac9a6aed6e8d6716b3d37d2f0fdb2c9bc0c32b7d24c293ad0ea530\n        /* \"src/WithdrawVerifier.sol\":9960:9963  352 */\n      0x0160\n        /* \"src/WithdrawVerifier.sol\":9955:9958  mIn */\n      dup3\n        /* \"src/WithdrawVerifier.sol\":9951:9964  add(mIn, 352) */\n      add\n        /* \"src/WithdrawVerifier.sol\":9944:9970  mstore(add(mIn, 352), S1y) */\n      mstore\n        /* \"src/WithdrawVerifier.sol\":10009:10012  S2x */\n      0x01448ea5436c1c69d2ffb9e2641aea2da43b8b371fac2550d5cb464a33225e7a\n        /* \"src/WithdrawVerifier.sol\":10003:10006  384 */\n      0x0180\n        /* \"src/WithdrawVerifier.sol\":9998:10001  mIn */\n      dup3\n        /* \"src/WithdrawVerifier.sol\":9994:10007  add(mIn, 384) */\n      add\n        /* \"src/WithdrawVerifier.sol\":9987:10013  mstore(add(mIn, 384), S2x) */\n      mstore\n        /* \"src/WithdrawVerifier.sol\":10052:10055  S2y */\n      0x1b781cb84343789ad0cd3fa896de791ae4daa3b13a94043cb75d522b768a8bf3\n        /* \"src/WithdrawVerifier.sol\":10046:10049  416 */\n      0x01a0\n        /* \"src/WithdrawVerifier.sol\":10041:10044  mIn */\n      dup3\n        /* \"src/WithdrawVerifier.sol\":10037:10050  add(mIn, 416) */\n      add\n        /* \"src/WithdrawVerifier.sol\":10030:10056  mstore(add(mIn, 416), S2y) */\n      mstore\n        /* \"src/WithdrawVerifier.sol\":10095:10098  S3x */\n      0x0e4f9795b9116336bf3a3320dea3a0245a2f701ea2ed336636cb02e6faa44cc8\n        /* \"src/WithdrawVerifier.sol\":10089:10092  448 */\n      0x01c0\n        /* \"src/WithdrawVerifier.sol\":10084:10087  mIn */\n      dup3\n        /* \"src/WithdrawVerifier.sol\":10080:10093  add(mIn, 448) */\n      add\n        /* \"src/WithdrawVerifier.sol\":10073:10099  mstore(add(mIn, 448), S3x) */\n      mstore\n        /* \"src/WithdrawVerifier.sol\":10138:10141  S3y */\n      0x0ba1017e695ce55339a862dff8d3a67ced9b177e9a23aaf5eaa444620b0fdde3\n        /* \"src/WithdrawVerifier.sol\":10132:10135  480 */\n      0x01e0\n        /* \"src/WithdrawVerifier.sol\":10127:10130  mIn */\n      dup3\n        /* \"src/WithdrawVerifier.sol\":10123:10136  add(mIn, 480) */\n      add\n        /* \"src/WithdrawVerifier.sol\":10116:10142  mstore(add(mIn, 480), S3y) */\n      mstore\n        /* \"src/WithdrawVerifier.sol\":10208:10209  0 */\n      0x00\n        /* \"src/WithdrawVerifier.sol\":10199:10206  pPublic */\n      dup6\n        /* \"src/WithdrawVerifier.sol\":10195:10210  add(pPublic, 0) */\n      add\n        /* \"src/WithdrawVerifier.sol\":10182:10211  calldataload(add(pPublic, 0)) */\n      calldataload\n        /* \"src/WithdrawVerifier.sol\":10176:10179  512 */\n      0x0200\n        /* \"src/WithdrawVerifier.sol\":10171:10174  mIn */\n      dup3\n        /* \"src/WithdrawVerifier.sol\":10167:10180  add(mIn, 512) */\n      add\n        /* \"src/WithdrawVerifier.sol\":10160:10212  mstore(add(mIn, 512), calldataload(add(pPublic, 0))) */\n      mstore\n        /* \"src/WithdrawVerifier.sol\":10278:10280  32 */\n      0x20\n        /* \"src/WithdrawVerifier.sol\":10269:10276  pPublic */\n      dup6\n        /* \"src/WithdrawVerifier.sol\":10265:10281  add(pPublic, 32) */\n      add\n        /* \"src/WithdrawVerifier.sol\":10252:10282  calldataload(add(pPublic, 32)) */\n      calldataload\n        /* \"src/WithdrawVerifier.sol\":10246:10249  544 */\n      0x0220\n        /* \"src/WithdrawVerifier.sol\":10241:10244  mIn */\n      dup3\n        /* \"src/WithdrawVerifier.sol\":10237:10250  add(mIn, 544) */\n      add\n        /* \"src/WithdrawVerifier.sol\":10230:10283  mstore(add(mIn, 544), calldataload(add(pPublic, 32))) */\n      mstore\n        /* \"src/WithdrawVerifier.sol\":10349:10351  64 */\n      0x40\n        /* \"src/WithdrawVerifier.sol\":10340:10347  pPublic */\n      dup6\n        /* \"src/WithdrawVerifier.sol\":10336:10352  add(pPublic, 64) */\n      add\n        /* \"src/WithdrawVerifier.sol\":10323:10353  calldataload(add(pPublic, 64)) */\n      calldataload\n        /* \"src/WithdrawVerifier.sol\":10317:10320  576 */\n      0x0240\n        /* \"src/WithdrawVerifier.sol\":10312:10315  mIn */\n      dup3\n        /* \"src/WithdrawVerifier.sol\":10308:10321  add(mIn, 576) */\n      add\n        /* \"src/WithdrawVerifier.sol\":10301:10354  mstore(add(mIn, 576), calldataload(add(pPublic, 64))) */\n      mstore\n        /* \"src/WithdrawVerifier.sol\":10420:10422  96 */\n      0x60\n        /* \"src/WithdrawVerifier.sol\":10411:10418  pPublic */\n      dup6\n        /* \"src/WithdrawVerifier.sol\":10407:10423  add(pPublic, 96) */\n      add\n        /* \"src/WithdrawVerifier.sol\":10394:10424  calldataload(add(pPublic, 96)) */\n      calldataload\n        /* \"src/WithdrawVerifier.sol\":10388:10391  608 */\n      0x0260\n        /* \"src/WithdrawVerifier.sol\":10383:10386  mIn */\n      dup3\n        /* \"src/WithdrawVerifier.sol\":10379:10392  add(mIn, 608) */\n      add\n        /* \"src/WithdrawVerifier.sol\":10372:10425  mstore(add(mIn, 608), calldataload(add(pPublic, 96))) */\n      mstore\n        /* \"src/WithdrawVerifier.sol\":10491:10494  128 */\n      0x80\n        /* \"src/WithdrawVerifier.sol\":10482:10489  pPublic */\n      dup6\n        /* \"src/WithdrawVerifier.sol\":10478:10495  add(pPublic, 128) */\n      add\n        /* \"src/WithdrawVerifier.sol\":10465:10496  calldataload(add(pPublic, 128)) */\n      calldataload\n        /* \"src/WithdrawVerifier.sol\":10459:10462  640 */\n      0x0280\n        /* \"src/WithdrawVerifier.sol\":10454:10457  mIn */\n      dup3\n        /* \"src/WithdrawVerifier.sol\":10450:10463  add(mIn, 640) */\n      add\n        /* \"src/WithdrawVerifier.sol\":10443:10497  mstore(add(mIn, 640), calldataload(add(pPublic, 128))) */\n      mstore\n        /* \"src/WithdrawVerifier.sol\":10563:10566  160 */\n      0xa0\n        /* \"src/WithdrawVerifier.sol\":10554:10561  pPublic */\n      dup6\n        /* \"src/WithdrawVerifier.sol\":10550:10567  add(pPublic, 160) */\n      add\n        /* \"src/WithdrawVerifier.sol\":10537:10568  calldataload(add(pPublic, 160)) */\n      calldataload\n        /* \"src/WithdrawVerifier.sol\":10531:10534  672 */\n      0x02a0\n        /* \"src/WithdrawVerifier.sol\":10526:10529  mIn */\n      dup3\n        /* \"src/WithdrawVerifier.sol\":10522:10535  add(mIn, 672) */\n      add\n        /* \"src/WithdrawVerifier.sol\":10515:10569  mstore(add(mIn, 672), calldataload(add(pPublic, 160))) */\n      mstore\n        /* \"src/WithdrawVerifier.sol\":10635:10638  192 */\n      0xc0\n        /* \"src/WithdrawVerifier.sol\":10626:10633  pPublic */\n      dup6\n        /* \"src/WithdrawVerifier.sol\":10622:10639  add(pPublic, 192) */\n      add\n        /* \"src/WithdrawVerifier.sol\":10609:10640  calldataload(add(pPublic, 192)) */\n      calldataload\n        /* \"src/WithdrawVerifier.sol\":10603:10606  704 */\n      0x02c0\n        /* \"src/WithdrawVerifier.sol\":10598:10601  mIn */\n      dup3\n        /* \"src/WithdrawVerifier.sol\":10594:10607  add(mIn, 704) */\n      add\n        /* \"src/WithdrawVerifier.sol\":10587:10641  mstore(add(mIn, 704), calldataload(add(pPublic, 192))) */\n      mstore\n        /* \"src/WithdrawVerifier.sol\":10694:10696  pA */\n      0x04\n        /* \"src/WithdrawVerifier.sol\":10681:10697  calldataload(pA) */\n      calldataload\n        /* \"src/WithdrawVerifier.sol\":10675:10678  736 */\n      0x02e0\n        /* \"src/WithdrawVerifier.sol\":10670:10673  mIn */\n      dup3\n        /* \"src/WithdrawVerifier.sol\":10666:10679  add(mIn, 736) */\n      add\n        /* \"src/WithdrawVerifier.sol\":10659:10698  mstore(add(mIn, 736), calldataload(pA)) */\n      mstore\n        /* \"src/WithdrawVerifier.sol\":10758:10760  32 */\n      0x20\n        /* \"src/WithdrawVerifier.sol\":10754:10756  pA */\n      0x04\n        /* \"src/WithdrawVerifier.sol\":10750:10761  add(pA, 32) */\n      add\n        /* \"src/WithdrawVerifier.sol\":10737:10762  calldataload(add(pA, 32)) */\n      calldataload\n        /* \"src/WithdrawVerifier.sol\":10731:10734  768 */\n      0x0300\n        /* \"src/WithdrawVerifier.sol\":10726:10729  mIn */\n      dup3\n        /* \"src/WithdrawVerifier.sol\":10722:10735  add(mIn, 768) */\n      add\n        /* \"src/WithdrawVerifier.sol\":10715:10763  mstore(add(mIn, 768), calldataload(add(pA, 32))) */\n      mstore\n        /* \"src/WithdrawVerifier.sol\":10815:10817  pB */\n      0x44\n        /* \"src/WithdrawVerifier.sol\":10802:10818  calldataload(pB) */\n      calldataload\n        /* \"src/WithdrawVerifier.sol\":10796:10799  800 */\n      0x0320\n        /* \"src/WithdrawVerifier.sol\":10791:10794  mIn */\n      dup3\n        /* \"src/WithdrawVerifier.sol\":10787:10800  add(mIn, 800) */\n      add\n        /* \"src/WithdrawVerifier.sol\":10780:10819  mstore(add(mIn, 800), calldataload(pB)) */\n      mstore\n        /* \"src/WithdrawVerifier.sol\":10879:10881  32 */\n      0x20\n        /* \"src/WithdrawVerifier.sol\":10875:10877  pB */\n      0x44\n        /* \"src/WithdrawVerifier.sol\":10871:10882  add(pB, 32) */\n      add\n        /* \"src/WithdrawVerifier.sol\":10858:10883  calldataload(add(pB, 32)) */\n      calldataload\n        /* \"src/WithdrawVerifier.sol\":10852:10855  832 */\n      0x0340\n        /* \"src/WithdrawVerifier.sol\":10847:10850  mIn */\n      dup3\n        /* \"src/WithdrawVerifier.sol\":10843:10856  add(mIn, 832) */\n      add\n        /* \"src/WithdrawVerifier.sol\":10836:10884  mstore(add(mIn, 832), calldataload(add(pB, 32))) */\n      mstore\n        /* \"src/WithdrawVerifier.sol\":10936:10938  pC */\n      0x84\n        /* \"src/WithdrawVerifier.sol\":10923:10939  calldataload(pC) */\n      calldataload\n        /* \"src/WithdrawVerifier.sol\":10917:10920  864 */\n      0x0360\n        /* \"src/WithdrawVerifier.sol\":10912:10915  mIn */\n      dup3\n        /* \"src/WithdrawVerifier.sol\":10908:10921  add(mIn, 864) */\n      add\n        /* \"src/WithdrawVerifier.sol\":10901:10940  mstore(add(mIn, 864), calldataload(pC)) */\n      mstore\n        /* \"src/WithdrawVerifier.sol\":11000:11002  32 */\n      0x20\n        /* \"src/WithdrawVerifier.sol\":10996:10998  pC */\n      0x84\n        /* \"src/WithdrawVerifier.sol\":10992:11003  add(pC, 32) */\n      add\n        /* \"src/WithdrawVerifier.sol\":10979:11004  calldataload(add(pC, 32)) */\n      calldataload\n        /* \"src/WithdrawVerifier.sol\":10973:10976  896 */\n      0x0380\n        /* \"src/WithdrawVerifier.sol\":10968:10971  mIn */\n      dup3\n        /* \"src/WithdrawVerifier.sol\":10964:10977  add(mIn, 896) */\n      add\n        /* \"src/WithdrawVerifier.sol\":10957:11005  mstore(add(mIn, 896), calldataload(add(pC, 32))) */\n      mstore\n        /* \"src/WithdrawVerifier.sol\":11056:11057  q */\n      0x30644e72e131a029b85045b68181585d2833e84879b9709143e1f593f0000001\n        /* \"src/WithdrawVerifier.sol\":11050:11053  928 */\n      0x03a0\n        /* \"src/WithdrawVerifier.sol\":11045:11048  mIn */\n      dup3\n        /* \"src/WithdrawVerifier.sol\":11035:11054  keccak256(mIn, 928) */\n      keccak256\n        /* \"src/WithdrawVerifier.sol\":11031:11058  mod(keccak256(mIn, 928), q) */\n      mod\n        /* \"src/WithdrawVerifier.sol\":11023:11058  beta := mod(keccak256(mIn, 928), q) */\n      swap3\n      pop\n        /* \"src/WithdrawVerifier.sol\":11100:11104  beta */\n      dup3\n        /* \"src/WithdrawVerifier.sol\":11092:11097  pBeta */\n      0x20\n        /* \"src/WithdrawVerifier.sol\":11086:11090  pMem */\n      dup6\n        /* \"src/WithdrawVerifier.sol\":11082:11098  add(pMem, pBeta) */\n      add\n        /* \"src/WithdrawVerifier.sol\":11075:11105  mstore(add(pMem, pBeta), beta) */\n      mstore\n        /* \"src/WithdrawVerifier.sol\":11263:11264  q */\n      0x30644e72e131a029b85045b68181585d2833e84879b9709143e1f593f0000001\n        /* \"src/WithdrawVerifier.sol\":11258:11260  32 */\n      0x20\n        /* \"src/WithdrawVerifier.sol\":11250:11255  pBeta */\n      dup1\n        /* \"src/WithdrawVerifier.sol\":11244:11248  pMem */\n      dup7\n        /* \"src/WithdrawVerifier.sol\":11240:11256  add(pMem, pBeta) */\n      add\n        /* \"src/WithdrawVerifier.sol\":11230:11261  keccak256(add(pMem, pBeta), 32) */\n      keccak256\n        /* \"src/WithdrawVerifier.sol\":11226:11265  mod(keccak256(add(pMem, pBeta), 32), q) */\n      mod\n        /* \"src/WithdrawVerifier.sol\":11197:11203  pGamma */\n      0x40\n        /* \"src/WithdrawVerifier.sol\":11191:11195  pMem */\n      dup6\n        /* \"src/WithdrawVerifier.sol\":11187:11204  add(pMem, pGamma) */\n      add\n        /* \"src/WithdrawVerifier.sol\":11159:11283  mstore(... */\n      mstore\n        /* \"src/WithdrawVerifier.sol\":11365:11370  pBeta */\n      0x20\n        /* \"src/WithdrawVerifier.sol\":11359:11363  pMem */\n      dup5\n        /* \"src/WithdrawVerifier.sol\":11355:11371  add(pMem, pBeta) */\n      add\n        /* \"src/WithdrawVerifier.sol\":11349:11372  mload(add(pMem, pBeta)) */\n      mload\n        /* \"src/WithdrawVerifier.sol\":11344:11347  mIn */\n      dup2\n        /* \"src/WithdrawVerifier.sol\":11337:11373  mstore(mIn, mload(add(pMem, pBeta))) */\n      mstore\n        /* \"src/WithdrawVerifier.sol\":11427:11433  pGamma */\n      0x40\n        /* \"src/WithdrawVerifier.sol\":11421:11425  pMem */\n      dup5\n        /* \"src/WithdrawVerifier.sol\":11417:11434  add(pMem, pGamma) */\n      add\n        /* \"src/WithdrawVerifier.sol\":11411:11435  mload(add(pMem, pGamma)) */\n      mload\n        /* \"src/WithdrawVerifier.sol\":11406:11408  32 */\n      0x20\n        /* \"src/WithdrawVerifier.sol\":11401:11404  mIn */\n      dup3\n        /* \"src/WithdrawVerifier.sol\":11397:11409  add(mIn, 32) */\n      add\n        /* \"src/WithdrawVerifier.sol\":11390:11436  mstore(add(mIn, 32), mload(add(pMem, pGamma))) */\n      mstore\n        /* \"src/WithdrawVerifier.sol\":11487:11489  pZ */\n      0xc4\n        /* \"src/WithdrawVerifier.sol\":11474:11490  calldataload(pZ) */\n      calldataload\n        /* \"src/WithdrawVerifier.sol\":11469:11471  64 */\n      0x40\n        /* \"src/WithdrawVerifier.sol\":11464:11467  mIn */\n      dup3\n        /* \"src/WithdrawVerifier.sol\":11460:11472  add(mIn, 64) */\n      add\n        /* \"src/WithdrawVerifier.sol\":11453:11491  mstore(add(mIn, 64), calldataload(pZ)) */\n      mstore\n        /* \"src/WithdrawVerifier.sol\":11550:11552  32 */\n      0x20\n        /* \"src/WithdrawVerifier.sol\":11546:11548  pZ */\n      0xc4\n        /* \"src/WithdrawVerifier.sol\":11542:11553  add(pZ, 32) */\n      add\n        /* \"src/WithdrawVerifier.sol\":11529:11554  calldataload(add(pZ, 32)) */\n      calldataload\n        /* \"src/WithdrawVerifier.sol\":11524:11526  96 */\n      0x60\n        /* \"src/WithdrawVerifier.sol\":11519:11522  mIn */\n      dup3\n        /* \"src/WithdrawVerifier.sol\":11515:11527  add(mIn, 96) */\n      add\n        /* \"src/WithdrawVerifier.sol\":11508:11555  mstore(add(mIn, 96), calldataload(add(pZ, 32))) */\n      mstore\n        /* \"src/WithdrawVerifier.sol\":11605:11606  q */\n      0x30644e72e131a029b85045b68181585d2833e84879b9709143e1f593f0000001\n        /* \"src/WithdrawVerifier.sol\":11599:11602  128 */\n      0x80\n        /* \"src/WithdrawVerifier.sol\":11594:11597  mIn */\n      dup3\n        /* \"src/WithdrawVerifier.sol\":11584:11603  keccak256(mIn, 128) */\n      keccak256\n        /* \"src/WithdrawVerifier.sol\":11580:11607  mod(keccak256(mIn, 128), q) */\n      mod\n        /* \"src/WithdrawVerifier.sol\":11573:11607  aux := mod(keccak256(mIn, 128), q) */\n      swap2\n      pop\n        /* \"src/WithdrawVerifier.sol\":11650:11653  aux */\n      dup2\n        /* \"src/WithdrawVerifier.sol\":11641:11647  pAlpha */\n      0x00\n        /* \"src/WithdrawVerifier.sol\":11635:11639  pMem */\n      dup6\n        /* \"src/WithdrawVerifier.sol\":11631:11648  add(pMem, pAlpha) */\n      add\n        /* \"src/WithdrawVerifier.sol\":11624:11654  mstore(add(pMem, pAlpha), aux) */\n      mstore\n        /* \"src/WithdrawVerifier.sol\":11715:11716  q */\n      0x30644e72e131a029b85045b68181585d2833e84879b9709143e1f593f0000001\n        /* \"src/WithdrawVerifier.sol\":11710:11713  aux */\n      dup3\n        /* \"src/WithdrawVerifier.sol\":11705:11708  aux */\n      dup4\n        /* \"src/WithdrawVerifier.sol\":11698:11717  mulmod(aux, aux, q) */\n      mulmod\n        /* \"src/WithdrawVerifier.sol\":11688:11695  pAlpha2 */\n      0x02c0\n        /* \"src/WithdrawVerifier.sol\":11682:11686  pMem */\n      dup6\n        /* \"src/WithdrawVerifier.sol\":11678:11696  add(pMem, pAlpha2) */\n      add\n        /* \"src/WithdrawVerifier.sol\":11671:11718  mstore(add(pMem, pAlpha2), mulmod(aux, aux, q)) */\n      mstore\n        /* \"src/WithdrawVerifier.sol\":11781:11784  aux */\n      dup2\n        /* \"src/WithdrawVerifier.sol\":11776:11779  mIn */\n      dup2\n        /* \"src/WithdrawVerifier.sol\":11769:11785  mstore(mIn, aux) */\n      mstore\n        /* \"src/WithdrawVerifier.sol\":11836:11839  pT1 */\n      0x0104\n        /* \"src/WithdrawVerifier.sol\":11823:11840  calldataload(pT1) */\n      calldataload\n        /* \"src/WithdrawVerifier.sol\":11818:11820  32 */\n      0x20\n        /* \"src/WithdrawVerifier.sol\":11813:11816  mIn */\n      dup3\n        /* \"src/WithdrawVerifier.sol\":11809:11821  add(mIn, 32) */\n      add\n        /* \"src/WithdrawVerifier.sol\":11802:11841  mstore(add(mIn, 32), calldataload(pT1)) */\n      mstore\n        /* \"src/WithdrawVerifier.sol\":11901:11903  32 */\n      0x20\n        /* \"src/WithdrawVerifier.sol\":11896:11899  pT1 */\n      0x0104\n        /* \"src/WithdrawVerifier.sol\":11892:11904  add(pT1, 32) */\n      add\n        /* \"src/WithdrawVerifier.sol\":11879:11905  calldataload(add(pT1, 32)) */\n      calldataload\n        /* \"src/WithdrawVerifier.sol\":11874:11876  64 */\n      0x40\n        /* \"src/WithdrawVerifier.sol\":11869:11872  mIn */\n      dup3\n        /* \"src/WithdrawVerifier.sol\":11865:11877  add(mIn, 64) */\n      add\n        /* \"src/WithdrawVerifier.sol\":11858:11906  mstore(add(mIn, 64), calldataload(add(pT1, 32))) */\n      mstore\n        /* \"src/WithdrawVerifier.sol\":11957:11960  pT2 */\n      0x0144\n        /* \"src/WithdrawVerifier.sol\":11944:11961  calldataload(pT2) */\n      calldataload\n        /* \"src/WithdrawVerifier.sol\":11939:11941  96 */\n      0x60\n        /* \"src/WithdrawVerifier.sol\":11934:11937  mIn */\n      dup3\n        /* \"src/WithdrawVerifier.sol\":11930:11942  add(mIn, 96) */\n      add\n        /* \"src/WithdrawVerifier.sol\":11923:11962  mstore(add(mIn, 96), calldataload(pT2)) */\n      mstore\n        /* \"src/WithdrawVerifier.sol\":12023:12025  32 */\n      0x20\n        /* \"src/WithdrawVerifier.sol\":12018:12021  pT2 */\n      0x0144\n        /* \"src/WithdrawVerifier.sol\":12014:12026  add(pT2, 32) */\n      add\n        /* \"src/WithdrawVerifier.sol\":12001:12027  calldataload(add(pT2, 32)) */\n      calldataload\n        /* \"src/WithdrawVerifier.sol\":11995:11998  128 */\n      0x80\n        /* \"src/WithdrawVerifier.sol\":11990:11993  mIn */\n      dup3\n        /* \"src/WithdrawVerifier.sol\":11986:11999  add(mIn, 128) */\n      add\n        /* \"src/WithdrawVerifier.sol\":11979:12028  mstore(add(mIn, 128), calldataload(add(pT2, 32))) */\n      mstore\n        /* \"src/WithdrawVerifier.sol\":12080:12083  pT3 */\n      0x0184\n        /* \"src/WithdrawVerifier.sol\":12067:12084  calldataload(pT3) */\n      calldataload\n        /* \"src/WithdrawVerifier.sol\":12061:12064  160 */\n      0xa0\n        /* \"src/WithdrawVerifier.sol\":12056:12059  mIn */\n      dup3\n        /* \"src/WithdrawVerifier.sol\":12052:12065  add(mIn, 160) */\n      add\n        /* \"src/WithdrawVerifier.sol\":12045:12085  mstore(add(mIn, 160), calldataload(pT3)) */\n      mstore\n        /* \"src/WithdrawVerifier.sol\":12146:12148  32 */\n      0x20\n        /* \"src/WithdrawVerifier.sol\":12141:12144  pT3 */\n      0x0184\n        /* \"src/WithdrawVerifier.sol\":12137:12149  add(pT3, 32) */\n      add\n        /* \"src/WithdrawVerifier.sol\":12124:12150  calldataload(add(pT3, 32)) */\n      calldataload\n        /* \"src/WithdrawVerifier.sol\":12118:12121  192 */\n      0xc0\n        /* \"src/WithdrawVerifier.sol\":12113:12116  mIn */\n      dup3\n        /* \"src/WithdrawVerifier.sol\":12109:12122  add(mIn, 192) */\n      add\n        /* \"src/WithdrawVerifier.sol\":12102:12151  mstore(add(mIn, 192), calldataload(add(pT3, 32))) */\n      mstore\n        /* \"src/WithdrawVerifier.sol\":12201:12202  q */\n      0x30644e72e131a029b85045b68181585d2833e84879b9709143e1f593f0000001\n        /* \"src/WithdrawVerifier.sol\":12195:12198  224 */\n      0xe0\n        /* \"src/WithdrawVerifier.sol\":12190:12193  mIn */\n      dup3\n        /* \"src/WithdrawVerifier.sol\":12180:12199  keccak256(mIn, 224) */\n      keccak256\n        /* \"src/WithdrawVerifier.sol\":12176:12203  mod(keccak256(mIn, 224), q) */\n      mod\n        /* \"src/WithdrawVerifier.sol\":12169:12203  aux := mod(keccak256(mIn, 224), q) */\n      swap2\n      pop\n        /* \"src/WithdrawVerifier.sol\":12243:12246  aux */\n      dup2\n        /* \"src/WithdrawVerifier.sol\":12237:12240  pXi */\n      0x60\n        /* \"src/WithdrawVerifier.sol\":12231:12235  pMem */\n      dup6\n        /* \"src/WithdrawVerifier.sol\":12227:12241  add(pMem, pXi) */\n      add\n        /* \"src/WithdrawVerifier.sol\":12220:12247  mstore(add(pMem, pXi), aux) */\n      mstore\n        /* \"src/WithdrawVerifier.sol\":12309:12312  aux */\n      dup2\n        /* \"src/WithdrawVerifier.sol\":12304:12307  mIn */\n      dup2\n        /* \"src/WithdrawVerifier.sol\":12297:12313  mstore(mIn, aux) */\n      mstore\n        /* \"src/WithdrawVerifier.sol\":12364:12371  pEval_a */\n      0x0244\n        /* \"src/WithdrawVerifier.sol\":12351:12372  calldataload(pEval_a) */\n      calldataload\n        /* \"src/WithdrawVerifier.sol\":12346:12348  32 */\n      0x20\n        /* \"src/WithdrawVerifier.sol\":12341:12344  mIn */\n      dup3\n        /* \"src/WithdrawVerifier.sol\":12337:12349  add(mIn, 32) */\n      add\n        /* \"src/WithdrawVerifier.sol\":12330:12373  mstore(add(mIn, 32), calldataload(pEval_a)) */\n      mstore\n        /* \"src/WithdrawVerifier.sol\":12424:12431  pEval_b */\n      0x0264\n        /* \"src/WithdrawVerifier.sol\":12411:12432  calldataload(pEval_b) */\n      calldataload\n        /* \"src/WithdrawVerifier.sol\":12406:12408  64 */\n      0x40\n        /* \"src/WithdrawVerifier.sol\":12401:12404  mIn */\n      dup3\n        /* \"src/WithdrawVerifier.sol\":12397:12409  add(mIn, 64) */\n      add\n        /* \"src/WithdrawVerifier.sol\":12390:12433  mstore(add(mIn, 64), calldataload(pEval_b)) */\n      mstore\n        /* \"src/WithdrawVerifier.sol\":12484:12491  pEval_c */\n      0x0284\n        /* \"src/WithdrawVerifier.sol\":12471:12492  calldataload(pEval_c) */\n      calldataload\n        /* \"src/WithdrawVerifier.sol\":12466:12468  96 */\n      0x60\n        /* \"src/WithdrawVerifier.sol\":12461:12464  mIn */\n      dup3\n        /* \"src/WithdrawVerifier.sol\":12457:12469  add(mIn, 96) */\n      add\n        /* \"src/WithdrawVerifier.sol\":12450:12493  mstore(add(mIn, 96), calldataload(pEval_c)) */\n      mstore\n        /* \"src/WithdrawVerifier.sol\":12545:12553  pEval_s1 */\n      0x02a4\n        /* \"src/WithdrawVerifier.sol\":12532:12554  calldataload(pEval_s1) */\n      calldataload\n        /* \"src/WithdrawVerifier.sol\":12526:12529  128 */\n      0x80\n        /* \"src/WithdrawVerifier.sol\":12521:12524  mIn */\n      dup3\n        /* \"src/WithdrawVerifier.sol\":12517:12530  add(mIn, 128) */\n      add\n        /* \"src/WithdrawVerifier.sol\":12510:12555  mstore(add(mIn, 128), calldataload(pEval_s1)) */\n      mstore\n        /* \"src/WithdrawVerifier.sol\":12607:12615  pEval_s2 */\n      0x02c4\n        /* \"src/WithdrawVerifier.sol\":12594:12616  calldataload(pEval_s2) */\n      calldataload\n        /* \"src/WithdrawVerifier.sol\":12588:12591  160 */\n      0xa0\n        /* \"src/WithdrawVerifier.sol\":12583:12586  mIn */\n      dup3\n        /* \"src/WithdrawVerifier.sol\":12579:12592  add(mIn, 160) */\n      add\n        /* \"src/WithdrawVerifier.sol\":12572:12617  mstore(add(mIn, 160), calldataload(pEval_s2)) */\n      mstore\n        /* \"src/WithdrawVerifier.sol\":12669:12677  pEval_zw */\n      0x02e4\n        /* \"src/WithdrawVerifier.sol\":12656:12678  calldataload(pEval_zw) */\n      calldataload\n        /* \"src/WithdrawVerifier.sol\":12650:12653  192 */\n      0xc0\n        /* \"src/WithdrawVerifier.sol\":12645:12648  mIn */\n      dup3\n        /* \"src/WithdrawVerifier.sol\":12641:12654  add(mIn, 192) */\n      add\n        /* \"src/WithdrawVerifier.sol\":12634:12679  mstore(add(mIn, 192), calldataload(pEval_zw)) */\n      mstore\n        /* \"src/WithdrawVerifier.sol\":12732:12733  q */\n      0x30644e72e131a029b85045b68181585d2833e84879b9709143e1f593f0000001\n        /* \"src/WithdrawVerifier.sol\":12726:12729  224 */\n      0xe0\n        /* \"src/WithdrawVerifier.sol\":12721:12724  mIn */\n      dup3\n        /* \"src/WithdrawVerifier.sol\":12711:12730  keccak256(mIn, 224) */\n      keccak256\n        /* \"src/WithdrawVerifier.sol\":12707:12734  mod(keccak256(mIn, 224), q) */\n      mod\n        /* \"src/WithdrawVerifier.sol\":12774:12776  v1 */\n      dup1\n        /* \"src/WithdrawVerifier.sol\":12768:12771  pV1 */\n      0xc0\n        /* \"src/WithdrawVerifier.sol\":12762:12766  pMem */\n      dup7\n        /* \"src/WithdrawVerifier.sol\":12758:12772  add(pMem, pV1) */\n      add\n        /* \"src/WithdrawVerifier.sol\":12751:12777  mstore(add(pMem, pV1), v1) */\n      mstore\n        /* \"src/WithdrawVerifier.sol\":12891:12892  q */\n      0x30644e72e131a029b85045b68181585d2833e84879b9709143e1f593f0000001\n        /* \"src/WithdrawVerifier.sol\":12886:12889  aux */\n      dup4\n        /* \"src/WithdrawVerifier.sol\":12880:12884  beta */\n      dup6\n        /* \"src/WithdrawVerifier.sol\":12873:12893  mulmod(beta, aux, q) */\n      mulmod\n        /* \"src/WithdrawVerifier.sol\":12863:12870  pBetaXi */\n      0xa0\n        /* \"src/WithdrawVerifier.sol\":12857:12861  pMem */\n      dup7\n        /* \"src/WithdrawVerifier.sol\":12853:12871  add(pMem, pBetaXi) */\n      add\n        /* \"src/WithdrawVerifier.sol\":12846:12894  mstore(add(pMem, pBetaXi), mulmod(beta, aux, q)) */\n      mstore\n        /* \"src/WithdrawVerifier.sol\":12972:12973  q */\n      0x30644e72e131a029b85045b68181585d2833e84879b9709143e1f593f0000001\n        /* \"src/WithdrawVerifier.sol\":12967:12970  aux */\n      dup4\n        /* \"src/WithdrawVerifier.sol\":12962:12965  aux */\n      dup5\n        /* \"src/WithdrawVerifier.sol\":12955:12974  mulmod(aux, aux, q) */\n      mulmod\n        /* \"src/WithdrawVerifier.sol\":12948:12974  aux := mulmod(aux, aux, q) */\n      swap3\n      pop\n        /* \"src/WithdrawVerifier.sol\":13016:13017  q */\n      0x30644e72e131a029b85045b68181585d2833e84879b9709143e1f593f0000001\n        /* \"src/WithdrawVerifier.sol\":13011:13014  aux */\n      dup4\n        /* \"src/WithdrawVerifier.sol\":13006:13009  aux */\n      dup5\n        /* \"src/WithdrawVerifier.sol\":12999:13018  mulmod(aux, aux, q) */\n      mulmod\n        /* \"src/WithdrawVerifier.sol\":12992:13018  aux := mulmod(aux, aux, q) */\n      swap3\n      pop\n        /* \"src/WithdrawVerifier.sol\":13060:13061  q */\n      0x30644e72e131a029b85045b68181585d2833e84879b9709143e1f593f0000001\n        /* \"src/WithdrawVerifier.sol\":13055:13058  aux */\n      dup4\n        /* \"src/WithdrawVerifier.sol\":13050:13053  aux */\n      dup5\n        /* \"src/WithdrawVerifier.sol\":13043:13062  mulmod(aux, aux, q) */\n      mulmod\n        /* \"src/WithdrawVerifier.sol\":13036:13062  aux := mulmod(aux, aux, q) */\n      swap3\n      pop\n        /* \"src/WithdrawVerifier.sol\":13104:13105  q */\n      0x30644e72e131a029b85045b68181585d2833e84879b9709143e1f593f0000001\n        /* \"src/WithdrawVerifier.sol\":13099:13102  aux */\n      dup4\n        /* \"src/WithdrawVerifier.sol\":13094:13097  aux */\n      dup5\n        /* \"src/WithdrawVerifier.sol\":13087:13106  mulmod(aux, aux, q) */\n      mulmod\n        /* \"src/WithdrawVerifier.sol\":13080:13106  aux := mulmod(aux, aux, q) */\n      swap3\n      pop\n        /* \"src/WithdrawVerifier.sol\":13148:13149  q */\n      0x30644e72e131a029b85045b68181585d2833e84879b9709143e1f593f0000001\n        /* \"src/WithdrawVerifier.sol\":13143:13146  aux */\n      dup4\n        /* \"src/WithdrawVerifier.sol\":13138:13141  aux */\n      dup5\n        /* \"src/WithdrawVerifier.sol\":13131:13150  mulmod(aux, aux, q) */\n      mulmod\n        /* \"src/WithdrawVerifier.sol\":13124:13150  aux := mulmod(aux, aux, q) */\n      swap3\n      pop\n        /* \"src/WithdrawVerifier.sol\":13192:13193  q */\n      0x30644e72e131a029b85045b68181585d2833e84879b9709143e1f593f0000001\n        /* \"src/WithdrawVerifier.sol\":13187:13190  aux */\n      dup4\n        /* \"src/WithdrawVerifier.sol\":13182:13185  aux */\n      dup5\n        /* \"src/WithdrawVerifier.sol\":13175:13194  mulmod(aux, aux, q) */\n      mulmod\n        /* \"src/WithdrawVerifier.sol\":13168:13194  aux := mulmod(aux, aux, q) */\n      swap3\n      pop\n        /* \"src/WithdrawVerifier.sol\":13236:13237  q */\n      0x30644e72e131a029b85045b68181585d2833e84879b9709143e1f593f0000001\n        /* \"src/WithdrawVerifier.sol\":13231:13234  aux */\n      dup4\n        /* \"src/WithdrawVerifier.sol\":13226:13229  aux */\n      dup5\n        /* \"src/WithdrawVerifier.sol\":13219:13238  mulmod(aux, aux, q) */\n      mulmod\n        /* \"src/WithdrawVerifier.sol\":13212:13238  aux := mulmod(aux, aux, q) */\n      swap3\n      pop\n        /* \"src/WithdrawVerifier.sol\":13280:13281  q */\n      0x30644e72e131a029b85045b68181585d2833e84879b9709143e1f593f0000001\n        /* \"src/WithdrawVerifier.sol\":13275:13278  aux */\n      dup4\n        /* \"src/WithdrawVerifier.sol\":13270:13273  aux */\n      dup5\n        /* \"src/WithdrawVerifier.sol\":13263:13282  mulmod(aux, aux, q) */\n      mulmod\n        /* \"src/WithdrawVerifier.sol\":13256:13282  aux := mulmod(aux, aux, q) */\n      swap3\n      pop\n        /* \"src/WithdrawVerifier.sol\":13324:13325  q */\n      0x30644e72e131a029b85045b68181585d2833e84879b9709143e1f593f0000001\n        /* \"src/WithdrawVerifier.sol\":13319:13322  aux */\n      dup4\n        /* \"src/WithdrawVerifier.sol\":13314:13317  aux */\n      dup5\n        /* \"src/WithdrawVerifier.sol\":13307:13326  mulmod(aux, aux, q) */\n      mulmod\n        /* \"src/WithdrawVerifier.sol\":13300:13326  aux := mulmod(aux, aux, q) */\n      swap3\n      pop\n        /* \"src/WithdrawVerifier.sol\":13368:13369  q */\n      0x30644e72e131a029b85045b68181585d2833e84879b9709143e1f593f0000001\n        /* \"src/WithdrawVerifier.sol\":13363:13366  aux */\n      dup4\n        /* \"src/WithdrawVerifier.sol\":13358:13361  aux */\n      dup5\n        /* \"src/WithdrawVerifier.sol\":13351:13370  mulmod(aux, aux, q) */\n      mulmod\n        /* \"src/WithdrawVerifier.sol\":13344:13370  aux := mulmod(aux, aux, q) */\n      swap3\n      pop\n        /* \"src/WithdrawVerifier.sol\":13412:13413  q */\n      0x30644e72e131a029b85045b68181585d2833e84879b9709143e1f593f0000001\n        /* \"src/WithdrawVerifier.sol\":13407:13410  aux */\n      dup4\n        /* \"src/WithdrawVerifier.sol\":13402:13405  aux */\n      dup5\n        /* \"src/WithdrawVerifier.sol\":13395:13414  mulmod(aux, aux, q) */\n      mulmod\n        /* \"src/WithdrawVerifier.sol\":13388:13414  aux := mulmod(aux, aux, q) */\n      swap3\n      pop\n        /* \"src/WithdrawVerifier.sol\":13456:13457  q */\n      0x30644e72e131a029b85045b68181585d2833e84879b9709143e1f593f0000001\n        /* \"src/WithdrawVerifier.sol\":13451:13454  aux */\n      dup4\n        /* \"src/WithdrawVerifier.sol\":13446:13449  aux */\n      dup5\n        /* \"src/WithdrawVerifier.sol\":13439:13458  mulmod(aux, aux, q) */\n      mulmod\n        /* \"src/WithdrawVerifier.sol\":13432:13458  aux := mulmod(aux, aux, q) */\n      swap3\n      pop\n        /* \"src/WithdrawVerifier.sol\":13500:13501  q */\n      0x30644e72e131a029b85045b68181585d2833e84879b9709143e1f593f0000001\n        /* \"src/WithdrawVerifier.sol\":13495:13498  aux */\n      dup4\n        /* \"src/WithdrawVerifier.sol\":13490:13493  aux */\n      dup5\n        /* \"src/WithdrawVerifier.sol\":13483:13502  mulmod(aux, aux, q) */\n      mulmod\n        /* \"src/WithdrawVerifier.sol\":13476:13502  aux := mulmod(aux, aux, q) */\n      swap3\n      pop\n        /* \"src/WithdrawVerifier.sol\":13544:13547  aux */\n      dup3\n        /* \"src/WithdrawVerifier.sol\":13537:13541  pXin */\n      0x80\n        /* \"src/WithdrawVerifier.sol\":13531:13535  pMem */\n      dup7\n        /* \"src/WithdrawVerifier.sol\":13527:13542  add(pMem, pXin) */\n      add\n        /* \"src/WithdrawVerifier.sol\":13520:13548  mstore(add(pMem, pXin), aux) */\n      mstore\n        /* \"src/WithdrawVerifier.sol\":13620:13621  q */\n      0x30644e72e131a029b85045b68181585d2833e84879b9709143e1f593f0000001\n        /* \"src/WithdrawVerifier.sol\":13616:13617  q */\n      dup1\n        /* \"src/WithdrawVerifier.sol\":13612:13613  1 */\n      0x01\n        /* \"src/WithdrawVerifier.sol\":13607:13610  aux */\n      dup6\n        /* \"src/WithdrawVerifier.sol\":13603:13614  sub(aux, 1) */\n      sub\n        /* \"src/WithdrawVerifier.sol\":13599:13618  add(sub(aux, 1), q) */\n      add\n        /* \"src/WithdrawVerifier.sol\":13595:13622  mod(add(sub(aux, 1), q), q) */\n      mod\n        /* \"src/WithdrawVerifier.sol\":13588:13622  aux := mod(add(sub(aux, 1), q), q) */\n      swap3\n      pop\n        /* \"src/WithdrawVerifier.sol\":13662:13665  aux */\n      dup3\n        /* \"src/WithdrawVerifier.sol\":13656:13659  pZh */\n      0x02e0\n        /* \"src/WithdrawVerifier.sol\":13650:13654  pMem */\n      dup7\n        /* \"src/WithdrawVerifier.sol\":13646:13660  add(pMem, pZh) */\n      add\n        /* \"src/WithdrawVerifier.sol\":13639:13666  mstore(add(pMem, pZh), aux) */\n      mstore\n        /* \"src/WithdrawVerifier.sol\":13709:13712  aux */\n      dup3\n        /* \"src/WithdrawVerifier.sol\":13700:13706  pZhInv */\n      0x0300\n        /* \"src/WithdrawVerifier.sol\":13694:13698  pMem */\n      dup7\n        /* \"src/WithdrawVerifier.sol\":13690:13707  add(pMem, pZhInv) */\n      add\n        /* \"src/WithdrawVerifier.sol\":13683:13713  mstore(add(pMem, pZhInv), aux) */\n      mstore\n        /* \"src/WithdrawVerifier.sol\":13887:13888  q */\n      0x30644e72e131a029b85045b68181585d2833e84879b9709143e1f593f0000001\n        /* \"src/WithdrawVerifier.sol\":13883:13885  v1 */\n      dup2\n        /* \"src/WithdrawVerifier.sol\":13879:13881  v1 */\n      dup3\n        /* \"src/WithdrawVerifier.sol\":13872:13889  mulmod(v1, v1, q) */\n      mulmod\n        /* \"src/WithdrawVerifier.sol\":13865:13889  aux := mulmod(v1, v1, q) */\n      swap3\n      pop\n        /* \"src/WithdrawVerifier.sol\":13929:13932  aux */\n      dup3\n        /* \"src/WithdrawVerifier.sol\":13923:13926  pV2 */\n      0xe0\n        /* \"src/WithdrawVerifier.sol\":13917:13921  pMem */\n      dup7\n        /* \"src/WithdrawVerifier.sol\":13913:13927  add(pMem, pV2) */\n      add\n        /* \"src/WithdrawVerifier.sol\":13906:13933  mstore(add(pMem, pV2), aux) */\n      mstore\n        /* \"src/WithdrawVerifier.sol\":13973:13974  q */\n      0x30644e72e131a029b85045b68181585d2833e84879b9709143e1f593f0000001\n        /* \"src/WithdrawVerifier.sol\":13969:13971  v1 */\n      dup2\n        /* \"src/WithdrawVerifier.sol\":13964:13967  aux */\n      dup5\n        /* \"src/WithdrawVerifier.sol\":13957:13975  mulmod(aux, v1, q) */\n      mulmod\n        /* \"src/WithdrawVerifier.sol\":13950:13975  aux := mulmod(aux, v1, q) */\n      swap3\n      pop\n        /* \"src/WithdrawVerifier.sol\":14015:14018  aux */\n      dup3\n        /* \"src/WithdrawVerifier.sol\":14009:14012  pV3 */\n      0x0100\n        /* \"src/WithdrawVerifier.sol\":14003:14007  pMem */\n      dup7\n        /* \"src/WithdrawVerifier.sol\":13999:14013  add(pMem, pV3) */\n      add\n        /* \"src/WithdrawVerifier.sol\":13992:14019  mstore(add(pMem, pV3), aux) */\n      mstore\n        /* \"src/WithdrawVerifier.sol\":14059:14060  q */\n      0x30644e72e131a029b85045b68181585d2833e84879b9709143e1f593f0000001\n        /* \"src/WithdrawVerifier.sol\":14055:14057  v1 */\n      dup2\n        /* \"src/WithdrawVerifier.sol\":14050:14053  aux */\n      dup5\n        /* \"src/WithdrawVerifier.sol\":14043:14061  mulmod(aux, v1, q) */\n      mulmod\n        /* \"src/WithdrawVerifier.sol\":14036:14061  aux := mulmod(aux, v1, q) */\n      swap3\n      pop\n        /* \"src/WithdrawVerifier.sol\":14101:14104  aux */\n      dup3\n        /* \"src/WithdrawVerifier.sol\":14095:14098  pV4 */\n      0x0120\n        /* \"src/WithdrawVerifier.sol\":14089:14093  pMem */\n      dup7\n        /* \"src/WithdrawVerifier.sol\":14085:14099  add(pMem, pV4) */\n      add\n        /* \"src/WithdrawVerifier.sol\":14078:14105  mstore(add(pMem, pV4), aux) */\n      mstore\n        /* \"src/WithdrawVerifier.sol\":14145:14146  q */\n      0x30644e72e131a029b85045b68181585d2833e84879b9709143e1f593f0000001\n        /* \"src/WithdrawVerifier.sol\":14141:14143  v1 */\n      dup2\n        /* \"src/WithdrawVerifier.sol\":14136:14139  aux */\n      dup5\n        /* \"src/WithdrawVerifier.sol\":14129:14147  mulmod(aux, v1, q) */\n      mulmod\n        /* \"src/WithdrawVerifier.sol\":14122:14147  aux := mulmod(aux, v1, q) */\n      swap3\n      pop\n        /* \"src/WithdrawVerifier.sol\":14187:14190  aux */\n      dup3\n        /* \"src/WithdrawVerifier.sol\":14181:14184  pV5 */\n      0x0140\n        /* \"src/WithdrawVerifier.sol\":14175:14179  pMem */\n      dup7\n        /* \"src/WithdrawVerifier.sol\":14171:14185  add(pMem, pV5) */\n      add\n        /* \"src/WithdrawVerifier.sol\":14164:14191  mstore(add(pMem, pV5), aux) */\n      mstore\n        /* \"src/WithdrawVerifier.sol\":14266:14270  pWxi */\n      0x01c4\n        /* \"src/WithdrawVerifier.sol\":14253:14271  calldataload(pWxi) */\n      calldataload\n        /* \"src/WithdrawVerifier.sol\":14248:14251  mIn */\n      dup3\n        /* \"src/WithdrawVerifier.sol\":14241:14272  mstore(mIn, calldataload(pWxi)) */\n      mstore\n        /* \"src/WithdrawVerifier.sol\":14333:14335  32 */\n      0x20\n        /* \"src/WithdrawVerifier.sol\":14327:14331  pWxi */\n      0x01c4\n        /* \"src/WithdrawVerifier.sol\":14323:14336  add(pWxi, 32) */\n      add\n        /* \"src/WithdrawVerifier.sol\":14310:14337  calldataload(add(pWxi, 32)) */\n      calldataload\n        /* \"src/WithdrawVerifier.sol\":14305:14307  32 */\n      0x20\n        /* \"src/WithdrawVerifier.sol\":14300:14303  mIn */\n      dup4\n        /* \"src/WithdrawVerifier.sol\":14296:14308  add(mIn, 32) */\n      add\n        /* \"src/WithdrawVerifier.sol\":14289:14338  mstore(add(mIn, 32), calldataload(add(pWxi, 32))) */\n      mstore\n        /* \"src/WithdrawVerifier.sol\":14389:14394  pWxiw */\n      0x0204\n        /* \"src/WithdrawVerifier.sol\":14376:14395  calldataload(pWxiw) */\n      calldataload\n        /* \"src/WithdrawVerifier.sol\":14371:14373  64 */\n      0x40\n        /* \"src/WithdrawVerifier.sol\":14366:14369  mIn */\n      dup4\n        /* \"src/WithdrawVerifier.sol\":14362:14374  add(mIn, 64) */\n      add\n        /* \"src/WithdrawVerifier.sol\":14355:14396  mstore(add(mIn, 64), calldataload(pWxiw)) */\n      mstore\n        /* \"src/WithdrawVerifier.sol\":14458:14460  32 */\n      0x20\n        /* \"src/WithdrawVerifier.sol\":14451:14456  pWxiw */\n      0x0204\n        /* \"src/WithdrawVerifier.sol\":14447:14461  add(pWxiw, 32) */\n      add\n        /* \"src/WithdrawVerifier.sol\":14434:14462  calldataload(add(pWxiw, 32)) */\n      calldataload\n        /* \"src/WithdrawVerifier.sol\":14429:14431  96 */\n      0x60\n        /* \"src/WithdrawVerifier.sol\":14424:14427  mIn */\n      dup4\n        /* \"src/WithdrawVerifier.sol\":14420:14432  add(mIn, 96) */\n      add\n        /* \"src/WithdrawVerifier.sol\":14413:14463  mstore(add(mIn, 96), calldataload(add(pWxiw, 32))) */\n      mstore\n        /* \"src/WithdrawVerifier.sol\":14528:14529  q */\n      0x30644e72e131a029b85045b68181585d2833e84879b9709143e1f593f0000001\n        /* \"src/WithdrawVerifier.sol\":14522:14525  128 */\n      0x80\n        /* \"src/WithdrawVerifier.sol\":14517:14520  mIn */\n      dup4\n        /* \"src/WithdrawVerifier.sol\":14507:14526  keccak256(mIn, 128) */\n      keccak256\n        /* \"src/WithdrawVerifier.sol\":14503:14530  mod(keccak256(mIn, 128), q) */\n      mod\n        /* \"src/WithdrawVerifier.sol\":14498:14500  pU */\n      0x0160\n        /* \"src/WithdrawVerifier.sol\":14492:14496  pMem */\n      dup7\n        /* \"src/WithdrawVerifier.sol\":14488:14501  add(pMem, pU) */\n      add\n        /* \"src/WithdrawVerifier.sol\":14481:14531  mstore(add(pMem, pU), mod(keccak256(mIn, 128), q)) */\n      mstore\n        /* \"src/WithdrawVerifier.sol\":9272:14545  {... */\n      pop\n      pop\n      pop\n      pop\n        /* \"src/WithdrawVerifier.sol\":9228:14545  function calculateChallenges(pMem, pPublic) {... */\n      pop\n      pop\n      jump\t// out\n        /* \"src/WithdrawVerifier.sol\":14559:17480  function calculateLagrange(pMem) {... */\n    tag_16:\n        /* \"src/WithdrawVerifier.sol\":14619:14620  1 */\n      0x01\n        /* \"src/WithdrawVerifier.sol\":14764:14765  q */\n      0x30644e72e131a029b85045b68181585d2833e84879b9709143e1f593f0000001\n        /* \"src/WithdrawVerifier.sol\":14760:14761  q */\n      dup1\n        /* \"src/WithdrawVerifier.sol\":14756:14757  q */\n      0x30644e72e131a029b85045b68181585d2833e84879b9709143e1f593f0000001\n        /* \"src/WithdrawVerifier.sol\":14752:14753  w */\n      dup4\n        /* \"src/WithdrawVerifier.sol\":14745:14748  pXi */\n      0x60\n        /* \"src/WithdrawVerifier.sol\":14739:14743  pMem */\n      dup7\n        /* \"src/WithdrawVerifier.sol\":14735:14749  add(pMem, pXi) */\n      add\n        /* \"src/WithdrawVerifier.sol\":14729:14750  mload(add(pMem, pXi)) */\n      mload\n        /* \"src/WithdrawVerifier.sol\":14725:14754  sub(mload(add(pMem, pXi)), w) */\n      sub\n        /* \"src/WithdrawVerifier.sol\":14721:14758  add(sub(mload(add(pMem, pXi)), w), q) */\n      add\n        /* \"src/WithdrawVerifier.sol\":14717:14762  mod(add(sub(mload(add(pMem, pXi)), w), q), q) */\n      mod\n        /* \"src/WithdrawVerifier.sol\":14714:14715  n */\n      0x2000\n        /* \"src/WithdrawVerifier.sol\":14707:14766  mulmod(n, mod(add(sub(mload(add(pMem, pXi)), w), q), q), q) */\n      mulmod\n        /* \"src/WithdrawVerifier.sol\":14676:14684  pEval_l1 */\n      0x0320\n        /* \"src/WithdrawVerifier.sol\":14670:14674  pMem */\n      dup4\n        /* \"src/WithdrawVerifier.sol\":14666:14685  add(pMem, pEval_l1) */\n      add\n        /* \"src/WithdrawVerifier.sol\":14638:14784  mstore(... */\n      mstore\n        /* \"src/WithdrawVerifier.sol\":14821:14822  q */\n      0x30644e72e131a029b85045b68181585d2833e84879b9709143e1f593f0000001\n        /* \"src/WithdrawVerifier.sol\":14817:14819  w1 */\n      0x6fab49b869ae62001deac878b2667bd31bf3e28e3a2d764aa49b8d9bbdd310\n        /* \"src/WithdrawVerifier.sol\":14814:14815  w */\n      dup3\n        /* \"src/WithdrawVerifier.sol\":14807:14823  mulmod(w, w1, q) */\n      mulmod\n        /* \"src/WithdrawVerifier.sol\":14802:14823  w := mulmod(w, w1, q) */\n      swap1\n      pop\n        /* \"src/WithdrawVerifier.sol\":14967:14968  q */\n      0x30644e72e131a029b85045b68181585d2833e84879b9709143e1f593f0000001\n        /* \"src/WithdrawVerifier.sol\":14963:14964  q */\n      dup1\n        /* \"src/WithdrawVerifier.sol\":14959:14960  q */\n      0x30644e72e131a029b85045b68181585d2833e84879b9709143e1f593f0000001\n        /* \"src/WithdrawVerifier.sol\":14955:14956  w */\n      dup4\n        /* \"src/WithdrawVerifier.sol\":14948:14951  pXi */\n      0x60\n        /* \"src/WithdrawVerifier.sol\":14942:14946  pMem */\n      dup7\n        /* \"src/WithdrawVerifier.sol\":14938:14952  add(pMem, pXi) */\n      add\n        /* \"src/WithdrawVerifier.sol\":14932:14953  mload(add(pMem, pXi)) */\n      mload\n        /* \"src/WithdrawVerifier.sol\":14928:14957  sub(mload(add(pMem, pXi)), w) */\n      sub\n        /* \"src/WithdrawVerifier.sol\":14924:14961  add(sub(mload(add(pMem, pXi)), w), q) */\n      add\n        /* \"src/WithdrawVerifier.sol\":14920:14965  mod(add(sub(mload(add(pMem, pXi)), w), q), q) */\n      mod\n        /* \"src/WithdrawVerifier.sol\":14917:14918  n */\n      0x2000\n        /* \"src/WithdrawVerifier.sol\":14910:14969  mulmod(n, mod(add(sub(mload(add(pMem, pXi)), w), q), q), q) */\n      mulmod\n        /* \"src/WithdrawVerifier.sol\":14879:14887  pEval_l2 */\n      0x0340\n        /* \"src/WithdrawVerifier.sol\":14873:14877  pMem */\n      dup4\n        /* \"src/WithdrawVerifier.sol\":14869:14888  add(pMem, pEval_l2) */\n      add\n        /* \"src/WithdrawVerifier.sol\":14841:14987  mstore(... */\n      mstore\n        /* \"src/WithdrawVerifier.sol\":15024:15025  q */\n      0x30644e72e131a029b85045b68181585d2833e84879b9709143e1f593f0000001\n        /* \"src/WithdrawVerifier.sol\":15020:15022  w1 */\n      0x6fab49b869ae62001deac878b2667bd31bf3e28e3a2d764aa49b8d9bbdd310\n        /* \"src/WithdrawVerifier.sol\":15017:15018  w */\n      dup3\n        /* \"src/WithdrawVerifier.sol\":15010:15026  mulmod(w, w1, q) */\n      mulmod\n        /* \"src/WithdrawVerifier.sol\":15005:15026  w := mulmod(w, w1, q) */\n      swap1\n      pop\n        /* \"src/WithdrawVerifier.sol\":15170:15171  q */\n      0x30644e72e131a029b85045b68181585d2833e84879b9709143e1f593f0000001\n        /* \"src/WithdrawVerifier.sol\":15166:15167  q */\n      dup1\n        /* \"src/WithdrawVerifier.sol\":15162:15163  q */\n      0x30644e72e131a029b85045b68181585d2833e84879b9709143e1f593f0000001\n        /* \"src/WithdrawVerifier.sol\":15158:15159  w */\n      dup4\n        /* \"src/WithdrawVerifier.sol\":15151:15154  pXi */\n      0x60\n        /* \"src/WithdrawVerifier.sol\":15145:15149  pMem */\n      dup7\n        /* \"src/WithdrawVerifier.sol\":15141:15155  add(pMem, pXi) */\n      add\n        /* \"src/WithdrawVerifier.sol\":15135:15156  mload(add(pMem, pXi)) */\n      mload\n        /* \"src/WithdrawVerifier.sol\":15131:15160  sub(mload(add(pMem, pXi)), w) */\n      sub\n        /* \"src/WithdrawVerifier.sol\":15127:15164  add(sub(mload(add(pMem, pXi)), w), q) */\n      add\n        /* \"src/WithdrawVerifier.sol\":15123:15168  mod(add(sub(mload(add(pMem, pXi)), w), q), q) */\n      mod\n        /* \"src/WithdrawVerifier.sol\":15120:15121  n */\n      0x2000\n        /* \"src/WithdrawVerifier.sol\":15113:15172  mulmod(n, mod(add(sub(mload(add(pMem, pXi)), w), q), q), q) */\n      mulmod\n        /* \"src/WithdrawVerifier.sol\":15082:15090  pEval_l3 */\n      0x0360\n        /* \"src/WithdrawVerifier.sol\":15076:15080  pMem */\n      dup4\n        /* \"src/WithdrawVerifier.sol\":15072:15091  add(pMem, pEval_l3) */\n      add\n        /* \"src/WithdrawVerifier.sol\":15044:15190  mstore(... */\n      mstore\n        /* \"src/WithdrawVerifier.sol\":15227:15228  q */\n      0x30644e72e131a029b85045b68181585d2833e84879b9709143e1f593f0000001\n        /* \"src/WithdrawVerifier.sol\":15223:15225  w1 */\n      0x6fab49b869ae62001deac878b2667bd31bf3e28e3a2d764aa49b8d9bbdd310\n        /* \"src/WithdrawVerifier.sol\":15220:15221  w */\n      dup3\n        /* \"src/WithdrawVerifier.sol\":15213:15229  mulmod(w, w1, q) */\n      mulmod\n        /* \"src/WithdrawVerifier.sol\":15208:15229  w := mulmod(w, w1, q) */\n      swap1\n      pop\n        /* \"src/WithdrawVerifier.sol\":15373:15374  q */\n      0x30644e72e131a029b85045b68181585d2833e84879b9709143e1f593f0000001\n        /* \"src/WithdrawVerifier.sol\":15369:15370  q */\n      dup1\n        /* \"src/WithdrawVerifier.sol\":15365:15366  q */\n      0x30644e72e131a029b85045b68181585d2833e84879b9709143e1f593f0000001\n        /* \"src/WithdrawVerifier.sol\":15361:15362  w */\n      dup4\n        /* \"src/WithdrawVerifier.sol\":15354:15357  pXi */\n      0x60\n        /* \"src/WithdrawVerifier.sol\":15348:15352  pMem */\n      dup7\n        /* \"src/WithdrawVerifier.sol\":15344:15358  add(pMem, pXi) */\n      add\n        /* \"src/WithdrawVerifier.sol\":15338:15359  mload(add(pMem, pXi)) */\n      mload\n        /* \"src/WithdrawVerifier.sol\":15334:15363  sub(mload(add(pMem, pXi)), w) */\n      sub\n        /* \"src/WithdrawVerifier.sol\":15330:15367  add(sub(mload(add(pMem, pXi)), w), q) */\n      add\n        /* \"src/WithdrawVerifier.sol\":15326:15371  mod(add(sub(mload(add(pMem, pXi)), w), q), q) */\n      mod\n        /* \"src/WithdrawVerifier.sol\":15323:15324  n */\n      0x2000\n        /* \"src/WithdrawVerifier.sol\":15316:15375  mulmod(n, mod(add(sub(mload(add(pMem, pXi)), w), q), q), q) */\n      mulmod\n        /* \"src/WithdrawVerifier.sol\":15285:15293  pEval_l4 */\n      0x0380\n        /* \"src/WithdrawVerifier.sol\":15279:15283  pMem */\n      dup4\n        /* \"src/WithdrawVerifier.sol\":15275:15294  add(pMem, pEval_l4) */\n      add\n        /* \"src/WithdrawVerifier.sol\":15247:15393  mstore(... */\n      mstore\n        /* \"src/WithdrawVerifier.sol\":15430:15431  q */\n      0x30644e72e131a029b85045b68181585d2833e84879b9709143e1f593f0000001\n        /* \"src/WithdrawVerifier.sol\":15426:15428  w1 */\n      0x6fab49b869ae62001deac878b2667bd31bf3e28e3a2d764aa49b8d9bbdd310\n        /* \"src/WithdrawVerifier.sol\":15423:15424  w */\n      dup3\n        /* \"src/WithdrawVerifier.sol\":15416:15432  mulmod(w, w1, q) */\n      mulmod\n        /* \"src/WithdrawVerifier.sol\":15411:15432  w := mulmod(w, w1, q) */\n      swap1\n      pop\n        /* \"src/WithdrawVerifier.sol\":15576:15577  q */\n      0x30644e72e131a029b85045b68181585d2833e84879b9709143e1f593f0000001\n        /* \"src/WithdrawVerifier.sol\":15572:15573  q */\n      dup1\n        /* \"src/WithdrawVerifier.sol\":15568:15569  q */\n      0x30644e72e131a029b85045b68181585d2833e84879b9709143e1f593f0000001\n        /* \"src/WithdrawVerifier.sol\":15564:15565  w */\n      dup4\n        /* \"src/WithdrawVerifier.sol\":15557:15560  pXi */\n      0x60\n        /* \"src/WithdrawVerifier.sol\":15551:15555  pMem */\n      dup7\n        /* \"src/WithdrawVerifier.sol\":15547:15561  add(pMem, pXi) */\n      add\n        /* \"src/WithdrawVerifier.sol\":15541:15562  mload(add(pMem, pXi)) */\n      mload\n        /* \"src/WithdrawVerifier.sol\":15537:15566  sub(mload(add(pMem, pXi)), w) */\n      sub\n        /* \"src/WithdrawVerifier.sol\":15533:15570  add(sub(mload(add(pMem, pXi)), w), q) */\n      add\n        /* \"src/WithdrawVerifier.sol\":15529:15574  mod(add(sub(mload(add(pMem, pXi)), w), q), q) */\n      mod\n        /* \"src/WithdrawVerifier.sol\":15526:15527  n */\n      0x2000\n        /* \"src/WithdrawVerifier.sol\":15519:15578  mulmod(n, mod(add(sub(mload(add(pMem, pXi)), w), q), q), q) */\n      mulmod\n        /* \"src/WithdrawVerifier.sol\":15488:15496  pEval_l5 */\n      0x03a0\n        /* \"src/WithdrawVerifier.sol\":15482:15486  pMem */\n      dup4\n        /* \"src/WithdrawVerifier.sol\":15478:15497  add(pMem, pEval_l5) */\n      add\n        /* \"src/WithdrawVerifier.sol\":15450:15596  mstore(... */\n      mstore\n        /* \"src/WithdrawVerifier.sol\":15633:15634  q */\n      0x30644e72e131a029b85045b68181585d2833e84879b9709143e1f593f0000001\n        /* \"src/WithdrawVerifier.sol\":15629:15631  w1 */\n      0x6fab49b869ae62001deac878b2667bd31bf3e28e3a2d764aa49b8d9bbdd310\n        /* \"src/WithdrawVerifier.sol\":15626:15627  w */\n      dup3\n        /* \"src/WithdrawVerifier.sol\":15619:15635  mulmod(w, w1, q) */\n      mulmod\n        /* \"src/WithdrawVerifier.sol\":15614:15635  w := mulmod(w, w1, q) */\n      swap1\n      pop\n        /* \"src/WithdrawVerifier.sol\":15779:15780  q */\n      0x30644e72e131a029b85045b68181585d2833e84879b9709143e1f593f0000001\n        /* \"src/WithdrawVerifier.sol\":15775:15776  q */\n      dup1\n        /* \"src/WithdrawVerifier.sol\":15771:15772  q */\n      0x30644e72e131a029b85045b68181585d2833e84879b9709143e1f593f0000001\n        /* \"src/WithdrawVerifier.sol\":15767:15768  w */\n      dup4\n        /* \"src/WithdrawVerifier.sol\":15760:15763  pXi */\n      0x60\n        /* \"src/WithdrawVerifier.sol\":15754:15758  pMem */\n      dup7\n        /* \"src/WithdrawVerifier.sol\":15750:15764  add(pMem, pXi) */\n      add\n        /* \"src/WithdrawVerifier.sol\":15744:15765  mload(add(pMem, pXi)) */\n      mload\n        /* \"src/WithdrawVerifier.sol\":15740:15769  sub(mload(add(pMem, pXi)), w) */\n      sub\n        /* \"src/WithdrawVerifier.sol\":15736:15773  add(sub(mload(add(pMem, pXi)), w), q) */\n      add\n        /* \"src/WithdrawVerifier.sol\":15732:15777  mod(add(sub(mload(add(pMem, pXi)), w), q), q) */\n      mod\n        /* \"src/WithdrawVerifier.sol\":15729:15730  n */\n      0x2000\n        /* \"src/WithdrawVerifier.sol\":15722:15781  mulmod(n, mod(add(sub(mload(add(pMem, pXi)), w), q), q), q) */\n      mulmod\n        /* \"src/WithdrawVerifier.sol\":15691:15699  pEval_l6 */\n      0x03c0\n        /* \"src/WithdrawVerifier.sol\":15685:15689  pMem */\n      dup4\n        /* \"src/WithdrawVerifier.sol\":15681:15700  add(pMem, pEval_l6) */\n      add\n        /* \"src/WithdrawVerifier.sol\":15653:15799  mstore(... */\n      mstore\n        /* \"src/WithdrawVerifier.sol\":15836:15837  q */\n      0x30644e72e131a029b85045b68181585d2833e84879b9709143e1f593f0000001\n        /* \"src/WithdrawVerifier.sol\":15832:15834  w1 */\n      0x6fab49b869ae62001deac878b2667bd31bf3e28e3a2d764aa49b8d9bbdd310\n        /* \"src/WithdrawVerifier.sol\":15829:15830  w */\n      dup3\n        /* \"src/WithdrawVerifier.sol\":15822:15838  mulmod(w, w1, q) */\n      mulmod\n        /* \"src/WithdrawVerifier.sol\":15817:15838  w := mulmod(w, w1, q) */\n      swap1\n      pop\n        /* \"src/WithdrawVerifier.sol\":15982:15983  q */\n      0x30644e72e131a029b85045b68181585d2833e84879b9709143e1f593f0000001\n        /* \"src/WithdrawVerifier.sol\":15978:15979  q */\n      dup1\n        /* \"src/WithdrawVerifier.sol\":15974:15975  q */\n      0x30644e72e131a029b85045b68181585d2833e84879b9709143e1f593f0000001\n        /* \"src/WithdrawVerifier.sol\":15970:15971  w */\n      dup4\n        /* \"src/WithdrawVerifier.sol\":15963:15966  pXi */\n      0x60\n        /* \"src/WithdrawVerifier.sol\":15957:15961  pMem */\n      dup7\n        /* \"src/WithdrawVerifier.sol\":15953:15967  add(pMem, pXi) */\n      add\n        /* \"src/WithdrawVerifier.sol\":15947:15968  mload(add(pMem, pXi)) */\n      mload\n        /* \"src/WithdrawVerifier.sol\":15943:15972  sub(mload(add(pMem, pXi)), w) */\n      sub\n        /* \"src/WithdrawVerifier.sol\":15939:15976  add(sub(mload(add(pMem, pXi)), w), q) */\n      add\n        /* \"src/WithdrawVerifier.sol\":15935:15980  mod(add(sub(mload(add(pMem, pXi)), w), q), q) */\n      mod\n        /* \"src/WithdrawVerifier.sol\":15932:15933  n */\n      0x2000\n        /* \"src/WithdrawVerifier.sol\":15925:15984  mulmod(n, mod(add(sub(mload(add(pMem, pXi)), w), q), q), q) */\n      mulmod\n        /* \"src/WithdrawVerifier.sol\":15894:15902  pEval_l7 */\n      0x03e0\n        /* \"src/WithdrawVerifier.sol\":15888:15892  pMem */\n      dup4\n        /* \"src/WithdrawVerifier.sol\":15884:15903  add(pMem, pEval_l7) */\n      add\n        /* \"src/WithdrawVerifier.sol\":15856:16002  mstore(... */\n      mstore\n        /* \"src/WithdrawVerifier.sol\":16020:16054  inverseArray(add(pMem, pZhInv), 8) */\n      tag_57\n        /* \"src/WithdrawVerifier.sol\":16052:16053  8 */\n      0x08\n        /* \"src/WithdrawVerifier.sol\":16043:16049  pZhInv */\n      0x0300\n        /* \"src/WithdrawVerifier.sol\":16037:16041  pMem */\n      dup5\n        /* \"src/WithdrawVerifier.sol\":16033:16050  add(pMem, pZhInv) */\n      add\n        /* \"src/WithdrawVerifier.sol\":16020:16054  inverseArray(add(pMem, pZhInv), 8) */\n      tag_12\n      jump\t// in\n    tag_57:\n        /* \"src/WithdrawVerifier.sol\":16098:16101  pZh */\n      0x02e0\n        /* \"src/WithdrawVerifier.sol\":16092:16096  pMem */\n      dup3\n        /* \"src/WithdrawVerifier.sol\":16088:16102  add(pMem, pZh) */\n      add\n        /* \"src/WithdrawVerifier.sol\":16082:16103  mload(add(pMem, pZh)) */\n      mload\n        /* \"src/WithdrawVerifier.sol\":16125:16126  1 */\n      0x01\n        /* \"src/WithdrawVerifier.sol\":16120:16126  w := 1 */\n      swap2\n      pop\n        /* \"src/WithdrawVerifier.sol\":16252:16253  q */\n      0x30644e72e131a029b85045b68181585d2833e84879b9709143e1f593f0000001\n        /* \"src/WithdrawVerifier.sol\":16248:16250  zh */\n      dup2\n        /* \"src/WithdrawVerifier.sol\":16236:16244  pEval_l1 */\n      0x0320\n        /* \"src/WithdrawVerifier.sol\":16230:16234  pMem */\n      dup6\n        /* \"src/WithdrawVerifier.sol\":16226:16245  add(pMem, pEval_l1) */\n      add\n        /* \"src/WithdrawVerifier.sol\":16220:16246  mload(add(pMem, pEval_l1)) */\n      mload\n        /* \"src/WithdrawVerifier.sol\":16213:16254  mulmod(mload(add(pMem, pEval_l1)), zh, q) */\n      mulmod\n        /* \"src/WithdrawVerifier.sol\":16182:16190  pEval_l1 */\n      0x0320\n        /* \"src/WithdrawVerifier.sol\":16176:16180  pMem */\n      dup5\n        /* \"src/WithdrawVerifier.sol\":16172:16191  add(pMem, pEval_l1) */\n      add\n        /* \"src/WithdrawVerifier.sol\":16144:16272  mstore(... */\n      mstore\n        /* \"src/WithdrawVerifier.sol\":16309:16310  q */\n      0x30644e72e131a029b85045b68181585d2833e84879b9709143e1f593f0000001\n        /* \"src/WithdrawVerifier.sol\":16305:16307  w1 */\n      0x6fab49b869ae62001deac878b2667bd31bf3e28e3a2d764aa49b8d9bbdd310\n        /* \"src/WithdrawVerifier.sol\":16302:16303  w */\n      dup4\n        /* \"src/WithdrawVerifier.sol\":16295:16311  mulmod(w, w1, q) */\n      mulmod\n        /* \"src/WithdrawVerifier.sol\":16290:16311  w := mulmod(w, w1, q) */\n      swap2\n      pop\n        /* \"src/WithdrawVerifier.sol\":16451:16452  q */\n      0x30644e72e131a029b85045b68181585d2833e84879b9709143e1f593f0000001\n        /* \"src/WithdrawVerifier.sol\":16447:16448  q */\n      dup1\n        /* \"src/WithdrawVerifier.sol\":16443:16445  zh */\n      dup3\n        /* \"src/WithdrawVerifier.sol\":16431:16439  pEval_l2 */\n      0x0340\n        /* \"src/WithdrawVerifier.sol\":16425:16429  pMem */\n      dup7\n        /* \"src/WithdrawVerifier.sol\":16421:16440  add(pMem, pEval_l2) */\n      add\n        /* \"src/WithdrawVerifier.sol\":16415:16441  mload(add(pMem, pEval_l2)) */\n      mload\n        /* \"src/WithdrawVerifier.sol\":16408:16449  mulmod(mload(add(pMem, pEval_l2)), zh, q) */\n      mulmod\n        /* \"src/WithdrawVerifier.sol\":16405:16406  w */\n      dup4\n        /* \"src/WithdrawVerifier.sol\":16398:16453  mulmod(w, mulmod(mload(add(pMem, pEval_l2)), zh, q), q) */\n      mulmod\n        /* \"src/WithdrawVerifier.sol\":16367:16375  pEval_l2 */\n      0x0340\n        /* \"src/WithdrawVerifier.sol\":16361:16365  pMem */\n      dup5\n        /* \"src/WithdrawVerifier.sol\":16357:16376  add(pMem, pEval_l2) */\n      add\n        /* \"src/WithdrawVerifier.sol\":16329:16471  mstore(... */\n      mstore\n        /* \"src/WithdrawVerifier.sol\":16508:16509  q */\n      0x30644e72e131a029b85045b68181585d2833e84879b9709143e1f593f0000001\n        /* \"src/WithdrawVerifier.sol\":16504:16506  w1 */\n      0x6fab49b869ae62001deac878b2667bd31bf3e28e3a2d764aa49b8d9bbdd310\n        /* \"src/WithdrawVerifier.sol\":16501:16502  w */\n      dup4\n        /* \"src/WithdrawVerifier.sol\":16494:16510  mulmod(w, w1, q) */\n      mulmod\n        /* \"src/WithdrawVerifier.sol\":16489:16510  w := mulmod(w, w1, q) */\n      swap2\n      pop\n        /* \"src/WithdrawVerifier.sol\":16650:16651  q */\n      0x30644e72e131a029b85045b68181585d2833e84879b9709143e1f593f0000001\n        /* \"src/WithdrawVerifier.sol\":16646:16647  q */\n      dup1\n        /* \"src/WithdrawVerifier.sol\":16642:16644  zh */\n      dup3\n        /* \"src/WithdrawVerifier.sol\":16630:16638  pEval_l3 */\n      0x0360\n        /* \"src/WithdrawVerifier.sol\":16624:16628  pMem */\n      dup7\n        /* \"src/WithdrawVerifier.sol\":16620:16639  add(pMem, pEval_l3) */\n      add\n        /* \"src/WithdrawVerifier.sol\":16614:16640  mload(add(pMem, pEval_l3)) */\n      mload\n        /* \"src/WithdrawVerifier.sol\":16607:16648  mulmod(mload(add(pMem, pEval_l3)), zh, q) */\n      mulmod\n        /* \"src/WithdrawVerifier.sol\":16604:16605  w */\n      dup4\n        /* \"src/WithdrawVerifier.sol\":16597:16652  mulmod(w, mulmod(mload(add(pMem, pEval_l3)), zh, q), q) */\n      mulmod\n        /* \"src/WithdrawVerifier.sol\":16566:16574  pEval_l3 */\n      0x0360\n        /* \"src/WithdrawVerifier.sol\":16560:16564  pMem */\n      dup5\n        /* \"src/WithdrawVerifier.sol\":16556:16575  add(pMem, pEval_l3) */\n      add\n        /* \"src/WithdrawVerifier.sol\":16528:16670  mstore(... */\n      mstore\n        /* \"src/WithdrawVerifier.sol\":16707:16708  q */\n      0x30644e72e131a029b85045b68181585d2833e84879b9709143e1f593f0000001\n        /* \"src/WithdrawVerifier.sol\":16703:16705  w1 */\n      0x6fab49b869ae62001deac878b2667bd31bf3e28e3a2d764aa49b8d9bbdd310\n        /* \"src/WithdrawVerifier.sol\":16700:16701  w */\n      dup4\n        /* \"src/WithdrawVerifier.sol\":16693:16709  mulmod(w, w1, q) */\n      mulmod\n        /* \"src/WithdrawVerifier.sol\":16688:16709  w := mulmod(w, w1, q) */\n      swap2\n      pop\n        /* \"src/WithdrawVerifier.sol\":16849:16850  q */\n      0x30644e72e131a029b85045b68181585d2833e84879b9709143e1f593f0000001\n        /* \"src/WithdrawVerifier.sol\":16845:16846  q */\n      dup1\n        /* \"src/WithdrawVerifier.sol\":16841:16843  zh */\n      dup3\n        /* \"src/WithdrawVerifier.sol\":16829:16837  pEval_l4 */\n      0x0380\n        /* \"src/WithdrawVerifier.sol\":16823:16827  pMem */\n      dup7\n        /* \"src/WithdrawVerifier.sol\":16819:16838  add(pMem, pEval_l4) */\n      add\n        /* \"src/WithdrawVerifier.sol\":16813:16839  mload(add(pMem, pEval_l4)) */\n      mload\n        /* \"src/WithdrawVerifier.sol\":16806:16847  mulmod(mload(add(pMem, pEval_l4)), zh, q) */\n      mulmod\n        /* \"src/WithdrawVerifier.sol\":16803:16804  w */\n      dup4\n        /* \"src/WithdrawVerifier.sol\":16796:16851  mulmod(w, mulmod(mload(add(pMem, pEval_l4)), zh, q), q) */\n      mulmod\n        /* \"src/WithdrawVerifier.sol\":16765:16773  pEval_l4 */\n      0x0380\n        /* \"src/WithdrawVerifier.sol\":16759:16763  pMem */\n      dup5\n        /* \"src/WithdrawVerifier.sol\":16755:16774  add(pMem, pEval_l4) */\n      add\n        /* \"src/WithdrawVerifier.sol\":16727:16869  mstore(... */\n      mstore\n        /* \"src/WithdrawVerifier.sol\":16906:16907  q */\n      0x30644e72e131a029b85045b68181585d2833e84879b9709143e1f593f0000001\n        /* \"src/WithdrawVerifier.sol\":16902:16904  w1 */\n      0x6fab49b869ae62001deac878b2667bd31bf3e28e3a2d764aa49b8d9bbdd310\n        /* \"src/WithdrawVerifier.sol\":16899:16900  w */\n      dup4\n        /* \"src/WithdrawVerifier.sol\":16892:16908  mulmod(w, w1, q) */\n      mulmod\n        /* \"src/WithdrawVerifier.sol\":16887:16908  w := mulmod(w, w1, q) */\n      swap2\n      pop\n        /* \"src/WithdrawVerifier.sol\":17048:17049  q */\n      0x30644e72e131a029b85045b68181585d2833e84879b9709143e1f593f0000001\n        /* \"src/WithdrawVerifier.sol\":17044:17045  q */\n      dup1\n        /* \"src/WithdrawVerifier.sol\":17040:17042  zh */\n      dup3\n        /* \"src/WithdrawVerifier.sol\":17028:17036  pEval_l5 */\n      0x03a0\n        /* \"src/WithdrawVerifier.sol\":17022:17026  pMem */\n      dup7\n        /* \"src/WithdrawVerifier.sol\":17018:17037  add(pMem, pEval_l5) */\n      add\n        /* \"src/WithdrawVerifier.sol\":17012:17038  mload(add(pMem, pEval_l5)) */\n      mload\n        /* \"src/WithdrawVerifier.sol\":17005:17046  mulmod(mload(add(pMem, pEval_l5)), zh, q) */\n      mulmod\n        /* \"src/WithdrawVerifier.sol\":17002:17003  w */\n      dup4\n        /* \"src/WithdrawVerifier.sol\":16995:17050  mulmod(w, mulmod(mload(add(pMem, pEval_l5)), zh, q), q) */\n      mulmod\n        /* \"src/WithdrawVerifier.sol\":16964:16972  pEval_l5 */\n      0x03a0\n        /* \"src/WithdrawVerifier.sol\":16958:16962  pMem */\n      dup5\n        /* \"src/WithdrawVerifier.sol\":16954:16973  add(pMem, pEval_l5) */\n      add\n        /* \"src/WithdrawVerifier.sol\":16926:17068  mstore(... */\n      mstore\n        /* \"src/WithdrawVerifier.sol\":17105:17106  q */\n      0x30644e72e131a029b85045b68181585d2833e84879b9709143e1f593f0000001\n        /* \"src/WithdrawVerifier.sol\":17101:17103  w1 */\n      0x6fab49b869ae62001deac878b2667bd31bf3e28e3a2d764aa49b8d9bbdd310\n        /* \"src/WithdrawVerifier.sol\":17098:17099  w */\n      dup4\n        /* \"src/WithdrawVerifier.sol\":17091:17107  mulmod(w, w1, q) */\n      mulmod\n        /* \"src/WithdrawVerifier.sol\":17086:17107  w := mulmod(w, w1, q) */\n      swap2\n      pop\n        /* \"src/WithdrawVerifier.sol\":17247:17248  q */\n      0x30644e72e131a029b85045b68181585d2833e84879b9709143e1f593f0000001\n        /* \"src/WithdrawVerifier.sol\":17243:17244  q */\n      dup1\n        /* \"src/WithdrawVerifier.sol\":17239:17241  zh */\n      dup3\n        /* \"src/WithdrawVerifier.sol\":17227:17235  pEval_l6 */\n      0x03c0\n        /* \"src/WithdrawVerifier.sol\":17221:17225  pMem */\n      dup7\n        /* \"src/WithdrawVerifier.sol\":17217:17236  add(pMem, pEval_l6) */\n      add\n        /* \"src/WithdrawVerifier.sol\":17211:17237  mload(add(pMem, pEval_l6)) */\n      mload\n        /* \"src/WithdrawVerifier.sol\":17204:17245  mulmod(mload(add(pMem, pEval_l6)), zh, q) */\n      mulmod\n        /* \"src/WithdrawVerifier.sol\":17201:17202  w */\n      dup4\n        /* \"src/WithdrawVerifier.sol\":17194:17249  mulmod(w, mulmod(mload(add(pMem, pEval_l6)), zh, q), q) */\n      mulmod\n        /* \"src/WithdrawVerifier.sol\":17163:17171  pEval_l6 */\n      0x03c0\n        /* \"src/WithdrawVerifier.sol\":17157:17161  pMem */\n      dup5\n        /* \"src/WithdrawVerifier.sol\":17153:17172  add(pMem, pEval_l6) */\n      add\n        /* \"src/WithdrawVerifier.sol\":17125:17267  mstore(... */\n      mstore\n        /* \"src/WithdrawVerifier.sol\":17304:17305  q */\n      0x30644e72e131a029b85045b68181585d2833e84879b9709143e1f593f0000001\n        /* \"src/WithdrawVerifier.sol\":17300:17302  w1 */\n      0x6fab49b869ae62001deac878b2667bd31bf3e28e3a2d764aa49b8d9bbdd310\n        /* \"src/WithdrawVerifier.sol\":17297:17298  w */\n      dup4\n        /* \"src/WithdrawVerifier.sol\":17290:17306  mulmod(w, w1, q) */\n      mulmod\n        /* \"src/WithdrawVerifier.sol\":17285:17306  w := mulmod(w, w1, q) */\n      swap2\n      pop\n        /* \"src/WithdrawVerifier.sol\":17446:17447  q */\n      0x30644e72e131a029b85045b68181585d2833e84879b9709143e1f593f0000001\n        /* \"src/WithdrawVerifier.sol\":17442:17443  q */\n      dup1\n        /* \"src/WithdrawVerifier.sol\":17438:17440  zh */\n      dup3\n        /* \"src/WithdrawVerifier.sol\":17426:17434  pEval_l7 */\n      0x03e0\n        /* \"src/WithdrawVerifier.sol\":17420:17424  pMem */\n      dup7\n        /* \"src/WithdrawVerifier.sol\":17416:17435  add(pMem, pEval_l7) */\n      add\n        /* \"src/WithdrawVerifier.sol\":17410:17436  mload(add(pMem, pEval_l7)) */\n      mload\n        /* \"src/WithdrawVerifier.sol\":17403:17444  mulmod(mload(add(pMem, pEval_l7)), zh, q) */\n      mulmod\n        /* \"src/WithdrawVerifier.sol\":17400:17401  w */\n      dup4\n        /* \"src/WithdrawVerifier.sol\":17393:17448  mulmod(w, mulmod(mload(add(pMem, pEval_l7)), zh, q), q) */\n      mulmod\n        /* \"src/WithdrawVerifier.sol\":17362:17370  pEval_l7 */\n      0x03e0\n        /* \"src/WithdrawVerifier.sol\":17356:17360  pMem */\n      dup5\n        /* \"src/WithdrawVerifier.sol\":17352:17371  add(pMem, pEval_l7) */\n      add\n        /* \"src/WithdrawVerifier.sol\":17324:17466  mstore(... */\n      mstore\n        /* \"src/WithdrawVerifier.sol\":14592:17480  {... */\n      pop\n      pop\n        /* \"src/WithdrawVerifier.sol\":14559:17480  function calculateLagrange(pMem) {... */\n      pop\n      jump\t// out\n        /* \"src/WithdrawVerifier.sol\":17494:20773  function calculatePI(pMem, pPub) {... */\n    tag_17:\n        /* \"src/WithdrawVerifier.sol\":17555:17556  0 */\n      0x00\n        /* \"src/WithdrawVerifier.sol\":17987:17988  q */\n      0x30644e72e131a029b85045b68181585d2833e84879b9709143e1f593f0000001\n        /* \"src/WithdrawVerifier.sol\":17942:17943  q */\n      dup1\n        /* \"src/WithdrawVerifier.sol\":17859:17860  q */\n      0x30644e72e131a029b85045b68181585d2833e84879b9709143e1f593f0000001\n        /* \"src/WithdrawVerifier.sol\":17822:17823  0 */\n      0x00\n        /* \"src/WithdrawVerifier.sol\":17816:17820  pPub */\n      dup7\n        /* \"src/WithdrawVerifier.sol\":17812:17824  add(pPub, 0) */\n      add\n        /* \"src/WithdrawVerifier.sol\":17799:17825  calldataload(add(pPub, 0)) */\n      calldataload\n        /* \"src/WithdrawVerifier.sol\":17755:17763  pEval_l1 */\n      0x0320\n        /* \"src/WithdrawVerifier.sol\":17749:17753  pMem */\n      dup7\n        /* \"src/WithdrawVerifier.sol\":17745:17764  add(pMem, pEval_l1) */\n      add\n        /* \"src/WithdrawVerifier.sol\":17739:17765  mload(add(pMem, pEval_l1)) */\n      mload\n        /* \"src/WithdrawVerifier.sol\":17699:17890  mulmod(... */\n      mulmod\n        /* \"src/WithdrawVerifier.sol\":17667:17669  pl */\n      dup4\n        /* \"src/WithdrawVerifier.sol\":17634:17916  sub(... */\n      sub\n        /* \"src/WithdrawVerifier.sol\":17605:17965  add(... */\n      add\n        /* \"src/WithdrawVerifier.sol\":17580:18006  mod(... */\n      mod\n        /* \"src/WithdrawVerifier.sol\":17574:18006  pl := mod(... */\n      swap1\n      pop\n        /* \"src/WithdrawVerifier.sol\":18438:18439  q */\n      0x30644e72e131a029b85045b68181585d2833e84879b9709143e1f593f0000001\n        /* \"src/WithdrawVerifier.sol\":18393:18394  q */\n      dup1\n        /* \"src/WithdrawVerifier.sol\":18310:18311  q */\n      0x30644e72e131a029b85045b68181585d2833e84879b9709143e1f593f0000001\n        /* \"src/WithdrawVerifier.sol\":18272:18274  32 */\n      0x20\n        /* \"src/WithdrawVerifier.sol\":18266:18270  pPub */\n      dup7\n        /* \"src/WithdrawVerifier.sol\":18262:18275  add(pPub, 32) */\n      add\n        /* \"src/WithdrawVerifier.sol\":18249:18276  calldataload(add(pPub, 32)) */\n      calldataload\n        /* \"src/WithdrawVerifier.sol\":18205:18213  pEval_l2 */\n      0x0340\n        /* \"src/WithdrawVerifier.sol\":18199:18203  pMem */\n      dup7\n        /* \"src/WithdrawVerifier.sol\":18195:18214  add(pMem, pEval_l2) */\n      add\n        /* \"src/WithdrawVerifier.sol\":18189:18215  mload(add(pMem, pEval_l2)) */\n      mload\n        /* \"src/WithdrawVerifier.sol\":18149:18341  mulmod(... */\n      mulmod\n        /* \"src/WithdrawVerifier.sol\":18117:18119  pl */\n      dup4\n        /* \"src/WithdrawVerifier.sol\":18084:18367  sub(... */\n      sub\n        /* \"src/WithdrawVerifier.sol\":18055:18416  add(... */\n      add\n        /* \"src/WithdrawVerifier.sol\":18030:18457  mod(... */\n      mod\n        /* \"src/WithdrawVerifier.sol\":18024:18457  pl := mod(... */\n      swap1\n      pop\n        /* \"src/WithdrawVerifier.sol\":18889:18890  q */\n      0x30644e72e131a029b85045b68181585d2833e84879b9709143e1f593f0000001\n        /* \"src/WithdrawVerifier.sol\":18844:18845  q */\n      dup1\n        /* \"src/WithdrawVerifier.sol\":18761:18762  q */\n      0x30644e72e131a029b85045b68181585d2833e84879b9709143e1f593f0000001\n        /* \"src/WithdrawVerifier.sol\":18723:18725  64 */\n      0x40\n        /* \"src/WithdrawVerifier.sol\":18717:18721  pPub */\n      dup7\n        /* \"src/WithdrawVerifier.sol\":18713:18726  add(pPub, 64) */\n      add\n        /* \"src/WithdrawVerifier.sol\":18700:18727  calldataload(add(pPub, 64)) */\n      calldataload\n        /* \"src/WithdrawVerifier.sol\":18656:18664  pEval_l3 */\n      0x0360\n        /* \"src/WithdrawVerifier.sol\":18650:18654  pMem */\n      dup7\n        /* \"src/WithdrawVerifier.sol\":18646:18665  add(pMem, pEval_l3) */\n      add\n        /* \"src/WithdrawVerifier.sol\":18640:18666  mload(add(pMem, pEval_l3)) */\n      mload\n        /* \"src/WithdrawVerifier.sol\":18600:18792  mulmod(... */\n      mulmod\n        /* \"src/WithdrawVerifier.sol\":18568:18570  pl */\n      dup4\n        /* \"src/WithdrawVerifier.sol\":18535:18818  sub(... */\n      sub\n        /* \"src/WithdrawVerifier.sol\":18506:18867  add(... */\n      add\n        /* \"src/WithdrawVerifier.sol\":18481:18908  mod(... */\n      mod\n        /* \"src/WithdrawVerifier.sol\":18475:18908  pl := mod(... */\n      swap1\n      pop\n        /* \"src/WithdrawVerifier.sol\":19340:19341  q */\n      0x30644e72e131a029b85045b68181585d2833e84879b9709143e1f593f0000001\n        /* \"src/WithdrawVerifier.sol\":19295:19296  q */\n      dup1\n        /* \"src/WithdrawVerifier.sol\":19212:19213  q */\n      0x30644e72e131a029b85045b68181585d2833e84879b9709143e1f593f0000001\n        /* \"src/WithdrawVerifier.sol\":19174:19176  96 */\n      0x60\n        /* \"src/WithdrawVerifier.sol\":19168:19172  pPub */\n      dup7\n        /* \"src/WithdrawVerifier.sol\":19164:19177  add(pPub, 96) */\n      add\n        /* \"src/WithdrawVerifier.sol\":19151:19178  calldataload(add(pPub, 96)) */\n      calldataload\n        /* \"src/WithdrawVerifier.sol\":19107:19115  pEval_l4 */\n      0x0380\n        /* \"src/WithdrawVerifier.sol\":19101:19105  pMem */\n      dup7\n        /* \"src/WithdrawVerifier.sol\":19097:19116  add(pMem, pEval_l4) */\n      add\n        /* \"src/WithdrawVerifier.sol\":19091:19117  mload(add(pMem, pEval_l4)) */\n      mload\n        /* \"src/WithdrawVerifier.sol\":19051:19243  mulmod(... */\n      mulmod\n        /* \"src/WithdrawVerifier.sol\":19019:19021  pl */\n      dup4\n        /* \"src/WithdrawVerifier.sol\":18986:19269  sub(... */\n      sub\n        /* \"src/WithdrawVerifier.sol\":18957:19318  add(... */\n      add\n        /* \"src/WithdrawVerifier.sol\":18932:19359  mod(... */\n      mod\n        /* \"src/WithdrawVerifier.sol\":18926:19359  pl := mod(... */\n      swap1\n      pop\n        /* \"src/WithdrawVerifier.sol\":19792:19793  q */\n      0x30644e72e131a029b85045b68181585d2833e84879b9709143e1f593f0000001\n        /* \"src/WithdrawVerifier.sol\":19747:19748  q */\n      dup1\n        /* \"src/WithdrawVerifier.sol\":19664:19665  q */\n      0x30644e72e131a029b85045b68181585d2833e84879b9709143e1f593f0000001\n        /* \"src/WithdrawVerifier.sol\":19625:19628  128 */\n      0x80\n        /* \"src/WithdrawVerifier.sol\":19619:19623  pPub */\n      dup7\n        /* \"src/WithdrawVerifier.sol\":19615:19629  add(pPub, 128) */\n      add\n        /* \"src/WithdrawVerifier.sol\":19602:19630  calldataload(add(pPub, 128)) */\n      calldataload\n        /* \"src/WithdrawVerifier.sol\":19558:19566  pEval_l5 */\n      0x03a0\n        /* \"src/WithdrawVerifier.sol\":19552:19556  pMem */\n      dup7\n        /* \"src/WithdrawVerifier.sol\":19548:19567  add(pMem, pEval_l5) */\n      add\n        /* \"src/WithdrawVerifier.sol\":19542:19568  mload(add(pMem, pEval_l5)) */\n      mload\n        /* \"src/WithdrawVerifier.sol\":19502:19695  mulmod(... */\n      mulmod\n        /* \"src/WithdrawVerifier.sol\":19470:19472  pl */\n      dup4\n        /* \"src/WithdrawVerifier.sol\":19437:19721  sub(... */\n      sub\n        /* \"src/WithdrawVerifier.sol\":19408:19770  add(... */\n      add\n        /* \"src/WithdrawVerifier.sol\":19383:19811  mod(... */\n      mod\n        /* \"src/WithdrawVerifier.sol\":19377:19811  pl := mod(... */\n      swap1\n      pop\n        /* \"src/WithdrawVerifier.sol\":20244:20245  q */\n      0x30644e72e131a029b85045b68181585d2833e84879b9709143e1f593f0000001\n        /* \"src/WithdrawVerifier.sol\":20199:20200  q */\n      dup1\n        /* \"src/WithdrawVerifier.sol\":20116:20117  q */\n      0x30644e72e131a029b85045b68181585d2833e84879b9709143e1f593f0000001\n        /* \"src/WithdrawVerifier.sol\":20077:20080  160 */\n      0xa0\n        /* \"src/WithdrawVerifier.sol\":20071:20075  pPub */\n      dup7\n        /* \"src/WithdrawVerifier.sol\":20067:20081  add(pPub, 160) */\n      add\n        /* \"src/WithdrawVerifier.sol\":20054:20082  calldataload(add(pPub, 160)) */\n      calldataload\n        /* \"src/WithdrawVerifier.sol\":20010:20018  pEval_l6 */\n      0x03c0\n        /* \"src/WithdrawVerifier.sol\":20004:20008  pMem */\n      dup7\n        /* \"src/WithdrawVerifier.sol\":20000:20019  add(pMem, pEval_l6) */\n      add\n        /* \"src/WithdrawVerifier.sol\":19994:20020  mload(add(pMem, pEval_l6)) */\n      mload\n        /* \"src/WithdrawVerifier.sol\":19954:20147  mulmod(... */\n      mulmod\n        /* \"src/WithdrawVerifier.sol\":19922:19924  pl */\n      dup4\n        /* \"src/WithdrawVerifier.sol\":19889:20173  sub(... */\n      sub\n        /* \"src/WithdrawVerifier.sol\":19860:20222  add(... */\n      add\n        /* \"src/WithdrawVerifier.sol\":19835:20263  mod(... */\n      mod\n        /* \"src/WithdrawVerifier.sol\":19829:20263  pl := mod(... */\n      swap1\n      pop\n        /* \"src/WithdrawVerifier.sol\":20696:20697  q */\n      0x30644e72e131a029b85045b68181585d2833e84879b9709143e1f593f0000001\n        /* \"src/WithdrawVerifier.sol\":20651:20652  q */\n      dup1\n        /* \"src/WithdrawVerifier.sol\":20568:20569  q */\n      0x30644e72e131a029b85045b68181585d2833e84879b9709143e1f593f0000001\n        /* \"src/WithdrawVerifier.sol\":20529:20532  192 */\n      0xc0\n        /* \"src/WithdrawVerifier.sol\":20523:20527  pPub */\n      dup7\n        /* \"src/WithdrawVerifier.sol\":20519:20533  add(pPub, 192) */\n      add\n        /* \"src/WithdrawVerifier.sol\":20506:20534  calldataload(add(pPub, 192)) */\n      calldataload\n        /* \"src/WithdrawVerifier.sol\":20462:20470  pEval_l7 */\n      0x03e0\n        /* \"src/WithdrawVerifier.sol\":20456:20460  pMem */\n      dup7\n        /* \"src/WithdrawVerifier.sol\":20452:20471  add(pMem, pEval_l7) */\n      add\n        /* \"src/WithdrawVerifier.sol\":20446:20472  mload(add(pMem, pEval_l7)) */\n      mload\n        /* \"src/WithdrawVerifier.sol\":20406:20599  mulmod(... */\n      mulmod\n        /* \"src/WithdrawVerifier.sol\":20374:20376  pl */\n      dup4\n        /* \"src/WithdrawVerifier.sol\":20341:20625  sub(... */\n      sub\n        /* \"src/WithdrawVerifier.sol\":20312:20674  add(... */\n      add\n        /* \"src/WithdrawVerifier.sol\":20287:20715  mod(... */\n      mod\n        /* \"src/WithdrawVerifier.sol\":20281:20715  pl := mod(... */\n      swap1\n      pop\n        /* \"src/WithdrawVerifier.sol\":20756:20758  pl */\n      dup1\n        /* \"src/WithdrawVerifier.sol\":20750:20753  pPI */\n      0x0180\n        /* \"src/WithdrawVerifier.sol\":20744:20748  pMem */\n      dup4\n        /* \"src/WithdrawVerifier.sol\":20740:20754  add(pMem, pPI) */\n      add\n        /* \"src/WithdrawVerifier.sol\":20733:20759  mstore(add(pMem, pPI), pl) */\n      mstore\n        /* \"src/WithdrawVerifier.sol\":17527:20773  {... */\n      pop\n        /* \"src/WithdrawVerifier.sol\":17494:20773  function calculatePI(pMem, pPub) {... */\n      pop\n      pop\n      jump\t// out\n        /* \"src/WithdrawVerifier.sol\":20787:22089  function calculateR0(pMem) {... */\n    tag_18:\n        /* \"src/WithdrawVerifier.sol\":20858:20861  pPI */\n      0x0180\n        /* \"src/WithdrawVerifier.sol\":20852:20856  pMem */\n      dup2\n        /* \"src/WithdrawVerifier.sol\":20848:20862  add(pMem, pPI) */\n      add\n        /* \"src/WithdrawVerifier.sol\":20842:20863  mload(add(pMem, pPI)) */\n      mload\n        /* \"src/WithdrawVerifier.sol\":21014:21015  q */\n      0x30644e72e131a029b85045b68181585d2833e84879b9709143e1f593f0000001\n        /* \"src/WithdrawVerifier.sol\":20983:20990  pAlpha2 */\n      0x02c0\n        /* \"src/WithdrawVerifier.sol\":20977:20981  pMem */\n      dup4\n        /* \"src/WithdrawVerifier.sol\":20973:20991  add(pMem, pAlpha2) */\n      add\n        /* \"src/WithdrawVerifier.sol\":20967:20992  mload(add(pMem, pAlpha2)) */\n      mload\n        /* \"src/WithdrawVerifier.sol\":20935:20943  pEval_l1 */\n      0x0320\n        /* \"src/WithdrawVerifier.sol\":20929:20933  pMem */\n      dup5\n        /* \"src/WithdrawVerifier.sol\":20925:20944  add(pMem, pEval_l1) */\n      add\n        /* \"src/WithdrawVerifier.sol\":20919:20945  mload(add(pMem, pEval_l1)) */\n      mload\n        /* \"src/WithdrawVerifier.sol\":20891:21033  mulmod(... */\n      mulmod\n        /* \"src/WithdrawVerifier.sol\":21213:21214  q */\n      0x30644e72e131a029b85045b68181585d2833e84879b9709143e1f593f0000001\n        /* \"src/WithdrawVerifier.sol\":21189:21190  q */\n      dup1\n        /* \"src/WithdrawVerifier.sol\":21178:21186  pEval_s1 */\n      0x02a4\n        /* \"src/WithdrawVerifier.sol\":21165:21187  calldataload(pEval_s1) */\n      calldataload\n        /* \"src/WithdrawVerifier.sol\":21156:21161  pBeta */\n      0x20\n        /* \"src/WithdrawVerifier.sol\":21150:21154  pMem */\n      dup7\n        /* \"src/WithdrawVerifier.sol\":21146:21162  add(pMem, pBeta) */\n      add\n        /* \"src/WithdrawVerifier.sol\":21140:21163  mload(add(pMem, pBeta)) */\n      mload\n        /* \"src/WithdrawVerifier.sol\":21133:21191  mulmod(mload(add(pMem, pBeta)), calldataload(pEval_s1), q) */\n      mulmod\n        /* \"src/WithdrawVerifier.sol\":21103:21110  pEval_a */\n      0x0244\n        /* \"src/WithdrawVerifier.sol\":21090:21111  calldataload(pEval_a) */\n      calldataload\n        /* \"src/WithdrawVerifier.sol\":21062:21232  addmod(... */\n      addmod\n        /* \"src/WithdrawVerifier.sol\":21294:21295  q */\n      0x30644e72e131a029b85045b68181585d2833e84879b9709143e1f593f0000001\n        /* \"src/WithdrawVerifier.sol\":21284:21290  pGamma */\n      0x40\n        /* \"src/WithdrawVerifier.sol\":21278:21282  pMem */\n      dup6\n        /* \"src/WithdrawVerifier.sol\":21274:21291  add(pMem, pGamma) */\n      add\n        /* \"src/WithdrawVerifier.sol\":21268:21292  mload(add(pMem, pGamma)) */\n      mload\n        /* \"src/WithdrawVerifier.sol\":21263:21266  e3a */\n      dup3\n        /* \"src/WithdrawVerifier.sol\":21256:21296  addmod(e3a, mload(add(pMem, pGamma)), q) */\n      addmod\n        /* \"src/WithdrawVerifier.sol\":21249:21296  e3a := addmod(e3a, mload(add(pMem, pGamma)), q) */\n      swap1\n      pop\n        /* \"src/WithdrawVerifier.sol\":21476:21477  q */\n      0x30644e72e131a029b85045b68181585d2833e84879b9709143e1f593f0000001\n        /* \"src/WithdrawVerifier.sol\":21452:21453  q */\n      dup1\n        /* \"src/WithdrawVerifier.sol\":21441:21449  pEval_s2 */\n      0x02c4\n        /* \"src/WithdrawVerifier.sol\":21428:21450  calldataload(pEval_s2) */\n      calldataload\n        /* \"src/WithdrawVerifier.sol\":21419:21424  pBeta */\n      0x20\n        /* \"src/WithdrawVerifier.sol\":21413:21417  pMem */\n      dup8\n        /* \"src/WithdrawVerifier.sol\":21409:21425  add(pMem, pBeta) */\n      add\n        /* \"src/WithdrawVerifier.sol\":21403:21426  mload(add(pMem, pBeta)) */\n      mload\n        /* \"src/WithdrawVerifier.sol\":21396:21454  mulmod(mload(add(pMem, pBeta)), calldataload(pEval_s2), q) */\n      mulmod\n        /* \"src/WithdrawVerifier.sol\":21366:21373  pEval_b */\n      0x0264\n        /* \"src/WithdrawVerifier.sol\":21353:21374  calldataload(pEval_b) */\n      calldataload\n        /* \"src/WithdrawVerifier.sol\":21325:21495  addmod(... */\n      addmod\n        /* \"src/WithdrawVerifier.sol\":21557:21558  q */\n      0x30644e72e131a029b85045b68181585d2833e84879b9709143e1f593f0000001\n        /* \"src/WithdrawVerifier.sol\":21547:21553  pGamma */\n      0x40\n        /* \"src/WithdrawVerifier.sol\":21541:21545  pMem */\n      dup7\n        /* \"src/WithdrawVerifier.sol\":21537:21554  add(pMem, pGamma) */\n      add\n        /* \"src/WithdrawVerifier.sol\":21531:21555  mload(add(pMem, pGamma)) */\n      mload\n        /* \"src/WithdrawVerifier.sol\":21526:21529  e3b */\n      dup3\n        /* \"src/WithdrawVerifier.sol\":21519:21559  addmod(e3b, mload(add(pMem, pGamma)), q) */\n      addmod\n        /* \"src/WithdrawVerifier.sol\":21512:21559  e3b := addmod(e3b, mload(add(pMem, pGamma)), q) */\n      swap1\n      pop\n        /* \"src/WithdrawVerifier.sol\":21705:21706  q */\n      0x30644e72e131a029b85045b68181585d2833e84879b9709143e1f593f0000001\n        /* \"src/WithdrawVerifier.sol\":21675:21681  pGamma */\n      0x40\n        /* \"src/WithdrawVerifier.sol\":21669:21673  pMem */\n      dup7\n        /* \"src/WithdrawVerifier.sol\":21665:21682  add(pMem, pGamma) */\n      add\n        /* \"src/WithdrawVerifier.sol\":21659:21683  mload(add(pMem, pGamma)) */\n      mload\n        /* \"src/WithdrawVerifier.sol\":21629:21636  pEval_c */\n      0x0284\n        /* \"src/WithdrawVerifier.sol\":21616:21637  calldataload(pEval_c) */\n      calldataload\n        /* \"src/WithdrawVerifier.sol\":21588:21724  addmod(... */\n      addmod\n        /* \"src/WithdrawVerifier.sol\":21785:21786  q */\n      0x30644e72e131a029b85045b68181585d2833e84879b9709143e1f593f0000001\n        /* \"src/WithdrawVerifier.sol\":21780:21783  e3c */\n      dup2\n        /* \"src/WithdrawVerifier.sol\":21776:21777  q */\n      0x30644e72e131a029b85045b68181585d2833e84879b9709143e1f593f0000001\n        /* \"src/WithdrawVerifier.sol\":21771:21774  e3b */\n      dup5\n        /* \"src/WithdrawVerifier.sol\":21766:21769  e3a */\n      dup7\n        /* \"src/WithdrawVerifier.sol\":21759:21778  mulmod(e3a, e3b, q) */\n      mulmod\n        /* \"src/WithdrawVerifier.sol\":21752:21787  mulmod(mulmod(e3a, e3b, q), e3c, q) */\n      mulmod\n        /* \"src/WithdrawVerifier.sol\":21845:21846  q */\n      0x30644e72e131a029b85045b68181585d2833e84879b9709143e1f593f0000001\n        /* \"src/WithdrawVerifier.sol\":21834:21842  pEval_zw */\n      0x02e4\n        /* \"src/WithdrawVerifier.sol\":21821:21843  calldataload(pEval_zw) */\n      calldataload\n        /* \"src/WithdrawVerifier.sol\":21817:21819  e3 */\n      dup3\n        /* \"src/WithdrawVerifier.sol\":21810:21847  mulmod(e3, calldataload(pEval_zw), q) */\n      mulmod\n        /* \"src/WithdrawVerifier.sol\":21804:21847  e3 := mulmod(e3, calldataload(pEval_zw), q) */\n      swap1\n      pop\n        /* \"src/WithdrawVerifier.sol\":21907:21908  q */\n      0x30644e72e131a029b85045b68181585d2833e84879b9709143e1f593f0000001\n        /* \"src/WithdrawVerifier.sol\":21897:21903  pAlpha */\n      0x00\n        /* \"src/WithdrawVerifier.sol\":21891:21895  pMem */\n      dup9\n        /* \"src/WithdrawVerifier.sol\":21887:21904  add(pMem, pAlpha) */\n      add\n        /* \"src/WithdrawVerifier.sol\":21881:21905  mload(add(pMem, pAlpha)) */\n      mload\n        /* \"src/WithdrawVerifier.sol\":21877:21879  e3 */\n      dup3\n        /* \"src/WithdrawVerifier.sol\":21870:21909  mulmod(e3, mload(add(pMem, pAlpha)), q) */\n      mulmod\n        /* \"src/WithdrawVerifier.sol\":21864:21909  e3 := mulmod(e3, mload(add(pMem, pAlpha)), q) */\n      swap1\n      pop\n        /* \"src/WithdrawVerifier.sol\":21968:21969  q */\n      0x30644e72e131a029b85045b68181585d2833e84879b9709143e1f593f0000001\n        /* \"src/WithdrawVerifier.sol\":21964:21965  q */\n      dup1\n        /* \"src/WithdrawVerifier.sol\":21959:21961  e2 */\n      dup7\n        /* \"src/WithdrawVerifier.sol\":21956:21957  q */\n      0x30644e72e131a029b85045b68181585d2833e84879b9709143e1f593f0000001\n        /* \"src/WithdrawVerifier.sol\":21952:21962  sub(q, e2) */\n      sub\n        /* \"src/WithdrawVerifier.sol\":21948:21966  mod(sub(q, e2), q) */\n      mod\n        /* \"src/WithdrawVerifier.sol\":21944:21946  e1 */\n      dup8\n        /* \"src/WithdrawVerifier.sol\":21937:21970  addmod(e1, mod(sub(q, e2), q), q) */\n      addmod\n        /* \"src/WithdrawVerifier.sol\":22024:22025  q */\n      0x30644e72e131a029b85045b68181585d2833e84879b9709143e1f593f0000001\n        /* \"src/WithdrawVerifier.sol\":22020:22021  q */\n      dup1\n        /* \"src/WithdrawVerifier.sol\":22015:22017  e3 */\n      dup4\n        /* \"src/WithdrawVerifier.sol\":22012:22013  q */\n      0x30644e72e131a029b85045b68181585d2833e84879b9709143e1f593f0000001\n        /* \"src/WithdrawVerifier.sol\":22008:22018  sub(q, e3) */\n      sub\n        /* \"src/WithdrawVerifier.sol\":22004:22022  mod(sub(q, e3), q) */\n      mod\n        /* \"src/WithdrawVerifier.sol\":22000:22002  r0 */\n      dup3\n        /* \"src/WithdrawVerifier.sol\":21993:22026  addmod(r0, mod(sub(q, e3), q), q) */\n      addmod\n        /* \"src/WithdrawVerifier.sol\":21987:22026  r0 := addmod(r0, mod(sub(q, e3), q), q) */\n      swap1\n      pop\n        /* \"src/WithdrawVerifier.sol\":22072:22074  r0 */\n      dup1\n        /* \"src/WithdrawVerifier.sol\":22061:22069  pEval_r0 */\n      0x01a0\n        /* \"src/WithdrawVerifier.sol\":22055:22059  pMem */\n      dup10\n        /* \"src/WithdrawVerifier.sol\":22051:22070  add(pMem, pEval_r0) */\n      add\n        /* \"src/WithdrawVerifier.sol\":22044:22075  mstore(add(pMem, pEval_r0), r0) */\n      mstore\n        /* \"src/WithdrawVerifier.sol\":20814:22089  {... */\n      pop\n      pop\n      pop\n      pop\n      pop\n      pop\n      pop\n        /* \"src/WithdrawVerifier.sol\":20787:22089  function calculateR0(pMem) {... */\n      pop\n      jump\t// out\n        /* \"src/WithdrawVerifier.sol\":22103:22236  function g1_set(pR, pP) {... */\n    tag_19:\n        /* \"src/WithdrawVerifier.sol\":22162:22164  pP */\n      dup2\n        /* \"src/WithdrawVerifier.sol\":22156:22165  mload(pP) */\n      mload\n        /* \"src/WithdrawVerifier.sol\":22152:22154  pR */\n      dup2\n        /* \"src/WithdrawVerifier.sol\":22145:22166  mstore(pR, mload(pP)) */\n      mstore\n        /* \"src/WithdrawVerifier.sol\":22217:22219  32 */\n      0x20\n        /* \"src/WithdrawVerifier.sol\":22213:22215  pP */\n      dup3\n        /* \"src/WithdrawVerifier.sol\":22209:22220  add(pP, 32) */\n      add\n        /* \"src/WithdrawVerifier.sol\":22203:22221  mload(add(pP, 32)) */\n      mload\n        /* \"src/WithdrawVerifier.sol\":22198:22200  32 */\n      0x20\n        /* \"src/WithdrawVerifier.sol\":22194:22196  pR */\n      dup3\n        /* \"src/WithdrawVerifier.sol\":22190:22201  add(pR, 32) */\n      add\n        /* \"src/WithdrawVerifier.sol\":22183:22222  mstore(add(pR, 32), mload(add(pP, 32))) */\n      mstore\n        /* \"src/WithdrawVerifier.sol\":22103:22236  function g1_set(pR, pP) {... */\n      pop\n      pop\n      jump\t// out\n        /* \"src/WithdrawVerifier.sol\":22250:22361  function g1_setC(pR, x, y) {... */\n    tag_20:\n        /* \"src/WithdrawVerifier.sol\":22306:22307  x */\n      dup2\n        /* \"src/WithdrawVerifier.sol\":22302:22304  pR */\n      dup2\n        /* \"src/WithdrawVerifier.sol\":22295:22308  mstore(pR, x) */\n      mstore\n        /* \"src/WithdrawVerifier.sol\":22345:22346  y */\n      dup3\n        /* \"src/WithdrawVerifier.sol\":22340:22342  32 */\n      0x20\n        /* \"src/WithdrawVerifier.sol\":22336:22338  pR */\n      dup3\n        /* \"src/WithdrawVerifier.sol\":22332:22343  add(pR, 32) */\n      add\n        /* \"src/WithdrawVerifier.sol\":22325:22347  mstore(add(pR, 32), y) */\n      mstore\n        /* \"src/WithdrawVerifier.sol\":22250:22361  function g1_setC(pR, x, y) {... */\n      pop\n      pop\n      pop\n      jump\t// out\n        /* \"src/WithdrawVerifier.sol\":22375:22530  function g1_calldataSet(pR, pP) {... */\n    tag_21:\n        /* \"src/WithdrawVerifier.sol\":22449:22451  pP */\n      dup2\n        /* \"src/WithdrawVerifier.sol\":22436:22452  calldataload(pP) */\n      calldataload\n        /* \"src/WithdrawVerifier.sol\":22432:22434  pR */\n      dup2\n        /* \"src/WithdrawVerifier.sol\":22425:22453  mstore(pR, calldataload(pP)) */\n      mstore\n        /* \"src/WithdrawVerifier.sol\":22511:22513  32 */\n      0x20\n        /* \"src/WithdrawVerifier.sol\":22507:22509  pP */\n      dup3\n        /* \"src/WithdrawVerifier.sol\":22503:22514  add(pP, 32) */\n      add\n        /* \"src/WithdrawVerifier.sol\":22490:22515  calldataload(add(pP, 32)) */\n      calldataload\n        /* \"src/WithdrawVerifier.sol\":22485:22487  32 */\n      0x20\n        /* \"src/WithdrawVerifier.sol\":22481:22483  pR */\n      dup3\n        /* \"src/WithdrawVerifier.sol\":22477:22488  add(pR, 32) */\n      add\n        /* \"src/WithdrawVerifier.sol\":22470:22516  mstore(add(pR, 32), calldataload(add(pP, 32))) */\n      mstore\n        /* \"src/WithdrawVerifier.sol\":22375:22530  function g1_calldataSet(pR, pP) {... */\n      pop\n      pop\n      jump\t// out\n        /* \"src/WithdrawVerifier.sol\":22544:23030  function g1_acc(pR, pP) {... */\n    tag_22:\n        /* \"src/WithdrawVerifier.sol\":22603:22607  0x40 */\n      0x40\n        /* \"src/WithdrawVerifier.sol\":22597:22608  mload(0x40) */\n      mload\n        /* \"src/WithdrawVerifier.sol\":22643:22645  pR */\n      dup2\n        /* \"src/WithdrawVerifier.sol\":22637:22646  mload(pR) */\n      mload\n        /* \"src/WithdrawVerifier.sol\":22632:22635  mIn */\n      dup2\n        /* \"src/WithdrawVerifier.sol\":22625:22647  mstore(mIn, mload(pR)) */\n      mstore\n        /* \"src/WithdrawVerifier.sol\":22699:22701  32 */\n      0x20\n        /* \"src/WithdrawVerifier.sol\":22695:22697  pR */\n      dup3\n        /* \"src/WithdrawVerifier.sol\":22691:22702  add(pR, 32) */\n      add\n        /* \"src/WithdrawVerifier.sol\":22685:22703  mload(add(pR, 32)) */\n      mload\n        /* \"src/WithdrawVerifier.sol\":22680:22682  32 */\n      0x20\n        /* \"src/WithdrawVerifier.sol\":22675:22678  mIn */\n      dup3\n        /* \"src/WithdrawVerifier.sol\":22671:22683  add(mIn, 32) */\n      add\n        /* \"src/WithdrawVerifier.sol\":22664:22704  mstore(add(mIn, 32), mload(add(pR, 32))) */\n      mstore\n        /* \"src/WithdrawVerifier.sol\":22748:22750  pP */\n      dup3\n        /* \"src/WithdrawVerifier.sol\":22742:22751  mload(pP) */\n      mload\n        /* \"src/WithdrawVerifier.sol\":22737:22739  64 */\n      0x40\n        /* \"src/WithdrawVerifier.sol\":22732:22735  mIn */\n      dup3\n        /* \"src/WithdrawVerifier.sol\":22728:22740  add(mIn, 64) */\n      add\n        /* \"src/WithdrawVerifier.sol\":22721:22752  mstore(add(mIn, 64), mload(pP)) */\n      mstore\n        /* \"src/WithdrawVerifier.sol\":22804:22806  32 */\n      0x20\n        /* \"src/WithdrawVerifier.sol\":22800:22802  pP */\n      dup4\n        /* \"src/WithdrawVerifier.sol\":22796:22807  add(pP, 32) */\n      add\n        /* \"src/WithdrawVerifier.sol\":22790:22808  mload(add(pP, 32)) */\n      mload\n        /* \"src/WithdrawVerifier.sol\":22785:22787  96 */\n      0x60\n        /* \"src/WithdrawVerifier.sol\":22780:22783  mIn */\n      dup3\n        /* \"src/WithdrawVerifier.sol\":22776:22788  add(mIn, 96) */\n      add\n        /* \"src/WithdrawVerifier.sol\":22769:22809  mstore(add(mIn, 96), mload(add(pP, 32))) */\n      mstore\n        /* \"src/WithdrawVerifier.sol\":22888:22890  64 */\n      0x40\n        /* \"src/WithdrawVerifier.sol\":22884:22886  pR */\n      dup3\n        /* \"src/WithdrawVerifier.sol\":22879:22882  128 */\n      0x80\n        /* \"src/WithdrawVerifier.sol\":22874:22877  mIn */\n      dup4\n        /* \"src/WithdrawVerifier.sol\":22871:22872  6 */\n      0x06\n        /* \"src/WithdrawVerifier.sol\":22864:22868  2000 */\n      0x07d0\n        /* \"src/WithdrawVerifier.sol\":22857:22862  gas() */\n      gas\n        /* \"src/WithdrawVerifier.sol\":22853:22869  sub(gas(), 2000) */\n      sub\n        /* \"src/WithdrawVerifier.sol\":22842:22891  staticcall(sub(gas(), 2000), 6, mIn, 128, pR, 64) */\n      staticcall\n        /* \"src/WithdrawVerifier.sol\":22919:22926  success */\n      dup1\n        /* \"src/WithdrawVerifier.sol\":22909:23016  if iszero(success) {... */\n      tag_64\n      jumpi\n        /* \"src/WithdrawVerifier.sol\":22960:22961  0 */\n      0x00\n        /* \"src/WithdrawVerifier.sol\":22957:22958  0 */\n      dup1\n        /* \"src/WithdrawVerifier.sol\":22950:22962  mstore(0, 0) */\n      mstore\n        /* \"src/WithdrawVerifier.sol\":22993:22997  0x20 */\n      0x20\n        /* \"src/WithdrawVerifier.sol\":22990:22991  0 */\n      0x00\n        /* \"src/WithdrawVerifier.sol\":22983:22998  return(0, 0x20) */\n      return\n        /* \"src/WithdrawVerifier.sol\":22909:23016  if iszero(success) {... */\n    tag_64:\n        /* \"src/WithdrawVerifier.sol\":22568:23030  {... */\n      pop\n      pop\n        /* \"src/WithdrawVerifier.sol\":22544:23030  function g1_acc(pR, pP) {... */\n      pop\n      pop\n      jump\t// out\n        /* \"src/WithdrawVerifier.sol\":23818:24556  function g1_mulAccC(pR, x, y, s) {... */\n    tag_24:\n        /* \"src/WithdrawVerifier.sol\":23869:23880  let success */\n      0x00\n        /* \"src/WithdrawVerifier.sol\":23914:23918  0x40 */\n      0x40\n        /* \"src/WithdrawVerifier.sol\":23908:23919  mload(0x40) */\n      mload\n        /* \"src/WithdrawVerifier.sol\":23948:23949  x */\n      dup4\n        /* \"src/WithdrawVerifier.sol\":23943:23946  mIn */\n      dup2\n        /* \"src/WithdrawVerifier.sol\":23936:23950  mstore(mIn, x) */\n      mstore\n        /* \"src/WithdrawVerifier.sol\":23988:23989  y */\n      dup5\n        /* \"src/WithdrawVerifier.sol\":23983:23985  32 */\n      0x20\n        /* \"src/WithdrawVerifier.sol\":23978:23981  mIn */\n      dup3\n        /* \"src/WithdrawVerifier.sol\":23974:23986  add(mIn, 32) */\n      add\n        /* \"src/WithdrawVerifier.sol\":23967:23990  mstore(add(mIn, 32), y) */\n      mstore\n        /* \"src/WithdrawVerifier.sol\":24028:24029  s */\n      dup6\n        /* \"src/WithdrawVerifier.sol\":24023:24025  64 */\n      0x40\n        /* \"src/WithdrawVerifier.sol\":24018:24021  mIn */\n      dup3\n        /* \"src/WithdrawVerifier.sol\":24014:24026  add(mIn, 64) */\n      add\n        /* \"src/WithdrawVerifier.sol\":24007:24030  mstore(add(mIn, 64), s) */\n      mstore\n        /* \"src/WithdrawVerifier.sol\":24105:24107  64 */\n      0x40\n        /* \"src/WithdrawVerifier.sol\":24100:24103  mIn */\n      dup2\n        /* \"src/WithdrawVerifier.sol\":24096:24098  96 */\n      0x60\n        /* \"src/WithdrawVerifier.sol\":24091:24094  mIn */\n      dup4\n        /* \"src/WithdrawVerifier.sol\":24088:24089  7 */\n      0x07\n        /* \"src/WithdrawVerifier.sol\":24081:24085  2000 */\n      0x07d0\n        /* \"src/WithdrawVerifier.sol\":24074:24079  gas() */\n      gas\n        /* \"src/WithdrawVerifier.sol\":24070:24086  sub(gas(), 2000) */\n      sub\n        /* \"src/WithdrawVerifier.sol\":24059:24108  staticcall(sub(gas(), 2000), 7, mIn, 96, mIn, 64) */\n      staticcall\n        /* \"src/WithdrawVerifier.sol\":24048:24108  success := staticcall(sub(gas(), 2000), 7, mIn, 96, mIn, 64) */\n      swap2\n      pop\n        /* \"src/WithdrawVerifier.sol\":24136:24143  success */\n      dup2\n        /* \"src/WithdrawVerifier.sol\":24126:24233  if iszero(success) {... */\n      tag_69\n      jumpi\n        /* \"src/WithdrawVerifier.sol\":24177:24178  0 */\n      0x00\n        /* \"src/WithdrawVerifier.sol\":24174:24175  0 */\n      dup1\n        /* \"src/WithdrawVerifier.sol\":24167:24179  mstore(0, 0) */\n      mstore\n        /* \"src/WithdrawVerifier.sol\":24210:24214  0x20 */\n      0x20\n        /* \"src/WithdrawVerifier.sol\":24207:24208  0 */\n      0x00\n        /* \"src/WithdrawVerifier.sol\":24200:24215  return(0, 0x20) */\n      return\n        /* \"src/WithdrawVerifier.sol\":24126:24233  if iszero(success) {... */\n    tag_69:\n        /* \"src/WithdrawVerifier.sol\":24278:24280  pR */\n      dup3\n        /* \"src/WithdrawVerifier.sol\":24272:24281  mload(pR) */\n      mload\n        /* \"src/WithdrawVerifier.sol\":24267:24269  64 */\n      0x40\n        /* \"src/WithdrawVerifier.sol\":24262:24265  mIn */\n      dup3\n        /* \"src/WithdrawVerifier.sol\":24258:24270  add(mIn, 64) */\n      add\n        /* \"src/WithdrawVerifier.sol\":24251:24282  mstore(add(mIn, 64), mload(pR)) */\n      mstore\n        /* \"src/WithdrawVerifier.sol\":24334:24336  32 */\n      0x20\n        /* \"src/WithdrawVerifier.sol\":24330:24332  pR */\n      dup4\n        /* \"src/WithdrawVerifier.sol\":24326:24337  add(pR, 32) */\n      add\n        /* \"src/WithdrawVerifier.sol\":24320:24338  mload(add(pR, 32)) */\n      mload\n        /* \"src/WithdrawVerifier.sol\":24315:24317  96 */\n      0x60\n        /* \"src/WithdrawVerifier.sol\":24310:24313  mIn */\n      dup3\n        /* \"src/WithdrawVerifier.sol\":24306:24318  add(mIn, 96) */\n      add\n        /* \"src/WithdrawVerifier.sol\":24299:24339  mstore(add(mIn, 96), mload(add(pR, 32))) */\n      mstore\n        /* \"src/WithdrawVerifier.sol\":24414:24416  64 */\n      0x40\n        /* \"src/WithdrawVerifier.sol\":24410:24412  pR */\n      dup4\n        /* \"src/WithdrawVerifier.sol\":24405:24408  128 */\n      0x80\n        /* \"src/WithdrawVerifier.sol\":24400:24403  mIn */\n      dup4\n        /* \"src/WithdrawVerifier.sol\":24397:24398  6 */\n      0x06\n        /* \"src/WithdrawVerifier.sol\":24390:24394  2000 */\n      0x07d0\n        /* \"src/WithdrawVerifier.sol\":24383:24388  gas() */\n      gas\n        /* \"src/WithdrawVerifier.sol\":24379:24395  sub(gas(), 2000) */\n      sub\n        /* \"src/WithdrawVerifier.sol\":24368:24417  staticcall(sub(gas(), 2000), 6, mIn, 128, pR, 64) */\n      staticcall\n        /* \"src/WithdrawVerifier.sol\":24357:24417  success := staticcall(sub(gas(), 2000), 6, mIn, 128, pR, 64) */\n      swap2\n      pop\n        /* \"src/WithdrawVerifier.sol\":24445:24452  success */\n      dup2\n        /* \"src/WithdrawVerifier.sol\":24435:24542  if iszero(success) {... */\n      tag_70\n      jumpi\n        /* \"src/WithdrawVerifier.sol\":24486:24487  0 */\n      0x00\n        /* \"src/WithdrawVerifier.sol\":24483:24484  0 */\n      dup1\n        /* \"src/WithdrawVerifier.sol\":24476:24488  mstore(0, 0) */\n      mstore\n        /* \"src/WithdrawVerifier.sol\":24519:24523  0x20 */\n      0x20\n        /* \"src/WithdrawVerifier.sol\":24516:24517  0 */\n      0x00\n        /* \"src/WithdrawVerifier.sol\":24509:24524  return(0, 0x20) */\n      return\n        /* \"src/WithdrawVerifier.sol\":24435:24542  if iszero(success) {... */\n    tag_70:\n        /* \"src/WithdrawVerifier.sol\":23851:24556  {... */\n      pop\n      pop\n        /* \"src/WithdrawVerifier.sol\":23818:24556  function g1_mulAccC(pR, x, y, s) {... */\n      pop\n      pop\n      pop\n      pop\n      jump\t// out\n        /* \"src/WithdrawVerifier.sol\":24570:24998  function g1_mulSetC(pR, x, y, s) {... */\n    tag_25:\n        /* \"src/WithdrawVerifier.sol\":24621:24632  let success */\n      0x00\n        /* \"src/WithdrawVerifier.sol\":24666:24670  0x40 */\n      0x40\n        /* \"src/WithdrawVerifier.sol\":24660:24671  mload(0x40) */\n      mload\n        /* \"src/WithdrawVerifier.sol\":24700:24701  x */\n      dup4\n        /* \"src/WithdrawVerifier.sol\":24695:24698  mIn */\n      dup2\n        /* \"src/WithdrawVerifier.sol\":24688:24702  mstore(mIn, x) */\n      mstore\n        /* \"src/WithdrawVerifier.sol\":24740:24741  y */\n      dup5\n        /* \"src/WithdrawVerifier.sol\":24735:24737  32 */\n      0x20\n        /* \"src/WithdrawVerifier.sol\":24730:24733  mIn */\n      dup3\n        /* \"src/WithdrawVerifier.sol\":24726:24738  add(mIn, 32) */\n      add\n        /* \"src/WithdrawVerifier.sol\":24719:24742  mstore(add(mIn, 32), y) */\n      mstore\n        /* \"src/WithdrawVerifier.sol\":24780:24781  s */\n      dup6\n        /* \"src/WithdrawVerifier.sol\":24775:24777  64 */\n      0x40\n        /* \"src/WithdrawVerifier.sol\":24770:24773  mIn */\n      dup3\n        /* \"src/WithdrawVerifier.sol\":24766:24778  add(mIn, 64) */\n      add\n        /* \"src/WithdrawVerifier.sol\":24759:24782  mstore(add(mIn, 64), s) */\n      mstore\n        /* \"src/WithdrawVerifier.sol\":24856:24858  64 */\n      0x40\n        /* \"src/WithdrawVerifier.sol\":24852:24854  pR */\n      dup4\n        /* \"src/WithdrawVerifier.sol\":24848:24850  96 */\n      0x60\n        /* \"src/WithdrawVerifier.sol\":24843:24846  mIn */\n      dup4\n        /* \"src/WithdrawVerifier.sol\":24840:24841  7 */\n      0x07\n        /* \"src/WithdrawVerifier.sol\":24833:24837  2000 */\n      0x07d0\n        /* \"src/WithdrawVerifier.sol\":24826:24831  gas() */\n      gas\n        /* \"src/WithdrawVerifier.sol\":24822:24838  sub(gas(), 2000) */\n      sub\n        /* \"src/WithdrawVerifier.sol\":24811:24859  staticcall(sub(gas(), 2000), 7, mIn, 96, pR, 64) */\n      staticcall\n        /* \"src/WithdrawVerifier.sol\":24800:24859  success := staticcall(sub(gas(), 2000), 7, mIn, 96, pR, 64) */\n      swap2\n      pop\n        /* \"src/WithdrawVerifier.sol\":24887:24894  success */\n      dup2\n        /* \"src/WithdrawVerifier.sol\":24877:24984  if iszero(success) {... */\n      tag_72\n      jumpi\n        /* \"src/WithdrawVerifier.sol\":24928:24929  0 */\n      0x00\n        /* \"src/WithdrawVerifier.sol\":24925:24926  0 */\n      dup1\n        /* \"src/WithdrawVerifier.sol\":24918:24930  mstore(0, 0) */\n      mstore\n        /* \"src/WithdrawVerifier.sol\":24961:24965  0x20 */\n      0x20\n        /* \"src/WithdrawVerifier.sol\":24958:24959  0 */\n      0x00\n        /* \"src/WithdrawVerifier.sol\":24951:24966  return(0, 0x20) */\n      return\n        /* \"src/WithdrawVerifier.sol\":24877:24984  if iszero(success) {... */\n    tag_72:\n        /* \"src/WithdrawVerifier.sol\":24603:24998  {... */\n      pop\n      pop\n        /* \"src/WithdrawVerifier.sol\":24570:24998  function g1_mulSetC(pR, x, y, s) {... */\n      pop\n      pop\n      pop\n      pop\n      jump\t// out\n        /* \"src/WithdrawVerifier.sol\":25012:25122  function g1_mulSet(pR, pP, s) {... */\n    tag_26:\n        /* \"src/WithdrawVerifier.sol\":25060:25108  g1_mulSetC(pR, mload(pP), mload(add(pP, 32)), s) */\n      tag_74\n        /* \"src/WithdrawVerifier.sol\":25106:25107  s */\n      dup4\n        /* \"src/WithdrawVerifier.sol\":25100:25102  32 */\n      0x20\n        /* \"src/WithdrawVerifier.sol\":25096:25098  pP */\n      dup5\n        /* \"src/WithdrawVerifier.sol\":25092:25103  add(pP, 32) */\n      add\n        /* \"src/WithdrawVerifier.sol\":25086:25104  mload(add(pP, 32)) */\n      mload\n        /* \"src/WithdrawVerifier.sol\":25081:25083  pP */\n      dup5\n        /* \"src/WithdrawVerifier.sol\":25075:25084  mload(pP) */\n      mload\n        /* \"src/WithdrawVerifier.sol\":25071:25073  pR */\n      dup5\n        /* \"src/WithdrawVerifier.sol\":25060:25108  g1_mulSetC(pR, mload(pP), mload(add(pP, 32)), s) */\n      tag_25\n      jump\t// in\n    tag_74:\n        /* \"src/WithdrawVerifier.sol\":25012:25122  function g1_mulSet(pR, pP, s) {... */\n      pop\n      pop\n      pop\n      jump\t// out\n        /* \"src/WithdrawVerifier.sol\":25136:29625  function calculateD(pMem) {... */\n    tag_27:\n        /* \"src/WithdrawVerifier.sol\":25201:25203  pD */\n      0x01c0\n        /* \"src/WithdrawVerifier.sol\":25195:25199  pMem */\n      dup2\n        /* \"src/WithdrawVerifier.sol\":25191:25204  add(pMem, pD) */\n      add\n        /* \"src/WithdrawVerifier.sol\":25250:25256  pGamma */\n      0x40\n        /* \"src/WithdrawVerifier.sol\":25244:25248  pMem */\n      dup3\n        /* \"src/WithdrawVerifier.sol\":25240:25257  add(pMem, pGamma) */\n      add\n        /* \"src/WithdrawVerifier.sol\":25234:25258  mload(add(pMem, pGamma)) */\n      mload\n        /* \"src/WithdrawVerifier.sol\":25292:25296  0x40 */\n      0x40\n        /* \"src/WithdrawVerifier.sol\":25286:25297  mload(0x40) */\n      mload\n        /* \"src/WithdrawVerifier.sol\":25336:25339  256 */\n      0x0100\n        /* \"src/WithdrawVerifier.sol\":25331:25334  mIn */\n      dup2\n        /* \"src/WithdrawVerifier.sol\":25327:25340  add(mIn, 256) */\n      add\n        /* \"src/WithdrawVerifier.sol\":25321:25325  0x40 */\n      0x40\n        /* \"src/WithdrawVerifier.sol\":25314:25341  mstore(0x40, add(mIn, 256)) */\n      mstore\n        /* \"src/WithdrawVerifier.sol\":25391:25413  g1_setC(_pD, Qcx, Qcy) */\n      tag_76\n        /* \"src/WithdrawVerifier.sol\":25409:25412  Qcy */\n      0x0c33e564e4dc5a01b0e8877b1a81e47a7056537f697d404be791ad79d94f4949\n        /* \"src/WithdrawVerifier.sol\":25404:25407  Qcx */\n      0x0cc3dff60358b99779a35abab1825c38faa91024e30215269e84f91abb376f9b\n        /* \"src/WithdrawVerifier.sol\":25399:25402  _pD */\n      dup6\n        /* \"src/WithdrawVerifier.sol\":25391:25413  g1_setC(_pD, Qcx, Qcy) */\n      tag_20\n      jump\t// in\n    tag_76:\n        /* \"src/WithdrawVerifier.sol\":25430:25610  g1_mulAccC(... */\n      tag_77\n        /* \"src/WithdrawVerifier.sol\":25590:25591  q */\n      0x30644e72e131a029b85045b68181585d2833e84879b9709143e1f593f0000001\n        /* \"src/WithdrawVerifier.sol\":25580:25587  pEval_b */\n      0x0264\n        /* \"src/WithdrawVerifier.sol\":25567:25588  calldataload(pEval_b) */\n      calldataload\n        /* \"src/WithdrawVerifier.sol\":25557:25564  pEval_a */\n      0x0244\n        /* \"src/WithdrawVerifier.sol\":25544:25565  calldataload(pEval_a) */\n      calldataload\n        /* \"src/WithdrawVerifier.sol\":25537:25592  mulmod(calldataload(pEval_a), calldataload(pEval_b), q) */\n      mulmod\n        /* \"src/WithdrawVerifier.sol\":25512:25515  Qmy */\n      0x16b4580220d86fe615052b231061e22eb3a69929aa6e9462ddf283ed1824dc4b\n        /* \"src/WithdrawVerifier.sol\":25487:25490  Qmx */\n      0x12cabed0860fd0c7523116717e099ff5873bfd63b6a1c93cd14d541f736cc5a4\n        /* \"src/WithdrawVerifier.sol\":25462:25465  _pD */\n      dup7\n        /* \"src/WithdrawVerifier.sol\":25430:25610  g1_mulAccC(... */\n      tag_24\n      jump\t// in\n    tag_77:\n        /* \"src/WithdrawVerifier.sol\":25627:25675  g1_mulAccC(_pD, Qlx, Qly, calldataload(pEval_a)) */\n      tag_78\n        /* \"src/WithdrawVerifier.sol\":25666:25673  pEval_a */\n      0x0244\n        /* \"src/WithdrawVerifier.sol\":25653:25674  calldataload(pEval_a) */\n      calldataload\n        /* \"src/WithdrawVerifier.sol\":25648:25651  Qly */\n      0x2f162404095b604bfb90edac58822aecb21a59a572cdcf57be80cc3b6b409bd8\n        /* \"src/WithdrawVerifier.sol\":25643:25646  Qlx */\n      0x1e22a60ab8d544baef5ed2abe5523ed54dc310dbd69e30ce775e062988073a91\n        /* \"src/WithdrawVerifier.sol\":25638:25641  _pD */\n      dup7\n        /* \"src/WithdrawVerifier.sol\":25627:25675  g1_mulAccC(_pD, Qlx, Qly, calldataload(pEval_a)) */\n      tag_24\n      jump\t// in\n    tag_78:\n        /* \"src/WithdrawVerifier.sol\":25692:25740  g1_mulAccC(_pD, Qrx, Qry, calldataload(pEval_b)) */\n      tag_79\n        /* \"src/WithdrawVerifier.sol\":25731:25738  pEval_b */\n      0x0264\n        /* \"src/WithdrawVerifier.sol\":25718:25739  calldataload(pEval_b) */\n      calldataload\n        /* \"src/WithdrawVerifier.sol\":25713:25716  Qry */\n      0x13b02773912fc303ec930ba19fb7a120240b80dd140372cf33f33e3a9a3fd294\n        /* \"src/WithdrawVerifier.sol\":25708:25711  Qrx */\n      0x0a5f796462d2f0c42a1020b4b3e6ec9f1609482abd07c141d4d40eebc605df8e\n        /* \"src/WithdrawVerifier.sol\":25703:25706  _pD */\n      dup7\n        /* \"src/WithdrawVerifier.sol\":25692:25740  g1_mulAccC(_pD, Qrx, Qry, calldataload(pEval_b)) */\n      tag_24\n      jump\t// in\n    tag_79:\n        /* \"src/WithdrawVerifier.sol\":25757:25805  g1_mulAccC(_pD, Qox, Qoy, calldataload(pEval_c)) */\n      tag_80\n        /* \"src/WithdrawVerifier.sol\":25796:25803  pEval_c */\n      0x0284\n        /* \"src/WithdrawVerifier.sol\":25783:25804  calldataload(pEval_c) */\n      calldataload\n        /* \"src/WithdrawVerifier.sol\":25778:25781  Qoy */\n      0x147349901ab69878711fd82e018690edab81d40103b3934cca71c6c5b7b309fa\n        /* \"src/WithdrawVerifier.sol\":25773:25776  Qox */\n      0x08c40db668f4e04d2538c8928eb7d9301cecb22c92f16d54ee3e1646b6a06e3c\n        /* \"src/WithdrawVerifier.sol\":25768:25771  _pD */\n      dup7\n        /* \"src/WithdrawVerifier.sol\":25757:25805  g1_mulAccC(_pD, Qox, Qoy, calldataload(pEval_c)) */\n      tag_24\n      jump\t// in\n    tag_80:\n        /* \"src/WithdrawVerifier.sol\":25853:25860  pBetaXi */\n      0xa0\n        /* \"src/WithdrawVerifier.sol\":25847:25851  pMem */\n      dup5\n        /* \"src/WithdrawVerifier.sol\":25843:25861  add(pMem, pBetaXi) */\n      add\n        /* \"src/WithdrawVerifier.sol\":25837:25862  mload(add(pMem, pBetaXi)) */\n      mload\n        /* \"src/WithdrawVerifier.sol\":26008:26009  q */\n      0x30644e72e131a029b85045b68181585d2833e84879b9709143e1f593f0000001\n        /* \"src/WithdrawVerifier.sol\":25981:25986  gamma */\n      dup4\n        /* \"src/WithdrawVerifier.sol\":25957:25958  q */\n      0x30644e72e131a029b85045b68181585d2833e84879b9709143e1f593f0000001\n        /* \"src/WithdrawVerifier.sol\":25949:25955  betaxi */\n      dup4\n        /* \"src/WithdrawVerifier.sol\":25939:25946  pEval_a */\n      0x0244\n        /* \"src/WithdrawVerifier.sol\":25926:25947  calldataload(pEval_a) */\n      calldataload\n        /* \"src/WithdrawVerifier.sol\":25919:25959  addmod(calldataload(pEval_a), betaxi, q) */\n      addmod\n        /* \"src/WithdrawVerifier.sol\":25891:26027  addmod(... */\n      addmod\n        /* \"src/WithdrawVerifier.sol\":26189:26190  q */\n      0x30644e72e131a029b85045b68181585d2833e84879b9709143e1f593f0000001\n        /* \"src/WithdrawVerifier.sol\":26162:26167  gamma */\n      dup5\n        /* \"src/WithdrawVerifier.sol\":26138:26139  q */\n      0x30644e72e131a029b85045b68181585d2833e84879b9709143e1f593f0000001\n        /* \"src/WithdrawVerifier.sol\":26134:26135  q */\n      dup1\n        /* \"src/WithdrawVerifier.sol\":26130:26132  k1 */\n      0x02\n        /* \"src/WithdrawVerifier.sol\":26122:26128  betaxi */\n      dup7\n        /* \"src/WithdrawVerifier.sol\":26115:26136  mulmod(betaxi, k1, q) */\n      mulmod\n        /* \"src/WithdrawVerifier.sol\":26105:26112  pEval_b */\n      0x0264\n        /* \"src/WithdrawVerifier.sol\":26092:26113  calldataload(pEval_b) */\n      calldataload\n        /* \"src/WithdrawVerifier.sol\":26085:26140  addmod(calldataload(pEval_b), mulmod(betaxi, k1, q), q) */\n      addmod\n        /* \"src/WithdrawVerifier.sol\":26057:26208  addmod(... */\n      addmod\n        /* \"src/WithdrawVerifier.sol\":26370:26371  q */\n      0x30644e72e131a029b85045b68181585d2833e84879b9709143e1f593f0000001\n        /* \"src/WithdrawVerifier.sol\":26343:26348  gamma */\n      dup6\n        /* \"src/WithdrawVerifier.sol\":26319:26320  q */\n      0x30644e72e131a029b85045b68181585d2833e84879b9709143e1f593f0000001\n        /* \"src/WithdrawVerifier.sol\":26315:26316  q */\n      dup1\n        /* \"src/WithdrawVerifier.sol\":26311:26313  k2 */\n      0x03\n        /* \"src/WithdrawVerifier.sol\":26303:26309  betaxi */\n      dup8\n        /* \"src/WithdrawVerifier.sol\":26296:26317  mulmod(betaxi, k2, q) */\n      mulmod\n        /* \"src/WithdrawVerifier.sol\":26286:26293  pEval_c */\n      0x0284\n        /* \"src/WithdrawVerifier.sol\":26273:26294  calldataload(pEval_c) */\n      calldataload\n        /* \"src/WithdrawVerifier.sol\":26266:26321  addmod(calldataload(pEval_c), mulmod(betaxi, k2, q), q) */\n      addmod\n        /* \"src/WithdrawVerifier.sol\":26238:26389  addmod(... */\n      addmod\n        /* \"src/WithdrawVerifier.sol\":26552:26553  q */\n      0x30644e72e131a029b85045b68181585d2833e84879b9709143e1f593f0000001\n        /* \"src/WithdrawVerifier.sol\":26522:26528  pAlpha */\n      0x00\n        /* \"src/WithdrawVerifier.sol\":26516:26520  pMem */\n      dup10\n        /* \"src/WithdrawVerifier.sol\":26512:26529  add(pMem, pAlpha) */\n      add\n        /* \"src/WithdrawVerifier.sol\":26506:26530  mload(add(pMem, pAlpha)) */\n      mload\n        /* \"src/WithdrawVerifier.sol\":26482:26483  q */\n      0x30644e72e131a029b85045b68181585d2833e84879b9709143e1f593f0000001\n        /* \"src/WithdrawVerifier.sol\":26476:26480  val3 */\n      dup4\n        /* \"src/WithdrawVerifier.sol\":26472:26473  q */\n      0x30644e72e131a029b85045b68181585d2833e84879b9709143e1f593f0000001\n        /* \"src/WithdrawVerifier.sol\":26466:26470  val2 */\n      dup7\n        /* \"src/WithdrawVerifier.sol\":26460:26464  val1 */\n      dup9\n        /* \"src/WithdrawVerifier.sol\":26453:26474  mulmod(val1, val2, q) */\n      mulmod\n        /* \"src/WithdrawVerifier.sol\":26446:26484  mulmod(mulmod(val1, val2, q), val3, q) */\n      mulmod\n        /* \"src/WithdrawVerifier.sol\":26418:26571  mulmod(... */\n      mulmod\n        /* \"src/WithdrawVerifier.sol\":26723:26724  q */\n      0x30644e72e131a029b85045b68181585d2833e84879b9709143e1f593f0000001\n        /* \"src/WithdrawVerifier.sol\":26692:26699  pAlpha2 */\n      0x02c0\n        /* \"src/WithdrawVerifier.sol\":26686:26690  pMem */\n      dup11\n        /* \"src/WithdrawVerifier.sol\":26682:26700  add(pMem, pAlpha2) */\n      add\n        /* \"src/WithdrawVerifier.sol\":26676:26701  mload(add(pMem, pAlpha2)) */\n      mload\n        /* \"src/WithdrawVerifier.sol\":26644:26652  pEval_l1 */\n      0x0320\n        /* \"src/WithdrawVerifier.sol\":26638:26642  pMem */\n      dup12\n        /* \"src/WithdrawVerifier.sol\":26634:26653  add(pMem, pEval_l1) */\n      add\n        /* \"src/WithdrawVerifier.sol\":26628:26654  mload(add(pMem, pEval_l1)) */\n      mload\n        /* \"src/WithdrawVerifier.sol\":26600:26742  mulmod(... */\n      mulmod\n        /* \"src/WithdrawVerifier.sol\":26804:26837  g1_calldataSet(add(mIn, 192), pZ) */\n      tag_81\n        /* \"src/WithdrawVerifier.sol\":26834:26836  pZ */\n      0xc4\n        /* \"src/WithdrawVerifier.sol\":26828:26831  192 */\n      0xc0\n        /* \"src/WithdrawVerifier.sol\":26823:26826  mIn */\n      dup10\n        /* \"src/WithdrawVerifier.sol\":26819:26832  add(mIn, 192) */\n      add\n        /* \"src/WithdrawVerifier.sol\":26804:26837  g1_calldataSet(add(mIn, 192), pZ) */\n      tag_21\n      jump\t// in\n    tag_81:\n        /* \"src/WithdrawVerifier.sol\":26854:27015  g1_mulSet(... */\n      tag_82\n        /* \"src/WithdrawVerifier.sol\":26995:26996  q */\n      0x30644e72e131a029b85045b68181585d2833e84879b9709143e1f593f0000001\n        /* \"src/WithdrawVerifier.sol\":26989:26991  pU */\n      0x0160\n        /* \"src/WithdrawVerifier.sol\":26983:26987  pMem */\n      dup13\n        /* \"src/WithdrawVerifier.sol\":26979:26992  add(pMem, pU) */\n      add\n        /* \"src/WithdrawVerifier.sol\":26973:26993  mload(add(pMem, pU)) */\n      mload\n        /* \"src/WithdrawVerifier.sol\":26969:26970  q */\n      0x30644e72e131a029b85045b68181585d2833e84879b9709143e1f593f0000001\n        /* \"src/WithdrawVerifier.sol\":26964:26967  d2b */\n      dup5\n        /* \"src/WithdrawVerifier.sol\":26959:26962  d2a */\n      dup7\n        /* \"src/WithdrawVerifier.sol\":26952:26971  addmod(d2a, d2b, q) */\n      addmod\n        /* \"src/WithdrawVerifier.sol\":26945:26997  addmod(addmod(d2a, d2b, q), mload(add(pMem, pU)), q) */\n      addmod\n        /* \"src/WithdrawVerifier.sol\":26919:26922  192 */\n      0xc0\n        /* \"src/WithdrawVerifier.sol\":26914:26917  mIn */\n      dup10\n        /* \"src/WithdrawVerifier.sol\":26910:26923  add(mIn, 192) */\n      add\n        /* \"src/WithdrawVerifier.sol\":26885:26888  mIn */\n      dup10\n        /* \"src/WithdrawVerifier.sol\":26854:27015  g1_mulSet(... */\n      tag_26\n      jump\t// in\n    tag_82:\n        /* \"src/WithdrawVerifier.sol\":27414:27415  q */\n      0x30644e72e131a029b85045b68181585d2833e84879b9709143e1f593f0000001\n        /* \"src/WithdrawVerifier.sol\":27387:27392  gamma */\n      dup9\n        /* \"src/WithdrawVerifier.sol\":27342:27343  q */\n      0x30644e72e131a029b85045b68181585d2833e84879b9709143e1f593f0000001\n        /* \"src/WithdrawVerifier.sol\":27289:27290  q */\n      dup1\n        /* \"src/WithdrawVerifier.sol\":27250:27258  pEval_s1 */\n      0x02a4\n        /* \"src/WithdrawVerifier.sol\":27237:27259  calldataload(pEval_s1) */\n      calldataload\n        /* \"src/WithdrawVerifier.sol\":27200:27205  pBeta */\n      0x20\n        /* \"src/WithdrawVerifier.sol\":27194:27198  pMem */\n      dup16\n        /* \"src/WithdrawVerifier.sol\":27190:27206  add(pMem, pBeta) */\n      add\n        /* \"src/WithdrawVerifier.sol\":27184:27207  mload(add(pMem, pBeta)) */\n      mload\n        /* \"src/WithdrawVerifier.sol\":27148:27316  mulmod(... */\n      mulmod\n        /* \"src/WithdrawVerifier.sol\":27114:27121  pEval_a */\n      0x0244\n        /* \"src/WithdrawVerifier.sol\":27101:27122  calldataload(pEval_a) */\n      calldataload\n        /* \"src/WithdrawVerifier.sol\":27069:27365  addmod(... */\n      addmod\n        /* \"src/WithdrawVerifier.sol\":27041:27433  addmod(... */\n      addmod\n        /* \"src/WithdrawVerifier.sol\":27033:27433  val1 := addmod(... */\n      swap5\n      pop\n        /* \"src/WithdrawVerifier.sol\":27832:27833  q */\n      0x30644e72e131a029b85045b68181585d2833e84879b9709143e1f593f0000001\n        /* \"src/WithdrawVerifier.sol\":27805:27810  gamma */\n      dup9\n        /* \"src/WithdrawVerifier.sol\":27760:27761  q */\n      0x30644e72e131a029b85045b68181585d2833e84879b9709143e1f593f0000001\n        /* \"src/WithdrawVerifier.sol\":27707:27708  q */\n      dup1\n        /* \"src/WithdrawVerifier.sol\":27668:27676  pEval_s2 */\n      0x02c4\n        /* \"src/WithdrawVerifier.sol\":27655:27677  calldataload(pEval_s2) */\n      calldataload\n        /* \"src/WithdrawVerifier.sol\":27618:27623  pBeta */\n      0x20\n        /* \"src/WithdrawVerifier.sol\":27612:27616  pMem */\n      dup16\n        /* \"src/WithdrawVerifier.sol\":27608:27624  add(pMem, pBeta) */\n      add\n        /* \"src/WithdrawVerifier.sol\":27602:27625  mload(add(pMem, pBeta)) */\n      mload\n        /* \"src/WithdrawVerifier.sol\":27566:27734  mulmod(... */\n      mulmod\n        /* \"src/WithdrawVerifier.sol\":27532:27539  pEval_b */\n      0x0264\n        /* \"src/WithdrawVerifier.sol\":27519:27540  calldataload(pEval_b) */\n      calldataload\n        /* \"src/WithdrawVerifier.sol\":27487:27783  addmod(... */\n      addmod\n        /* \"src/WithdrawVerifier.sol\":27459:27851  addmod(... */\n      addmod\n        /* \"src/WithdrawVerifier.sol\":27451:27851  val2 := addmod(... */\n      swap4\n      pop\n        /* \"src/WithdrawVerifier.sol\":28125:28126  q */\n      0x30644e72e131a029b85045b68181585d2833e84879b9709143e1f593f0000001\n        /* \"src/WithdrawVerifier.sol\":28094:28102  pEval_zw */\n      0x02e4\n        /* \"src/WithdrawVerifier.sol\":28081:28103  calldataload(pEval_zw) */\n      calldataload\n        /* \"src/WithdrawVerifier.sol\":28036:28037  q */\n      0x30644e72e131a029b85045b68181585d2833e84879b9709143e1f593f0000001\n        /* \"src/WithdrawVerifier.sol\":28003:28008  pBeta */\n      0x20\n        /* \"src/WithdrawVerifier.sol\":27997:28001  pMem */\n      dup14\n        /* \"src/WithdrawVerifier.sol\":27993:28009  add(pMem, pBeta) */\n      add\n        /* \"src/WithdrawVerifier.sol\":27987:28010  mload(add(pMem, pBeta)) */\n      mload\n        /* \"src/WithdrawVerifier.sol\":27953:27959  pAlpha */\n      0x00\n        /* \"src/WithdrawVerifier.sol\":27947:27951  pMem */\n      dup15\n        /* \"src/WithdrawVerifier.sol\":27943:27960  add(pMem, pAlpha) */\n      add\n        /* \"src/WithdrawVerifier.sol\":27937:27961  mload(add(pMem, pAlpha)) */\n      mload\n        /* \"src/WithdrawVerifier.sol\":27905:28059  mulmod(... */\n      mulmod\n        /* \"src/WithdrawVerifier.sol\":27877:28144  mulmod(... */\n      mulmod\n        /* \"src/WithdrawVerifier.sol\":27869:28144  val3 := mulmod(... */\n      swap3\n      pop\n        /* \"src/WithdrawVerifier.sol\":28211:28383  g1_mulSetC(... */\n      tag_83\n        /* \"src/WithdrawVerifier.sol\":28363:28364  q */\n      0x30644e72e131a029b85045b68181585d2833e84879b9709143e1f593f0000001\n        /* \"src/WithdrawVerifier.sol\":28357:28361  val3 */\n      dup5\n        /* \"src/WithdrawVerifier.sol\":28353:28354  q */\n      0x30644e72e131a029b85045b68181585d2833e84879b9709143e1f593f0000001\n        /* \"src/WithdrawVerifier.sol\":28347:28351  val2 */\n      dup8\n        /* \"src/WithdrawVerifier.sol\":28341:28345  val1 */\n      dup10\n        /* \"src/WithdrawVerifier.sol\":28334:28355  mulmod(val1, val2, q) */\n      mulmod\n        /* \"src/WithdrawVerifier.sol\":28327:28365  mulmod(mulmod(val1, val2, q), val3, q) */\n      mulmod\n        /* \"src/WithdrawVerifier.sol\":28302:28305  S3y */\n      0x0ba1017e695ce55339a862dff8d3a67ced9b177e9a23aaf5eaa444620b0fdde3\n        /* \"src/WithdrawVerifier.sol\":28277:28280  S3x */\n      0x0e4f9795b9116336bf3a3320dea3a0245a2f701ea2ed336636cb02e6faa44cc8\n        /* \"src/WithdrawVerifier.sol\":28252:28254  64 */\n      0x40\n        /* \"src/WithdrawVerifier.sol\":28247:28250  mIn */\n      dup12\n        /* \"src/WithdrawVerifier.sol\":28243:28255  add(mIn, 64) */\n      add\n        /* \"src/WithdrawVerifier.sol\":28211:28383  g1_mulSetC(... */\n      tag_25\n      jump\t// in\n    tag_83:\n        /* \"src/WithdrawVerifier.sol\":28451:28485  g1_calldataSet(add(mIn, 128), pT1) */\n      tag_84\n        /* \"src/WithdrawVerifier.sol\":28481:28484  pT1 */\n      0x0104\n        /* \"src/WithdrawVerifier.sol\":28475:28478  128 */\n      0x80\n        /* \"src/WithdrawVerifier.sol\":28470:28473  mIn */\n      dup10\n        /* \"src/WithdrawVerifier.sol\":28466:28479  add(mIn, 128) */\n      add\n        /* \"src/WithdrawVerifier.sol\":28451:28485  g1_calldataSet(add(mIn, 128), pT1) */\n      tag_21\n      jump\t// in\n    tag_84:\n        /* \"src/WithdrawVerifier.sol\":28503:28697  g1_mulAccC(... */\n      tag_85\n        /* \"src/WithdrawVerifier.sol\":28673:28677  pXin */\n      0x80\n        /* \"src/WithdrawVerifier.sol\":28667:28671  pMem */\n      dup12\n        /* \"src/WithdrawVerifier.sol\":28663:28678  add(pMem, pXin) */\n      add\n        /* \"src/WithdrawVerifier.sol\":28657:28679  mload(add(pMem, pXin)) */\n      mload\n        /* \"src/WithdrawVerifier.sol\":28631:28633  32 */\n      0x20\n        /* \"src/WithdrawVerifier.sol\":28626:28629  pT2 */\n      0x0144\n        /* \"src/WithdrawVerifier.sol\":28622:28634  add(pT2, 32) */\n      add\n        /* \"src/WithdrawVerifier.sol\":28609:28635  calldataload(add(pT2, 32)) */\n      calldataload\n        /* \"src/WithdrawVerifier.sol\":28583:28586  pT2 */\n      0x0144\n        /* \"src/WithdrawVerifier.sol\":28570:28587  calldataload(pT2) */\n      calldataload\n        /* \"src/WithdrawVerifier.sol\":28544:28547  128 */\n      0x80\n        /* \"src/WithdrawVerifier.sol\":28539:28542  mIn */\n      dup12\n        /* \"src/WithdrawVerifier.sol\":28535:28548  add(mIn, 128) */\n      add\n        /* \"src/WithdrawVerifier.sol\":28503:28697  g1_mulAccC(... */\n      tag_24\n      jump\t// in\n    tag_85:\n        /* \"src/WithdrawVerifier.sol\":28842:28843  q */\n      0x30644e72e131a029b85045b68181585d2833e84879b9709143e1f593f0000001\n        /* \"src/WithdrawVerifier.sol\":28814:28818  pXin */\n      0x80\n        /* \"src/WithdrawVerifier.sol\":28808:28812  pMem */\n      dup12\n        /* \"src/WithdrawVerifier.sol\":28804:28819  add(pMem, pXin) */\n      add\n        /* \"src/WithdrawVerifier.sol\":28798:28820  mload(add(pMem, pXin)) */\n      mload\n        /* \"src/WithdrawVerifier.sol\":28770:28774  pXin */\n      0x80\n        /* \"src/WithdrawVerifier.sol\":28764:28768  pMem */\n      dup13\n        /* \"src/WithdrawVerifier.sol\":28760:28775  add(pMem, pXin) */\n      add\n        /* \"src/WithdrawVerifier.sol\":28754:28776  mload(add(pMem, pXin)) */\n      mload\n        /* \"src/WithdrawVerifier.sol\":28726:28861  mulmod(... */\n      mulmod\n        /* \"src/WithdrawVerifier.sol\":28878:29054  g1_mulAccC(... */\n      tag_86\n        /* \"src/WithdrawVerifier.sol\":29032:29036  xin2 */\n      dup2\n        /* \"src/WithdrawVerifier.sol\":29006:29008  32 */\n      0x20\n        /* \"src/WithdrawVerifier.sol\":29001:29004  pT3 */\n      0x0184\n        /* \"src/WithdrawVerifier.sol\":28997:29009  add(pT3, 32) */\n      add\n        /* \"src/WithdrawVerifier.sol\":28984:29010  calldataload(add(pT3, 32)) */\n      calldataload\n        /* \"src/WithdrawVerifier.sol\":28958:28961  pT3 */\n      0x0184\n        /* \"src/WithdrawVerifier.sol\":28945:28962  calldataload(pT3) */\n      calldataload\n        /* \"src/WithdrawVerifier.sol\":28919:28922  128 */\n      0x80\n        /* \"src/WithdrawVerifier.sol\":28914:28917  mIn */\n      dup13\n        /* \"src/WithdrawVerifier.sol\":28910:28923  add(mIn, 128) */\n      add\n        /* \"src/WithdrawVerifier.sol\":28878:29054  g1_mulAccC(... */\n      tag_24\n      jump\t// in\n    tag_86:\n        /* \"src/WithdrawVerifier.sol\":29072:29262  g1_mulSetC(... */\n      tag_87\n        /* \"src/WithdrawVerifier.sol\":29239:29242  pZh */\n      0x02e0\n        /* \"src/WithdrawVerifier.sol\":29233:29237  pMem */\n      dup13\n        /* \"src/WithdrawVerifier.sol\":29229:29243  add(pMem, pZh) */\n      add\n        /* \"src/WithdrawVerifier.sol\":29223:29244  mload(add(pMem, pZh)) */\n      mload\n        /* \"src/WithdrawVerifier.sol\":29196:29199  160 */\n      0xa0\n        /* \"src/WithdrawVerifier.sol\":29191:29194  mIn */\n      dup11\n        /* \"src/WithdrawVerifier.sol\":29187:29200  add(mIn, 160) */\n      add\n        /* \"src/WithdrawVerifier.sol\":29181:29201  mload(add(mIn, 160)) */\n      mload\n        /* \"src/WithdrawVerifier.sol\":29154:29157  128 */\n      0x80\n        /* \"src/WithdrawVerifier.sol\":29149:29152  mIn */\n      dup12\n        /* \"src/WithdrawVerifier.sol\":29145:29158  add(mIn, 128) */\n      add\n        /* \"src/WithdrawVerifier.sol\":29139:29159  mload(add(mIn, 128)) */\n      mload\n        /* \"src/WithdrawVerifier.sol\":29113:29116  128 */\n      0x80\n        /* \"src/WithdrawVerifier.sol\":29108:29111  mIn */\n      dup13\n        /* \"src/WithdrawVerifier.sol\":29104:29117  add(mIn, 128) */\n      add\n        /* \"src/WithdrawVerifier.sol\":29072:29262  g1_mulSetC(... */\n      tag_25\n      jump\t// in\n    tag_87:\n        /* \"src/WithdrawVerifier.sol\":29394:29396  qf */\n      0x30644e72e131a029b85045b68181585d97816a916871ca8d3c208c16d87cfd47\n        /* \"src/WithdrawVerifier.sol\":29387:29389  32 */\n      0x20\n        /* \"src/WithdrawVerifier.sol\":29382:29384  64 */\n      0x40\n        /* \"src/WithdrawVerifier.sol\":29377:29380  mIn */\n      dup11\n        /* \"src/WithdrawVerifier.sol\":29373:29385  add(mIn, 64) */\n      add\n        /* \"src/WithdrawVerifier.sol\":29369:29390  add(add(mIn, 64), 32) */\n      add\n        /* \"src/WithdrawVerifier.sol\":29363:29391  mload(add(add(mIn, 64), 32)) */\n      mload\n        /* \"src/WithdrawVerifier.sol\":29359:29361  qf */\n      0x30644e72e131a029b85045b68181585d97816a916871ca8d3c208c16d87cfd47\n        /* \"src/WithdrawVerifier.sol\":29355:29392  sub(qf, mload(add(add(mIn, 64), 32))) */\n      sub\n        /* \"src/WithdrawVerifier.sol\":29351:29397  mod(sub(qf, mload(add(add(mIn, 64), 32))), qf) */\n      mod\n        /* \"src/WithdrawVerifier.sol\":29326:29328  32 */\n      0x20\n        /* \"src/WithdrawVerifier.sol\":29321:29323  64 */\n      0x40\n        /* \"src/WithdrawVerifier.sol\":29316:29319  mIn */\n      dup11\n        /* \"src/WithdrawVerifier.sol\":29312:29324  add(mIn, 64) */\n      add\n        /* \"src/WithdrawVerifier.sol\":29308:29329  add(add(mIn, 64), 32) */\n      add\n        /* \"src/WithdrawVerifier.sol\":29280:29415  mstore(... */\n      mstore\n        /* \"src/WithdrawVerifier.sol\":29489:29491  qf */\n      0x30644e72e131a029b85045b68181585d97816a916871ca8d3c208c16d87cfd47\n        /* \"src/WithdrawVerifier.sol\":29481:29484  160 */\n      0xa0\n        /* \"src/WithdrawVerifier.sol\":29476:29479  mIn */\n      dup10\n        /* \"src/WithdrawVerifier.sol\":29472:29485  add(mIn, 160) */\n      add\n        /* \"src/WithdrawVerifier.sol\":29466:29486  mload(add(mIn, 160)) */\n      mload\n        /* \"src/WithdrawVerifier.sol\":29462:29464  qf */\n      0x30644e72e131a029b85045b68181585d97816a916871ca8d3c208c16d87cfd47\n        /* \"src/WithdrawVerifier.sol\":29458:29487  sub(qf, mload(add(mIn, 160))) */\n      sub\n        /* \"src/WithdrawVerifier.sol\":29454:29492  mod(sub(qf, mload(add(mIn, 160))), qf) */\n      mod\n        /* \"src/WithdrawVerifier.sol\":29448:29451  160 */\n      0xa0\n        /* \"src/WithdrawVerifier.sol\":29443:29446  mIn */\n      dup10\n        /* \"src/WithdrawVerifier.sol\":29439:29452  add(mIn, 160) */\n      add\n        /* \"src/WithdrawVerifier.sol\":29432:29493  mstore(add(mIn, 160), mod(sub(qf, mload(add(mIn, 160))), qf)) */\n      mstore\n        /* \"src/WithdrawVerifier.sol\":29510:29526  g1_acc(_pD, mIn) */\n      tag_88\n        /* \"src/WithdrawVerifier.sol\":29522:29525  mIn */\n      dup9\n        /* \"src/WithdrawVerifier.sol\":29517:29520  _pD */\n      dup12\n        /* \"src/WithdrawVerifier.sol\":29510:29526  g1_acc(_pD, mIn) */\n      tag_22\n      jump\t// in\n    tag_88:\n        /* \"src/WithdrawVerifier.sol\":29543:29568  g1_acc(_pD, add(mIn, 64)) */\n      tag_89\n        /* \"src/WithdrawVerifier.sol\":29564:29566  64 */\n      0x40\n        /* \"src/WithdrawVerifier.sol\":29559:29562  mIn */\n      dup10\n        /* \"src/WithdrawVerifier.sol\":29555:29567  add(mIn, 64) */\n      add\n        /* \"src/WithdrawVerifier.sol\":29550:29553  _pD */\n      dup12\n        /* \"src/WithdrawVerifier.sol\":29543:29568  g1_acc(_pD, add(mIn, 64)) */\n      tag_22\n      jump\t// in\n    tag_89:\n        /* \"src/WithdrawVerifier.sol\":29585:29611  g1_acc(_pD, add(mIn, 128)) */\n      tag_90\n        /* \"src/WithdrawVerifier.sol\":29606:29609  128 */\n      0x80\n        /* \"src/WithdrawVerifier.sol\":29601:29604  mIn */\n      dup10\n        /* \"src/WithdrawVerifier.sol\":29597:29610  add(mIn, 128) */\n      add\n        /* \"src/WithdrawVerifier.sol\":29592:29595  _pD */\n      dup12\n        /* \"src/WithdrawVerifier.sol\":29585:29611  g1_acc(_pD, add(mIn, 128)) */\n      tag_22\n      jump\t// in\n    tag_90:\n        /* \"src/WithdrawVerifier.sol\":25162:29625  {... */\n      pop\n      pop\n      pop\n      pop\n      pop\n      pop\n      pop\n      pop\n      pop\n      pop\n        /* \"src/WithdrawVerifier.sol\":25136:29625  function calculateD(pMem) {... */\n      pop\n      jump\t// out\n        /* \"src/WithdrawVerifier.sol\":29639:30475  function calculateF(pMem) {... */\n    tag_28:\n        /* \"src/WithdrawVerifier.sol\":29702:29704  pF */\n      0x0200\n        /* \"src/WithdrawVerifier.sol\":29696:29700  pMem */\n      dup2\n        /* \"src/WithdrawVerifier.sol\":29692:29705  add(pMem, pF) */\n      add\n        /* \"src/WithdrawVerifier.sol\":29723:29747  g1_set(p, add(pMem, pD)) */\n      tag_92\n        /* \"src/WithdrawVerifier.sol\":29743:29745  pD */\n      0x01c0\n        /* \"src/WithdrawVerifier.sol\":29737:29741  pMem */\n      dup4\n        /* \"src/WithdrawVerifier.sol\":29733:29746  add(pMem, pD) */\n      add\n        /* \"src/WithdrawVerifier.sol\":29730:29731  p */\n      dup3\n        /* \"src/WithdrawVerifier.sol\":29723:29747  g1_set(p, add(pMem, pD)) */\n      tag_19\n      jump\t// in\n    tag_92:\n        /* \"src/WithdrawVerifier.sol\":29764:29943  g1_mulAccC(... */\n      tag_93\n        /* \"src/WithdrawVerifier.sol\":29920:29923  pV1 */\n      0xc0\n        /* \"src/WithdrawVerifier.sol\":29914:29918  pMem */\n      dup4\n        /* \"src/WithdrawVerifier.sol\":29910:29924  add(pMem, pV1) */\n      add\n        /* \"src/WithdrawVerifier.sol\":29904:29925  mload(add(pMem, pV1)) */\n      mload\n        /* \"src/WithdrawVerifier.sol\":29878:29880  32 */\n      0x20\n        /* \"src/WithdrawVerifier.sol\":29874:29876  pA */\n      0x04\n        /* \"src/WithdrawVerifier.sol\":29870:29881  add(pA, 32) */\n      add\n        /* \"src/WithdrawVerifier.sol\":29857:29882  calldataload(add(pA, 32)) */\n      calldataload\n        /* \"src/WithdrawVerifier.sol\":29832:29834  pA */\n      0x04\n        /* \"src/WithdrawVerifier.sol\":29819:29835  calldataload(pA) */\n      calldataload\n        /* \"src/WithdrawVerifier.sol\":29796:29797  p */\n      dup5\n        /* \"src/WithdrawVerifier.sol\":29764:29943  g1_mulAccC(... */\n      tag_24\n      jump\t// in\n    tag_93:\n        /* \"src/WithdrawVerifier.sol\":29960:30139  g1_mulAccC(... */\n      tag_94\n        /* \"src/WithdrawVerifier.sol\":30116:30119  pV2 */\n      0xe0\n        /* \"src/WithdrawVerifier.sol\":30110:30114  pMem */\n      dup4\n        /* \"src/WithdrawVerifier.sol\":30106:30120  add(pMem, pV2) */\n      add\n        /* \"src/WithdrawVerifier.sol\":30100:30121  mload(add(pMem, pV2)) */\n      mload\n        /* \"src/WithdrawVerifier.sol\":30074:30076  32 */\n      0x20\n        /* \"src/WithdrawVerifier.sol\":30070:30072  pB */\n      0x44\n        /* \"src/WithdrawVerifier.sol\":30066:30077  add(pB, 32) */\n      add\n        /* \"src/WithdrawVerifier.sol\":30053:30078  calldataload(add(pB, 32)) */\n      calldataload\n        /* \"src/WithdrawVerifier.sol\":30028:30030  pB */\n      0x44\n        /* \"src/WithdrawVerifier.sol\":30015:30031  calldataload(pB) */\n      calldataload\n        /* \"src/WithdrawVerifier.sol\":29992:29993  p */\n      dup5\n        /* \"src/WithdrawVerifier.sol\":29960:30139  g1_mulAccC(... */\n      tag_24\n      jump\t// in\n    tag_94:\n        /* \"src/WithdrawVerifier.sol\":30156:30335  g1_mulAccC(... */\n      tag_95\n        /* \"src/WithdrawVerifier.sol\":30312:30315  pV3 */\n      0x0100\n        /* \"src/WithdrawVerifier.sol\":30306:30310  pMem */\n      dup4\n        /* \"src/WithdrawVerifier.sol\":30302:30316  add(pMem, pV3) */\n      add\n        /* \"src/WithdrawVerifier.sol\":30296:30317  mload(add(pMem, pV3)) */\n      mload\n        /* \"src/WithdrawVerifier.sol\":30270:30272  32 */\n      0x20\n        /* \"src/WithdrawVerifier.sol\":30266:30268  pC */\n      0x84\n        /* \"src/WithdrawVerifier.sol\":30262:30273  add(pC, 32) */\n      add\n        /* \"src/WithdrawVerifier.sol\":30249:30274  calldataload(add(pC, 32)) */\n      calldataload\n        /* \"src/WithdrawVerifier.sol\":30224:30226  pC */\n      0x84\n        /* \"src/WithdrawVerifier.sol\":30211:30227  calldataload(pC) */\n      calldataload\n        /* \"src/WithdrawVerifier.sol\":30188:30189  p */\n      dup5\n        /* \"src/WithdrawVerifier.sol\":30156:30335  g1_mulAccC(... */\n      tag_24\n      jump\t// in\n    tag_95:\n        /* \"src/WithdrawVerifier.sol\":30352:30398  g1_mulAccC(p, S1x, S1y, mload(add(pMem, pV4))) */\n      tag_96\n        /* \"src/WithdrawVerifier.sol\":30392:30395  pV4 */\n      0x0120\n        /* \"src/WithdrawVerifier.sol\":30386:30390  pMem */\n      dup4\n        /* \"src/WithdrawVerifier.sol\":30382:30396  add(pMem, pV4) */\n      add\n        /* \"src/WithdrawVerifier.sol\":30376:30397  mload(add(pMem, pV4)) */\n      mload\n        /* \"src/WithdrawVerifier.sol\":30371:30374  S1y */\n      0x1f45644e6dac9a6aed6e8d6716b3d37d2f0fdb2c9bc0c32b7d24c293ad0ea530\n        /* \"src/WithdrawVerifier.sol\":30366:30369  S1x */\n      0x0c3985602038d5eef94a31160a1031a6564ba2a69d709eaa1f2b5b3ee89234f1\n        /* \"src/WithdrawVerifier.sol\":30363:30364  p */\n      dup5\n        /* \"src/WithdrawVerifier.sol\":30352:30398  g1_mulAccC(p, S1x, S1y, mload(add(pMem, pV4))) */\n      tag_24\n      jump\t// in\n    tag_96:\n        /* \"src/WithdrawVerifier.sol\":30415:30461  g1_mulAccC(p, S2x, S2y, mload(add(pMem, pV5))) */\n      tag_97\n        /* \"src/WithdrawVerifier.sol\":30455:30458  pV5 */\n      0x0140\n        /* \"src/WithdrawVerifier.sol\":30449:30453  pMem */\n      dup4\n        /* \"src/WithdrawVerifier.sol\":30445:30459  add(pMem, pV5) */\n      add\n        /* \"src/WithdrawVerifier.sol\":30439:30460  mload(add(pMem, pV5)) */\n      mload\n        /* \"src/WithdrawVerifier.sol\":30434:30437  S2y */\n      0x1b781cb84343789ad0cd3fa896de791ae4daa3b13a94043cb75d522b768a8bf3\n        /* \"src/WithdrawVerifier.sol\":30429:30432  S2x */\n      0x01448ea5436c1c69d2ffb9e2641aea2da43b8b371fac2550d5cb464a33225e7a\n        /* \"src/WithdrawVerifier.sol\":30426:30427  p */\n      dup5\n        /* \"src/WithdrawVerifier.sol\":30415:30461  g1_mulAccC(p, S2x, S2y, mload(add(pMem, pV5))) */\n      tag_24\n      jump\t// in\n    tag_97:\n        /* \"src/WithdrawVerifier.sol\":29665:30475  {... */\n      pop\n        /* \"src/WithdrawVerifier.sol\":29639:30475  function calculateF(pMem) {... */\n      pop\n      jump\t// out\n        /* \"src/WithdrawVerifier.sol\":30489:31671  function calculateE(pMem) {... */\n    tag_29:\n        /* \"src/WithdrawVerifier.sol\":30582:30583  q */\n      0x30644e72e131a029b85045b68181585d2833e84879b9709143e1f593f0000001\n        /* \"src/WithdrawVerifier.sol\":30569:30577  pEval_r0 */\n      0x01a0\n        /* \"src/WithdrawVerifier.sol\":30563:30567  pMem */\n      dup3\n        /* \"src/WithdrawVerifier.sol\":30559:30578  add(pMem, pEval_r0) */\n      add\n        /* \"src/WithdrawVerifier.sol\":30553:30579  mload(add(pMem, pEval_r0)) */\n      mload\n        /* \"src/WithdrawVerifier.sol\":30550:30551  q */\n      0x30644e72e131a029b85045b68181585d2833e84879b9709143e1f593f0000001\n        /* \"src/WithdrawVerifier.sol\":30546:30580  sub(q, mload(add(pMem, pEval_r0))) */\n      sub\n        /* \"src/WithdrawVerifier.sol\":30542:30584  mod(sub(q, mload(add(pMem, pEval_r0))), q) */\n      mod\n        /* \"src/WithdrawVerifier.sol\":30735:30736  q */\n      0x30644e72e131a029b85045b68181585d2833e84879b9709143e1f593f0000001\n        /* \"src/WithdrawVerifier.sol\":30711:30712  q */\n      dup1\n        /* \"src/WithdrawVerifier.sol\":30704:30707  pV1 */\n      0xc0\n        /* \"src/WithdrawVerifier.sol\":30698:30702  pMem */\n      dup5\n        /* \"src/WithdrawVerifier.sol\":30694:30708  add(pMem, pV1) */\n      add\n        /* \"src/WithdrawVerifier.sol\":30688:30709  mload(add(pMem, pV1)) */\n      mload\n        /* \"src/WithdrawVerifier.sol\":30678:30685  pEval_a */\n      0x0244\n        /* \"src/WithdrawVerifier.sol\":30665:30686  calldataload(pEval_a) */\n      calldataload\n        /* \"src/WithdrawVerifier.sol\":30658:30713  mulmod(calldataload(pEval_a), mload(add(pMem, pV1)), q) */\n      mulmod\n        /* \"src/WithdrawVerifier.sol\":30635:30636  s */\n      dup3\n        /* \"src/WithdrawVerifier.sol\":30607:30754  addmod(... */\n      addmod\n        /* \"src/WithdrawVerifier.sol\":30602:30754  s := addmod(... */\n      swap1\n      pop\n        /* \"src/WithdrawVerifier.sol\":30904:30905  q */\n      0x30644e72e131a029b85045b68181585d2833e84879b9709143e1f593f0000001\n        /* \"src/WithdrawVerifier.sol\":30880:30881  q */\n      dup1\n        /* \"src/WithdrawVerifier.sol\":30873:30876  pV2 */\n      0xe0\n        /* \"src/WithdrawVerifier.sol\":30867:30871  pMem */\n      dup5\n        /* \"src/WithdrawVerifier.sol\":30863:30877  add(pMem, pV2) */\n      add\n        /* \"src/WithdrawVerifier.sol\":30857:30878  mload(add(pMem, pV2)) */\n      mload\n        /* \"src/WithdrawVerifier.sol\":30847:30854  pEval_b */\n      0x0264\n        /* \"src/WithdrawVerifier.sol\":30834:30855  calldataload(pEval_b) */\n      calldataload\n        /* \"src/WithdrawVerifier.sol\":30827:30882  mulmod(calldataload(pEval_b), mload(add(pMem, pV2)), q) */\n      mulmod\n        /* \"src/WithdrawVerifier.sol\":30804:30805  s */\n      dup3\n        /* \"src/WithdrawVerifier.sol\":30776:30923  addmod(... */\n      addmod\n        /* \"src/WithdrawVerifier.sol\":30771:30923  s := addmod(... */\n      swap1\n      pop\n        /* \"src/WithdrawVerifier.sol\":31073:31074  q */\n      0x30644e72e131a029b85045b68181585d2833e84879b9709143e1f593f0000001\n        /* \"src/WithdrawVerifier.sol\":31049:31050  q */\n      dup1\n        /* \"src/WithdrawVerifier.sol\":31042:31045  pV3 */\n      0x0100\n        /* \"src/WithdrawVerifier.sol\":31036:31040  pMem */\n      dup5\n        /* \"src/WithdrawVerifier.sol\":31032:31046  add(pMem, pV3) */\n      add\n        /* \"src/WithdrawVerifier.sol\":31026:31047  mload(add(pMem, pV3)) */\n      mload\n        /* \"src/WithdrawVerifier.sol\":31016:31023  pEval_c */\n      0x0284\n        /* \"src/WithdrawVerifier.sol\":31003:31024  calldataload(pEval_c) */\n      calldataload\n        /* \"src/WithdrawVerifier.sol\":30996:31051  mulmod(calldataload(pEval_c), mload(add(pMem, pV3)), q) */\n      mulmod\n        /* \"src/WithdrawVerifier.sol\":30973:30974  s */\n      dup3\n        /* \"src/WithdrawVerifier.sol\":30945:31092  addmod(... */\n      addmod\n        /* \"src/WithdrawVerifier.sol\":30940:31092  s := addmod(... */\n      swap1\n      pop\n        /* \"src/WithdrawVerifier.sol\":31243:31244  q */\n      0x30644e72e131a029b85045b68181585d2833e84879b9709143e1f593f0000001\n        /* \"src/WithdrawVerifier.sol\":31219:31220  q */\n      dup1\n        /* \"src/WithdrawVerifier.sol\":31212:31215  pV4 */\n      0x0120\n        /* \"src/WithdrawVerifier.sol\":31206:31210  pMem */\n      dup5\n        /* \"src/WithdrawVerifier.sol\":31202:31216  add(pMem, pV4) */\n      add\n        /* \"src/WithdrawVerifier.sol\":31196:31217  mload(add(pMem, pV4)) */\n      mload\n        /* \"src/WithdrawVerifier.sol\":31185:31193  pEval_s1 */\n      0x02a4\n        /* \"src/WithdrawVerifier.sol\":31172:31194  calldataload(pEval_s1) */\n      calldataload\n        /* \"src/WithdrawVerifier.sol\":31165:31221  mulmod(calldataload(pEval_s1), mload(add(pMem, pV4)), q) */\n      mulmod\n        /* \"src/WithdrawVerifier.sol\":31142:31143  s */\n      dup3\n        /* \"src/WithdrawVerifier.sol\":31114:31262  addmod(... */\n      addmod\n        /* \"src/WithdrawVerifier.sol\":31109:31262  s := addmod(... */\n      swap1\n      pop\n        /* \"src/WithdrawVerifier.sol\":31413:31414  q */\n      0x30644e72e131a029b85045b68181585d2833e84879b9709143e1f593f0000001\n        /* \"src/WithdrawVerifier.sol\":31389:31390  q */\n      dup1\n        /* \"src/WithdrawVerifier.sol\":31382:31385  pV5 */\n      0x0140\n        /* \"src/WithdrawVerifier.sol\":31376:31380  pMem */\n      dup5\n        /* \"src/WithdrawVerifier.sol\":31372:31386  add(pMem, pV5) */\n      add\n        /* \"src/WithdrawVerifier.sol\":31366:31387  mload(add(pMem, pV5)) */\n      mload\n        /* \"src/WithdrawVerifier.sol\":31355:31363  pEval_s2 */\n      0x02c4\n        /* \"src/WithdrawVerifier.sol\":31342:31364  calldataload(pEval_s2) */\n      calldataload\n        /* \"src/WithdrawVerifier.sol\":31335:31391  mulmod(calldataload(pEval_s2), mload(add(pMem, pV5)), q) */\n      mulmod\n        /* \"src/WithdrawVerifier.sol\":31312:31313  s */\n      dup3\n        /* \"src/WithdrawVerifier.sol\":31284:31432  addmod(... */\n      addmod\n        /* \"src/WithdrawVerifier.sol\":31279:31432  s := addmod(... */\n      swap1\n      pop\n        /* \"src/WithdrawVerifier.sol\":31582:31583  q */\n      0x30644e72e131a029b85045b68181585d2833e84879b9709143e1f593f0000001\n        /* \"src/WithdrawVerifier.sol\":31558:31559  q */\n      dup1\n        /* \"src/WithdrawVerifier.sol\":31552:31554  pU */\n      0x0160\n        /* \"src/WithdrawVerifier.sol\":31546:31550  pMem */\n      dup5\n        /* \"src/WithdrawVerifier.sol\":31542:31555  add(pMem, pU) */\n      add\n        /* \"src/WithdrawVerifier.sol\":31536:31556  mload(add(pMem, pU)) */\n      mload\n        /* \"src/WithdrawVerifier.sol\":31525:31533  pEval_zw */\n      0x02e4\n        /* \"src/WithdrawVerifier.sol\":31512:31534  calldataload(pEval_zw) */\n      calldataload\n        /* \"src/WithdrawVerifier.sol\":31505:31560  mulmod(calldataload(pEval_zw), mload(add(pMem, pU)), q) */\n      mulmod\n        /* \"src/WithdrawVerifier.sol\":31482:31483  s */\n      dup3\n        /* \"src/WithdrawVerifier.sol\":31454:31601  addmod(... */\n      addmod\n        /* \"src/WithdrawVerifier.sol\":31449:31601  s := addmod(... */\n      swap1\n      pop\n        /* \"src/WithdrawVerifier.sol\":31619:31657  g1_mulSetC(add(pMem, pE), G1x, G1y, s) */\n      tag_99\n        /* \"src/WithdrawVerifier.sol\":31655:31656  s */\n      dup2\n        /* \"src/WithdrawVerifier.sol\":31650:31653  G1y */\n      0x02\n        /* \"src/WithdrawVerifier.sol\":31645:31648  G1x */\n      0x01\n        /* \"src/WithdrawVerifier.sol\":31640:31642  pE */\n      0x0240\n        /* \"src/WithdrawVerifier.sol\":31634:31638  pMem */\n      dup7\n        /* \"src/WithdrawVerifier.sol\":31630:31643  add(pMem, pE) */\n      add\n        /* \"src/WithdrawVerifier.sol\":31619:31657  g1_mulSetC(add(pMem, pE), G1x, G1y, s) */\n      tag_25\n      jump\t// in\n    tag_99:\n        /* \"src/WithdrawVerifier.sol\":30515:31671  {... */\n      pop\n        /* \"src/WithdrawVerifier.sol\":30489:31671  function calculateE(pMem) {... */\n      pop\n      jump\t// out\n        /* \"src/WithdrawVerifier.sol\":31685:33536  function checkPairing(pMem) -> isOk {... */\n    tag_30:\n        /* \"src/WithdrawVerifier.sol\":31716:31720  isOk */\n      0x00\n        /* \"src/WithdrawVerifier.sol\":31756:31760  0x40 */\n      0x40\n        /* \"src/WithdrawVerifier.sol\":31750:31761  mload(0x40) */\n      mload\n        /* \"src/WithdrawVerifier.sol\":31800:31803  576 */\n      0x0240\n        /* \"src/WithdrawVerifier.sol\":31795:31798  mIn */\n      dup2\n        /* \"src/WithdrawVerifier.sol\":31791:31804  add(mIn, 576) */\n      add\n        /* \"src/WithdrawVerifier.sol\":31785:31789  0x40 */\n      0x40\n        /* \"src/WithdrawVerifier.sol\":31778:31805  mstore(0x40, add(mIn, 576)) */\n      mstore\n        /* \"src/WithdrawVerifier.sol\":31911:31914  384 */\n      0x0180\n        /* \"src/WithdrawVerifier.sol\":31906:31909  mIn */\n      dup2\n        /* \"src/WithdrawVerifier.sol\":31902:31915  add(mIn, 384) */\n      add\n        /* \"src/WithdrawVerifier.sol\":31955:31958  448 */\n      0x01c0\n        /* \"src/WithdrawVerifier.sol\":31950:31953  mIn */\n      dup3\n        /* \"src/WithdrawVerifier.sol\":31946:31959  add(mIn, 448) */\n      add\n        /* \"src/WithdrawVerifier.sol\":31997:32000  512 */\n      0x0200\n        /* \"src/WithdrawVerifier.sol\":31992:31995  mIn */\n      dup4\n        /* \"src/WithdrawVerifier.sol\":31988:32001  add(mIn, 512) */\n      add\n        /* \"src/WithdrawVerifier.sol\":32019:32046  g1_calldataSet(_pWxi, pWxi) */\n      tag_101\n        /* \"src/WithdrawVerifier.sol\":32041:32045  pWxi */\n      0x01c4\n        /* \"src/WithdrawVerifier.sol\":32034:32039  _pWxi */\n      dup5\n        /* \"src/WithdrawVerifier.sol\":32019:32046  g1_calldataSet(_pWxi, pWxi) */\n      tag_21\n      jump\t// in\n    tag_101:\n        /* \"src/WithdrawVerifier.sol\":32063:32092  g1_calldataSet(_pWxiw, pWxiw) */\n      tag_102\n        /* \"src/WithdrawVerifier.sol\":32086:32091  pWxiw */\n      0x0204\n        /* \"src/WithdrawVerifier.sol\":32078:32084  _pWxiw */\n      dup4\n        /* \"src/WithdrawVerifier.sol\":32063:32092  g1_calldataSet(_pWxiw, pWxiw) */\n      tag_21\n      jump\t// in\n    tag_102:\n        /* \"src/WithdrawVerifier.sol\":32132:32176  g1_mulSet(mIn, _pWxiw, mload(add(pMem, pU))) */\n      tag_103\n        /* \"src/WithdrawVerifier.sol\":32171:32173  pU */\n      0x0160\n        /* \"src/WithdrawVerifier.sol\":32165:32169  pMem */\n      dup8\n        /* \"src/WithdrawVerifier.sol\":32161:32174  add(pMem, pU) */\n      add\n        /* \"src/WithdrawVerifier.sol\":32155:32175  mload(add(pMem, pU)) */\n      mload\n        /* \"src/WithdrawVerifier.sol\":32147:32153  _pWxiw */\n      dup4\n        /* \"src/WithdrawVerifier.sol\":32142:32145  mIn */\n      dup7\n        /* \"src/WithdrawVerifier.sol\":32132:32176  g1_mulSet(mIn, _pWxiw, mload(add(pMem, pU))) */\n      tag_26\n      jump\t// in\n    tag_103:\n        /* \"src/WithdrawVerifier.sol\":32193:32211  g1_acc(mIn, _pWxi) */\n      tag_104\n        /* \"src/WithdrawVerifier.sol\":32205:32210  _pWxi */\n      dup4\n        /* \"src/WithdrawVerifier.sol\":32200:32203  mIn */\n      dup6\n        /* \"src/WithdrawVerifier.sol\":32193:32211  g1_acc(mIn, _pWxi) */\n      tag_22\n      jump\t// in\n    tag_104:\n        /* \"src/WithdrawVerifier.sol\":32283:32285  qf */\n      0x30644e72e131a029b85045b68181585d97816a916871ca8d3c208c16d87cfd47\n        /* \"src/WithdrawVerifier.sol\":32276:32278  32 */\n      0x20\n        /* \"src/WithdrawVerifier.sol\":32271:32274  mIn */\n      dup6\n        /* \"src/WithdrawVerifier.sol\":32267:32279  add(mIn, 32) */\n      add\n        /* \"src/WithdrawVerifier.sol\":32261:32280  mload(add(mIn, 32)) */\n      mload\n        /* \"src/WithdrawVerifier.sol\":32257:32259  qf */\n      0x30644e72e131a029b85045b68181585d97816a916871ca8d3c208c16d87cfd47\n        /* \"src/WithdrawVerifier.sol\":32253:32281  sub(qf, mload(add(mIn, 32))) */\n      sub\n        /* \"src/WithdrawVerifier.sol\":32249:32286  mod(sub(qf, mload(add(mIn, 32))), qf) */\n      mod\n        /* \"src/WithdrawVerifier.sol\":32244:32246  32 */\n      0x20\n        /* \"src/WithdrawVerifier.sol\":32239:32242  mIn */\n      dup6\n        /* \"src/WithdrawVerifier.sol\":32235:32247  add(mIn, 32) */\n      add\n        /* \"src/WithdrawVerifier.sol\":32228:32287  mstore(add(mIn, 32), mod(sub(qf, mload(add(mIn, 32))), qf)) */\n      mstore\n        /* \"src/WithdrawVerifier.sol\":32351:32355  X2x2 */\n      0x26186a2d65ee4d2f9c9a5b91f86597d35f192cd120caf7e935d8443d1938e23d\n        /* \"src/WithdrawVerifier.sol\":32346:32348  64 */\n      0x40\n        /* \"src/WithdrawVerifier.sol\":32341:32344  mIn */\n      dup6\n        /* \"src/WithdrawVerifier.sol\":32337:32349  add(mIn, 64) */\n      add\n        /* \"src/WithdrawVerifier.sol\":32330:32356  mstore(add(mIn, 64), X2x2) */\n      mstore\n        /* \"src/WithdrawVerifier.sol\":32394:32398  X2x1 */\n      0x30441fd1b5d3370482c42152a8899027716989a6996c2535bc9f7fee8aaef79e\n        /* \"src/WithdrawVerifier.sol\":32389:32391  96 */\n      0x60\n        /* \"src/WithdrawVerifier.sol\":32384:32387  mIn */\n      dup6\n        /* \"src/WithdrawVerifier.sol\":32380:32392  add(mIn, 96) */\n      add\n        /* \"src/WithdrawVerifier.sol\":32373:32399  mstore(add(mIn, 96), X2x1) */\n      mstore\n        /* \"src/WithdrawVerifier.sol\":32438:32442  X2y2 */\n      0x1970ea81dd6992adfbc571effb03503adbbb6a857f578403c6c40e22d65b3c02\n        /* \"src/WithdrawVerifier.sol\":32432:32435  128 */\n      0x80\n        /* \"src/WithdrawVerifier.sol\":32427:32430  mIn */\n      dup6\n        /* \"src/WithdrawVerifier.sol\":32423:32436  add(mIn, 128) */\n      add\n        /* \"src/WithdrawVerifier.sol\":32416:32443  mstore(add(mIn, 128), X2y2) */\n      mstore\n        /* \"src/WithdrawVerifier.sol\":32482:32486  X2y1 */\n      0x054793348f12c0cf5622c340573cb277586319de359ab9389778f689786b1e48\n        /* \"src/WithdrawVerifier.sol\":32476:32479  160 */\n      0xa0\n        /* \"src/WithdrawVerifier.sol\":32471:32474  mIn */\n      dup6\n        /* \"src/WithdrawVerifier.sol\":32467:32480  add(mIn, 160) */\n      add\n        /* \"src/WithdrawVerifier.sol\":32460:32487  mstore(add(mIn, 160), X2y1) */\n      mstore\n        /* \"src/WithdrawVerifier.sol\":32527:32581  g1_mulSet(add(mIn, 192), _pWxi, mload(add(pMem, pXi))) */\n      tag_105\n        /* \"src/WithdrawVerifier.sol\":32575:32578  pXi */\n      0x60\n        /* \"src/WithdrawVerifier.sol\":32569:32573  pMem */\n      dup8\n        /* \"src/WithdrawVerifier.sol\":32565:32579  add(pMem, pXi) */\n      add\n        /* \"src/WithdrawVerifier.sol\":32559:32580  mload(add(pMem, pXi)) */\n      mload\n        /* \"src/WithdrawVerifier.sol\":32552:32557  _pWxi */\n      dup5\n        /* \"src/WithdrawVerifier.sol\":32546:32549  192 */\n      0xc0\n        /* \"src/WithdrawVerifier.sol\":32541:32544  mIn */\n      dup8\n        /* \"src/WithdrawVerifier.sol\":32537:32550  add(mIn, 192) */\n      add\n        /* \"src/WithdrawVerifier.sol\":32527:32581  g1_mulSet(add(mIn, 192), _pWxi, mload(add(pMem, pXi))) */\n      tag_26\n      jump\t// in\n    tag_105:\n        /* \"src/WithdrawVerifier.sol\":32660:32661  q */\n      0x30644e72e131a029b85045b68181585d2833e84879b9709143e1f593f0000001\n        /* \"src/WithdrawVerifier.sol\":32653:32656  pXi */\n      0x60\n        /* \"src/WithdrawVerifier.sol\":32647:32651  pMem */\n      dup8\n        /* \"src/WithdrawVerifier.sol\":32643:32657  add(pMem, pXi) */\n      add\n        /* \"src/WithdrawVerifier.sol\":32637:32658  mload(add(pMem, pXi)) */\n      mload\n        /* \"src/WithdrawVerifier.sol\":32631:32633  pU */\n      0x0160\n        /* \"src/WithdrawVerifier.sol\":32625:32629  pMem */\n      dup9\n        /* \"src/WithdrawVerifier.sol\":32621:32634  add(pMem, pU) */\n      add\n        /* \"src/WithdrawVerifier.sol\":32615:32635  mload(add(pMem, pU)) */\n      mload\n        /* \"src/WithdrawVerifier.sol\":32608:32662  mulmod(mload(add(pMem, pU)), mload(add(pMem, pXi)), q) */\n      mulmod\n        /* \"src/WithdrawVerifier.sol\":32698:32699  q */\n      0x30644e72e131a029b85045b68181585d2833e84879b9709143e1f593f0000001\n        /* \"src/WithdrawVerifier.sol\":32694:32696  w1 */\n      0x6fab49b869ae62001deac878b2667bd31bf3e28e3a2d764aa49b8d9bbdd310\n        /* \"src/WithdrawVerifier.sol\":32691:32692  s */\n      dup3\n        /* \"src/WithdrawVerifier.sol\":32684:32700  mulmod(s, w1, q) */\n      mulmod\n        /* \"src/WithdrawVerifier.sol\":32679:32700  s := mulmod(s, w1, q) */\n      swap1\n      pop\n        /* \"src/WithdrawVerifier.sol\":32717:32743  g1_mulSet(_aux, _pWxiw, s) */\n      tag_106\n        /* \"src/WithdrawVerifier.sol\":32741:32742  s */\n      dup2\n        /* \"src/WithdrawVerifier.sol\":32733:32739  _pWxiw */\n      dup5\n        /* \"src/WithdrawVerifier.sol\":32727:32731  _aux */\n      dup5\n        /* \"src/WithdrawVerifier.sol\":32717:32743  g1_mulSet(_aux, _pWxiw, s) */\n      tag_26\n      jump\t// in\n    tag_106:\n        /* \"src/WithdrawVerifier.sol\":32760:32787  g1_acc(add(mIn, 192), _aux) */\n      tag_107\n        /* \"src/WithdrawVerifier.sol\":32782:32786  _aux */\n      dup3\n        /* \"src/WithdrawVerifier.sol\":32776:32779  192 */\n      0xc0\n        /* \"src/WithdrawVerifier.sol\":32771:32774  mIn */\n      dup8\n        /* \"src/WithdrawVerifier.sol\":32767:32780  add(mIn, 192) */\n      add\n        /* \"src/WithdrawVerifier.sol\":32760:32787  g1_acc(add(mIn, 192), _aux) */\n      tag_22\n      jump\t// in\n    tag_107:\n        /* \"src/WithdrawVerifier.sol\":32804:32840  g1_acc(add(mIn, 192), add(pMem, pF)) */\n      tag_108\n        /* \"src/WithdrawVerifier.sol\":32836:32838  pF */\n      0x0200\n        /* \"src/WithdrawVerifier.sol\":32830:32834  pMem */\n      dup9\n        /* \"src/WithdrawVerifier.sol\":32826:32839  add(pMem, pF) */\n      add\n        /* \"src/WithdrawVerifier.sol\":32820:32823  192 */\n      0xc0\n        /* \"src/WithdrawVerifier.sol\":32815:32818  mIn */\n      dup8\n        /* \"src/WithdrawVerifier.sol\":32811:32824  add(mIn, 192) */\n      add\n        /* \"src/WithdrawVerifier.sol\":32804:32840  g1_acc(add(mIn, 192), add(pMem, pF)) */\n      tag_22\n      jump\t// in\n    tag_108:\n        /* \"src/WithdrawVerifier.sol\":32973:32975  qf */\n      0x30644e72e131a029b85045b68181585d97816a916871ca8d3c208c16d87cfd47\n        /* \"src/WithdrawVerifier.sol\":32965:32967  32 */\n      0x20\n        /* \"src/WithdrawVerifier.sol\":32961:32963  pE */\n      0x0240\n        /* \"src/WithdrawVerifier.sol\":32957:32968  add(pE, 32) */\n      add\n        /* \"src/WithdrawVerifier.sol\":32951:32955  pMem */\n      dup9\n        /* \"src/WithdrawVerifier.sol\":32947:32969  add(pMem, add(pE, 32)) */\n      add\n        /* \"src/WithdrawVerifier.sol\":32941:32970  mload(add(pMem, add(pE, 32))) */\n      mload\n        /* \"src/WithdrawVerifier.sol\":32937:32939  qf */\n      0x30644e72e131a029b85045b68181585d97816a916871ca8d3c208c16d87cfd47\n        /* \"src/WithdrawVerifier.sol\":32933:32971  sub(qf, mload(add(pMem, add(pE, 32)))) */\n      sub\n        /* \"src/WithdrawVerifier.sol\":32929:32976  mod(sub(qf, mload(add(pMem, add(pE, 32)))), qf) */\n      mod\n        /* \"src/WithdrawVerifier.sol\":32903:32905  32 */\n      0x20\n        /* \"src/WithdrawVerifier.sol\":32899:32901  pE */\n      0x0240\n        /* \"src/WithdrawVerifier.sol\":32895:32906  add(pE, 32) */\n      add\n        /* \"src/WithdrawVerifier.sol\":32889:32893  pMem */\n      dup9\n        /* \"src/WithdrawVerifier.sol\":32885:32907  add(pMem, add(pE, 32)) */\n      add\n        /* \"src/WithdrawVerifier.sol\":32857:32994  mstore(... */\n      mstore\n        /* \"src/WithdrawVerifier.sol\":33011:33047  g1_acc(add(mIn, 192), add(pMem, pE)) */\n      tag_109\n        /* \"src/WithdrawVerifier.sol\":33043:33045  pE */\n      0x0240\n        /* \"src/WithdrawVerifier.sol\":33037:33041  pMem */\n      dup9\n        /* \"src/WithdrawVerifier.sol\":33033:33046  add(pMem, pE) */\n      add\n        /* \"src/WithdrawVerifier.sol\":33027:33030  192 */\n      0xc0\n        /* \"src/WithdrawVerifier.sol\":33022:33025  mIn */\n      dup8\n        /* \"src/WithdrawVerifier.sol\":33018:33031  add(mIn, 192) */\n      add\n        /* \"src/WithdrawVerifier.sol\":33011:33047  g1_acc(add(mIn, 192), add(pMem, pE)) */\n      tag_22\n      jump\t// in\n    tag_109:\n        /* \"src/WithdrawVerifier.sol\":33112:33116  G2x2 */\n      0x198e9393920d483a7260bfb731fb5d25f1aa493335a9e71297e485b7aef312c2\n        /* \"src/WithdrawVerifier.sol\":33106:33109  256 */\n      0x0100\n        /* \"src/WithdrawVerifier.sol\":33101:33104  mIn */\n      dup7\n        /* \"src/WithdrawVerifier.sol\":33097:33110  add(mIn, 256) */\n      add\n        /* \"src/WithdrawVerifier.sol\":33090:33117  mstore(add(mIn, 256), G2x2) */\n      mstore\n        /* \"src/WithdrawVerifier.sol\":33156:33160  G2x1 */\n      0x1800deef121f1e76426a00665e5c4479674322d4f75edadd46debd5cd992f6ed\n        /* \"src/WithdrawVerifier.sol\":33150:33153  288 */\n      0x0120\n        /* \"src/WithdrawVerifier.sol\":33145:33148  mIn */\n      dup7\n        /* \"src/WithdrawVerifier.sol\":33141:33154  add(mIn, 288) */\n      add\n        /* \"src/WithdrawVerifier.sol\":33134:33161  mstore(add(mIn, 288), G2x1) */\n      mstore\n        /* \"src/WithdrawVerifier.sol\":33200:33204  G2y2 */\n      0x090689d0585ff075ec9e99ad690c3395bc4b313370b38ef355acdadcd122975b\n        /* \"src/WithdrawVerifier.sol\":33194:33197  320 */\n      0x0140\n        /* \"src/WithdrawVerifier.sol\":33189:33192  mIn */\n      dup7\n        /* \"src/WithdrawVerifier.sol\":33185:33198  add(mIn, 320) */\n      add\n        /* \"src/WithdrawVerifier.sol\":33178:33205  mstore(add(mIn, 320), G2y2) */\n      mstore\n        /* \"src/WithdrawVerifier.sol\":33244:33248  G2y1 */\n      0x12c85ea5db8c6deb4aab71808dcb408fe3d1e7690c43d37b4ce6cc0166fa7daa\n        /* \"src/WithdrawVerifier.sol\":33238:33241  352 */\n      0x0160\n        /* \"src/WithdrawVerifier.sol\":33233:33236  mIn */\n      dup7\n        /* \"src/WithdrawVerifier.sol\":33229:33242  add(mIn, 352) */\n      add\n        /* \"src/WithdrawVerifier.sol\":33222:33249  mstore(add(mIn, 352), G2y1) */\n      mstore\n        /* \"src/WithdrawVerifier.sol\":33450:33454  0x20 */\n      0x20\n        /* \"src/WithdrawVerifier.sol\":33425:33428  mIn */\n      dup6\n        /* \"src/WithdrawVerifier.sol\":33400:33403  384 */\n      0x0180\n        /* \"src/WithdrawVerifier.sol\":33375:33378  mIn */\n      dup8\n        /* \"src/WithdrawVerifier.sol\":33352:33353  8 */\n      0x08\n        /* \"src/WithdrawVerifier.sol\":33325:33329  2000 */\n      0x07d0\n        /* \"src/WithdrawVerifier.sol\":33318:33323  gas() */\n      gas\n        /* \"src/WithdrawVerifier.sol\":33314:33330  sub(gas(), 2000) */\n      sub\n        /* \"src/WithdrawVerifier.sol\":33282:33472  staticcall(... */\n      staticcall\n        /* \"src/WithdrawVerifier.sol\":33517:33520  mIn */\n      dup6\n        /* \"src/WithdrawVerifier.sol\":33511:33521  mload(mIn) */\n      mload\n        /* \"src/WithdrawVerifier.sol\":33502:33509  success */\n      dup2\n        /* \"src/WithdrawVerifier.sol\":33498:33522  and(success, mload(mIn)) */\n      and\n        /* \"src/WithdrawVerifier.sol\":33490:33522  isOk := and(success, mload(mIn)) */\n      swap7\n      pop\n        /* \"src/WithdrawVerifier.sol\":31721:33536  {... */\n      pop\n      pop\n      pop\n      pop\n      pop\n      pop\n        /* \"src/WithdrawVerifier.sol\":31685:33536  function checkPairing(pMem) -> isOk {... */\n      swap2\n      swap1\n      pop\n      jump\t// out\n    tag_31:\n        /* \"src/WithdrawVerifier.sol\":33568:33572  0x40 */\n      0x40\n        /* \"src/WithdrawVerifier.sol\":33562:33573  mload(0x40) */\n      mload\n        /* \"src/WithdrawVerifier.sol\":33609:33616  lastMem */\n      0x0400\n        /* \"src/WithdrawVerifier.sol\":33603:33607  pMem */\n      dup2\n        /* \"src/WithdrawVerifier.sol\":33599:33617  add(pMem, lastMem) */\n      add\n        /* \"src/WithdrawVerifier.sol\":33593:33597  0x40 */\n      0x40\n        /* \"src/WithdrawVerifier.sol\":33586:33618  mstore(0x40, add(pMem, lastMem)) */\n      mstore\n        /* \"src/WithdrawVerifier.sol\":33632:33644  checkInput() */\n      tag_110\n      tag_14\n      jump\t// in\n    tag_110:\n        /* \"src/WithdrawVerifier.sol\":33657:33695  calculateChallenges(pMem, _pubSignals) */\n      tag_111\n        /* \"src/WithdrawVerifier.sol\":33683:33694  _pubSignals */\n      dup4\n        /* \"src/WithdrawVerifier.sol\":33677:33681  pMem */\n      dup3\n        /* \"src/WithdrawVerifier.sol\":33657:33695  calculateChallenges(pMem, _pubSignals) */\n      tag_15\n      jump\t// in\n    tag_111:\n        /* \"src/WithdrawVerifier.sol\":33708:33731  calculateLagrange(pMem) */\n      tag_112\n        /* \"src/WithdrawVerifier.sol\":33726:33730  pMem */\n      dup2\n        /* \"src/WithdrawVerifier.sol\":33708:33731  calculateLagrange(pMem) */\n      tag_16\n      jump\t// in\n    tag_112:\n        /* \"src/WithdrawVerifier.sol\":33744:33774  calculatePI(pMem, _pubSignals) */\n      tag_113\n        /* \"src/WithdrawVerifier.sol\":33762:33773  _pubSignals */\n      dup4\n        /* \"src/WithdrawVerifier.sol\":33756:33760  pMem */\n      dup3\n        /* \"src/WithdrawVerifier.sol\":33744:33774  calculatePI(pMem, _pubSignals) */\n      tag_17\n      jump\t// in\n    tag_113:\n        /* \"src/WithdrawVerifier.sol\":33787:33804  calculateR0(pMem) */\n      tag_114\n        /* \"src/WithdrawVerifier.sol\":33799:33803  pMem */\n      dup2\n        /* \"src/WithdrawVerifier.sol\":33787:33804  calculateR0(pMem) */\n      tag_18\n      jump\t// in\n    tag_114:\n        /* \"src/WithdrawVerifier.sol\":33817:33833  calculateD(pMem) */\n      tag_115\n        /* \"src/WithdrawVerifier.sol\":33828:33832  pMem */\n      dup2\n        /* \"src/WithdrawVerifier.sol\":33817:33833  calculateD(pMem) */\n      tag_27\n      jump\t// in\n    tag_115:\n        /* \"src/WithdrawVerifier.sol\":33846:33862  calculateF(pMem) */\n      tag_116\n        /* \"src/WithdrawVerifier.sol\":33857:33861  pMem */\n      dup2\n        /* \"src/WithdrawVerifier.sol\":33846:33862  calculateF(pMem) */\n      tag_28\n      jump\t// in\n    tag_116:\n        /* \"src/WithdrawVerifier.sol\":33875:33891  calculateE(pMem) */\n      tag_117\n        /* \"src/WithdrawVerifier.sol\":33886:33890  pMem */\n      dup2\n        /* \"src/WithdrawVerifier.sol\":33875:33891  calculateE(pMem) */\n      tag_29\n      jump\t// in\n    tag_117:\n        /* \"src/WithdrawVerifier.sol\":33919:33937  checkPairing(pMem) */\n      tag_118\n        /* \"src/WithdrawVerifier.sol\":33932:33936  pMem */\n      dup2\n        /* \"src/WithdrawVerifier.sol\":33919:33937  checkPairing(pMem) */\n      tag_30\n      jump\t// in\n    tag_118:\n        /* \"src/WithdrawVerifier.sol\":33974:33981  lastMem */\n      0x0400\n        /* \"src/WithdrawVerifier.sol\":33968:33972  pMem */\n      dup3\n        /* \"src/WithdrawVerifier.sol\":33964:33982  sub(pMem, lastMem) */\n      sub\n        /* \"src/WithdrawVerifier.sol\":33958:33962  0x40 */\n      0x40\n        /* \"src/WithdrawVerifier.sol\":33951:33983  mstore(0x40, sub(pMem, lastMem)) */\n      mstore\n        /* \"src/WithdrawVerifier.sol\":34006:34013  isValid */\n      dup1\n        /* \"src/WithdrawVerifier.sol\":34003:34004  0 */\n      0x00\n        /* \"src/WithdrawVerifier.sol\":33996:34014  mstore(0, isValid) */\n      mstore\n        /* \"src/WithdrawVerifier.sol\":34037:34041  0x20 */\n      0x20\n        /* \"src/WithdrawVerifier.sol\":34034:34035  0 */\n      0x00\n        /* \"src/WithdrawVerifier.sol\":34027:34042  return(0, 0x20) */\n      return\n        /* \"#utility.yul\":88:205   */\n    tag_120:\n        /* \"#utility.yul\":197:198   */\n      0x00\n        /* \"#utility.yul\":194:195   */\n      dup1\n        /* \"#utility.yul\":187:199   */\n      revert\n        /* \"#utility.yul\":334:451   */\n    tag_122:\n        /* \"#utility.yul\":443:444   */\n      0x00\n        /* \"#utility.yul\":440:441   */\n      dup1\n        /* \"#utility.yul\":433:445   */\n      revert\n        /* \"#utility.yul\":476:726   */\n    tag_123:\n        /* \"#utility.yul\":548:556   */\n      0x00\n        /* \"#utility.yul\":579:585   */\n      dup2\n        /* \"#utility.yul\":567:585   */\n      swap1\n      pop\n        /* \"#utility.yul\":632:635   */\n      dup3\n        /* \"#utility.yul\":624:628   */\n      0x20\n        /* \"#utility.yul\":618:622   */\n      0x18\n        /* \"#utility.yul\":614:629   */\n      mul\n        /* \"#utility.yul\":604:612   */\n      dup3\n        /* \"#utility.yul\":600:630   */\n      add\n        /* \"#utility.yul\":597:636   */\n      gt\n        /* \"#utility.yul\":594:720   */\n      iszero\n      tag_133\n      jumpi\n        /* \"#utility.yul\":639:718   */\n      tag_134\n      tag_122\n      jump\t// in\n    tag_134:\n        /* \"#utility.yul\":594:720   */\n    tag_133:\n        /* \"#utility.yul\":476:726   */\n      swap3\n      swap2\n      pop\n      pop\n      jump\t// out\n        /* \"#utility.yul\":750:999   */\n    tag_124:\n        /* \"#utility.yul\":821:829   */\n      0x00\n        /* \"#utility.yul\":852:858   */\n      dup2\n        /* \"#utility.yul\":840:858   */\n      swap1\n      pop\n        /* \"#utility.yul\":905:908   */\n      dup3\n        /* \"#utility.yul\":897:901   */\n      0x20\n        /* \"#utility.yul\":891:895   */\n      0x07\n        /* \"#utility.yul\":887:902   */\n      mul\n        /* \"#utility.yul\":877:885   */\n      dup3\n        /* \"#utility.yul\":873:903   */\n      add\n        /* \"#utility.yul\":870:909   */\n      gt\n        /* \"#utility.yul\":867:993   */\n      iszero\n      tag_136\n      jumpi\n        /* \"#utility.yul\":912:991   */\n      tag_137\n      tag_122\n      jump\t// in\n    tag_137:\n        /* \"#utility.yul\":867:993   */\n    tag_136:\n        /* \"#utility.yul\":750:999   */\n      swap3\n      swap2\n      pop\n      pop\n      jump\t// out\n        /* \"#utility.yul\":1005:1583   */\n    tag_6:\n        /* \"#utility.yul\":1124:1130   */\n      0x00\n        /* \"#utility.yul\":1132:1138   */\n      dup1\n        /* \"#utility.yul\":1181:1184   */\n      0x03e0\n        /* \"#utility.yul\":1169:1178   */\n      dup4\n        /* \"#utility.yul\":1160:1167   */\n      dup6\n        /* \"#utility.yul\":1156:1179   */\n      sub\n        /* \"#utility.yul\":1152:1185   */\n      slt\n        /* \"#utility.yul\":1149:1269   */\n      iszero\n      tag_139\n      jumpi\n        /* \"#utility.yul\":1188:1267   */\n      tag_140\n      tag_120\n      jump\t// in\n    tag_140:\n        /* \"#utility.yul\":1149:1269   */\n    tag_139:\n        /* \"#utility.yul\":1308:1309   */\n      0x00\n        /* \"#utility.yul\":1333:1412   */\n      tag_141\n        /* \"#utility.yul\":1404:1411   */\n      dup6\n        /* \"#utility.yul\":1395:1401   */\n      dup3\n        /* \"#utility.yul\":1384:1393   */\n      dup7\n        /* \"#utility.yul\":1380:1402   */\n      add\n        /* \"#utility.yul\":1333:1412   */\n      tag_123\n      jump\t// in\n    tag_141:\n        /* \"#utility.yul\":1323:1412   */\n      swap3\n      pop\n        /* \"#utility.yul\":1279:1422   */\n      pop\n        /* \"#utility.yul\":1461:1464   */\n      0x0300\n        /* \"#utility.yul\":1488:1566   */\n      tag_142\n        /* \"#utility.yul\":1558:1565   */\n      dup6\n        /* \"#utility.yul\":1549:1555   */\n      dup3\n        /* \"#utility.yul\":1538:1547   */\n      dup7\n        /* \"#utility.yul\":1534:1556   */\n      add\n        /* \"#utility.yul\":1488:1566   */\n      tag_124\n      jump\t// in\n    tag_142:\n        /* \"#utility.yul\":1478:1566   */\n      swap2\n      pop\n        /* \"#utility.yul\":1432:1576   */\n      pop\n        /* \"#utility.yul\":1005:1583   */\n      swap3\n      pop\n      swap3\n      swap1\n      pop\n      jump\t// out\n        /* \"#utility.yul\":1589:1679   */\n    tag_125:\n        /* \"#utility.yul\":1623:1630   */\n      0x00\n        /* \"#utility.yul\":1666:1671   */\n      dup2\n        /* \"#utility.yul\":1659:1672   */\n      iszero\n        /* \"#utility.yul\":1652:1673   */\n      iszero\n        /* \"#utility.yul\":1641:1673   */\n      swap1\n      pop\n        /* \"#utility.yul\":1589:1679   */\n      swap2\n      swap1\n      pop\n      jump\t// out\n        /* \"#utility.yul\":1685:1794   */\n    tag_126:\n        /* \"#utility.yul\":1766:1787   */\n      tag_145\n        /* \"#utility.yul\":1781:1786   */\n      dup2\n        /* \"#utility.yul\":1766:1787   */\n      tag_125\n      jump\t// in\n    tag_145:\n        /* \"#utility.yul\":1761:1764   */\n      dup3\n        /* \"#utility.yul\":1754:1788   */\n      mstore\n        /* \"#utility.yul\":1685:1794   */\n      pop\n      pop\n      jump\t// out\n        /* \"#utility.yul\":1800:2010   */\n    tag_9:\n        /* \"#utility.yul\":1887:1891   */\n      0x00\n        /* \"#utility.yul\":1925:1927   */\n      0x20\n        /* \"#utility.yul\":1914:1923   */\n      dup3\n        /* \"#utility.yul\":1910:1928   */\n      add\n        /* \"#utility.yul\":1902:1928   */\n      swap1\n      pop\n        /* \"#utility.yul\":1938:2003   */\n      tag_147\n        /* \"#utility.yul\":2000:2001   */\n      0x00\n        /* \"#utility.yul\":1989:1998   */\n      dup4\n        /* \"#utility.yul\":1985:2002   */\n      add\n        /* \"#utility.yul\":1976:1982   */\n      dup5\n        /* \"#utility.yul\":1938:2003   */\n      tag_126\n      jump\t// in\n    tag_147:\n        /* \"#utility.yul\":1800:2010   */\n      swap3\n      swap2\n      pop\n      pop\n      jump\t// out\n\n    auxdata: 0xa264697066735822122092bd35d990cc1305313d2606a4359e0bc017764edc0dcf81a43fd75cae34416e64736f6c634300081a0033\n}\n",
				"bytecode": {
					"linkReferences": {},
					"object": "6080604052348015600e575f80fd5b506124ba8061001c5f395ff3fe608060405234801561000f575f80fd5b5060043610610029575f3560e01c80636bb8d6cd1461002d575b5f80fd5b61004760048036038101906100429190612411565b61005d565b604051610054919061246b565b60405180910390f35b5f61235a565b5f80600184845f805b8215610096578284059150848202860390508495508094508282028403905082935080925061006c565b60018411156100a3575f80fd5b5f8612156100b15788860195505b85965050505050505092915050565b6040518160208402830181516020830192505f5b82841015610117578185527f30644e72e131a029b85045b68181585d2833e84879b9709143e1f593f00000018451830991506020850194506020840193506100d4565b6101417f30644e72e131a029b85045b68181585d2833e84879b9709143e1f593f000000183610063565b91506020850394506020840393508592505b828411156101bd577f30644e72e131a029b85045b68181585d2833e84879b9709143e1f593f00000018551830990507f30644e72e131a029b85045b68181585d2833e84879b9709143e1f593f0000001845183099150808452602085039450602084039350610153565b81845250505050505050565b7f30644e72e131a029b85045b68181585d2833e84879b9709143e1f593f000000181106101f8575f805260205ff35b50565b610207610244356101c9565b610213610264356101c9565b61021f610284356101c9565b61022b6102a4356101c9565b6102376102c4356101c9565b6102436102e4356101c9565b565b5f806040517f12cabed0860fd0c7523116717e099ff5873bfd63b6a1c93cd14d541f736cc5a481527f16b4580220d86fe615052b231061e22eb3a69929aa6e9462ddf283ed1824dc4b60208201527f1e22a60ab8d544baef5ed2abe5523ed54dc310dbd69e30ce775e062988073a9160408201527f2f162404095b604bfb90edac58822aecb21a59a572cdcf57be80cc3b6b409bd860608201527f0a5f796462d2f0c42a1020b4b3e6ec9f1609482abd07c141d4d40eebc605df8e60808201527f13b02773912fc303ec930ba19fb7a120240b80dd140372cf33f33e3a9a3fd29460a08201527f08c40db668f4e04d2538c8928eb7d9301cecb22c92f16d54ee3e1646b6a06e3c60c08201527f147349901ab69878711fd82e018690edab81d40103b3934cca71c6c5b7b309fa60e08201527f0cc3dff60358b99779a35abab1825c38faa91024e30215269e84f91abb376f9b6101008201527f0c33e564e4dc5a01b0e8877b1a81e47a7056537f697d404be791ad79d94f49496101208201527f0c3985602038d5eef94a31160a1031a6564ba2a69d709eaa1f2b5b3ee89234f16101408201527f1f45644e6dac9a6aed6e8d6716b3d37d2f0fdb2c9bc0c32b7d24c293ad0ea5306101608201527f01448ea5436c1c69d2ffb9e2641aea2da43b8b371fac2550d5cb464a33225e7a6101808201527f1b781cb84343789ad0cd3fa896de791ae4daa3b13a94043cb75d522b768a8bf36101a08201527f0e4f9795b9116336bf3a3320dea3a0245a2f701ea2ed336636cb02e6faa44cc86101c08201527f0ba1017e695ce55339a862dff8d3a67ced9b177e9a23aaf5eaa444620b0fdde36101e08201525f850135610200820152602085013561022082015260408501356102408201526060850135610260820152608085013561028082015260a08501356102a082015260c08501356102c08201526004356102e08201526020600401356103008201526044356103208201526020604401356103408201526084356103608201526020608401356103808201527f30644e72e131a029b85045b68181585d2833e84879b9709143e1f593f00000016103a082200692508260208501527f30644e72e131a029b85045b68181585d2833e84879b9709143e1f593f0000001602080860120066040850152602084015181526040840151602082015260c4356040820152602060c4013560608201527f30644e72e131a029b85045b68181585d2833e84879b9709143e1f593f000000160808220069150815f8501527f30644e72e131a029b85045b68181585d2833e84879b9709143e1f593f00000018283096102c08501528181526101043560208201526020610104013560408201526101443560608201526020610144013560808201526101843560a08201526020610184013560c08201527f30644e72e131a029b85045b68181585d2833e84879b9709143e1f593f000000160e082200691508160608501528181526102443560208201526102643560408201526102843560608201526102a43560808201526102c43560a08201526102e43560c08201527f30644e72e131a029b85045b68181585d2833e84879b9709143e1f593f000000160e08220068060c08601527f30644e72e131a029b85045b68181585d2833e84879b9709143e1f593f000000183850960a08601527f30644e72e131a029b85045b68181585d2833e84879b9709143e1f593f000000183840992507f30644e72e131a029b85045b68181585d2833e84879b9709143e1f593f000000183840992507f30644e72e131a029b85045b68181585d2833e84879b9709143e1f593f000000183840992507f30644e72e131a029b85045b68181585d2833e84879b9709143e1f593f000000183840992507f30644e72e131a029b85045b68181585d2833e84879b9709143e1f593f000000183840992507f30644e72e131a029b85045b68181585d2833e84879b9709143e1f593f000000183840992507f30644e72e131a029b85045b68181585d2833e84879b9709143e1f593f000000183840992507f30644e72e131a029b85045b68181585d2833e84879b9709143e1f593f000000183840992507f30644e72e131a029b85045b68181585d2833e84879b9709143e1f593f000000183840992507f30644e72e131a029b85045b68181585d2833e84879b9709143e1f593f000000183840992507f30644e72e131a029b85045b68181585d2833e84879b9709143e1f593f000000183840992507f30644e72e131a029b85045b68181585d2833e84879b9709143e1f593f000000183840992507f30644e72e131a029b85045b68181585d2833e84879b9709143e1f593f000000183840992508260808601527f30644e72e131a029b85045b68181585d2833e84879b9709143e1f593f0000001806001850301069250826102e0860152826103008601527f30644e72e131a029b85045b68181585d2833e84879b9709143e1f593f000000181820992508260e08601527f30644e72e131a029b85045b68181585d2833e84879b9709143e1f593f00000018184099250826101008601527f30644e72e131a029b85045b68181585d2833e84879b9709143e1f593f00000018184099250826101208601527f30644e72e131a029b85045b68181585d2833e84879b9709143e1f593f00000018184099250826101408601526101c435825260206101c4013560208301526102043560408301526020610204013560608301527f30644e72e131a029b85045b68181585d2833e84879b9709143e1f593f00000016080832006610160860152505050505050565b60017f30644e72e131a029b85045b68181585d2833e84879b9709143e1f593f0000001807f30644e72e131a029b85045b68181585d2833e84879b9709143e1f593f0000001836060860151030106612000096103208301527f30644e72e131a029b85045b68181585d2833e84879b9709143e1f593f00000017e6fab49b869ae62001deac878b2667bd31bf3e28e3a2d764aa49b8d9bbdd310820990507f30644e72e131a029b85045b68181585d2833e84879b9709143e1f593f0000001807f30644e72e131a029b85045b68181585d2833e84879b9709143e1f593f0000001836060860151030106612000096103408301527f30644e72e131a029b85045b68181585d2833e84879b9709143e1f593f00000017e6fab49b869ae62001deac878b2667bd31bf3e28e3a2d764aa49b8d9bbdd310820990507f30644e72e131a029b85045b68181585d2833e84879b9709143e1f593f0000001807f30644e72e131a029b85045b68181585d2833e84879b9709143e1f593f0000001836060860151030106612000096103608301527f30644e72e131a029b85045b68181585d2833e84879b9709143e1f593f00000017e6fab49b869ae62001deac878b2667bd31bf3e28e3a2d764aa49b8d9bbdd310820990507f30644e72e131a029b85045b68181585d2833e84879b9709143e1f593f0000001807f30644e72e131a029b85045b68181585d2833e84879b9709143e1f593f0000001836060860151030106612000096103808301527f30644e72e131a029b85045b68181585d2833e84879b9709143e1f593f00000017e6fab49b869ae62001deac878b2667bd31bf3e28e3a2d764aa49b8d9bbdd310820990507f30644e72e131a029b85045b68181585d2833e84879b9709143e1f593f0000001807f30644e72e131a029b85045b68181585d2833e84879b9709143e1f593f0000001836060860151030106612000096103a08301527f30644e72e131a029b85045b68181585d2833e84879b9709143e1f593f00000017e6fab49b869ae62001deac878b2667bd31bf3e28e3a2d764aa49b8d9bbdd310820990507f30644e72e131a029b85045b68181585d2833e84879b9709143e1f593f0000001807f30644e72e131a029b85045b68181585d2833e84879b9709143e1f593f0000001836060860151030106612000096103c08301527f30644e72e131a029b85045b68181585d2833e84879b9709143e1f593f00000017e6fab49b869ae62001deac878b2667bd31bf3e28e3a2d764aa49b8d9bbdd310820990507f30644e72e131a029b85045b68181585d2833e84879b9709143e1f593f0000001807f30644e72e131a029b85045b68181585d2833e84879b9709143e1f593f0000001836060860151030106612000096103e0830152610e52600861030084016100c0565b6102e0820151600191507f30644e72e131a029b85045b68181585d2833e84879b9709143e1f593f000000181610320850151096103208401527f30644e72e131a029b85045b68181585d2833e84879b9709143e1f593f00000017e6fab49b869ae62001deac878b2667bd31bf3e28e3a2d764aa49b8d9bbdd310830991507f30644e72e131a029b85045b68181585d2833e84879b9709143e1f593f000000180826103408601510983096103408401527f30644e72e131a029b85045b68181585d2833e84879b9709143e1f593f00000017e6fab49b869ae62001deac878b2667bd31bf3e28e3a2d764aa49b8d9bbdd310830991507f30644e72e131a029b85045b68181585d2833e84879b9709143e1f593f000000180826103608601510983096103608401527f30644e72e131a029b85045b68181585d2833e84879b9709143e1f593f00000017e6fab49b869ae62001deac878b2667bd31bf3e28e3a2d764aa49b8d9bbdd310830991507f30644e72e131a029b85045b68181585d2833e84879b9709143e1f593f000000180826103808601510983096103808401527f30644e72e131a029b85045b68181585d2833e84879b9709143e1f593f00000017e6fab49b869ae62001deac878b2667bd31bf3e28e3a2d764aa49b8d9bbdd310830991507f30644e72e131a029b85045b68181585d2833e84879b9709143e1f593f000000180826103a08601510983096103a08401527f30644e72e131a029b85045b68181585d2833e84879b9709143e1f593f00000017e6fab49b869ae62001deac878b2667bd31bf3e28e3a2d764aa49b8d9bbdd310830991507f30644e72e131a029b85045b68181585d2833e84879b9709143e1f593f000000180826103c08601510983096103c08401527f30644e72e131a029b85045b68181585d2833e84879b9709143e1f593f00000017e6fab49b869ae62001deac878b2667bd31bf3e28e3a2d764aa49b8d9bbdd310830991507f30644e72e131a029b85045b68181585d2833e84879b9709143e1f593f000000180826103e08601510983096103e0840152505050565b5f7f30644e72e131a029b85045b68181585d2833e84879b9709143e1f593f0000001807f30644e72e131a029b85045b68181585d2833e84879b9709143e1f593f00000015f860135610320860151098303010690507f30644e72e131a029b85045b68181585d2833e84879b9709143e1f593f0000001807f30644e72e131a029b85045b68181585d2833e84879b9709143e1f593f00000016020860135610340860151098303010690507f30644e72e131a029b85045b68181585d2833e84879b9709143e1f593f0000001807f30644e72e131a029b85045b68181585d2833e84879b9709143e1f593f00000016040860135610360860151098303010690507f30644e72e131a029b85045b68181585d2833e84879b9709143e1f593f0000001807f30644e72e131a029b85045b68181585d2833e84879b9709143e1f593f00000016060860135610380860151098303010690507f30644e72e131a029b85045b68181585d2833e84879b9709143e1f593f0000001807f30644e72e131a029b85045b68181585d2833e84879b9709143e1f593f000000160808601356103a0860151098303010690507f30644e72e131a029b85045b68181585d2833e84879b9709143e1f593f0000001807f30644e72e131a029b85045b68181585d2833e84879b9709143e1f593f000000160a08601356103c0860151098303010690507f30644e72e131a029b85045b68181585d2833e84879b9709143e1f593f0000001807f30644e72e131a029b85045b68181585d2833e84879b9709143e1f593f000000160c08601356103e08601510983030106905080610180830152505050565b6101808101517f30644e72e131a029b85045b68181585d2833e84879b9709143e1f593f00000016102c0830151610320840151097f30644e72e131a029b85045b68181585d2833e84879b9709143e1f593f0000001806102a43560208601510961024435087f30644e72e131a029b85045b68181585d2833e84879b9709143e1f593f00000016040850151820890507f30644e72e131a029b85045b68181585d2833e84879b9709143e1f593f0000001806102c43560208701510961026435087f30644e72e131a029b85045b68181585d2833e84879b9709143e1f593f00000016040860151820890507f30644e72e131a029b85045b68181585d2833e84879b9709143e1f593f0000001604086015161028435087f30644e72e131a029b85045b68181585d2833e84879b9709143e1f593f0000001817f30644e72e131a029b85045b68181585d2833e84879b9709143e1f593f0000001848609097f30644e72e131a029b85045b68181585d2833e84879b9709143e1f593f00000016102e435820990507f30644e72e131a029b85045b68181585d2833e84879b9709143e1f593f00000015f880151820990507f30644e72e131a029b85045b68181585d2833e84879b9709143e1f593f000000180867f30644e72e131a029b85045b68181585d2833e84879b9709143e1f593f0000001030687087f30644e72e131a029b85045b68181585d2833e84879b9709143e1f593f000000180837f30644e72e131a029b85045b68181585d2833e84879b9709143e1f593f0000001030682089050806101a08901525050505050505050565b81518152602082015160208201525050565b818152826020820152505050565b81358152602082013560208201525050565b6040518151815260208201516020820152825160408201526020830151606082015260408260808360066107d05a03fa80611679575f805260205ff35b50505050565b5f60405183815284602082015285604082015260408160608360076107d05a03fa9150816116af575f805260205ff35b825160408201526020830151606082015260408360808360066107d05a03fa9150816116dd575f805260205ff35b505050505050565b5f60405183815284602082015285604082015260408360608360076107d05a03fa915081611715575f805260205ff35b505050505050565b61172e8360208401518451846116e5565b505050565b6101c08101604082015160405161010081016040526117937f0c33e564e4dc5a01b0e8877b1a81e47a7056537f697d404be791ad79d94f49497f0cc3dff60358b99779a35abab1825c38faa91024e30215269e84f91abb376f9b8561161c565b6118087f30644e72e131a029b85045b68181585d2833e84879b9709143e1f593f00000016102643561024435097f16b4580220d86fe615052b231061e22eb3a69929aa6e9462ddf283ed1824dc4b7f12cabed0860fd0c7523116717e099ff5873bfd63b6a1c93cd14d541f736cc5a48661167f565b611857610244357f2f162404095b604bfb90edac58822aecb21a59a572cdcf57be80cc3b6b409bd87f1e22a60ab8d544baef5ed2abe5523ed54dc310dbd69e30ce775e062988073a918661167f565b6118a6610264357f13b02773912fc303ec930ba19fb7a120240b80dd140372cf33f33e3a9a3fd2947f0a5f796462d2f0c42a1020b4b3e6ec9f1609482abd07c141d4d40eebc605df8e8661167f565b6118f5610284357f147349901ab69878711fd82e018690edab81d40103b3934cca71c6c5b7b309fa7f08c40db668f4e04d2538c8928eb7d9301cecb22c92f16d54ee3e1646b6a06e3c8661167f565b60a08401517f30644e72e131a029b85045b68181585d2833e84879b9709143e1f593f0000001837f30644e72e131a029b85045b68181585d2833e84879b9709143e1f593f0000001836102443508087f30644e72e131a029b85045b68181585d2833e84879b9709143e1f593f0000001847f30644e72e131a029b85045b68181585d2833e84879b9709143e1f593f000000180600286096102643508087f30644e72e131a029b85045b68181585d2833e84879b9709143e1f593f0000001857f30644e72e131a029b85045b68181585d2833e84879b9709143e1f593f000000180600387096102843508087f30644e72e131a029b85045b68181585d2833e84879b9709143e1f593f00000015f8901517f30644e72e131a029b85045b68181585d2833e84879b9709143e1f593f0000001837f30644e72e131a029b85045b68181585d2833e84879b9709143e1f593f000000186880909097f30644e72e131a029b85045b68181585d2833e84879b9709143e1f593f00000016102c08a01516103208b015109611a8960c460c0890161162a565b611ae27f30644e72e131a029b85045b68181585d2833e84879b9709143e1f593f00000016101608c01517f30644e72e131a029b85045b68181585d2833e84879b9709143e1f593f00000018486080860c089018961171d565b7f30644e72e131a029b85045b68181585d2833e84879b9709143e1f593f0000001887f30644e72e131a029b85045b68181585d2833e84879b9709143e1f593f0000001806102a43560208f01510961024435080894507f30644e72e131a029b85045b68181585d2833e84879b9709143e1f593f0000001887f30644e72e131a029b85045b68181585d2833e84879b9709143e1f593f0000001806102c43560208f01510961026435080893507f30644e72e131a029b85045b68181585d2833e84879b9709143e1f593f00000016102e4357f30644e72e131a029b85045b68181585d2833e84879b9709143e1f593f000000160208d01515f8e015109099250611c767f30644e72e131a029b85045b68181585d2833e84879b9709143e1f593f0000001847f30644e72e131a029b85045b68181585d2833e84879b9709143e1f593f0000001878909097f0ba1017e695ce55339a862dff8d3a67ced9b177e9a23aaf5eaa444620b0fdde37f0e4f9795b9116336bf3a3320dea3a0245a2f701ea2ed336636cb02e6faa44cc860408b016116e5565b611c856101046080890161162a565b611ca160808b0151602061014401356101443560808b0161167f565b7f30644e72e131a029b85045b68181585d2833e84879b9709143e1f593f000000160808b015160808c015109611ce581602061018401356101843560808c0161167f565b611d016102e08c015160a08a015160808b015160808c016116e5565b7f30644e72e131a029b85045b68181585d97816a916871ca8d3c208c16d87cfd47602060408a0101517f30644e72e131a029b85045b68181585d97816a916871ca8d3c208c16d87cfd470306602060408a0101527f30644e72e131a029b85045b68181585d97816a916871ca8d3c208c16d87cfd4760a08901517f30644e72e131a029b85045b68181585d97816a916871ca8d3c208c16d87cfd47030660a0890152611dad888b61163c565b611dba604089018b61163c565b611dc7608089018b61163c565b5050505050505050505050565b6102008101611de76101c083018261160a565b611dfe60c08301516020600401356004358461167f565b611e1560e08301516020604401356044358461167f565b611e2d6101008301516020608401356084358461167f565b611e7e6101208301517f1f45644e6dac9a6aed6e8d6716b3d37d2f0fdb2c9bc0c32b7d24c293ad0ea5307f0c3985602038d5eef94a31160a1031a6564ba2a69d709eaa1f2b5b3ee89234f18461167f565b611ecf6101408301517f1b781cb84343789ad0cd3fa896de791ae4daa3b13a94043cb75d522b768a8bf37f01448ea5436c1c69d2ffb9e2641aea2da43b8b371fac2550d5cb464a33225e7a8461167f565b5050565b7f30644e72e131a029b85045b68181585d2833e84879b9709143e1f593f00000016101a08201517f30644e72e131a029b85045b68181585d2833e84879b9709143e1f593f000000103067f30644e72e131a029b85045b68181585d2833e84879b9709143e1f593f00000018060c08401516102443509820890507f30644e72e131a029b85045b68181585d2833e84879b9709143e1f593f00000018060e08401516102643509820890507f30644e72e131a029b85045b68181585d2833e84879b9709143e1f593f0000001806101008401516102843509820890507f30644e72e131a029b85045b68181585d2833e84879b9709143e1f593f0000001806101208401516102a43509820890507f30644e72e131a029b85045b68181585d2833e84879b9709143e1f593f0000001806101408401516102c43509820890507f30644e72e131a029b85045b68181585d2833e84879b9709143e1f593f0000001806101608401516102e4350982089050612053816002600161024086016116e5565b5050565b5f604051610240810160405261018081016101c08201610200830161207e6101c48461162a565b61208a6102048361162a565b61209a610160870151838661171d565b6120a4838561163c565b7f30644e72e131a029b85045b68181585d97816a916871ca8d3c208c16d87cfd4760208501517f30644e72e131a029b85045b68181585d97816a916871ca8d3c208c16d87cfd47030660208501527f26186a2d65ee4d2f9c9a5b91f86597d35f192cd120caf7e935d8443d1938e23d60408501527f30441fd1b5d3370482c42152a8899027716989a6996c2535bc9f7fee8aaef79e60608501527f1970ea81dd6992adfbc571effb03503adbbb6a857f578403c6c40e22d65b3c0260808501527f054793348f12c0cf5622c340573cb277586319de359ab9389778f689786b1e4860a085015261219c60608701518460c0870161171d565b7f30644e72e131a029b85045b68181585d2833e84879b9709143e1f593f00000016060870151610160880151097f30644e72e131a029b85045b68181585d2833e84879b9709143e1f593f00000017e6fab49b869ae62001deac878b2667bd31bf3e28e3a2d764aa49b8d9bbdd3108209905061221981848461171d565b6122268260c0870161163c565b612237610200880160c0870161163c565b7f30644e72e131a029b85045b68181585d97816a916871ca8d3c208c16d87cfd476020610240018801517f30644e72e131a029b85045b68181585d97816a916871ca8d3c208c16d87cfd47030660206102400188015261229e610240880160c0870161163c565b7f198e9393920d483a7260bfb731fb5d25f1aa493335a9e71297e485b7aef312c26101008601527f1800deef121f1e76426a00665e5c4479674322d4f75edadd46debd5cd992f6ed6101208601527f090689d0585ff075ec9e99ad690c3395bc4b313370b38ef355acdadcd122975b6101408601527f12c85ea5db8c6deb4aab71808dcb408fe3d1e7690c43d37b4ce6cc0166fa7daa6101608601526020856101808760086107d05a03fa855181169650505050505050919050565b604051610400810160405261236d6101fb565b6123778382610245565b61238081610a49565b61238a838261115a565b612393816113b9565b61239c81611733565b6123a581611dd4565b6123ae81611ed3565b6123b781612057565b6104008203604052805f5260205ff35b5f80fd5b5f80fd5b5f819050826020601802820111156123ea576123e96123cb565b5b92915050565b5f8190508260206007028201111561240b5761240a6123cb565b5b92915050565b5f806103e08385031215612428576124276123c7565b5b5f612435858286016123cf565b925050610300612447858286016123f0565b9150509250929050565b5f8115159050919050565b61246581612451565b82525050565b5f60208201905061247e5f83018461245c565b9291505056fea264697066735822122092bd35d990cc1305313d2606a4359e0bc017764edc0dcf81a43fd75cae34416e64736f6c634300081a0033",
					"opcodes": "PUSH1 0x80 PUSH1 0x40 MSTORE CALLVALUE DUP1 ISZERO PUSH1 0xE JUMPI PUSH0 DUP1 REVERT JUMPDEST POP PUSH2 0x24BA DUP1 PUSH2 0x1C PUSH0 CODECOPY PUSH0 RETURN INVALID PUSH1 0x80 PUSH1 0x40 MSTORE CALLVALUE DUP1 ISZERO PUSH2 0xF JUMPI PUSH0 DUP1 REVERT JUMPDEST POP PUSH1 0x4 CALLDATASIZE LT PUSH2 0x29 JUMPI PUSH0 CALLDATALOAD PUSH1 0xE0 SHR DUP1 PUSH4 0x6BB8D6CD EQ PUSH2 0x2D JUMPI JUMPDEST PUSH0 DUP1 REVERT JUMPDEST PUSH2 0x47 PUSH1 0x4 DUP1 CALLDATASIZE SUB DUP2 ADD SWAP1 PUSH2 0x42 SWAP2 SWAP1 PUSH2 0x2411 JUMP JUMPDEST PUSH2 0x5D JUMP JUMPDEST PUSH1 0x40 MLOAD PUSH2 0x54 SWAP2 SWAP1 PUSH2 0x246B JUMP JUMPDEST PUSH1 0x40 MLOAD DUP1 SWAP2 SUB SWAP1 RETURN JUMPDEST PUSH0 PUSH2 0x235A JUMP JUMPDEST PUSH0 DUP1 PUSH1 0x1 DUP5 DUP5 PUSH0 DUP1 JUMPDEST DUP3 ISZERO PUSH2 0x96 JUMPI DUP3 DUP5 SDIV SWAP2 POP DUP5 DUP3 MUL DUP7 SUB SWAP1 POP DUP5 SWAP6 POP DUP1 SWAP5 POP DUP3 DUP3 MUL DUP5 SUB SWAP1 POP DUP3 SWAP4 POP DUP1 SWAP3 POP PUSH2 0x6C JUMP JUMPDEST PUSH1 0x1 DUP5 GT ISZERO PUSH2 0xA3 JUMPI PUSH0 DUP1 REVERT JUMPDEST PUSH0 DUP7 SLT ISZERO PUSH2 0xB1 JUMPI DUP9 DUP7 ADD SWAP6 POP JUMPDEST DUP6 SWAP7 POP POP POP POP POP POP POP SWAP3 SWAP2 POP POP JUMP JUMPDEST PUSH1 0x40 MLOAD DUP2 PUSH1 0x20 DUP5 MUL DUP4 ADD DUP2 MLOAD PUSH1 0x20 DUP4 ADD SWAP3 POP PUSH0 JUMPDEST DUP3 DUP5 LT ISZERO PUSH2 0x117 JUMPI DUP2 DUP6 MSTORE PUSH32 0x30644E72E131A029B85045B68181585D2833E84879B9709143E1F593F0000001 DUP5 MLOAD DUP4 MULMOD SWAP2 POP PUSH1 0x20 DUP6 ADD SWAP5 POP PUSH1 0x20 DUP5 ADD SWAP4 POP PUSH2 0xD4 JUMP JUMPDEST PUSH2 0x141 PUSH32 0x30644E72E131A029B85045B68181585D2833E84879B9709143E1F593F0000001 DUP4 PUSH2 0x63 JUMP JUMPDEST SWAP2 POP PUSH1 0x20 DUP6 SUB SWAP5 POP PUSH1 0x20 DUP5 SUB SWAP4 POP DUP6 SWAP3 POP JUMPDEST DUP3 DUP5 GT ISZERO PUSH2 0x1BD JUMPI PUSH32 0x30644E72E131A029B85045B68181585D2833E84879B9709143E1F593F0000001 DUP6 MLOAD DUP4 MULMOD SWAP1 POP PUSH32 0x30644E72E131A029B85045B68181585D2833E84879B9709143E1F593F0000001 DUP5 MLOAD DUP4 MULMOD SWAP2 POP DUP1 DUP5 MSTORE PUSH1 0x20 DUP6 SUB SWAP5 POP PUSH1 0x20 DUP5 SUB SWAP4 POP PUSH2 0x153 JUMP JUMPDEST DUP2 DUP5 MSTORE POP POP POP POP POP POP POP JUMP JUMPDEST PUSH32 0x30644E72E131A029B85045B68181585D2833E84879B9709143E1F593F0000001 DUP2 LT PUSH2 0x1F8 JUMPI PUSH0 DUP1 MSTORE PUSH1 0x20 PUSH0 RETURN JUMPDEST POP JUMP JUMPDEST PUSH2 0x207 PUSH2 0x244 CALLDATALOAD PUSH2 0x1C9 JUMP JUMPDEST PUSH2 0x213 PUSH2 0x264 CALLDATALOAD PUSH2 0x1C9 JUMP JUMPDEST PUSH2 0x21F PUSH2 0x284 CALLDATALOAD PUSH2 0x1C9 JUMP JUMPDEST PUSH2 0x22B PUSH2 0x2A4 CALLDATALOAD PUSH2 0x1C9 JUMP JUMPDEST PUSH2 0x237 PUSH2 0x2C4 CALLDATALOAD PUSH2 0x1C9 JUMP JUMPDEST PUSH2 0x243 PUSH2 0x2E4 CALLDATALOAD PUSH2 0x1C9 JUMP JUMPDEST JUMP JUMPDEST PUSH0 DUP1 PUSH1 0x40 MLOAD PUSH32 0x12CABED0860FD0C7523116717E099FF5873BFD63B6A1C93CD14D541F736CC5A4 DUP2 MSTORE PUSH32 0x16B4580220D86FE615052B231061E22EB3A69929AA6E9462DDF283ED1824DC4B PUSH1 0x20 DUP3 ADD MSTORE PUSH32 0x1E22A60AB8D544BAEF5ED2ABE5523ED54DC310DBD69E30CE775E062988073A91 PUSH1 0x40 DUP3 ADD MSTORE PUSH32 0x2F162404095B604BFB90EDAC58822AECB21A59A572CDCF57BE80CC3B6B409BD8 PUSH1 0x60 DUP3 ADD MSTORE PUSH32 0xA5F796462D2F0C42A1020B4B3E6EC9F1609482ABD07C141D4D40EEBC605DF8E PUSH1 0x80 DUP3 ADD MSTORE PUSH32 0x13B02773912FC303EC930BA19FB7A120240B80DD140372CF33F33E3A9A3FD294 PUSH1 0xA0 DUP3 ADD MSTORE PUSH32 0x8C40DB668F4E04D2538C8928EB7D9301CECB22C92F16D54EE3E1646B6A06E3C PUSH1 0xC0 DUP3 ADD MSTORE PUSH32 0x147349901AB69878711FD82E018690EDAB81D40103B3934CCA71C6C5B7B309FA PUSH1 0xE0 DUP3 ADD MSTORE PUSH32 0xCC3DFF60358B99779A35ABAB1825C38FAA91024E30215269E84F91ABB376F9B PUSH2 0x100 DUP3 ADD MSTORE PUSH32 0xC33E564E4DC5A01B0E8877B1A81E47A7056537F697D404BE791AD79D94F4949 PUSH2 0x120 DUP3 ADD MSTORE PUSH32 0xC3985602038D5EEF94A31160A1031A6564BA2A69D709EAA1F2B5B3EE89234F1 PUSH2 0x140 DUP3 ADD MSTORE PUSH32 0x1F45644E6DAC9A6AED6E8D6716B3D37D2F0FDB2C9BC0C32B7D24C293AD0EA530 PUSH2 0x160 DUP3 ADD MSTORE PUSH32 0x1448EA5436C1C69D2FFB9E2641AEA2DA43B8B371FAC2550D5CB464A33225E7A PUSH2 0x180 DUP3 ADD MSTORE PUSH32 0x1B781CB84343789AD0CD3FA896DE791AE4DAA3B13A94043CB75D522B768A8BF3 PUSH2 0x1A0 DUP3 ADD MSTORE PUSH32 0xE4F9795B9116336BF3A3320DEA3A0245A2F701EA2ED336636CB02E6FAA44CC8 PUSH2 0x1C0 DUP3 ADD MSTORE PUSH32 0xBA1017E695CE55339A862DFF8D3A67CED9B177E9A23AAF5EAA444620B0FDDE3 PUSH2 0x1E0 DUP3 ADD MSTORE PUSH0 DUP6 ADD CALLDATALOAD PUSH2 0x200 DUP3 ADD MSTORE PUSH1 0x20 DUP6 ADD CALLDATALOAD PUSH2 0x220 DUP3 ADD MSTORE PUSH1 0x40 DUP6 ADD CALLDATALOAD PUSH2 0x240 DUP3 ADD MSTORE PUSH1 0x60 DUP6 ADD CALLDATALOAD PUSH2 0x260 DUP3 ADD MSTORE PUSH1 0x80 DUP6 ADD CALLDATALOAD PUSH2 0x280 DUP3 ADD MSTORE PUSH1 0xA0 DUP6 ADD CALLDATALOAD PUSH2 0x2A0 DUP3 ADD MSTORE PUSH1 0xC0 DUP6 ADD CALLDATALOAD PUSH2 0x2C0 DUP3 ADD MSTORE PUSH1 0x4 CALLDATALOAD PUSH2 0x2E0 DUP3 ADD MSTORE PUSH1 0x20 PUSH1 0x4 ADD CALLDATALOAD PUSH2 0x300 DUP3 ADD MSTORE PUSH1 0x44 CALLDATALOAD PUSH2 0x320 DUP3 ADD MSTORE PUSH1 0x20 PUSH1 0x44 ADD CALLDATALOAD PUSH2 0x340 DUP3 ADD MSTORE PUSH1 0x84 CALLDATALOAD PUSH2 0x360 DUP3 ADD MSTORE PUSH1 0x20 PUSH1 0x84 ADD CALLDATALOAD PUSH2 0x380 DUP3 ADD MSTORE PUSH32 0x30644E72E131A029B85045B68181585D2833E84879B9709143E1F593F0000001 PUSH2 0x3A0 DUP3 KECCAK256 MOD SWAP3 POP DUP3 PUSH1 0x20 DUP6 ADD MSTORE PUSH32 0x30644E72E131A029B85045B68181585D2833E84879B9709143E1F593F0000001 PUSH1 0x20 DUP1 DUP7 ADD KECCAK256 MOD PUSH1 0x40 DUP6 ADD MSTORE PUSH1 0x20 DUP5 ADD MLOAD DUP2 MSTORE PUSH1 0x40 DUP5 ADD MLOAD PUSH1 0x20 DUP3 ADD MSTORE PUSH1 0xC4 CALLDATALOAD PUSH1 0x40 DUP3 ADD MSTORE PUSH1 0x20 PUSH1 0xC4 ADD CALLDATALOAD PUSH1 0x60 DUP3 ADD MSTORE PUSH32 0x30644E72E131A029B85045B68181585D2833E84879B9709143E1F593F0000001 PUSH1 0x80 DUP3 KECCAK256 MOD SWAP2 POP DUP2 PUSH0 DUP6 ADD MSTORE PUSH32 0x30644E72E131A029B85045B68181585D2833E84879B9709143E1F593F0000001 DUP3 DUP4 MULMOD PUSH2 0x2C0 DUP6 ADD MSTORE DUP2 DUP2 MSTORE PUSH2 0x104 CALLDATALOAD PUSH1 0x20 DUP3 ADD MSTORE PUSH1 0x20 PUSH2 0x104 ADD CALLDATALOAD PUSH1 0x40 DUP3 ADD MSTORE PUSH2 0x144 CALLDATALOAD PUSH1 0x60 DUP3 ADD MSTORE PUSH1 0x20 PUSH2 0x144 ADD CALLDATALOAD PUSH1 0x80 DUP3 ADD MSTORE PUSH2 0x184 CALLDATALOAD PUSH1 0xA0 DUP3 ADD MSTORE PUSH1 0x20 PUSH2 0x184 ADD CALLDATALOAD PUSH1 0xC0 DUP3 ADD MSTORE PUSH32 0x30644E72E131A029B85045B68181585D2833E84879B9709143E1F593F0000001 PUSH1 0xE0 DUP3 KECCAK256 MOD SWAP2 POP DUP2 PUSH1 0x60 DUP6 ADD MSTORE DUP2 DUP2 MSTORE PUSH2 0x244 CALLDATALOAD PUSH1 0x20 DUP3 ADD MSTORE PUSH2 0x264 CALLDATALOAD PUSH1 0x40 DUP3 ADD MSTORE PUSH2 0x284 CALLDATALOAD PUSH1 0x60 DUP3 ADD MSTORE PUSH2 0x2A4 CALLDATALOAD PUSH1 0x80 DUP3 ADD MSTORE PUSH2 0x2C4 CALLDATALOAD PUSH1 0xA0 DUP3 ADD MSTORE PUSH2 0x2E4 CALLDATALOAD PUSH1 0xC0 DUP3 ADD MSTORE PUSH32 0x30644E72E131A029B85045B68181585D2833E84879B9709143E1F593F0000001 PUSH1 0xE0 DUP3 KECCAK256 MOD DUP1 PUSH1 0xC0 DUP7 ADD MSTORE PUSH32 0x30644E72E131A029B85045B68181585D2833E84879B9709143E1F593F0000001 DUP4 DUP6 MULMOD PUSH1 0xA0 DUP7 ADD MSTORE PUSH32 0x30644E72E131A029B85045B68181585D2833E84879B9709143E1F593F0000001 DUP4 DUP5 MULMOD SWAP3 POP PUSH32 0x30644E72E131A029B85045B68181585D2833E84879B9709143E1F593F0000001 DUP4 DUP5 MULMOD SWAP3 POP PUSH32 0x30644E72E131A029B85045B68181585D2833E84879B9709143E1F593F0000001 DUP4 DUP5 MULMOD SWAP3 POP PUSH32 0x30644E72E131A029B85045B68181585D2833E84879B9709143E1F593F0000001 DUP4 DUP5 MULMOD SWAP3 POP PUSH32 0x30644E72E131A029B85045B68181585D2833E84879B9709143E1F593F0000001 DUP4 DUP5 MULMOD SWAP3 POP PUSH32 0x30644E72E131A029B85045B68181585D2833E84879B9709143E1F593F0000001 DUP4 DUP5 MULMOD SWAP3 POP PUSH32 0x30644E72E131A029B85045B68181585D2833E84879B9709143E1F593F0000001 DUP4 DUP5 MULMOD SWAP3 POP PUSH32 0x30644E72E131A029B85045B68181585D2833E84879B9709143E1F593F0000001 DUP4 DUP5 MULMOD SWAP3 POP PUSH32 0x30644E72E131A029B85045B68181585D2833E84879B9709143E1F593F0000001 DUP4 DUP5 MULMOD SWAP3 POP PUSH32 0x30644E72E131A029B85045B68181585D2833E84879B9709143E1F593F0000001 DUP4 DUP5 MULMOD SWAP3 POP PUSH32 0x30644E72E131A029B85045B68181585D2833E84879B9709143E1F593F0000001 DUP4 DUP5 MULMOD SWAP3 POP PUSH32 0x30644E72E131A029B85045B68181585D2833E84879B9709143E1F593F0000001 DUP4 DUP5 MULMOD SWAP3 POP PUSH32 0x30644E72E131A029B85045B68181585D2833E84879B9709143E1F593F0000001 DUP4 DUP5 MULMOD SWAP3 POP DUP3 PUSH1 0x80 DUP7 ADD MSTORE PUSH32 0x30644E72E131A029B85045B68181585D2833E84879B9709143E1F593F0000001 DUP1 PUSH1 0x1 DUP6 SUB ADD MOD SWAP3 POP DUP3 PUSH2 0x2E0 DUP7 ADD MSTORE DUP3 PUSH2 0x300 DUP7 ADD MSTORE PUSH32 0x30644E72E131A029B85045B68181585D2833E84879B9709143E1F593F0000001 DUP2 DUP3 MULMOD SWAP3 POP DUP3 PUSH1 0xE0 DUP7 ADD MSTORE PUSH32 0x30644E72E131A029B85045B68181585D2833E84879B9709143E1F593F0000001 DUP2 DUP5 MULMOD SWAP3 POP DUP3 PUSH2 0x100 DUP7 ADD MSTORE PUSH32 0x30644E72E131A029B85045B68181585D2833E84879B9709143E1F593F0000001 DUP2 DUP5 MULMOD SWAP3 POP DUP3 PUSH2 0x120 DUP7 ADD MSTORE PUSH32 0x30644E72E131A029B85045B68181585D2833E84879B9709143E1F593F0000001 DUP2 DUP5 MULMOD SWAP3 POP DUP3 PUSH2 0x140 DUP7 ADD MSTORE PUSH2 0x1C4 CALLDATALOAD DUP3 MSTORE PUSH1 0x20 PUSH2 0x1C4 ADD CALLDATALOAD PUSH1 0x20 DUP4 ADD MSTORE PUSH2 0x204 CALLDATALOAD PUSH1 0x40 DUP4 ADD MSTORE PUSH1 0x20 PUSH2 0x204 ADD CALLDATALOAD PUSH1 0x60 DUP4 ADD MSTORE PUSH32 0x30644E72E131A029B85045B68181585D2833E84879B9709143E1F593F0000001 PUSH1 0x80 DUP4 KECCAK256 MOD PUSH2 0x160 DUP7 ADD MSTORE POP POP POP POP POP POP JUMP JUMPDEST PUSH1 0x1 PUSH32 0x30644E72E131A029B85045B68181585D2833E84879B9709143E1F593F0000001 DUP1 PUSH32 0x30644E72E131A029B85045B68181585D2833E84879B9709143E1F593F0000001 DUP4 PUSH1 0x60 DUP7 ADD MLOAD SUB ADD MOD PUSH2 0x2000 MULMOD PUSH2 0x320 DUP4 ADD MSTORE PUSH32 0x30644E72E131A029B85045B68181585D2833E84879B9709143E1F593F0000001 PUSH31 0x6FAB49B869AE62001DEAC878B2667BD31BF3E28E3A2D764AA49B8D9BBDD310 DUP3 MULMOD SWAP1 POP PUSH32 0x30644E72E131A029B85045B68181585D2833E84879B9709143E1F593F0000001 DUP1 PUSH32 0x30644E72E131A029B85045B68181585D2833E84879B9709143E1F593F0000001 DUP4 PUSH1 0x60 DUP7 ADD MLOAD SUB ADD MOD PUSH2 0x2000 MULMOD PUSH2 0x340 DUP4 ADD MSTORE PUSH32 0x30644E72E131A029B85045B68181585D2833E84879B9709143E1F593F0000001 PUSH31 0x6FAB49B869AE62001DEAC878B2667BD31BF3E28E3A2D764AA49B8D9BBDD310 DUP3 MULMOD SWAP1 POP PUSH32 0x30644E72E131A029B85045B68181585D2833E84879B9709143E1F593F0000001 DUP1 PUSH32 0x30644E72E131A029B85045B68181585D2833E84879B9709143E1F593F0000001 DUP4 PUSH1 0x60 DUP7 ADD MLOAD SUB ADD MOD PUSH2 0x2000 MULMOD PUSH2 0x360 DUP4 ADD MSTORE PUSH32 0x30644E72E131A029B85045B68181585D2833E84879B9709143E1F593F0000001 PUSH31 0x6FAB49B869AE62001DEAC878B2667BD31BF3E28E3A2D764AA49B8D9BBDD310 DUP3 MULMOD SWAP1 POP PUSH32 0x30644E72E131A029B85045B68181585D2833E84879B9709143E1F593F0000001 DUP1 PUSH32 0x30644E72E131A029B85045B68181585D2833E84879B9709143E1F593F0000001 DUP4 PUSH1 0x60 DUP7 ADD MLOAD SUB ADD MOD PUSH2 0x2000 MULMOD PUSH2 0x380 DUP4 ADD MSTORE PUSH32 0x30644E72E131A029B85045B68181585D2833E84879B9709143E1F593F0000001 PUSH31 0x6FAB49B869AE62001DEAC878B2667BD31BF3E28E3A2D764AA49B8D9BBDD310 DUP3 MULMOD SWAP1 POP PUSH32 0x30644E72E131A029B85045B68181585D2833E84879B9709143E1F593F0000001 DUP1 PUSH32 0x30644E72E131A029B85045B68181585D2833E84879B9709143E1F593F0000001 DUP4 PUSH1 0x60 DUP7 ADD MLOAD SUB ADD MOD PUSH2 0x2000 MULMOD PUSH2 0x3A0 DUP4 ADD MSTORE PUSH32 0x30644E72E131A029B85045B68181585D2833E84879B9709143E1F593F0000001 PUSH31 0x6FAB49B869AE62001DEAC878B2667BD31BF3E28E3A2D764AA49B8D9BBDD310 DUP3 MULMOD SWAP1 POP PUSH32 0x30644E72E131A029B85045B68181585D2833E84879B9709143E1F593F0000001 DUP1 PUSH32 0x30644E72E131A029B85045B68181585D2833E84879B9709143E1F593F0000001 DUP4 PUSH1 0x60 DUP7 ADD MLOAD SUB ADD MOD PUSH2 0x2000 MULMOD PUSH2 0x3C0 DUP4 ADD MSTORE PUSH32 0x30644E72E131A029B85045B68181585D2833E84879B9709143E1F593F0000001 PUSH31 0x6FAB49B869AE62001DEAC878B2667BD31BF3E28E3A2D764AA49B8D9BBDD310 DUP3 MULMOD SWAP1 POP PUSH32 0x30644E72E131A029B85045B68181585D2833E84879B9709143E1F593F0000001 DUP1 PUSH32 0x30644E72E131A029B85045B68181585D2833E84879B9709143E1F593F0000001 DUP4 PUSH1 0x60 DUP7 ADD MLOAD SUB ADD MOD PUSH2 0x2000 MULMOD PUSH2 0x3E0 DUP4 ADD MSTORE PUSH2 0xE52 PUSH1 0x8 PUSH2 0x300 DUP5 ADD PUSH2 0xC0 JUMP JUMPDEST PUSH2 0x2E0 DUP3 ADD MLOAD PUSH1 0x1 SWAP2 POP PUSH32 0x30644E72E131A029B85045B68181585D2833E84879B9709143E1F593F0000001 DUP2 PUSH2 0x320 DUP6 ADD MLOAD MULMOD PUSH2 0x320 DUP5 ADD MSTORE PUSH32 0x30644E72E131A029B85045B68181585D2833E84879B9709143E1F593F0000001 PUSH31 0x6FAB49B869AE62001DEAC878B2667BD31BF3E28E3A2D764AA49B8D9BBDD310 DUP4 MULMOD SWAP2 POP PUSH32 0x30644E72E131A029B85045B68181585D2833E84879B9709143E1F593F0000001 DUP1 DUP3 PUSH2 0x340 DUP7 ADD MLOAD MULMOD DUP4 MULMOD PUSH2 0x340 DUP5 ADD MSTORE PUSH32 0x30644E72E131A029B85045B68181585D2833E84879B9709143E1F593F0000001 PUSH31 0x6FAB49B869AE62001DEAC878B2667BD31BF3E28E3A2D764AA49B8D9BBDD310 DUP4 MULMOD SWAP2 POP PUSH32 0x30644E72E131A029B85045B68181585D2833E84879B9709143E1F593F0000001 DUP1 DUP3 PUSH2 0x360 DUP7 ADD MLOAD MULMOD DUP4 MULMOD PUSH2 0x360 DUP5 ADD MSTORE PUSH32 0x30644E72E131A029B85045B68181585D2833E84879B9709143E1F593F0000001 PUSH31 0x6FAB49B869AE62001DEAC878B2667BD31BF3E28E3A2D764AA49B8D9BBDD310 DUP4 MULMOD SWAP2 POP PUSH32 0x30644E72E131A029B85045B68181585D2833E84879B9709143E1F593F0000001 DUP1 DUP3 PUSH2 0x380 DUP7 ADD MLOAD MULMOD DUP4 MULMOD PUSH2 0x380 DUP5 ADD MSTORE PUSH32 0x30644E72E131A029B85045B68181585D2833E84879B9709143E1F593F0000001 PUSH31 0x6FAB49B869AE62001DEAC878B2667BD31BF3E28E3A2D764AA49B8D9BBDD310 DUP4 MULMOD SWAP2 POP PUSH32 0x30644E72E131A029B85045B68181585D2833E84879B9709143E1F593F0000001 DUP1 DUP3 PUSH2 0x3A0 DUP7 ADD MLOAD MULMOD DUP4 MULMOD PUSH2 0x3A0 DUP5 ADD MSTORE PUSH32 0x30644E72E131A029B85045B68181585D2833E84879B9709143E1F593F0000001 PUSH31 0x6FAB49B869AE62001DEAC878B2667BD31BF3E28E3A2D764AA49B8D9BBDD310 DUP4 MULMOD SWAP2 POP PUSH32 0x30644E72E131A029B85045B68181585D2833E84879B9709143E1F593F0000001 DUP1 DUP3 PUSH2 0x3C0 DUP7 ADD MLOAD MULMOD DUP4 MULMOD PUSH2 0x3C0 DUP5 ADD MSTORE PUSH32 0x30644E72E131A029B85045B68181585D2833E84879B9709143E1F593F0000001 PUSH31 0x6FAB49B869AE62001DEAC878B2667BD31BF3E28E3A2D764AA49B8D9BBDD310 DUP4 MULMOD SWAP2 POP PUSH32 0x30644E72E131A029B85045B68181585D2833E84879B9709143E1F593F0000001 DUP1 DUP3 PUSH2 0x3E0 DUP7 ADD MLOAD MULMOD DUP4 MULMOD PUSH2 0x3E0 DUP5 ADD MSTORE POP POP POP JUMP JUMPDEST PUSH0 PUSH32 0x30644E72E131A029B85045B68181585D2833E84879B9709143E1F593F0000001 DUP1 PUSH32 0x30644E72E131A029B85045B68181585D2833E84879B9709143E1F593F0000001 PUSH0 DUP7 ADD CALLDATALOAD PUSH2 0x320 DUP7 ADD MLOAD MULMOD DUP4 SUB ADD MOD SWAP1 POP PUSH32 0x30644E72E131A029B85045B68181585D2833E84879B9709143E1F593F0000001 DUP1 PUSH32 0x30644E72E131A029B85045B68181585D2833E84879B9709143E1F593F0000001 PUSH1 0x20 DUP7 ADD CALLDATALOAD PUSH2 0x340 DUP7 ADD MLOAD MULMOD DUP4 SUB ADD MOD SWAP1 POP PUSH32 0x30644E72E131A029B85045B68181585D2833E84879B9709143E1F593F0000001 DUP1 PUSH32 0x30644E72E131A029B85045B68181585D2833E84879B9709143E1F593F0000001 PUSH1 0x40 DUP7 ADD CALLDATALOAD PUSH2 0x360 DUP7 ADD MLOAD MULMOD DUP4 SUB ADD MOD SWAP1 POP PUSH32 0x30644E72E131A029B85045B68181585D2833E84879B9709143E1F593F0000001 DUP1 PUSH32 0x30644E72E131A029B85045B68181585D2833E84879B9709143E1F593F0000001 PUSH1 0x60 DUP7 ADD CALLDATALOAD PUSH2 0x380 DUP7 ADD MLOAD MULMOD DUP4 SUB ADD MOD SWAP1 POP PUSH32 0x30644E72E131A029B85045B68181585D2833E84879B9709143E1F593F0000001 DUP1 PUSH32 0x30644E72E131A029B85045B68181585D2833E84879B9709143E1F593F0000001 PUSH1 0x80 DUP7 ADD CALLDATALOAD PUSH2 0x3A0 DUP7 ADD MLOAD MULMOD DUP4 SUB ADD MOD SWAP1 POP PUSH32 0x30644E72E131A029B85045B68181585D2833E84879B9709143E1F593F0000001 DUP1 PUSH32 0x30644E72E131A029B85045B68181585D2833E84879B9709143E1F593F0000001 PUSH1 0xA0 DUP7 ADD CALLDATALOAD PUSH2 0x3C0 DUP7 ADD MLOAD MULMOD DUP4 SUB ADD MOD SWAP1 POP PUSH32 0x30644E72E131A029B85045B68181585D2833E84879B9709143E1F593F0000001 DUP1 PUSH32 0x30644E72E131A029B85045B68181585D2833E84879B9709143E1F593F0000001 PUSH1 0xC0 DUP7 ADD CALLDATALOAD PUSH2 0x3E0 DUP7 ADD MLOAD MULMOD DUP4 SUB ADD MOD SWAP1 POP DUP1 PUSH2 0x180 DUP4 ADD MSTORE POP POP POP JUMP JUMPDEST PUSH2 0x180 DUP2 ADD MLOAD PUSH32 0x30644E72E131A029B85045B68181585D2833E84879B9709143E1F593F0000001 PUSH2 0x2C0 DUP4 ADD MLOAD PUSH2 0x320 DUP5 ADD MLOAD MULMOD PUSH32 0x30644E72E131A029B85045B68181585D2833E84879B9709143E1F593F0000001 DUP1 PUSH2 0x2A4 CALLDATALOAD PUSH1 0x20 DUP7 ADD MLOAD MULMOD PUSH2 0x244 CALLDATALOAD ADDMOD PUSH32 0x30644E72E131A029B85045B68181585D2833E84879B9709143E1F593F0000001 PUSH1 0x40 DUP6 ADD MLOAD DUP3 ADDMOD SWAP1 POP PUSH32 0x30644E72E131A029B85045B68181585D2833E84879B9709143E1F593F0000001 DUP1 PUSH2 0x2C4 CALLDATALOAD PUSH1 0x20 DUP8 ADD MLOAD MULMOD PUSH2 0x264 CALLDATALOAD ADDMOD PUSH32 0x30644E72E131A029B85045B68181585D2833E84879B9709143E1F593F0000001 PUSH1 0x40 DUP7 ADD MLOAD DUP3 ADDMOD SWAP1 POP PUSH32 0x30644E72E131A029B85045B68181585D2833E84879B9709143E1F593F0000001 PUSH1 0x40 DUP7 ADD MLOAD PUSH2 0x284 CALLDATALOAD ADDMOD PUSH32 0x30644E72E131A029B85045B68181585D2833E84879B9709143E1F593F0000001 DUP2 PUSH32 0x30644E72E131A029B85045B68181585D2833E84879B9709143E1F593F0000001 DUP5 DUP7 MULMOD MULMOD PUSH32 0x30644E72E131A029B85045B68181585D2833E84879B9709143E1F593F0000001 PUSH2 0x2E4 CALLDATALOAD DUP3 MULMOD SWAP1 POP PUSH32 0x30644E72E131A029B85045B68181585D2833E84879B9709143E1F593F0000001 PUSH0 DUP9 ADD MLOAD DUP3 MULMOD SWAP1 POP PUSH32 0x30644E72E131A029B85045B68181585D2833E84879B9709143E1F593F0000001 DUP1 DUP7 PUSH32 0x30644E72E131A029B85045B68181585D2833E84879B9709143E1F593F0000001 SUB MOD DUP8 ADDMOD PUSH32 0x30644E72E131A029B85045B68181585D2833E84879B9709143E1F593F0000001 DUP1 DUP4 PUSH32 0x30644E72E131A029B85045B68181585D2833E84879B9709143E1F593F0000001 SUB MOD DUP3 ADDMOD SWAP1 POP DUP1 PUSH2 0x1A0 DUP10 ADD MSTORE POP POP POP POP POP POP POP POP JUMP JUMPDEST DUP2 MLOAD DUP2 MSTORE PUSH1 0x20 DUP3 ADD MLOAD PUSH1 0x20 DUP3 ADD MSTORE POP POP JUMP JUMPDEST DUP2 DUP2 MSTORE DUP3 PUSH1 0x20 DUP3 ADD MSTORE POP POP POP JUMP JUMPDEST DUP2 CALLDATALOAD DUP2 MSTORE PUSH1 0x20 DUP3 ADD CALLDATALOAD PUSH1 0x20 DUP3 ADD MSTORE POP POP JUMP JUMPDEST PUSH1 0x40 MLOAD DUP2 MLOAD DUP2 MSTORE PUSH1 0x20 DUP3 ADD MLOAD PUSH1 0x20 DUP3 ADD MSTORE DUP3 MLOAD PUSH1 0x40 DUP3 ADD MSTORE PUSH1 0x20 DUP4 ADD MLOAD PUSH1 0x60 DUP3 ADD MSTORE PUSH1 0x40 DUP3 PUSH1 0x80 DUP4 PUSH1 0x6 PUSH2 0x7D0 GAS SUB STATICCALL DUP1 PUSH2 0x1679 JUMPI PUSH0 DUP1 MSTORE PUSH1 0x20 PUSH0 RETURN JUMPDEST POP POP POP POP JUMP JUMPDEST PUSH0 PUSH1 0x40 MLOAD DUP4 DUP2 MSTORE DUP5 PUSH1 0x20 DUP3 ADD MSTORE DUP6 PUSH1 0x40 DUP3 ADD MSTORE PUSH1 0x40 DUP2 PUSH1 0x60 DUP4 PUSH1 0x7 PUSH2 0x7D0 GAS SUB STATICCALL SWAP2 POP DUP2 PUSH2 0x16AF JUMPI PUSH0 DUP1 MSTORE PUSH1 0x20 PUSH0 RETURN JUMPDEST DUP3 MLOAD PUSH1 0x40 DUP3 ADD MSTORE PUSH1 0x20 DUP4 ADD MLOAD PUSH1 0x60 DUP3 ADD MSTORE PUSH1 0x40 DUP4 PUSH1 0x80 DUP4 PUSH1 0x6 PUSH2 0x7D0 GAS SUB STATICCALL SWAP2 POP DUP2 PUSH2 0x16DD JUMPI PUSH0 DUP1 MSTORE PUSH1 0x20 PUSH0 RETURN JUMPDEST POP POP POP POP POP POP JUMP JUMPDEST PUSH0 PUSH1 0x40 MLOAD DUP4 DUP2 MSTORE DUP5 PUSH1 0x20 DUP3 ADD MSTORE DUP6 PUSH1 0x40 DUP3 ADD MSTORE PUSH1 0x40 DUP4 PUSH1 0x60 DUP4 PUSH1 0x7 PUSH2 0x7D0 GAS SUB STATICCALL SWAP2 POP DUP2 PUSH2 0x1715 JUMPI PUSH0 DUP1 MSTORE PUSH1 0x20 PUSH0 RETURN JUMPDEST POP POP POP POP POP POP JUMP JUMPDEST PUSH2 0x172E DUP4 PUSH1 0x20 DUP5 ADD MLOAD DUP5 MLOAD DUP5 PUSH2 0x16E5 JUMP JUMPDEST POP POP POP JUMP JUMPDEST PUSH2 0x1C0 DUP2 ADD PUSH1 0x40 DUP3 ADD MLOAD PUSH1 0x40 MLOAD PUSH2 0x100 DUP2 ADD PUSH1 0x40 MSTORE PUSH2 0x1793 PUSH32 0xC33E564E4DC5A01B0E8877B1A81E47A7056537F697D404BE791AD79D94F4949 PUSH32 0xCC3DFF60358B99779A35ABAB1825C38FAA91024E30215269E84F91ABB376F9B DUP6 PUSH2 0x161C JUMP JUMPDEST PUSH2 0x1808 PUSH32 0x30644E72E131A029B85045B68181585D2833E84879B9709143E1F593F0000001 PUSH2 0x264 CALLDATALOAD PUSH2 0x244 CALLDATALOAD MULMOD PUSH32 0x16B4580220D86FE615052B231061E22EB3A69929AA6E9462DDF283ED1824DC4B PUSH32 0x12CABED0860FD0C7523116717E099FF5873BFD63B6A1C93CD14D541F736CC5A4 DUP7 PUSH2 0x167F JUMP JUMPDEST PUSH2 0x1857 PUSH2 0x244 CALLDATALOAD PUSH32 0x2F162404095B604BFB90EDAC58822AECB21A59A572CDCF57BE80CC3B6B409BD8 PUSH32 0x1E22A60AB8D544BAEF5ED2ABE5523ED54DC310DBD69E30CE775E062988073A91 DUP7 PUSH2 0x167F JUMP JUMPDEST PUSH2 0x18A6 PUSH2 0x264 CALLDATALOAD PUSH32 0x13B02773912FC303EC930BA19FB7A120240B80DD140372CF33F33E3A9A3FD294 PUSH32 0xA5F796462D2F0C42A1020B4B3E6EC9F1609482ABD07C141D4D40EEBC605DF8E DUP7 PUSH2 0x167F JUMP JUMPDEST PUSH2 0x18F5 PUSH2 0x284 CALLDATALOAD PUSH32 0x147349901AB69878711FD82E018690EDAB81D40103B3934CCA71C6C5B7B309FA PUSH32 0x8C40DB668F4E04D2538C8928EB7D9301CECB22C92F16D54EE3E1646B6A06E3C DUP7 PUSH2 0x167F JUMP JUMPDEST PUSH1 0xA0 DUP5 ADD MLOAD PUSH32 0x30644E72E131A029B85045B68181585D2833E84879B9709143E1F593F0000001 DUP4 PUSH32 0x30644E72E131A029B85045B68181585D2833E84879B9709143E1F593F0000001 DUP4 PUSH2 0x244 CALLDATALOAD ADDMOD ADDMOD PUSH32 0x30644E72E131A029B85045B68181585D2833E84879B9709143E1F593F0000001 DUP5 PUSH32 0x30644E72E131A029B85045B68181585D2833E84879B9709143E1F593F0000001 DUP1 PUSH1 0x2 DUP7 MULMOD PUSH2 0x264 CALLDATALOAD ADDMOD ADDMOD PUSH32 0x30644E72E131A029B85045B68181585D2833E84879B9709143E1F593F0000001 DUP6 PUSH32 0x30644E72E131A029B85045B68181585D2833E84879B9709143E1F593F0000001 DUP1 PUSH1 0x3 DUP8 MULMOD PUSH2 0x284 CALLDATALOAD ADDMOD ADDMOD PUSH32 0x30644E72E131A029B85045B68181585D2833E84879B9709143E1F593F0000001 PUSH0 DUP10 ADD MLOAD PUSH32 0x30644E72E131A029B85045B68181585D2833E84879B9709143E1F593F0000001 DUP4 PUSH32 0x30644E72E131A029B85045B68181585D2833E84879B9709143E1F593F0000001 DUP7 DUP9 MULMOD MULMOD MULMOD PUSH32 0x30644E72E131A029B85045B68181585D2833E84879B9709143E1F593F0000001 PUSH2 0x2C0 DUP11 ADD MLOAD PUSH2 0x320 DUP12 ADD MLOAD MULMOD PUSH2 0x1A89 PUSH1 0xC4 PUSH1 0xC0 DUP10 ADD PUSH2 0x162A JUMP JUMPDEST PUSH2 0x1AE2 PUSH32 0x30644E72E131A029B85045B68181585D2833E84879B9709143E1F593F0000001 PUSH2 0x160 DUP13 ADD MLOAD PUSH32 0x30644E72E131A029B85045B68181585D2833E84879B9709143E1F593F0000001 DUP5 DUP7 ADDMOD ADDMOD PUSH1 0xC0 DUP10 ADD DUP10 PUSH2 0x171D JUMP JUMPDEST PUSH32 0x30644E72E131A029B85045B68181585D2833E84879B9709143E1F593F0000001 DUP9 PUSH32 0x30644E72E131A029B85045B68181585D2833E84879B9709143E1F593F0000001 DUP1 PUSH2 0x2A4 CALLDATALOAD PUSH1 0x20 DUP16 ADD MLOAD MULMOD PUSH2 0x244 CALLDATALOAD ADDMOD ADDMOD SWAP5 POP PUSH32 0x30644E72E131A029B85045B68181585D2833E84879B9709143E1F593F0000001 DUP9 PUSH32 0x30644E72E131A029B85045B68181585D2833E84879B9709143E1F593F0000001 DUP1 PUSH2 0x2C4 CALLDATALOAD PUSH1 0x20 DUP16 ADD MLOAD MULMOD PUSH2 0x264 CALLDATALOAD ADDMOD ADDMOD SWAP4 POP PUSH32 0x30644E72E131A029B85045B68181585D2833E84879B9709143E1F593F0000001 PUSH2 0x2E4 CALLDATALOAD PUSH32 0x30644E72E131A029B85045B68181585D2833E84879B9709143E1F593F0000001 PUSH1 0x20 DUP14 ADD MLOAD PUSH0 DUP15 ADD MLOAD MULMOD MULMOD SWAP3 POP PUSH2 0x1C76 PUSH32 0x30644E72E131A029B85045B68181585D2833E84879B9709143E1F593F0000001 DUP5 PUSH32 0x30644E72E131A029B85045B68181585D2833E84879B9709143E1F593F0000001 DUP8 DUP10 MULMOD MULMOD PUSH32 0xBA1017E695CE55339A862DFF8D3A67CED9B177E9A23AAF5EAA444620B0FDDE3 PUSH32 0xE4F9795B9116336BF3A3320DEA3A0245A2F701EA2ED336636CB02E6FAA44CC8 PUSH1 0x40 DUP12 ADD PUSH2 0x16E5 JUMP JUMPDEST PUSH2 0x1C85 PUSH2 0x104 PUSH1 0x80 DUP10 ADD PUSH2 0x162A JUMP JUMPDEST PUSH2 0x1CA1 PUSH1 0x80 DUP12 ADD MLOAD PUSH1 0x20 PUSH2 0x144 ADD CALLDATALOAD PUSH2 0x144 CALLDATALOAD PUSH1 0x80 DUP12 ADD PUSH2 0x167F JUMP JUMPDEST PUSH32 0x30644E72E131A029B85045B68181585D2833E84879B9709143E1F593F0000001 PUSH1 0x80 DUP12 ADD MLOAD PUSH1 0x80 DUP13 ADD MLOAD MULMOD PUSH2 0x1CE5 DUP2 PUSH1 0x20 PUSH2 0x184 ADD CALLDATALOAD PUSH2 0x184 CALLDATALOAD PUSH1 0x80 DUP13 ADD PUSH2 0x167F JUMP JUMPDEST PUSH2 0x1D01 PUSH2 0x2E0 DUP13 ADD MLOAD PUSH1 0xA0 DUP11 ADD MLOAD PUSH1 0x80 DUP12 ADD MLOAD PUSH1 0x80 DUP13 ADD PUSH2 0x16E5 JUMP JUMPDEST PUSH32 0x30644E72E131A029B85045B68181585D97816A916871CA8D3C208C16D87CFD47 PUSH1 0x20 PUSH1 0x40 DUP11 ADD ADD MLOAD PUSH32 0x30644E72E131A029B85045B68181585D97816A916871CA8D3C208C16D87CFD47 SUB MOD PUSH1 0x20 PUSH1 0x40 DUP11 ADD ADD MSTORE PUSH32 0x30644E72E131A029B85045B68181585D97816A916871CA8D3C208C16D87CFD47 PUSH1 0xA0 DUP10 ADD MLOAD PUSH32 0x30644E72E131A029B85045B68181585D97816A916871CA8D3C208C16D87CFD47 SUB MOD PUSH1 0xA0 DUP10 ADD MSTORE PUSH2 0x1DAD DUP9 DUP12 PUSH2 0x163C JUMP JUMPDEST PUSH2 0x1DBA PUSH1 0x40 DUP10 ADD DUP12 PUSH2 0x163C JUMP JUMPDEST PUSH2 0x1DC7 PUSH1 0x80 DUP10 ADD DUP12 PUSH2 0x163C JUMP JUMPDEST POP POP POP POP POP POP POP POP POP POP POP JUMP JUMPDEST PUSH2 0x200 DUP2 ADD PUSH2 0x1DE7 PUSH2 0x1C0 DUP4 ADD DUP3 PUSH2 0x160A JUMP JUMPDEST PUSH2 0x1DFE PUSH1 0xC0 DUP4 ADD MLOAD PUSH1 0x20 PUSH1 0x4 ADD CALLDATALOAD PUSH1 0x4 CALLDATALOAD DUP5 PUSH2 0x167F JUMP JUMPDEST PUSH2 0x1E15 PUSH1 0xE0 DUP4 ADD MLOAD PUSH1 0x20 PUSH1 0x44 ADD CALLDATALOAD PUSH1 0x44 CALLDATALOAD DUP5 PUSH2 0x167F JUMP JUMPDEST PUSH2 0x1E2D PUSH2 0x100 DUP4 ADD MLOAD PUSH1 0x20 PUSH1 0x84 ADD CALLDATALOAD PUSH1 0x84 CALLDATALOAD DUP5 PUSH2 0x167F JUMP JUMPDEST PUSH2 0x1E7E PUSH2 0x120 DUP4 ADD MLOAD PUSH32 0x1F45644E6DAC9A6AED6E8D6716B3D37D2F0FDB2C9BC0C32B7D24C293AD0EA530 PUSH32 0xC3985602038D5EEF94A31160A1031A6564BA2A69D709EAA1F2B5B3EE89234F1 DUP5 PUSH2 0x167F JUMP JUMPDEST PUSH2 0x1ECF PUSH2 0x140 DUP4 ADD MLOAD PUSH32 0x1B781CB84343789AD0CD3FA896DE791AE4DAA3B13A94043CB75D522B768A8BF3 PUSH32 0x1448EA5436C1C69D2FFB9E2641AEA2DA43B8B371FAC2550D5CB464A33225E7A DUP5 PUSH2 0x167F JUMP JUMPDEST POP POP JUMP JUMPDEST PUSH32 0x30644E72E131A029B85045B68181585D2833E84879B9709143E1F593F0000001 PUSH2 0x1A0 DUP3 ADD MLOAD PUSH32 0x30644E72E131A029B85045B68181585D2833E84879B9709143E1F593F0000001 SUB MOD PUSH32 0x30644E72E131A029B85045B68181585D2833E84879B9709143E1F593F0000001 DUP1 PUSH1 0xC0 DUP5 ADD MLOAD PUSH2 0x244 CALLDATALOAD MULMOD DUP3 ADDMOD SWAP1 POP PUSH32 0x30644E72E131A029B85045B68181585D2833E84879B9709143E1F593F0000001 DUP1 PUSH1 0xE0 DUP5 ADD MLOAD PUSH2 0x264 CALLDATALOAD MULMOD DUP3 ADDMOD SWAP1 POP PUSH32 0x30644E72E131A029B85045B68181585D2833E84879B9709143E1F593F0000001 DUP1 PUSH2 0x100 DUP5 ADD MLOAD PUSH2 0x284 CALLDATALOAD MULMOD DUP3 ADDMOD SWAP1 POP PUSH32 0x30644E72E131A029B85045B68181585D2833E84879B9709143E1F593F0000001 DUP1 PUSH2 0x120 DUP5 ADD MLOAD PUSH2 0x2A4 CALLDATALOAD MULMOD DUP3 ADDMOD SWAP1 POP PUSH32 0x30644E72E131A029B85045B68181585D2833E84879B9709143E1F593F0000001 DUP1 PUSH2 0x140 DUP5 ADD MLOAD PUSH2 0x2C4 CALLDATALOAD MULMOD DUP3 ADDMOD SWAP1 POP PUSH32 0x30644E72E131A029B85045B68181585D2833E84879B9709143E1F593F0000001 DUP1 PUSH2 0x160 DUP5 ADD MLOAD PUSH2 0x2E4 CALLDATALOAD MULMOD DUP3 ADDMOD SWAP1 POP PUSH2 0x2053 DUP2 PUSH1 0x2 PUSH1 0x1 PUSH2 0x240 DUP7 ADD PUSH2 0x16E5 JUMP JUMPDEST POP POP JUMP JUMPDEST PUSH0 PUSH1 0x40 MLOAD PUSH2 0x240 DUP2 ADD PUSH1 0x40 MSTORE PUSH2 0x180 DUP2 ADD PUSH2 0x1C0 DUP3 ADD PUSH2 0x200 DUP4 ADD PUSH2 0x207E PUSH2 0x1C4 DUP5 PUSH2 0x162A JUMP JUMPDEST PUSH2 0x208A PUSH2 0x204 DUP4 PUSH2 0x162A JUMP JUMPDEST PUSH2 0x209A PUSH2 0x160 DUP8 ADD MLOAD DUP4 DUP7 PUSH2 0x171D JUMP JUMPDEST PUSH2 0x20A4 DUP4 DUP6 PUSH2 0x163C JUMP JUMPDEST PUSH32 0x30644E72E131A029B85045B68181585D97816A916871CA8D3C208C16D87CFD47 PUSH1 0x20 DUP6 ADD MLOAD PUSH32 0x30644E72E131A029B85045B68181585D97816A916871CA8D3C208C16D87CFD47 SUB MOD PUSH1 0x20 DUP6 ADD MSTORE PUSH32 0x26186A2D65EE4D2F9C9A5B91F86597D35F192CD120CAF7E935D8443D1938E23D PUSH1 0x40 DUP6 ADD MSTORE PUSH32 0x30441FD1B5D3370482C42152A8899027716989A6996C2535BC9F7FEE8AAEF79E PUSH1 0x60 DUP6 ADD MSTORE PUSH32 0x1970EA81DD6992ADFBC571EFFB03503ADBBB6A857F578403C6C40E22D65B3C02 PUSH1 0x80 DUP6 ADD MSTORE PUSH32 0x54793348F12C0CF5622C340573CB277586319DE359AB9389778F689786B1E48 PUSH1 0xA0 DUP6 ADD MSTORE PUSH2 0x219C PUSH1 0x60 DUP8 ADD MLOAD DUP5 PUSH1 0xC0 DUP8 ADD PUSH2 0x171D JUMP JUMPDEST PUSH32 0x30644E72E131A029B85045B68181585D2833E84879B9709143E1F593F0000001 PUSH1 0x60 DUP8 ADD MLOAD PUSH2 0x160 DUP9 ADD MLOAD MULMOD PUSH32 0x30644E72E131A029B85045B68181585D2833E84879B9709143E1F593F0000001 PUSH31 0x6FAB49B869AE62001DEAC878B2667BD31BF3E28E3A2D764AA49B8D9BBDD310 DUP3 MULMOD SWAP1 POP PUSH2 0x2219 DUP2 DUP5 DUP5 PUSH2 0x171D JUMP JUMPDEST PUSH2 0x2226 DUP3 PUSH1 0xC0 DUP8 ADD PUSH2 0x163C JUMP JUMPDEST PUSH2 0x2237 PUSH2 0x200 DUP9 ADD PUSH1 0xC0 DUP8 ADD PUSH2 0x163C JUMP JUMPDEST PUSH32 0x30644E72E131A029B85045B68181585D97816A916871CA8D3C208C16D87CFD47 PUSH1 0x20 PUSH2 0x240 ADD DUP9 ADD MLOAD PUSH32 0x30644E72E131A029B85045B68181585D97816A916871CA8D3C208C16D87CFD47 SUB MOD PUSH1 0x20 PUSH2 0x240 ADD DUP9 ADD MSTORE PUSH2 0x229E PUSH2 0x240 DUP9 ADD PUSH1 0xC0 DUP8 ADD PUSH2 0x163C JUMP JUMPDEST PUSH32 0x198E9393920D483A7260BFB731FB5D25F1AA493335A9E71297E485B7AEF312C2 PUSH2 0x100 DUP7 ADD MSTORE PUSH32 0x1800DEEF121F1E76426A00665E5C4479674322D4F75EDADD46DEBD5CD992F6ED PUSH2 0x120 DUP7 ADD MSTORE PUSH32 0x90689D0585FF075EC9E99AD690C3395BC4B313370B38EF355ACDADCD122975B PUSH2 0x140 DUP7 ADD MSTORE PUSH32 0x12C85EA5DB8C6DEB4AAB71808DCB408FE3D1E7690C43D37B4CE6CC0166FA7DAA PUSH2 0x160 DUP7 ADD MSTORE PUSH1 0x20 DUP6 PUSH2 0x180 DUP8 PUSH1 0x8 PUSH2 0x7D0 GAS SUB STATICCALL DUP6 MLOAD DUP2 AND SWAP7 POP POP POP POP POP POP POP SWAP2 SWAP1 POP JUMP JUMPDEST PUSH1 0x40 MLOAD PUSH2 0x400 DUP2 ADD PUSH1 0x40 MSTORE PUSH2 0x236D PUSH2 0x1FB JUMP JUMPDEST PUSH2 0x2377 DUP4 DUP3 PUSH2 0x245 JUMP JUMPDEST PUSH2 0x2380 DUP2 PUSH2 0xA49 JUMP JUMPDEST PUSH2 0x238A DUP4 DUP3 PUSH2 0x115A JUMP JUMPDEST PUSH2 0x2393 DUP2 PUSH2 0x13B9 JUMP JUMPDEST PUSH2 0x239C DUP2 PUSH2 0x1733 JUMP JUMPDEST PUSH2 0x23A5 DUP2 PUSH2 0x1DD4 JUMP JUMPDEST PUSH2 0x23AE DUP2 PUSH2 0x1ED3 JUMP JUMPDEST PUSH2 0x23B7 DUP2 PUSH2 0x2057 JUMP JUMPDEST PUSH2 0x400 DUP3 SUB PUSH1 0x40 MSTORE DUP1 PUSH0 MSTORE PUSH1 0x20 PUSH0 RETURN JUMPDEST PUSH0 DUP1 REVERT JUMPDEST PUSH0 DUP1 REVERT JUMPDEST PUSH0 DUP2 SWAP1 POP DUP3 PUSH1 0x20 PUSH1 0x18 MUL DUP3 ADD GT ISZERO PUSH2 0x23EA JUMPI PUSH2 0x23E9 PUSH2 0x23CB JUMP JUMPDEST JUMPDEST SWAP3 SWAP2 POP POP JUMP JUMPDEST PUSH0 DUP2 SWAP1 POP DUP3 PUSH1 0x20 PUSH1 0x7 MUL DUP3 ADD GT ISZERO PUSH2 0x240B JUMPI PUSH2 0x240A PUSH2 0x23CB JUMP JUMPDEST JUMPDEST SWAP3 SWAP2 POP POP JUMP JUMPDEST PUSH0 DUP1 PUSH2 0x3E0 DUP4 DUP6 SUB SLT ISZERO PUSH2 0x2428 JUMPI PUSH2 0x2427 PUSH2 0x23C7 JUMP JUMPDEST JUMPDEST PUSH0 PUSH2 0x2435 DUP6 DUP3 DUP7 ADD PUSH2 0x23CF JUMP JUMPDEST SWAP3 POP POP PUSH2 0x300 PUSH2 0x2447 DUP6 DUP3 DUP7 ADD PUSH2 0x23F0 JUMP JUMPDEST SWAP2 POP POP SWAP3 POP SWAP3 SWAP1 POP JUMP JUMPDEST PUSH0 DUP2 ISZERO ISZERO SWAP1 POP SWAP2 SWAP1 POP JUMP JUMPDEST PUSH2 0x2465 DUP2 PUSH2 0x2451 JUMP JUMPDEST DUP3 MSTORE POP POP JUMP JUMPDEST PUSH0 PUSH1 0x20 DUP3 ADD SWAP1 POP PUSH2 0x247E PUSH0 DUP4 ADD DUP5 PUSH2 0x245C JUMP JUMPDEST SWAP3 SWAP2 POP POP JUMP INVALID LOG2 PUSH5 0x6970667358 0x22 SLT KECCAK256 SWAP3 0xBD CALLDATALOAD 0xD9 SWAP1 0xCC SGT SDIV BALANCE RETURNDATASIZE 0x26 MOD LOG4 CALLDATALOAD SWAP15 SIGNEXTEND 0xC0 OR PUSH23 0x4EDC0DCF81A43FD75CAE34416E64736F6C634300081A00 CALLER "
				},
				"gasEstimates": {
					"creation": {
						"codeDepositCost": "1880400",
						"executionCost": "1981",
						"totalCost": "1882381"
					},
					"external": {
						"verifyProof(uint256[24],uint256[7])": "infinite"
					}
				},
				"methodIdentifiers": {
					"verifyProof(uint256[24],uint256[7])": "6bb8d6cd"
				}
			},
			"storageLayout": {
				"storage": [],
				"types": null
			},
			"userdoc": {
				"kind": "user",
				"methods": {},
				"version": 1
			}
		}
	}
}