{
	"src/ERC6909.sol": {
		"ERC6909": {
			"abi": [
				{
					"inputs": [
						{
							"internalType": "address",
							"name": "owner",
							"type": "address"
						},
						{
							"internalType": "uint256",
							"name": "id",
							"type": "uint256"
						}
					],
					"name": "InsufficientBalance",
					"type": "error"
				},
				{
					"inputs": [
						{
							"internalType": "address",
							"name": "spender",
							"type": "address"
						},
						{
							"internalType": "uint256",
							"name": "id",
							"type": "uint256"
						}
					],
					"name": "InsufficientPermission",
					"type": "error"
				},
				{
					"anonymous": false,
					"inputs": [
						{
							"indexed": true,
							"internalType": "address",
							"name": "owner",
							"type": "address"
						},
						{
							"indexed": true,
							"internalType": "address",
							"name": "spender",
							"type": "address"
						},
						{
							"indexed": true,
							"internalType": "uint256",
							"name": "id",
							"type": "uint256"
						},
						{
							"indexed": false,
							"internalType": "uint256",
							"name": "amount",
							"type": "uint256"
						}
					],
					"name": "Approval",
					"type": "event"
				},
				{
					"anonymous": false,
					"inputs": [
						{
							"indexed": true,
							"internalType": "address",
							"name": "owner",
							"type": "address"
						},
						{
							"indexed": true,
							"internalType": "address",
							"name": "spender",
							"type": "address"
						},
						{
							"indexed": false,
							"internalType": "bool",
							"name": "approved",
							"type": "bool"
						}
					],
					"name": "OperatorSet",
					"type": "event"
				},
				{
					"anonymous": false,
					"inputs": [
						{
							"indexed": false,
							"internalType": "address",
							"name": "caller",
							"type": "address"
						},
						{
							"indexed": true,
							"internalType": "address",
							"name": "sender",
							"type": "address"
						},
						{
							"indexed": true,
							"internalType": "address",
							"name": "receiver",
							"type": "address"
						},
						{
							"indexed": true,
							"internalType": "uint256",
							"name": "id",
							"type": "uint256"
						},
						{
							"indexed": false,
							"internalType": "uint256",
							"name": "amount",
							"type": "uint256"
						}
					],
					"name": "Transfer",
					"type": "event"
				},
				{
					"inputs": [
						{
							"internalType": "address",
							"name": "owner",
							"type": "address"
						},
						{
							"internalType": "address",
							"name": "spender",
							"type": "address"
						},
						{
							"internalType": "uint256",
							"name": "id",
							"type": "uint256"
						}
					],
					"name": "allowance",
					"outputs": [
						{
							"internalType": "uint256",
							"name": "amount",
							"type": "uint256"
						}
					],
					"stateMutability": "view",
					"type": "function"
				},
				{
					"inputs": [
						{
							"internalType": "address",
							"name": "spender",
							"type": "address"
						},
						{
							"internalType": "uint256",
							"name": "id",
							"type": "uint256"
						},
						{
							"internalType": "uint256",
							"name": "amount",
							"type": "uint256"
						}
					],
					"name": "approve",
					"outputs": [
						{
							"internalType": "bool",
							"name": "",
							"type": "bool"
						}
					],
					"stateMutability": "nonpayable",
					"type": "function"
				},
				{
					"inputs": [
						{
							"internalType": "address",
							"name": "owner",
							"type": "address"
						},
						{
							"internalType": "uint256",
							"name": "id",
							"type": "uint256"
						}
					],
					"name": "balanceOf",
					"outputs": [
						{
							"internalType": "uint256",
							"name": "amount",
							"type": "uint256"
						}
					],
					"stateMutability": "view",
					"type": "function"
				},
				{
					"inputs": [
						{
							"internalType": "address",
							"name": "owner",
							"type": "address"
						},
						{
							"internalType": "address",
							"name": "spender",
							"type": "address"
						}
					],
					"name": "isOperator",
					"outputs": [
						{
							"internalType": "bool",
							"name": "",
							"type": "bool"
						}
					],
					"stateMutability": "view",
					"type": "function"
				},
				{
					"inputs": [
						{
							"internalType": "address",
							"name": "spender",
							"type": "address"
						},
						{
							"internalType": "bool",
							"name": "approved",
							"type": "bool"
						}
					],
					"name": "setOperator",
					"outputs": [
						{
							"internalType": "bool",
							"name": "",
							"type": "bool"
						}
					],
					"stateMutability": "nonpayable",
					"type": "function"
				},
				{
					"inputs": [
						{
							"internalType": "bytes4",
							"name": "interfaceId",
							"type": "bytes4"
						}
					],
					"name": "supportsInterface",
					"outputs": [
						{
							"internalType": "bool",
							"name": "supported",
							"type": "bool"
						}
					],
					"stateMutability": "pure",
					"type": "function"
				},
				{
					"inputs": [
						{
							"internalType": "address",
							"name": "receiver",
							"type": "address"
						},
						{
							"internalType": "uint256",
							"name": "id",
							"type": "uint256"
						},
						{
							"internalType": "uint256",
							"name": "amount",
							"type": "uint256"
						}
					],
					"name": "transfer",
					"outputs": [
						{
							"internalType": "bool",
							"name": "",
							"type": "bool"
						}
					],
					"stateMutability": "nonpayable",
					"type": "function"
				},
				{
					"inputs": [
						{
							"internalType": "address",
							"name": "sender",
							"type": "address"
						},
						{
							"internalType": "address",
							"name": "receiver",
							"type": "address"
						},
						{
							"internalType": "uint256",
							"name": "id",
							"type": "uint256"
						},
						{
							"internalType": "uint256",
							"name": "amount",
							"type": "uint256"
						}
					],
					"name": "transferFrom",
					"outputs": [
						{
							"internalType": "bool",
							"name": "",
							"type": "bool"
						}
					],
					"stateMutability": "nonpayable",
					"type": "function"
				}
			],
			"devdoc": {
				"author": "jtriley.eth",
				"errors": {
					"InsufficientBalance(address,uint256)": [
						{
							"details": "Thrown when owner balance for id is insufficient.",
							"params": {
								"id": "The id of the token.",
								"owner": "The address of the owner."
							}
						}
					],
					"InsufficientPermission(address,uint256)": [
						{
							"details": "Thrown when spender allowance for id is insufficient.",
							"params": {
								"id": "The id of the token.",
								"spender": "The address of the spender."
							}
						}
					]
				},
				"events": {
					"Approval(address,address,uint256,uint256)": {
						"params": {
							"amount": "The amount of the token.",
							"id": "The id of the token.",
							"owner": "The address of the owner.",
							"spender": "The address of the spender."
						}
					},
					"OperatorSet(address,address,bool)": {
						"params": {
							"approved": "The approval status.",
							"owner": "The address of the owner.",
							"spender": "The address of the spender."
						}
					},
					"Transfer(address,address,address,uint256,uint256)": {
						"params": {
							"amount": "The amount of the token.",
							"id": "The id of the token.",
							"receiver": "The address of the receiver.",
							"sender": "The address of the sender."
						}
					}
				},
				"kind": "dev",
				"methods": {
					"approve(address,uint256,uint256)": {
						"params": {
							"amount": "The amount of the token.",
							"id": "The id of the token.",
							"spender": "The address of the spender."
						}
					},
					"setOperator(address,bool)": {
						"params": {
							"approved": "The approval status.",
							"spender": "The address of the spender."
						}
					},
					"supportsInterface(bytes4)": {
						"params": {
							"interfaceId": "The interface identifier, as specified in ERC-165."
						},
						"returns": {
							"supported": "True if the contract implements `interfaceId`."
						}
					},
					"transfer(address,uint256,uint256)": {
						"params": {
							"amount": "The amount of the token.",
							"id": "The id of the token.",
							"receiver": "The address of the receiver."
						}
					},
					"transferFrom(address,address,uint256,uint256)": {
						"params": {
							"amount": "The amount of the token.",
							"id": "The id of the token.",
							"receiver": "The address of the receiver.",
							"sender": "The address of the sender."
						}
					}
				},
				"title": "ERC6909 Multi-Token Reference Implementation",
				"version": 1
			},
			"evm": {
				"assembly": "    /* \"src/ERC6909.sol\":138:5673  contract ERC6909 {... */\n  mstore(0x40, 0x80)\n  callvalue\n  dup1\n  iszero\n  tag_1\n  jumpi\n  0x00\n  dup1\n  revert\ntag_1:\n  pop\n  dataSize(sub_0)\n  dup1\n  dataOffset(sub_0)\n  0x00\n  codecopy\n  0x00\n  return\nstop\n\nsub_0: assembly {\n        /* \"src/ERC6909.sol\":138:5673  contract ERC6909 {... */\n      mstore(0x40, 0x80)\n      callvalue\n      dup1\n      iszero\n      tag_1\n      jumpi\n      0x00\n      dup1\n      revert\n    tag_1:\n      pop\n      jumpi(tag_2, lt(calldatasize, 0x04))\n      shr(0xe0, calldataload(0x00))\n      dup1\n      0x558a7297\n      gt\n      tag_11\n      jumpi\n      dup1\n      0x558a7297\n      eq\n      tag_7\n      jumpi\n      dup1\n      0x598af9e7\n      eq\n      tag_8\n      jumpi\n      dup1\n      0xb6363cf2\n      eq\n      tag_9\n      jumpi\n      dup1\n      0xfe99049a\n      eq\n      tag_10\n      jumpi\n      jump(tag_2)\n    tag_11:\n      dup1\n      0xfdd58e\n      eq\n      tag_3\n      jumpi\n      dup1\n      0x01ffc9a7\n      eq\n      tag_4\n      jumpi\n      dup1\n      0x095bcdb6\n      eq\n      tag_5\n      jumpi\n      dup1\n      0x426a8493\n      eq\n      tag_6\n      jumpi\n    tag_2:\n      0x00\n      dup1\n      revert\n        /* \"src/ERC6909.sol\":1750:1838  mapping(address owner => mapping(uint256 id => uint256 amount))... */\n    tag_3:\n      tag_12\n      0x04\n      dup1\n      calldatasize\n      sub\n      dup2\n      add\n      swap1\n      tag_13\n      swap2\n      swap1\n      tag_14\n      jump\t// in\n    tag_13:\n      tag_15\n      jump\t// in\n    tag_12:\n      mload(0x40)\n      tag_16\n      swap2\n      swap1\n      tag_17\n      jump\t// in\n    tag_16:\n      mload(0x40)\n      dup1\n      swap2\n      sub\n      swap1\n      return\n        /* \"src/ERC6909.sol\":4949:5125  function supportsInterface(... */\n    tag_4:\n      tag_18\n      0x04\n      dup1\n      calldatasize\n      sub\n      dup2\n      add\n      swap1\n      tag_19\n      swap2\n      swap1\n      tag_20\n      jump\t// in\n    tag_19:\n      tag_21\n      jump\t// in\n    tag_18:\n      mload(0x40)\n      tag_22\n      swap2\n      swap1\n      tag_23\n      jump\t// in\n    tag_22:\n      mload(0x40)\n      dup1\n      swap2\n      sub\n      swap1\n      return\n        /* \"src/ERC6909.sol\":2394:2799  function transfer(... */\n    tag_5:\n      tag_24\n      0x04\n      dup1\n      calldatasize\n      sub\n      dup2\n      add\n      swap1\n      tag_25\n      swap2\n      swap1\n      tag_26\n      jump\t// in\n    tag_25:\n      tag_27\n      jump\t// in\n    tag_24:\n      mload(0x40)\n      tag_28\n      swap2\n      swap1\n      tag_23\n      jump\t// in\n    tag_28:\n      mload(0x40)\n      dup1\n      swap2\n      sub\n      swap1\n      return\n        /* \"src/ERC6909.sol\":4092:4343  function approve(... */\n    tag_6:\n      tag_29\n      0x04\n      dup1\n      calldatasize\n      sub\n      dup2\n      add\n      swap1\n      tag_30\n      swap2\n      swap1\n      tag_26\n      jump\t// in\n    tag_30:\n      tag_31\n      jump\t// in\n    tag_29:\n      mload(0x40)\n      tag_32\n      swap2\n      swap1\n      tag_23\n      jump\t// in\n    tag_32:\n      mload(0x40)\n      dup1\n      swap2\n      sub\n      swap1\n      return\n        /* \"src/ERC6909.sol\":4518:4730  function setOperator(address spender, bool approved) public returns (bool) {... */\n    tag_7:\n      tag_33\n      0x04\n      dup1\n      calldatasize\n      sub\n      dup2\n      add\n      swap1\n      tag_34\n      swap2\n      swap1\n      tag_35\n      jump\t// in\n    tag_34:\n      tag_36\n      jump\t// in\n    tag_33:\n      mload(0x40)\n      tag_37\n      swap2\n      swap1\n      tag_23\n      jump\t// in\n    tag_37:\n      mload(0x40)\n      dup1\n      swap2\n      sub\n      swap1\n      return\n        /* \"src/ERC6909.sol\":1889:2005  mapping(address owner => mapping(address spender => mapping(uint256 id => uint256 amount)))... */\n    tag_8:\n      tag_38\n      0x04\n      dup1\n      calldatasize\n      sub\n      dup2\n      add\n      swap1\n      tag_39\n      swap2\n      swap1\n      tag_40\n      jump\t// in\n    tag_39:\n      tag_41\n      jump\t// in\n    tag_38:\n      mload(0x40)\n      tag_42\n      swap2\n      swap1\n      tag_17\n      jump\t// in\n    tag_42:\n      mload(0x40)\n      dup1\n      swap2\n      sub\n      swap1\n      return\n        /* \"src/ERC6909.sol\":2088:2172  mapping(address owner => mapping(address spender => bool))... */\n    tag_9:\n      tag_43\n      0x04\n      dup1\n      calldatasize\n      sub\n      dup2\n      add\n      swap1\n      tag_44\n      swap2\n      swap1\n      tag_45\n      jump\t// in\n    tag_44:\n      tag_46\n      jump\t// in\n    tag_43:\n      mload(0x40)\n      tag_47\n      swap2\n      swap1\n      tag_23\n      jump\t// in\n    tag_47:\n      mload(0x40)\n      dup1\n      swap2\n      sub\n      swap1\n      return\n        /* \"src/ERC6909.sol\":3067:3891  function transferFrom(... */\n    tag_10:\n      tag_48\n      0x04\n      dup1\n      calldatasize\n      sub\n      dup2\n      add\n      swap1\n      tag_49\n      swap2\n      swap1\n      tag_50\n      jump\t// in\n    tag_49:\n      tag_51\n      jump\t// in\n    tag_48:\n      mload(0x40)\n      tag_52\n      swap2\n      swap1\n      tag_23\n      jump\t// in\n    tag_52:\n      mload(0x40)\n      dup1\n      swap2\n      sub\n      swap1\n      return\n        /* \"src/ERC6909.sol\":1750:1838  mapping(address owner => mapping(uint256 id => uint256 amount))... */\n    tag_15:\n      mstore(0x20, 0x00)\n      dup2\n      0x00\n      mstore\n      mstore(0x20, keccak256(0x00, 0x40))\n      dup1\n      0x00\n      mstore\n      keccak256(0x00, 0x40)\n      0x00\n      swap2\n      pop\n      swap2\n      pop\n      pop\n      sload\n      dup2\n      jump\t// out\n        /* \"src/ERC6909.sol\":4949:5125  function supportsInterface(... */\n    tag_21:\n        /* \"src/ERC6909.sol\":5031:5045  bool supported */\n      0x00\n        /* \"src/ERC6909.sol\":5079:5089  0x0f632fb3 */\n      0x0f632fb3\n        /* \"src/ERC6909.sol\":5064:5089  interfaceId == 0x0f632fb3 */\n      0xe0\n      shl\n        /* \"src/ERC6909.sol\":5064:5075  interfaceId */\n      dup3\n        /* \"src/ERC6909.sol\":5064:5089  interfaceId == 0x0f632fb3 */\n      not(0xffffffffffffffffffffffffffffffffffffffffffffffffffffffff)\n      and\n      eq\n        /* \"src/ERC6909.sol\":5064:5118  interfaceId == 0x0f632fb3 || interfaceId == 0x01ffc9a7 */\n      dup1\n      tag_54\n      jumpi\n      pop\n        /* \"src/ERC6909.sol\":5108:5118  0x01ffc9a7 */\n      0x01ffc9a7\n        /* \"src/ERC6909.sol\":5093:5118  interfaceId == 0x01ffc9a7 */\n      0xe0\n      shl\n        /* \"src/ERC6909.sol\":5093:5104  interfaceId */\n      dup3\n        /* \"src/ERC6909.sol\":5093:5118  interfaceId == 0x01ffc9a7 */\n      not(0xffffffffffffffffffffffffffffffffffffffffffffffffffffffff)\n      and\n      eq\n        /* \"src/ERC6909.sol\":5064:5118  interfaceId == 0x0f632fb3 || interfaceId == 0x01ffc9a7 */\n    tag_54:\n        /* \"src/ERC6909.sol\":5057:5118  return interfaceId == 0x0f632fb3 || interfaceId == 0x01ffc9a7 */\n      swap1\n      pop\n        /* \"src/ERC6909.sol\":4949:5125  function supportsInterface(... */\n      swap2\n      swap1\n      pop\n      jump\t// out\n        /* \"src/ERC6909.sol\":2394:2799  function transfer(... */\n    tag_27:\n        /* \"src/ERC6909.sol\":2504:2508  bool */\n      0x00\n        /* \"src/ERC6909.sol\":2552:2558  amount */\n      dup2\n        /* \"src/ERC6909.sol\":2524:2533  balanceOf */\n      0x00\n        /* \"src/ERC6909.sol\":2524:2545  balanceOf[msg.sender] */\n      dup1\n        /* \"src/ERC6909.sol\":2534:2544  msg.sender */\n      caller\n        /* \"src/ERC6909.sol\":2524:2545  balanceOf[msg.sender] */\n      0xffffffffffffffffffffffffffffffffffffffff\n      and\n      0xffffffffffffffffffffffffffffffffffffffff\n      and\n      dup2\n      mstore\n      0x20\n      add\n      swap1\n      dup2\n      mstore\n      0x20\n      add\n      0x00\n      keccak256\n        /* \"src/ERC6909.sol\":2524:2549  balanceOf[msg.sender][id] */\n      0x00\n        /* \"src/ERC6909.sol\":2546:2548  id */\n      dup6\n        /* \"src/ERC6909.sol\":2524:2549  balanceOf[msg.sender][id] */\n      dup2\n      mstore\n      0x20\n      add\n      swap1\n      dup2\n      mstore\n      0x20\n      add\n      0x00\n      keccak256\n      sload\n        /* \"src/ERC6909.sol\":2524:2558  balanceOf[msg.sender][id] < amount */\n      lt\n        /* \"src/ERC6909.sol\":2520:2614  if (balanceOf[msg.sender][id] < amount)... */\n      iszero\n      tag_56\n      jumpi\n        /* \"src/ERC6909.sol\":2599:2609  msg.sender */\n      caller\n        /* \"src/ERC6909.sol\":2611:2613  id */\n      dup4\n        /* \"src/ERC6909.sol\":2579:2614  InsufficientBalance(msg.sender, id) */\n      mload(0x40)\n      0xf6deaa0400000000000000000000000000000000000000000000000000000000\n      dup2\n      mstore\n      0x04\n      add\n      tag_57\n      swap3\n      swap2\n      swap1\n      tag_58\n      jump\t// in\n    tag_57:\n      mload(0x40)\n      dup1\n      swap2\n      sub\n      swap1\n      revert\n        /* \"src/ERC6909.sol\":2520:2614  if (balanceOf[msg.sender][id] < amount)... */\n    tag_56:\n        /* \"src/ERC6909.sol\":2653:2659  amount */\n      dup2\n        /* \"src/ERC6909.sol\":2624:2633  balanceOf */\n      0x00\n        /* \"src/ERC6909.sol\":2624:2645  balanceOf[msg.sender] */\n      dup1\n        /* \"src/ERC6909.sol\":2634:2644  msg.sender */\n      caller\n        /* \"src/ERC6909.sol\":2624:2645  balanceOf[msg.sender] */\n      0xffffffffffffffffffffffffffffffffffffffff\n      and\n      0xffffffffffffffffffffffffffffffffffffffff\n      and\n      dup2\n      mstore\n      0x20\n      add\n      swap1\n      dup2\n      mstore\n      0x20\n      add\n      0x00\n      keccak256\n        /* \"src/ERC6909.sol\":2624:2649  balanceOf[msg.sender][id] */\n      0x00\n        /* \"src/ERC6909.sol\":2646:2648  id */\n      dup6\n        /* \"src/ERC6909.sol\":2624:2649  balanceOf[msg.sender][id] */\n      dup2\n      mstore\n      0x20\n      add\n      swap1\n      dup2\n      mstore\n      0x20\n      add\n      0x00\n      keccak256\n      0x00\n        /* \"src/ERC6909.sol\":2624:2659  balanceOf[msg.sender][id] -= amount */\n      dup3\n      dup3\n      sload\n      tag_59\n      swap2\n      swap1\n      tag_60\n      jump\t// in\n    tag_59:\n      swap3\n      pop\n      pop\n      dup2\n      swap1\n      sstore\n      pop\n        /* \"src/ERC6909.sol\":2696:2702  amount */\n      dup2\n        /* \"src/ERC6909.sol\":2669:2678  balanceOf */\n      0x00\n        /* \"src/ERC6909.sol\":2669:2688  balanceOf[receiver] */\n      dup1\n        /* \"src/ERC6909.sol\":2679:2687  receiver */\n      dup7\n        /* \"src/ERC6909.sol\":2669:2688  balanceOf[receiver] */\n      0xffffffffffffffffffffffffffffffffffffffff\n      and\n      0xffffffffffffffffffffffffffffffffffffffff\n      and\n      dup2\n      mstore\n      0x20\n      add\n      swap1\n      dup2\n      mstore\n      0x20\n      add\n      0x00\n      keccak256\n        /* \"src/ERC6909.sol\":2669:2692  balanceOf[receiver][id] */\n      0x00\n        /* \"src/ERC6909.sol\":2689:2691  id */\n      dup6\n        /* \"src/ERC6909.sol\":2669:2692  balanceOf[receiver][id] */\n      dup2\n      mstore\n      0x20\n      add\n      swap1\n      dup2\n      mstore\n      0x20\n      add\n      0x00\n      keccak256\n      0x00\n        /* \"src/ERC6909.sol\":2669:2702  balanceOf[receiver][id] += amount */\n      dup3\n      dup3\n      sload\n      tag_61\n      swap2\n      swap1\n      tag_62\n      jump\t// in\n    tag_61:\n      swap3\n      pop\n      pop\n      dup2\n      swap1\n      sstore\n      pop\n        /* \"src/ERC6909.sol\":2760:2762  id */\n      dup3\n        /* \"src/ERC6909.sol\":2750:2758  receiver */\n      dup5\n        /* \"src/ERC6909.sol\":2717:2771  Transfer(msg.sender, msg.sender, receiver, id, amount) */\n      0xffffffffffffffffffffffffffffffffffffffff\n      and\n        /* \"src/ERC6909.sol\":2738:2748  msg.sender */\n      caller\n        /* \"src/ERC6909.sol\":2717:2771  Transfer(msg.sender, msg.sender, receiver, id, amount) */\n      0xffffffffffffffffffffffffffffffffffffffff\n      and\n      0x1b3d7edb2e9c0b0e7c525b20aaaef0f5940d2ed71663c7d39266ecafac728859\n        /* \"src/ERC6909.sol\":2726:2736  msg.sender */\n      caller\n        /* \"src/ERC6909.sol\":2764:2770  amount */\n      dup7\n        /* \"src/ERC6909.sol\":2717:2771  Transfer(msg.sender, msg.sender, receiver, id, amount) */\n      mload(0x40)\n      tag_63\n      swap3\n      swap2\n      swap1\n      tag_58\n      jump\t// in\n    tag_63:\n      mload(0x40)\n      dup1\n      swap2\n      sub\n      swap1\n      log4\n        /* \"src/ERC6909.sol\":2788:2792  true */\n      0x01\n        /* \"src/ERC6909.sol\":2781:2792  return true */\n      swap1\n      pop\n        /* \"src/ERC6909.sol\":2394:2799  function transfer(... */\n      swap4\n      swap3\n      pop\n      pop\n      pop\n      jump\t// out\n        /* \"src/ERC6909.sol\":4092:4343  function approve(... */\n    tag_31:\n        /* \"src/ERC6909.sol\":4200:4204  bool */\n      0x00\n        /* \"src/ERC6909.sol\":4253:4259  amount */\n      dup2\n        /* \"src/ERC6909.sol\":4216:4225  allowance */\n      0x01\n        /* \"src/ERC6909.sol\":4216:4237  allowance[msg.sender] */\n      0x00\n        /* \"src/ERC6909.sol\":4226:4236  msg.sender */\n      caller\n        /* \"src/ERC6909.sol\":4216:4237  allowance[msg.sender] */\n      0xffffffffffffffffffffffffffffffffffffffff\n      and\n      0xffffffffffffffffffffffffffffffffffffffff\n      and\n      dup2\n      mstore\n      0x20\n      add\n      swap1\n      dup2\n      mstore\n      0x20\n      add\n      0x00\n      keccak256\n        /* \"src/ERC6909.sol\":4216:4246  allowance[msg.sender][spender] */\n      0x00\n        /* \"src/ERC6909.sol\":4238:4245  spender */\n      dup7\n        /* \"src/ERC6909.sol\":4216:4246  allowance[msg.sender][spender] */\n      0xffffffffffffffffffffffffffffffffffffffff\n      and\n      0xffffffffffffffffffffffffffffffffffffffff\n      and\n      dup2\n      mstore\n      0x20\n      add\n      swap1\n      dup2\n      mstore\n      0x20\n      add\n      0x00\n      keccak256\n        /* \"src/ERC6909.sol\":4216:4250  allowance[msg.sender][spender][id] */\n      0x00\n        /* \"src/ERC6909.sol\":4247:4249  id */\n      dup6\n        /* \"src/ERC6909.sol\":4216:4250  allowance[msg.sender][spender][id] */\n      dup2\n      mstore\n      0x20\n      add\n      swap1\n      dup2\n      mstore\n      0x20\n      add\n      0x00\n      keccak256\n        /* \"src/ERC6909.sol\":4216:4259  allowance[msg.sender][spender][id] = amount */\n      dup2\n      swap1\n      sstore\n      pop\n        /* \"src/ERC6909.sol\":4304:4306  id */\n      dup3\n        /* \"src/ERC6909.sol\":4295:4302  spender */\n      dup5\n        /* \"src/ERC6909.sol\":4274:4315  Approval(msg.sender, spender, id, amount) */\n      0xffffffffffffffffffffffffffffffffffffffff\n      and\n        /* \"src/ERC6909.sol\":4283:4293  msg.sender */\n      caller\n        /* \"src/ERC6909.sol\":4274:4315  Approval(msg.sender, spender, id, amount) */\n      0xffffffffffffffffffffffffffffffffffffffff\n      and\n      0xb3fd5071835887567a0671151121894ddccc2842f1d10bedad13e0d17cace9a7\n        /* \"src/ERC6909.sol\":4308:4314  amount */\n      dup6\n        /* \"src/ERC6909.sol\":4274:4315  Approval(msg.sender, spender, id, amount) */\n      mload(0x40)\n      tag_65\n      swap2\n      swap1\n      tag_17\n      jump\t// in\n    tag_65:\n      mload(0x40)\n      dup1\n      swap2\n      sub\n      swap1\n      log4\n        /* \"src/ERC6909.sol\":4332:4336  true */\n      0x01\n        /* \"src/ERC6909.sol\":4325:4336  return true */\n      swap1\n      pop\n        /* \"src/ERC6909.sol\":4092:4343  function approve(... */\n      swap4\n      swap3\n      pop\n      pop\n      pop\n      jump\t// out\n        /* \"src/ERC6909.sol\":4518:4730  function setOperator(address spender, bool approved) public returns (bool) {... */\n    tag_36:\n        /* \"src/ERC6909.sol\":4587:4591  bool */\n      0x00\n        /* \"src/ERC6909.sol\":4637:4645  approved */\n      dup2\n        /* \"src/ERC6909.sol\":4603:4613  isOperator */\n      0x02\n        /* \"src/ERC6909.sol\":4603:4625  isOperator[msg.sender] */\n      0x00\n        /* \"src/ERC6909.sol\":4614:4624  msg.sender */\n      caller\n        /* \"src/ERC6909.sol\":4603:4625  isOperator[msg.sender] */\n      0xffffffffffffffffffffffffffffffffffffffff\n      and\n      0xffffffffffffffffffffffffffffffffffffffff\n      and\n      dup2\n      mstore\n      0x20\n      add\n      swap1\n      dup2\n      mstore\n      0x20\n      add\n      0x00\n      keccak256\n        /* \"src/ERC6909.sol\":4603:4634  isOperator[msg.sender][spender] */\n      0x00\n        /* \"src/ERC6909.sol\":4626:4633  spender */\n      dup6\n        /* \"src/ERC6909.sol\":4603:4634  isOperator[msg.sender][spender] */\n      0xffffffffffffffffffffffffffffffffffffffff\n      and\n      0xffffffffffffffffffffffffffffffffffffffff\n      and\n      dup2\n      mstore\n      0x20\n      add\n      swap1\n      dup2\n      mstore\n      0x20\n      add\n      0x00\n      keccak256\n      0x00\n        /* \"src/ERC6909.sol\":4603:4645  isOperator[msg.sender][spender] = approved */\n      0x0100\n      exp\n      dup2\n      sload\n      dup2\n      0xff\n      mul\n      not\n      and\n      swap1\n      dup4\n      iszero\n      iszero\n      mul\n      or\n      swap1\n      sstore\n      pop\n        /* \"src/ERC6909.sol\":4684:4691  spender */\n      dup3\n        /* \"src/ERC6909.sol\":4660:4702  OperatorSet(msg.sender, spender, approved) */\n      0xffffffffffffffffffffffffffffffffffffffff\n      and\n        /* \"src/ERC6909.sol\":4672:4682  msg.sender */\n      caller\n        /* \"src/ERC6909.sol\":4660:4702  OperatorSet(msg.sender, spender, approved) */\n      0xffffffffffffffffffffffffffffffffffffffff\n      and\n      0xceb576d9f15e4e200fdb5096d64d5dfd667e16def20c1eefd14256d8e3faa267\n        /* \"src/ERC6909.sol\":4693:4701  approved */\n      dup5\n        /* \"src/ERC6909.sol\":4660:4702  OperatorSet(msg.sender, spender, approved) */\n      mload(0x40)\n      tag_67\n      swap2\n      swap1\n      tag_23\n      jump\t// in\n    tag_67:\n      mload(0x40)\n      dup1\n      swap2\n      sub\n      swap1\n      log3\n        /* \"src/ERC6909.sol\":4719:4723  true */\n      0x01\n        /* \"src/ERC6909.sol\":4712:4723  return true */\n      swap1\n      pop\n        /* \"src/ERC6909.sol\":4518:4730  function setOperator(address spender, bool approved) public returns (bool) {... */\n      swap3\n      swap2\n      pop\n      pop\n      jump\t// out\n        /* \"src/ERC6909.sol\":1889:2005  mapping(address owner => mapping(address spender => mapping(uint256 id => uint256 amount)))... */\n    tag_41:\n      mstore(0x20, 0x01)\n      dup3\n      0x00\n      mstore\n      mstore(0x20, keccak256(0x00, 0x40))\n      dup2\n      0x00\n      mstore\n      mstore(0x20, keccak256(0x00, 0x40))\n      dup1\n      0x00\n      mstore\n      keccak256(0x00, 0x40)\n      0x00\n      swap3\n      pop\n      swap3\n      pop\n      pop\n      pop\n      sload\n      dup2\n      jump\t// out\n        /* \"src/ERC6909.sol\":2088:2172  mapping(address owner => mapping(address spender => bool))... */\n    tag_46:\n      mstore(0x20, 0x02)\n      dup2\n      0x00\n      mstore\n      mstore(0x20, keccak256(0x00, 0x40))\n      dup1\n      0x00\n      mstore\n      keccak256(0x00, 0x40)\n      0x00\n      swap2\n      pop\n      swap2\n      pop\n      swap1\n      sload\n      swap1\n      0x0100\n      exp\n      swap1\n      div\n      0xff\n      and\n      dup2\n      jump\t// out\n        /* \"src/ERC6909.sol\":3067:3891  function transferFrom(... */\n    tag_51:\n        /* \"src/ERC6909.sol\":3205:3209  bool */\n      0x00\n        /* \"src/ERC6909.sol\":3235:3245  msg.sender */\n      caller\n        /* \"src/ERC6909.sol\":3225:3245  sender != msg.sender */\n      0xffffffffffffffffffffffffffffffffffffffff\n      and\n        /* \"src/ERC6909.sol\":3225:3231  sender */\n      dup6\n        /* \"src/ERC6909.sol\":3225:3245  sender != msg.sender */\n      0xffffffffffffffffffffffffffffffffffffffff\n      and\n      eq\n      iszero\n        /* \"src/ERC6909.sol\":3225:3280  sender != msg.sender && !isOperator[sender][msg.sender] */\n      dup1\n      iszero\n      tag_69\n      jumpi\n      pop\n        /* \"src/ERC6909.sol\":3250:3260  isOperator */\n      0x02\n        /* \"src/ERC6909.sol\":3250:3268  isOperator[sender] */\n      0x00\n        /* \"src/ERC6909.sol\":3261:3267  sender */\n      dup7\n        /* \"src/ERC6909.sol\":3250:3268  isOperator[sender] */\n      0xffffffffffffffffffffffffffffffffffffffff\n      and\n      0xffffffffffffffffffffffffffffffffffffffff\n      and\n      dup2\n      mstore\n      0x20\n      add\n      swap1\n      dup2\n      mstore\n      0x20\n      add\n      0x00\n      keccak256\n        /* \"src/ERC6909.sol\":3250:3280  isOperator[sender][msg.sender] */\n      0x00\n        /* \"src/ERC6909.sol\":3269:3279  msg.sender */\n      caller\n        /* \"src/ERC6909.sol\":3250:3280  isOperator[sender][msg.sender] */\n      0xffffffffffffffffffffffffffffffffffffffff\n      and\n      0xffffffffffffffffffffffffffffffffffffffff\n      and\n      dup2\n      mstore\n      0x20\n      add\n      swap1\n      dup2\n      mstore\n      0x20\n      add\n      0x00\n      keccak256\n      0x00\n      swap1\n      sload\n      swap1\n      0x0100\n      exp\n      swap1\n      div\n      0xff\n      and\n        /* \"src/ERC6909.sol\":3249:3280  !isOperator[sender][msg.sender] */\n      iszero\n        /* \"src/ERC6909.sol\":3225:3280  sender != msg.sender && !isOperator[sender][msg.sender] */\n    tag_69:\n        /* \"src/ERC6909.sol\":3221:3619  if (sender != msg.sender && !isOperator[sender][msg.sender]) {... */\n      iszero\n      tag_70\n      jumpi\n        /* \"src/ERC6909.sol\":3296:3319  uint256 senderAllowance */\n      0x00\n        /* \"src/ERC6909.sol\":3322:3331  allowance */\n      0x01\n        /* \"src/ERC6909.sol\":3322:3339  allowance[sender] */\n      0x00\n        /* \"src/ERC6909.sol\":3332:3338  sender */\n      dup8\n        /* \"src/ERC6909.sol\":3322:3339  allowance[sender] */\n      0xffffffffffffffffffffffffffffffffffffffff\n      and\n      0xffffffffffffffffffffffffffffffffffffffff\n      and\n      dup2\n      mstore\n      0x20\n      add\n      swap1\n      dup2\n      mstore\n      0x20\n      add\n      0x00\n      keccak256\n        /* \"src/ERC6909.sol\":3322:3351  allowance[sender][msg.sender] */\n      0x00\n        /* \"src/ERC6909.sol\":3340:3350  msg.sender */\n      caller\n        /* \"src/ERC6909.sol\":3322:3351  allowance[sender][msg.sender] */\n      0xffffffffffffffffffffffffffffffffffffffff\n      and\n      0xffffffffffffffffffffffffffffffffffffffff\n      and\n      dup2\n      mstore\n      0x20\n      add\n      swap1\n      dup2\n      mstore\n      0x20\n      add\n      0x00\n      keccak256\n        /* \"src/ERC6909.sol\":3322:3355  allowance[sender][msg.sender][id] */\n      0x00\n        /* \"src/ERC6909.sol\":3352:3354  id */\n      dup6\n        /* \"src/ERC6909.sol\":3322:3355  allowance[sender][msg.sender][id] */\n      dup2\n      mstore\n      0x20\n      add\n      swap1\n      dup2\n      mstore\n      0x20\n      add\n      0x00\n      keccak256\n      sload\n        /* \"src/ERC6909.sol\":3296:3355  uint256 senderAllowance = allowance[sender][msg.sender][id] */\n      swap1\n      pop\n        /* \"src/ERC6909.sol\":3391:3397  amount */\n      dup3\n        /* \"src/ERC6909.sol\":3373:3388  senderAllowance */\n      dup2\n        /* \"src/ERC6909.sol\":3373:3397  senderAllowance < amount */\n      lt\n        /* \"src/ERC6909.sol\":3369:3460  if (senderAllowance < amount)... */\n      iszero\n      tag_71\n      jumpi\n        /* \"src/ERC6909.sol\":3445:3455  msg.sender */\n      caller\n        /* \"src/ERC6909.sol\":3457:3459  id */\n      dup5\n        /* \"src/ERC6909.sol\":3422:3460  InsufficientPermission(msg.sender, id) */\n      mload(0x40)\n      0x731555bd00000000000000000000000000000000000000000000000000000000\n      dup2\n      mstore\n      0x04\n      add\n      tag_72\n      swap3\n      swap2\n      swap1\n      tag_58\n      jump\t// in\n    tag_72:\n      mload(0x40)\n      dup1\n      swap2\n      sub\n      swap1\n      revert\n        /* \"src/ERC6909.sol\":3369:3460  if (senderAllowance < amount)... */\n    tag_71:\n        /* \"src/ERC6909.sol\":3497:3514  type(uint256).max */\n      0xffffffffffffffffffffffffffffffffffffffffffffffffffffffffffffffff\n        /* \"src/ERC6909.sol\":3478:3493  senderAllowance */\n      dup2\n        /* \"src/ERC6909.sol\":3478:3514  senderAllowance != type(uint256).max */\n      eq\n        /* \"src/ERC6909.sol\":3474:3609  if (senderAllowance != type(uint256).max) {... */\n      tag_73\n      jumpi\n        /* \"src/ERC6909.sol\":3588:3594  amount */\n      dup3\n        /* \"src/ERC6909.sol\":3570:3585  senderAllowance */\n      dup2\n        /* \"src/ERC6909.sol\":3570:3594  senderAllowance - amount */\n      tag_74\n      swap2\n      swap1\n      tag_60\n      jump\t// in\n    tag_74:\n        /* \"src/ERC6909.sol\":3534:3543  allowance */\n      0x01\n        /* \"src/ERC6909.sol\":3534:3551  allowance[sender] */\n      0x00\n        /* \"src/ERC6909.sol\":3544:3550  sender */\n      dup9\n        /* \"src/ERC6909.sol\":3534:3551  allowance[sender] */\n      0xffffffffffffffffffffffffffffffffffffffff\n      and\n      0xffffffffffffffffffffffffffffffffffffffff\n      and\n      dup2\n      mstore\n      0x20\n      add\n      swap1\n      dup2\n      mstore\n      0x20\n      add\n      0x00\n      keccak256\n        /* \"src/ERC6909.sol\":3534:3563  allowance[sender][msg.sender] */\n      0x00\n        /* \"src/ERC6909.sol\":3552:3562  msg.sender */\n      caller\n        /* \"src/ERC6909.sol\":3534:3563  allowance[sender][msg.sender] */\n      0xffffffffffffffffffffffffffffffffffffffff\n      and\n      0xffffffffffffffffffffffffffffffffffffffff\n      and\n      dup2\n      mstore\n      0x20\n      add\n      swap1\n      dup2\n      mstore\n      0x20\n      add\n      0x00\n      keccak256\n        /* \"src/ERC6909.sol\":3534:3567  allowance[sender][msg.sender][id] */\n      0x00\n        /* \"src/ERC6909.sol\":3564:3566  id */\n      dup7\n        /* \"src/ERC6909.sol\":3534:3567  allowance[sender][msg.sender][id] */\n      dup2\n      mstore\n      0x20\n      add\n      swap1\n      dup2\n      mstore\n      0x20\n      add\n      0x00\n      keccak256\n        /* \"src/ERC6909.sol\":3534:3594  allowance[sender][msg.sender][id] = senderAllowance - amount */\n      dup2\n      swap1\n      sstore\n      pop\n        /* \"src/ERC6909.sol\":3474:3609  if (senderAllowance != type(uint256).max) {... */\n    tag_73:\n        /* \"src/ERC6909.sol\":3282:3619  {... */\n      pop\n        /* \"src/ERC6909.sol\":3221:3619  if (sender != msg.sender && !isOperator[sender][msg.sender]) {... */\n    tag_70:\n        /* \"src/ERC6909.sol\":3656:3662  amount */\n      dup2\n        /* \"src/ERC6909.sol\":3632:3641  balanceOf */\n      0x00\n        /* \"src/ERC6909.sol\":3632:3649  balanceOf[sender] */\n      dup1\n        /* \"src/ERC6909.sol\":3642:3648  sender */\n      dup8\n        /* \"src/ERC6909.sol\":3632:3649  balanceOf[sender] */\n      0xffffffffffffffffffffffffffffffffffffffff\n      and\n      0xffffffffffffffffffffffffffffffffffffffff\n      and\n      dup2\n      mstore\n      0x20\n      add\n      swap1\n      dup2\n      mstore\n      0x20\n      add\n      0x00\n      keccak256\n        /* \"src/ERC6909.sol\":3632:3653  balanceOf[sender][id] */\n      0x00\n        /* \"src/ERC6909.sol\":3650:3652  id */\n      dup6\n        /* \"src/ERC6909.sol\":3632:3653  balanceOf[sender][id] */\n      dup2\n      mstore\n      0x20\n      add\n      swap1\n      dup2\n      mstore\n      0x20\n      add\n      0x00\n      keccak256\n      sload\n        /* \"src/ERC6909.sol\":3632:3662  balanceOf[sender][id] < amount */\n      lt\n        /* \"src/ERC6909.sol\":3628:3714  if (balanceOf[sender][id] < amount)... */\n      iszero\n      tag_75\n      jumpi\n        /* \"src/ERC6909.sol\":3703:3709  sender */\n      dup5\n        /* \"src/ERC6909.sol\":3711:3713  id */\n      dup4\n        /* \"src/ERC6909.sol\":3683:3714  InsufficientBalance(sender, id) */\n      mload(0x40)\n      0xf6deaa0400000000000000000000000000000000000000000000000000000000\n      dup2\n      mstore\n      0x04\n      add\n      tag_76\n      swap3\n      swap2\n      swap1\n      tag_58\n      jump\t// in\n    tag_76:\n      mload(0x40)\n      dup1\n      swap2\n      sub\n      swap1\n      revert\n        /* \"src/ERC6909.sol\":3628:3714  if (balanceOf[sender][id] < amount)... */\n    tag_75:\n        /* \"src/ERC6909.sol\":3749:3755  amount */\n      dup2\n        /* \"src/ERC6909.sol\":3724:3733  balanceOf */\n      0x00\n        /* \"src/ERC6909.sol\":3724:3741  balanceOf[sender] */\n      dup1\n        /* \"src/ERC6909.sol\":3734:3740  sender */\n      dup8\n        /* \"src/ERC6909.sol\":3724:3741  balanceOf[sender] */\n      0xffffffffffffffffffffffffffffffffffffffff\n      and\n      0xffffffffffffffffffffffffffffffffffffffff\n      and\n      dup2\n      mstore\n      0x20\n      add\n      swap1\n      dup2\n      mstore\n      0x20\n      add\n      0x00\n      keccak256\n        /* \"src/ERC6909.sol\":3724:3745  balanceOf[sender][id] */\n      0x00\n        /* \"src/ERC6909.sol\":3742:3744  id */\n      dup6\n        /* \"src/ERC6909.sol\":3724:3745  balanceOf[sender][id] */\n      dup2\n      mstore\n      0x20\n      add\n      swap1\n      dup2\n      mstore\n      0x20\n      add\n      0x00\n      keccak256\n      0x00\n        /* \"src/ERC6909.sol\":3724:3755  balanceOf[sender][id] -= amount */\n      dup3\n      dup3\n      sload\n      tag_77\n      swap2\n      swap1\n      tag_60\n      jump\t// in\n    tag_77:\n      swap3\n      pop\n      pop\n      dup2\n      swap1\n      sstore\n      pop\n        /* \"src/ERC6909.sol\":3792:3798  amount */\n      dup2\n        /* \"src/ERC6909.sol\":3765:3774  balanceOf */\n      0x00\n        /* \"src/ERC6909.sol\":3765:3784  balanceOf[receiver] */\n      dup1\n        /* \"src/ERC6909.sol\":3775:3783  receiver */\n      dup7\n        /* \"src/ERC6909.sol\":3765:3784  balanceOf[receiver] */\n      0xffffffffffffffffffffffffffffffffffffffff\n      and\n      0xffffffffffffffffffffffffffffffffffffffff\n      and\n      dup2\n      mstore\n      0x20\n      add\n      swap1\n      dup2\n      mstore\n      0x20\n      add\n      0x00\n      keccak256\n        /* \"src/ERC6909.sol\":3765:3788  balanceOf[receiver][id] */\n      0x00\n        /* \"src/ERC6909.sol\":3785:3787  id */\n      dup6\n        /* \"src/ERC6909.sol\":3765:3788  balanceOf[receiver][id] */\n      dup2\n      mstore\n      0x20\n      add\n      swap1\n      dup2\n      mstore\n      0x20\n      add\n      0x00\n      keccak256\n      0x00\n        /* \"src/ERC6909.sol\":3765:3798  balanceOf[receiver][id] += amount */\n      dup3\n      dup3\n      sload\n      tag_78\n      swap2\n      swap1\n      tag_62\n      jump\t// in\n    tag_78:\n      swap3\n      pop\n      pop\n      dup2\n      swap1\n      sstore\n      pop\n        /* \"src/ERC6909.sol\":3852:3854  id */\n      dup3\n        /* \"src/ERC6909.sol\":3842:3850  receiver */\n      dup5\n        /* \"src/ERC6909.sol\":3813:3863  Transfer(msg.sender, sender, receiver, id, amount) */\n      0xffffffffffffffffffffffffffffffffffffffff\n      and\n        /* \"src/ERC6909.sol\":3834:3840  sender */\n      dup7\n        /* \"src/ERC6909.sol\":3813:3863  Transfer(msg.sender, sender, receiver, id, amount) */\n      0xffffffffffffffffffffffffffffffffffffffff\n      and\n      0x1b3d7edb2e9c0b0e7c525b20aaaef0f5940d2ed71663c7d39266ecafac728859\n        /* \"src/ERC6909.sol\":3822:3832  msg.sender */\n      caller\n        /* \"src/ERC6909.sol\":3856:3862  amount */\n      dup7\n        /* \"src/ERC6909.sol\":3813:3863  Transfer(msg.sender, sender, receiver, id, amount) */\n      mload(0x40)\n      tag_79\n      swap3\n      swap2\n      swap1\n      tag_58\n      jump\t// in\n    tag_79:\n      mload(0x40)\n      dup1\n      swap2\n      sub\n      swap1\n      log4\n        /* \"src/ERC6909.sol\":3880:3884  true */\n      0x01\n        /* \"src/ERC6909.sol\":3873:3884  return true */\n      swap1\n      pop\n        /* \"src/ERC6909.sol\":3067:3891  function transferFrom(... */\n      swap5\n      swap4\n      pop\n      pop\n      pop\n      pop\n      jump\t// out\n        /* \"#utility.yul\":88:205   */\n    tag_81:\n        /* \"#utility.yul\":197:198   */\n      0x00\n        /* \"#utility.yul\":194:195   */\n      dup1\n        /* \"#utility.yul\":187:199   */\n      revert\n        /* \"#utility.yul\":334:460   */\n    tag_83:\n        /* \"#utility.yul\":371:378   */\n      0x00\n        /* \"#utility.yul\":411:453   */\n      0xffffffffffffffffffffffffffffffffffffffff\n        /* \"#utility.yul\":404:409   */\n      dup3\n        /* \"#utility.yul\":400:454   */\n      and\n        /* \"#utility.yul\":389:454   */\n      swap1\n      pop\n        /* \"#utility.yul\":334:460   */\n      swap2\n      swap1\n      pop\n      jump\t// out\n        /* \"#utility.yul\":466:562   */\n    tag_84:\n        /* \"#utility.yul\":503:510   */\n      0x00\n        /* \"#utility.yul\":532:556   */\n      tag_106\n        /* \"#utility.yul\":550:555   */\n      dup3\n        /* \"#utility.yul\":532:556   */\n      tag_83\n      jump\t// in\n    tag_106:\n        /* \"#utility.yul\":521:556   */\n      swap1\n      pop\n        /* \"#utility.yul\":466:562   */\n      swap2\n      swap1\n      pop\n      jump\t// out\n        /* \"#utility.yul\":568:690   */\n    tag_85:\n        /* \"#utility.yul\":641:665   */\n      tag_108\n        /* \"#utility.yul\":659:664   */\n      dup2\n        /* \"#utility.yul\":641:665   */\n      tag_84\n      jump\t// in\n    tag_108:\n        /* \"#utility.yul\":634:639   */\n      dup2\n        /* \"#utility.yul\":631:666   */\n      eq\n        /* \"#utility.yul\":621:684   */\n      tag_109\n      jumpi\n        /* \"#utility.yul\":680:681   */\n      0x00\n        /* \"#utility.yul\":677:678   */\n      dup1\n        /* \"#utility.yul\":670:682   */\n      revert\n        /* \"#utility.yul\":621:684   */\n    tag_109:\n        /* \"#utility.yul\":568:690   */\n      pop\n      jump\t// out\n        /* \"#utility.yul\":696:835   */\n    tag_86:\n        /* \"#utility.yul\":742:747   */\n      0x00\n        /* \"#utility.yul\":780:786   */\n      dup2\n        /* \"#utility.yul\":767:787   */\n      calldataload\n        /* \"#utility.yul\":758:787   */\n      swap1\n      pop\n        /* \"#utility.yul\":796:829   */\n      tag_111\n        /* \"#utility.yul\":823:828   */\n      dup2\n        /* \"#utility.yul\":796:829   */\n      tag_85\n      jump\t// in\n    tag_111:\n        /* \"#utility.yul\":696:835   */\n      swap3\n      swap2\n      pop\n      pop\n      jump\t// out\n        /* \"#utility.yul\":841:918   */\n    tag_87:\n        /* \"#utility.yul\":878:885   */\n      0x00\n        /* \"#utility.yul\":907:912   */\n      dup2\n        /* \"#utility.yul\":896:912   */\n      swap1\n      pop\n        /* \"#utility.yul\":841:918   */\n      swap2\n      swap1\n      pop\n      jump\t// out\n        /* \"#utility.yul\":924:1046   */\n    tag_88:\n        /* \"#utility.yul\":997:1021   */\n      tag_114\n        /* \"#utility.yul\":1015:1020   */\n      dup2\n        /* \"#utility.yul\":997:1021   */\n      tag_87\n      jump\t// in\n    tag_114:\n        /* \"#utility.yul\":990:995   */\n      dup2\n        /* \"#utility.yul\":987:1022   */\n      eq\n        /* \"#utility.yul\":977:1040   */\n      tag_115\n      jumpi\n        /* \"#utility.yul\":1036:1037   */\n      0x00\n        /* \"#utility.yul\":1033:1034   */\n      dup1\n        /* \"#utility.yul\":1026:1038   */\n      revert\n        /* \"#utility.yul\":977:1040   */\n    tag_115:\n        /* \"#utility.yul\":924:1046   */\n      pop\n      jump\t// out\n        /* \"#utility.yul\":1052:1191   */\n    tag_89:\n        /* \"#utility.yul\":1098:1103   */\n      0x00\n        /* \"#utility.yul\":1136:1142   */\n      dup2\n        /* \"#utility.yul\":1123:1143   */\n      calldataload\n        /* \"#utility.yul\":1114:1143   */\n      swap1\n      pop\n        /* \"#utility.yul\":1152:1185   */\n      tag_117\n        /* \"#utility.yul\":1179:1184   */\n      dup2\n        /* \"#utility.yul\":1152:1185   */\n      tag_88\n      jump\t// in\n    tag_117:\n        /* \"#utility.yul\":1052:1191   */\n      swap3\n      swap2\n      pop\n      pop\n      jump\t// out\n        /* \"#utility.yul\":1197:1671   */\n    tag_14:\n        /* \"#utility.yul\":1265:1271   */\n      0x00\n        /* \"#utility.yul\":1273:1279   */\n      dup1\n        /* \"#utility.yul\":1322:1324   */\n      0x40\n        /* \"#utility.yul\":1310:1319   */\n      dup4\n        /* \"#utility.yul\":1301:1308   */\n      dup6\n        /* \"#utility.yul\":1297:1320   */\n      sub\n        /* \"#utility.yul\":1293:1325   */\n      slt\n        /* \"#utility.yul\":1290:1409   */\n      iszero\n      tag_119\n      jumpi\n        /* \"#utility.yul\":1328:1407   */\n      tag_120\n      tag_81\n      jump\t// in\n    tag_120:\n        /* \"#utility.yul\":1290:1409   */\n    tag_119:\n        /* \"#utility.yul\":1448:1449   */\n      0x00\n        /* \"#utility.yul\":1473:1526   */\n      tag_121\n        /* \"#utility.yul\":1518:1525   */\n      dup6\n        /* \"#utility.yul\":1509:1515   */\n      dup3\n        /* \"#utility.yul\":1498:1507   */\n      dup7\n        /* \"#utility.yul\":1494:1516   */\n      add\n        /* \"#utility.yul\":1473:1526   */\n      tag_86\n      jump\t// in\n    tag_121:\n        /* \"#utility.yul\":1463:1526   */\n      swap3\n      pop\n        /* \"#utility.yul\":1419:1536   */\n      pop\n        /* \"#utility.yul\":1575:1577   */\n      0x20\n        /* \"#utility.yul\":1601:1654   */\n      tag_122\n        /* \"#utility.yul\":1646:1653   */\n      dup6\n        /* \"#utility.yul\":1637:1643   */\n      dup3\n        /* \"#utility.yul\":1626:1635   */\n      dup7\n        /* \"#utility.yul\":1622:1644   */\n      add\n        /* \"#utility.yul\":1601:1654   */\n      tag_89\n      jump\t// in\n    tag_122:\n        /* \"#utility.yul\":1591:1654   */\n      swap2\n      pop\n        /* \"#utility.yul\":1546:1664   */\n      pop\n        /* \"#utility.yul\":1197:1671   */\n      swap3\n      pop\n      swap3\n      swap1\n      pop\n      jump\t// out\n        /* \"#utility.yul\":1677:1795   */\n    tag_90:\n        /* \"#utility.yul\":1764:1788   */\n      tag_124\n        /* \"#utility.yul\":1782:1787   */\n      dup2\n        /* \"#utility.yul\":1764:1788   */\n      tag_87\n      jump\t// in\n    tag_124:\n        /* \"#utility.yul\":1759:1762   */\n      dup3\n        /* \"#utility.yul\":1752:1789   */\n      mstore\n        /* \"#utility.yul\":1677:1795   */\n      pop\n      pop\n      jump\t// out\n        /* \"#utility.yul\":1801:2023   */\n    tag_17:\n        /* \"#utility.yul\":1894:1898   */\n      0x00\n        /* \"#utility.yul\":1932:1934   */\n      0x20\n        /* \"#utility.yul\":1921:1930   */\n      dup3\n        /* \"#utility.yul\":1917:1935   */\n      add\n        /* \"#utility.yul\":1909:1935   */\n      swap1\n      pop\n        /* \"#utility.yul\":1945:2016   */\n      tag_126\n        /* \"#utility.yul\":2013:2014   */\n      0x00\n        /* \"#utility.yul\":2002:2011   */\n      dup4\n        /* \"#utility.yul\":1998:2015   */\n      add\n        /* \"#utility.yul\":1989:1995   */\n      dup5\n        /* \"#utility.yul\":1945:2016   */\n      tag_90\n      jump\t// in\n    tag_126:\n        /* \"#utility.yul\":1801:2023   */\n      swap3\n      swap2\n      pop\n      pop\n      jump\t// out\n        /* \"#utility.yul\":2029:2178   */\n    tag_91:\n        /* \"#utility.yul\":2065:2072   */\n      0x00\n        /* \"#utility.yul\":2105:2171   */\n      0xffffffff00000000000000000000000000000000000000000000000000000000\n        /* \"#utility.yul\":2098:2103   */\n      dup3\n        /* \"#utility.yul\":2094:2172   */\n      and\n        /* \"#utility.yul\":2083:2172   */\n      swap1\n      pop\n        /* \"#utility.yul\":2029:2178   */\n      swap2\n      swap1\n      pop\n      jump\t// out\n        /* \"#utility.yul\":2184:2304   */\n    tag_92:\n        /* \"#utility.yul\":2256:2279   */\n      tag_129\n        /* \"#utility.yul\":2273:2278   */\n      dup2\n        /* \"#utility.yul\":2256:2279   */\n      tag_91\n      jump\t// in\n    tag_129:\n        /* \"#utility.yul\":2249:2254   */\n      dup2\n        /* \"#utility.yul\":2246:2280   */\n      eq\n        /* \"#utility.yul\":2236:2298   */\n      tag_130\n      jumpi\n        /* \"#utility.yul\":2294:2295   */\n      0x00\n        /* \"#utility.yul\":2291:2292   */\n      dup1\n        /* \"#utility.yul\":2284:2296   */\n      revert\n        /* \"#utility.yul\":2236:2298   */\n    tag_130:\n        /* \"#utility.yul\":2184:2304   */\n      pop\n      jump\t// out\n        /* \"#utility.yul\":2310:2447   */\n    tag_93:\n        /* \"#utility.yul\":2355:2360   */\n      0x00\n        /* \"#utility.yul\":2393:2399   */\n      dup2\n        /* \"#utility.yul\":2380:2400   */\n      calldataload\n        /* \"#utility.yul\":2371:2400   */\n      swap1\n      pop\n        /* \"#utility.yul\":2409:2441   */\n      tag_132\n        /* \"#utility.yul\":2435:2440   */\n      dup2\n        /* \"#utility.yul\":2409:2441   */\n      tag_92\n      jump\t// in\n    tag_132:\n        /* \"#utility.yul\":2310:2447   */\n      swap3\n      swap2\n      pop\n      pop\n      jump\t// out\n        /* \"#utility.yul\":2453:2780   */\n    tag_20:\n        /* \"#utility.yul\":2511:2517   */\n      0x00\n        /* \"#utility.yul\":2560:2562   */\n      0x20\n        /* \"#utility.yul\":2548:2557   */\n      dup3\n        /* \"#utility.yul\":2539:2546   */\n      dup5\n        /* \"#utility.yul\":2535:2558   */\n      sub\n        /* \"#utility.yul\":2531:2563   */\n      slt\n        /* \"#utility.yul\":2528:2647   */\n      iszero\n      tag_134\n      jumpi\n        /* \"#utility.yul\":2566:2645   */\n      tag_135\n      tag_81\n      jump\t// in\n    tag_135:\n        /* \"#utility.yul\":2528:2647   */\n    tag_134:\n        /* \"#utility.yul\":2686:2687   */\n      0x00\n        /* \"#utility.yul\":2711:2763   */\n      tag_136\n        /* \"#utility.yul\":2755:2762   */\n      dup5\n        /* \"#utility.yul\":2746:2752   */\n      dup3\n        /* \"#utility.yul\":2735:2744   */\n      dup6\n        /* \"#utility.yul\":2731:2753   */\n      add\n        /* \"#utility.yul\":2711:2763   */\n      tag_93\n      jump\t// in\n    tag_136:\n        /* \"#utility.yul\":2701:2763   */\n      swap2\n      pop\n        /* \"#utility.yul\":2657:2773   */\n      pop\n        /* \"#utility.yul\":2453:2780   */\n      swap3\n      swap2\n      pop\n      pop\n      jump\t// out\n        /* \"#utility.yul\":2786:2876   */\n    tag_94:\n        /* \"#utility.yul\":2820:2827   */\n      0x00\n        /* \"#utility.yul\":2863:2868   */\n      dup2\n        /* \"#utility.yul\":2856:2869   */\n      iszero\n        /* \"#utility.yul\":2849:2870   */\n      iszero\n        /* \"#utility.yul\":2838:2870   */\n      swap1\n      pop\n        /* \"#utility.yul\":2786:2876   */\n      swap2\n      swap1\n      pop\n      jump\t// out\n        /* \"#utility.yul\":2882:2991   */\n    tag_95:\n        /* \"#utility.yul\":2963:2984   */\n      tag_139\n        /* \"#utility.yul\":2978:2983   */\n      dup2\n        /* \"#utility.yul\":2963:2984   */\n      tag_94\n      jump\t// in\n    tag_139:\n        /* \"#utility.yul\":2958:2961   */\n      dup3\n        /* \"#utility.yul\":2951:2985   */\n      mstore\n        /* \"#utility.yul\":2882:2991   */\n      pop\n      pop\n      jump\t// out\n        /* \"#utility.yul\":2997:3207   */\n    tag_23:\n        /* \"#utility.yul\":3084:3088   */\n      0x00\n        /* \"#utility.yul\":3122:3124   */\n      0x20\n        /* \"#utility.yul\":3111:3120   */\n      dup3\n        /* \"#utility.yul\":3107:3125   */\n      add\n        /* \"#utility.yul\":3099:3125   */\n      swap1\n      pop\n        /* \"#utility.yul\":3135:3200   */\n      tag_141\n        /* \"#utility.yul\":3197:3198   */\n      0x00\n        /* \"#utility.yul\":3186:3195   */\n      dup4\n        /* \"#utility.yul\":3182:3199   */\n      add\n        /* \"#utility.yul\":3173:3179   */\n      dup5\n        /* \"#utility.yul\":3135:3200   */\n      tag_95\n      jump\t// in\n    tag_141:\n        /* \"#utility.yul\":2997:3207   */\n      swap3\n      swap2\n      pop\n      pop\n      jump\t// out\n        /* \"#utility.yul\":3213:3832   */\n    tag_26:\n        /* \"#utility.yul\":3290:3296   */\n      0x00\n        /* \"#utility.yul\":3298:3304   */\n      dup1\n        /* \"#utility.yul\":3306:3312   */\n      0x00\n        /* \"#utility.yul\":3355:3357   */\n      0x60\n        /* \"#utility.yul\":3343:3352   */\n      dup5\n        /* \"#utility.yul\":3334:3341   */\n      dup7\n        /* \"#utility.yul\":3330:3353   */\n      sub\n        /* \"#utility.yul\":3326:3358   */\n      slt\n        /* \"#utility.yul\":3323:3442   */\n      iszero\n      tag_143\n      jumpi\n        /* \"#utility.yul\":3361:3440   */\n      tag_144\n      tag_81\n      jump\t// in\n    tag_144:\n        /* \"#utility.yul\":3323:3442   */\n    tag_143:\n        /* \"#utility.yul\":3481:3482   */\n      0x00\n        /* \"#utility.yul\":3506:3559   */\n      tag_145\n        /* \"#utility.yul\":3551:3558   */\n      dup7\n        /* \"#utility.yul\":3542:3548   */\n      dup3\n        /* \"#utility.yul\":3531:3540   */\n      dup8\n        /* \"#utility.yul\":3527:3549   */\n      add\n        /* \"#utility.yul\":3506:3559   */\n      tag_86\n      jump\t// in\n    tag_145:\n        /* \"#utility.yul\":3496:3559   */\n      swap4\n      pop\n        /* \"#utility.yul\":3452:3569   */\n      pop\n        /* \"#utility.yul\":3608:3610   */\n      0x20\n        /* \"#utility.yul\":3634:3687   */\n      tag_146\n        /* \"#utility.yul\":3679:3686   */\n      dup7\n        /* \"#utility.yul\":3670:3676   */\n      dup3\n        /* \"#utility.yul\":3659:3668   */\n      dup8\n        /* \"#utility.yul\":3655:3677   */\n      add\n        /* \"#utility.yul\":3634:3687   */\n      tag_89\n      jump\t// in\n    tag_146:\n        /* \"#utility.yul\":3624:3687   */\n      swap3\n      pop\n        /* \"#utility.yul\":3579:3697   */\n      pop\n        /* \"#utility.yul\":3736:3738   */\n      0x40\n        /* \"#utility.yul\":3762:3815   */\n      tag_147\n        /* \"#utility.yul\":3807:3814   */\n      dup7\n        /* \"#utility.yul\":3798:3804   */\n      dup3\n        /* \"#utility.yul\":3787:3796   */\n      dup8\n        /* \"#utility.yul\":3783:3805   */\n      add\n        /* \"#utility.yul\":3762:3815   */\n      tag_89\n      jump\t// in\n    tag_147:\n        /* \"#utility.yul\":3752:3815   */\n      swap2\n      pop\n        /* \"#utility.yul\":3707:3825   */\n      pop\n        /* \"#utility.yul\":3213:3832   */\n      swap3\n      pop\n      swap3\n      pop\n      swap3\n      jump\t// out\n        /* \"#utility.yul\":3838:3954   */\n    tag_96:\n        /* \"#utility.yul\":3908:3929   */\n      tag_149\n        /* \"#utility.yul\":3923:3928   */\n      dup2\n        /* \"#utility.yul\":3908:3929   */\n      tag_94\n      jump\t// in\n    tag_149:\n        /* \"#utility.yul\":3901:3906   */\n      dup2\n        /* \"#utility.yul\":3898:3930   */\n      eq\n        /* \"#utility.yul\":3888:3948   */\n      tag_150\n      jumpi\n        /* \"#utility.yul\":3944:3945   */\n      0x00\n        /* \"#utility.yul\":3941:3942   */\n      dup1\n        /* \"#utility.yul\":3934:3946   */\n      revert\n        /* \"#utility.yul\":3888:3948   */\n    tag_150:\n        /* \"#utility.yul\":3838:3954   */\n      pop\n      jump\t// out\n        /* \"#utility.yul\":3960:4093   */\n    tag_97:\n        /* \"#utility.yul\":4003:4008   */\n      0x00\n        /* \"#utility.yul\":4041:4047   */\n      dup2\n        /* \"#utility.yul\":4028:4048   */\n      calldataload\n        /* \"#utility.yul\":4019:4048   */\n      swap1\n      pop\n        /* \"#utility.yul\":4057:4087   */\n      tag_152\n        /* \"#utility.yul\":4081:4086   */\n      dup2\n        /* \"#utility.yul\":4057:4087   */\n      tag_96\n      jump\t// in\n    tag_152:\n        /* \"#utility.yul\":3960:4093   */\n      swap3\n      swap2\n      pop\n      pop\n      jump\t// out\n        /* \"#utility.yul\":4099:4567   */\n    tag_35:\n        /* \"#utility.yul\":4164:4170   */\n      0x00\n        /* \"#utility.yul\":4172:4178   */\n      dup1\n        /* \"#utility.yul\":4221:4223   */\n      0x40\n        /* \"#utility.yul\":4209:4218   */\n      dup4\n        /* \"#utility.yul\":4200:4207   */\n      dup6\n        /* \"#utility.yul\":4196:4219   */\n      sub\n        /* \"#utility.yul\":4192:4224   */\n      slt\n        /* \"#utility.yul\":4189:4308   */\n      iszero\n      tag_154\n      jumpi\n        /* \"#utility.yul\":4227:4306   */\n      tag_155\n      tag_81\n      jump\t// in\n    tag_155:\n        /* \"#utility.yul\":4189:4308   */\n    tag_154:\n        /* \"#utility.yul\":4347:4348   */\n      0x00\n        /* \"#utility.yul\":4372:4425   */\n      tag_156\n        /* \"#utility.yul\":4417:4424   */\n      dup6\n        /* \"#utility.yul\":4408:4414   */\n      dup3\n        /* \"#utility.yul\":4397:4406   */\n      dup7\n        /* \"#utility.yul\":4393:4415   */\n      add\n        /* \"#utility.yul\":4372:4425   */\n      tag_86\n      jump\t// in\n    tag_156:\n        /* \"#utility.yul\":4362:4425   */\n      swap3\n      pop\n        /* \"#utility.yul\":4318:4435   */\n      pop\n        /* \"#utility.yul\":4474:4476   */\n      0x20\n        /* \"#utility.yul\":4500:4550   */\n      tag_157\n        /* \"#utility.yul\":4542:4549   */\n      dup6\n        /* \"#utility.yul\":4533:4539   */\n      dup3\n        /* \"#utility.yul\":4522:4531   */\n      dup7\n        /* \"#utility.yul\":4518:4540   */\n      add\n        /* \"#utility.yul\":4500:4550   */\n      tag_97\n      jump\t// in\n    tag_157:\n        /* \"#utility.yul\":4490:4550   */\n      swap2\n      pop\n        /* \"#utility.yul\":4445:4560   */\n      pop\n        /* \"#utility.yul\":4099:4567   */\n      swap3\n      pop\n      swap3\n      swap1\n      pop\n      jump\t// out\n        /* \"#utility.yul\":4573:5192   */\n    tag_40:\n        /* \"#utility.yul\":4650:4656   */\n      0x00\n        /* \"#utility.yul\":4658:4664   */\n      dup1\n        /* \"#utility.yul\":4666:4672   */\n      0x00\n        /* \"#utility.yul\":4715:4717   */\n      0x60\n        /* \"#utility.yul\":4703:4712   */\n      dup5\n        /* \"#utility.yul\":4694:4701   */\n      dup7\n        /* \"#utility.yul\":4690:4713   */\n      sub\n        /* \"#utility.yul\":4686:4718   */\n      slt\n        /* \"#utility.yul\":4683:4802   */\n      iszero\n      tag_159\n      jumpi\n        /* \"#utility.yul\":4721:4800   */\n      tag_160\n      tag_81\n      jump\t// in\n    tag_160:\n        /* \"#utility.yul\":4683:4802   */\n    tag_159:\n        /* \"#utility.yul\":4841:4842   */\n      0x00\n        /* \"#utility.yul\":4866:4919   */\n      tag_161\n        /* \"#utility.yul\":4911:4918   */\n      dup7\n        /* \"#utility.yul\":4902:4908   */\n      dup3\n        /* \"#utility.yul\":4891:4900   */\n      dup8\n        /* \"#utility.yul\":4887:4909   */\n      add\n        /* \"#utility.yul\":4866:4919   */\n      tag_86\n      jump\t// in\n    tag_161:\n        /* \"#utility.yul\":4856:4919   */\n      swap4\n      pop\n        /* \"#utility.yul\":4812:4929   */\n      pop\n        /* \"#utility.yul\":4968:4970   */\n      0x20\n        /* \"#utility.yul\":4994:5047   */\n      tag_162\n        /* \"#utility.yul\":5039:5046   */\n      dup7\n        /* \"#utility.yul\":5030:5036   */\n      dup3\n        /* \"#utility.yul\":5019:5028   */\n      dup8\n        /* \"#utility.yul\":5015:5037   */\n      add\n        /* \"#utility.yul\":4994:5047   */\n      tag_86\n      jump\t// in\n    tag_162:\n        /* \"#utility.yul\":4984:5047   */\n      swap3\n      pop\n        /* \"#utility.yul\":4939:5057   */\n      pop\n        /* \"#utility.yul\":5096:5098   */\n      0x40\n        /* \"#utility.yul\":5122:5175   */\n      tag_163\n        /* \"#utility.yul\":5167:5174   */\n      dup7\n        /* \"#utility.yul\":5158:5164   */\n      dup3\n        /* \"#utility.yul\":5147:5156   */\n      dup8\n        /* \"#utility.yul\":5143:5165   */\n      add\n        /* \"#utility.yul\":5122:5175   */\n      tag_89\n      jump\t// in\n    tag_163:\n        /* \"#utility.yul\":5112:5175   */\n      swap2\n      pop\n        /* \"#utility.yul\":5067:5185   */\n      pop\n        /* \"#utility.yul\":4573:5192   */\n      swap3\n      pop\n      swap3\n      pop\n      swap3\n      jump\t// out\n        /* \"#utility.yul\":5198:5672   */\n    tag_45:\n        /* \"#utility.yul\":5266:5272   */\n      0x00\n        /* \"#utility.yul\":5274:5280   */\n      dup1\n        /* \"#utility.yul\":5323:5325   */\n      0x40\n        /* \"#utility.yul\":5311:5320   */\n      dup4\n        /* \"#utility.yul\":5302:5309   */\n      dup6\n        /* \"#utility.yul\":5298:5321   */\n      sub\n        /* \"#utility.yul\":5294:5326   */\n      slt\n        /* \"#utility.yul\":5291:5410   */\n      iszero\n      tag_165\n      jumpi\n        /* \"#utility.yul\":5329:5408   */\n      tag_166\n      tag_81\n      jump\t// in\n    tag_166:\n        /* \"#utility.yul\":5291:5410   */\n    tag_165:\n        /* \"#utility.yul\":5449:5450   */\n      0x00\n        /* \"#utility.yul\":5474:5527   */\n      tag_167\n        /* \"#utility.yul\":5519:5526   */\n      dup6\n        /* \"#utility.yul\":5510:5516   */\n      dup3\n        /* \"#utility.yul\":5499:5508   */\n      dup7\n        /* \"#utility.yul\":5495:5517   */\n      add\n        /* \"#utility.yul\":5474:5527   */\n      tag_86\n      jump\t// in\n    tag_167:\n        /* \"#utility.yul\":5464:5527   */\n      swap3\n      pop\n        /* \"#utility.yul\":5420:5537   */\n      pop\n        /* \"#utility.yul\":5576:5578   */\n      0x20\n        /* \"#utility.yul\":5602:5655   */\n      tag_168\n        /* \"#utility.yul\":5647:5654   */\n      dup6\n        /* \"#utility.yul\":5638:5644   */\n      dup3\n        /* \"#utility.yul\":5627:5636   */\n      dup7\n        /* \"#utility.yul\":5623:5645   */\n      add\n        /* \"#utility.yul\":5602:5655   */\n      tag_86\n      jump\t// in\n    tag_168:\n        /* \"#utility.yul\":5592:5655   */\n      swap2\n      pop\n        /* \"#utility.yul\":5547:5665   */\n      pop\n        /* \"#utility.yul\":5198:5672   */\n      swap3\n      pop\n      swap3\n      swap1\n      pop\n      jump\t// out\n        /* \"#utility.yul\":5678:6443   */\n    tag_50:\n        /* \"#utility.yul\":5764:5770   */\n      0x00\n        /* \"#utility.yul\":5772:5778   */\n      dup1\n        /* \"#utility.yul\":5780:5786   */\n      0x00\n        /* \"#utility.yul\":5788:5794   */\n      dup1\n        /* \"#utility.yul\":5837:5840   */\n      0x80\n        /* \"#utility.yul\":5825:5834   */\n      dup6\n        /* \"#utility.yul\":5816:5823   */\n      dup8\n        /* \"#utility.yul\":5812:5835   */\n      sub\n        /* \"#utility.yul\":5808:5841   */\n      slt\n        /* \"#utility.yul\":5805:5925   */\n      iszero\n      tag_170\n      jumpi\n        /* \"#utility.yul\":5844:5923   */\n      tag_171\n      tag_81\n      jump\t// in\n    tag_171:\n        /* \"#utility.yul\":5805:5925   */\n    tag_170:\n        /* \"#utility.yul\":5964:5965   */\n      0x00\n        /* \"#utility.yul\":5989:6042   */\n      tag_172\n        /* \"#utility.yul\":6034:6041   */\n      dup8\n        /* \"#utility.yul\":6025:6031   */\n      dup3\n        /* \"#utility.yul\":6014:6023   */\n      dup9\n        /* \"#utility.yul\":6010:6032   */\n      add\n        /* \"#utility.yul\":5989:6042   */\n      tag_86\n      jump\t// in\n    tag_172:\n        /* \"#utility.yul\":5979:6042   */\n      swap5\n      pop\n        /* \"#utility.yul\":5935:6052   */\n      pop\n        /* \"#utility.yul\":6091:6093   */\n      0x20\n        /* \"#utility.yul\":6117:6170   */\n      tag_173\n        /* \"#utility.yul\":6162:6169   */\n      dup8\n        /* \"#utility.yul\":6153:6159   */\n      dup3\n        /* \"#utility.yul\":6142:6151   */\n      dup9\n        /* \"#utility.yul\":6138:6160   */\n      add\n        /* \"#utility.yul\":6117:6170   */\n      tag_86\n      jump\t// in\n    tag_173:\n        /* \"#utility.yul\":6107:6170   */\n      swap4\n      pop\n        /* \"#utility.yul\":6062:6180   */\n      pop\n        /* \"#utility.yul\":6219:6221   */\n      0x40\n        /* \"#utility.yul\":6245:6298   */\n      tag_174\n        /* \"#utility.yul\":6290:6297   */\n      dup8\n        /* \"#utility.yul\":6281:6287   */\n      dup3\n        /* \"#utility.yul\":6270:6279   */\n      dup9\n        /* \"#utility.yul\":6266:6288   */\n      add\n        /* \"#utility.yul\":6245:6298   */\n      tag_89\n      jump\t// in\n    tag_174:\n        /* \"#utility.yul\":6235:6298   */\n      swap3\n      pop\n        /* \"#utility.yul\":6190:6308   */\n      pop\n        /* \"#utility.yul\":6347:6349   */\n      0x60\n        /* \"#utility.yul\":6373:6426   */\n      tag_175\n        /* \"#utility.yul\":6418:6425   */\n      dup8\n        /* \"#utility.yul\":6409:6415   */\n      dup3\n        /* \"#utility.yul\":6398:6407   */\n      dup9\n        /* \"#utility.yul\":6394:6416   */\n      add\n        /* \"#utility.yul\":6373:6426   */\n      tag_89\n      jump\t// in\n    tag_175:\n        /* \"#utility.yul\":6363:6426   */\n      swap2\n      pop\n        /* \"#utility.yul\":6318:6436   */\n      pop\n        /* \"#utility.yul\":5678:6443   */\n      swap3\n      swap6\n      swap2\n      swap5\n      pop\n      swap3\n      pop\n      jump\t// out\n        /* \"#utility.yul\":6449:6567   */\n    tag_98:\n        /* \"#utility.yul\":6536:6560   */\n      tag_177\n        /* \"#utility.yul\":6554:6559   */\n      dup2\n        /* \"#utility.yul\":6536:6560   */\n      tag_84\n      jump\t// in\n    tag_177:\n        /* \"#utility.yul\":6531:6534   */\n      dup3\n        /* \"#utility.yul\":6524:6561   */\n      mstore\n        /* \"#utility.yul\":6449:6567   */\n      pop\n      pop\n      jump\t// out\n        /* \"#utility.yul\":6573:6905   */\n    tag_58:\n        /* \"#utility.yul\":6694:6698   */\n      0x00\n        /* \"#utility.yul\":6732:6734   */\n      0x40\n        /* \"#utility.yul\":6721:6730   */\n      dup3\n        /* \"#utility.yul\":6717:6735   */\n      add\n        /* \"#utility.yul\":6709:6735   */\n      swap1\n      pop\n        /* \"#utility.yul\":6745:6816   */\n      tag_179\n        /* \"#utility.yul\":6813:6814   */\n      0x00\n        /* \"#utility.yul\":6802:6811   */\n      dup4\n        /* \"#utility.yul\":6798:6815   */\n      add\n        /* \"#utility.yul\":6789:6795   */\n      dup6\n        /* \"#utility.yul\":6745:6816   */\n      tag_98\n      jump\t// in\n    tag_179:\n        /* \"#utility.yul\":6826:6898   */\n      tag_180\n        /* \"#utility.yul\":6894:6896   */\n      0x20\n        /* \"#utility.yul\":6883:6892   */\n      dup4\n        /* \"#utility.yul\":6879:6897   */\n      add\n        /* \"#utility.yul\":6870:6876   */\n      dup5\n        /* \"#utility.yul\":6826:6898   */\n      tag_90\n      jump\t// in\n    tag_180:\n        /* \"#utility.yul\":6573:6905   */\n      swap4\n      swap3\n      pop\n      pop\n      pop\n      jump\t// out\n        /* \"#utility.yul\":6911:7091   */\n    tag_99:\n        /* \"#utility.yul\":6959:7036   */\n      0x4e487b7100000000000000000000000000000000000000000000000000000000\n        /* \"#utility.yul\":6956:6957   */\n      0x00\n        /* \"#utility.yul\":6949:7037   */\n      mstore\n        /* \"#utility.yul\":7056:7060   */\n      0x11\n        /* \"#utility.yul\":7053:7054   */\n      0x04\n        /* \"#utility.yul\":7046:7061   */\n      mstore\n        /* \"#utility.yul\":7080:7084   */\n      0x24\n        /* \"#utility.yul\":7077:7078   */\n      0x00\n        /* \"#utility.yul\":7070:7085   */\n      revert\n        /* \"#utility.yul\":7097:7291   */\n    tag_60:\n        /* \"#utility.yul\":7137:7141   */\n      0x00\n        /* \"#utility.yul\":7157:7177   */\n      tag_183\n        /* \"#utility.yul\":7175:7176   */\n      dup3\n        /* \"#utility.yul\":7157:7177   */\n      tag_87\n      jump\t// in\n    tag_183:\n        /* \"#utility.yul\":7152:7177   */\n      swap2\n      pop\n        /* \"#utility.yul\":7191:7211   */\n      tag_184\n        /* \"#utility.yul\":7209:7210   */\n      dup4\n        /* \"#utility.yul\":7191:7211   */\n      tag_87\n      jump\t// in\n    tag_184:\n        /* \"#utility.yul\":7186:7211   */\n      swap3\n      pop\n        /* \"#utility.yul\":7235:7236   */\n      dup3\n        /* \"#utility.yul\":7232:7233   */\n      dup3\n        /* \"#utility.yul\":7228:7237   */\n      sub\n        /* \"#utility.yul\":7220:7237   */\n      swap1\n      pop\n        /* \"#utility.yul\":7259:7260   */\n      dup2\n        /* \"#utility.yul\":7253:7257   */\n      dup2\n        /* \"#utility.yul\":7250:7261   */\n      gt\n        /* \"#utility.yul\":7247:7284   */\n      iszero\n      tag_185\n      jumpi\n        /* \"#utility.yul\":7264:7282   */\n      tag_186\n      tag_99\n      jump\t// in\n    tag_186:\n        /* \"#utility.yul\":7247:7284   */\n    tag_185:\n        /* \"#utility.yul\":7097:7291   */\n      swap3\n      swap2\n      pop\n      pop\n      jump\t// out\n        /* \"#utility.yul\":7297:7488   */\n    tag_62:\n        /* \"#utility.yul\":7337:7340   */\n      0x00\n        /* \"#utility.yul\":7356:7376   */\n      tag_188\n        /* \"#utility.yul\":7374:7375   */\n      dup3\n        /* \"#utility.yul\":7356:7376   */\n      tag_87\n      jump\t// in\n    tag_188:\n        /* \"#utility.yul\":7351:7376   */\n      swap2\n      pop\n        /* \"#utility.yul\":7390:7410   */\n      tag_189\n        /* \"#utility.yul\":7408:7409   */\n      dup4\n        /* \"#utility.yul\":7390:7410   */\n      tag_87\n      jump\t// in\n    tag_189:\n        /* \"#utility.yul\":7385:7410   */\n      swap3\n      pop\n        /* \"#utility.yul\":7433:7434   */\n      dup3\n        /* \"#utility.yul\":7430:7431   */\n      dup3\n        /* \"#utility.yul\":7426:7435   */\n      add\n        /* \"#utility.yul\":7419:7435   */\n      swap1\n      pop\n        /* \"#utility.yul\":7454:7457   */\n      dup1\n        /* \"#utility.yul\":7451:7452   */\n      dup3\n        /* \"#utility.yul\":7448:7458   */\n      gt\n        /* \"#utility.yul\":7445:7481   */\n      iszero\n      tag_190\n      jumpi\n        /* \"#utility.yul\":7461:7479   */\n      tag_191\n      tag_99\n      jump\t// in\n    tag_191:\n        /* \"#utility.yul\":7445:7481   */\n    tag_190:\n        /* \"#utility.yul\":7297:7488   */\n      swap3\n      swap2\n      pop\n      pop\n      jump\t// out\n\n    auxdata: 0xa264697066735822122023d22e9c5430d2b1925175bb8caa9316541c88f92b969987b9f7fdbf30ed4d8664736f6c634300081a0033\n}\n",
				"bytecode": {
					"linkReferences": {},
					"object": "6080604052348015600e575f80fd5b50610f158061001c5f395ff3fe608060405234801561000f575f80fd5b5060043610610085575f3560e01c8063558a729711610059578063558a729714610149578063598af9e714610179578063b6363cf2146101a9578063fe99049a146101d957610085565b8062fdd58e1461008957806301ffc9a7146100b9578063095bcdb6146100e9578063426a849314610119575b5f80fd5b6100a3600480360381019061009e9190610b53565b610209565b6040516100b09190610ba0565b60405180910390f35b6100d360048036038101906100ce9190610c0e565b610228565b6040516100e09190610c53565b60405180910390f35b61010360048036038101906100fe9190610c6c565b610289565b6040516101109190610c53565b60405180910390f35b610133600480360381019061012e9190610c6c565b610451565b6040516101409190610c53565b60405180910390f35b610163600480360381019061015e9190610ce6565b61054f565b6040516101709190610c53565b60405180910390f35b610193600480360381019061018e9190610d24565b61064e565b6040516101a09190610ba0565b60405180910390f35b6101c360048036038101906101be9190610d74565b610679565b6040516101d09190610c53565b60405180910390f35b6101f360048036038101906101ee9190610db2565b6106a3565b6040516102009190610c53565b60405180910390f35b5f602052815f5260405f20602052805f5260405f205f91509150505481565b5f630f632fb360e01b827bffffffffffffffffffffffffffffffffffffffffffffffffffffffff1916148061028257506301ffc9a760e01b827bffffffffffffffffffffffffffffffffffffffffffffffffffffffff1916145b9050919050565b5f815f803373ffffffffffffffffffffffffffffffffffffffff1673ffffffffffffffffffffffffffffffffffffffff1681526020019081526020015f205f8581526020019081526020015f2054101561031c5733836040517ff6deaa04000000000000000000000000000000000000000000000000000000008152600401610313929190610e25565b60405180910390fd5b815f803373ffffffffffffffffffffffffffffffffffffffff1673ffffffffffffffffffffffffffffffffffffffff1681526020019081526020015f205f8581526020019081526020015f205f8282546103769190610e79565b92505081905550815f808673ffffffffffffffffffffffffffffffffffffffff1673ffffffffffffffffffffffffffffffffffffffff1681526020019081526020015f205f8581526020019081526020015f205f8282546103d79190610eac565b92505081905550828473ffffffffffffffffffffffffffffffffffffffff163373ffffffffffffffffffffffffffffffffffffffff167f1b3d7edb2e9c0b0e7c525b20aaaef0f5940d2ed71663c7d39266ecafac728859338660405161043e929190610e25565b60405180910390a4600190509392505050565b5f8160015f3373ffffffffffffffffffffffffffffffffffffffff1673ffffffffffffffffffffffffffffffffffffffff1681526020019081526020015f205f8673ffffffffffffffffffffffffffffffffffffffff1673ffffffffffffffffffffffffffffffffffffffff1681526020019081526020015f205f8581526020019081526020015f2081905550828473ffffffffffffffffffffffffffffffffffffffff163373ffffffffffffffffffffffffffffffffffffffff167fb3fd5071835887567a0671151121894ddccc2842f1d10bedad13e0d17cace9a78560405161053c9190610ba0565b60405180910390a4600190509392505050565b5f8160025f3373ffffffffffffffffffffffffffffffffffffffff1673ffffffffffffffffffffffffffffffffffffffff1681526020019081526020015f205f8573ffffffffffffffffffffffffffffffffffffffff1673ffffffffffffffffffffffffffffffffffffffff1681526020019081526020015f205f6101000a81548160ff0219169083151502179055508273ffffffffffffffffffffffffffffffffffffffff163373ffffffffffffffffffffffffffffffffffffffff167fceb576d9f15e4e200fdb5096d64d5dfd667e16def20c1eefd14256d8e3faa2678460405161063c9190610c53565b60405180910390a36001905092915050565b6001602052825f5260405f20602052815f5260405f20602052805f5260405f205f9250925050505481565b6002602052815f5260405f20602052805f5260405f205f915091509054906101000a900460ff1681565b5f3373ffffffffffffffffffffffffffffffffffffffff168573ffffffffffffffffffffffffffffffffffffffff1614158015610762575060025f8673ffffffffffffffffffffffffffffffffffffffff1673ffffffffffffffffffffffffffffffffffffffff1681526020019081526020015f205f3373ffffffffffffffffffffffffffffffffffffffff1673ffffffffffffffffffffffffffffffffffffffff1681526020019081526020015f205f9054906101000a900460ff16155b156108fa575f60015f8773ffffffffffffffffffffffffffffffffffffffff1673ffffffffffffffffffffffffffffffffffffffff1681526020019081526020015f205f3373ffffffffffffffffffffffffffffffffffffffff1673ffffffffffffffffffffffffffffffffffffffff1681526020019081526020015f205f8581526020019081526020015f20549050828110156108395733846040517f731555bd000000000000000000000000000000000000000000000000000000008152600401610830929190610e25565b60405180910390fd5b7fffffffffffffffffffffffffffffffffffffffffffffffffffffffffffffffff81146108f857828161086c9190610e79565b60015f8873ffffffffffffffffffffffffffffffffffffffff1673ffffffffffffffffffffffffffffffffffffffff1681526020019081526020015f205f3373ffffffffffffffffffffffffffffffffffffffff1673ffffffffffffffffffffffffffffffffffffffff1681526020019081526020015f205f8681526020019081526020015f20819055505b505b815f808773ffffffffffffffffffffffffffffffffffffffff1673ffffffffffffffffffffffffffffffffffffffff1681526020019081526020015f205f8581526020019081526020015f2054101561098c5784836040517ff6deaa04000000000000000000000000000000000000000000000000000000008152600401610983929190610e25565b60405180910390fd5b815f808773ffffffffffffffffffffffffffffffffffffffff1673ffffffffffffffffffffffffffffffffffffffff1681526020019081526020015f205f8581526020019081526020015f205f8282546109e69190610e79565b92505081905550815f808673ffffffffffffffffffffffffffffffffffffffff1673ffffffffffffffffffffffffffffffffffffffff1681526020019081526020015f205f8581526020019081526020015f205f828254610a479190610eac565b92505081905550828473ffffffffffffffffffffffffffffffffffffffff168673ffffffffffffffffffffffffffffffffffffffff167f1b3d7edb2e9c0b0e7c525b20aaaef0f5940d2ed71663c7d39266ecafac7288593386604051610aae929190610e25565b60405180910390a460019050949350505050565b5f80fd5b5f73ffffffffffffffffffffffffffffffffffffffff82169050919050565b5f610aef82610ac6565b9050919050565b610aff81610ae5565b8114610b09575f80fd5b50565b5f81359050610b1a81610af6565b92915050565b5f819050919050565b610b3281610b20565b8114610b3c575f80fd5b50565b5f81359050610b4d81610b29565b92915050565b5f8060408385031215610b6957610b68610ac2565b5b5f610b7685828601610b0c565b9250506020610b8785828601610b3f565b9150509250929050565b610b9a81610b20565b82525050565b5f602082019050610bb35f830184610b91565b92915050565b5f7fffffffff0000000000000000000000000000000000000000000000000000000082169050919050565b610bed81610bb9565b8114610bf7575f80fd5b50565b5f81359050610c0881610be4565b92915050565b5f60208284031215610c2357610c22610ac2565b5b5f610c3084828501610bfa565b91505092915050565b5f8115159050919050565b610c4d81610c39565b82525050565b5f602082019050610c665f830184610c44565b92915050565b5f805f60608486031215610c8357610c82610ac2565b5b5f610c9086828701610b0c565b9350506020610ca186828701610b3f565b9250506040610cb286828701610b3f565b9150509250925092565b610cc581610c39565b8114610ccf575f80fd5b50565b5f81359050610ce081610cbc565b92915050565b5f8060408385031215610cfc57610cfb610ac2565b5b5f610d0985828601610b0c565b9250506020610d1a85828601610cd2565b9150509250929050565b5f805f60608486031215610d3b57610d3a610ac2565b5b5f610d4886828701610b0c565b9350506020610d5986828701610b0c565b9250506040610d6a86828701610b3f565b9150509250925092565b5f8060408385031215610d8a57610d89610ac2565b5b5f610d9785828601610b0c565b9250506020610da885828601610b0c565b9150509250929050565b5f805f8060808587031215610dca57610dc9610ac2565b5b5f610dd787828801610b0c565b9450506020610de887828801610b0c565b9350506040610df987828801610b3f565b9250506060610e0a87828801610b3f565b91505092959194509250565b610e1f81610ae5565b82525050565b5f604082019050610e385f830185610e16565b610e456020830184610b91565b9392505050565b7f4e487b71000000000000000000000000000000000000000000000000000000005f52601160045260245ffd5b5f610e8382610b20565b9150610e8e83610b20565b9250828203905081811115610ea657610ea5610e4c565b5b92915050565b5f610eb682610b20565b9150610ec183610b20565b9250828201905080821115610ed957610ed8610e4c565b5b9291505056fea264697066735822122023d22e9c5430d2b1925175bb8caa9316541c88f92b969987b9f7fdbf30ed4d8664736f6c634300081a0033",
					"opcodes": "PUSH1 0x80 PUSH1 0x40 MSTORE CALLVALUE DUP1 ISZERO PUSH1 0xE JUMPI PUSH0 DUP1 REVERT JUMPDEST POP PUSH2 0xF15 DUP1 PUSH2 0x1C PUSH0 CODECOPY PUSH0 RETURN INVALID PUSH1 0x80 PUSH1 0x40 MSTORE CALLVALUE DUP1 ISZERO PUSH2 0xF JUMPI PUSH0 DUP1 REVERT JUMPDEST POP PUSH1 0x4 CALLDATASIZE LT PUSH2 0x85 JUMPI PUSH0 CALLDATALOAD PUSH1 0xE0 SHR DUP1 PUSH4 0x558A7297 GT PUSH2 0x59 JUMPI DUP1 PUSH4 0x558A7297 EQ PUSH2 0x149 JUMPI DUP1 PUSH4 0x598AF9E7 EQ PUSH2 0x179 JUMPI DUP1 PUSH4 0xB6363CF2 EQ PUSH2 0x1A9 JUMPI DUP1 PUSH4 0xFE99049A EQ PUSH2 0x1D9 JUMPI PUSH2 0x85 JUMP JUMPDEST DUP1 PUSH3 0xFDD58E EQ PUSH2 0x89 JUMPI DUP1 PUSH4 0x1FFC9A7 EQ PUSH2 0xB9 JUMPI DUP1 PUSH4 0x95BCDB6 EQ PUSH2 0xE9 JUMPI DUP1 PUSH4 0x426A8493 EQ PUSH2 0x119 JUMPI JUMPDEST PUSH0 DUP1 REVERT JUMPDEST PUSH2 0xA3 PUSH1 0x4 DUP1 CALLDATASIZE SUB DUP2 ADD SWAP1 PUSH2 0x9E SWAP2 SWAP1 PUSH2 0xB53 JUMP JUMPDEST PUSH2 0x209 JUMP JUMPDEST PUSH1 0x40 MLOAD PUSH2 0xB0 SWAP2 SWAP1 PUSH2 0xBA0 JUMP JUMPDEST PUSH1 0x40 MLOAD DUP1 SWAP2 SUB SWAP1 RETURN JUMPDEST PUSH2 0xD3 PUSH1 0x4 DUP1 CALLDATASIZE SUB DUP2 ADD SWAP1 PUSH2 0xCE SWAP2 SWAP1 PUSH2 0xC0E JUMP JUMPDEST PUSH2 0x228 JUMP JUMPDEST PUSH1 0x40 MLOAD PUSH2 0xE0 SWAP2 SWAP1 PUSH2 0xC53 JUMP JUMPDEST PUSH1 0x40 MLOAD DUP1 SWAP2 SUB SWAP1 RETURN JUMPDEST PUSH2 0x103 PUSH1 0x4 DUP1 CALLDATASIZE SUB DUP2 ADD SWAP1 PUSH2 0xFE SWAP2 SWAP1 PUSH2 0xC6C JUMP JUMPDEST PUSH2 0x289 JUMP JUMPDEST PUSH1 0x40 MLOAD PUSH2 0x110 SWAP2 SWAP1 PUSH2 0xC53 JUMP JUMPDEST PUSH1 0x40 MLOAD DUP1 SWAP2 SUB SWAP1 RETURN JUMPDEST PUSH2 0x133 PUSH1 0x4 DUP1 CALLDATASIZE SUB DUP2 ADD SWAP1 PUSH2 0x12E SWAP2 SWAP1 PUSH2 0xC6C JUMP JUMPDEST PUSH2 0x451 JUMP JUMPDEST PUSH1 0x40 MLOAD PUSH2 0x140 SWAP2 SWAP1 PUSH2 0xC53 JUMP JUMPDEST PUSH1 0x40 MLOAD DUP1 SWAP2 SUB SWAP1 RETURN JUMPDEST PUSH2 0x163 PUSH1 0x4 DUP1 CALLDATASIZE SUB DUP2 ADD SWAP1 PUSH2 0x15E SWAP2 SWAP1 PUSH2 0xCE6 JUMP JUMPDEST PUSH2 0x54F JUMP JUMPDEST PUSH1 0x40 MLOAD PUSH2 0x170 SWAP2 SWAP1 PUSH2 0xC53 JUMP JUMPDEST PUSH1 0x40 MLOAD DUP1 SWAP2 SUB SWAP1 RETURN JUMPDEST PUSH2 0x193 PUSH1 0x4 DUP1 CALLDATASIZE SUB DUP2 ADD SWAP1 PUSH2 0x18E SWAP2 SWAP1 PUSH2 0xD24 JUMP JUMPDEST PUSH2 0x64E JUMP JUMPDEST PUSH1 0x40 MLOAD PUSH2 0x1A0 SWAP2 SWAP1 PUSH2 0xBA0 JUMP JUMPDEST PUSH1 0x40 MLOAD DUP1 SWAP2 SUB SWAP1 RETURN JUMPDEST PUSH2 0x1C3 PUSH1 0x4 DUP1 CALLDATASIZE SUB DUP2 ADD SWAP1 PUSH2 0x1BE SWAP2 SWAP1 PUSH2 0xD74 JUMP JUMPDEST PUSH2 0x679 JUMP JUMPDEST PUSH1 0x40 MLOAD PUSH2 0x1D0 SWAP2 SWAP1 PUSH2 0xC53 JUMP JUMPDEST PUSH1 0x40 MLOAD DUP1 SWAP2 SUB SWAP1 RETURN JUMPDEST PUSH2 0x1F3 PUSH1 0x4 DUP1 CALLDATASIZE SUB DUP2 ADD SWAP1 PUSH2 0x1EE SWAP2 SWAP1 PUSH2 0xDB2 JUMP JUMPDEST PUSH2 0x6A3 JUMP JUMPDEST PUSH1 0x40 MLOAD PUSH2 0x200 SWAP2 SWAP1 PUSH2 0xC53 JUMP JUMPDEST PUSH1 0x40 MLOAD DUP1 SWAP2 SUB SWAP1 RETURN JUMPDEST PUSH0 PUSH1 0x20 MSTORE DUP2 PUSH0 MSTORE PUSH1 0x40 PUSH0 KECCAK256 PUSH1 0x20 MSTORE DUP1 PUSH0 MSTORE PUSH1 0x40 PUSH0 KECCAK256 PUSH0 SWAP2 POP SWAP2 POP POP SLOAD DUP2 JUMP JUMPDEST PUSH0 PUSH4 0xF632FB3 PUSH1 0xE0 SHL DUP3 PUSH28 0xFFFFFFFFFFFFFFFFFFFFFFFFFFFFFFFFFFFFFFFFFFFFFFFFFFFFFFFF NOT AND EQ DUP1 PUSH2 0x282 JUMPI POP PUSH4 0x1FFC9A7 PUSH1 0xE0 SHL DUP3 PUSH28 0xFFFFFFFFFFFFFFFFFFFFFFFFFFFFFFFFFFFFFFFFFFFFFFFFFFFFFFFF NOT AND EQ JUMPDEST SWAP1 POP SWAP2 SWAP1 POP JUMP JUMPDEST PUSH0 DUP2 PUSH0 DUP1 CALLER PUSH20 0xFFFFFFFFFFFFFFFFFFFFFFFFFFFFFFFFFFFFFFFF AND PUSH20 0xFFFFFFFFFFFFFFFFFFFFFFFFFFFFFFFFFFFFFFFF AND DUP2 MSTORE PUSH1 0x20 ADD SWAP1 DUP2 MSTORE PUSH1 0x20 ADD PUSH0 KECCAK256 PUSH0 DUP6 DUP2 MSTORE PUSH1 0x20 ADD SWAP1 DUP2 MSTORE PUSH1 0x20 ADD PUSH0 KECCAK256 SLOAD LT ISZERO PUSH2 0x31C JUMPI CALLER DUP4 PUSH1 0x40 MLOAD PUSH32 0xF6DEAA0400000000000000000000000000000000000000000000000000000000 DUP2 MSTORE PUSH1 0x4 ADD PUSH2 0x313 SWAP3 SWAP2 SWAP1 PUSH2 0xE25 JUMP JUMPDEST PUSH1 0x40 MLOAD DUP1 SWAP2 SUB SWAP1 REVERT JUMPDEST DUP2 PUSH0 DUP1 CALLER PUSH20 0xFFFFFFFFFFFFFFFFFFFFFFFFFFFFFFFFFFFFFFFF AND PUSH20 0xFFFFFFFFFFFFFFFFFFFFFFFFFFFFFFFFFFFFFFFF AND DUP2 MSTORE PUSH1 0x20 ADD SWAP1 DUP2 MSTORE PUSH1 0x20 ADD PUSH0 KECCAK256 PUSH0 DUP6 DUP2 MSTORE PUSH1 0x20 ADD SWAP1 DUP2 MSTORE PUSH1 0x20 ADD PUSH0 KECCAK256 PUSH0 DUP3 DUP3 SLOAD PUSH2 0x376 SWAP2 SWAP1 PUSH2 0xE79 JUMP JUMPDEST SWAP3 POP POP DUP2 SWAP1 SSTORE POP DUP2 PUSH0 DUP1 DUP7 PUSH20 0xFFFFFFFFFFFFFFFFFFFFFFFFFFFFFFFFFFFFFFFF AND PUSH20 0xFFFFFFFFFFFFFFFFFFFFFFFFFFFFFFFFFFFFFFFF AND DUP2 MSTORE PUSH1 0x20 ADD SWAP1 DUP2 MSTORE PUSH1 0x20 ADD PUSH0 KECCAK256 PUSH0 DUP6 DUP2 MSTORE PUSH1 0x20 ADD SWAP1 DUP2 MSTORE PUSH1 0x20 ADD PUSH0 KECCAK256 PUSH0 DUP3 DUP3 SLOAD PUSH2 0x3D7 SWAP2 SWAP1 PUSH2 0xEAC JUMP JUMPDEST SWAP3 POP POP DUP2 SWAP1 SSTORE POP DUP3 DUP5 PUSH20 0xFFFFFFFFFFFFFFFFFFFFFFFFFFFFFFFFFFFFFFFF AND CALLER PUSH20 0xFFFFFFFFFFFFFFFFFFFFFFFFFFFFFFFFFFFFFFFF AND PUSH32 0x1B3D7EDB2E9C0B0E7C525B20AAAEF0F5940D2ED71663C7D39266ECAFAC728859 CALLER DUP7 PUSH1 0x40 MLOAD PUSH2 0x43E SWAP3 SWAP2 SWAP1 PUSH2 0xE25 JUMP JUMPDEST PUSH1 0x40 MLOAD DUP1 SWAP2 SUB SWAP1 LOG4 PUSH1 0x1 SWAP1 POP SWAP4 SWAP3 POP POP POP JUMP JUMPDEST PUSH0 DUP2 PUSH1 0x1 PUSH0 CALLER PUSH20 0xFFFFFFFFFFFFFFFFFFFFFFFFFFFFFFFFFFFFFFFF AND PUSH20 0xFFFFFFFFFFFFFFFFFFFFFFFFFFFFFFFFFFFFFFFF AND DUP2 MSTORE PUSH1 0x20 ADD SWAP1 DUP2 MSTORE PUSH1 0x20 ADD PUSH0 KECCAK256 PUSH0 DUP7 PUSH20 0xFFFFFFFFFFFFFFFFFFFFFFFFFFFFFFFFFFFFFFFF AND PUSH20 0xFFFFFFFFFFFFFFFFFFFFFFFFFFFFFFFFFFFFFFFF AND DUP2 MSTORE PUSH1 0x20 ADD SWAP1 DUP2 MSTORE PUSH1 0x20 ADD PUSH0 KECCAK256 PUSH0 DUP6 DUP2 MSTORE PUSH1 0x20 ADD SWAP1 DUP2 MSTORE PUSH1 0x20 ADD PUSH0 KECCAK256 DUP2 SWAP1 SSTORE POP DUP3 DUP5 PUSH20 0xFFFFFFFFFFFFFFFFFFFFFFFFFFFFFFFFFFFFFFFF AND CALLER PUSH20 0xFFFFFFFFFFFFFFFFFFFFFFFFFFFFFFFFFFFFFFFF AND PUSH32 0xB3FD5071835887567A0671151121894DDCCC2842F1D10BEDAD13E0D17CACE9A7 DUP6 PUSH1 0x40 MLOAD PUSH2 0x53C SWAP2 SWAP1 PUSH2 0xBA0 JUMP JUMPDEST PUSH1 0x40 MLOAD DUP1 SWAP2 SUB SWAP1 LOG4 PUSH1 0x1 SWAP1 POP SWAP4 SWAP3 POP POP POP JUMP JUMPDEST PUSH0 DUP2 PUSH1 0x2 PUSH0 CALLER PUSH20 0xFFFFFFFFFFFFFFFFFFFFFFFFFFFFFFFFFFFFFFFF AND PUSH20 0xFFFFFFFFFFFFFFFFFFFFFFFFFFFFFFFFFFFFFFFF AND DUP2 MSTORE PUSH1 0x20 ADD SWAP1 DUP2 MSTORE PUSH1 0x20 ADD PUSH0 KECCAK256 PUSH0 DUP6 PUSH20 0xFFFFFFFFFFFFFFFFFFFFFFFFFFFFFFFFFFFFFFFF AND PUSH20 0xFFFFFFFFFFFFFFFFFFFFFFFFFFFFFFFFFFFFFFFF AND DUP2 MSTORE PUSH1 0x20 ADD SWAP1 DUP2 MSTORE PUSH1 0x20 ADD PUSH0 KECCAK256 PUSH0 PUSH2 0x100 EXP DUP2 SLOAD DUP2 PUSH1 0xFF MUL NOT AND SWAP1 DUP4 ISZERO ISZERO MUL OR SWAP1 SSTORE POP DUP3 PUSH20 0xFFFFFFFFFFFFFFFFFFFFFFFFFFFFFFFFFFFFFFFF AND CALLER PUSH20 0xFFFFFFFFFFFFFFFFFFFFFFFFFFFFFFFFFFFFFFFF AND PUSH32 0xCEB576D9F15E4E200FDB5096D64D5DFD667E16DEF20C1EEFD14256D8E3FAA267 DUP5 PUSH1 0x40 MLOAD PUSH2 0x63C SWAP2 SWAP1 PUSH2 0xC53 JUMP JUMPDEST PUSH1 0x40 MLOAD DUP1 SWAP2 SUB SWAP1 LOG3 PUSH1 0x1 SWAP1 POP SWAP3 SWAP2 POP POP JUMP JUMPDEST PUSH1 0x1 PUSH1 0x20 MSTORE DUP3 PUSH0 MSTORE PUSH1 0x40 PUSH0 KECCAK256 PUSH1 0x20 MSTORE DUP2 PUSH0 MSTORE PUSH1 0x40 PUSH0 KECCAK256 PUSH1 0x20 MSTORE DUP1 PUSH0 MSTORE PUSH1 0x40 PUSH0 KECCAK256 PUSH0 SWAP3 POP SWAP3 POP POP POP SLOAD DUP2 JUMP JUMPDEST PUSH1 0x2 PUSH1 0x20 MSTORE DUP2 PUSH0 MSTORE PUSH1 0x40 PUSH0 KECCAK256 PUSH1 0x20 MSTORE DUP1 PUSH0 MSTORE PUSH1 0x40 PUSH0 KECCAK256 PUSH0 SWAP2 POP SWAP2 POP SWAP1 SLOAD SWAP1 PUSH2 0x100 EXP SWAP1 DIV PUSH1 0xFF AND DUP2 JUMP JUMPDEST PUSH0 CALLER PUSH20 0xFFFFFFFFFFFFFFFFFFFFFFFFFFFFFFFFFFFFFFFF AND DUP6 PUSH20 0xFFFFFFFFFFFFFFFFFFFFFFFFFFFFFFFFFFFFFFFF AND EQ ISZERO DUP1 ISZERO PUSH2 0x762 JUMPI POP PUSH1 0x2 PUSH0 DUP7 PUSH20 0xFFFFFFFFFFFFFFFFFFFFFFFFFFFFFFFFFFFFFFFF AND PUSH20 0xFFFFFFFFFFFFFFFFFFFFFFFFFFFFFFFFFFFFFFFF AND DUP2 MSTORE PUSH1 0x20 ADD SWAP1 DUP2 MSTORE PUSH1 0x20 ADD PUSH0 KECCAK256 PUSH0 CALLER PUSH20 0xFFFFFFFFFFFFFFFFFFFFFFFFFFFFFFFFFFFFFFFF AND PUSH20 0xFFFFFFFFFFFFFFFFFFFFFFFFFFFFFFFFFFFFFFFF AND DUP2 MSTORE PUSH1 0x20 ADD SWAP1 DUP2 MSTORE PUSH1 0x20 ADD PUSH0 KECCAK256 PUSH0 SWAP1 SLOAD SWAP1 PUSH2 0x100 EXP SWAP1 DIV PUSH1 0xFF AND ISZERO JUMPDEST ISZERO PUSH2 0x8FA JUMPI PUSH0 PUSH1 0x1 PUSH0 DUP8 PUSH20 0xFFFFFFFFFFFFFFFFFFFFFFFFFFFFFFFFFFFFFFFF AND PUSH20 0xFFFFFFFFFFFFFFFFFFFFFFFFFFFFFFFFFFFFFFFF AND DUP2 MSTORE PUSH1 0x20 ADD SWAP1 DUP2 MSTORE PUSH1 0x20 ADD PUSH0 KECCAK256 PUSH0 CALLER PUSH20 0xFFFFFFFFFFFFFFFFFFFFFFFFFFFFFFFFFFFFFFFF AND PUSH20 0xFFFFFFFFFFFFFFFFFFFFFFFFFFFFFFFFFFFFFFFF AND DUP2 MSTORE PUSH1 0x20 ADD SWAP1 DUP2 MSTORE PUSH1 0x20 ADD PUSH0 KECCAK256 PUSH0 DUP6 DUP2 MSTORE PUSH1 0x20 ADD SWAP1 DUP2 MSTORE PUSH1 0x20 ADD PUSH0 KECCAK256 SLOAD SWAP1 POP DUP3 DUP2 LT ISZERO PUSH2 0x839 JUMPI CALLER DUP5 PUSH1 0x40 MLOAD PUSH32 0x731555BD00000000000000000000000000000000000000000000000000000000 DUP2 MSTORE PUSH1 0x4 ADD PUSH2 0x830 SWAP3 SWAP2 SWAP1 PUSH2 0xE25 JUMP JUMPDEST PUSH1 0x40 MLOAD DUP1 SWAP2 SUB SWAP1 REVERT JUMPDEST PUSH32 0xFFFFFFFFFFFFFFFFFFFFFFFFFFFFFFFFFFFFFFFFFFFFFFFFFFFFFFFFFFFFFFFF DUP2 EQ PUSH2 0x8F8 JUMPI DUP3 DUP2 PUSH2 0x86C SWAP2 SWAP1 PUSH2 0xE79 JUMP JUMPDEST PUSH1 0x1 PUSH0 DUP9 PUSH20 0xFFFFFFFFFFFFFFFFFFFFFFFFFFFFFFFFFFFFFFFF AND PUSH20 0xFFFFFFFFFFFFFFFFFFFFFFFFFFFFFFFFFFFFFFFF AND DUP2 MSTORE PUSH1 0x20 ADD SWAP1 DUP2 MSTORE PUSH1 0x20 ADD PUSH0 KECCAK256 PUSH0 CALLER PUSH20 0xFFFFFFFFFFFFFFFFFFFFFFFFFFFFFFFFFFFFFFFF AND PUSH20 0xFFFFFFFFFFFFFFFFFFFFFFFFFFFFFFFFFFFFFFFF AND DUP2 MSTORE PUSH1 0x20 ADD SWAP1 DUP2 MSTORE PUSH1 0x20 ADD PUSH0 KECCAK256 PUSH0 DUP7 DUP2 MSTORE PUSH1 0x20 ADD SWAP1 DUP2 MSTORE PUSH1 0x20 ADD PUSH0 KECCAK256 DUP2 SWAP1 SSTORE POP JUMPDEST POP JUMPDEST DUP2 PUSH0 DUP1 DUP8 PUSH20 0xFFFFFFFFFFFFFFFFFFFFFFFFFFFFFFFFFFFFFFFF AND PUSH20 0xFFFFFFFFFFFFFFFFFFFFFFFFFFFFFFFFFFFFFFFF AND DUP2 MSTORE PUSH1 0x20 ADD SWAP1 DUP2 MSTORE PUSH1 0x20 ADD PUSH0 KECCAK256 PUSH0 DUP6 DUP2 MSTORE PUSH1 0x20 ADD SWAP1 DUP2 MSTORE PUSH1 0x20 ADD PUSH0 KECCAK256 SLOAD LT ISZERO PUSH2 0x98C JUMPI DUP5 DUP4 PUSH1 0x40 MLOAD PUSH32 0xF6DEAA0400000000000000000000000000000000000000000000000000000000 DUP2 MSTORE PUSH1 0x4 ADD PUSH2 0x983 SWAP3 SWAP2 SWAP1 PUSH2 0xE25 JUMP JUMPDEST PUSH1 0x40 MLOAD DUP1 SWAP2 SUB SWAP1 REVERT JUMPDEST DUP2 PUSH0 DUP1 DUP8 PUSH20 0xFFFFFFFFFFFFFFFFFFFFFFFFFFFFFFFFFFFFFFFF AND PUSH20 0xFFFFFFFFFFFFFFFFFFFFFFFFFFFFFFFFFFFFFFFF AND DUP2 MSTORE PUSH1 0x20 ADD SWAP1 DUP2 MSTORE PUSH1 0x20 ADD PUSH0 KECCAK256 PUSH0 DUP6 DUP2 MSTORE PUSH1 0x20 ADD SWAP1 DUP2 MSTORE PUSH1 0x20 ADD PUSH0 KECCAK256 PUSH0 DUP3 DUP3 SLOAD PUSH2 0x9E6 SWAP2 SWAP1 PUSH2 0xE79 JUMP JUMPDEST SWAP3 POP POP DUP2 SWAP1 SSTORE POP DUP2 PUSH0 DUP1 DUP7 PUSH20 0xFFFFFFFFFFFFFFFFFFFFFFFFFFFFFFFFFFFFFFFF AND PUSH20 0xFFFFFFFFFFFFFFFFFFFFFFFFFFFFFFFFFFFFFFFF AND DUP2 MSTORE PUSH1 0x20 ADD SWAP1 DUP2 MSTORE PUSH1 0x20 ADD PUSH0 KECCAK256 PUSH0 DUP6 DUP2 MSTORE PUSH1 0x20 ADD SWAP1 DUP2 MSTORE PUSH1 0x20 ADD PUSH0 KECCAK256 PUSH0 DUP3 DUP3 SLOAD PUSH2 0xA47 SWAP2 SWAP1 PUSH2 0xEAC JUMP JUMPDEST SWAP3 POP POP DUP2 SWAP1 SSTORE POP DUP3 DUP5 PUSH20 0xFFFFFFFFFFFFFFFFFFFFFFFFFFFFFFFFFFFFFFFF AND DUP7 PUSH20 0xFFFFFFFFFFFFFFFFFFFFFFFFFFFFFFFFFFFFFFFF AND PUSH32 0x1B3D7EDB2E9C0B0E7C525B20AAAEF0F5940D2ED71663C7D39266ECAFAC728859 CALLER DUP7 PUSH1 0x40 MLOAD PUSH2 0xAAE SWAP3 SWAP2 SWAP1 PUSH2 0xE25 JUMP JUMPDEST PUSH1 0x40 MLOAD DUP1 SWAP2 SUB SWAP1 LOG4 PUSH1 0x1 SWAP1 POP SWAP5 SWAP4 POP POP POP POP JUMP JUMPDEST PUSH0 DUP1 REVERT JUMPDEST PUSH0 PUSH20 0xFFFFFFFFFFFFFFFFFFFFFFFFFFFFFFFFFFFFFFFF DUP3 AND SWAP1 POP SWAP2 SWAP1 POP JUMP JUMPDEST PUSH0 PUSH2 0xAEF DUP3 PUSH2 0xAC6 JUMP JUMPDEST SWAP1 POP SWAP2 SWAP1 POP JUMP JUMPDEST PUSH2 0xAFF DUP2 PUSH2 0xAE5 JUMP JUMPDEST DUP2 EQ PUSH2 0xB09 JUMPI PUSH0 DUP1 REVERT JUMPDEST POP JUMP JUMPDEST PUSH0 DUP2 CALLDATALOAD SWAP1 POP PUSH2 0xB1A DUP2 PUSH2 0xAF6 JUMP JUMPDEST SWAP3 SWAP2 POP POP JUMP JUMPDEST PUSH0 DUP2 SWAP1 POP SWAP2 SWAP1 POP JUMP JUMPDEST PUSH2 0xB32 DUP2 PUSH2 0xB20 JUMP JUMPDEST DUP2 EQ PUSH2 0xB3C JUMPI PUSH0 DUP1 REVERT JUMPDEST POP JUMP JUMPDEST PUSH0 DUP2 CALLDATALOAD SWAP1 POP PUSH2 0xB4D DUP2 PUSH2 0xB29 JUMP JUMPDEST SWAP3 SWAP2 POP POP JUMP JUMPDEST PUSH0 DUP1 PUSH1 0x40 DUP4 DUP6 SUB SLT ISZERO PUSH2 0xB69 JUMPI PUSH2 0xB68 PUSH2 0xAC2 JUMP JUMPDEST JUMPDEST PUSH0 PUSH2 0xB76 DUP6 DUP3 DUP7 ADD PUSH2 0xB0C JUMP JUMPDEST SWAP3 POP POP PUSH1 0x20 PUSH2 0xB87 DUP6 DUP3 DUP7 ADD PUSH2 0xB3F JUMP JUMPDEST SWAP2 POP POP SWAP3 POP SWAP3 SWAP1 POP JUMP JUMPDEST PUSH2 0xB9A DUP2 PUSH2 0xB20 JUMP JUMPDEST DUP3 MSTORE POP POP JUMP JUMPDEST PUSH0 PUSH1 0x20 DUP3 ADD SWAP1 POP PUSH2 0xBB3 PUSH0 DUP4 ADD DUP5 PUSH2 0xB91 JUMP JUMPDEST SWAP3 SWAP2 POP POP JUMP JUMPDEST PUSH0 PUSH32 0xFFFFFFFF00000000000000000000000000000000000000000000000000000000 DUP3 AND SWAP1 POP SWAP2 SWAP1 POP JUMP JUMPDEST PUSH2 0xBED DUP2 PUSH2 0xBB9 JUMP JUMPDEST DUP2 EQ PUSH2 0xBF7 JUMPI PUSH0 DUP1 REVERT JUMPDEST POP JUMP JUMPDEST PUSH0 DUP2 CALLDATALOAD SWAP1 POP PUSH2 0xC08 DUP2 PUSH2 0xBE4 JUMP JUMPDEST SWAP3 SWAP2 POP POP JUMP JUMPDEST PUSH0 PUSH1 0x20 DUP3 DUP5 SUB SLT ISZERO PUSH2 0xC23 JUMPI PUSH2 0xC22 PUSH2 0xAC2 JUMP JUMPDEST JUMPDEST PUSH0 PUSH2 0xC30 DUP5 DUP3 DUP6 ADD PUSH2 0xBFA JUMP JUMPDEST SWAP2 POP POP SWAP3 SWAP2 POP POP JUMP JUMPDEST PUSH0 DUP2 ISZERO ISZERO SWAP1 POP SWAP2 SWAP1 POP JUMP JUMPDEST PUSH2 0xC4D DUP2 PUSH2 0xC39 JUMP JUMPDEST DUP3 MSTORE POP POP JUMP JUMPDEST PUSH0 PUSH1 0x20 DUP3 ADD SWAP1 POP PUSH2 0xC66 PUSH0 DUP4 ADD DUP5 PUSH2 0xC44 JUMP JUMPDEST SWAP3 SWAP2 POP POP JUMP JUMPDEST PUSH0 DUP1 PUSH0 PUSH1 0x60 DUP5 DUP7 SUB SLT ISZERO PUSH2 0xC83 JUMPI PUSH2 0xC82 PUSH2 0xAC2 JUMP JUMPDEST JUMPDEST PUSH0 PUSH2 0xC90 DUP7 DUP3 DUP8 ADD PUSH2 0xB0C JUMP JUMPDEST SWAP4 POP POP PUSH1 0x20 PUSH2 0xCA1 DUP7 DUP3 DUP8 ADD PUSH2 0xB3F JUMP JUMPDEST SWAP3 POP POP PUSH1 0x40 PUSH2 0xCB2 DUP7 DUP3 DUP8 ADD PUSH2 0xB3F JUMP JUMPDEST SWAP2 POP POP SWAP3 POP SWAP3 POP SWAP3 JUMP JUMPDEST PUSH2 0xCC5 DUP2 PUSH2 0xC39 JUMP JUMPDEST DUP2 EQ PUSH2 0xCCF JUMPI PUSH0 DUP1 REVERT JUMPDEST POP JUMP JUMPDEST PUSH0 DUP2 CALLDATALOAD SWAP1 POP PUSH2 0xCE0 DUP2 PUSH2 0xCBC JUMP JUMPDEST SWAP3 SWAP2 POP POP JUMP JUMPDEST PUSH0 DUP1 PUSH1 0x40 DUP4 DUP6 SUB SLT ISZERO PUSH2 0xCFC JUMPI PUSH2 0xCFB PUSH2 0xAC2 JUMP JUMPDEST JUMPDEST PUSH0 PUSH2 0xD09 DUP6 DUP3 DUP7 ADD PUSH2 0xB0C JUMP JUMPDEST SWAP3 POP POP PUSH1 0x20 PUSH2 0xD1A DUP6 DUP3 DUP7 ADD PUSH2 0xCD2 JUMP JUMPDEST SWAP2 POP POP SWAP3 POP SWAP3 SWAP1 POP JUMP JUMPDEST PUSH0 DUP1 PUSH0 PUSH1 0x60 DUP5 DUP7 SUB SLT ISZERO PUSH2 0xD3B JUMPI PUSH2 0xD3A PUSH2 0xAC2 JUMP JUMPDEST JUMPDEST PUSH0 PUSH2 0xD48 DUP7 DUP3 DUP8 ADD PUSH2 0xB0C JUMP JUMPDEST SWAP4 POP POP PUSH1 0x20 PUSH2 0xD59 DUP7 DUP3 DUP8 ADD PUSH2 0xB0C JUMP JUMPDEST SWAP3 POP POP PUSH1 0x40 PUSH2 0xD6A DUP7 DUP3 DUP8 ADD PUSH2 0xB3F JUMP JUMPDEST SWAP2 POP POP SWAP3 POP SWAP3 POP SWAP3 JUMP JUMPDEST PUSH0 DUP1 PUSH1 0x40 DUP4 DUP6 SUB SLT ISZERO PUSH2 0xD8A JUMPI PUSH2 0xD89 PUSH2 0xAC2 JUMP JUMPDEST JUMPDEST PUSH0 PUSH2 0xD97 DUP6 DUP3 DUP7 ADD PUSH2 0xB0C JUMP JUMPDEST SWAP3 POP POP PUSH1 0x20 PUSH2 0xDA8 DUP6 DUP3 DUP7 ADD PUSH2 0xB0C JUMP JUMPDEST SWAP2 POP POP SWAP3 POP SWAP3 SWAP1 POP JUMP JUMPDEST PUSH0 DUP1 PUSH0 DUP1 PUSH1 0x80 DUP6 DUP8 SUB SLT ISZERO PUSH2 0xDCA JUMPI PUSH2 0xDC9 PUSH2 0xAC2 JUMP JUMPDEST JUMPDEST PUSH0 PUSH2 0xDD7 DUP8 DUP3 DUP9 ADD PUSH2 0xB0C JUMP JUMPDEST SWAP5 POP POP PUSH1 0x20 PUSH2 0xDE8 DUP8 DUP3 DUP9 ADD PUSH2 0xB0C JUMP JUMPDEST SWAP4 POP POP PUSH1 0x40 PUSH2 0xDF9 DUP8 DUP3 DUP9 ADD PUSH2 0xB3F JUMP JUMPDEST SWAP3 POP POP PUSH1 0x60 PUSH2 0xE0A DUP8 DUP3 DUP9 ADD PUSH2 0xB3F JUMP JUMPDEST SWAP2 POP POP SWAP3 SWAP6 SWAP2 SWAP5 POP SWAP3 POP JUMP JUMPDEST PUSH2 0xE1F DUP2 PUSH2 0xAE5 JUMP JUMPDEST DUP3 MSTORE POP POP JUMP JUMPDEST PUSH0 PUSH1 0x40 DUP3 ADD SWAP1 POP PUSH2 0xE38 PUSH0 DUP4 ADD DUP6 PUSH2 0xE16 JUMP JUMPDEST PUSH2 0xE45 PUSH1 0x20 DUP4 ADD DUP5 PUSH2 0xB91 JUMP JUMPDEST SWAP4 SWAP3 POP POP POP JUMP JUMPDEST PUSH32 0x4E487B7100000000000000000000000000000000000000000000000000000000 PUSH0 MSTORE PUSH1 0x11 PUSH1 0x4 MSTORE PUSH1 0x24 PUSH0 REVERT JUMPDEST PUSH0 PUSH2 0xE83 DUP3 PUSH2 0xB20 JUMP JUMPDEST SWAP2 POP PUSH2 0xE8E DUP4 PUSH2 0xB20 JUMP JUMPDEST SWAP3 POP DUP3 DUP3 SUB SWAP1 POP DUP2 DUP2 GT ISZERO PUSH2 0xEA6 JUMPI PUSH2 0xEA5 PUSH2 0xE4C JUMP JUMPDEST JUMPDEST SWAP3 SWAP2 POP POP JUMP JUMPDEST PUSH0 PUSH2 0xEB6 DUP3 PUSH2 0xB20 JUMP JUMPDEST SWAP2 POP PUSH2 0xEC1 DUP4 PUSH2 0xB20 JUMP JUMPDEST SWAP3 POP DUP3 DUP3 ADD SWAP1 POP DUP1 DUP3 GT ISZERO PUSH2 0xED9 JUMPI PUSH2 0xED8 PUSH2 0xE4C JUMP JUMPDEST JUMPDEST SWAP3 SWAP2 POP POP JUMP INVALID LOG2 PUSH5 0x6970667358 0x22 SLT KECCAK256 0x23 0xD2 0x2E SWAP13 SLOAD ADDRESS 0xD2 0xB1 SWAP3 MLOAD PUSH22 0xBB8CAA9316541C88F92B969987B9F7FDBF30ED4D8664 PUSH20 0x6F6C634300081A00330000000000000000000000 "
				},
				"gasEstimates": {
					"creation": {
						"codeDepositCost": "772200",
						"executionCost": "803",
						"totalCost": "773003"
					},
					"external": {
						"allowance(address,address,uint256)": "infinite",
						"approve(address,uint256,uint256)": "infinite",
						"balanceOf(address,uint256)": "infinite",
						"isOperator(address,address)": "infinite",
						"setOperator(address,bool)": "infinite",
						"supportsInterface(bytes4)": "692",
						"transfer(address,uint256,uint256)": "infinite",
						"transferFrom(address,address,uint256,uint256)": "infinite"
					},
					"internal": {
						"_burn(address,uint256,uint256)": "infinite",
						"_mint(address,uint256,uint256)": "infinite"
					}
				},
				"methodIdentifiers": {
					"allowance(address,address,uint256)": "598af9e7",
					"approve(address,uint256,uint256)": "426a8493",
					"balanceOf(address,uint256)": "00fdd58e",
					"isOperator(address,address)": "b6363cf2",
					"setOperator(address,bool)": "558a7297",
					"supportsInterface(bytes4)": "01ffc9a7",
					"transfer(address,uint256,uint256)": "095bcdb6",
					"transferFrom(address,address,uint256,uint256)": "fe99049a"
				}
			},
			"storageLayout": {
				"storage": [
					{
						"astId": 56,
						"contract": "src/ERC6909.sol:ERC6909",
						"label": "balanceOf",
						"offset": 0,
						"slot": "0",
						"type": "t_mapping(t_address,t_mapping(t_uint256,t_uint256))"
					},
					{
						"astId": 65,
						"contract": "src/ERC6909.sol:ERC6909",
						"label": "allowance",
						"offset": 0,
						"slot": "1",
						"type": "t_mapping(t_address,t_mapping(t_address,t_mapping(t_uint256,t_uint256)))"
					},
					{
						"astId": 72,
						"contract": "src/ERC6909.sol:ERC6909",
						"label": "isOperator",
						"offset": 0,
						"slot": "2",
						"type": "t_mapping(t_address,t_mapping(t_address,t_bool))"
					}
				],
				"types": {
					"t_address": {
						"encoding": "inplace",
						"label": "address",
						"numberOfBytes": "20"
					},
					"t_bool": {
						"encoding": "inplace",
						"label": "bool",
						"numberOfBytes": "1"
					},
					"t_mapping(t_address,t_bool)": {
						"encoding": "mapping",
						"key": "t_address",
						"label": "mapping(address => bool)",
						"numberOfBytes": "32",
						"value": "t_bool"
					},
					"t_mapping(t_address,t_mapping(t_address,t_bool))": {
						"encoding": "mapping",
						"key": "t_address",
						"label": "mapping(address => mapping(address => bool))",
						"numberOfBytes": "32",
						"value": "t_mapping(t_address,t_bool)"
					},
					"t_mapping(t_address,t_mapping(t_address,t_mapping(t_uint256,t_uint256)))": {
						"encoding": "mapping",
						"key": "t_address",
						"label": "mapping(address => mapping(address => mapping(uint256 => uint256)))",
						"numberOfBytes": "32",
						"value": "t_mapping(t_address,t_mapping(t_uint256,t_uint256))"
					},
					"t_mapping(t_address,t_mapping(t_uint256,t_uint256))": {
						"encoding": "mapping",
						"key": "t_address",
						"label": "mapping(address => mapping(uint256 => uint256))",
						"numberOfBytes": "32",
						"value": "t_mapping(t_uint256,t_uint256)"
					},
					"t_mapping(t_uint256,t_uint256)": {
						"encoding": "mapping",
						"key": "t_uint256",
						"label": "mapping(uint256 => uint256)",
						"numberOfBytes": "32",
						"value": "t_uint256"
					},
					"t_uint256": {
						"encoding": "inplace",
						"label": "uint256",
						"numberOfBytes": "32"
					}
				}
			},
			"userdoc": {
				"events": {
					"Approval(address,address,uint256,uint256)": {
						"notice": "The event emitted when an approval occurs."
					},
					"OperatorSet(address,address,bool)": {
						"notice": "The event emitted when an operator is set."
					},
					"Transfer(address,address,address,uint256,uint256)": {
						"notice": "The event emitted when a transfer occurs."
					}
				},
				"kind": "user",
				"methods": {
					"allowance(address,address,uint256)": {
						"notice": "Spender allowance of an id."
					},
					"approve(address,uint256,uint256)": {
						"notice": "Approves an amount of an id to a spender."
					},
					"balanceOf(address,uint256)": {
						"notice": "Owner balance of an id."
					},
					"isOperator(address,address)": {
						"notice": "Checks if a spender is approved by an owner as an operator."
					},
					"setOperator(address,bool)": {
						"notice": "Sets or removes a spender as an operator for the caller."
					},
					"supportsInterface(bytes4)": {
						"notice": "Checks if a contract implements an interface."
					},
					"transfer(address,uint256,uint256)": {
						"notice": "Transfers an amount of an id from the caller to a receiver."
					},
					"transferFrom(address,address,uint256,uint256)": {
						"notice": "Transfers an amount of an id from a sender to a receiver."
					}
				},
				"version": 1
			}
		}
	}
}