{
	"src/ZKFToken.sol": {
		"ZKFToken": {
			"abi": [
				{
					"inputs": [],
					"stateMutability": "nonpayable",
					"type": "constructor"
				},
				{
					"inputs": [
						{
							"internalType": "address",
							"name": "owner",
							"type": "address"
						},
						{
							"internalType": "uint256",
							"name": "id",
							"type": "uint256"
						}
					],
					"name": "InsufficientBalance",
					"type": "error"
				},
				{
					"inputs": [
						{
							"internalType": "address",
							"name": "spender",
							"type": "address"
						},
						{
							"internalType": "uint256",
							"name": "id",
							"type": "uint256"
						}
					],
					"name": "InsufficientPermission",
					"type": "error"
				},
				{
					"anonymous": false,
					"inputs": [
						{
							"indexed": true,
							"internalType": "address",
							"name": "owner",
							"type": "address"
						},
						{
							"indexed": true,
							"internalType": "address",
							"name": "spender",
							"type": "address"
						},
						{
							"indexed": true,
							"internalType": "uint256",
							"name": "id",
							"type": "uint256"
						},
						{
							"indexed": false,
							"internalType": "uint256",
							"name": "amount",
							"type": "uint256"
						}
					],
					"name": "Approval",
					"type": "event"
				},
				{
					"anonymous": false,
					"inputs": [
						{
							"indexed": true,
							"internalType": "address",
							"name": "owner",
							"type": "address"
						},
						{
							"indexed": true,
							"internalType": "address",
							"name": "spender",
							"type": "address"
						},
						{
							"indexed": false,
							"internalType": "bool",
							"name": "approved",
							"type": "bool"
						}
					],
					"name": "OperatorSet",
					"type": "event"
				},
				{
					"anonymous": false,
					"inputs": [
						{
							"indexed": false,
							"internalType": "address",
							"name": "caller",
							"type": "address"
						},
						{
							"indexed": true,
							"internalType": "address",
							"name": "sender",
							"type": "address"
						},
						{
							"indexed": true,
							"internalType": "address",
							"name": "receiver",
							"type": "address"
						},
						{
							"indexed": true,
							"internalType": "uint256",
							"name": "id",
							"type": "uint256"
						},
						{
							"indexed": false,
							"internalType": "uint256",
							"name": "amount",
							"type": "uint256"
						}
					],
					"name": "Transfer",
					"type": "event"
				},
				{
					"inputs": [
						{
							"internalType": "address",
							"name": "owner",
							"type": "address"
						},
						{
							"internalType": "address",
							"name": "spender",
							"type": "address"
						},
						{
							"internalType": "uint256",
							"name": "id",
							"type": "uint256"
						}
					],
					"name": "allowance",
					"outputs": [
						{
							"internalType": "uint256",
							"name": "amount",
							"type": "uint256"
						}
					],
					"stateMutability": "view",
					"type": "function"
				},
				{
					"inputs": [
						{
							"internalType": "address",
							"name": "spender",
							"type": "address"
						},
						{
							"internalType": "uint256",
							"name": "id",
							"type": "uint256"
						},
						{
							"internalType": "uint256",
							"name": "amount",
							"type": "uint256"
						}
					],
					"name": "approve",
					"outputs": [
						{
							"internalType": "bool",
							"name": "",
							"type": "bool"
						}
					],
					"stateMutability": "nonpayable",
					"type": "function"
				},
				{
					"inputs": [
						{
							"internalType": "address",
							"name": "owner",
							"type": "address"
						},
						{
							"internalType": "uint256",
							"name": "id",
							"type": "uint256"
						}
					],
					"name": "balanceOf",
					"outputs": [
						{
							"internalType": "uint256",
							"name": "amount",
							"type": "uint256"
						}
					],
					"stateMutability": "view",
					"type": "function"
				},
				{
					"inputs": [
						{
							"internalType": "address",
							"name": "owner",
							"type": "address"
						},
						{
							"internalType": "uint256",
							"name": "id",
							"type": "uint256"
						},
						{
							"internalType": "uint256",
							"name": "amount",
							"type": "uint256"
						}
					],
					"name": "burn",
					"outputs": [],
					"stateMutability": "nonpayable",
					"type": "function"
				},
				{
					"inputs": [
						{
							"internalType": "address",
							"name": "owner",
							"type": "address"
						},
						{
							"internalType": "address",
							"name": "spender",
							"type": "address"
						}
					],
					"name": "isOperator",
					"outputs": [
						{
							"internalType": "bool",
							"name": "",
							"type": "bool"
						}
					],
					"stateMutability": "view",
					"type": "function"
				},
				{
					"inputs": [
						{
							"internalType": "address",
							"name": "receiver",
							"type": "address"
						},
						{
							"internalType": "uint256",
							"name": "id",
							"type": "uint256"
						},
						{
							"internalType": "uint256",
							"name": "amount",
							"type": "uint256"
						}
					],
					"name": "mint",
					"outputs": [],
					"stateMutability": "nonpayable",
					"type": "function"
				},
				{
					"inputs": [
						{
							"internalType": "address",
							"name": "spender",
							"type": "address"
						},
						{
							"internalType": "bool",
							"name": "approved",
							"type": "bool"
						}
					],
					"name": "setOperator",
					"outputs": [
						{
							"internalType": "bool",
							"name": "",
							"type": "bool"
						}
					],
					"stateMutability": "nonpayable",
					"type": "function"
				},
				{
					"inputs": [
						{
							"internalType": "bytes4",
							"name": "interfaceId",
							"type": "bytes4"
						}
					],
					"name": "supportsInterface",
					"outputs": [
						{
							"internalType": "bool",
							"name": "supported",
							"type": "bool"
						}
					],
					"stateMutability": "pure",
					"type": "function"
				},
				{
					"inputs": [
						{
							"internalType": "address",
							"name": "receiver",
							"type": "address"
						},
						{
							"internalType": "uint256",
							"name": "id",
							"type": "uint256"
						},
						{
							"internalType": "uint256",
							"name": "amount",
							"type": "uint256"
						}
					],
					"name": "transfer",
					"outputs": [
						{
							"internalType": "bool",
							"name": "",
							"type": "bool"
						}
					],
					"stateMutability": "nonpayable",
					"type": "function"
				},
				{
					"inputs": [
						{
							"internalType": "address",
							"name": "sender",
							"type": "address"
						},
						{
							"internalType": "address",
							"name": "receiver",
							"type": "address"
						},
						{
							"internalType": "uint256",
							"name": "id",
							"type": "uint256"
						},
						{
							"internalType": "uint256",
							"name": "amount",
							"type": "uint256"
						}
					],
					"name": "transferFrom",
					"outputs": [
						{
							"internalType": "bool",
							"name": "",
							"type": "bool"
						}
					],
					"stateMutability": "nonpayable",
					"type": "function"
				}
			],
			"devdoc": {
				"errors": {
					"InsufficientBalance(address,uint256)": [
						{
							"details": "Thrown when owner balance for id is insufficient.",
							"params": {
								"id": "The id of the token.",
								"owner": "The address of the owner."
							}
						}
					],
					"InsufficientPermission(address,uint256)": [
						{
							"details": "Thrown when spender allowance for id is insufficient.",
							"params": {
								"id": "The id of the token.",
								"spender": "The address of the spender."
							}
						}
					]
				},
				"events": {
					"Approval(address,address,uint256,uint256)": {
						"params": {
							"amount": "The amount of the token.",
							"id": "The id of the token.",
							"owner": "The address of the owner.",
							"spender": "The address of the spender."
						}
					},
					"OperatorSet(address,address,bool)": {
						"params": {
							"approved": "The approval status.",
							"owner": "The address of the owner.",
							"spender": "The address of the spender."
						}
					},
					"Transfer(address,address,address,uint256,uint256)": {
						"params": {
							"amount": "The amount of the token.",
							"id": "The id of the token.",
							"receiver": "The address of the receiver.",
							"sender": "The address of the sender."
						}
					}
				},
				"kind": "dev",
				"methods": {
					"approve(address,uint256,uint256)": {
						"params": {
							"amount": "The amount of the token.",
							"id": "The id of the token.",
							"spender": "The address of the spender."
						}
					},
					"setOperator(address,bool)": {
						"params": {
							"approved": "The approval status.",
							"spender": "The address of the spender."
						}
					},
					"supportsInterface(bytes4)": {
						"params": {
							"interfaceId": "The interface identifier, as specified in ERC-165."
						},
						"returns": {
							"supported": "True if the contract implements `interfaceId`."
						}
					},
					"transfer(address,uint256,uint256)": {
						"params": {
							"amount": "The amount of the token.",
							"id": "The id of the token.",
							"receiver": "The address of the receiver."
						}
					},
					"transferFrom(address,address,uint256,uint256)": {
						"params": {
							"amount": "The amount of the token.",
							"id": "The id of the token.",
							"receiver": "The address of the receiver.",
							"sender": "The address of the sender."
						}
					}
				},
				"version": 1
			},
			"evm": {
				"assembly": "    /* \"src/ZKFToken.sol\":83:667  contract ZKFToken is ERC6909 {... */\n  mstore(0x40, 0x80)\n    /* \"src/ZKFToken.sol\":118:144  constructor() ERC6909() {} */\n  callvalue\n  dup1\n  iszero\n  tag_1\n  jumpi\n  0x00\n  dup1\n  revert\ntag_1:\n  pop\n    /* \"src/ZKFToken.sol\":83:667  contract ZKFToken is ERC6909 {... */\n  dataSize(sub_0)\n  dup1\n  dataOffset(sub_0)\n  0x00\n  codecopy\n  0x00\n  return\nstop\n\nsub_0: assembly {\n        /* \"src/ZKFToken.sol\":83:667  contract ZKFToken is ERC6909 {... */\n      mstore(0x40, 0x80)\n      callvalue\n      dup1\n      iszero\n      tag_1\n      jumpi\n      0x00\n      dup1\n      revert\n    tag_1:\n      pop\n      jumpi(tag_2, lt(calldatasize, 0x04))\n      shr(0xe0, calldataload(0x00))\n      dup1\n      0x558a7297\n      gt\n      tag_13\n      jumpi\n      dup1\n      0x558a7297\n      eq\n      tag_8\n      jumpi\n      dup1\n      0x598af9e7\n      eq\n      tag_9\n      jumpi\n      dup1\n      0xb6363cf2\n      eq\n      tag_10\n      jumpi\n      dup1\n      0xf5298aca\n      eq\n      tag_11\n      jumpi\n      dup1\n      0xfe99049a\n      eq\n      tag_12\n      jumpi\n      jump(tag_2)\n    tag_13:\n      dup1\n      0xfdd58e\n      eq\n      tag_3\n      jumpi\n      dup1\n      0x01ffc9a7\n      eq\n      tag_4\n      jumpi\n      dup1\n      0x095bcdb6\n      eq\n      tag_5\n      jumpi\n      dup1\n      0x156e29f6\n      eq\n      tag_6\n      jumpi\n      dup1\n      0x426a8493\n      eq\n      tag_7\n      jumpi\n    tag_2:\n      0x00\n      dup1\n      revert\n        /* \"src/ERC6909.sol\":1750:1838  mapping(address owner => mapping(uint256 id => uint256 amount))... */\n    tag_3:\n      tag_14\n      0x04\n      dup1\n      calldatasize\n      sub\n      dup2\n      add\n      swap1\n      tag_15\n      swap2\n      swap1\n      tag_16\n      jump\t// in\n    tag_15:\n      tag_17\n      jump\t// in\n    tag_14:\n      mload(0x40)\n      tag_18\n      swap2\n      swap1\n      tag_19\n      jump\t// in\n    tag_18:\n      mload(0x40)\n      dup1\n      swap2\n      sub\n      swap1\n      return\n        /* \"src/ERC6909.sol\":4949:5125  function supportsInterface(... */\n    tag_4:\n      tag_20\n      0x04\n      dup1\n      calldatasize\n      sub\n      dup2\n      add\n      swap1\n      tag_21\n      swap2\n      swap1\n      tag_22\n      jump\t// in\n    tag_21:\n      tag_23\n      jump\t// in\n    tag_20:\n      mload(0x40)\n      tag_24\n      swap2\n      swap1\n      tag_25\n      jump\t// in\n    tag_24:\n      mload(0x40)\n      dup1\n      swap2\n      sub\n      swap1\n      return\n        /* \"src/ERC6909.sol\":2394:2799  function transfer(... */\n    tag_5:\n      tag_26\n      0x04\n      dup1\n      calldatasize\n      sub\n      dup2\n      add\n      swap1\n      tag_27\n      swap2\n      swap1\n      tag_28\n      jump\t// in\n    tag_27:\n      tag_29\n      jump\t// in\n    tag_26:\n      mload(0x40)\n      tag_30\n      swap2\n      swap1\n      tag_25\n      jump\t// in\n    tag_30:\n      mload(0x40)\n      dup1\n      swap2\n      sub\n      swap1\n      return\n        /* \"src/ZKFToken.sol\":150:408  function mint(address receiver, uint256 id, uint256 amount) public {... */\n    tag_6:\n      tag_31\n      0x04\n      dup1\n      calldatasize\n      sub\n      dup2\n      add\n      swap1\n      tag_32\n      swap2\n      swap1\n      tag_28\n      jump\t// in\n    tag_32:\n      tag_33\n      jump\t// in\n    tag_31:\n      stop\n        /* \"src/ERC6909.sol\":4092:4343  function approve(... */\n    tag_7:\n      tag_34\n      0x04\n      dup1\n      calldatasize\n      sub\n      dup2\n      add\n      swap1\n      tag_35\n      swap2\n      swap1\n      tag_28\n      jump\t// in\n    tag_35:\n      tag_36\n      jump\t// in\n    tag_34:\n      mload(0x40)\n      tag_37\n      swap2\n      swap1\n      tag_25\n      jump\t// in\n    tag_37:\n      mload(0x40)\n      dup1\n      swap2\n      sub\n      swap1\n      return\n        /* \"src/ERC6909.sol\":4518:4730  function setOperator(address spender, bool approved) public returns (bool) {... */\n    tag_8:\n      tag_38\n      0x04\n      dup1\n      calldatasize\n      sub\n      dup2\n      add\n      swap1\n      tag_39\n      swap2\n      swap1\n      tag_40\n      jump\t// in\n    tag_39:\n      tag_41\n      jump\t// in\n    tag_38:\n      mload(0x40)\n      tag_42\n      swap2\n      swap1\n      tag_25\n      jump\t// in\n    tag_42:\n      mload(0x40)\n      dup1\n      swap2\n      sub\n      swap1\n      return\n        /* \"src/ERC6909.sol\":1889:2005  mapping(address owner => mapping(address spender => mapping(uint256 id => uint256 amount)))... */\n    tag_9:\n      tag_43\n      0x04\n      dup1\n      calldatasize\n      sub\n      dup2\n      add\n      swap1\n      tag_44\n      swap2\n      swap1\n      tag_45\n      jump\t// in\n    tag_44:\n      tag_46\n      jump\t// in\n    tag_43:\n      mload(0x40)\n      tag_47\n      swap2\n      swap1\n      tag_19\n      jump\t// in\n    tag_47:\n      mload(0x40)\n      dup1\n      swap2\n      sub\n      swap1\n      return\n        /* \"src/ERC6909.sol\":2088:2172  mapping(address owner => mapping(address spender => bool))... */\n    tag_10:\n      tag_48\n      0x04\n      dup1\n      calldatasize\n      sub\n      dup2\n      add\n      swap1\n      tag_49\n      swap2\n      swap1\n      tag_50\n      jump\t// in\n    tag_49:\n      tag_51\n      jump\t// in\n    tag_48:\n      mload(0x40)\n      tag_52\n      swap2\n      swap1\n      tag_25\n      jump\t// in\n    tag_52:\n      mload(0x40)\n      dup1\n      swap2\n      sub\n      swap1\n      return\n        /* \"src/ZKFToken.sol\":414:665  function burn(address owner, uint256 id, uint256 amount) public {... */\n    tag_11:\n      tag_53\n      0x04\n      dup1\n      calldatasize\n      sub\n      dup2\n      add\n      swap1\n      tag_54\n      swap2\n      swap1\n      tag_28\n      jump\t// in\n    tag_54:\n      tag_55\n      jump\t// in\n    tag_53:\n      stop\n        /* \"src/ERC6909.sol\":3067:3891  function transferFrom(... */\n    tag_12:\n      tag_56\n      0x04\n      dup1\n      calldatasize\n      sub\n      dup2\n      add\n      swap1\n      tag_57\n      swap2\n      swap1\n      tag_58\n      jump\t// in\n    tag_57:\n      tag_59\n      jump\t// in\n    tag_56:\n      mload(0x40)\n      tag_60\n      swap2\n      swap1\n      tag_25\n      jump\t// in\n    tag_60:\n      mload(0x40)\n      dup1\n      swap2\n      sub\n      swap1\n      return\n        /* \"src/ERC6909.sol\":1750:1838  mapping(address owner => mapping(uint256 id => uint256 amount))... */\n    tag_17:\n      mstore(0x20, 0x00)\n      dup2\n      0x00\n      mstore\n      mstore(0x20, keccak256(0x00, 0x40))\n      dup1\n      0x00\n      mstore\n      keccak256(0x00, 0x40)\n      0x00\n      swap2\n      pop\n      swap2\n      pop\n      pop\n      sload\n      dup2\n      jump\t// out\n        /* \"src/ERC6909.sol\":4949:5125  function supportsInterface(... */\n    tag_23:\n        /* \"src/ERC6909.sol\":5031:5045  bool supported */\n      0x00\n        /* \"src/ERC6909.sol\":5079:5089  0x0f632fb3 */\n      0x0f632fb3\n        /* \"src/ERC6909.sol\":5064:5089  interfaceId == 0x0f632fb3 */\n      0xe0\n      shl\n        /* \"src/ERC6909.sol\":5064:5075  interfaceId */\n      dup3\n        /* \"src/ERC6909.sol\":5064:5089  interfaceId == 0x0f632fb3 */\n      not(0xffffffffffffffffffffffffffffffffffffffffffffffffffffffff)\n      and\n      eq\n        /* \"src/ERC6909.sol\":5064:5118  interfaceId == 0x0f632fb3 || interfaceId == 0x01ffc9a7 */\n      dup1\n      tag_62\n      jumpi\n      pop\n        /* \"src/ERC6909.sol\":5108:5118  0x01ffc9a7 */\n      0x01ffc9a7\n        /* \"src/ERC6909.sol\":5093:5118  interfaceId == 0x01ffc9a7 */\n      0xe0\n      shl\n        /* \"src/ERC6909.sol\":5093:5104  interfaceId */\n      dup3\n        /* \"src/ERC6909.sol\":5093:5118  interfaceId == 0x01ffc9a7 */\n      not(0xffffffffffffffffffffffffffffffffffffffffffffffffffffffff)\n      and\n      eq\n        /* \"src/ERC6909.sol\":5064:5118  interfaceId == 0x0f632fb3 || interfaceId == 0x01ffc9a7 */\n    tag_62:\n        /* \"src/ERC6909.sol\":5057:5118  return interfaceId == 0x0f632fb3 || interfaceId == 0x01ffc9a7 */\n      swap1\n      pop\n        /* \"src/ERC6909.sol\":4949:5125  function supportsInterface(... */\n      swap2\n      swap1\n      pop\n      jump\t// out\n        /* \"src/ERC6909.sol\":2394:2799  function transfer(... */\n    tag_29:\n        /* \"src/ERC6909.sol\":2504:2508  bool */\n      0x00\n        /* \"src/ERC6909.sol\":2552:2558  amount */\n      dup2\n        /* \"src/ERC6909.sol\":2524:2533  balanceOf */\n      0x00\n        /* \"src/ERC6909.sol\":2524:2545  balanceOf[msg.sender] */\n      dup1\n        /* \"src/ERC6909.sol\":2534:2544  msg.sender */\n      caller\n        /* \"src/ERC6909.sol\":2524:2545  balanceOf[msg.sender] */\n      0xffffffffffffffffffffffffffffffffffffffff\n      and\n      0xffffffffffffffffffffffffffffffffffffffff\n      and\n      dup2\n      mstore\n      0x20\n      add\n      swap1\n      dup2\n      mstore\n      0x20\n      add\n      0x00\n      keccak256\n        /* \"src/ERC6909.sol\":2524:2549  balanceOf[msg.sender][id] */\n      0x00\n        /* \"src/ERC6909.sol\":2546:2548  id */\n      dup6\n        /* \"src/ERC6909.sol\":2524:2549  balanceOf[msg.sender][id] */\n      dup2\n      mstore\n      0x20\n      add\n      swap1\n      dup2\n      mstore\n      0x20\n      add\n      0x00\n      keccak256\n      sload\n        /* \"src/ERC6909.sol\":2524:2558  balanceOf[msg.sender][id] < amount */\n      lt\n        /* \"src/ERC6909.sol\":2520:2614  if (balanceOf[msg.sender][id] < amount)... */\n      iszero\n      tag_64\n      jumpi\n        /* \"src/ERC6909.sol\":2599:2609  msg.sender */\n      caller\n        /* \"src/ERC6909.sol\":2611:2613  id */\n      dup4\n        /* \"src/ERC6909.sol\":2579:2614  InsufficientBalance(msg.sender, id) */\n      mload(0x40)\n      0xf6deaa0400000000000000000000000000000000000000000000000000000000\n      dup2\n      mstore\n      0x04\n      add\n      tag_65\n      swap3\n      swap2\n      swap1\n      tag_66\n      jump\t// in\n    tag_65:\n      mload(0x40)\n      dup1\n      swap2\n      sub\n      swap1\n      revert\n        /* \"src/ERC6909.sol\":2520:2614  if (balanceOf[msg.sender][id] < amount)... */\n    tag_64:\n        /* \"src/ERC6909.sol\":2653:2659  amount */\n      dup2\n        /* \"src/ERC6909.sol\":2624:2633  balanceOf */\n      0x00\n        /* \"src/ERC6909.sol\":2624:2645  balanceOf[msg.sender] */\n      dup1\n        /* \"src/ERC6909.sol\":2634:2644  msg.sender */\n      caller\n        /* \"src/ERC6909.sol\":2624:2645  balanceOf[msg.sender] */\n      0xffffffffffffffffffffffffffffffffffffffff\n      and\n      0xffffffffffffffffffffffffffffffffffffffff\n      and\n      dup2\n      mstore\n      0x20\n      add\n      swap1\n      dup2\n      mstore\n      0x20\n      add\n      0x00\n      keccak256\n        /* \"src/ERC6909.sol\":2624:2649  balanceOf[msg.sender][id] */\n      0x00\n        /* \"src/ERC6909.sol\":2646:2648  id */\n      dup6\n        /* \"src/ERC6909.sol\":2624:2649  balanceOf[msg.sender][id] */\n      dup2\n      mstore\n      0x20\n      add\n      swap1\n      dup2\n      mstore\n      0x20\n      add\n      0x00\n      keccak256\n      0x00\n        /* \"src/ERC6909.sol\":2624:2659  balanceOf[msg.sender][id] -= amount */\n      dup3\n      dup3\n      sload\n      tag_67\n      swap2\n      swap1\n      tag_68\n      jump\t// in\n    tag_67:\n      swap3\n      pop\n      pop\n      dup2\n      swap1\n      sstore\n      pop\n        /* \"src/ERC6909.sol\":2696:2702  amount */\n      dup2\n        /* \"src/ERC6909.sol\":2669:2678  balanceOf */\n      0x00\n        /* \"src/ERC6909.sol\":2669:2688  balanceOf[receiver] */\n      dup1\n        /* \"src/ERC6909.sol\":2679:2687  receiver */\n      dup7\n        /* \"src/ERC6909.sol\":2669:2688  balanceOf[receiver] */\n      0xffffffffffffffffffffffffffffffffffffffff\n      and\n      0xffffffffffffffffffffffffffffffffffffffff\n      and\n      dup2\n      mstore\n      0x20\n      add\n      swap1\n      dup2\n      mstore\n      0x20\n      add\n      0x00\n      keccak256\n        /* \"src/ERC6909.sol\":2669:2692  balanceOf[receiver][id] */\n      0x00\n        /* \"src/ERC6909.sol\":2689:2691  id */\n      dup6\n        /* \"src/ERC6909.sol\":2669:2692  balanceOf[receiver][id] */\n      dup2\n      mstore\n      0x20\n      add\n      swap1\n      dup2\n      mstore\n      0x20\n      add\n      0x00\n      keccak256\n      0x00\n        /* \"src/ERC6909.sol\":2669:2702  balanceOf[receiver][id] += amount */\n      dup3\n      dup3\n      sload\n      tag_69\n      swap2\n      swap1\n      tag_70\n      jump\t// in\n    tag_69:\n      swap3\n      pop\n      pop\n      dup2\n      swap1\n      sstore\n      pop\n        /* \"src/ERC6909.sol\":2760:2762  id */\n      dup3\n        /* \"src/ERC6909.sol\":2750:2758  receiver */\n      dup5\n        /* \"src/ERC6909.sol\":2717:2771  Transfer(msg.sender, msg.sender, receiver, id, amount) */\n      0xffffffffffffffffffffffffffffffffffffffff\n      and\n        /* \"src/ERC6909.sol\":2738:2748  msg.sender */\n      caller\n        /* \"src/ERC6909.sol\":2717:2771  Transfer(msg.sender, msg.sender, receiver, id, amount) */\n      0xffffffffffffffffffffffffffffffffffffffff\n      and\n      0x1b3d7edb2e9c0b0e7c525b20aaaef0f5940d2ed71663c7d39266ecafac728859\n        /* \"src/ERC6909.sol\":2726:2736  msg.sender */\n      caller\n        /* \"src/ERC6909.sol\":2764:2770  amount */\n      dup7\n        /* \"src/ERC6909.sol\":2717:2771  Transfer(msg.sender, msg.sender, receiver, id, amount) */\n      mload(0x40)\n      tag_71\n      swap3\n      swap2\n      swap1\n      tag_66\n      jump\t// in\n    tag_71:\n      mload(0x40)\n      dup1\n      swap2\n      sub\n      swap1\n      log4\n        /* \"src/ERC6909.sol\":2788:2792  true */\n      0x01\n        /* \"src/ERC6909.sol\":2781:2792  return true */\n      swap1\n      pop\n        /* \"src/ERC6909.sol\":2394:2799  function transfer(... */\n      swap4\n      swap3\n      pop\n      pop\n      pop\n      jump\t// out\n        /* \"src/ZKFToken.sol\":150:408  function mint(address receiver, uint256 id, uint256 amount) public {... */\n    tag_33:\n        /* \"src/ZKFToken.sol\":328:329  0 */\n      0x00\n        /* \"src/ZKFToken.sol\":319:325  amount */\n      dup2\n        /* \"src/ZKFToken.sol\":319:329  amount > 0 */\n      gt\n        /* \"src/ZKFToken.sol\":311:363  require(amount > 0, \"ZKFToken: minting zero amount\") */\n      tag_73\n      jumpi\n      mload(0x40)\n      0x08c379a000000000000000000000000000000000000000000000000000000000\n      dup2\n      mstore\n      0x04\n      add\n      tag_74\n      swap1\n      tag_75\n      jump\t// in\n    tag_74:\n      mload(0x40)\n      dup1\n      swap2\n      sub\n      swap1\n      revert\n    tag_73:\n        /* \"src/ZKFToken.sol\":374:401  _mint(receiver, id, amount) */\n      tag_76\n        /* \"src/ZKFToken.sol\":380:388  receiver */\n      dup4\n        /* \"src/ZKFToken.sol\":390:392  id */\n      dup4\n        /* \"src/ZKFToken.sol\":394:400  amount */\n      dup4\n        /* \"src/ZKFToken.sol\":374:379  _mint */\n      tag_77\n        /* \"src/ZKFToken.sol\":374:401  _mint(receiver, id, amount) */\n      jump\t// in\n    tag_76:\n        /* \"src/ZKFToken.sol\":150:408  function mint(address receiver, uint256 id, uint256 amount) public {... */\n      pop\n      pop\n      pop\n      jump\t// out\n        /* \"src/ERC6909.sol\":4092:4343  function approve(... */\n    tag_36:\n        /* \"src/ERC6909.sol\":4200:4204  bool */\n      0x00\n        /* \"src/ERC6909.sol\":4253:4259  amount */\n      dup2\n        /* \"src/ERC6909.sol\":4216:4225  allowance */\n      0x01\n        /* \"src/ERC6909.sol\":4216:4237  allowance[msg.sender] */\n      0x00\n        /* \"src/ERC6909.sol\":4226:4236  msg.sender */\n      caller\n        /* \"src/ERC6909.sol\":4216:4237  allowance[msg.sender] */\n      0xffffffffffffffffffffffffffffffffffffffff\n      and\n      0xffffffffffffffffffffffffffffffffffffffff\n      and\n      dup2\n      mstore\n      0x20\n      add\n      swap1\n      dup2\n      mstore\n      0x20\n      add\n      0x00\n      keccak256\n        /* \"src/ERC6909.sol\":4216:4246  allowance[msg.sender][spender] */\n      0x00\n        /* \"src/ERC6909.sol\":4238:4245  spender */\n      dup7\n        /* \"src/ERC6909.sol\":4216:4246  allowance[msg.sender][spender] */\n      0xffffffffffffffffffffffffffffffffffffffff\n      and\n      0xffffffffffffffffffffffffffffffffffffffff\n      and\n      dup2\n      mstore\n      0x20\n      add\n      swap1\n      dup2\n      mstore\n      0x20\n      add\n      0x00\n      keccak256\n        /* \"src/ERC6909.sol\":4216:4250  allowance[msg.sender][spender][id] */\n      0x00\n        /* \"src/ERC6909.sol\":4247:4249  id */\n      dup6\n        /* \"src/ERC6909.sol\":4216:4250  allowance[msg.sender][spender][id] */\n      dup2\n      mstore\n      0x20\n      add\n      swap1\n      dup2\n      mstore\n      0x20\n      add\n      0x00\n      keccak256\n        /* \"src/ERC6909.sol\":4216:4259  allowance[msg.sender][spender][id] = amount */\n      dup2\n      swap1\n      sstore\n      pop\n        /* \"src/ERC6909.sol\":4304:4306  id */\n      dup3\n        /* \"src/ERC6909.sol\":4295:4302  spender */\n      dup5\n        /* \"src/ERC6909.sol\":4274:4315  Approval(msg.sender, spender, id, amount) */\n      0xffffffffffffffffffffffffffffffffffffffff\n      and\n        /* \"src/ERC6909.sol\":4283:4293  msg.sender */\n      caller\n        /* \"src/ERC6909.sol\":4274:4315  Approval(msg.sender, spender, id, amount) */\n      0xffffffffffffffffffffffffffffffffffffffff\n      and\n      0xb3fd5071835887567a0671151121894ddccc2842f1d10bedad13e0d17cace9a7\n        /* \"src/ERC6909.sol\":4308:4314  amount */\n      dup6\n        /* \"src/ERC6909.sol\":4274:4315  Approval(msg.sender, spender, id, amount) */\n      mload(0x40)\n      tag_79\n      swap2\n      swap1\n      tag_19\n      jump\t// in\n    tag_79:\n      mload(0x40)\n      dup1\n      swap2\n      sub\n      swap1\n      log4\n        /* \"src/ERC6909.sol\":4332:4336  true */\n      0x01\n        /* \"src/ERC6909.sol\":4325:4336  return true */\n      swap1\n      pop\n        /* \"src/ERC6909.sol\":4092:4343  function approve(... */\n      swap4\n      swap3\n      pop\n      pop\n      pop\n      jump\t// out\n        /* \"src/ERC6909.sol\":4518:4730  function setOperator(address spender, bool approved) public returns (bool) {... */\n    tag_41:\n        /* \"src/ERC6909.sol\":4587:4591  bool */\n      0x00\n        /* \"src/ERC6909.sol\":4637:4645  approved */\n      dup2\n        /* \"src/ERC6909.sol\":4603:4613  isOperator */\n      0x02\n        /* \"src/ERC6909.sol\":4603:4625  isOperator[msg.sender] */\n      0x00\n        /* \"src/ERC6909.sol\":4614:4624  msg.sender */\n      caller\n        /* \"src/ERC6909.sol\":4603:4625  isOperator[msg.sender] */\n      0xffffffffffffffffffffffffffffffffffffffff\n      and\n      0xffffffffffffffffffffffffffffffffffffffff\n      and\n      dup2\n      mstore\n      0x20\n      add\n      swap1\n      dup2\n      mstore\n      0x20\n      add\n      0x00\n      keccak256\n        /* \"src/ERC6909.sol\":4603:4634  isOperator[msg.sender][spender] */\n      0x00\n        /* \"src/ERC6909.sol\":4626:4633  spender */\n      dup6\n        /* \"src/ERC6909.sol\":4603:4634  isOperator[msg.sender][spender] */\n      0xffffffffffffffffffffffffffffffffffffffff\n      and\n      0xffffffffffffffffffffffffffffffffffffffff\n      and\n      dup2\n      mstore\n      0x20\n      add\n      swap1\n      dup2\n      mstore\n      0x20\n      add\n      0x00\n      keccak256\n      0x00\n        /* \"src/ERC6909.sol\":4603:4645  isOperator[msg.sender][spender] = approved */\n      0x0100\n      exp\n      dup2\n      sload\n      dup2\n      0xff\n      mul\n      not\n      and\n      swap1\n      dup4\n      iszero\n      iszero\n      mul\n      or\n      swap1\n      sstore\n      pop\n        /* \"src/ERC6909.sol\":4684:4691  spender */\n      dup3\n        /* \"src/ERC6909.sol\":4660:4702  OperatorSet(msg.sender, spender, approved) */\n      0xffffffffffffffffffffffffffffffffffffffff\n      and\n        /* \"src/ERC6909.sol\":4672:4682  msg.sender */\n      caller\n        /* \"src/ERC6909.sol\":4660:4702  OperatorSet(msg.sender, spender, approved) */\n      0xffffffffffffffffffffffffffffffffffffffff\n      and\n      0xceb576d9f15e4e200fdb5096d64d5dfd667e16def20c1eefd14256d8e3faa267\n        /* \"src/ERC6909.sol\":4693:4701  approved */\n      dup5\n        /* \"src/ERC6909.sol\":4660:4702  OperatorSet(msg.sender, spender, approved) */\n      mload(0x40)\n      tag_81\n      swap2\n      swap1\n      tag_25\n      jump\t// in\n    tag_81:\n      mload(0x40)\n      dup1\n      swap2\n      sub\n      swap1\n      log3\n        /* \"src/ERC6909.sol\":4719:4723  true */\n      0x01\n        /* \"src/ERC6909.sol\":4712:4723  return true */\n      swap1\n      pop\n        /* \"src/ERC6909.sol\":4518:4730  function setOperator(address spender, bool approved) public returns (bool) {... */\n      swap3\n      swap2\n      pop\n      pop\n      jump\t// out\n        /* \"src/ERC6909.sol\":1889:2005  mapping(address owner => mapping(address spender => mapping(uint256 id => uint256 amount)))... */\n    tag_46:\n      mstore(0x20, 0x01)\n      dup3\n      0x00\n      mstore\n      mstore(0x20, keccak256(0x00, 0x40))\n      dup2\n      0x00\n      mstore\n      mstore(0x20, keccak256(0x00, 0x40))\n      dup1\n      0x00\n      mstore\n      keccak256(0x00, 0x40)\n      0x00\n      swap3\n      pop\n      swap3\n      pop\n      pop\n      pop\n      sload\n      dup2\n      jump\t// out\n        /* \"src/ERC6909.sol\":2088:2172  mapping(address owner => mapping(address spender => bool))... */\n    tag_51:\n      mstore(0x20, 0x02)\n      dup2\n      0x00\n      mstore\n      mstore(0x20, keccak256(0x00, 0x40))\n      dup1\n      0x00\n      mstore\n      keccak256(0x00, 0x40)\n      0x00\n      swap2\n      pop\n      swap2\n      pop\n      swap1\n      sload\n      swap1\n      0x0100\n      exp\n      swap1\n      div\n      0xff\n      and\n      dup2\n      jump\t// out\n        /* \"src/ZKFToken.sol\":414:665  function burn(address owner, uint256 id, uint256 amount) public {... */\n    tag_55:\n        /* \"src/ZKFToken.sol\":588:589  0 */\n      0x00\n        /* \"src/ZKFToken.sol\":579:585  amount */\n      dup2\n        /* \"src/ZKFToken.sol\":579:589  amount > 0 */\n      gt\n        /* \"src/ZKFToken.sol\":571:623  require(amount > 0, \"ZKFToken: burning zero amount\") */\n      tag_83\n      jumpi\n      mload(0x40)\n      0x08c379a000000000000000000000000000000000000000000000000000000000\n      dup2\n      mstore\n      0x04\n      add\n      tag_84\n      swap1\n      tag_85\n      jump\t// in\n    tag_84:\n      mload(0x40)\n      dup1\n      swap2\n      sub\n      swap1\n      revert\n    tag_83:\n        /* \"src/ZKFToken.sol\":634:658  _burn(owner, id, amount) */\n      tag_86\n        /* \"src/ZKFToken.sol\":640:645  owner */\n      dup4\n        /* \"src/ZKFToken.sol\":647:649  id */\n      dup4\n        /* \"src/ZKFToken.sol\":651:657  amount */\n      dup4\n        /* \"src/ZKFToken.sol\":634:639  _burn */\n      tag_87\n        /* \"src/ZKFToken.sol\":634:658  _burn(owner, id, amount) */\n      jump\t// in\n    tag_86:\n        /* \"src/ZKFToken.sol\":414:665  function burn(address owner, uint256 id, uint256 amount) public {... */\n      pop\n      pop\n      pop\n      jump\t// out\n        /* \"src/ERC6909.sol\":3067:3891  function transferFrom(... */\n    tag_59:\n        /* \"src/ERC6909.sol\":3205:3209  bool */\n      0x00\n        /* \"src/ERC6909.sol\":3235:3245  msg.sender */\n      caller\n        /* \"src/ERC6909.sol\":3225:3245  sender != msg.sender */\n      0xffffffffffffffffffffffffffffffffffffffff\n      and\n        /* \"src/ERC6909.sol\":3225:3231  sender */\n      dup6\n        /* \"src/ERC6909.sol\":3225:3245  sender != msg.sender */\n      0xffffffffffffffffffffffffffffffffffffffff\n      and\n      eq\n      iszero\n        /* \"src/ERC6909.sol\":3225:3280  sender != msg.sender && !isOperator[sender][msg.sender] */\n      dup1\n      iszero\n      tag_89\n      jumpi\n      pop\n        /* \"src/ERC6909.sol\":3250:3260  isOperator */\n      0x02\n        /* \"src/ERC6909.sol\":3250:3268  isOperator[sender] */\n      0x00\n        /* \"src/ERC6909.sol\":3261:3267  sender */\n      dup7\n        /* \"src/ERC6909.sol\":3250:3268  isOperator[sender] */\n      0xffffffffffffffffffffffffffffffffffffffff\n      and\n      0xffffffffffffffffffffffffffffffffffffffff\n      and\n      dup2\n      mstore\n      0x20\n      add\n      swap1\n      dup2\n      mstore\n      0x20\n      add\n      0x00\n      keccak256\n        /* \"src/ERC6909.sol\":3250:3280  isOperator[sender][msg.sender] */\n      0x00\n        /* \"src/ERC6909.sol\":3269:3279  msg.sender */\n      caller\n        /* \"src/ERC6909.sol\":3250:3280  isOperator[sender][msg.sender] */\n      0xffffffffffffffffffffffffffffffffffffffff\n      and\n      0xffffffffffffffffffffffffffffffffffffffff\n      and\n      dup2\n      mstore\n      0x20\n      add\n      swap1\n      dup2\n      mstore\n      0x20\n      add\n      0x00\n      keccak256\n      0x00\n      swap1\n      sload\n      swap1\n      0x0100\n      exp\n      swap1\n      div\n      0xff\n      and\n        /* \"src/ERC6909.sol\":3249:3280  !isOperator[sender][msg.sender] */\n      iszero\n        /* \"src/ERC6909.sol\":3225:3280  sender != msg.sender && !isOperator[sender][msg.sender] */\n    tag_89:\n        /* \"src/ERC6909.sol\":3221:3619  if (sender != msg.sender && !isOperator[sender][msg.sender]) {... */\n      iszero\n      tag_90\n      jumpi\n        /* \"src/ERC6909.sol\":3296:3319  uint256 senderAllowance */\n      0x00\n        /* \"src/ERC6909.sol\":3322:3331  allowance */\n      0x01\n        /* \"src/ERC6909.sol\":3322:3339  allowance[sender] */\n      0x00\n        /* \"src/ERC6909.sol\":3332:3338  sender */\n      dup8\n        /* \"src/ERC6909.sol\":3322:3339  allowance[sender] */\n      0xffffffffffffffffffffffffffffffffffffffff\n      and\n      0xffffffffffffffffffffffffffffffffffffffff\n      and\n      dup2\n      mstore\n      0x20\n      add\n      swap1\n      dup2\n      mstore\n      0x20\n      add\n      0x00\n      keccak256\n        /* \"src/ERC6909.sol\":3322:3351  allowance[sender][msg.sender] */\n      0x00\n        /* \"src/ERC6909.sol\":3340:3350  msg.sender */\n      caller\n        /* \"src/ERC6909.sol\":3322:3351  allowance[sender][msg.sender] */\n      0xffffffffffffffffffffffffffffffffffffffff\n      and\n      0xffffffffffffffffffffffffffffffffffffffff\n      and\n      dup2\n      mstore\n      0x20\n      add\n      swap1\n      dup2\n      mstore\n      0x20\n      add\n      0x00\n      keccak256\n        /* \"src/ERC6909.sol\":3322:3355  allowance[sender][msg.sender][id] */\n      0x00\n        /* \"src/ERC6909.sol\":3352:3354  id */\n      dup6\n        /* \"src/ERC6909.sol\":3322:3355  allowance[sender][msg.sender][id] */\n      dup2\n      mstore\n      0x20\n      add\n      swap1\n      dup2\n      mstore\n      0x20\n      add\n      0x00\n      keccak256\n      sload\n        /* \"src/ERC6909.sol\":3296:3355  uint256 senderAllowance = allowance[sender][msg.sender][id] */\n      swap1\n      pop\n        /* \"src/ERC6909.sol\":3391:3397  amount */\n      dup3\n        /* \"src/ERC6909.sol\":3373:3388  senderAllowance */\n      dup2\n        /* \"src/ERC6909.sol\":3373:3397  senderAllowance < amount */\n      lt\n        /* \"src/ERC6909.sol\":3369:3460  if (senderAllowance < amount)... */\n      iszero\n      tag_91\n      jumpi\n        /* \"src/ERC6909.sol\":3445:3455  msg.sender */\n      caller\n        /* \"src/ERC6909.sol\":3457:3459  id */\n      dup5\n        /* \"src/ERC6909.sol\":3422:3460  InsufficientPermission(msg.sender, id) */\n      mload(0x40)\n      0x731555bd00000000000000000000000000000000000000000000000000000000\n      dup2\n      mstore\n      0x04\n      add\n      tag_92\n      swap3\n      swap2\n      swap1\n      tag_66\n      jump\t// in\n    tag_92:\n      mload(0x40)\n      dup1\n      swap2\n      sub\n      swap1\n      revert\n        /* \"src/ERC6909.sol\":3369:3460  if (senderAllowance < amount)... */\n    tag_91:\n        /* \"src/ERC6909.sol\":3497:3514  type(uint256).max */\n      0xffffffffffffffffffffffffffffffffffffffffffffffffffffffffffffffff\n        /* \"src/ERC6909.sol\":3478:3493  senderAllowance */\n      dup2\n        /* \"src/ERC6909.sol\":3478:3514  senderAllowance != type(uint256).max */\n      eq\n        /* \"src/ERC6909.sol\":3474:3609  if (senderAllowance != type(uint256).max) {... */\n      tag_93\n      jumpi\n        /* \"src/ERC6909.sol\":3588:3594  amount */\n      dup3\n        /* \"src/ERC6909.sol\":3570:3585  senderAllowance */\n      dup2\n        /* \"src/ERC6909.sol\":3570:3594  senderAllowance - amount */\n      tag_94\n      swap2\n      swap1\n      tag_68\n      jump\t// in\n    tag_94:\n        /* \"src/ERC6909.sol\":3534:3543  allowance */\n      0x01\n        /* \"src/ERC6909.sol\":3534:3551  allowance[sender] */\n      0x00\n        /* \"src/ERC6909.sol\":3544:3550  sender */\n      dup9\n        /* \"src/ERC6909.sol\":3534:3551  allowance[sender] */\n      0xffffffffffffffffffffffffffffffffffffffff\n      and\n      0xffffffffffffffffffffffffffffffffffffffff\n      and\n      dup2\n      mstore\n      0x20\n      add\n      swap1\n      dup2\n      mstore\n      0x20\n      add\n      0x00\n      keccak256\n        /* \"src/ERC6909.sol\":3534:3563  allowance[sender][msg.sender] */\n      0x00\n        /* \"src/ERC6909.sol\":3552:3562  msg.sender */\n      caller\n        /* \"src/ERC6909.sol\":3534:3563  allowance[sender][msg.sender] */\n      0xffffffffffffffffffffffffffffffffffffffff\n      and\n      0xffffffffffffffffffffffffffffffffffffffff\n      and\n      dup2\n      mstore\n      0x20\n      add\n      swap1\n      dup2\n      mstore\n      0x20\n      add\n      0x00\n      keccak256\n        /* \"src/ERC6909.sol\":3534:3567  allowance[sender][msg.sender][id] */\n      0x00\n        /* \"src/ERC6909.sol\":3564:3566  id */\n      dup7\n        /* \"src/ERC6909.sol\":3534:3567  allowance[sender][msg.sender][id] */\n      dup2\n      mstore\n      0x20\n      add\n      swap1\n      dup2\n      mstore\n      0x20\n      add\n      0x00\n      keccak256\n        /* \"src/ERC6909.sol\":3534:3594  allowance[sender][msg.sender][id] = senderAllowance - amount */\n      dup2\n      swap1\n      sstore\n      pop\n        /* \"src/ERC6909.sol\":3474:3609  if (senderAllowance != type(uint256).max) {... */\n    tag_93:\n        /* \"src/ERC6909.sol\":3282:3619  {... */\n      pop\n        /* \"src/ERC6909.sol\":3221:3619  if (sender != msg.sender && !isOperator[sender][msg.sender]) {... */\n    tag_90:\n        /* \"src/ERC6909.sol\":3656:3662  amount */\n      dup2\n        /* \"src/ERC6909.sol\":3632:3641  balanceOf */\n      0x00\n        /* \"src/ERC6909.sol\":3632:3649  balanceOf[sender] */\n      dup1\n        /* \"src/ERC6909.sol\":3642:3648  sender */\n      dup8\n        /* \"src/ERC6909.sol\":3632:3649  balanceOf[sender] */\n      0xffffffffffffffffffffffffffffffffffffffff\n      and\n      0xffffffffffffffffffffffffffffffffffffffff\n      and\n      dup2\n      mstore\n      0x20\n      add\n      swap1\n      dup2\n      mstore\n      0x20\n      add\n      0x00\n      keccak256\n        /* \"src/ERC6909.sol\":3632:3653  balanceOf[sender][id] */\n      0x00\n        /* \"src/ERC6909.sol\":3650:3652  id */\n      dup6\n        /* \"src/ERC6909.sol\":3632:3653  balanceOf[sender][id] */\n      dup2\n      mstore\n      0x20\n      add\n      swap1\n      dup2\n      mstore\n      0x20\n      add\n      0x00\n      keccak256\n      sload\n        /* \"src/ERC6909.sol\":3632:3662  balanceOf[sender][id] < amount */\n      lt\n        /* \"src/ERC6909.sol\":3628:3714  if (balanceOf[sender][id] < amount)... */\n      iszero\n      tag_95\n      jumpi\n        /* \"src/ERC6909.sol\":3703:3709  sender */\n      dup5\n        /* \"src/ERC6909.sol\":3711:3713  id */\n      dup4\n        /* \"src/ERC6909.sol\":3683:3714  InsufficientBalance(sender, id) */\n      mload(0x40)\n      0xf6deaa0400000000000000000000000000000000000000000000000000000000\n      dup2\n      mstore\n      0x04\n      add\n      tag_96\n      swap3\n      swap2\n      swap1\n      tag_66\n      jump\t// in\n    tag_96:\n      mload(0x40)\n      dup1\n      swap2\n      sub\n      swap1\n      revert\n        /* \"src/ERC6909.sol\":3628:3714  if (balanceOf[sender][id] < amount)... */\n    tag_95:\n        /* \"src/ERC6909.sol\":3749:3755  amount */\n      dup2\n        /* \"src/ERC6909.sol\":3724:3733  balanceOf */\n      0x00\n        /* \"src/ERC6909.sol\":3724:3741  balanceOf[sender] */\n      dup1\n        /* \"src/ERC6909.sol\":3734:3740  sender */\n      dup8\n        /* \"src/ERC6909.sol\":3724:3741  balanceOf[sender] */\n      0xffffffffffffffffffffffffffffffffffffffff\n      and\n      0xffffffffffffffffffffffffffffffffffffffff\n      and\n      dup2\n      mstore\n      0x20\n      add\n      swap1\n      dup2\n      mstore\n      0x20\n      add\n      0x00\n      keccak256\n        /* \"src/ERC6909.sol\":3724:3745  balanceOf[sender][id] */\n      0x00\n        /* \"src/ERC6909.sol\":3742:3744  id */\n      dup6\n        /* \"src/ERC6909.sol\":3724:3745  balanceOf[sender][id] */\n      dup2\n      mstore\n      0x20\n      add\n      swap1\n      dup2\n      mstore\n      0x20\n      add\n      0x00\n      keccak256\n      0x00\n        /* \"src/ERC6909.sol\":3724:3755  balanceOf[sender][id] -= amount */\n      dup3\n      dup3\n      sload\n      tag_97\n      swap2\n      swap1\n      tag_68\n      jump\t// in\n    tag_97:\n      swap3\n      pop\n      pop\n      dup2\n      swap1\n      sstore\n      pop\n        /* \"src/ERC6909.sol\":3792:3798  amount */\n      dup2\n        /* \"src/ERC6909.sol\":3765:3774  balanceOf */\n      0x00\n        /* \"src/ERC6909.sol\":3765:3784  balanceOf[receiver] */\n      dup1\n        /* \"src/ERC6909.sol\":3775:3783  receiver */\n      dup7\n        /* \"src/ERC6909.sol\":3765:3784  balanceOf[receiver] */\n      0xffffffffffffffffffffffffffffffffffffffff\n      and\n      0xffffffffffffffffffffffffffffffffffffffff\n      and\n      dup2\n      mstore\n      0x20\n      add\n      swap1\n      dup2\n      mstore\n      0x20\n      add\n      0x00\n      keccak256\n        /* \"src/ERC6909.sol\":3765:3788  balanceOf[receiver][id] */\n      0x00\n        /* \"src/ERC6909.sol\":3785:3787  id */\n      dup6\n        /* \"src/ERC6909.sol\":3765:3788  balanceOf[receiver][id] */\n      dup2\n      mstore\n      0x20\n      add\n      swap1\n      dup2\n      mstore\n      0x20\n      add\n      0x00\n      keccak256\n      0x00\n        /* \"src/ERC6909.sol\":3765:3798  balanceOf[receiver][id] += amount */\n      dup3\n      dup3\n      sload\n      tag_98\n      swap2\n      swap1\n      tag_70\n      jump\t// in\n    tag_98:\n      swap3\n      pop\n      pop\n      dup2\n      swap1\n      sstore\n      pop\n        /* \"src/ERC6909.sol\":3852:3854  id */\n      dup3\n        /* \"src/ERC6909.sol\":3842:3850  receiver */\n      dup5\n        /* \"src/ERC6909.sol\":3813:3863  Transfer(msg.sender, sender, receiver, id, amount) */\n      0xffffffffffffffffffffffffffffffffffffffff\n      and\n        /* \"src/ERC6909.sol\":3834:3840  sender */\n      dup7\n        /* \"src/ERC6909.sol\":3813:3863  Transfer(msg.sender, sender, receiver, id, amount) */\n      0xffffffffffffffffffffffffffffffffffffffff\n      and\n      0x1b3d7edb2e9c0b0e7c525b20aaaef0f5940d2ed71663c7d39266ecafac728859\n        /* \"src/ERC6909.sol\":3822:3832  msg.sender */\n      caller\n        /* \"src/ERC6909.sol\":3856:3862  amount */\n      dup7\n        /* \"src/ERC6909.sol\":3813:3863  Transfer(msg.sender, sender, receiver, id, amount) */\n      mload(0x40)\n      tag_99\n      swap3\n      swap2\n      swap1\n      tag_66\n      jump\t// in\n    tag_99:\n      mload(0x40)\n      dup1\n      swap2\n      sub\n      swap1\n      log4\n        /* \"src/ERC6909.sol\":3880:3884  true */\n      0x01\n        /* \"src/ERC6909.sol\":3873:3884  return true */\n      swap1\n      pop\n        /* \"src/ERC6909.sol\":3067:3891  function transferFrom(... */\n      swap5\n      swap4\n      pop\n      pop\n      pop\n      pop\n      jump\t// out\n        /* \"src/ERC6909.sol\":5131:5401  function _mint(address receiver, uint256 id, uint256 amount) internal {... */\n    tag_77:\n        /* \"src/ERC6909.sol\":5319:5325  amount */\n      dup1\n        /* \"src/ERC6909.sol\":5292:5301  balanceOf */\n      0x00\n        /* \"src/ERC6909.sol\":5292:5311  balanceOf[receiver] */\n      dup1\n        /* \"src/ERC6909.sol\":5302:5310  receiver */\n      dup6\n        /* \"src/ERC6909.sol\":5292:5311  balanceOf[receiver] */\n      0xffffffffffffffffffffffffffffffffffffffff\n      and\n      0xffffffffffffffffffffffffffffffffffffffff\n      and\n      dup2\n      mstore\n      0x20\n      add\n      swap1\n      dup2\n      mstore\n      0x20\n      add\n      0x00\n      keccak256\n        /* \"src/ERC6909.sol\":5292:5315  balanceOf[receiver][id] */\n      0x00\n        /* \"src/ERC6909.sol\":5312:5314  id */\n      dup5\n        /* \"src/ERC6909.sol\":5292:5315  balanceOf[receiver][id] */\n      dup2\n      mstore\n      0x20\n      add\n      swap1\n      dup2\n      mstore\n      0x20\n      add\n      0x00\n      keccak256\n      0x00\n        /* \"src/ERC6909.sol\":5292:5325  balanceOf[receiver][id] += amount */\n      dup3\n      dup3\n      sload\n      tag_101\n      swap2\n      swap1\n      tag_70\n      jump\t// in\n    tag_101:\n      swap3\n      pop\n      pop\n      dup2\n      swap1\n      sstore\n      pop\n        /* \"src/ERC6909.sol\":5383:5385  id */\n      dup2\n        /* \"src/ERC6909.sol\":5373:5381  receiver */\n      dup4\n        /* \"src/ERC6909.sol\":5340:5394  Transfer(msg.sender, address(0), receiver, id, amount) */\n      0xffffffffffffffffffffffffffffffffffffffff\n      and\n        /* \"src/ERC6909.sol\":5369:5370  0 */\n      0x00\n        /* \"src/ERC6909.sol\":5340:5394  Transfer(msg.sender, address(0), receiver, id, amount) */\n      0xffffffffffffffffffffffffffffffffffffffff\n      and\n      0x1b3d7edb2e9c0b0e7c525b20aaaef0f5940d2ed71663c7d39266ecafac728859\n        /* \"src/ERC6909.sol\":5349:5359  msg.sender */\n      caller\n        /* \"src/ERC6909.sol\":5387:5393  amount */\n      dup6\n        /* \"src/ERC6909.sol\":5340:5394  Transfer(msg.sender, address(0), receiver, id, amount) */\n      mload(0x40)\n      tag_102\n      swap3\n      swap2\n      swap1\n      tag_66\n      jump\t// in\n    tag_102:\n      mload(0x40)\n      dup1\n      swap2\n      sub\n      swap1\n      log4\n        /* \"src/ERC6909.sol\":5131:5401  function _mint(address receiver, uint256 id, uint256 amount) internal {... */\n      pop\n      pop\n      pop\n      jump\t// out\n        /* \"src/ERC6909.sol\":5407:5671  function _burn(address sender, uint256 id, uint256 amount) internal {... */\n    tag_87:\n        /* \"src/ERC6909.sol\":5591:5597  amount */\n      dup1\n        /* \"src/ERC6909.sol\":5566:5575  balanceOf */\n      0x00\n        /* \"src/ERC6909.sol\":5566:5583  balanceOf[sender] */\n      dup1\n        /* \"src/ERC6909.sol\":5576:5582  sender */\n      dup6\n        /* \"src/ERC6909.sol\":5566:5583  balanceOf[sender] */\n      0xffffffffffffffffffffffffffffffffffffffff\n      and\n      0xffffffffffffffffffffffffffffffffffffffff\n      and\n      dup2\n      mstore\n      0x20\n      add\n      swap1\n      dup2\n      mstore\n      0x20\n      add\n      0x00\n      keccak256\n        /* \"src/ERC6909.sol\":5566:5587  balanceOf[sender][id] */\n      0x00\n        /* \"src/ERC6909.sol\":5584:5586  id */\n      dup5\n        /* \"src/ERC6909.sol\":5566:5587  balanceOf[sender][id] */\n      dup2\n      mstore\n      0x20\n      add\n      swap1\n      dup2\n      mstore\n      0x20\n      add\n      0x00\n      keccak256\n      0x00\n        /* \"src/ERC6909.sol\":5566:5597  balanceOf[sender][id] -= amount */\n      dup3\n      dup3\n      sload\n      tag_104\n      swap2\n      swap1\n      tag_68\n      jump\t// in\n    tag_104:\n      swap3\n      pop\n      pop\n      dup2\n      swap1\n      sstore\n      pop\n        /* \"src/ERC6909.sol\":5653:5655  id */\n      dup2\n        /* \"src/ERC6909.sol\":5649:5650  0 */\n      0x00\n        /* \"src/ERC6909.sol\":5612:5664  Transfer(msg.sender, sender, address(0), id, amount) */\n      0xffffffffffffffffffffffffffffffffffffffff\n      and\n        /* \"src/ERC6909.sol\":5633:5639  sender */\n      dup5\n        /* \"src/ERC6909.sol\":5612:5664  Transfer(msg.sender, sender, address(0), id, amount) */\n      0xffffffffffffffffffffffffffffffffffffffff\n      and\n      0x1b3d7edb2e9c0b0e7c525b20aaaef0f5940d2ed71663c7d39266ecafac728859\n        /* \"src/ERC6909.sol\":5621:5631  msg.sender */\n      caller\n        /* \"src/ERC6909.sol\":5657:5663  amount */\n      dup6\n        /* \"src/ERC6909.sol\":5612:5664  Transfer(msg.sender, sender, address(0), id, amount) */\n      mload(0x40)\n      tag_105\n      swap3\n      swap2\n      swap1\n      tag_66\n      jump\t// in\n    tag_105:\n      mload(0x40)\n      dup1\n      swap2\n      sub\n      swap1\n      log4\n        /* \"src/ERC6909.sol\":5407:5671  function _burn(address sender, uint256 id, uint256 amount) internal {... */\n      pop\n      pop\n      pop\n      jump\t// out\n        /* \"#utility.yul\":88:205   */\n    tag_107:\n        /* \"#utility.yul\":197:198   */\n      0x00\n        /* \"#utility.yul\":194:195   */\n      dup1\n        /* \"#utility.yul\":187:199   */\n      revert\n        /* \"#utility.yul\":334:460   */\n    tag_109:\n        /* \"#utility.yul\":371:378   */\n      0x00\n        /* \"#utility.yul\":411:453   */\n      0xffffffffffffffffffffffffffffffffffffffff\n        /* \"#utility.yul\":404:409   */\n      dup3\n        /* \"#utility.yul\":400:454   */\n      and\n        /* \"#utility.yul\":389:454   */\n      swap1\n      pop\n        /* \"#utility.yul\":334:460   */\n      swap2\n      swap1\n      pop\n      jump\t// out\n        /* \"#utility.yul\":466:562   */\n    tag_110:\n        /* \"#utility.yul\":503:510   */\n      0x00\n        /* \"#utility.yul\":532:556   */\n      tag_137\n        /* \"#utility.yul\":550:555   */\n      dup3\n        /* \"#utility.yul\":532:556   */\n      tag_109\n      jump\t// in\n    tag_137:\n        /* \"#utility.yul\":521:556   */\n      swap1\n      pop\n        /* \"#utility.yul\":466:562   */\n      swap2\n      swap1\n      pop\n      jump\t// out\n        /* \"#utility.yul\":568:690   */\n    tag_111:\n        /* \"#utility.yul\":641:665   */\n      tag_139\n        /* \"#utility.yul\":659:664   */\n      dup2\n        /* \"#utility.yul\":641:665   */\n      tag_110\n      jump\t// in\n    tag_139:\n        /* \"#utility.yul\":634:639   */\n      dup2\n        /* \"#utility.yul\":631:666   */\n      eq\n        /* \"#utility.yul\":621:684   */\n      tag_140\n      jumpi\n        /* \"#utility.yul\":680:681   */\n      0x00\n        /* \"#utility.yul\":677:678   */\n      dup1\n        /* \"#utility.yul\":670:682   */\n      revert\n        /* \"#utility.yul\":621:684   */\n    tag_140:\n        /* \"#utility.yul\":568:690   */\n      pop\n      jump\t// out\n        /* \"#utility.yul\":696:835   */\n    tag_112:\n        /* \"#utility.yul\":742:747   */\n      0x00\n        /* \"#utility.yul\":780:786   */\n      dup2\n        /* \"#utility.yul\":767:787   */\n      calldataload\n        /* \"#utility.yul\":758:787   */\n      swap1\n      pop\n        /* \"#utility.yul\":796:829   */\n      tag_142\n        /* \"#utility.yul\":823:828   */\n      dup2\n        /* \"#utility.yul\":796:829   */\n      tag_111\n      jump\t// in\n    tag_142:\n        /* \"#utility.yul\":696:835   */\n      swap3\n      swap2\n      pop\n      pop\n      jump\t// out\n        /* \"#utility.yul\":841:918   */\n    tag_113:\n        /* \"#utility.yul\":878:885   */\n      0x00\n        /* \"#utility.yul\":907:912   */\n      dup2\n        /* \"#utility.yul\":896:912   */\n      swap1\n      pop\n        /* \"#utility.yul\":841:918   */\n      swap2\n      swap1\n      pop\n      jump\t// out\n        /* \"#utility.yul\":924:1046   */\n    tag_114:\n        /* \"#utility.yul\":997:1021   */\n      tag_145\n        /* \"#utility.yul\":1015:1020   */\n      dup2\n        /* \"#utility.yul\":997:1021   */\n      tag_113\n      jump\t// in\n    tag_145:\n        /* \"#utility.yul\":990:995   */\n      dup2\n        /* \"#utility.yul\":987:1022   */\n      eq\n        /* \"#utility.yul\":977:1040   */\n      tag_146\n      jumpi\n        /* \"#utility.yul\":1036:1037   */\n      0x00\n        /* \"#utility.yul\":1033:1034   */\n      dup1\n        /* \"#utility.yul\":1026:1038   */\n      revert\n        /* \"#utility.yul\":977:1040   */\n    tag_146:\n        /* \"#utility.yul\":924:1046   */\n      pop\n      jump\t// out\n        /* \"#utility.yul\":1052:1191   */\n    tag_115:\n        /* \"#utility.yul\":1098:1103   */\n      0x00\n        /* \"#utility.yul\":1136:1142   */\n      dup2\n        /* \"#utility.yul\":1123:1143   */\n      calldataload\n        /* \"#utility.yul\":1114:1143   */\n      swap1\n      pop\n        /* \"#utility.yul\":1152:1185   */\n      tag_148\n        /* \"#utility.yul\":1179:1184   */\n      dup2\n        /* \"#utility.yul\":1152:1185   */\n      tag_114\n      jump\t// in\n    tag_148:\n        /* \"#utility.yul\":1052:1191   */\n      swap3\n      swap2\n      pop\n      pop\n      jump\t// out\n        /* \"#utility.yul\":1197:1671   */\n    tag_16:\n        /* \"#utility.yul\":1265:1271   */\n      0x00\n        /* \"#utility.yul\":1273:1279   */\n      dup1\n        /* \"#utility.yul\":1322:1324   */\n      0x40\n        /* \"#utility.yul\":1310:1319   */\n      dup4\n        /* \"#utility.yul\":1301:1308   */\n      dup6\n        /* \"#utility.yul\":1297:1320   */\n      sub\n        /* \"#utility.yul\":1293:1325   */\n      slt\n        /* \"#utility.yul\":1290:1409   */\n      iszero\n      tag_150\n      jumpi\n        /* \"#utility.yul\":1328:1407   */\n      tag_151\n      tag_107\n      jump\t// in\n    tag_151:\n        /* \"#utility.yul\":1290:1409   */\n    tag_150:\n        /* \"#utility.yul\":1448:1449   */\n      0x00\n        /* \"#utility.yul\":1473:1526   */\n      tag_152\n        /* \"#utility.yul\":1518:1525   */\n      dup6\n        /* \"#utility.yul\":1509:1515   */\n      dup3\n        /* \"#utility.yul\":1498:1507   */\n      dup7\n        /* \"#utility.yul\":1494:1516   */\n      add\n        /* \"#utility.yul\":1473:1526   */\n      tag_112\n      jump\t// in\n    tag_152:\n        /* \"#utility.yul\":1463:1526   */\n      swap3\n      pop\n        /* \"#utility.yul\":1419:1536   */\n      pop\n        /* \"#utility.yul\":1575:1577   */\n      0x20\n        /* \"#utility.yul\":1601:1654   */\n      tag_153\n        /* \"#utility.yul\":1646:1653   */\n      dup6\n        /* \"#utility.yul\":1637:1643   */\n      dup3\n        /* \"#utility.yul\":1626:1635   */\n      dup7\n        /* \"#utility.yul\":1622:1644   */\n      add\n        /* \"#utility.yul\":1601:1654   */\n      tag_115\n      jump\t// in\n    tag_153:\n        /* \"#utility.yul\":1591:1654   */\n      swap2\n      pop\n        /* \"#utility.yul\":1546:1664   */\n      pop\n        /* \"#utility.yul\":1197:1671   */\n      swap3\n      pop\n      swap3\n      swap1\n      pop\n      jump\t// out\n        /* \"#utility.yul\":1677:1795   */\n    tag_116:\n        /* \"#utility.yul\":1764:1788   */\n      tag_155\n        /* \"#utility.yul\":1782:1787   */\n      dup2\n        /* \"#utility.yul\":1764:1788   */\n      tag_113\n      jump\t// in\n    tag_155:\n        /* \"#utility.yul\":1759:1762   */\n      dup3\n        /* \"#utility.yul\":1752:1789   */\n      mstore\n        /* \"#utility.yul\":1677:1795   */\n      pop\n      pop\n      jump\t// out\n        /* \"#utility.yul\":1801:2023   */\n    tag_19:\n        /* \"#utility.yul\":1894:1898   */\n      0x00\n        /* \"#utility.yul\":1932:1934   */\n      0x20\n        /* \"#utility.yul\":1921:1930   */\n      dup3\n        /* \"#utility.yul\":1917:1935   */\n      add\n        /* \"#utility.yul\":1909:1935   */\n      swap1\n      pop\n        /* \"#utility.yul\":1945:2016   */\n      tag_157\n        /* \"#utility.yul\":2013:2014   */\n      0x00\n        /* \"#utility.yul\":2002:2011   */\n      dup4\n        /* \"#utility.yul\":1998:2015   */\n      add\n        /* \"#utility.yul\":1989:1995   */\n      dup5\n        /* \"#utility.yul\":1945:2016   */\n      tag_116\n      jump\t// in\n    tag_157:\n        /* \"#utility.yul\":1801:2023   */\n      swap3\n      swap2\n      pop\n      pop\n      jump\t// out\n        /* \"#utility.yul\":2029:2178   */\n    tag_117:\n        /* \"#utility.yul\":2065:2072   */\n      0x00\n        /* \"#utility.yul\":2105:2171   */\n      0xffffffff00000000000000000000000000000000000000000000000000000000\n        /* \"#utility.yul\":2098:2103   */\n      dup3\n        /* \"#utility.yul\":2094:2172   */\n      and\n        /* \"#utility.yul\":2083:2172   */\n      swap1\n      pop\n        /* \"#utility.yul\":2029:2178   */\n      swap2\n      swap1\n      pop\n      jump\t// out\n        /* \"#utility.yul\":2184:2304   */\n    tag_118:\n        /* \"#utility.yul\":2256:2279   */\n      tag_160\n        /* \"#utility.yul\":2273:2278   */\n      dup2\n        /* \"#utility.yul\":2256:2279   */\n      tag_117\n      jump\t// in\n    tag_160:\n        /* \"#utility.yul\":2249:2254   */\n      dup2\n        /* \"#utility.yul\":2246:2280   */\n      eq\n        /* \"#utility.yul\":2236:2298   */\n      tag_161\n      jumpi\n        /* \"#utility.yul\":2294:2295   */\n      0x00\n        /* \"#utility.yul\":2291:2292   */\n      dup1\n        /* \"#utility.yul\":2284:2296   */\n      revert\n        /* \"#utility.yul\":2236:2298   */\n    tag_161:\n        /* \"#utility.yul\":2184:2304   */\n      pop\n      jump\t// out\n        /* \"#utility.yul\":2310:2447   */\n    tag_119:\n        /* \"#utility.yul\":2355:2360   */\n      0x00\n        /* \"#utility.yul\":2393:2399   */\n      dup2\n        /* \"#utility.yul\":2380:2400   */\n      calldataload\n        /* \"#utility.yul\":2371:2400   */\n      swap1\n      pop\n        /* \"#utility.yul\":2409:2441   */\n      tag_163\n        /* \"#utility.yul\":2435:2440   */\n      dup2\n        /* \"#utility.yul\":2409:2441   */\n      tag_118\n      jump\t// in\n    tag_163:\n        /* \"#utility.yul\":2310:2447   */\n      swap3\n      swap2\n      pop\n      pop\n      jump\t// out\n        /* \"#utility.yul\":2453:2780   */\n    tag_22:\n        /* \"#utility.yul\":2511:2517   */\n      0x00\n        /* \"#utility.yul\":2560:2562   */\n      0x20\n        /* \"#utility.yul\":2548:2557   */\n      dup3\n        /* \"#utility.yul\":2539:2546   */\n      dup5\n        /* \"#utility.yul\":2535:2558   */\n      sub\n        /* \"#utility.yul\":2531:2563   */\n      slt\n        /* \"#utility.yul\":2528:2647   */\n      iszero\n      tag_165\n      jumpi\n        /* \"#utility.yul\":2566:2645   */\n      tag_166\n      tag_107\n      jump\t// in\n    tag_166:\n        /* \"#utility.yul\":2528:2647   */\n    tag_165:\n        /* \"#utility.yul\":2686:2687   */\n      0x00\n        /* \"#utility.yul\":2711:2763   */\n      tag_167\n        /* \"#utility.yul\":2755:2762   */\n      dup5\n        /* \"#utility.yul\":2746:2752   */\n      dup3\n        /* \"#utility.yul\":2735:2744   */\n      dup6\n        /* \"#utility.yul\":2731:2753   */\n      add\n        /* \"#utility.yul\":2711:2763   */\n      tag_119\n      jump\t// in\n    tag_167:\n        /* \"#utility.yul\":2701:2763   */\n      swap2\n      pop\n        /* \"#utility.yul\":2657:2773   */\n      pop\n        /* \"#utility.yul\":2453:2780   */\n      swap3\n      swap2\n      pop\n      pop\n      jump\t// out\n        /* \"#utility.yul\":2786:2876   */\n    tag_120:\n        /* \"#utility.yul\":2820:2827   */\n      0x00\n        /* \"#utility.yul\":2863:2868   */\n      dup2\n        /* \"#utility.yul\":2856:2869   */\n      iszero\n        /* \"#utility.yul\":2849:2870   */\n      iszero\n        /* \"#utility.yul\":2838:2870   */\n      swap1\n      pop\n        /* \"#utility.yul\":2786:2876   */\n      swap2\n      swap1\n      pop\n      jump\t// out\n        /* \"#utility.yul\":2882:2991   */\n    tag_121:\n        /* \"#utility.yul\":2963:2984   */\n      tag_170\n        /* \"#utility.yul\":2978:2983   */\n      dup2\n        /* \"#utility.yul\":2963:2984   */\n      tag_120\n      jump\t// in\n    tag_170:\n        /* \"#utility.yul\":2958:2961   */\n      dup3\n        /* \"#utility.yul\":2951:2985   */\n      mstore\n        /* \"#utility.yul\":2882:2991   */\n      pop\n      pop\n      jump\t// out\n        /* \"#utility.yul\":2997:3207   */\n    tag_25:\n        /* \"#utility.yul\":3084:3088   */\n      0x00\n        /* \"#utility.yul\":3122:3124   */\n      0x20\n        /* \"#utility.yul\":3111:3120   */\n      dup3\n        /* \"#utility.yul\":3107:3125   */\n      add\n        /* \"#utility.yul\":3099:3125   */\n      swap1\n      pop\n        /* \"#utility.yul\":3135:3200   */\n      tag_172\n        /* \"#utility.yul\":3197:3198   */\n      0x00\n        /* \"#utility.yul\":3186:3195   */\n      dup4\n        /* \"#utility.yul\":3182:3199   */\n      add\n        /* \"#utility.yul\":3173:3179   */\n      dup5\n        /* \"#utility.yul\":3135:3200   */\n      tag_121\n      jump\t// in\n    tag_172:\n        /* \"#utility.yul\":2997:3207   */\n      swap3\n      swap2\n      pop\n      pop\n      jump\t// out\n        /* \"#utility.yul\":3213:3832   */\n    tag_28:\n        /* \"#utility.yul\":3290:3296   */\n      0x00\n        /* \"#utility.yul\":3298:3304   */\n      dup1\n        /* \"#utility.yul\":3306:3312   */\n      0x00\n        /* \"#utility.yul\":3355:3357   */\n      0x60\n        /* \"#utility.yul\":3343:3352   */\n      dup5\n        /* \"#utility.yul\":3334:3341   */\n      dup7\n        /* \"#utility.yul\":3330:3353   */\n      sub\n        /* \"#utility.yul\":3326:3358   */\n      slt\n        /* \"#utility.yul\":3323:3442   */\n      iszero\n      tag_174\n      jumpi\n        /* \"#utility.yul\":3361:3440   */\n      tag_175\n      tag_107\n      jump\t// in\n    tag_175:\n        /* \"#utility.yul\":3323:3442   */\n    tag_174:\n        /* \"#utility.yul\":3481:3482   */\n      0x00\n        /* \"#utility.yul\":3506:3559   */\n      tag_176\n        /* \"#utility.yul\":3551:3558   */\n      dup7\n        /* \"#utility.yul\":3542:3548   */\n      dup3\n        /* \"#utility.yul\":3531:3540   */\n      dup8\n        /* \"#utility.yul\":3527:3549   */\n      add\n        /* \"#utility.yul\":3506:3559   */\n      tag_112\n      jump\t// in\n    tag_176:\n        /* \"#utility.yul\":3496:3559   */\n      swap4\n      pop\n        /* \"#utility.yul\":3452:3569   */\n      pop\n        /* \"#utility.yul\":3608:3610   */\n      0x20\n        /* \"#utility.yul\":3634:3687   */\n      tag_177\n        /* \"#utility.yul\":3679:3686   */\n      dup7\n        /* \"#utility.yul\":3670:3676   */\n      dup3\n        /* \"#utility.yul\":3659:3668   */\n      dup8\n        /* \"#utility.yul\":3655:3677   */\n      add\n        /* \"#utility.yul\":3634:3687   */\n      tag_115\n      jump\t// in\n    tag_177:\n        /* \"#utility.yul\":3624:3687   */\n      swap3\n      pop\n        /* \"#utility.yul\":3579:3697   */\n      pop\n        /* \"#utility.yul\":3736:3738   */\n      0x40\n        /* \"#utility.yul\":3762:3815   */\n      tag_178\n        /* \"#utility.yul\":3807:3814   */\n      dup7\n        /* \"#utility.yul\":3798:3804   */\n      dup3\n        /* \"#utility.yul\":3787:3796   */\n      dup8\n        /* \"#utility.yul\":3783:3805   */\n      add\n        /* \"#utility.yul\":3762:3815   */\n      tag_115\n      jump\t// in\n    tag_178:\n        /* \"#utility.yul\":3752:3815   */\n      swap2\n      pop\n        /* \"#utility.yul\":3707:3825   */\n      pop\n        /* \"#utility.yul\":3213:3832   */\n      swap3\n      pop\n      swap3\n      pop\n      swap3\n      jump\t// out\n        /* \"#utility.yul\":3838:3954   */\n    tag_122:\n        /* \"#utility.yul\":3908:3929   */\n      tag_180\n        /* \"#utility.yul\":3923:3928   */\n      dup2\n        /* \"#utility.yul\":3908:3929   */\n      tag_120\n      jump\t// in\n    tag_180:\n        /* \"#utility.yul\":3901:3906   */\n      dup2\n        /* \"#utility.yul\":3898:3930   */\n      eq\n        /* \"#utility.yul\":3888:3948   */\n      tag_181\n      jumpi\n        /* \"#utility.yul\":3944:3945   */\n      0x00\n        /* \"#utility.yul\":3941:3942   */\n      dup1\n        /* \"#utility.yul\":3934:3946   */\n      revert\n        /* \"#utility.yul\":3888:3948   */\n    tag_181:\n        /* \"#utility.yul\":3838:3954   */\n      pop\n      jump\t// out\n        /* \"#utility.yul\":3960:4093   */\n    tag_123:\n        /* \"#utility.yul\":4003:4008   */\n      0x00\n        /* \"#utility.yul\":4041:4047   */\n      dup2\n        /* \"#utility.yul\":4028:4048   */\n      calldataload\n        /* \"#utility.yul\":4019:4048   */\n      swap1\n      pop\n        /* \"#utility.yul\":4057:4087   */\n      tag_183\n        /* \"#utility.yul\":4081:4086   */\n      dup2\n        /* \"#utility.yul\":4057:4087   */\n      tag_122\n      jump\t// in\n    tag_183:\n        /* \"#utility.yul\":3960:4093   */\n      swap3\n      swap2\n      pop\n      pop\n      jump\t// out\n        /* \"#utility.yul\":4099:4567   */\n    tag_40:\n        /* \"#utility.yul\":4164:4170   */\n      0x00\n        /* \"#utility.yul\":4172:4178   */\n      dup1\n        /* \"#utility.yul\":4221:4223   */\n      0x40\n        /* \"#utility.yul\":4209:4218   */\n      dup4\n        /* \"#utility.yul\":4200:4207   */\n      dup6\n        /* \"#utility.yul\":4196:4219   */\n      sub\n        /* \"#utility.yul\":4192:4224   */\n      slt\n        /* \"#utility.yul\":4189:4308   */\n      iszero\n      tag_185\n      jumpi\n        /* \"#utility.yul\":4227:4306   */\n      tag_186\n      tag_107\n      jump\t// in\n    tag_186:\n        /* \"#utility.yul\":4189:4308   */\n    tag_185:\n        /* \"#utility.yul\":4347:4348   */\n      0x00\n        /* \"#utility.yul\":4372:4425   */\n      tag_187\n        /* \"#utility.yul\":4417:4424   */\n      dup6\n        /* \"#utility.yul\":4408:4414   */\n      dup3\n        /* \"#utility.yul\":4397:4406   */\n      dup7\n        /* \"#utility.yul\":4393:4415   */\n      add\n        /* \"#utility.yul\":4372:4425   */\n      tag_112\n      jump\t// in\n    tag_187:\n        /* \"#utility.yul\":4362:4425   */\n      swap3\n      pop\n        /* \"#utility.yul\":4318:4435   */\n      pop\n        /* \"#utility.yul\":4474:4476   */\n      0x20\n        /* \"#utility.yul\":4500:4550   */\n      tag_188\n        /* \"#utility.yul\":4542:4549   */\n      dup6\n        /* \"#utility.yul\":4533:4539   */\n      dup3\n        /* \"#utility.yul\":4522:4531   */\n      dup7\n        /* \"#utility.yul\":4518:4540   */\n      add\n        /* \"#utility.yul\":4500:4550   */\n      tag_123\n      jump\t// in\n    tag_188:\n        /* \"#utility.yul\":4490:4550   */\n      swap2\n      pop\n        /* \"#utility.yul\":4445:4560   */\n      pop\n        /* \"#utility.yul\":4099:4567   */\n      swap3\n      pop\n      swap3\n      swap1\n      pop\n      jump\t// out\n        /* \"#utility.yul\":4573:5192   */\n    tag_45:\n        /* \"#utility.yul\":4650:4656   */\n      0x00\n        /* \"#utility.yul\":4658:4664   */\n      dup1\n        /* \"#utility.yul\":4666:4672   */\n      0x00\n        /* \"#utility.yul\":4715:4717   */\n      0x60\n        /* \"#utility.yul\":4703:4712   */\n      dup5\n        /* \"#utility.yul\":4694:4701   */\n      dup7\n        /* \"#utility.yul\":4690:4713   */\n      sub\n        /* \"#utility.yul\":4686:4718   */\n      slt\n        /* \"#utility.yul\":4683:4802   */\n      iszero\n      tag_190\n      jumpi\n        /* \"#utility.yul\":4721:4800   */\n      tag_191\n      tag_107\n      jump\t// in\n    tag_191:\n        /* \"#utility.yul\":4683:4802   */\n    tag_190:\n        /* \"#utility.yul\":4841:4842   */\n      0x00\n        /* \"#utility.yul\":4866:4919   */\n      tag_192\n        /* \"#utility.yul\":4911:4918   */\n      dup7\n        /* \"#utility.yul\":4902:4908   */\n      dup3\n        /* \"#utility.yul\":4891:4900   */\n      dup8\n        /* \"#utility.yul\":4887:4909   */\n      add\n        /* \"#utility.yul\":4866:4919   */\n      tag_112\n      jump\t// in\n    tag_192:\n        /* \"#utility.yul\":4856:4919   */\n      swap4\n      pop\n        /* \"#utility.yul\":4812:4929   */\n      pop\n        /* \"#utility.yul\":4968:4970   */\n      0x20\n        /* \"#utility.yul\":4994:5047   */\n      tag_193\n        /* \"#utility.yul\":5039:5046   */\n      dup7\n        /* \"#utility.yul\":5030:5036   */\n      dup3\n        /* \"#utility.yul\":5019:5028   */\n      dup8\n        /* \"#utility.yul\":5015:5037   */\n      add\n        /* \"#utility.yul\":4994:5047   */\n      tag_112\n      jump\t// in\n    tag_193:\n        /* \"#utility.yul\":4984:5047   */\n      swap3\n      pop\n        /* \"#utility.yul\":4939:5057   */\n      pop\n        /* \"#utility.yul\":5096:5098   */\n      0x40\n        /* \"#utility.yul\":5122:5175   */\n      tag_194\n        /* \"#utility.yul\":5167:5174   */\n      dup7\n        /* \"#utility.yul\":5158:5164   */\n      dup3\n        /* \"#utility.yul\":5147:5156   */\n      dup8\n        /* \"#utility.yul\":5143:5165   */\n      add\n        /* \"#utility.yul\":5122:5175   */\n      tag_115\n      jump\t// in\n    tag_194:\n        /* \"#utility.yul\":5112:5175   */\n      swap2\n      pop\n        /* \"#utility.yul\":5067:5185   */\n      pop\n        /* \"#utility.yul\":4573:5192   */\n      swap3\n      pop\n      swap3\n      pop\n      swap3\n      jump\t// out\n        /* \"#utility.yul\":5198:5672   */\n    tag_50:\n        /* \"#utility.yul\":5266:5272   */\n      0x00\n        /* \"#utility.yul\":5274:5280   */\n      dup1\n        /* \"#utility.yul\":5323:5325   */\n      0x40\n        /* \"#utility.yul\":5311:5320   */\n      dup4\n        /* \"#utility.yul\":5302:5309   */\n      dup6\n        /* \"#utility.yul\":5298:5321   */\n      sub\n        /* \"#utility.yul\":5294:5326   */\n      slt\n        /* \"#utility.yul\":5291:5410   */\n      iszero\n      tag_196\n      jumpi\n        /* \"#utility.yul\":5329:5408   */\n      tag_197\n      tag_107\n      jump\t// in\n    tag_197:\n        /* \"#utility.yul\":5291:5410   */\n    tag_196:\n        /* \"#utility.yul\":5449:5450   */\n      0x00\n        /* \"#utility.yul\":5474:5527   */\n      tag_198\n        /* \"#utility.yul\":5519:5526   */\n      dup6\n        /* \"#utility.yul\":5510:5516   */\n      dup3\n        /* \"#utility.yul\":5499:5508   */\n      dup7\n        /* \"#utility.yul\":5495:5517   */\n      add\n        /* \"#utility.yul\":5474:5527   */\n      tag_112\n      jump\t// in\n    tag_198:\n        /* \"#utility.yul\":5464:5527   */\n      swap3\n      pop\n        /* \"#utility.yul\":5420:5537   */\n      pop\n        /* \"#utility.yul\":5576:5578   */\n      0x20\n        /* \"#utility.yul\":5602:5655   */\n      tag_199\n        /* \"#utility.yul\":5647:5654   */\n      dup6\n        /* \"#utility.yul\":5638:5644   */\n      dup3\n        /* \"#utility.yul\":5627:5636   */\n      dup7\n        /* \"#utility.yul\":5623:5645   */\n      add\n        /* \"#utility.yul\":5602:5655   */\n      tag_112\n      jump\t// in\n    tag_199:\n        /* \"#utility.yul\":5592:5655   */\n      swap2\n      pop\n        /* \"#utility.yul\":5547:5665   */\n      pop\n        /* \"#utility.yul\":5198:5672   */\n      swap3\n      pop\n      swap3\n      swap1\n      pop\n      jump\t// out\n        /* \"#utility.yul\":5678:6443   */\n    tag_58:\n        /* \"#utility.yul\":5764:5770   */\n      0x00\n        /* \"#utility.yul\":5772:5778   */\n      dup1\n        /* \"#utility.yul\":5780:5786   */\n      0x00\n        /* \"#utility.yul\":5788:5794   */\n      dup1\n        /* \"#utility.yul\":5837:5840   */\n      0x80\n        /* \"#utility.yul\":5825:5834   */\n      dup6\n        /* \"#utility.yul\":5816:5823   */\n      dup8\n        /* \"#utility.yul\":5812:5835   */\n      sub\n        /* \"#utility.yul\":5808:5841   */\n      slt\n        /* \"#utility.yul\":5805:5925   */\n      iszero\n      tag_201\n      jumpi\n        /* \"#utility.yul\":5844:5923   */\n      tag_202\n      tag_107\n      jump\t// in\n    tag_202:\n        /* \"#utility.yul\":5805:5925   */\n    tag_201:\n        /* \"#utility.yul\":5964:5965   */\n      0x00\n        /* \"#utility.yul\":5989:6042   */\n      tag_203\n        /* \"#utility.yul\":6034:6041   */\n      dup8\n        /* \"#utility.yul\":6025:6031   */\n      dup3\n        /* \"#utility.yul\":6014:6023   */\n      dup9\n        /* \"#utility.yul\":6010:6032   */\n      add\n        /* \"#utility.yul\":5989:6042   */\n      tag_112\n      jump\t// in\n    tag_203:\n        /* \"#utility.yul\":5979:6042   */\n      swap5\n      pop\n        /* \"#utility.yul\":5935:6052   */\n      pop\n        /* \"#utility.yul\":6091:6093   */\n      0x20\n        /* \"#utility.yul\":6117:6170   */\n      tag_204\n        /* \"#utility.yul\":6162:6169   */\n      dup8\n        /* \"#utility.yul\":6153:6159   */\n      dup3\n        /* \"#utility.yul\":6142:6151   */\n      dup9\n        /* \"#utility.yul\":6138:6160   */\n      add\n        /* \"#utility.yul\":6117:6170   */\n      tag_112\n      jump\t// in\n    tag_204:\n        /* \"#utility.yul\":6107:6170   */\n      swap4\n      pop\n        /* \"#utility.yul\":6062:6180   */\n      pop\n        /* \"#utility.yul\":6219:6221   */\n      0x40\n        /* \"#utility.yul\":6245:6298   */\n      tag_205\n        /* \"#utility.yul\":6290:6297   */\n      dup8\n        /* \"#utility.yul\":6281:6287   */\n      dup3\n        /* \"#utility.yul\":6270:6279   */\n      dup9\n        /* \"#utility.yul\":6266:6288   */\n      add\n        /* \"#utility.yul\":6245:6298   */\n      tag_115\n      jump\t// in\n    tag_205:\n        /* \"#utility.yul\":6235:6298   */\n      swap3\n      pop\n        /* \"#utility.yul\":6190:6308   */\n      pop\n        /* \"#utility.yul\":6347:6349   */\n      0x60\n        /* \"#utility.yul\":6373:6426   */\n      tag_206\n        /* \"#utility.yul\":6418:6425   */\n      dup8\n        /* \"#utility.yul\":6409:6415   */\n      dup3\n        /* \"#utility.yul\":6398:6407   */\n      dup9\n        /* \"#utility.yul\":6394:6416   */\n      add\n        /* \"#utility.yul\":6373:6426   */\n      tag_115\n      jump\t// in\n    tag_206:\n        /* \"#utility.yul\":6363:6426   */\n      swap2\n      pop\n        /* \"#utility.yul\":6318:6436   */\n      pop\n        /* \"#utility.yul\":5678:6443   */\n      swap3\n      swap6\n      swap2\n      swap5\n      pop\n      swap3\n      pop\n      jump\t// out\n        /* \"#utility.yul\":6449:6567   */\n    tag_124:\n        /* \"#utility.yul\":6536:6560   */\n      tag_208\n        /* \"#utility.yul\":6554:6559   */\n      dup2\n        /* \"#utility.yul\":6536:6560   */\n      tag_110\n      jump\t// in\n    tag_208:\n        /* \"#utility.yul\":6531:6534   */\n      dup3\n        /* \"#utility.yul\":6524:6561   */\n      mstore\n        /* \"#utility.yul\":6449:6567   */\n      pop\n      pop\n      jump\t// out\n        /* \"#utility.yul\":6573:6905   */\n    tag_66:\n        /* \"#utility.yul\":6694:6698   */\n      0x00\n        /* \"#utility.yul\":6732:6734   */\n      0x40\n        /* \"#utility.yul\":6721:6730   */\n      dup3\n        /* \"#utility.yul\":6717:6735   */\n      add\n        /* \"#utility.yul\":6709:6735   */\n      swap1\n      pop\n        /* \"#utility.yul\":6745:6816   */\n      tag_210\n        /* \"#utility.yul\":6813:6814   */\n      0x00\n        /* \"#utility.yul\":6802:6811   */\n      dup4\n        /* \"#utility.yul\":6798:6815   */\n      add\n        /* \"#utility.yul\":6789:6795   */\n      dup6\n        /* \"#utility.yul\":6745:6816   */\n      tag_124\n      jump\t// in\n    tag_210:\n        /* \"#utility.yul\":6826:6898   */\n      tag_211\n        /* \"#utility.yul\":6894:6896   */\n      0x20\n        /* \"#utility.yul\":6883:6892   */\n      dup4\n        /* \"#utility.yul\":6879:6897   */\n      add\n        /* \"#utility.yul\":6870:6876   */\n      dup5\n        /* \"#utility.yul\":6826:6898   */\n      tag_116\n      jump\t// in\n    tag_211:\n        /* \"#utility.yul\":6573:6905   */\n      swap4\n      swap3\n      pop\n      pop\n      pop\n      jump\t// out\n        /* \"#utility.yul\":6911:7091   */\n    tag_125:\n        /* \"#utility.yul\":6959:7036   */\n      0x4e487b7100000000000000000000000000000000000000000000000000000000\n        /* \"#utility.yul\":6956:6957   */\n      0x00\n        /* \"#utility.yul\":6949:7037   */\n      mstore\n        /* \"#utility.yul\":7056:7060   */\n      0x11\n        /* \"#utility.yul\":7053:7054   */\n      0x04\n        /* \"#utility.yul\":7046:7061   */\n      mstore\n        /* \"#utility.yul\":7080:7084   */\n      0x24\n        /* \"#utility.yul\":7077:7078   */\n      0x00\n        /* \"#utility.yul\":7070:7085   */\n      revert\n        /* \"#utility.yul\":7097:7291   */\n    tag_68:\n        /* \"#utility.yul\":7137:7141   */\n      0x00\n        /* \"#utility.yul\":7157:7177   */\n      tag_214\n        /* \"#utility.yul\":7175:7176   */\n      dup3\n        /* \"#utility.yul\":7157:7177   */\n      tag_113\n      jump\t// in\n    tag_214:\n        /* \"#utility.yul\":7152:7177   */\n      swap2\n      pop\n        /* \"#utility.yul\":7191:7211   */\n      tag_215\n        /* \"#utility.yul\":7209:7210   */\n      dup4\n        /* \"#utility.yul\":7191:7211   */\n      tag_113\n      jump\t// in\n    tag_215:\n        /* \"#utility.yul\":7186:7211   */\n      swap3\n      pop\n        /* \"#utility.yul\":7235:7236   */\n      dup3\n        /* \"#utility.yul\":7232:7233   */\n      dup3\n        /* \"#utility.yul\":7228:7237   */\n      sub\n        /* \"#utility.yul\":7220:7237   */\n      swap1\n      pop\n        /* \"#utility.yul\":7259:7260   */\n      dup2\n        /* \"#utility.yul\":7253:7257   */\n      dup2\n        /* \"#utility.yul\":7250:7261   */\n      gt\n        /* \"#utility.yul\":7247:7284   */\n      iszero\n      tag_216\n      jumpi\n        /* \"#utility.yul\":7264:7282   */\n      tag_217\n      tag_125\n      jump\t// in\n    tag_217:\n        /* \"#utility.yul\":7247:7284   */\n    tag_216:\n        /* \"#utility.yul\":7097:7291   */\n      swap3\n      swap2\n      pop\n      pop\n      jump\t// out\n        /* \"#utility.yul\":7297:7488   */\n    tag_70:\n        /* \"#utility.yul\":7337:7340   */\n      0x00\n        /* \"#utility.yul\":7356:7376   */\n      tag_219\n        /* \"#utility.yul\":7374:7375   */\n      dup3\n        /* \"#utility.yul\":7356:7376   */\n      tag_113\n      jump\t// in\n    tag_219:\n        /* \"#utility.yul\":7351:7376   */\n      swap2\n      pop\n        /* \"#utility.yul\":7390:7410   */\n      tag_220\n        /* \"#utility.yul\":7408:7409   */\n      dup4\n        /* \"#utility.yul\":7390:7410   */\n      tag_113\n      jump\t// in\n    tag_220:\n        /* \"#utility.yul\":7385:7410   */\n      swap3\n      pop\n        /* \"#utility.yul\":7433:7434   */\n      dup3\n        /* \"#utility.yul\":7430:7431   */\n      dup3\n        /* \"#utility.yul\":7426:7435   */\n      add\n        /* \"#utility.yul\":7419:7435   */\n      swap1\n      pop\n        /* \"#utility.yul\":7454:7457   */\n      dup1\n        /* \"#utility.yul\":7451:7452   */\n      dup3\n        /* \"#utility.yul\":7448:7458   */\n      gt\n        /* \"#utility.yul\":7445:7481   */\n      iszero\n      tag_221\n      jumpi\n        /* \"#utility.yul\":7461:7479   */\n      tag_222\n      tag_125\n      jump\t// in\n    tag_222:\n        /* \"#utility.yul\":7445:7481   */\n    tag_221:\n        /* \"#utility.yul\":7297:7488   */\n      swap3\n      swap2\n      pop\n      pop\n      jump\t// out\n        /* \"#utility.yul\":7494:7663   */\n    tag_126:\n        /* \"#utility.yul\":7578:7589   */\n      0x00\n        /* \"#utility.yul\":7612:7618   */\n      dup3\n        /* \"#utility.yul\":7607:7610   */\n      dup3\n        /* \"#utility.yul\":7600:7619   */\n      mstore\n        /* \"#utility.yul\":7652:7656   */\n      0x20\n        /* \"#utility.yul\":7647:7650   */\n      dup3\n        /* \"#utility.yul\":7643:7657   */\n      add\n        /* \"#utility.yul\":7628:7657   */\n      swap1\n      pop\n        /* \"#utility.yul\":7494:7663   */\n      swap3\n      swap2\n      pop\n      pop\n      jump\t// out\n        /* \"#utility.yul\":7669:7848   */\n    tag_127:\n        /* \"#utility.yul\":7809:7840   */\n      0x5a4b46546f6b656e3a206d696e74696e67207a65726f20616d6f756e74000000\n        /* \"#utility.yul\":7805:7806   */\n      0x00\n        /* \"#utility.yul\":7797:7803   */\n      dup3\n        /* \"#utility.yul\":7793:7807   */\n      add\n        /* \"#utility.yul\":7786:7841   */\n      mstore\n        /* \"#utility.yul\":7669:7848   */\n      pop\n      jump\t// out\n        /* \"#utility.yul\":7854:8220   */\n    tag_128:\n        /* \"#utility.yul\":7996:7999   */\n      0x00\n        /* \"#utility.yul\":8017:8084   */\n      tag_226\n        /* \"#utility.yul\":8081:8083   */\n      0x1d\n        /* \"#utility.yul\":8076:8079   */\n      dup4\n        /* \"#utility.yul\":8017:8084   */\n      tag_126\n      jump\t// in\n    tag_226:\n        /* \"#utility.yul\":8010:8084   */\n      swap2\n      pop\n        /* \"#utility.yul\":8093:8186   */\n      tag_227\n        /* \"#utility.yul\":8182:8185   */\n      dup3\n        /* \"#utility.yul\":8093:8186   */\n      tag_127\n      jump\t// in\n    tag_227:\n        /* \"#utility.yul\":8211:8213   */\n      0x20\n        /* \"#utility.yul\":8206:8209   */\n      dup3\n        /* \"#utility.yul\":8202:8214   */\n      add\n        /* \"#utility.yul\":8195:8214   */\n      swap1\n      pop\n        /* \"#utility.yul\":7854:8220   */\n      swap2\n      swap1\n      pop\n      jump\t// out\n        /* \"#utility.yul\":8226:8645   */\n    tag_75:\n        /* \"#utility.yul\":8392:8396   */\n      0x00\n        /* \"#utility.yul\":8430:8432   */\n      0x20\n        /* \"#utility.yul\":8419:8428   */\n      dup3\n        /* \"#utility.yul\":8415:8433   */\n      add\n        /* \"#utility.yul\":8407:8433   */\n      swap1\n      pop\n        /* \"#utility.yul\":8479:8488   */\n      dup2\n        /* \"#utility.yul\":8473:8477   */\n      dup2\n        /* \"#utility.yul\":8469:8489   */\n      sub\n        /* \"#utility.yul\":8465:8466   */\n      0x00\n        /* \"#utility.yul\":8454:8463   */\n      dup4\n        /* \"#utility.yul\":8450:8467   */\n      add\n        /* \"#utility.yul\":8443:8490   */\n      mstore\n        /* \"#utility.yul\":8507:8638   */\n      tag_229\n        /* \"#utility.yul\":8633:8637   */\n      dup2\n        /* \"#utility.yul\":8507:8638   */\n      tag_128\n      jump\t// in\n    tag_229:\n        /* \"#utility.yul\":8499:8638   */\n      swap1\n      pop\n        /* \"#utility.yul\":8226:8645   */\n      swap2\n      swap1\n      pop\n      jump\t// out\n        /* \"#utility.yul\":8651:8830   */\n    tag_129:\n        /* \"#utility.yul\":8791:8822   */\n      0x5a4b46546f6b656e3a206275726e696e67207a65726f20616d6f756e74000000\n        /* \"#utility.yul\":8787:8788   */\n      0x00\n        /* \"#utility.yul\":8779:8785   */\n      dup3\n        /* \"#utility.yul\":8775:8789   */\n      add\n        /* \"#utility.yul\":8768:8823   */\n      mstore\n        /* \"#utility.yul\":8651:8830   */\n      pop\n      jump\t// out\n        /* \"#utility.yul\":8836:9202   */\n    tag_130:\n        /* \"#utility.yul\":8978:8981   */\n      0x00\n        /* \"#utility.yul\":8999:9066   */\n      tag_232\n        /* \"#utility.yul\":9063:9065   */\n      0x1d\n        /* \"#utility.yul\":9058:9061   */\n      dup4\n        /* \"#utility.yul\":8999:9066   */\n      tag_126\n      jump\t// in\n    tag_232:\n        /* \"#utility.yul\":8992:9066   */\n      swap2\n      pop\n        /* \"#utility.yul\":9075:9168   */\n      tag_233\n        /* \"#utility.yul\":9164:9167   */\n      dup3\n        /* \"#utility.yul\":9075:9168   */\n      tag_129\n      jump\t// in\n    tag_233:\n        /* \"#utility.yul\":9193:9195   */\n      0x20\n        /* \"#utility.yul\":9188:9191   */\n      dup3\n        /* \"#utility.yul\":9184:9196   */\n      add\n        /* \"#utility.yul\":9177:9196   */\n      swap1\n      pop\n        /* \"#utility.yul\":8836:9202   */\n      swap2\n      swap1\n      pop\n      jump\t// out\n        /* \"#utility.yul\":9208:9627   */\n    tag_85:\n        /* \"#utility.yul\":9374:9378   */\n      0x00\n        /* \"#utility.yul\":9412:9414   */\n      0x20\n        /* \"#utility.yul\":9401:9410   */\n      dup3\n        /* \"#utility.yul\":9397:9415   */\n      add\n        /* \"#utility.yul\":9389:9415   */\n      swap1\n      pop\n        /* \"#utility.yul\":9461:9470   */\n      dup2\n        /* \"#utility.yul\":9455:9459   */\n      dup2\n        /* \"#utility.yul\":9451:9471   */\n      sub\n        /* \"#utility.yul\":9447:9448   */\n      0x00\n        /* \"#utility.yul\":9436:9445   */\n      dup4\n        /* \"#utility.yul\":9432:9449   */\n      add\n        /* \"#utility.yul\":9425:9472   */\n      mstore\n        /* \"#utility.yul\":9489:9620   */\n      tag_235\n        /* \"#utility.yul\":9615:9619   */\n      dup2\n        /* \"#utility.yul\":9489:9620   */\n      tag_130\n      jump\t// in\n    tag_235:\n        /* \"#utility.yul\":9481:9620   */\n      swap1\n      pop\n        /* \"#utility.yul\":9208:9627   */\n      swap2\n      swap1\n      pop\n      jump\t// out\n\n    auxdata: 0xa2646970667358221220658b503905f7bbf4fd2b0476d5e3958e4b30f60f8f9743d859dcf59d9c6eeb3964736f6c634300081a0033\n}\n",
				"bytecode": {
					"linkReferences": {},
					"object": "6080604052348015600e575f80fd5b506112838061001c5f395ff3fe608060405234801561000f575f80fd5b506004361061009b575f3560e01c8063558a729711610064578063558a72971461017b578063598af9e7146101ab578063b6363cf2146101db578063f5298aca1461020b578063fe99049a146102275761009b565b8062fdd58e1461009f57806301ffc9a7146100cf578063095bcdb6146100ff578063156e29f61461012f578063426a84931461014b575b5f80fd5b6100b960048036038101906100b49190610de1565b610257565b6040516100c69190610e2e565b60405180910390f35b6100e960048036038101906100e49190610e9c565b610276565b6040516100f69190610ee1565b60405180910390f35b61011960048036038101906101149190610efa565b6102d7565b6040516101269190610ee1565b60405180910390f35b61014960048036038101906101449190610efa565b61049f565b005b61016560048036038101906101609190610efa565b6104f1565b6040516101729190610ee1565b60405180910390f35b61019560048036038101906101909190610f74565b6105ef565b6040516101a29190610ee1565b60405180910390f35b6101c560048036038101906101c09190610fb2565b6106ee565b6040516101d29190610e2e565b60405180910390f35b6101f560048036038101906101f09190611002565b610719565b6040516102029190610ee1565b60405180910390f35b61022560048036038101906102209190610efa565b610743565b005b610241600480360381019061023c9190611040565b610795565b60405161024e9190610ee1565b60405180910390f35b5f602052815f5260405f20602052805f5260405f205f91509150505481565b5f630f632fb360e01b827bffffffffffffffffffffffffffffffffffffffffffffffffffffffff191614806102d057506301ffc9a760e01b827bffffffffffffffffffffffffffffffffffffffffffffffffffffffff1916145b9050919050565b5f815f803373ffffffffffffffffffffffffffffffffffffffff1673ffffffffffffffffffffffffffffffffffffffff1681526020019081526020015f205f8581526020019081526020015f2054101561036a5733836040517ff6deaa040000000000000000000000000000000000000000000000000000000081526004016103619291906110b3565b60405180910390fd5b815f803373ffffffffffffffffffffffffffffffffffffffff1673ffffffffffffffffffffffffffffffffffffffff1681526020019081526020015f205f8581526020019081526020015f205f8282546103c49190611107565b92505081905550815f808673ffffffffffffffffffffffffffffffffffffffff1673ffffffffffffffffffffffffffffffffffffffff1681526020019081526020015f205f8581526020019081526020015f205f828254610425919061113a565b92505081905550828473ffffffffffffffffffffffffffffffffffffffff163373ffffffffffffffffffffffffffffffffffffffff167f1b3d7edb2e9c0b0e7c525b20aaaef0f5940d2ed71663c7d39266ecafac728859338660405161048c9291906110b3565b60405180910390a4600190509392505050565b5f81116104e1576040517f08c379a00000000000000000000000000000000000000000000000000000000081526004016104d8906111c7565b60405180910390fd5b6104ec838383610bb4565b505050565b5f8160015f3373ffffffffffffffffffffffffffffffffffffffff1673ffffffffffffffffffffffffffffffffffffffff1681526020019081526020015f205f8673ffffffffffffffffffffffffffffffffffffffff1673ffffffffffffffffffffffffffffffffffffffff1681526020019081526020015f205f8581526020019081526020015f2081905550828473ffffffffffffffffffffffffffffffffffffffff163373ffffffffffffffffffffffffffffffffffffffff167fb3fd5071835887567a0671151121894ddccc2842f1d10bedad13e0d17cace9a7856040516105dc9190610e2e565b60405180910390a4600190509392505050565b5f8160025f3373ffffffffffffffffffffffffffffffffffffffff1673ffffffffffffffffffffffffffffffffffffffff1681526020019081526020015f205f8573ffffffffffffffffffffffffffffffffffffffff1673ffffffffffffffffffffffffffffffffffffffff1681526020019081526020015f205f6101000a81548160ff0219169083151502179055508273ffffffffffffffffffffffffffffffffffffffff163373ffffffffffffffffffffffffffffffffffffffff167fceb576d9f15e4e200fdb5096d64d5dfd667e16def20c1eefd14256d8e3faa267846040516106dc9190610ee1565b60405180910390a36001905092915050565b6001602052825f5260405f20602052815f5260405f20602052805f5260405f205f9250925050505481565b6002602052815f5260405f20602052805f5260405f205f915091509054906101000a900460ff1681565b5f8111610785576040517f08c379a000000000000000000000000000000000000000000000000000000000815260040161077c9061122f565b60405180910390fd5b610790838383610c82565b505050565b5f3373ffffffffffffffffffffffffffffffffffffffff168573ffffffffffffffffffffffffffffffffffffffff1614158015610854575060025f8673ffffffffffffffffffffffffffffffffffffffff1673ffffffffffffffffffffffffffffffffffffffff1681526020019081526020015f205f3373ffffffffffffffffffffffffffffffffffffffff1673ffffffffffffffffffffffffffffffffffffffff1681526020019081526020015f205f9054906101000a900460ff16155b156109ec575f60015f8773ffffffffffffffffffffffffffffffffffffffff1673ffffffffffffffffffffffffffffffffffffffff1681526020019081526020015f205f3373ffffffffffffffffffffffffffffffffffffffff1673ffffffffffffffffffffffffffffffffffffffff1681526020019081526020015f205f8581526020019081526020015f205490508281101561092b5733846040517f731555bd0000000000000000000000000000000000000000000000000000000081526004016109229291906110b3565b60405180910390fd5b7fffffffffffffffffffffffffffffffffffffffffffffffffffffffffffffffff81146109ea57828161095e9190611107565b60015f8873ffffffffffffffffffffffffffffffffffffffff1673ffffffffffffffffffffffffffffffffffffffff1681526020019081526020015f205f3373ffffffffffffffffffffffffffffffffffffffff1673ffffffffffffffffffffffffffffffffffffffff1681526020019081526020015f205f8681526020019081526020015f20819055505b505b815f808773ffffffffffffffffffffffffffffffffffffffff1673ffffffffffffffffffffffffffffffffffffffff1681526020019081526020015f205f8581526020019081526020015f20541015610a7e5784836040517ff6deaa04000000000000000000000000000000000000000000000000000000008152600401610a759291906110b3565b60405180910390fd5b815f808773ffffffffffffffffffffffffffffffffffffffff1673ffffffffffffffffffffffffffffffffffffffff1681526020019081526020015f205f8581526020019081526020015f205f828254610ad89190611107565b92505081905550815f808673ffffffffffffffffffffffffffffffffffffffff1673ffffffffffffffffffffffffffffffffffffffff1681526020019081526020015f205f8581526020019081526020015f205f828254610b39919061113a565b92505081905550828473ffffffffffffffffffffffffffffffffffffffff168673ffffffffffffffffffffffffffffffffffffffff167f1b3d7edb2e9c0b0e7c525b20aaaef0f5940d2ed71663c7d39266ecafac7288593386604051610ba09291906110b3565b60405180910390a460019050949350505050565b805f808573ffffffffffffffffffffffffffffffffffffffff1673ffffffffffffffffffffffffffffffffffffffff1681526020019081526020015f205f8481526020019081526020015f205f828254610c0e919061113a565b92505081905550818373ffffffffffffffffffffffffffffffffffffffff165f73ffffffffffffffffffffffffffffffffffffffff167f1b3d7edb2e9c0b0e7c525b20aaaef0f5940d2ed71663c7d39266ecafac7288593385604051610c759291906110b3565b60405180910390a4505050565b805f808573ffffffffffffffffffffffffffffffffffffffff1673ffffffffffffffffffffffffffffffffffffffff1681526020019081526020015f205f8481526020019081526020015f205f828254610cdc9190611107565b92505081905550815f73ffffffffffffffffffffffffffffffffffffffff168473ffffffffffffffffffffffffffffffffffffffff167f1b3d7edb2e9c0b0e7c525b20aaaef0f5940d2ed71663c7d39266ecafac7288593385604051610d439291906110b3565b60405180910390a4505050565b5f80fd5b5f73ffffffffffffffffffffffffffffffffffffffff82169050919050565b5f610d7d82610d54565b9050919050565b610d8d81610d73565b8114610d97575f80fd5b50565b5f81359050610da881610d84565b92915050565b5f819050919050565b610dc081610dae565b8114610dca575f80fd5b50565b5f81359050610ddb81610db7565b92915050565b5f8060408385031215610df757610df6610d50565b5b5f610e0485828601610d9a565b9250506020610e1585828601610dcd565b9150509250929050565b610e2881610dae565b82525050565b5f602082019050610e415f830184610e1f565b92915050565b5f7fffffffff0000000000000000000000000000000000000000000000000000000082169050919050565b610e7b81610e47565b8114610e85575f80fd5b50565b5f81359050610e9681610e72565b92915050565b5f60208284031215610eb157610eb0610d50565b5b5f610ebe84828501610e88565b91505092915050565b5f8115159050919050565b610edb81610ec7565b82525050565b5f602082019050610ef45f830184610ed2565b92915050565b5f805f60608486031215610f1157610f10610d50565b5b5f610f1e86828701610d9a565b9350506020610f2f86828701610dcd565b9250506040610f4086828701610dcd565b9150509250925092565b610f5381610ec7565b8114610f5d575f80fd5b50565b5f81359050610f6e81610f4a565b92915050565b5f8060408385031215610f8a57610f89610d50565b5b5f610f9785828601610d9a565b9250506020610fa885828601610f60565b9150509250929050565b5f805f60608486031215610fc957610fc8610d50565b5b5f610fd686828701610d9a565b9350506020610fe786828701610d9a565b9250506040610ff886828701610dcd565b9150509250925092565b5f806040838503121561101857611017610d50565b5b5f61102585828601610d9a565b925050602061103685828601610d9a565b9150509250929050565b5f805f806080858703121561105857611057610d50565b5b5f61106587828801610d9a565b945050602061107687828801610d9a565b935050604061108787828801610dcd565b925050606061109887828801610dcd565b91505092959194509250565b6110ad81610d73565b82525050565b5f6040820190506110c65f8301856110a4565b6110d36020830184610e1f565b9392505050565b7f4e487b71000000000000000000000000000000000000000000000000000000005f52601160045260245ffd5b5f61111182610dae565b915061111c83610dae565b9250828203905081811115611134576111336110da565b5b92915050565b5f61114482610dae565b915061114f83610dae565b9250828201905080821115611167576111666110da565b5b92915050565b5f82825260208201905092915050565b7f5a4b46546f6b656e3a206d696e74696e67207a65726f20616d6f756e740000005f82015250565b5f6111b1601d8361116d565b91506111bc8261117d565b602082019050919050565b5f6020820190508181035f8301526111de816111a5565b9050919050565b7f5a4b46546f6b656e3a206275726e696e67207a65726f20616d6f756e740000005f82015250565b5f611219601d8361116d565b9150611224826111e5565b602082019050919050565b5f6020820190508181035f8301526112468161120d565b905091905056fea2646970667358221220658b503905f7bbf4fd2b0476d5e3958e4b30f60f8f9743d859dcf59d9c6eeb3964736f6c634300081a0033",
					"opcodes": "PUSH1 0x80 PUSH1 0x40 MSTORE CALLVALUE DUP1 ISZERO PUSH1 0xE JUMPI PUSH0 DUP1 REVERT JUMPDEST POP PUSH2 0x1283 DUP1 PUSH2 0x1C PUSH0 CODECOPY PUSH0 RETURN INVALID PUSH1 0x80 PUSH1 0x40 MSTORE CALLVALUE DUP1 ISZERO PUSH2 0xF JUMPI PUSH0 DUP1 REVERT JUMPDEST POP PUSH1 0x4 CALLDATASIZE LT PUSH2 0x9B JUMPI PUSH0 CALLDATALOAD PUSH1 0xE0 SHR DUP1 PUSH4 0x558A7297 GT PUSH2 0x64 JUMPI DUP1 PUSH4 0x558A7297 EQ PUSH2 0x17B JUMPI DUP1 PUSH4 0x598AF9E7 EQ PUSH2 0x1AB JUMPI DUP1 PUSH4 0xB6363CF2 EQ PUSH2 0x1DB JUMPI DUP1 PUSH4 0xF5298ACA EQ PUSH2 0x20B JUMPI DUP1 PUSH4 0xFE99049A EQ PUSH2 0x227 JUMPI PUSH2 0x9B JUMP JUMPDEST DUP1 PUSH3 0xFDD58E EQ PUSH2 0x9F JUMPI DUP1 PUSH4 0x1FFC9A7 EQ PUSH2 0xCF JUMPI DUP1 PUSH4 0x95BCDB6 EQ PUSH2 0xFF JUMPI DUP1 PUSH4 0x156E29F6 EQ PUSH2 0x12F JUMPI DUP1 PUSH4 0x426A8493 EQ PUSH2 0x14B JUMPI JUMPDEST PUSH0 DUP1 REVERT JUMPDEST PUSH2 0xB9 PUSH1 0x4 DUP1 CALLDATASIZE SUB DUP2 ADD SWAP1 PUSH2 0xB4 SWAP2 SWAP1 PUSH2 0xDE1 JUMP JUMPDEST PUSH2 0x257 JUMP JUMPDEST PUSH1 0x40 MLOAD PUSH2 0xC6 SWAP2 SWAP1 PUSH2 0xE2E JUMP JUMPDEST PUSH1 0x40 MLOAD DUP1 SWAP2 SUB SWAP1 RETURN JUMPDEST PUSH2 0xE9 PUSH1 0x4 DUP1 CALLDATASIZE SUB DUP2 ADD SWAP1 PUSH2 0xE4 SWAP2 SWAP1 PUSH2 0xE9C JUMP JUMPDEST PUSH2 0x276 JUMP JUMPDEST PUSH1 0x40 MLOAD PUSH2 0xF6 SWAP2 SWAP1 PUSH2 0xEE1 JUMP JUMPDEST PUSH1 0x40 MLOAD DUP1 SWAP2 SUB SWAP1 RETURN JUMPDEST PUSH2 0x119 PUSH1 0x4 DUP1 CALLDATASIZE SUB DUP2 ADD SWAP1 PUSH2 0x114 SWAP2 SWAP1 PUSH2 0xEFA JUMP JUMPDEST PUSH2 0x2D7 JUMP JUMPDEST PUSH1 0x40 MLOAD PUSH2 0x126 SWAP2 SWAP1 PUSH2 0xEE1 JUMP JUMPDEST PUSH1 0x40 MLOAD DUP1 SWAP2 SUB SWAP1 RETURN JUMPDEST PUSH2 0x149 PUSH1 0x4 DUP1 CALLDATASIZE SUB DUP2 ADD SWAP1 PUSH2 0x144 SWAP2 SWAP1 PUSH2 0xEFA JUMP JUMPDEST PUSH2 0x49F JUMP JUMPDEST STOP JUMPDEST PUSH2 0x165 PUSH1 0x4 DUP1 CALLDATASIZE SUB DUP2 ADD SWAP1 PUSH2 0x160 SWAP2 SWAP1 PUSH2 0xEFA JUMP JUMPDEST PUSH2 0x4F1 JUMP JUMPDEST PUSH1 0x40 MLOAD PUSH2 0x172 SWAP2 SWAP1 PUSH2 0xEE1 JUMP JUMPDEST PUSH1 0x40 MLOAD DUP1 SWAP2 SUB SWAP1 RETURN JUMPDEST PUSH2 0x195 PUSH1 0x4 DUP1 CALLDATASIZE SUB DUP2 ADD SWAP1 PUSH2 0x190 SWAP2 SWAP1 PUSH2 0xF74 JUMP JUMPDEST PUSH2 0x5EF JUMP JUMPDEST PUSH1 0x40 MLOAD PUSH2 0x1A2 SWAP2 SWAP1 PUSH2 0xEE1 JUMP JUMPDEST PUSH1 0x40 MLOAD DUP1 SWAP2 SUB SWAP1 RETURN JUMPDEST PUSH2 0x1C5 PUSH1 0x4 DUP1 CALLDATASIZE SUB DUP2 ADD SWAP1 PUSH2 0x1C0 SWAP2 SWAP1 PUSH2 0xFB2 JUMP JUMPDEST PUSH2 0x6EE JUMP JUMPDEST PUSH1 0x40 MLOAD PUSH2 0x1D2 SWAP2 SWAP1 PUSH2 0xE2E JUMP JUMPDEST PUSH1 0x40 MLOAD DUP1 SWAP2 SUB SWAP1 RETURN JUMPDEST PUSH2 0x1F5 PUSH1 0x4 DUP1 CALLDATASIZE SUB DUP2 ADD SWAP1 PUSH2 0x1F0 SWAP2 SWAP1 PUSH2 0x1002 JUMP JUMPDEST PUSH2 0x719 JUMP JUMPDEST PUSH1 0x40 MLOAD PUSH2 0x202 SWAP2 SWAP1 PUSH2 0xEE1 JUMP JUMPDEST PUSH1 0x40 MLOAD DUP1 SWAP2 SUB SWAP1 RETURN JUMPDEST PUSH2 0x225 PUSH1 0x4 DUP1 CALLDATASIZE SUB DUP2 ADD SWAP1 PUSH2 0x220 SWAP2 SWAP1 PUSH2 0xEFA JUMP JUMPDEST PUSH2 0x743 JUMP JUMPDEST STOP JUMPDEST PUSH2 0x241 PUSH1 0x4 DUP1 CALLDATASIZE SUB DUP2 ADD SWAP1 PUSH2 0x23C SWAP2 SWAP1 PUSH2 0x1040 JUMP JUMPDEST PUSH2 0x795 JUMP JUMPDEST PUSH1 0x40 MLOAD PUSH2 0x24E SWAP2 SWAP1 PUSH2 0xEE1 JUMP JUMPDEST PUSH1 0x40 MLOAD DUP1 SWAP2 SUB SWAP1 RETURN JUMPDEST PUSH0 PUSH1 0x20 MSTORE DUP2 PUSH0 MSTORE PUSH1 0x40 PUSH0 KECCAK256 PUSH1 0x20 MSTORE DUP1 PUSH0 MSTORE PUSH1 0x40 PUSH0 KECCAK256 PUSH0 SWAP2 POP SWAP2 POP POP SLOAD DUP2 JUMP JUMPDEST PUSH0 PUSH4 0xF632FB3 PUSH1 0xE0 SHL DUP3 PUSH28 0xFFFFFFFFFFFFFFFFFFFFFFFFFFFFFFFFFFFFFFFFFFFFFFFFFFFFFFFF NOT AND EQ DUP1 PUSH2 0x2D0 JUMPI POP PUSH4 0x1FFC9A7 PUSH1 0xE0 SHL DUP3 PUSH28 0xFFFFFFFFFFFFFFFFFFFFFFFFFFFFFFFFFFFFFFFFFFFFFFFFFFFFFFFF NOT AND EQ JUMPDEST SWAP1 POP SWAP2 SWAP1 POP JUMP JUMPDEST PUSH0 DUP2 PUSH0 DUP1 CALLER PUSH20 0xFFFFFFFFFFFFFFFFFFFFFFFFFFFFFFFFFFFFFFFF AND PUSH20 0xFFFFFFFFFFFFFFFFFFFFFFFFFFFFFFFFFFFFFFFF AND DUP2 MSTORE PUSH1 0x20 ADD SWAP1 DUP2 MSTORE PUSH1 0x20 ADD PUSH0 KECCAK256 PUSH0 DUP6 DUP2 MSTORE PUSH1 0x20 ADD SWAP1 DUP2 MSTORE PUSH1 0x20 ADD PUSH0 KECCAK256 SLOAD LT ISZERO PUSH2 0x36A JUMPI CALLER DUP4 PUSH1 0x40 MLOAD PUSH32 0xF6DEAA0400000000000000000000000000000000000000000000000000000000 DUP2 MSTORE PUSH1 0x4 ADD PUSH2 0x361 SWAP3 SWAP2 SWAP1 PUSH2 0x10B3 JUMP JUMPDEST PUSH1 0x40 MLOAD DUP1 SWAP2 SUB SWAP1 REVERT JUMPDEST DUP2 PUSH0 DUP1 CALLER PUSH20 0xFFFFFFFFFFFFFFFFFFFFFFFFFFFFFFFFFFFFFFFF AND PUSH20 0xFFFFFFFFFFFFFFFFFFFFFFFFFFFFFFFFFFFFFFFF AND DUP2 MSTORE PUSH1 0x20 ADD SWAP1 DUP2 MSTORE PUSH1 0x20 ADD PUSH0 KECCAK256 PUSH0 DUP6 DUP2 MSTORE PUSH1 0x20 ADD SWAP1 DUP2 MSTORE PUSH1 0x20 ADD PUSH0 KECCAK256 PUSH0 DUP3 DUP3 SLOAD PUSH2 0x3C4 SWAP2 SWAP1 PUSH2 0x1107 JUMP JUMPDEST SWAP3 POP POP DUP2 SWAP1 SSTORE POP DUP2 PUSH0 DUP1 DUP7 PUSH20 0xFFFFFFFFFFFFFFFFFFFFFFFFFFFFFFFFFFFFFFFF AND PUSH20 0xFFFFFFFFFFFFFFFFFFFFFFFFFFFFFFFFFFFFFFFF AND DUP2 MSTORE PUSH1 0x20 ADD SWAP1 DUP2 MSTORE PUSH1 0x20 ADD PUSH0 KECCAK256 PUSH0 DUP6 DUP2 MSTORE PUSH1 0x20 ADD SWAP1 DUP2 MSTORE PUSH1 0x20 ADD PUSH0 KECCAK256 PUSH0 DUP3 DUP3 SLOAD PUSH2 0x425 SWAP2 SWAP1 PUSH2 0x113A JUMP JUMPDEST SWAP3 POP POP DUP2 SWAP1 SSTORE POP DUP3 DUP5 PUSH20 0xFFFFFFFFFFFFFFFFFFFFFFFFFFFFFFFFFFFFFFFF AND CALLER PUSH20 0xFFFFFFFFFFFFFFFFFFFFFFFFFFFFFFFFFFFFFFFF AND PUSH32 0x1B3D7EDB2E9C0B0E7C525B20AAAEF0F5940D2ED71663C7D39266ECAFAC728859 CALLER DUP7 PUSH1 0x40 MLOAD PUSH2 0x48C SWAP3 SWAP2 SWAP1 PUSH2 0x10B3 JUMP JUMPDEST PUSH1 0x40 MLOAD DUP1 SWAP2 SUB SWAP1 LOG4 PUSH1 0x1 SWAP1 POP SWAP4 SWAP3 POP POP POP JUMP JUMPDEST PUSH0 DUP2 GT PUSH2 0x4E1 JUMPI PUSH1 0x40 MLOAD PUSH32 0x8C379A000000000000000000000000000000000000000000000000000000000 DUP2 MSTORE PUSH1 0x4 ADD PUSH2 0x4D8 SWAP1 PUSH2 0x11C7 JUMP JUMPDEST PUSH1 0x40 MLOAD DUP1 SWAP2 SUB SWAP1 REVERT JUMPDEST PUSH2 0x4EC DUP4 DUP4 DUP4 PUSH2 0xBB4 JUMP JUMPDEST POP POP POP JUMP JUMPDEST PUSH0 DUP2 PUSH1 0x1 PUSH0 CALLER PUSH20 0xFFFFFFFFFFFFFFFFFFFFFFFFFFFFFFFFFFFFFFFF AND PUSH20 0xFFFFFFFFFFFFFFFFFFFFFFFFFFFFFFFFFFFFFFFF AND DUP2 MSTORE PUSH1 0x20 ADD SWAP1 DUP2 MSTORE PUSH1 0x20 ADD PUSH0 KECCAK256 PUSH0 DUP7 PUSH20 0xFFFFFFFFFFFFFFFFFFFFFFFFFFFFFFFFFFFFFFFF AND PUSH20 0xFFFFFFFFFFFFFFFFFFFFFFFFFFFFFFFFFFFFFFFF AND DUP2 MSTORE PUSH1 0x20 ADD SWAP1 DUP2 MSTORE PUSH1 0x20 ADD PUSH0 KECCAK256 PUSH0 DUP6 DUP2 MSTORE PUSH1 0x20 ADD SWAP1 DUP2 MSTORE PUSH1 0x20 ADD PUSH0 KECCAK256 DUP2 SWAP1 SSTORE POP DUP3 DUP5 PUSH20 0xFFFFFFFFFFFFFFFFFFFFFFFFFFFFFFFFFFFFFFFF AND CALLER PUSH20 0xFFFFFFFFFFFFFFFFFFFFFFFFFFFFFFFFFFFFFFFF AND PUSH32 0xB3FD5071835887567A0671151121894DDCCC2842F1D10BEDAD13E0D17CACE9A7 DUP6 PUSH1 0x40 MLOAD PUSH2 0x5DC SWAP2 SWAP1 PUSH2 0xE2E JUMP JUMPDEST PUSH1 0x40 MLOAD DUP1 SWAP2 SUB SWAP1 LOG4 PUSH1 0x1 SWAP1 POP SWAP4 SWAP3 POP POP POP JUMP JUMPDEST PUSH0 DUP2 PUSH1 0x2 PUSH0 CALLER PUSH20 0xFFFFFFFFFFFFFFFFFFFFFFFFFFFFFFFFFFFFFFFF AND PUSH20 0xFFFFFFFFFFFFFFFFFFFFFFFFFFFFFFFFFFFFFFFF AND DUP2 MSTORE PUSH1 0x20 ADD SWAP1 DUP2 MSTORE PUSH1 0x20 ADD PUSH0 KECCAK256 PUSH0 DUP6 PUSH20 0xFFFFFFFFFFFFFFFFFFFFFFFFFFFFFFFFFFFFFFFF AND PUSH20 0xFFFFFFFFFFFFFFFFFFFFFFFFFFFFFFFFFFFFFFFF AND DUP2 MSTORE PUSH1 0x20 ADD SWAP1 DUP2 MSTORE PUSH1 0x20 ADD PUSH0 KECCAK256 PUSH0 PUSH2 0x100 EXP DUP2 SLOAD DUP2 PUSH1 0xFF MUL NOT AND SWAP1 DUP4 ISZERO ISZERO MUL OR SWAP1 SSTORE POP DUP3 PUSH20 0xFFFFFFFFFFFFFFFFFFFFFFFFFFFFFFFFFFFFFFFF AND CALLER PUSH20 0xFFFFFFFFFFFFFFFFFFFFFFFFFFFFFFFFFFFFFFFF AND PUSH32 0xCEB576D9F15E4E200FDB5096D64D5DFD667E16DEF20C1EEFD14256D8E3FAA267 DUP5 PUSH1 0x40 MLOAD PUSH2 0x6DC SWAP2 SWAP1 PUSH2 0xEE1 JUMP JUMPDEST PUSH1 0x40 MLOAD DUP1 SWAP2 SUB SWAP1 LOG3 PUSH1 0x1 SWAP1 POP SWAP3 SWAP2 POP POP JUMP JUMPDEST PUSH1 0x1 PUSH1 0x20 MSTORE DUP3 PUSH0 MSTORE PUSH1 0x40 PUSH0 KECCAK256 PUSH1 0x20 MSTORE DUP2 PUSH0 MSTORE PUSH1 0x40 PUSH0 KECCAK256 PUSH1 0x20 MSTORE DUP1 PUSH0 MSTORE PUSH1 0x40 PUSH0 KECCAK256 PUSH0 SWAP3 POP SWAP3 POP POP POP SLOAD DUP2 JUMP JUMPDEST PUSH1 0x2 PUSH1 0x20 MSTORE DUP2 PUSH0 MSTORE PUSH1 0x40 PUSH0 KECCAK256 PUSH1 0x20 MSTORE DUP1 PUSH0 MSTORE PUSH1 0x40 PUSH0 KECCAK256 PUSH0 SWAP2 POP SWAP2 POP SWAP1 SLOAD SWAP1 PUSH2 0x100 EXP SWAP1 DIV PUSH1 0xFF AND DUP2 JUMP JUMPDEST PUSH0 DUP2 GT PUSH2 0x785 JUMPI PUSH1 0x40 MLOAD PUSH32 0x8C379A000000000000000000000000000000000000000000000000000000000 DUP2 MSTORE PUSH1 0x4 ADD PUSH2 0x77C SWAP1 PUSH2 0x122F JUMP JUMPDEST PUSH1 0x40 MLOAD DUP1 SWAP2 SUB SWAP1 REVERT JUMPDEST PUSH2 0x790 DUP4 DUP4 DUP4 PUSH2 0xC82 JUMP JUMPDEST POP POP POP JUMP JUMPDEST PUSH0 CALLER PUSH20 0xFFFFFFFFFFFFFFFFFFFFFFFFFFFFFFFFFFFFFFFF AND DUP6 PUSH20 0xFFFFFFFFFFFFFFFFFFFFFFFFFFFFFFFFFFFFFFFF AND EQ ISZERO DUP1 ISZERO PUSH2 0x854 JUMPI POP PUSH1 0x2 PUSH0 DUP7 PUSH20 0xFFFFFFFFFFFFFFFFFFFFFFFFFFFFFFFFFFFFFFFF AND PUSH20 0xFFFFFFFFFFFFFFFFFFFFFFFFFFFFFFFFFFFFFFFF AND DUP2 MSTORE PUSH1 0x20 ADD SWAP1 DUP2 MSTORE PUSH1 0x20 ADD PUSH0 KECCAK256 PUSH0 CALLER PUSH20 0xFFFFFFFFFFFFFFFFFFFFFFFFFFFFFFFFFFFFFFFF AND PUSH20 0xFFFFFFFFFFFFFFFFFFFFFFFFFFFFFFFFFFFFFFFF AND DUP2 MSTORE PUSH1 0x20 ADD SWAP1 DUP2 MSTORE PUSH1 0x20 ADD PUSH0 KECCAK256 PUSH0 SWAP1 SLOAD SWAP1 PUSH2 0x100 EXP SWAP1 DIV PUSH1 0xFF AND ISZERO JUMPDEST ISZERO PUSH2 0x9EC JUMPI PUSH0 PUSH1 0x1 PUSH0 DUP8 PUSH20 0xFFFFFFFFFFFFFFFFFFFFFFFFFFFFFFFFFFFFFFFF AND PUSH20 0xFFFFFFFFFFFFFFFFFFFFFFFFFFFFFFFFFFFFFFFF AND DUP2 MSTORE PUSH1 0x20 ADD SWAP1 DUP2 MSTORE PUSH1 0x20 ADD PUSH0 KECCAK256 PUSH0 CALLER PUSH20 0xFFFFFFFFFFFFFFFFFFFFFFFFFFFFFFFFFFFFFFFF AND PUSH20 0xFFFFFFFFFFFFFFFFFFFFFFFFFFFFFFFFFFFFFFFF AND DUP2 MSTORE PUSH1 0x20 ADD SWAP1 DUP2 MSTORE PUSH1 0x20 ADD PUSH0 KECCAK256 PUSH0 DUP6 DUP2 MSTORE PUSH1 0x20 ADD SWAP1 DUP2 MSTORE PUSH1 0x20 ADD PUSH0 KECCAK256 SLOAD SWAP1 POP DUP3 DUP2 LT ISZERO PUSH2 0x92B JUMPI CALLER DUP5 PUSH1 0x40 MLOAD PUSH32 0x731555BD00000000000000000000000000000000000000000000000000000000 DUP2 MSTORE PUSH1 0x4 ADD PUSH2 0x922 SWAP3 SWAP2 SWAP1 PUSH2 0x10B3 JUMP JUMPDEST PUSH1 0x40 MLOAD DUP1 SWAP2 SUB SWAP1 REVERT JUMPDEST PUSH32 0xFFFFFFFFFFFFFFFFFFFFFFFFFFFFFFFFFFFFFFFFFFFFFFFFFFFFFFFFFFFFFFFF DUP2 EQ PUSH2 0x9EA JUMPI DUP3 DUP2 PUSH2 0x95E SWAP2 SWAP1 PUSH2 0x1107 JUMP JUMPDEST PUSH1 0x1 PUSH0 DUP9 PUSH20 0xFFFFFFFFFFFFFFFFFFFFFFFFFFFFFFFFFFFFFFFF AND PUSH20 0xFFFFFFFFFFFFFFFFFFFFFFFFFFFFFFFFFFFFFFFF AND DUP2 MSTORE PUSH1 0x20 ADD SWAP1 DUP2 MSTORE PUSH1 0x20 ADD PUSH0 KECCAK256 PUSH0 CALLER PUSH20 0xFFFFFFFFFFFFFFFFFFFFFFFFFFFFFFFFFFFFFFFF AND PUSH20 0xFFFFFFFFFFFFFFFFFFFFFFFFFFFFFFFFFFFFFFFF AND DUP2 MSTORE PUSH1 0x20 ADD SWAP1 DUP2 MSTORE PUSH1 0x20 ADD PUSH0 KECCAK256 PUSH0 DUP7 DUP2 MSTORE PUSH1 0x20 ADD SWAP1 DUP2 MSTORE PUSH1 0x20 ADD PUSH0 KECCAK256 DUP2 SWAP1 SSTORE POP JUMPDEST POP JUMPDEST DUP2 PUSH0 DUP1 DUP8 PUSH20 0xFFFFFFFFFFFFFFFFFFFFFFFFFFFFFFFFFFFFFFFF AND PUSH20 0xFFFFFFFFFFFFFFFFFFFFFFFFFFFFFFFFFFFFFFFF AND DUP2 MSTORE PUSH1 0x20 ADD SWAP1 DUP2 MSTORE PUSH1 0x20 ADD PUSH0 KECCAK256 PUSH0 DUP6 DUP2 MSTORE PUSH1 0x20 ADD SWAP1 DUP2 MSTORE PUSH1 0x20 ADD PUSH0 KECCAK256 SLOAD LT ISZERO PUSH2 0xA7E JUMPI DUP5 DUP4 PUSH1 0x40 MLOAD PUSH32 0xF6DEAA0400000000000000000000000000000000000000000000000000000000 DUP2 MSTORE PUSH1 0x4 ADD PUSH2 0xA75 SWAP3 SWAP2 SWAP1 PUSH2 0x10B3 JUMP JUMPDEST PUSH1 0x40 MLOAD DUP1 SWAP2 SUB SWAP1 REVERT JUMPDEST DUP2 PUSH0 DUP1 DUP8 PUSH20 0xFFFFFFFFFFFFFFFFFFFFFFFFFFFFFFFFFFFFFFFF AND PUSH20 0xFFFFFFFFFFFFFFFFFFFFFFFFFFFFFFFFFFFFFFFF AND DUP2 MSTORE PUSH1 0x20 ADD SWAP1 DUP2 MSTORE PUSH1 0x20 ADD PUSH0 KECCAK256 PUSH0 DUP6 DUP2 MSTORE PUSH1 0x20 ADD SWAP1 DUP2 MSTORE PUSH1 0x20 ADD PUSH0 KECCAK256 PUSH0 DUP3 DUP3 SLOAD PUSH2 0xAD8 SWAP2 SWAP1 PUSH2 0x1107 JUMP JUMPDEST SWAP3 POP POP DUP2 SWAP1 SSTORE POP DUP2 PUSH0 DUP1 DUP7 PUSH20 0xFFFFFFFFFFFFFFFFFFFFFFFFFFFFFFFFFFFFFFFF AND PUSH20 0xFFFFFFFFFFFFFFFFFFFFFFFFFFFFFFFFFFFFFFFF AND DUP2 MSTORE PUSH1 0x20 ADD SWAP1 DUP2 MSTORE PUSH1 0x20 ADD PUSH0 KECCAK256 PUSH0 DUP6 DUP2 MSTORE PUSH1 0x20 ADD SWAP1 DUP2 MSTORE PUSH1 0x20 ADD PUSH0 KECCAK256 PUSH0 DUP3 DUP3 SLOAD PUSH2 0xB39 SWAP2 SWAP1 PUSH2 0x113A JUMP JUMPDEST SWAP3 POP POP DUP2 SWAP1 SSTORE POP DUP3 DUP5 PUSH20 0xFFFFFFFFFFFFFFFFFFFFFFFFFFFFFFFFFFFFFFFF AND DUP7 PUSH20 0xFFFFFFFFFFFFFFFFFFFFFFFFFFFFFFFFFFFFFFFF AND PUSH32 0x1B3D7EDB2E9C0B0E7C525B20AAAEF0F5940D2ED71663C7D39266ECAFAC728859 CALLER DUP7 PUSH1 0x40 MLOAD PUSH2 0xBA0 SWAP3 SWAP2 SWAP1 PUSH2 0x10B3 JUMP JUMPDEST PUSH1 0x40 MLOAD DUP1 SWAP2 SUB SWAP1 LOG4 PUSH1 0x1 SWAP1 POP SWAP5 SWAP4 POP POP POP POP JUMP JUMPDEST DUP1 PUSH0 DUP1 DUP6 PUSH20 0xFFFFFFFFFFFFFFFFFFFFFFFFFFFFFFFFFFFFFFFF AND PUSH20 0xFFFFFFFFFFFFFFFFFFFFFFFFFFFFFFFFFFFFFFFF AND DUP2 MSTORE PUSH1 0x20 ADD SWAP1 DUP2 MSTORE PUSH1 0x20 ADD PUSH0 KECCAK256 PUSH0 DUP5 DUP2 MSTORE PUSH1 0x20 ADD SWAP1 DUP2 MSTORE PUSH1 0x20 ADD PUSH0 KECCAK256 PUSH0 DUP3 DUP3 SLOAD PUSH2 0xC0E SWAP2 SWAP1 PUSH2 0x113A JUMP JUMPDEST SWAP3 POP POP DUP2 SWAP1 SSTORE POP DUP2 DUP4 PUSH20 0xFFFFFFFFFFFFFFFFFFFFFFFFFFFFFFFFFFFFFFFF AND PUSH0 PUSH20 0xFFFFFFFFFFFFFFFFFFFFFFFFFFFFFFFFFFFFFFFF AND PUSH32 0x1B3D7EDB2E9C0B0E7C525B20AAAEF0F5940D2ED71663C7D39266ECAFAC728859 CALLER DUP6 PUSH1 0x40 MLOAD PUSH2 0xC75 SWAP3 SWAP2 SWAP1 PUSH2 0x10B3 JUMP JUMPDEST PUSH1 0x40 MLOAD DUP1 SWAP2 SUB SWAP1 LOG4 POP POP POP JUMP JUMPDEST DUP1 PUSH0 DUP1 DUP6 PUSH20 0xFFFFFFFFFFFFFFFFFFFFFFFFFFFFFFFFFFFFFFFF AND PUSH20 0xFFFFFFFFFFFFFFFFFFFFFFFFFFFFFFFFFFFFFFFF AND DUP2 MSTORE PUSH1 0x20 ADD SWAP1 DUP2 MSTORE PUSH1 0x20 ADD PUSH0 KECCAK256 PUSH0 DUP5 DUP2 MSTORE PUSH1 0x20 ADD SWAP1 DUP2 MSTORE PUSH1 0x20 ADD PUSH0 KECCAK256 PUSH0 DUP3 DUP3 SLOAD PUSH2 0xCDC SWAP2 SWAP1 PUSH2 0x1107 JUMP JUMPDEST SWAP3 POP POP DUP2 SWAP1 SSTORE POP DUP2 PUSH0 PUSH20 0xFFFFFFFFFFFFFFFFFFFFFFFFFFFFFFFFFFFFFFFF AND DUP5 PUSH20 0xFFFFFFFFFFFFFFFFFFFFFFFFFFFFFFFFFFFFFFFF AND PUSH32 0x1B3D7EDB2E9C0B0E7C525B20AAAEF0F5940D2ED71663C7D39266ECAFAC728859 CALLER DUP6 PUSH1 0x40 MLOAD PUSH2 0xD43 SWAP3 SWAP2 SWAP1 PUSH2 0x10B3 JUMP JUMPDEST PUSH1 0x40 MLOAD DUP1 SWAP2 SUB SWAP1 LOG4 POP POP POP JUMP JUMPDEST PUSH0 DUP1 REVERT JUMPDEST PUSH0 PUSH20 0xFFFFFFFFFFFFFFFFFFFFFFFFFFFFFFFFFFFFFFFF DUP3 AND SWAP1 POP SWAP2 SWAP1 POP JUMP JUMPDEST PUSH0 PUSH2 0xD7D DUP3 PUSH2 0xD54 JUMP JUMPDEST SWAP1 POP SWAP2 SWAP1 POP JUMP JUMPDEST PUSH2 0xD8D DUP2 PUSH2 0xD73 JUMP JUMPDEST DUP2 EQ PUSH2 0xD97 JUMPI PUSH0 DUP1 REVERT JUMPDEST POP JUMP JUMPDEST PUSH0 DUP2 CALLDATALOAD SWAP1 POP PUSH2 0xDA8 DUP2 PUSH2 0xD84 JUMP JUMPDEST SWAP3 SWAP2 POP POP JUMP JUMPDEST PUSH0 DUP2 SWAP1 POP SWAP2 SWAP1 POP JUMP JUMPDEST PUSH2 0xDC0 DUP2 PUSH2 0xDAE JUMP JUMPDEST DUP2 EQ PUSH2 0xDCA JUMPI PUSH0 DUP1 REVERT JUMPDEST POP JUMP JUMPDEST PUSH0 DUP2 CALLDATALOAD SWAP1 POP PUSH2 0xDDB DUP2 PUSH2 0xDB7 JUMP JUMPDEST SWAP3 SWAP2 POP POP JUMP JUMPDEST PUSH0 DUP1 PUSH1 0x40 DUP4 DUP6 SUB SLT ISZERO PUSH2 0xDF7 JUMPI PUSH2 0xDF6 PUSH2 0xD50 JUMP JUMPDEST JUMPDEST PUSH0 PUSH2 0xE04 DUP6 DUP3 DUP7 ADD PUSH2 0xD9A JUMP JUMPDEST SWAP3 POP POP PUSH1 0x20 PUSH2 0xE15 DUP6 DUP3 DUP7 ADD PUSH2 0xDCD JUMP JUMPDEST SWAP2 POP POP SWAP3 POP SWAP3 SWAP1 POP JUMP JUMPDEST PUSH2 0xE28 DUP2 PUSH2 0xDAE JUMP JUMPDEST DUP3 MSTORE POP POP JUMP JUMPDEST PUSH0 PUSH1 0x20 DUP3 ADD SWAP1 POP PUSH2 0xE41 PUSH0 DUP4 ADD DUP5 PUSH2 0xE1F JUMP JUMPDEST SWAP3 SWAP2 POP POP JUMP JUMPDEST PUSH0 PUSH32 0xFFFFFFFF00000000000000000000000000000000000000000000000000000000 DUP3 AND SWAP1 POP SWAP2 SWAP1 POP JUMP JUMPDEST PUSH2 0xE7B DUP2 PUSH2 0xE47 JUMP JUMPDEST DUP2 EQ PUSH2 0xE85 JUMPI PUSH0 DUP1 REVERT JUMPDEST POP JUMP JUMPDEST PUSH0 DUP2 CALLDATALOAD SWAP1 POP PUSH2 0xE96 DUP2 PUSH2 0xE72 JUMP JUMPDEST SWAP3 SWAP2 POP POP JUMP JUMPDEST PUSH0 PUSH1 0x20 DUP3 DUP5 SUB SLT ISZERO PUSH2 0xEB1 JUMPI PUSH2 0xEB0 PUSH2 0xD50 JUMP JUMPDEST JUMPDEST PUSH0 PUSH2 0xEBE DUP5 DUP3 DUP6 ADD PUSH2 0xE88 JUMP JUMPDEST SWAP2 POP POP SWAP3 SWAP2 POP POP JUMP JUMPDEST PUSH0 DUP2 ISZERO ISZERO SWAP1 POP SWAP2 SWAP1 POP JUMP JUMPDEST PUSH2 0xEDB DUP2 PUSH2 0xEC7 JUMP JUMPDEST DUP3 MSTORE POP POP JUMP JUMPDEST PUSH0 PUSH1 0x20 DUP3 ADD SWAP1 POP PUSH2 0xEF4 PUSH0 DUP4 ADD DUP5 PUSH2 0xED2 JUMP JUMPDEST SWAP3 SWAP2 POP POP JUMP JUMPDEST PUSH0 DUP1 PUSH0 PUSH1 0x60 DUP5 DUP7 SUB SLT ISZERO PUSH2 0xF11 JUMPI PUSH2 0xF10 PUSH2 0xD50 JUMP JUMPDEST JUMPDEST PUSH0 PUSH2 0xF1E DUP7 DUP3 DUP8 ADD PUSH2 0xD9A JUMP JUMPDEST SWAP4 POP POP PUSH1 0x20 PUSH2 0xF2F DUP7 DUP3 DUP8 ADD PUSH2 0xDCD JUMP JUMPDEST SWAP3 POP POP PUSH1 0x40 PUSH2 0xF40 DUP7 DUP3 DUP8 ADD PUSH2 0xDCD JUMP JUMPDEST SWAP2 POP POP SWAP3 POP SWAP3 POP SWAP3 JUMP JUMPDEST PUSH2 0xF53 DUP2 PUSH2 0xEC7 JUMP JUMPDEST DUP2 EQ PUSH2 0xF5D JUMPI PUSH0 DUP1 REVERT JUMPDEST POP JUMP JUMPDEST PUSH0 DUP2 CALLDATALOAD SWAP1 POP PUSH2 0xF6E DUP2 PUSH2 0xF4A JUMP JUMPDEST SWAP3 SWAP2 POP POP JUMP JUMPDEST PUSH0 DUP1 PUSH1 0x40 DUP4 DUP6 SUB SLT ISZERO PUSH2 0xF8A JUMPI PUSH2 0xF89 PUSH2 0xD50 JUMP JUMPDEST JUMPDEST PUSH0 PUSH2 0xF97 DUP6 DUP3 DUP7 ADD PUSH2 0xD9A JUMP JUMPDEST SWAP3 POP POP PUSH1 0x20 PUSH2 0xFA8 DUP6 DUP3 DUP7 ADD PUSH2 0xF60 JUMP JUMPDEST SWAP2 POP POP SWAP3 POP SWAP3 SWAP1 POP JUMP JUMPDEST PUSH0 DUP1 PUSH0 PUSH1 0x60 DUP5 DUP7 SUB SLT ISZERO PUSH2 0xFC9 JUMPI PUSH2 0xFC8 PUSH2 0xD50 JUMP JUMPDEST JUMPDEST PUSH0 PUSH2 0xFD6 DUP7 DUP3 DUP8 ADD PUSH2 0xD9A JUMP JUMPDEST SWAP4 POP POP PUSH1 0x20 PUSH2 0xFE7 DUP7 DUP3 DUP8 ADD PUSH2 0xD9A JUMP JUMPDEST SWAP3 POP POP PUSH1 0x40 PUSH2 0xFF8 DUP7 DUP3 DUP8 ADD PUSH2 0xDCD JUMP JUMPDEST SWAP2 POP POP SWAP3 POP SWAP3 POP SWAP3 JUMP JUMPDEST PUSH0 DUP1 PUSH1 0x40 DUP4 DUP6 SUB SLT ISZERO PUSH2 0x1018 JUMPI PUSH2 0x1017 PUSH2 0xD50 JUMP JUMPDEST JUMPDEST PUSH0 PUSH2 0x1025 DUP6 DUP3 DUP7 ADD PUSH2 0xD9A JUMP JUMPDEST SWAP3 POP POP PUSH1 0x20 PUSH2 0x1036 DUP6 DUP3 DUP7 ADD PUSH2 0xD9A JUMP JUMPDEST SWAP2 POP POP SWAP3 POP SWAP3 SWAP1 POP JUMP JUMPDEST PUSH0 DUP1 PUSH0 DUP1 PUSH1 0x80 DUP6 DUP8 SUB SLT ISZERO PUSH2 0x1058 JUMPI PUSH2 0x1057 PUSH2 0xD50 JUMP JUMPDEST JUMPDEST PUSH0 PUSH2 0x1065 DUP8 DUP3 DUP9 ADD PUSH2 0xD9A JUMP JUMPDEST SWAP5 POP POP PUSH1 0x20 PUSH2 0x1076 DUP8 DUP3 DUP9 ADD PUSH2 0xD9A JUMP JUMPDEST SWAP4 POP POP PUSH1 0x40 PUSH2 0x1087 DUP8 DUP3 DUP9 ADD PUSH2 0xDCD JUMP JUMPDEST SWAP3 POP POP PUSH1 0x60 PUSH2 0x1098 DUP8 DUP3 DUP9 ADD PUSH2 0xDCD JUMP JUMPDEST SWAP2 POP POP SWAP3 SWAP6 SWAP2 SWAP5 POP SWAP3 POP JUMP JUMPDEST PUSH2 0x10AD DUP2 PUSH2 0xD73 JUMP JUMPDEST DUP3 MSTORE POP POP JUMP JUMPDEST PUSH0 PUSH1 0x40 DUP3 ADD SWAP1 POP PUSH2 0x10C6 PUSH0 DUP4 ADD DUP6 PUSH2 0x10A4 JUMP JUMPDEST PUSH2 0x10D3 PUSH1 0x20 DUP4 ADD DUP5 PUSH2 0xE1F JUMP JUMPDEST SWAP4 SWAP3 POP POP POP JUMP JUMPDEST PUSH32 0x4E487B7100000000000000000000000000000000000000000000000000000000 PUSH0 MSTORE PUSH1 0x11 PUSH1 0x4 MSTORE PUSH1 0x24 PUSH0 REVERT JUMPDEST PUSH0 PUSH2 0x1111 DUP3 PUSH2 0xDAE JUMP JUMPDEST SWAP2 POP PUSH2 0x111C DUP4 PUSH2 0xDAE JUMP JUMPDEST SWAP3 POP DUP3 DUP3 SUB SWAP1 POP DUP2 DUP2 GT ISZERO PUSH2 0x1134 JUMPI PUSH2 0x1133 PUSH2 0x10DA JUMP JUMPDEST JUMPDEST SWAP3 SWAP2 POP POP JUMP JUMPDEST PUSH0 PUSH2 0x1144 DUP3 PUSH2 0xDAE JUMP JUMPDEST SWAP2 POP PUSH2 0x114F DUP4 PUSH2 0xDAE JUMP JUMPDEST SWAP3 POP DUP3 DUP3 ADD SWAP1 POP DUP1 DUP3 GT ISZERO PUSH2 0x1167 JUMPI PUSH2 0x1166 PUSH2 0x10DA JUMP JUMPDEST JUMPDEST SWAP3 SWAP2 POP POP JUMP JUMPDEST PUSH0 DUP3 DUP3 MSTORE PUSH1 0x20 DUP3 ADD SWAP1 POP SWAP3 SWAP2 POP POP JUMP JUMPDEST PUSH32 0x5A4B46546F6B656E3A206D696E74696E67207A65726F20616D6F756E74000000 PUSH0 DUP3 ADD MSTORE POP JUMP JUMPDEST PUSH0 PUSH2 0x11B1 PUSH1 0x1D DUP4 PUSH2 0x116D JUMP JUMPDEST SWAP2 POP PUSH2 0x11BC DUP3 PUSH2 0x117D JUMP JUMPDEST PUSH1 0x20 DUP3 ADD SWAP1 POP SWAP2 SWAP1 POP JUMP JUMPDEST PUSH0 PUSH1 0x20 DUP3 ADD SWAP1 POP DUP2 DUP2 SUB PUSH0 DUP4 ADD MSTORE PUSH2 0x11DE DUP2 PUSH2 0x11A5 JUMP JUMPDEST SWAP1 POP SWAP2 SWAP1 POP JUMP JUMPDEST PUSH32 0x5A4B46546F6B656E3A206275726E696E67207A65726F20616D6F756E74000000 PUSH0 DUP3 ADD MSTORE POP JUMP JUMPDEST PUSH0 PUSH2 0x1219 PUSH1 0x1D DUP4 PUSH2 0x116D JUMP JUMPDEST SWAP2 POP PUSH2 0x1224 DUP3 PUSH2 0x11E5 JUMP JUMPDEST PUSH1 0x20 DUP3 ADD SWAP1 POP SWAP2 SWAP1 POP JUMP JUMPDEST PUSH0 PUSH1 0x20 DUP3 ADD SWAP1 POP DUP2 DUP2 SUB PUSH0 DUP4 ADD MSTORE PUSH2 0x1246 DUP2 PUSH2 0x120D JUMP JUMPDEST SWAP1 POP SWAP2 SWAP1 POP JUMP INVALID LOG2 PUSH5 0x6970667358 0x22 SLT KECCAK256 PUSH6 0x8B503905F7BB DELEGATECALL REVERT 0x2B DIV PUSH23 0xD5E3958E4B30F60F8F9743D859DCF59D9C6EEB3964736F PUSH13 0x634300081A0033000000000000 "
				},
				"gasEstimates": {
					"creation": {
						"codeDepositCost": "947800",
						"executionCost": "986",
						"totalCost": "948786"
					},
					"external": {
						"allowance(address,address,uint256)": "infinite",
						"approve(address,uint256,uint256)": "infinite",
						"balanceOf(address,uint256)": "infinite",
						"burn(address,uint256,uint256)": "infinite",
						"isOperator(address,address)": "infinite",
						"mint(address,uint256,uint256)": "infinite",
						"setOperator(address,bool)": "infinite",
						"supportsInterface(bytes4)": "692",
						"transfer(address,uint256,uint256)": "infinite",
						"transferFrom(address,address,uint256,uint256)": "infinite"
					}
				},
				"methodIdentifiers": {
					"allowance(address,address,uint256)": "598af9e7",
					"approve(address,uint256,uint256)": "426a8493",
					"balanceOf(address,uint256)": "00fdd58e",
					"burn(address,uint256,uint256)": "f5298aca",
					"isOperator(address,address)": "b6363cf2",
					"mint(address,uint256,uint256)": "156e29f6",
					"setOperator(address,bool)": "558a7297",
					"supportsInterface(bytes4)": "01ffc9a7",
					"transfer(address,uint256,uint256)": "095bcdb6",
					"transferFrom(address,address,uint256,uint256)": "fe99049a"
				}
			},
			"storageLayout": {
				"storage": [
					{
						"astId": 56,
						"contract": "src/ZKFToken.sol:ZKFToken",
						"label": "balanceOf",
						"offset": 0,
						"slot": "0",
						"type": "t_mapping(t_address,t_mapping(t_uint256,t_uint256))"
					},
					{
						"astId": 65,
						"contract": "src/ZKFToken.sol:ZKFToken",
						"label": "allowance",
						"offset": 0,
						"slot": "1",
						"type": "t_mapping(t_address,t_mapping(t_address,t_mapping(t_uint256,t_uint256)))"
					},
					{
						"astId": 72,
						"contract": "src/ZKFToken.sol:ZKFToken",
						"label": "isOperator",
						"offset": 0,
						"slot": "2",
						"type": "t_mapping(t_address,t_mapping(t_address,t_bool))"
					}
				],
				"types": {
					"t_address": {
						"encoding": "inplace",
						"label": "address",
						"numberOfBytes": "20"
					},
					"t_bool": {
						"encoding": "inplace",
						"label": "bool",
						"numberOfBytes": "1"
					},
					"t_mapping(t_address,t_bool)": {
						"encoding": "mapping",
						"key": "t_address",
						"label": "mapping(address => bool)",
						"numberOfBytes": "32",
						"value": "t_bool"
					},
					"t_mapping(t_address,t_mapping(t_address,t_bool))": {
						"encoding": "mapping",
						"key": "t_address",
						"label": "mapping(address => mapping(address => bool))",
						"numberOfBytes": "32",
						"value": "t_mapping(t_address,t_bool)"
					},
					"t_mapping(t_address,t_mapping(t_address,t_mapping(t_uint256,t_uint256)))": {
						"encoding": "mapping",
						"key": "t_address",
						"label": "mapping(address => mapping(address => mapping(uint256 => uint256)))",
						"numberOfBytes": "32",
						"value": "t_mapping(t_address,t_mapping(t_uint256,t_uint256))"
					},
					"t_mapping(t_address,t_mapping(t_uint256,t_uint256))": {
						"encoding": "mapping",
						"key": "t_address",
						"label": "mapping(address => mapping(uint256 => uint256))",
						"numberOfBytes": "32",
						"value": "t_mapping(t_uint256,t_uint256)"
					},
					"t_mapping(t_uint256,t_uint256)": {
						"encoding": "mapping",
						"key": "t_uint256",
						"label": "mapping(uint256 => uint256)",
						"numberOfBytes": "32",
						"value": "t_uint256"
					},
					"t_uint256": {
						"encoding": "inplace",
						"label": "uint256",
						"numberOfBytes": "32"
					}
				}
			},
			"userdoc": {
				"events": {
					"Approval(address,address,uint256,uint256)": {
						"notice": "The event emitted when an approval occurs."
					},
					"OperatorSet(address,address,bool)": {
						"notice": "The event emitted when an operator is set."
					},
					"Transfer(address,address,address,uint256,uint256)": {
						"notice": "The event emitted when a transfer occurs."
					}
				},
				"kind": "user",
				"methods": {
					"allowance(address,address,uint256)": {
						"notice": "Spender allowance of an id."
					},
					"approve(address,uint256,uint256)": {
						"notice": "Approves an amount of an id to a spender."
					},
					"balanceOf(address,uint256)": {
						"notice": "Owner balance of an id."
					},
					"isOperator(address,address)": {
						"notice": "Checks if a spender is approved by an owner as an operator."
					},
					"setOperator(address,bool)": {
						"notice": "Sets or removes a spender as an operator for the caller."
					},
					"supportsInterface(bytes4)": {
						"notice": "Checks if a contract implements an interface."
					},
					"transfer(address,uint256,uint256)": {
						"notice": "Transfers an amount of an id from the caller to a receiver."
					},
					"transferFrom(address,address,uint256,uint256)": {
						"notice": "Transfers an amount of an id from a sender to a receiver."
					}
				},
				"version": 1
			}
		}
	}
}